{
	"MathContract.sol": {
		"MathContract": {
			"abi": [
				{
					"inputs": [],
					"name": "getStatus",
					"outputs": [
						{
							"internalType": "uint256",
							"name": "",
							"type": "uint256"
						}
					],
					"stateMutability": "view",
					"type": "function"
				},
				{
					"inputs": [
						{
							"internalType": "uint256",
							"name": "x",
							"type": "uint256"
						},
						{
							"internalType": "uint256",
							"name": "y",
							"type": "uint256"
						}
					],
					"name": "multiply",
					"outputs": [
						{
							"internalType": "uint256",
							"name": "",
							"type": "uint256"
						}
					],
					"stateMutability": "pure",
					"type": "function"
				}
			],
			"devdoc": {
				"kind": "dev",
				"methods": {},
				"version": 1
			},
			"evm": {
				"assembly": "    /* \"MathContract.sol\":57:278  contract MathContract{... */\n  mstore(0x40, 0x80)\n    /* \"MathContract.sol\":99:100  2 */\n  0x02\n    /* \"MathContract.sol\":85:100  uint status = 2 */\n  0x00\n  sstore\n    /* \"MathContract.sol\":57:278  contract MathContract{... */\n  callvalue\n  dup1\n  iszero\n  tag_1\n  jumpi\n  0x00\n  dup1\n  revert\ntag_1:\n  pop\n  dataSize(sub_0)\n  dup1\n  dataOffset(sub_0)\n  0x00\n  codecopy\n  0x00\n  return\nstop\n\nsub_0: assembly {\n        /* \"MathContract.sol\":57:278  contract MathContract{... */\n      mstore(0x40, 0x80)\n      callvalue\n      dup1\n      iszero\n      tag_1\n      jumpi\n      0x00\n      dup1\n      revert\n    tag_1:\n      pop\n      jumpi(tag_2, lt(calldatasize, 0x04))\n      shr(0xe0, calldataload(0x00))\n      dup1\n      0x165c4a16\n      eq\n      tag_3\n      jumpi\n      dup1\n      0x4e69d560\n      eq\n      tag_4\n      jumpi\n    tag_2:\n      0x00\n      dup1\n      revert\n        /* \"MathContract.sol\":107:193  function multiply(uint x ,uint y) public pure returns(uint){... */\n    tag_3:\n      tag_5\n      tag_6\n      calldatasize\n      0x04\n      tag_7\n      jump\t// in\n    tag_6:\n      tag_8\n      jump\t// in\n    tag_5:\n      mload(0x40)\n        /* \"#utility.yul\":413:438   */\n      swap1\n      dup2\n      mstore\n        /* \"#utility.yul\":401:403   */\n      0x20\n        /* \"#utility.yul\":386:404   */\n      add\n        /* \"MathContract.sol\":107:193  function multiply(uint x ,uint y) public pure returns(uint){... */\n      mload(0x40)\n      dup1\n      swap2\n      sub\n      swap1\n      return\n        /* \"MathContract.sol\":199:275  function getStatus() public view returns(uint){... */\n    tag_4:\n        /* \"MathContract.sol\":240:244  uint */\n      0x00\n        /* \"MathContract.sol\":262:268  status */\n      sload\n        /* \"MathContract.sol\":199:275  function getStatus() public view returns(uint){... */\n      jump(tag_5)\n        /* \"MathContract.sol\":107:193  function multiply(uint x ,uint y) public pure returns(uint){... */\n    tag_8:\n        /* \"MathContract.sol\":161:165  uint */\n      0x00\n        /* \"MathContract.sol\":183:186  x*y */\n      tag_15\n        /* \"MathContract.sol\":185:186  y */\n      dup3\n        /* \"MathContract.sol\":183:184  x */\n      dup5\n        /* \"MathContract.sol\":183:186  x*y */\n      tag_16\n      jump\t// in\n    tag_15:\n        /* \"MathContract.sol\":176:186  return x*y */\n      swap4\n        /* \"MathContract.sol\":107:193  function multiply(uint x ,uint y) public pure returns(uint){... */\n      swap3\n      pop\n      pop\n      pop\n      jump\t// out\n        /* \"#utility.yul\":14:262   */\n    tag_7:\n        /* \"#utility.yul\":82:88   */\n      0x00\n        /* \"#utility.yul\":90:96   */\n      dup1\n        /* \"#utility.yul\":143:145   */\n      0x40\n        /* \"#utility.yul\":131:140   */\n      dup4\n        /* \"#utility.yul\":122:129   */\n      dup6\n        /* \"#utility.yul\":118:141   */\n      sub\n        /* \"#utility.yul\":114:146   */\n      slt\n        /* \"#utility.yul\":111:163   */\n      iszero\n      tag_20\n      jumpi\n        /* \"#utility.yul\":159:160   */\n      0x00\n        /* \"#utility.yul\":156:157   */\n      dup1\n        /* \"#utility.yul\":149:161   */\n      revert\n        /* \"#utility.yul\":111:163   */\n    tag_20:\n      pop\n      pop\n        /* \"#utility.yul\":182:205   */\n      dup1\n      calldataload\n      swap3\n        /* \"#utility.yul\":252:254   */\n      0x20\n        /* \"#utility.yul\":237:255   */\n      swap1\n      swap2\n      add\n        /* \"#utility.yul\":224:256   */\n      calldataload\n      swap2\n      pop\n        /* \"#utility.yul\":14:262   */\n      jump\t// out\n        /* \"#utility.yul\":449:714   */\n    tag_16:\n        /* \"#utility.yul\":489:496   */\n      0x00\n        /* \"#utility.yul\":555:556   */\n      dup2\n        /* \"#utility.yul\":551:552   */\n      0x00\n        /* \"#utility.yul\":547:553   */\n      not\n        /* \"#utility.yul\":543:557   */\n      div\n        /* \"#utility.yul\":540:541   */\n      dup4\n        /* \"#utility.yul\":537:558   */\n      gt\n        /* \"#utility.yul\":532:533   */\n      dup3\n        /* \"#utility.yul\":525:534   */\n      iszero\n        /* \"#utility.yul\":518:535   */\n      iszero\n        /* \"#utility.yul\":514:559   */\n      and\n        /* \"#utility.yul\":511:679   */\n      iszero\n      tag_23\n      jumpi\n        /* \"#utility.yul\":601:611   */\n      0x4e487b71\n        /* \"#utility.yul\":596:599   */\n      0xe0\n        /* \"#utility.yul\":592:612   */\n      shl\n        /* \"#utility.yul\":589:590   */\n      0x00\n        /* \"#utility.yul\":582:613   */\n      mstore\n        /* \"#utility.yul\":636:640   */\n      0x11\n        /* \"#utility.yul\":633:634   */\n      0x04\n        /* \"#utility.yul\":626:641   */\n      mstore\n        /* \"#utility.yul\":664:668   */\n      0x24\n        /* \"#utility.yul\":661:662   */\n      0x00\n        /* \"#utility.yul\":654:669   */\n      revert\n        /* \"#utility.yul\":511:679   */\n    tag_23:\n      pop\n        /* \"#utility.yul\":699:708   */\n      mul\n      swap1\n        /* \"#utility.yul\":449:714   */\n      jump\t// out\n\n    auxdata: 0xa26469706673582212202e13fd484dafd409bc04c12222e8575a5b37fe53827a1d4f3061cf4daa850ec764736f6c63430008070033\n}\n",
				"bytecode": {
					"linkReferences": {},
					"object": "6080604052600260005534801561001557600080fd5b5060f3806100246000396000f3fe6080604052348015600f57600080fd5b506004361060325760003560e01c8063165c4a161460375780634e69d560146058575b600080fd5b604660423660046070565b605f565b60405190815260200160405180910390f35b6000546046565b6000606982846091565b9392505050565b60008060408385031215608257600080fd5b50508035926020909101359150565b600081600019048311821515161560b857634e487b7160e01b600052601160045260246000fd5b50029056fea26469706673582212202e13fd484dafd409bc04c12222e8575a5b37fe53827a1d4f3061cf4daa850ec764736f6c63430008070033",
					"opcodes": "PUSH1 0x80 PUSH1 0x40 MSTORE PUSH1 0x2 PUSH1 0x0 SSTORE CALLVALUE DUP1 ISZERO PUSH2 0x15 JUMPI PUSH1 0x0 DUP1 REVERT JUMPDEST POP PUSH1 0xF3 DUP1 PUSH2 0x24 PUSH1 0x0 CODECOPY PUSH1 0x0 RETURN INVALID PUSH1 0x80 PUSH1 0x40 MSTORE CALLVALUE DUP1 ISZERO PUSH1 0xF JUMPI PUSH1 0x0 DUP1 REVERT JUMPDEST POP PUSH1 0x4 CALLDATASIZE LT PUSH1 0x32 JUMPI PUSH1 0x0 CALLDATALOAD PUSH1 0xE0 SHR DUP1 PUSH4 0x165C4A16 EQ PUSH1 0x37 JUMPI DUP1 PUSH4 0x4E69D560 EQ PUSH1 0x58 JUMPI JUMPDEST PUSH1 0x0 DUP1 REVERT JUMPDEST PUSH1 0x46 PUSH1 0x42 CALLDATASIZE PUSH1 0x4 PUSH1 0x70 JUMP JUMPDEST PUSH1 0x5F JUMP JUMPDEST PUSH1 0x40 MLOAD SWAP1 DUP2 MSTORE PUSH1 0x20 ADD PUSH1 0x40 MLOAD DUP1 SWAP2 SUB SWAP1 RETURN JUMPDEST PUSH1 0x0 SLOAD PUSH1 0x46 JUMP JUMPDEST PUSH1 0x0 PUSH1 0x69 DUP3 DUP5 PUSH1 0x91 JUMP JUMPDEST SWAP4 SWAP3 POP POP POP JUMP JUMPDEST PUSH1 0x0 DUP1 PUSH1 0x40 DUP4 DUP6 SUB SLT ISZERO PUSH1 0x82 JUMPI PUSH1 0x0 DUP1 REVERT JUMPDEST POP POP DUP1 CALLDATALOAD SWAP3 PUSH1 0x20 SWAP1 SWAP2 ADD CALLDATALOAD SWAP2 POP JUMP JUMPDEST PUSH1 0x0 DUP2 PUSH1 0x0 NOT DIV DUP4 GT DUP3 ISZERO ISZERO AND ISZERO PUSH1 0xB8 JUMPI PUSH4 0x4E487B71 PUSH1 0xE0 SHL PUSH1 0x0 MSTORE PUSH1 0x11 PUSH1 0x4 MSTORE PUSH1 0x24 PUSH1 0x0 REVERT JUMPDEST POP MUL SWAP1 JUMP INVALID LOG2 PUSH5 0x6970667358 0x22 SLT KECCAK256 0x2E SGT REVERT BASEFEE 0x4D 0xAF 0xD4 MULMOD 0xBC DIV 0xC1 0x22 0x22 0xE8 JUMPI GAS JUMPDEST CALLDATACOPY INVALID MSTORE8 DUP3 PUSH27 0x1D4F3061CF4DAA850EC764736F6C63430008070033000000000000 "
				},
				"gasEstimates": {
					"creation": {
						"codeDepositCost": "48600",
						"executionCost": "22205",
						"totalCost": "70805"
					},
					"external": {
						"getStatus()": "2280",
						"multiply(uint256,uint256)": "374"
					}
				},
				"methodIdentifiers": {
					"getStatus()": "4e69d560",
					"multiply(uint256,uint256)": "165c4a16"
				}
			},
			"storageLayout": {
				"storage": [
					{
						"astId": 4,
						"contract": "MathContract.sol:MathContract",
						"label": "status",
						"offset": 0,
						"slot": "0",
						"type": "t_uint256"
					}
				],
				"types": {
					"t_uint256": {
						"encoding": "inplace",
						"label": "uint256",
						"numberOfBytes": "32"
					}
				}
			},
			"userdoc": {
				"kind": "user",
				"methods": {},
				"version": 1
			}
		}
	}
}