{
	"GlobalInfoViewer.sol": {
		"GlobalInfoViewer": {
			"abi": [
				{
					"inputs": [],
					"name": "viewInfo",
					"outputs": [
						{
							"internalType": "address",
							"name": "",
							"type": "address"
						},
						{
							"internalType": "uint256",
							"name": "",
							"type": "uint256"
						},
						{
							"internalType": "uint256",
							"name": "",
							"type": "uint256"
						}
					],
					"stateMutability": "view",
					"type": "function"
				}
			],
			"devdoc": {
				"kind": "dev",
				"methods": {},
				"version": 1
			},
			"evm": {
				"assembly": "    /* \"GlobalInfoViewer.sol\":57:322  contract GlobalInfoViewer{... */\n  mstore(0x40, 0x80)\n  callvalue\n  dup1\n  iszero\n  tag_1\n  jumpi\n  0x00\n  dup1\n  revert\ntag_1:\n  pop\n  dataSize(sub_0)\n  dup1\n  dataOffset(sub_0)\n  0x00\n  codecopy\n  0x00\n  return\nstop\n\nsub_0: assembly {\n        /* \"GlobalInfoViewer.sol\":57:322  contract GlobalInfoViewer{... */\n      mstore(0x40, 0x80)\n      callvalue\n      dup1\n      iszero\n      tag_1\n      jumpi\n      0x00\n      dup1\n      revert\n    tag_1:\n      pop\n      jumpi(tag_2, lt(calldatasize, 0x04))\n      shr(0xe0, calldataload(0x00))\n      dup1\n      0xae601480\n      eq\n      tag_3\n      jumpi\n    tag_2:\n      0x00\n      dup1\n      revert\n        /* \"GlobalInfoViewer.sol\":88:320  function viewInfo()  external view returns(address,uint,uint){... */\n    tag_3:\n      0x40\n      dup1\n      mload\n        /* \"GlobalInfoViewer.sol\":177:187  msg.sender */\n      caller\n        /* \"#utility.yul\":216:267   */\n      dup2\n      mstore\n        /* \"GlobalInfoViewer.sol\":214:229  block.timestamp */\n      timestamp\n        /* \"#utility.yul\":298:300   */\n      0x20\n        /* \"#utility.yul\":283:301   */\n      dup3\n      add\n        /* \"#utility.yul\":276:310   */\n      mstore\n        /* \"GlobalInfoViewer.sol\":255:267  block.number */\n      number\n        /* \"#utility.yul\":326:344   */\n      dup2\n      dup4\n      add\n        /* \"#utility.yul\":319:353   */\n      mstore\n        /* \"GlobalInfoViewer.sol\":88:320  function viewInfo()  external view returns(address,uint,uint){... */\n      swap1\n      mload\n      swap1\n      dup2\n      swap1\n      sub\n        /* \"#utility.yul\":204:206   */\n      0x60\n        /* \"GlobalInfoViewer.sol\":88:320  function viewInfo()  external view returns(address,uint,uint){... */\n      add\n      swap1\n      return\n\n    auxdata: 0xa2646970667358221220e47a795a79522d27ecdfd380852a4cd7ab28dd451a0921c9c6bfa9a03f3b9f2a64736f6c63430008070033\n}\n",
				"bytecode": {
					"linkReferences": {},
					"object": "6080604052348015600f57600080fd5b50608180601d6000396000f3fe6080604052348015600f57600080fd5b506004361060285760003560e01c8063ae60148014602d575b600080fd5b60408051338152426020820152438183015290519081900360600190f3fea2646970667358221220e47a795a79522d27ecdfd380852a4cd7ab28dd451a0921c9c6bfa9a03f3b9f2a64736f6c63430008070033",
					"opcodes": "PUSH1 0x80 PUSH1 0x40 MSTORE CALLVALUE DUP1 ISZERO PUSH1 0xF JUMPI PUSH1 0x0 DUP1 REVERT JUMPDEST POP PUSH1 0x81 DUP1 PUSH1 0x1D PUSH1 0x0 CODECOPY PUSH1 0x0 RETURN INVALID PUSH1 0x80 PUSH1 0x40 MSTORE CALLVALUE DUP1 ISZERO PUSH1 0xF JUMPI PUSH1 0x0 DUP1 REVERT JUMPDEST POP PUSH1 0x4 CALLDATASIZE LT PUSH1 0x28 JUMPI PUSH1 0x0 CALLDATALOAD PUSH1 0xE0 SHR DUP1 PUSH4 0xAE601480 EQ PUSH1 0x2D JUMPI JUMPDEST PUSH1 0x0 DUP1 REVERT JUMPDEST PUSH1 0x40 DUP1 MLOAD CALLER DUP2 MSTORE TIMESTAMP PUSH1 0x20 DUP3 ADD MSTORE NUMBER DUP2 DUP4 ADD MSTORE SWAP1 MLOAD SWAP1 DUP2 SWAP1 SUB PUSH1 0x60 ADD SWAP1 RETURN INVALID LOG2 PUSH5 0x6970667358 0x22 SLT KECCAK256 0xE4 PUSH27 0x795A79522D27ECDFD380852A4CD7AB28DD451A0921C9C6BFA9A03F EXTCODESIZE SWAP16 0x2A PUSH5 0x736F6C6343 STOP ADDMOD SMOD STOP CALLER "
				},
				"gasEstimates": {
					"creation": {
						"codeDepositCost": "25800",
						"executionCost": "81",
						"totalCost": "25881"
					},
					"external": {
						"viewInfo()": "182"
					}
				},
				"methodIdentifiers": {
					"viewInfo()": "ae601480"
				}
			},
			"storageLayout": {
				"storage": [],
				"types": null
			},
			"userdoc": {
				"kind": "user",
				"methods": {},
				"version": 1
			}
		}
	}
}