{
	"Constants.sol": {
		"Constants": {
			"abi": [
				{
					"inputs": [],
					"name": "addr",
					"outputs": [
						{
							"internalType": "address",
							"name": "",
							"type": "address"
						}
					],
					"stateMutability": "view",
					"type": "function"
				},
				{
					"inputs": [],
					"name": "constantAddr",
					"outputs": [
						{
							"internalType": "address",
							"name": "",
							"type": "address"
						}
					],
					"stateMutability": "view",
					"type": "function"
				}
			],
			"devdoc": {
				"kind": "dev",
				"methods": {},
				"version": 1
			},
			"evm": {
				"assembly": "    /* \"Constants.sol\":56:256  contract Constants{... */\n  mstore(0x40, 0x80)\n    /* \"Constants.sol\":178:242  address public addr = 0xEAEC9B481c60e8cDc3cdF2D342082C349E5D6318 */\n  0x00\n  dup1\n  sload\n  not(sub(shl(0xa0, 0x01), 0x01))\n  and\n    /* \"Constants.sol\":200:242  0xEAEC9B481c60e8cDc3cdF2D342082C349E5D6318 */\n  0xeaec9b481c60e8cdc3cdf2d342082c349e5d6318\n    /* \"Constants.sol\":178:242  address public addr = 0xEAEC9B481c60e8cDc3cdF2D342082C349E5D6318 */\n  or\n  swap1\n  sstore\n    /* \"Constants.sol\":56:256  contract Constants{... */\n  callvalue\n  dup1\n  iszero\n  tag_1\n  jumpi\n  0x00\n  dup1\n  revert\ntag_1:\n  pop\n  dataSize(sub_0)\n  dup1\n  dataOffset(sub_0)\n  0x00\n  codecopy\n  0x00\n  return\nstop\n\nsub_0: assembly {\n        /* \"Constants.sol\":56:256  contract Constants{... */\n      mstore(0x40, 0x80)\n      callvalue\n      dup1\n      iszero\n      tag_1\n      jumpi\n      0x00\n      dup1\n      revert\n    tag_1:\n      pop\n      jumpi(tag_2, lt(calldatasize, 0x04))\n      shr(0xe0, calldataload(0x00))\n      dup1\n      0x767800de\n      eq\n      tag_3\n      jumpi\n      dup1\n      0xa588c982\n      eq\n      tag_4\n      jumpi\n    tag_2:\n      0x00\n      dup1\n      revert\n        /* \"Constants.sol\":178:242  address public addr = 0xEAEC9B481c60e8cDc3cdF2D342082C349E5D6318 */\n    tag_3:\n      sload(0x00)\n      tag_5\n      swap1\n      sub(shl(0xa0, 0x01), 0x01)\n      and\n      dup2\n      jump\n    tag_5:\n      mload(0x40)\n      sub(shl(0xa0, 0x01), 0x01)\n        /* \"#utility.yul\":178:210   */\n      swap1\n      swap2\n      and\n        /* \"#utility.yul\":160:211   */\n      dup2\n      mstore\n        /* \"#utility.yul\":148:150   */\n      0x20\n        /* \"#utility.yul\":133:151   */\n      add\n        /* \"Constants.sol\":178:242  address public addr = 0xEAEC9B481c60e8cDc3cdF2D342082C349E5D6318 */\n      mload(0x40)\n      dup1\n      swap2\n      sub\n      swap1\n      return\n        /* \"Constants.sol\":80:161  address public constant constantAddr = 0xF055775eBD516e7419ae486C1d50C682d4170645 */\n    tag_4:\n      tag_5\n        /* \"Constants.sol\":119:161  0xF055775eBD516e7419ae486C1d50C682d4170645 */\n      0xf055775ebd516e7419ae486c1d50c682d4170645\n        /* \"Constants.sol\":80:161  address public constant constantAddr = 0xF055775eBD516e7419ae486C1d50C682d4170645 */\n      dup2\n      jump\n\n    auxdata: 0xa264697066735822122096b28d93d5872ee09040dcf041dfc24028cd818a2c7614b39207640b6d98d1f864736f6c63430008070033\n}\n",
				"bytecode": {
					"linkReferences": {},
					"object": "6080604052600080546001600160a01b03191673eaec9b481c60e8cdc3cdf2d342082c349e5d631817905534801561003657600080fd5b5060b5806100456000396000f3fe6080604052348015600f57600080fd5b506004361060325760003560e01c8063767800de146037578063a588c982146065575b600080fd5b6000546049906001600160a01b031681565b6040516001600160a01b03909116815260200160405180910390f35b604973f055775ebd516e7419ae486c1d50c682d41706458156fea264697066735822122096b28d93d5872ee09040dcf041dfc24028cd818a2c7614b39207640b6d98d1f864736f6c63430008070033",
					"opcodes": "PUSH1 0x80 PUSH1 0x40 MSTORE PUSH1 0x0 DUP1 SLOAD PUSH1 0x1 PUSH1 0x1 PUSH1 0xA0 SHL SUB NOT AND PUSH20 0xEAEC9B481C60E8CDC3CDF2D342082C349E5D6318 OR SWAP1 SSTORE CALLVALUE DUP1 ISZERO PUSH2 0x36 JUMPI PUSH1 0x0 DUP1 REVERT JUMPDEST POP PUSH1 0xB5 DUP1 PUSH2 0x45 PUSH1 0x0 CODECOPY PUSH1 0x0 RETURN INVALID PUSH1 0x80 PUSH1 0x40 MSTORE CALLVALUE DUP1 ISZERO PUSH1 0xF JUMPI PUSH1 0x0 DUP1 REVERT JUMPDEST POP PUSH1 0x4 CALLDATASIZE LT PUSH1 0x32 JUMPI PUSH1 0x0 CALLDATALOAD PUSH1 0xE0 SHR DUP1 PUSH4 0x767800DE EQ PUSH1 0x37 JUMPI DUP1 PUSH4 0xA588C982 EQ PUSH1 0x65 JUMPI JUMPDEST PUSH1 0x0 DUP1 REVERT JUMPDEST PUSH1 0x0 SLOAD PUSH1 0x49 SWAP1 PUSH1 0x1 PUSH1 0x1 PUSH1 0xA0 SHL SUB AND DUP2 JUMP JUMPDEST PUSH1 0x40 MLOAD PUSH1 0x1 PUSH1 0x1 PUSH1 0xA0 SHL SUB SWAP1 SWAP2 AND DUP2 MSTORE PUSH1 0x20 ADD PUSH1 0x40 MLOAD DUP1 SWAP2 SUB SWAP1 RETURN JUMPDEST PUSH1 0x49 PUSH20 0xF055775EBD516E7419AE486C1D50C682D4170645 DUP2 JUMP INVALID LOG2 PUSH5 0x6970667358 0x22 SLT KECCAK256 SWAP7 0xB2 DUP14 SWAP4 0xD5 DUP8 0x2E 0xE0 SWAP1 BLOCKHASH 0xDC CREATE COINBASE 0xDF 0xC2 BLOCKHASH 0x28 0xCD DUP2 DUP11 0x2C PUSH23 0x14B39207640B6D98D1F864736F6C634300080700330000 "
				},
				"gasEstimates": {
					"creation": {
						"codeDepositCost": "36200",
						"executionCost": "24323",
						"totalCost": "60523"
					},
					"external": {
						"addr()": "2303",
						"constantAddr()": "204"
					}
				},
				"methodIdentifiers": {
					"addr()": "767800de",
					"constantAddr()": "a588c982"
				}
			},
			"storageLayout": {
				"storage": [
					{
						"astId": 7,
						"contract": "Constants.sol:Constants",
						"label": "addr",
						"offset": 0,
						"slot": "0",
						"type": "t_address"
					}
				],
				"types": {
					"t_address": {
						"encoding": "inplace",
						"label": "address",
						"numberOfBytes": "20"
					}
				}
			},
			"userdoc": {
				"kind": "user",
				"methods": {},
				"version": 1
			}
		}
	}
}