{
	"Function.sol": {
		"FuncitonIntro": {
			"abi": [
				{
					"inputs": [
						{
							"internalType": "uint256",
							"name": "x",
							"type": "uint256"
						},
						{
							"internalType": "uint256",
							"name": "y",
							"type": "uint256"
						}
					],
					"name": "add",
					"outputs": [
						{
							"internalType": "uint256",
							"name": "",
							"type": "uint256"
						}
					],
					"stateMutability": "pure",
					"type": "function"
				},
				{
					"inputs": [
						{
							"internalType": "uint256",
							"name": "x",
							"type": "uint256"
						},
						{
							"internalType": "uint256",
							"name": "y",
							"type": "uint256"
						}
					],
					"name": "sub",
					"outputs": [
						{
							"internalType": "uint256",
							"name": "",
							"type": "uint256"
						}
					],
					"stateMutability": "pure",
					"type": "function"
				}
			],
			"devdoc": {
				"kind": "dev",
				"methods": {},
				"version": 1
			},
			"evm": {
				"assembly": "    /* \"Function.sol\":56:265  contract FuncitonIntro{... */\n  mstore(0x40, 0x80)\n  callvalue\n  dup1\n  iszero\n  tag_1\n  jumpi\n  0x00\n  dup1\n  revert\ntag_1:\n  pop\n  dataSize(sub_0)\n  dup1\n  dataOffset(sub_0)\n  0x00\n  codecopy\n  0x00\n  return\nstop\n\nsub_0: assembly {\n        /* \"Function.sol\":56:265  contract FuncitonIntro{... */\n      mstore(0x40, 0x80)\n      callvalue\n      dup1\n      iszero\n      tag_1\n      jumpi\n      0x00\n      dup1\n      revert\n    tag_1:\n      pop\n      jumpi(tag_2, lt(calldatasize, 0x04))\n      shr(0xe0, calldataload(0x00))\n      dup1\n      0x771602f7\n      eq\n      tag_3\n      jumpi\n      dup1\n      0xb67d77c5\n      eq\n      tag_4\n      jumpi\n    tag_2:\n      0x00\n      dup1\n      revert\n        /* \"Function.sol\":84:170  function add(uint x, uint y) external pure returns (uint){... */\n    tag_3:\n      tag_5\n      tag_6\n      calldatasize\n      0x04\n      tag_7\n      jump\t// in\n    tag_6:\n      tag_8\n      jump\t// in\n    tag_5:\n      mload(0x40)\n        /* \"#utility.yul\":413:438   */\n      swap1\n      dup2\n      mstore\n        /* \"#utility.yul\":401:403   */\n      0x20\n        /* \"#utility.yul\":386:404   */\n      add\n        /* \"Function.sol\":84:170  function add(uint x, uint y) external pure returns (uint){... */\n      mload(0x40)\n      dup1\n      swap2\n      sub\n      swap1\n      return\n        /* \"Function.sol\":176:262  function sub(uint x, uint y) external pure returns (uint){... */\n    tag_4:\n      tag_5\n      tag_12\n      calldatasize\n      0x04\n      tag_7\n      jump\t// in\n    tag_12:\n      tag_13\n      jump\t// in\n        /* \"Function.sol\":84:170  function add(uint x, uint y) external pure returns (uint){... */\n    tag_8:\n        /* \"Function.sol\":136:140  uint */\n      0x00\n        /* \"Function.sol\":158:163  x + y */\n      tag_16\n        /* \"Function.sol\":162:163  y */\n      dup3\n        /* \"Function.sol\":158:159  x */\n      dup5\n        /* \"Function.sol\":158:163  x + y */\n      tag_17\n      jump\t// in\n    tag_16:\n        /* \"Function.sol\":151:163  return x + y */\n      swap4\n        /* \"Function.sol\":84:170  function add(uint x, uint y) external pure returns (uint){... */\n      swap3\n      pop\n      pop\n      pop\n      jump\t// out\n        /* \"Function.sol\":176:262  function sub(uint x, uint y) external pure returns (uint){... */\n    tag_13:\n        /* \"Function.sol\":228:232  uint */\n      0x00\n        /* \"Function.sol\":250:255  x - y */\n      tag_16\n        /* \"Function.sol\":254:255  y */\n      dup3\n        /* \"Function.sol\":250:251  x */\n      dup5\n        /* \"Function.sol\":250:255  x - y */\n      tag_20\n      jump\t// in\n        /* \"#utility.yul\":14:262   */\n    tag_7:\n        /* \"#utility.yul\":82:88   */\n      0x00\n        /* \"#utility.yul\":90:96   */\n      dup1\n        /* \"#utility.yul\":143:145   */\n      0x40\n        /* \"#utility.yul\":131:140   */\n      dup4\n        /* \"#utility.yul\":122:129   */\n      dup6\n        /* \"#utility.yul\":118:141   */\n      sub\n        /* \"#utility.yul\":114:146   */\n      slt\n        /* \"#utility.yul\":111:163   */\n      iszero\n      tag_23\n      jumpi\n        /* \"#utility.yul\":159:160   */\n      0x00\n        /* \"#utility.yul\":156:157   */\n      dup1\n        /* \"#utility.yul\":149:161   */\n      revert\n        /* \"#utility.yul\":111:163   */\n    tag_23:\n      pop\n      pop\n        /* \"#utility.yul\":182:205   */\n      dup1\n      calldataload\n      swap3\n        /* \"#utility.yul\":252:254   */\n      0x20\n        /* \"#utility.yul\":237:255   */\n      swap1\n      swap2\n      add\n        /* \"#utility.yul\":224:256   */\n      calldataload\n      swap2\n      pop\n        /* \"#utility.yul\":14:262   */\n      jump\t// out\n        /* \"#utility.yul\":449:577   */\n    tag_17:\n        /* \"#utility.yul\":489:492   */\n      0x00\n        /* \"#utility.yul\":520:521   */\n      dup3\n        /* \"#utility.yul\":516:522   */\n      not\n        /* \"#utility.yul\":513:514   */\n      dup3\n        /* \"#utility.yul\":510:523   */\n      gt\n        /* \"#utility.yul\":507:546   */\n      iszero\n      tag_27\n      jumpi\n        /* \"#utility.yul\":526:544   */\n      tag_27\n      tag_28\n      jump\t// in\n    tag_27:\n      pop\n        /* \"#utility.yul\":562:571   */\n      add\n      swap1\n        /* \"#utility.yul\":449:577   */\n      jump\t// out\n        /* \"#utility.yul\":582:707   */\n    tag_20:\n        /* \"#utility.yul\":622:626   */\n      0x00\n        /* \"#utility.yul\":650:651   */\n      dup3\n        /* \"#utility.yul\":647:648   */\n      dup3\n        /* \"#utility.yul\":644:652   */\n      lt\n        /* \"#utility.yul\":641:675   */\n      iszero\n      tag_31\n      jumpi\n        /* \"#utility.yul\":655:673   */\n      tag_31\n      tag_28\n      jump\t// in\n    tag_31:\n      pop\n        /* \"#utility.yul\":692:701   */\n      sub\n      swap1\n        /* \"#utility.yul\":582:707   */\n      jump\t// out\n        /* \"#utility.yul\":712:839   */\n    tag_28:\n        /* \"#utility.yul\":773:783   */\n      0x4e487b71\n        /* \"#utility.yul\":768:771   */\n      0xe0\n        /* \"#utility.yul\":764:784   */\n      shl\n        /* \"#utility.yul\":761:762   */\n      0x00\n        /* \"#utility.yul\":754:785   */\n      mstore\n        /* \"#utility.yul\":804:808   */\n      0x11\n        /* \"#utility.yul\":801:802   */\n      0x04\n        /* \"#utility.yul\":794:809   */\n      mstore\n        /* \"#utility.yul\":828:832   */\n      0x24\n        /* \"#utility.yul\":825:826   */\n      0x00\n        /* \"#utility.yul\":818:833   */\n      revert\n\n    auxdata: 0xa2646970667358221220bd0563183152a4e4c15231500ac39c9f12b00fa13897e69c87a1527a55f4051b64736f6c63430008070033\n}\n",
				"bytecode": {
					"linkReferences": {},
					"object": "608060405234801561001057600080fd5b50610118806100206000396000f3fe6080604052348015600f57600080fd5b506004361060325760003560e01c8063771602f7146037578063b67d77c5146058575b600080fd5b604660423660046082565b6067565b60405190815260200160405180910390f35b604660633660046082565b6078565b60006071828460a3565b9392505050565b60006071828460b8565b60008060408385031215609457600080fd5b50508035926020909101359150565b6000821982111560b35760b360cc565b500190565b60008282101560c75760c760cc565b500390565b634e487b7160e01b600052601160045260246000fdfea2646970667358221220bd0563183152a4e4c15231500ac39c9f12b00fa13897e69c87a1527a55f4051b64736f6c63430008070033",
					"opcodes": "PUSH1 0x80 PUSH1 0x40 MSTORE CALLVALUE DUP1 ISZERO PUSH2 0x10 JUMPI PUSH1 0x0 DUP1 REVERT JUMPDEST POP PUSH2 0x118 DUP1 PUSH2 0x20 PUSH1 0x0 CODECOPY PUSH1 0x0 RETURN INVALID PUSH1 0x80 PUSH1 0x40 MSTORE CALLVALUE DUP1 ISZERO PUSH1 0xF JUMPI PUSH1 0x0 DUP1 REVERT JUMPDEST POP PUSH1 0x4 CALLDATASIZE LT PUSH1 0x32 JUMPI PUSH1 0x0 CALLDATALOAD PUSH1 0xE0 SHR DUP1 PUSH4 0x771602F7 EQ PUSH1 0x37 JUMPI DUP1 PUSH4 0xB67D77C5 EQ PUSH1 0x58 JUMPI JUMPDEST PUSH1 0x0 DUP1 REVERT JUMPDEST PUSH1 0x46 PUSH1 0x42 CALLDATASIZE PUSH1 0x4 PUSH1 0x82 JUMP JUMPDEST PUSH1 0x67 JUMP JUMPDEST PUSH1 0x40 MLOAD SWAP1 DUP2 MSTORE PUSH1 0x20 ADD PUSH1 0x40 MLOAD DUP1 SWAP2 SUB SWAP1 RETURN JUMPDEST PUSH1 0x46 PUSH1 0x63 CALLDATASIZE PUSH1 0x4 PUSH1 0x82 JUMP JUMPDEST PUSH1 0x78 JUMP JUMPDEST PUSH1 0x0 PUSH1 0x71 DUP3 DUP5 PUSH1 0xA3 JUMP JUMPDEST SWAP4 SWAP3 POP POP POP JUMP JUMPDEST PUSH1 0x0 PUSH1 0x71 DUP3 DUP5 PUSH1 0xB8 JUMP JUMPDEST PUSH1 0x0 DUP1 PUSH1 0x40 DUP4 DUP6 SUB SLT ISZERO PUSH1 0x94 JUMPI PUSH1 0x0 DUP1 REVERT JUMPDEST POP POP DUP1 CALLDATALOAD SWAP3 PUSH1 0x20 SWAP1 SWAP2 ADD CALLDATALOAD SWAP2 POP JUMP JUMPDEST PUSH1 0x0 DUP3 NOT DUP3 GT ISZERO PUSH1 0xB3 JUMPI PUSH1 0xB3 PUSH1 0xCC JUMP JUMPDEST POP ADD SWAP1 JUMP JUMPDEST PUSH1 0x0 DUP3 DUP3 LT ISZERO PUSH1 0xC7 JUMPI PUSH1 0xC7 PUSH1 0xCC JUMP JUMPDEST POP SUB SWAP1 JUMP JUMPDEST PUSH4 0x4E487B71 PUSH1 0xE0 SHL PUSH1 0x0 MSTORE PUSH1 0x11 PUSH1 0x4 MSTORE PUSH1 0x24 PUSH1 0x0 REVERT INVALID LOG2 PUSH5 0x6970667358 0x22 SLT KECCAK256 0xBD SDIV PUSH4 0x183152A4 0xE4 0xC1 MSTORE BALANCE POP EXP 0xC3 SWAP13 SWAP16 SLT 0xB0 0xF LOG1 CODESIZE SWAP8 0xE6 SWAP13 DUP8 LOG1 MSTORE PUSH27 0x55F4051B64736F6C63430008070033000000000000000000000000 "
				},
				"gasEstimates": {
					"creation": {
						"codeDepositCost": "56000",
						"executionCost": "105",
						"totalCost": "56105"
					},
					"external": {
						"add(uint256,uint256)": "352",
						"sub(uint256,uint256)": "371"
					}
				},
				"methodIdentifiers": {
					"add(uint256,uint256)": "771602f7",
					"sub(uint256,uint256)": "b67d77c5"
				}
			},
			"storageLayout": {
				"storage": [],
				"types": null
			},
			"userdoc": {
				"kind": "user",
				"methods": {},
				"version": 1
			}
		}
	}
}