{
	"ValueTypes.sol": {
		"ValueTypes": {
			"abi": [
				{
					"inputs": [],
					"name": "b",
					"outputs": [
						{
							"internalType": "bool",
							"name": "",
							"type": "bool"
						}
					],
					"stateMutability": "view",
					"type": "function"
				},
				{
					"inputs": [],
					"name": "i",
					"outputs": [
						{
							"internalType": "int256",
							"name": "",
							"type": "int256"
						}
					],
					"stateMutability": "view",
					"type": "function"
				},
				{
					"inputs": [],
					"name": "maxInt",
					"outputs": [
						{
							"internalType": "int256",
							"name": "",
							"type": "int256"
						}
					],
					"stateMutability": "view",
					"type": "function"
				},
				{
					"inputs": [],
					"name": "minInt",
					"outputs": [
						{
							"internalType": "int256",
							"name": "",
							"type": "int256"
						}
					],
					"stateMutability": "view",
					"type": "function"
				},
				{
					"inputs": [],
					"name": "u",
					"outputs": [
						{
							"internalType": "uint256",
							"name": "",
							"type": "uint256"
						}
					],
					"stateMutability": "view",
					"type": "function"
				}
			],
			"devdoc": {
				"kind": "dev",
				"methods": {},
				"version": 1
			},
			"evm": {
				"assembly": "    /* \"ValueTypes.sol\":95:421  contract ValueTypes {... */\n  mstore(0x40, 0x80)\n    /* \"ValueTypes.sol\":142:145  256 */\n  0x0100\n    /* \"ValueTypes.sol\":123:145  uint256 public u = 256 */\n  0x00\n  sstore\n  not(0x7f)\n    /* \"ValueTypes.sol\":151:170  int public i = -128 */\n  0x01\n  swap1\n  dup2\n  sstore\n    /* \"ValueTypes.sol\":176:196  bool public b = true */\n  0x02\n  dup1\n  sload\n  not(0xff)\n  and\n  swap1\n  swap2\n  or\n  swap1\n  sstore\n  shl(0xff, 0x01)\n    /* \"ValueTypes.sol\":203:236  int public minInt = type(int).min */\n  0x03\n  sstore\n  sub(shl(0xff, 0x01), 0x01)\n    /* \"ValueTypes.sol\":242:275  int public maxInt = type(int).max */\n  0x04\n  sstore\n    /* \"ValueTypes.sol\":95:421  contract ValueTypes {... */\n  callvalue\n  dup1\n  iszero\n  tag_1\n  jumpi\n  0x00\n  dup1\n  revert\ntag_1:\n  pop\n  dataSize(sub_0)\n  dup1\n  dataOffset(sub_0)\n  0x00\n  codecopy\n  0x00\n  return\nstop\n\nsub_0: assembly {\n        /* \"ValueTypes.sol\":95:421  contract ValueTypes {... */\n      mstore(0x40, 0x80)\n      callvalue\n      dup1\n      iszero\n      tag_1\n      jumpi\n      0x00\n      dup1\n      revert\n    tag_1:\n      pop\n      jumpi(tag_2, lt(calldatasize, 0x04))\n      shr(0xe0, calldataload(0x00))\n      dup1\n      0x4df7e3d0\n      eq\n      tag_3\n      jumpi\n      dup1\n      0x7a4c2571\n      eq\n      tag_4\n      jumpi\n      dup1\n      0x7e4e14cc\n      eq\n      tag_5\n      jumpi\n      dup1\n      0xc6a898c5\n      eq\n      tag_6\n      jumpi\n      dup1\n      0xe5aa3d58\n      eq\n      tag_7\n      jumpi\n    tag_2:\n      0x00\n      dup1\n      revert\n        /* \"ValueTypes.sol\":176:196  bool public b = true */\n    tag_3:\n      sload(0x02)\n      tag_8\n      swap1\n      0xff\n      and\n      dup2\n      jump\n    tag_8:\n      mload(0x40)\n        /* \"#utility.yul\":179:193   */\n      swap1\n      iszero\n        /* \"#utility.yul\":172:194   */\n      iszero\n        /* \"#utility.yul\":154:195   */\n      dup2\n      mstore\n        /* \"#utility.yul\":142:144   */\n      0x20\n        /* \"#utility.yul\":127:145   */\n      add\n        /* \"ValueTypes.sol\":176:196  bool public b = true */\n    tag_10:\n      mload(0x40)\n      dup1\n      swap2\n      sub\n      swap1\n      return\n        /* \"ValueTypes.sol\":242:275  int public maxInt = type(int).max */\n    tag_4:\n      tag_12\n      sload(0x04)\n      dup2\n      jump\n    tag_12:\n      mload(0x40)\n        /* \"#utility.yul\":350:375   */\n      swap1\n      dup2\n      mstore\n        /* \"#utility.yul\":338:340   */\n      0x20\n        /* \"#utility.yul\":323:341   */\n      add\n        /* \"ValueTypes.sol\":242:275  int public maxInt = type(int).max */\n      tag_10\n        /* \"#utility.yul\":206:381   */\n      jump\n        /* \"ValueTypes.sol\":203:236  int public minInt = type(int).min */\n    tag_5:\n      tag_12\n      sload(0x03)\n      dup2\n      jump\n        /* \"ValueTypes.sol\":123:145  uint256 public u = 256 */\n    tag_6:\n      tag_12\n      sload(0x00)\n      dup2\n      jump\n        /* \"ValueTypes.sol\":151:170  int public i = -128 */\n    tag_7:\n      tag_12\n      sload(0x01)\n      dup2\n      jump\n\n    auxdata: 0xa264697066735822122074b7d034e9afc79a4f0516e1c79c33940f025d8ce89db939f781897c158f949d64736f6c63430008070033\n}\n",
				"bytecode": {
					"linkReferences": {},
					"object": "6080604052610100600055607f1960019081556002805460ff19169091179055600160ff1b6003556001600160ff1b0360045534801561003e57600080fd5b5060d98061004d6000396000f3fe6080604052348015600f57600080fd5b506004361060505760003560e01c80634df7e3d01460555780637a4c25711460765780637e4e14cc14608b578063c6a898c5146093578063e5aa3d5814609b575b600080fd5b60025460619060ff1681565b60405190151581526020015b60405180910390f35b607e60045481565b604051908152602001606d565b607e60035481565b607e60005481565b607e6001548156fea264697066735822122074b7d034e9afc79a4f0516e1c79c33940f025d8ce89db939f781897c158f949d64736f6c63430008070033",
					"opcodes": "PUSH1 0x80 PUSH1 0x40 MSTORE PUSH2 0x100 PUSH1 0x0 SSTORE PUSH1 0x7F NOT PUSH1 0x1 SWAP1 DUP2 SSTORE PUSH1 0x2 DUP1 SLOAD PUSH1 0xFF NOT AND SWAP1 SWAP2 OR SWAP1 SSTORE PUSH1 0x1 PUSH1 0xFF SHL PUSH1 0x3 SSTORE PUSH1 0x1 PUSH1 0x1 PUSH1 0xFF SHL SUB PUSH1 0x4 SSTORE CALLVALUE DUP1 ISZERO PUSH2 0x3E JUMPI PUSH1 0x0 DUP1 REVERT JUMPDEST POP PUSH1 0xD9 DUP1 PUSH2 0x4D PUSH1 0x0 CODECOPY PUSH1 0x0 RETURN INVALID PUSH1 0x80 PUSH1 0x40 MSTORE CALLVALUE DUP1 ISZERO PUSH1 0xF JUMPI PUSH1 0x0 DUP1 REVERT JUMPDEST POP PUSH1 0x4 CALLDATASIZE LT PUSH1 0x50 JUMPI PUSH1 0x0 CALLDATALOAD PUSH1 0xE0 SHR DUP1 PUSH4 0x4DF7E3D0 EQ PUSH1 0x55 JUMPI DUP1 PUSH4 0x7A4C2571 EQ PUSH1 0x76 JUMPI DUP1 PUSH4 0x7E4E14CC EQ PUSH1 0x8B JUMPI DUP1 PUSH4 0xC6A898C5 EQ PUSH1 0x93 JUMPI DUP1 PUSH4 0xE5AA3D58 EQ PUSH1 0x9B JUMPI JUMPDEST PUSH1 0x0 DUP1 REVERT JUMPDEST PUSH1 0x2 SLOAD PUSH1 0x61 SWAP1 PUSH1 0xFF AND DUP2 JUMP JUMPDEST PUSH1 0x40 MLOAD SWAP1 ISZERO ISZERO DUP2 MSTORE PUSH1 0x20 ADD JUMPDEST PUSH1 0x40 MLOAD DUP1 SWAP2 SUB SWAP1 RETURN JUMPDEST PUSH1 0x7E PUSH1 0x4 SLOAD DUP2 JUMP JUMPDEST PUSH1 0x40 MLOAD SWAP1 DUP2 MSTORE PUSH1 0x20 ADD PUSH1 0x6D JUMP JUMPDEST PUSH1 0x7E PUSH1 0x3 SLOAD DUP2 JUMP JUMPDEST PUSH1 0x7E PUSH1 0x0 SLOAD DUP2 JUMP JUMPDEST PUSH1 0x7E PUSH1 0x1 SLOAD DUP2 JUMP INVALID LOG2 PUSH5 0x6970667358 0x22 SLT KECCAK256 PUSH21 0xB7D034E9AFC79A4F0516E1C79C33940F025D8CE89D 0xB9 CODECOPY 0xF7 DUP2 DUP10 PUSH29 0x158F949D64736F6C634300080700330000000000000000000000000000 "
				},
				"gasEstimates": {
					"creation": {
						"codeDepositCost": "43400",
						"executionCost": "112771",
						"totalCost": "156171"
					},
					"external": {
						"b()": "2277",
						"i()": "2361",
						"maxInt()": "2295",
						"minInt()": "2317",
						"u()": "2339"
					}
				},
				"methodIdentifiers": {
					"b()": "4df7e3d0",
					"i()": "e5aa3d58",
					"maxInt()": "7a4c2571",
					"minInt()": "7e4e14cc",
					"u()": "c6a898c5"
				}
			},
			"storageLayout": {
				"storage": [
					{
						"astId": 4,
						"contract": "ValueTypes.sol:ValueTypes",
						"label": "u",
						"offset": 0,
						"slot": "0",
						"type": "t_uint256"
					},
					{
						"astId": 8,
						"contract": "ValueTypes.sol:ValueTypes",
						"label": "i",
						"offset": 0,
						"slot": "1",
						"type": "t_int256"
					},
					{
						"astId": 11,
						"contract": "ValueTypes.sol:ValueTypes",
						"label": "b",
						"offset": 0,
						"slot": "2",
						"type": "t_bool"
					},
					{
						"astId": 18,
						"contract": "ValueTypes.sol:ValueTypes",
						"label": "minInt",
						"offset": 0,
						"slot": "3",
						"type": "t_int256"
					},
					{
						"astId": 25,
						"contract": "ValueTypes.sol:ValueTypes",
						"label": "maxInt",
						"offset": 0,
						"slot": "4",
						"type": "t_int256"
					}
				],
				"types": {
					"t_bool": {
						"encoding": "inplace",
						"label": "bool",
						"numberOfBytes": "1"
					},
					"t_int256": {
						"encoding": "inplace",
						"label": "int256",
						"numberOfBytes": "32"
					},
					"t_uint256": {
						"encoding": "inplace",
						"label": "uint256",
						"numberOfBytes": "32"
					}
				}
			},
			"userdoc": {
				"kind": "user",
				"methods": {},
				"version": 1
			}
		}
	}
}