{
	"ProcessNumber.sol": {
		"ProcessNumber": {
			"abi": [
				{
					"inputs": [
						{
							"internalType": "uint256",
							"name": "x",
							"type": "uint256"
						}
					],
					"name": "processNumber",
					"outputs": [
						{
							"internalType": "string",
							"name": "",
							"type": "string"
						}
					],
					"stateMutability": "pure",
					"type": "function"
				}
			],
			"devdoc": {
				"kind": "dev",
				"methods": {},
				"version": 1
			},
			"evm": {
				"assembly": "    /* \"ProcessNumber.sol\":55:581  contract ProcessNumber {... */\n  mstore(0x40, 0x80)\n  callvalue\n  dup1\n  iszero\n  tag_1\n  jumpi\n  0x00\n  dup1\n  revert\ntag_1:\n  pop\n  dataSize(sub_0)\n  dup1\n  dataOffset(sub_0)\n  0x00\n  codecopy\n  0x00\n  return\nstop\n\nsub_0: assembly {\n        /* \"ProcessNumber.sol\":55:581  contract ProcessNumber {... */\n      mstore(0x40, 0x80)\n      callvalue\n      dup1\n      iszero\n      tag_1\n      jumpi\n      0x00\n      dup1\n      revert\n    tag_1:\n      pop\n      jumpi(tag_2, lt(calldatasize, 0x04))\n      shr(0xe0, calldataload(0x00))\n      dup1\n      0x8bf709cf\n      eq\n      tag_3\n      jumpi\n    tag_2:\n      0x00\n      dup1\n      revert\n        /* \"ProcessNumber.sol\":85:578  function processNumber(uint x) external pure returns (string memory){... */\n    tag_3:\n      tag_4\n      tag_5\n      calldatasize\n      0x04\n      tag_6\n      jump\t// in\n    tag_5:\n      tag_7\n      jump\t// in\n    tag_4:\n      mload(0x40)\n      tag_8\n      swap2\n      swap1\n      tag_9\n      jump\t// in\n    tag_8:\n      mload(0x40)\n      dup1\n      swap2\n      sub\n      swap1\n      return\n    tag_7:\n        /* \"ProcessNumber.sol\":139:152  string memory */\n      0x60\n        /* \"ProcessNumber.sol\":423:425  10 */\n      0x0a\n        /* \"ProcessNumber.sol\":419:420  x */\n      dup3\n        /* \"ProcessNumber.sol\":419:425  x < 10 */\n      lt\n        /* \"ProcessNumber.sol\":419:550  x < 10? \"\\u5c0f\\u4e8e\\u0031\\u0030\" : ((x >= 10 && x <=20)? \"\\u4ecb\\u4e8e\\u0031\\u0030\\u5230\\u0032\\u0030\":\"\\u5927\\u4e8e\\u0032\\u0030\") */\n      tag_11\n      jumpi\n        /* \"ProcessNumber.sol\":463:465  10 */\n      0x0a\n        /* \"ProcessNumber.sol\":458:459  x */\n      dup3\n        /* \"ProcessNumber.sol\":458:465  x >= 10 */\n      lt\n      iszero\n        /* \"ProcessNumber.sol\":458:475  x >= 10 && x <=20 */\n      dup1\n      iszero\n      tag_12\n      jumpi\n      pop\n        /* \"ProcessNumber.sol\":473:475  20 */\n      0x14\n        /* \"ProcessNumber.sol\":469:470  x */\n      dup3\n        /* \"ProcessNumber.sol\":469:475  x <=20 */\n      gt\n      iszero\n        /* \"ProcessNumber.sol\":458:475  x >= 10 && x <=20 */\n    tag_12:\n        /* \"ProcessNumber.sol\":457:549  (x >= 10 && x <=20)? \"\\u4ecb\\u4e8e\\u0031\\u0030\\u5230\\u0032\\u0030\":\"\\u5927\\u4e8e\\u0032\\u0030\" */\n      tag_13\n      jumpi\n      mload(0x40)\n      dup1\n      0x40\n      add\n      0x40\n      mstore\n      dup1\n      0x08\n      dup2\n      mstore\n      0x20\n      add\n      shl(0xc4, 0x0e5a4a7e4ba8e323)\n      dup2\n      mstore\n      pop\n        /* \"ProcessNumber.sol\":419:550  x < 10? \"\\u5c0f\\u4e8e\\u0031\\u0030\" : ((x >= 10 && x <=20)? \"\\u4ecb\\u4e8e\\u0031\\u0030\\u5230\\u0032\\u0030\":\"\\u5927\\u4e8e\\u0032\\u0030\") */\n      jump(tag_15)\n        /* \"ProcessNumber.sol\":457:549  (x >= 10 && x <=20)? \"\\u4ecb\\u4e8e\\u0031\\u0030\\u5230\\u0032\\u0030\":\"\\u5927\\u4e8e\\u0032\\u0030\" */\n    tag_13:\n      mload(0x40)\n      dup1\n      0x40\n      add\n      0x40\n      mstore\n      dup1\n      0x0d\n      dup2\n      mstore\n      0x20\n      add\n      shl(0x9c, 0x0e4bb8be4ba8e3130e588b0323)\n      dup2\n      mstore\n      pop\n        /* \"ProcessNumber.sol\":419:550  x < 10? \"\\u5c0f\\u4e8e\\u0031\\u0030\" : ((x >= 10 && x <=20)? \"\\u4ecb\\u4e8e\\u0031\\u0030\\u5230\\u0032\\u0030\":\"\\u5927\\u4e8e\\u0032\\u0030\") */\n      jump(tag_15)\n    tag_11:\n      mload(0x40)\n      dup1\n      0x40\n      add\n      0x40\n      mstore\n      dup1\n      0x08\n      dup2\n      mstore\n      0x20\n      add\n      shl(0xc4, 0x0e5b08fe4ba8e313)\n      dup2\n      mstore\n      pop\n    tag_15:\n        /* \"ProcessNumber.sol\":412:550  return x < 10? \"\\u5c0f\\u4e8e\\u0031\\u0030\" : ((x >= 10 && x <=20)? \"\\u4ecb\\u4e8e\\u0031\\u0030\\u5230\\u0032\\u0030\":\"\\u5927\\u4e8e\\u0032\\u0030\") */\n      swap3\n        /* \"ProcessNumber.sol\":85:578  function processNumber(uint x) external pure returns (string memory){... */\n      swap2\n      pop\n      pop\n      jump\t// out\n        /* \"#utility.yul\":14:194   */\n    tag_6:\n        /* \"#utility.yul\":73:79   */\n      0x00\n        /* \"#utility.yul\":126:128   */\n      0x20\n        /* \"#utility.yul\":114:123   */\n      dup3\n        /* \"#utility.yul\":105:112   */\n      dup5\n        /* \"#utility.yul\":101:124   */\n      sub\n        /* \"#utility.yul\":97:129   */\n      slt\n        /* \"#utility.yul\":94:146   */\n      iszero\n      tag_18\n      jumpi\n        /* \"#utility.yul\":142:143   */\n      0x00\n        /* \"#utility.yul\":139:140   */\n      dup1\n        /* \"#utility.yul\":132:144   */\n      revert\n        /* \"#utility.yul\":94:146   */\n    tag_18:\n      pop\n        /* \"#utility.yul\":165:188   */\n      calldataload\n      swap2\n        /* \"#utility.yul\":14:194   */\n      swap1\n      pop\n      jump\t// out\n        /* \"#utility.yul\":199:796   */\n    tag_9:\n        /* \"#utility.yul\":311:315   */\n      0x00\n        /* \"#utility.yul\":340:342   */\n      0x20\n        /* \"#utility.yul\":369:371   */\n      dup1\n        /* \"#utility.yul\":358:367   */\n      dup4\n        /* \"#utility.yul\":351:372   */\n      mstore\n        /* \"#utility.yul\":401:407   */\n      dup4\n        /* \"#utility.yul\":395:408   */\n      mload\n        /* \"#utility.yul\":444:450   */\n      dup1\n        /* \"#utility.yul\":439:441   */\n      dup3\n        /* \"#utility.yul\":428:437   */\n      dup6\n        /* \"#utility.yul\":424:442   */\n      add\n        /* \"#utility.yul\":417:451   */\n      mstore\n        /* \"#utility.yul\":469:470   */\n      0x00\n        /* \"#utility.yul\":479:619   */\n    tag_20:\n        /* \"#utility.yul\":493:499   */\n      dup2\n        /* \"#utility.yul\":490:491   */\n      dup2\n        /* \"#utility.yul\":487:500   */\n      lt\n        /* \"#utility.yul\":479:619   */\n      iszero\n      tag_22\n      jumpi\n        /* \"#utility.yul\":588:602   */\n      dup6\n      dup2\n      add\n        /* \"#utility.yul\":584:607   */\n      dup4\n      add\n        /* \"#utility.yul\":578:608   */\n      mload\n        /* \"#utility.yul\":554:571   */\n      dup6\n      dup3\n      add\n        /* \"#utility.yul\":573:575   */\n      0x40\n        /* \"#utility.yul\":550:576   */\n      add\n        /* \"#utility.yul\":543:609   */\n      mstore\n        /* \"#utility.yul\":508:518   */\n      dup3\n      add\n        /* \"#utility.yul\":479:619   */\n      jump(tag_20)\n    tag_22:\n        /* \"#utility.yul\":637:643   */\n      dup2\n        /* \"#utility.yul\":634:635   */\n      dup2\n        /* \"#utility.yul\":631:644   */\n      gt\n        /* \"#utility.yul\":628:719   */\n      iszero\n      tag_23\n      jumpi\n        /* \"#utility.yul\":707:708   */\n      0x00\n        /* \"#utility.yul\":702:704   */\n      0x40\n        /* \"#utility.yul\":693:699   */\n      dup4\n        /* \"#utility.yul\":682:691   */\n      dup8\n        /* \"#utility.yul\":678:700   */\n      add\n        /* \"#utility.yul\":674:705   */\n      add\n        /* \"#utility.yul\":667:709   */\n      mstore\n        /* \"#utility.yul\":628:719   */\n    tag_23:\n      pop\n        /* \"#utility.yul\":780:782   */\n      0x1f\n        /* \"#utility.yul\":759:774   */\n      add\n      not(0x1f)\n        /* \"#utility.yul\":755:784   */\n      and\n        /* \"#utility.yul\":740:785   */\n      swap3\n      swap1\n      swap3\n      add\n        /* \"#utility.yul\":787:789   */\n      0x40\n        /* \"#utility.yul\":736:790   */\n      add\n      swap4\n        /* \"#utility.yul\":199:796   */\n      swap3\n      pop\n      pop\n      pop\n      jump\t// out\n\n    auxdata: 0xa26469706673582212208e34110e5e78a84a79aa4dd28a51e628433cc6a6212f05d222744d07595c1a1564736f6c63430008070033\n}\n",
				"bytecode": {
					"linkReferences": {},
					"object": "608060405234801561001057600080fd5b50610196806100206000396000f3fe608060405234801561001057600080fd5b506004361061002b5760003560e01c80638bf709cf14610030575b600080fd5b61004361003e3660046100f2565b610059565b604051610050919061010b565b60405180910390f35b6060600a82106100ca57600a8210158015610075575060148211155b61009f57604051806040016040528060088152602001670e5a4a7e4ba8e32360c41b8152506100ec565b6040518060400160405280600d81526020016c0e4bb8be4ba8e3130e588b0323609c1b8152506100ec565b604051806040016040528060088152602001670e5b08fe4ba8e31360c41b8152505b92915050565b60006020828403121561010457600080fd5b5035919050565b600060208083528351808285015260005b818110156101385785810183015185820160400152820161011c565b8181111561014a576000604083870101525b50601f01601f191692909201604001939250505056fea26469706673582212208e34110e5e78a84a79aa4dd28a51e628433cc6a6212f05d222744d07595c1a1564736f6c63430008070033",
					"opcodes": "PUSH1 0x80 PUSH1 0x40 MSTORE CALLVALUE DUP1 ISZERO PUSH2 0x10 JUMPI PUSH1 0x0 DUP1 REVERT JUMPDEST POP PUSH2 0x196 DUP1 PUSH2 0x20 PUSH1 0x0 CODECOPY PUSH1 0x0 RETURN INVALID PUSH1 0x80 PUSH1 0x40 MSTORE CALLVALUE DUP1 ISZERO PUSH2 0x10 JUMPI PUSH1 0x0 DUP1 REVERT JUMPDEST POP PUSH1 0x4 CALLDATASIZE LT PUSH2 0x2B JUMPI PUSH1 0x0 CALLDATALOAD PUSH1 0xE0 SHR DUP1 PUSH4 0x8BF709CF EQ PUSH2 0x30 JUMPI JUMPDEST PUSH1 0x0 DUP1 REVERT JUMPDEST PUSH2 0x43 PUSH2 0x3E CALLDATASIZE PUSH1 0x4 PUSH2 0xF2 JUMP JUMPDEST PUSH2 0x59 JUMP JUMPDEST PUSH1 0x40 MLOAD PUSH2 0x50 SWAP2 SWAP1 PUSH2 0x10B JUMP JUMPDEST PUSH1 0x40 MLOAD DUP1 SWAP2 SUB SWAP1 RETURN JUMPDEST PUSH1 0x60 PUSH1 0xA DUP3 LT PUSH2 0xCA JUMPI PUSH1 0xA DUP3 LT ISZERO DUP1 ISZERO PUSH2 0x75 JUMPI POP PUSH1 0x14 DUP3 GT ISZERO JUMPDEST PUSH2 0x9F JUMPI PUSH1 0x40 MLOAD DUP1 PUSH1 0x40 ADD PUSH1 0x40 MSTORE DUP1 PUSH1 0x8 DUP2 MSTORE PUSH1 0x20 ADD PUSH8 0xE5A4A7E4BA8E323 PUSH1 0xC4 SHL DUP2 MSTORE POP PUSH2 0xEC JUMP JUMPDEST PUSH1 0x40 MLOAD DUP1 PUSH1 0x40 ADD PUSH1 0x40 MSTORE DUP1 PUSH1 0xD DUP2 MSTORE PUSH1 0x20 ADD PUSH13 0xE4BB8BE4BA8E3130E588B0323 PUSH1 0x9C SHL DUP2 MSTORE POP PUSH2 0xEC JUMP JUMPDEST PUSH1 0x40 MLOAD DUP1 PUSH1 0x40 ADD PUSH1 0x40 MSTORE DUP1 PUSH1 0x8 DUP2 MSTORE PUSH1 0x20 ADD PUSH8 0xE5B08FE4BA8E313 PUSH1 0xC4 SHL DUP2 MSTORE POP JUMPDEST SWAP3 SWAP2 POP POP JUMP JUMPDEST PUSH1 0x0 PUSH1 0x20 DUP3 DUP5 SUB SLT ISZERO PUSH2 0x104 JUMPI PUSH1 0x0 DUP1 REVERT JUMPDEST POP CALLDATALOAD SWAP2 SWAP1 POP JUMP JUMPDEST PUSH1 0x0 PUSH1 0x20 DUP1 DUP4 MSTORE DUP4 MLOAD DUP1 DUP3 DUP6 ADD MSTORE PUSH1 0x0 JUMPDEST DUP2 DUP2 LT ISZERO PUSH2 0x138 JUMPI DUP6 DUP2 ADD DUP4 ADD MLOAD DUP6 DUP3 ADD PUSH1 0x40 ADD MSTORE DUP3 ADD PUSH2 0x11C JUMP JUMPDEST DUP2 DUP2 GT ISZERO PUSH2 0x14A JUMPI PUSH1 0x0 PUSH1 0x40 DUP4 DUP8 ADD ADD MSTORE JUMPDEST POP PUSH1 0x1F ADD PUSH1 0x1F NOT AND SWAP3 SWAP1 SWAP3 ADD PUSH1 0x40 ADD SWAP4 SWAP3 POP POP POP JUMP INVALID LOG2 PUSH5 0x6970667358 0x22 SLT KECCAK256 DUP15 CALLVALUE GT 0xE 0x5E PUSH25 0xA84A79AA4DD28A51E628433CC6A6212F05D222744D07595C1A ISZERO PUSH5 0x736F6C6343 STOP ADDMOD SMOD STOP CALLER "
				},
				"gasEstimates": {
					"creation": {
						"codeDepositCost": "81200",
						"executionCost": "129",
						"totalCost": "81329"
					},
					"external": {
						"processNumber(uint256)": "infinite"
					}
				},
				"methodIdentifiers": {
					"processNumber(uint256)": "8bf709cf"
				}
			},
			"storageLayout": {
				"storage": [],
				"types": null
			},
			"userdoc": {
				"kind": "user",
				"methods": {},
				"version": 1
			}
		}
	}
}