{
	"data": {
		"bytecode": {
			"linkReferences": {},
			"object": "6080604052348015600e575f80fd5b506101058061001c5f395ff3fe6080604052348015600e575f80fd5b5060043610604e575f3560e01c806342b148aa1460525780634b73383f14606757806354353f2f14606d578063a54998a7146073578063c5d7802e146079575b5f80fd5b60645b60405190815260200160405180910390f35b600a6055565b60556081565b6055609f565b605560025481565b5f6002546001545f546092919060ab565b609a919060ab565b905090565b5f600254600154609a91905b8082018082111560c957634e487b7160e01b5f52601160045260245ffd5b9291505056fea2646970667358221220671209cbb49bf632c42db19ecb2edc5864eb76345f2d411c79c41a7a73474d8164736f6c634300081a0033",
			"opcodes": "PUSH1 0x80 PUSH1 0x40 MSTORE CALLVALUE DUP1 ISZERO PUSH1 0xE JUMPI PUSH0 DUP1 REVERT JUMPDEST POP PUSH2 0x105 DUP1 PUSH2 0x1C PUSH0 CODECOPY PUSH0 RETURN INVALID PUSH1 0x80 PUSH1 0x40 MSTORE CALLVALUE DUP1 ISZERO PUSH1 0xE JUMPI PUSH0 DUP1 REVERT JUMPDEST POP PUSH1 0x4 CALLDATASIZE LT PUSH1 0x4E JUMPI PUSH0 CALLDATALOAD PUSH1 0xE0 SHR DUP1 PUSH4 0x42B148AA EQ PUSH1 0x52 JUMPI DUP1 PUSH4 0x4B73383F EQ PUSH1 0x67 JUMPI DUP1 PUSH4 0x54353F2F EQ PUSH1 0x6D JUMPI DUP1 PUSH4 0xA54998A7 EQ PUSH1 0x73 JUMPI DUP1 PUSH4 0xC5D7802E EQ PUSH1 0x79 JUMPI JUMPDEST PUSH0 DUP1 REVERT JUMPDEST PUSH1 0x64 JUMPDEST PUSH1 0x40 MLOAD SWAP1 DUP2 MSTORE PUSH1 0x20 ADD PUSH1 0x40 MLOAD DUP1 SWAP2 SUB SWAP1 RETURN JUMPDEST PUSH1 0xA PUSH1 0x55 JUMP JUMPDEST PUSH1 0x55 PUSH1 0x81 JUMP JUMPDEST PUSH1 0x55 PUSH1 0x9F JUMP JUMPDEST PUSH1 0x55 PUSH1 0x2 SLOAD DUP2 JUMP JUMPDEST PUSH0 PUSH1 0x2 SLOAD PUSH1 0x1 SLOAD PUSH0 SLOAD PUSH1 0x92 SWAP2 SWAP1 PUSH1 0xAB JUMP JUMPDEST PUSH1 0x9A SWAP2 SWAP1 PUSH1 0xAB JUMP JUMPDEST SWAP1 POP SWAP1 JUMP JUMPDEST PUSH0 PUSH1 0x2 SLOAD PUSH1 0x1 SLOAD PUSH1 0x9A SWAP2 SWAP1 JUMPDEST DUP1 DUP3 ADD DUP1 DUP3 GT ISZERO PUSH1 0xC9 JUMPI PUSH4 0x4E487B71 PUSH1 0xE0 SHL PUSH0 MSTORE PUSH1 0x11 PUSH1 0x4 MSTORE PUSH1 0x24 PUSH0 REVERT JUMPDEST SWAP3 SWAP2 POP POP JUMP INVALID LOG2 PUSH5 0x6970667358 0x22 SLT KECCAK256 PUSH8 0x1209CBB49BF632C4 0x2D 0xB1 SWAP15 0xCB 0x2E 0xDC PC PUSH5 0xEB76345F2D COINBASE SHR PUSH26 0xC41A7A73474D8164736F6C634300081A00330000000000000000 "
		},
		"gasEstimates": {
			"creation": {
				"codeDepositCost": "52200",
				"executionCost": "103",
				"totalCost": "52303"
			},
			"external": {
				"example()": "infinite",
				"example2()": "4512",
				"externalFunc()": "146",
				"publicFunc()": "179",
				"z()": "2348"
			}
		},
		"methodIdentifiers": {
			"example()": "54353f2f",
			"example2()": "a54998a7",
			"externalFunc()": "42b148aa",
			"publicFunc()": "4b73383f",
			"z()": "c5d7802e"
		}
	},
	"abi": [
		{
			"inputs": [],
			"name": "example",
			"outputs": [
				{
					"internalType": "uint256",
					"name": "",
					"type": "uint256"
				}
			],
			"stateMutability": "view",
			"type": "function"
		},
		{
			"inputs": [],
			"name": "example2",
			"outputs": [
				{
					"internalType": "uint256",
					"name": "",
					"type": "uint256"
				}
			],
			"stateMutability": "view",
			"type": "function"
		},
		{
			"inputs": [],
			"name": "externalFunc",
			"outputs": [
				{
					"internalType": "uint256",
					"name": "",
					"type": "uint256"
				}
			],
			"stateMutability": "pure",
			"type": "function"
		},
		{
			"inputs": [],
			"name": "publicFunc",
			"outputs": [
				{
					"internalType": "uint256",
					"name": "",
					"type": "uint256"
				}
			],
			"stateMutability": "pure",
			"type": "function"
		},
		{
			"inputs": [],
			"name": "z",
			"outputs": [
				{
					"internalType": "uint256",
					"name": "",
					"type": "uint256"
				}
			],
			"stateMutability": "view",
			"type": "function"
		}
	]
}