{
	"data": {
		"bytecode": {
			"linkReferences": {},
			"object": "6080604052348015600e575f80fd5b5060ec8061001b5f395ff3fe6080604052348015600e575f80fd5b5060043610603a575f3560e01c806306661abd14603e57806382ab890a146057578063d09de08a146068575b5f80fd5b60455f5481565b60405190815260200160405180910390f35b60666062366004607d565b5f55565b005b60665f805490806076836093565b9190505550565b5f60208284031215608c575f80fd5b5035919050565b5f6001820160af57634e487b7160e01b5f52601160045260245ffd5b506001019056fea26469706673582212204870ecdc40f98441da6db9a321e899f4cdabfbde8ce6dfe9df73b886fba9678864736f6c634300081a0033",
			"opcodes": "PUSH1 0x80 PUSH1 0x40 MSTORE CALLVALUE DUP1 ISZERO PUSH1 0xE JUMPI PUSH0 DUP1 REVERT JUMPDEST POP PUSH1 0xEC DUP1 PUSH2 0x1B PUSH0 CODECOPY PUSH0 RETURN INVALID PUSH1 0x80 PUSH1 0x40 MSTORE CALLVALUE DUP1 ISZERO PUSH1 0xE JUMPI PUSH0 DUP1 REVERT JUMPDEST POP PUSH1 0x4 CALLDATASIZE LT PUSH1 0x3A JUMPI PUSH0 CALLDATALOAD PUSH1 0xE0 SHR DUP1 PUSH4 0x6661ABD EQ PUSH1 0x3E JUMPI DUP1 PUSH4 0x82AB890A EQ PUSH1 0x57 JUMPI DUP1 PUSH4 0xD09DE08A EQ PUSH1 0x68 JUMPI JUMPDEST PUSH0 DUP1 REVERT JUMPDEST PUSH1 0x45 PUSH0 SLOAD DUP2 JUMP JUMPDEST PUSH1 0x40 MLOAD SWAP1 DUP2 MSTORE PUSH1 0x20 ADD PUSH1 0x40 MLOAD DUP1 SWAP2 SUB SWAP1 RETURN JUMPDEST PUSH1 0x66 PUSH1 0x62 CALLDATASIZE PUSH1 0x4 PUSH1 0x7D JUMP JUMPDEST PUSH0 SSTORE JUMP JUMPDEST STOP JUMPDEST PUSH1 0x66 PUSH0 DUP1 SLOAD SWAP1 DUP1 PUSH1 0x76 DUP4 PUSH1 0x93 JUMP JUMPDEST SWAP2 SWAP1 POP SSTORE POP JUMP JUMPDEST PUSH0 PUSH1 0x20 DUP3 DUP5 SUB SLT ISZERO PUSH1 0x8C JUMPI PUSH0 DUP1 REVERT JUMPDEST POP CALLDATALOAD SWAP2 SWAP1 POP JUMP JUMPDEST PUSH0 PUSH1 0x1 DUP3 ADD PUSH1 0xAF JUMPI PUSH4 0x4E487B71 PUSH1 0xE0 SHL PUSH0 MSTORE PUSH1 0x11 PUSH1 0x4 MSTORE PUSH1 0x24 PUSH0 REVERT JUMPDEST POP PUSH1 0x1 ADD SWAP1 JUMP INVALID LOG2 PUSH5 0x6970667358 0x22 SLT KECCAK256 BASEFEE PUSH17 0xECDC40F98441DA6DB9A321E899F4CDABFB 0xDE DUP13 0xE6 0xDF 0xE9 0xDF PUSH20 0xB886FBA9678864736F6C634300081A0033000000 "
		},
		"gasEstimates": {
			"creation": {
				"codeDepositCost": "47200",
				"executionCost": "97",
				"totalCost": "47297"
			},
			"external": {
				"count()": "2259",
				"increment()": "24437",
				"update(uint256)": "22309"
			}
		},
		"methodIdentifiers": {
			"count()": "06661abd",
			"increment()": "d09de08a",
			"update(uint256)": "82ab890a"
		}
	},
	"abi": [
		{
			"inputs": [],
			"name": "count",
			"outputs": [
				{
					"internalType": "uint256",
					"name": "",
					"type": "uint256"
				}
			],
			"stateMutability": "view",
			"type": "function"
		},
		{
			"inputs": [],
			"name": "increment",
			"outputs": [],
			"stateMutability": "nonpayable",
			"type": "function"
		},
		{
			"inputs": [
				{
					"internalType": "uint256",
					"name": "value",
					"type": "uint256"
				}
			],
			"name": "update",
			"outputs": [],
			"stateMutability": "nonpayable",
			"type": "function"
		}
	]
}