{
	"04/AccessControl.sol": {
		"AccessControl": {
			"abi": [
				{
					"inputs": [],
					"stateMutability": "nonpayable",
					"type": "constructor"
				},
				{
					"anonymous": false,
					"inputs": [
						{
							"indexed": true,
							"internalType": "bytes32",
							"name": "_role",
							"type": "bytes32"
						},
						{
							"indexed": true,
							"internalType": "address",
							"name": "_address",
							"type": "address"
						}
					],
					"name": "GrantLog",
					"type": "event"
				},
				{
					"anonymous": false,
					"inputs": [
						{
							"indexed": true,
							"internalType": "bytes32",
							"name": "_role",
							"type": "bytes32"
						},
						{
							"indexed": true,
							"internalType": "address",
							"name": "_address",
							"type": "address"
						}
					],
					"name": "RevokeLog",
					"type": "event"
				},
				{
					"inputs": [
						{
							"internalType": "string",
							"name": "text",
							"type": "string"
						}
					],
					"name": "getHash",
					"outputs": [
						{
							"internalType": "bytes32",
							"name": "",
							"type": "bytes32"
						}
					],
					"stateMutability": "pure",
					"type": "function"
				},
				{
					"inputs": [
						{
							"internalType": "bytes32",
							"name": "_role",
							"type": "bytes32"
						},
						{
							"internalType": "address",
							"name": "_address",
							"type": "address"
						}
					],
					"name": "grantRole",
					"outputs": [],
					"stateMutability": "nonpayable",
					"type": "function"
				},
				{
					"inputs": [
						{
							"internalType": "bytes32",
							"name": "_role",
							"type": "bytes32"
						},
						{
							"internalType": "address",
							"name": "_address",
							"type": "address"
						}
					],
					"name": "revokeRole",
					"outputs": [],
					"stateMutability": "nonpayable",
					"type": "function"
				},
				{
					"inputs": [
						{
							"internalType": "bytes32",
							"name": "",
							"type": "bytes32"
						},
						{
							"internalType": "address",
							"name": "",
							"type": "address"
						}
					],
					"name": "roles",
					"outputs": [
						{
							"internalType": "bool",
							"name": "",
							"type": "bool"
						}
					],
					"stateMutability": "view",
					"type": "function"
				}
			],
			"devdoc": {
				"kind": "dev",
				"methods": {},
				"version": 1
			},
			"evm": {
				"assembly": "    /* \"04/AccessControl.sol\":57:1187  contract AccessControl{... */\n  mstore(0x40, 0x80)\n    /* \"04/AccessControl.sol\":434:492  constructor(){... */\n  callvalue\n  dup1\n  iszero\n  tag_1\n  jumpi\n  0x00\n  dup1\n  revert\ntag_1:\n  pop\n    /* \"04/AccessControl.sol\":457:485  _grantRole(ADMIN,msg.sender) */\n  tag_4\n    /* \"04/AccessControl.sol\":328:353  abi.encodePacked(\"ADMIN\") */\n  add(0x20, mload(0x40))\n  tag_5\n  swap1\n  tag_6\n  jump\t// in\ntag_5:\n  mload(0x40)\n  0x20\n  dup2\n  dup4\n  sub\n  sub\n  dup2\n  mstore\n  swap1\n  0x40\n  mstore\n    /* \"04/AccessControl.sol\":318:354  keccak256(abi.encodePacked(\"ADMIN\")) */\n  dup1\n  mload\n  swap1\n  0x20\n  add\n  keccak256\n    /* \"04/AccessControl.sol\":474:484  msg.sender */\n  caller\n    /* \"04/AccessControl.sol\":457:467  _grantRole */\n  shl(0x20, tag_7)\n    /* \"04/AccessControl.sol\":457:485  _grantRole(ADMIN,msg.sender) */\n  0x20\n  shr\n  jump\t// in\ntag_4:\n    /* \"04/AccessControl.sol\":57:1187  contract AccessControl{... */\n  jump(tag_8)\n    /* \"04/AccessControl.sol\":613:720  function _grantRole(bytes32 _role,address _address) internal {... */\ntag_7:\n    /* \"04/AccessControl.sol\":709:713  true */\n  0x01\n    /* \"04/AccessControl.sol\":684:689  roles */\n  0x00\n    /* \"04/AccessControl.sol\":684:696  roles[_role] */\n  dup1\n    /* \"04/AccessControl.sol\":690:695  _role */\n  dup5\n    /* \"04/AccessControl.sol\":684:696  roles[_role] */\n  dup2\n  mstore\n  0x20\n  add\n  swap1\n  dup2\n  mstore\n  0x20\n  add\n  0x00\n  keccak256\n    /* \"04/AccessControl.sol\":684:706  roles[_role][_address] */\n  0x00\n    /* \"04/AccessControl.sol\":697:705  _address */\n  dup4\n    /* \"04/AccessControl.sol\":684:706  roles[_role][_address] */\n  0xffffffffffffffffffffffffffffffffffffffff\n  and\n  0xffffffffffffffffffffffffffffffffffffffff\n  and\n  dup2\n  mstore\n  0x20\n  add\n  swap1\n  dup2\n  mstore\n  0x20\n  add\n  0x00\n  keccak256\n  0x00\n    /* \"04/AccessControl.sol\":684:713  roles[_role][_address] = true */\n  0x0100\n  exp\n  dup2\n  sload\n  dup2\n  0xff\n  mul\n  not\n  and\n  swap1\n  dup4\n  iszero\n  iszero\n  mul\n  or\n  swap1\n  sstore\n  pop\n    /* \"04/AccessControl.sol\":613:720  function _grantRole(bytes32 _role,address _address) internal {... */\n  pop\n  pop\n  jump\t// out\n    /* \"#utility.yul\":7:155   */\ntag_10:\n    /* \"#utility.yul\":109:120   */\n  0x00\n    /* \"#utility.yul\":146:149   */\n  dup2\n    /* \"#utility.yul\":131:149   */\n  swap1\n  pop\n    /* \"#utility.yul\":7:155   */\n  swap3\n  swap2\n  pop\n  pop\n  jump\t// out\n    /* \"#utility.yul\":161:316   */\ntag_11:\n    /* \"#utility.yul\":301:308   */\n  0x41444d494e000000000000000000000000000000000000000000000000000000\n    /* \"#utility.yul\":297:298   */\n  0x00\n    /* \"#utility.yul\":289:295   */\n  dup3\n    /* \"#utility.yul\":285:299   */\n  add\n    /* \"#utility.yul\":278:309   */\n  mstore\n    /* \"#utility.yul\":161:316   */\n  pop\n  jump\t// out\n    /* \"#utility.yul\":322:722   */\ntag_12:\n    /* \"#utility.yul\":482:485   */\n  0x00\n    /* \"#utility.yul\":503:587   */\n  tag_17\n    /* \"#utility.yul\":585:586   */\n  0x05\n    /* \"#utility.yul\":580:583   */\n  dup4\n    /* \"#utility.yul\":503:587   */\n  tag_10\n  jump\t// in\ntag_17:\n    /* \"#utility.yul\":496:587   */\n  swap2\n  pop\n    /* \"#utility.yul\":596:689   */\n  tag_18\n    /* \"#utility.yul\":685:688   */\n  dup3\n    /* \"#utility.yul\":596:689   */\n  tag_11\n  jump\t// in\ntag_18:\n    /* \"#utility.yul\":714:715   */\n  0x05\n    /* \"#utility.yul\":709:712   */\n  dup3\n    /* \"#utility.yul\":705:716   */\n  add\n    /* \"#utility.yul\":698:716   */\n  swap1\n  pop\n    /* \"#utility.yul\":322:722   */\n  swap2\n  swap1\n  pop\n  jump\t// out\n    /* \"#utility.yul\":728:1109   */\ntag_6:\n    /* \"#utility.yul\":913:916   */\n  0x00\n    /* \"#utility.yul\":935:1083   */\n  tag_20\n    /* \"#utility.yul\":1079:1082   */\n  dup3\n    /* \"#utility.yul\":935:1083   */\n  tag_12\n  jump\t// in\ntag_20:\n    /* \"#utility.yul\":928:1083   */\n  swap2\n  pop\n    /* \"#utility.yul\":1100:1103   */\n  dup2\n    /* \"#utility.yul\":1093:1103   */\n  swap1\n  pop\n    /* \"#utility.yul\":728:1109   */\n  swap2\n  swap1\n  pop\n  jump\t// out\n    /* \"04/AccessControl.sol\":57:1187  contract AccessControl{... */\ntag_8:\n  dataSize(sub_0)\n  dup1\n  dataOffset(sub_0)\n  0x00\n  codecopy\n  0x00\n  return\nstop\n\nsub_0: assembly {\n        /* \"04/AccessControl.sol\":57:1187  contract AccessControl{... */\n      mstore(0x40, 0x80)\n      callvalue\n      dup1\n      iszero\n      tag_1\n      jumpi\n      0x00\n      dup1\n      revert\n    tag_1:\n      pop\n      jumpi(tag_2, lt(calldatasize, 0x04))\n      shr(0xe0, calldataload(0x00))\n      dup1\n      0x2f2ff15d\n      eq\n      tag_3\n      jumpi\n      dup1\n      0x5b6beeb9\n      eq\n      tag_4\n      jumpi\n      dup1\n      0xd547741f\n      eq\n      tag_5\n      jumpi\n      dup1\n      0xf8fc08b9\n      eq\n      tag_6\n      jumpi\n    tag_2:\n      0x00\n      dup1\n      revert\n        /* \"04/AccessControl.sol\":726:884  function grantRole(bytes32 _role,address _address) external onlyRole(ADMIN){... */\n    tag_3:\n      tag_7\n      0x04\n      dup1\n      calldatasize\n      sub\n      dup2\n      add\n      swap1\n      tag_8\n      swap2\n      swap1\n      tag_9\n      jump\t// in\n    tag_8:\n      tag_10\n      jump\t// in\n    tag_7:\n      stop\n        /* \"04/AccessControl.sol\":1062:1185  function getHash(string calldata text) public pure returns(bytes32){... */\n    tag_4:\n      tag_11\n      0x04\n      dup1\n      calldatasize\n      sub\n      dup2\n      add\n      swap1\n      tag_12\n      swap2\n      swap1\n      tag_13\n      jump\t// in\n    tag_12:\n      tag_14\n      jump\t// in\n    tag_11:\n      mload(0x40)\n      tag_15\n      swap2\n      swap1\n      tag_16\n      jump\t// in\n    tag_15:\n      mload(0x40)\n      dup1\n      swap2\n      sub\n      swap1\n      return\n        /* \"04/AccessControl.sol\":890:1056  function revokeRole(bytes32 _role,address _address) external onlyRole(ADMIN){... */\n    tag_5:\n      tag_17\n      0x04\n      dup1\n      calldatasize\n      sub\n      dup2\n      add\n      swap1\n      tag_18\n      swap2\n      swap1\n      tag_9\n      jump\t// in\n    tag_18:\n      tag_19\n      jump\t// in\n    tag_17:\n      stop\n        /* \"04/AccessControl.sol\":223:278  mapping(bytes32 => mapping(address=>bool)) public roles */\n    tag_6:\n      tag_20\n      0x04\n      dup1\n      calldatasize\n      sub\n      dup2\n      add\n      swap1\n      tag_21\n      swap2\n      swap1\n      tag_9\n      jump\t// in\n    tag_21:\n      tag_22\n      jump\t// in\n    tag_20:\n      mload(0x40)\n      tag_23\n      swap2\n      swap1\n      tag_24\n      jump\t// in\n    tag_23:\n      mload(0x40)\n      dup1\n      swap2\n      sub\n      swap1\n      return\n        /* \"04/AccessControl.sol\":726:884  function grantRole(bytes32 _role,address _address) external onlyRole(ADMIN){... */\n    tag_10:\n        /* \"04/AccessControl.sol\":328:353  abi.encodePacked(\"ADMIN\") */\n      add(0x20, mload(0x40))\n      tag_25\n      swap1\n      tag_26\n      jump\t// in\n    tag_25:\n      mload(0x40)\n      0x20\n      dup2\n      dup4\n      sub\n      sub\n      dup2\n      mstore\n      swap1\n      0x40\n      mstore\n        /* \"04/AccessControl.sol\":318:354  keccak256(abi.encodePacked(\"ADMIN\")) */\n      dup1\n      mload\n      swap1\n      0x20\n      add\n      keccak256\n        /* \"04/AccessControl.sol\":548:553  roles */\n      0x00\n        /* \"04/AccessControl.sol\":548:560  roles[_role] */\n      dup1\n        /* \"04/AccessControl.sol\":554:559  _role */\n      dup3\n        /* \"04/AccessControl.sol\":548:560  roles[_role] */\n      dup2\n      mstore\n      0x20\n      add\n      swap1\n      dup2\n      mstore\n      0x20\n      add\n      0x00\n      keccak256\n        /* \"04/AccessControl.sol\":548:572  roles[_role][msg.sender] */\n      0x00\n        /* \"04/AccessControl.sol\":561:571  msg.sender */\n      caller\n        /* \"04/AccessControl.sol\":548:572  roles[_role][msg.sender] */\n      0xffffffffffffffffffffffffffffffffffffffff\n      and\n      0xffffffffffffffffffffffffffffffffffffffff\n      and\n      dup2\n      mstore\n      0x20\n      add\n      swap1\n      dup2\n      mstore\n      0x20\n      add\n      0x00\n      keccak256\n      0x00\n      swap1\n      sload\n      swap1\n      0x0100\n      exp\n      swap1\n      div\n      0xff\n      and\n        /* \"04/AccessControl.sol\":540:589  require(roles[_role][msg.sender],\"not authrized\") */\n      tag_28\n      jumpi\n      mload(0x40)\n      0x08c379a000000000000000000000000000000000000000000000000000000000\n      dup2\n      mstore\n      0x04\n      add\n      tag_29\n      swap1\n      tag_30\n      jump\t// in\n    tag_29:\n      mload(0x40)\n      dup1\n      swap2\n      sub\n      swap1\n      revert\n    tag_28:\n        /* \"04/AccessControl.sol\":811:838  _grantRole(_role, _address) */\n      tag_32\n        /* \"04/AccessControl.sol\":822:827  _role */\n      dup4\n        /* \"04/AccessControl.sol\":829:837  _address */\n      dup4\n        /* \"04/AccessControl.sol\":811:821  _grantRole */\n      tag_33\n        /* \"04/AccessControl.sol\":811:838  _grantRole(_role, _address) */\n      jump\t// in\n    tag_32:\n        /* \"04/AccessControl.sol\":868:876  _address */\n      dup2\n        /* \"04/AccessControl.sol\":853:877  GrantLog(_role,_address) */\n      0xffffffffffffffffffffffffffffffffffffffff\n      and\n        /* \"04/AccessControl.sol\":862:867  _role */\n      dup4\n        /* \"04/AccessControl.sol\":853:877  GrantLog(_role,_address) */\n      0x1e2db4124ba16a55c59ab76dd9addc28b22f9aaadd1a46643c8ec1347976b9da\n      mload(0x40)\n      mload(0x40)\n      dup1\n      swap2\n      sub\n      swap1\n      log3\n        /* \"04/AccessControl.sol\":726:884  function grantRole(bytes32 _role,address _address) external onlyRole(ADMIN){... */\n      pop\n      pop\n      pop\n      jump\t// out\n        /* \"04/AccessControl.sol\":1062:1185  function getHash(string calldata text) public pure returns(bytes32){... */\n    tag_14:\n        /* \"04/AccessControl.sol\":1121:1128  bytes32 */\n      0x00\n        /* \"04/AccessControl.sol\":1172:1176  text */\n      dup3\n      dup3\n        /* \"04/AccessControl.sol\":1155:1177  abi.encodePacked(text) */\n      add(0x20, mload(0x40))\n      tag_35\n      swap3\n      swap2\n      swap1\n      tag_36\n      jump\t// in\n    tag_35:\n      mload(0x40)\n      0x20\n      dup2\n      dup4\n      sub\n      sub\n      dup2\n      mstore\n      swap1\n      0x40\n      mstore\n        /* \"04/AccessControl.sol\":1145:1178  keccak256(abi.encodePacked(text)) */\n      dup1\n      mload\n      swap1\n      0x20\n      add\n      keccak256\n        /* \"04/AccessControl.sol\":1138:1178  return keccak256(abi.encodePacked(text)) */\n      swap1\n      pop\n        /* \"04/AccessControl.sol\":1062:1185  function getHash(string calldata text) public pure returns(bytes32){... */\n      swap3\n      swap2\n      pop\n      pop\n      jump\t// out\n        /* \"04/AccessControl.sol\":890:1056  function revokeRole(bytes32 _role,address _address) external onlyRole(ADMIN){... */\n    tag_19:\n        /* \"04/AccessControl.sol\":328:353  abi.encodePacked(\"ADMIN\") */\n      add(0x20, mload(0x40))\n      tag_37\n      swap1\n      tag_26\n      jump\t// in\n    tag_37:\n      mload(0x40)\n      0x20\n      dup2\n      dup4\n      sub\n      sub\n      dup2\n      mstore\n      swap1\n      0x40\n      mstore\n        /* \"04/AccessControl.sol\":318:354  keccak256(abi.encodePacked(\"ADMIN\")) */\n      dup1\n      mload\n      swap1\n      0x20\n      add\n      keccak256\n        /* \"04/AccessControl.sol\":548:553  roles */\n      0x00\n        /* \"04/AccessControl.sol\":548:560  roles[_role] */\n      dup1\n        /* \"04/AccessControl.sol\":554:559  _role */\n      dup3\n        /* \"04/AccessControl.sol\":548:560  roles[_role] */\n      dup2\n      mstore\n      0x20\n      add\n      swap1\n      dup2\n      mstore\n      0x20\n      add\n      0x00\n      keccak256\n        /* \"04/AccessControl.sol\":548:572  roles[_role][msg.sender] */\n      0x00\n        /* \"04/AccessControl.sol\":561:571  msg.sender */\n      caller\n        /* \"04/AccessControl.sol\":548:572  roles[_role][msg.sender] */\n      0xffffffffffffffffffffffffffffffffffffffff\n      and\n      0xffffffffffffffffffffffffffffffffffffffff\n      and\n      dup2\n      mstore\n      0x20\n      add\n      swap1\n      dup2\n      mstore\n      0x20\n      add\n      0x00\n      keccak256\n      0x00\n      swap1\n      sload\n      swap1\n      0x0100\n      exp\n      swap1\n      div\n      0xff\n      and\n        /* \"04/AccessControl.sol\":540:589  require(roles[_role][msg.sender],\"not authrized\") */\n      tag_39\n      jumpi\n      mload(0x40)\n      0x08c379a000000000000000000000000000000000000000000000000000000000\n      dup2\n      mstore\n      0x04\n      add\n      tag_40\n      swap1\n      tag_30\n      jump\t// in\n    tag_40:\n      mload(0x40)\n      dup1\n      swap2\n      sub\n      swap1\n      revert\n    tag_39:\n        /* \"04/AccessControl.sol\":1002:1007  false */\n      0x00\n        /* \"04/AccessControl.sol\":977:982  roles */\n      dup1\n        /* \"04/AccessControl.sol\":977:989  roles[_role] */\n      0x00\n        /* \"04/AccessControl.sol\":983:988  _role */\n      dup6\n        /* \"04/AccessControl.sol\":977:989  roles[_role] */\n      dup2\n      mstore\n      0x20\n      add\n      swap1\n      dup2\n      mstore\n      0x20\n      add\n      0x00\n      keccak256\n        /* \"04/AccessControl.sol\":977:999  roles[_role][_address] */\n      0x00\n        /* \"04/AccessControl.sol\":990:998  _address */\n      dup5\n        /* \"04/AccessControl.sol\":977:999  roles[_role][_address] */\n      0xffffffffffffffffffffffffffffffffffffffff\n      and\n      0xffffffffffffffffffffffffffffffffffffffff\n      and\n      dup2\n      mstore\n      0x20\n      add\n      swap1\n      dup2\n      mstore\n      0x20\n      add\n      0x00\n      keccak256\n      0x00\n        /* \"04/AccessControl.sol\":977:1007  roles[_role][_address] = false */\n      0x0100\n      exp\n      dup2\n      sload\n      dup2\n      0xff\n      mul\n      not\n      and\n      swap1\n      dup4\n      iszero\n      iszero\n      mul\n      or\n      swap1\n      sstore\n      pop\n        /* \"04/AccessControl.sol\":1040:1048  _address */\n      dup2\n        /* \"04/AccessControl.sol\":1024:1049  RevokeLog(_role,_address) */\n      0xffffffffffffffffffffffffffffffffffffffff\n      and\n        /* \"04/AccessControl.sol\":1034:1039  _role */\n      dup4\n        /* \"04/AccessControl.sol\":1024:1049  RevokeLog(_role,_address) */\n      0xd77f88ced5d994f2443337ad5718fda611288a1fce93db6252a251335ea4bd1c\n      mload(0x40)\n      mload(0x40)\n      dup1\n      swap2\n      sub\n      swap1\n      log3\n        /* \"04/AccessControl.sol\":890:1056  function revokeRole(bytes32 _role,address _address) external onlyRole(ADMIN){... */\n      pop\n      pop\n      pop\n      jump\t// out\n        /* \"04/AccessControl.sol\":223:278  mapping(bytes32 => mapping(address=>bool)) public roles */\n    tag_22:\n      mstore(0x20, 0x00)\n      dup2\n      0x00\n      mstore\n      mstore(0x20, keccak256(0x00, 0x40))\n      dup1\n      0x00\n      mstore\n      keccak256(0x00, 0x40)\n      0x00\n      swap2\n      pop\n      swap2\n      pop\n      swap1\n      sload\n      swap1\n      0x0100\n      exp\n      swap1\n      div\n      0xff\n      and\n      dup2\n      jump\t// out\n        /* \"04/AccessControl.sol\":613:720  function _grantRole(bytes32 _role,address _address) internal {... */\n    tag_33:\n        /* \"04/AccessControl.sol\":709:713  true */\n      0x01\n        /* \"04/AccessControl.sol\":684:689  roles */\n      0x00\n        /* \"04/AccessControl.sol\":684:696  roles[_role] */\n      dup1\n        /* \"04/AccessControl.sol\":690:695  _role */\n      dup5\n        /* \"04/AccessControl.sol\":684:696  roles[_role] */\n      dup2\n      mstore\n      0x20\n      add\n      swap1\n      dup2\n      mstore\n      0x20\n      add\n      0x00\n      keccak256\n        /* \"04/AccessControl.sol\":684:706  roles[_role][_address] */\n      0x00\n        /* \"04/AccessControl.sol\":697:705  _address */\n      dup4\n        /* \"04/AccessControl.sol\":684:706  roles[_role][_address] */\n      0xffffffffffffffffffffffffffffffffffffffff\n      and\n      0xffffffffffffffffffffffffffffffffffffffff\n      and\n      dup2\n      mstore\n      0x20\n      add\n      swap1\n      dup2\n      mstore\n      0x20\n      add\n      0x00\n      keccak256\n      0x00\n        /* \"04/AccessControl.sol\":684:713  roles[_role][_address] = true */\n      0x0100\n      exp\n      dup2\n      sload\n      dup2\n      0xff\n      mul\n      not\n      and\n      swap1\n      dup4\n      iszero\n      iszero\n      mul\n      or\n      swap1\n      sstore\n      pop\n        /* \"04/AccessControl.sol\":613:720  function _grantRole(bytes32 _role,address _address) internal {... */\n      pop\n      pop\n      jump\t// out\n        /* \"#utility.yul\":88:205   */\n    tag_44:\n        /* \"#utility.yul\":197:198   */\n      0x00\n        /* \"#utility.yul\":194:195   */\n      dup1\n        /* \"#utility.yul\":187:199   */\n      revert\n        /* \"#utility.yul\":211:328   */\n    tag_45:\n        /* \"#utility.yul\":320:321   */\n      0x00\n        /* \"#utility.yul\":317:318   */\n      dup1\n        /* \"#utility.yul\":310:322   */\n      revert\n        /* \"#utility.yul\":334:411   */\n    tag_46:\n        /* \"#utility.yul\":371:378   */\n      0x00\n        /* \"#utility.yul\":400:405   */\n      dup2\n        /* \"#utility.yul\":389:405   */\n      swap1\n      pop\n        /* \"#utility.yul\":334:411   */\n      swap2\n      swap1\n      pop\n      jump\t// out\n        /* \"#utility.yul\":417:539   */\n    tag_47:\n        /* \"#utility.yul\":490:514   */\n      tag_74\n        /* \"#utility.yul\":508:513   */\n      dup2\n        /* \"#utility.yul\":490:514   */\n      tag_46\n      jump\t// in\n    tag_74:\n        /* \"#utility.yul\":483:488   */\n      dup2\n        /* \"#utility.yul\":480:515   */\n      eq\n        /* \"#utility.yul\":470:533   */\n      tag_75\n      jumpi\n        /* \"#utility.yul\":529:530   */\n      0x00\n        /* \"#utility.yul\":526:527   */\n      dup1\n        /* \"#utility.yul\":519:531   */\n      revert\n        /* \"#utility.yul\":470:533   */\n    tag_75:\n        /* \"#utility.yul\":417:539   */\n      pop\n      jump\t// out\n        /* \"#utility.yul\":545:684   */\n    tag_48:\n        /* \"#utility.yul\":591:596   */\n      0x00\n        /* \"#utility.yul\":629:635   */\n      dup2\n        /* \"#utility.yul\":616:636   */\n      calldataload\n        /* \"#utility.yul\":607:636   */\n      swap1\n      pop\n        /* \"#utility.yul\":645:678   */\n      tag_77\n        /* \"#utility.yul\":672:677   */\n      dup2\n        /* \"#utility.yul\":645:678   */\n      tag_47\n      jump\t// in\n    tag_77:\n        /* \"#utility.yul\":545:684   */\n      swap3\n      swap2\n      pop\n      pop\n      jump\t// out\n        /* \"#utility.yul\":690:816   */\n    tag_49:\n        /* \"#utility.yul\":727:734   */\n      0x00\n        /* \"#utility.yul\":767:809   */\n      0xffffffffffffffffffffffffffffffffffffffff\n        /* \"#utility.yul\":760:765   */\n      dup3\n        /* \"#utility.yul\":756:810   */\n      and\n        /* \"#utility.yul\":745:810   */\n      swap1\n      pop\n        /* \"#utility.yul\":690:816   */\n      swap2\n      swap1\n      pop\n      jump\t// out\n        /* \"#utility.yul\":822:918   */\n    tag_50:\n        /* \"#utility.yul\":859:866   */\n      0x00\n        /* \"#utility.yul\":888:912   */\n      tag_80\n        /* \"#utility.yul\":906:911   */\n      dup3\n        /* \"#utility.yul\":888:912   */\n      tag_49\n      jump\t// in\n    tag_80:\n        /* \"#utility.yul\":877:912   */\n      swap1\n      pop\n        /* \"#utility.yul\":822:918   */\n      swap2\n      swap1\n      pop\n      jump\t// out\n        /* \"#utility.yul\":924:1046   */\n    tag_51:\n        /* \"#utility.yul\":997:1021   */\n      tag_82\n        /* \"#utility.yul\":1015:1020   */\n      dup2\n        /* \"#utility.yul\":997:1021   */\n      tag_50\n      jump\t// in\n    tag_82:\n        /* \"#utility.yul\":990:995   */\n      dup2\n        /* \"#utility.yul\":987:1022   */\n      eq\n        /* \"#utility.yul\":977:1040   */\n      tag_83\n      jumpi\n        /* \"#utility.yul\":1036:1037   */\n      0x00\n        /* \"#utility.yul\":1033:1034   */\n      dup1\n        /* \"#utility.yul\":1026:1038   */\n      revert\n        /* \"#utility.yul\":977:1040   */\n    tag_83:\n        /* \"#utility.yul\":924:1046   */\n      pop\n      jump\t// out\n        /* \"#utility.yul\":1052:1191   */\n    tag_52:\n        /* \"#utility.yul\":1098:1103   */\n      0x00\n        /* \"#utility.yul\":1136:1142   */\n      dup2\n        /* \"#utility.yul\":1123:1143   */\n      calldataload\n        /* \"#utility.yul\":1114:1143   */\n      swap1\n      pop\n        /* \"#utility.yul\":1152:1185   */\n      tag_85\n        /* \"#utility.yul\":1179:1184   */\n      dup2\n        /* \"#utility.yul\":1152:1185   */\n      tag_51\n      jump\t// in\n    tag_85:\n        /* \"#utility.yul\":1052:1191   */\n      swap3\n      swap2\n      pop\n      pop\n      jump\t// out\n        /* \"#utility.yul\":1197:1671   */\n    tag_9:\n        /* \"#utility.yul\":1265:1271   */\n      0x00\n        /* \"#utility.yul\":1273:1279   */\n      dup1\n        /* \"#utility.yul\":1322:1324   */\n      0x40\n        /* \"#utility.yul\":1310:1319   */\n      dup4\n        /* \"#utility.yul\":1301:1308   */\n      dup6\n        /* \"#utility.yul\":1297:1320   */\n      sub\n        /* \"#utility.yul\":1293:1325   */\n      slt\n        /* \"#utility.yul\":1290:1409   */\n      iszero\n      tag_87\n      jumpi\n        /* \"#utility.yul\":1328:1407   */\n      tag_88\n      tag_44\n      jump\t// in\n    tag_88:\n        /* \"#utility.yul\":1290:1409   */\n    tag_87:\n        /* \"#utility.yul\":1448:1449   */\n      0x00\n        /* \"#utility.yul\":1473:1526   */\n      tag_89\n        /* \"#utility.yul\":1518:1525   */\n      dup6\n        /* \"#utility.yul\":1509:1515   */\n      dup3\n        /* \"#utility.yul\":1498:1507   */\n      dup7\n        /* \"#utility.yul\":1494:1516   */\n      add\n        /* \"#utility.yul\":1473:1526   */\n      tag_48\n      jump\t// in\n    tag_89:\n        /* \"#utility.yul\":1463:1526   */\n      swap3\n      pop\n        /* \"#utility.yul\":1419:1536   */\n      pop\n        /* \"#utility.yul\":1575:1577   */\n      0x20\n        /* \"#utility.yul\":1601:1654   */\n      tag_90\n        /* \"#utility.yul\":1646:1653   */\n      dup6\n        /* \"#utility.yul\":1637:1643   */\n      dup3\n        /* \"#utility.yul\":1626:1635   */\n      dup7\n        /* \"#utility.yul\":1622:1644   */\n      add\n        /* \"#utility.yul\":1601:1654   */\n      tag_52\n      jump\t// in\n    tag_90:\n        /* \"#utility.yul\":1591:1654   */\n      swap2\n      pop\n        /* \"#utility.yul\":1546:1664   */\n      pop\n        /* \"#utility.yul\":1197:1671   */\n      swap3\n      pop\n      swap3\n      swap1\n      pop\n      jump\t// out\n        /* \"#utility.yul\":1677:1794   */\n    tag_53:\n        /* \"#utility.yul\":1786:1787   */\n      0x00\n        /* \"#utility.yul\":1783:1784   */\n      dup1\n        /* \"#utility.yul\":1776:1788   */\n      revert\n        /* \"#utility.yul\":1800:1917   */\n    tag_54:\n        /* \"#utility.yul\":1909:1910   */\n      0x00\n        /* \"#utility.yul\":1906:1907   */\n      dup1\n        /* \"#utility.yul\":1899:1911   */\n      revert\n        /* \"#utility.yul\":1923:2040   */\n    tag_55:\n        /* \"#utility.yul\":2032:2033   */\n      0x00\n        /* \"#utility.yul\":2029:2030   */\n      dup1\n        /* \"#utility.yul\":2022:2034   */\n      revert\n        /* \"#utility.yul\":2060:2613   */\n    tag_56:\n        /* \"#utility.yul\":2118:2126   */\n      0x00\n        /* \"#utility.yul\":2128:2134   */\n      dup1\n        /* \"#utility.yul\":2178:2181   */\n      dup4\n        /* \"#utility.yul\":2171:2175   */\n      0x1f\n        /* \"#utility.yul\":2163:2169   */\n      dup5\n        /* \"#utility.yul\":2159:2176   */\n      add\n        /* \"#utility.yul\":2155:2182   */\n      slt\n        /* \"#utility.yul\":2145:2267   */\n      tag_95\n      jumpi\n        /* \"#utility.yul\":2186:2265   */\n      tag_96\n      tag_53\n      jump\t// in\n    tag_96:\n        /* \"#utility.yul\":2145:2267   */\n    tag_95:\n        /* \"#utility.yul\":2299:2305   */\n      dup3\n        /* \"#utility.yul\":2286:2306   */\n      calldataload\n        /* \"#utility.yul\":2276:2306   */\n      swap1\n      pop\n        /* \"#utility.yul\":2329:2347   */\n      0xffffffffffffffff\n        /* \"#utility.yul\":2321:2327   */\n      dup2\n        /* \"#utility.yul\":2318:2348   */\n      gt\n        /* \"#utility.yul\":2315:2432   */\n      iszero\n      tag_97\n      jumpi\n        /* \"#utility.yul\":2351:2430   */\n      tag_98\n      tag_54\n      jump\t// in\n    tag_98:\n        /* \"#utility.yul\":2315:2432   */\n    tag_97:\n        /* \"#utility.yul\":2465:2469   */\n      0x20\n        /* \"#utility.yul\":2457:2463   */\n      dup4\n        /* \"#utility.yul\":2453:2470   */\n      add\n        /* \"#utility.yul\":2441:2470   */\n      swap2\n      pop\n        /* \"#utility.yul\":2519:2522   */\n      dup4\n        /* \"#utility.yul\":2511:2515   */\n      0x01\n        /* \"#utility.yul\":2503:2509   */\n      dup3\n        /* \"#utility.yul\":2499:2516   */\n      mul\n        /* \"#utility.yul\":2489:2497   */\n      dup4\n        /* \"#utility.yul\":2485:2517   */\n      add\n        /* \"#utility.yul\":2482:2523   */\n      gt\n        /* \"#utility.yul\":2479:2607   */\n      iszero\n      tag_99\n      jumpi\n        /* \"#utility.yul\":2526:2605   */\n      tag_100\n      tag_55\n      jump\t// in\n    tag_100:\n        /* \"#utility.yul\":2479:2607   */\n    tag_99:\n        /* \"#utility.yul\":2060:2613   */\n      swap3\n      pop\n      swap3\n      swap1\n      pop\n      jump\t// out\n        /* \"#utility.yul\":2619:3148   */\n    tag_13:\n        /* \"#utility.yul\":2690:2696   */\n      0x00\n        /* \"#utility.yul\":2698:2704   */\n      dup1\n        /* \"#utility.yul\":2747:2749   */\n      0x20\n        /* \"#utility.yul\":2735:2744   */\n      dup4\n        /* \"#utility.yul\":2726:2733   */\n      dup6\n        /* \"#utility.yul\":2722:2745   */\n      sub\n        /* \"#utility.yul\":2718:2750   */\n      slt\n        /* \"#utility.yul\":2715:2834   */\n      iszero\n      tag_102\n      jumpi\n        /* \"#utility.yul\":2753:2832   */\n      tag_103\n      tag_44\n      jump\t// in\n    tag_103:\n        /* \"#utility.yul\":2715:2834   */\n    tag_102:\n        /* \"#utility.yul\":2901:2902   */\n      0x00\n        /* \"#utility.yul\":2890:2899   */\n      dup4\n        /* \"#utility.yul\":2886:2903   */\n      add\n        /* \"#utility.yul\":2873:2904   */\n      calldataload\n        /* \"#utility.yul\":2931:2949   */\n      0xffffffffffffffff\n        /* \"#utility.yul\":2923:2929   */\n      dup2\n        /* \"#utility.yul\":2920:2950   */\n      gt\n        /* \"#utility.yul\":2917:3034   */\n      iszero\n      tag_104\n      jumpi\n        /* \"#utility.yul\":2953:3032   */\n      tag_105\n      tag_45\n      jump\t// in\n    tag_105:\n        /* \"#utility.yul\":2917:3034   */\n    tag_104:\n        /* \"#utility.yul\":3066:3131   */\n      tag_106\n        /* \"#utility.yul\":3123:3130   */\n      dup6\n        /* \"#utility.yul\":3114:3120   */\n      dup3\n        /* \"#utility.yul\":3103:3112   */\n      dup7\n        /* \"#utility.yul\":3099:3121   */\n      add\n        /* \"#utility.yul\":3066:3131   */\n      tag_56\n      jump\t// in\n    tag_106:\n        /* \"#utility.yul\":3048:3131   */\n      swap3\n      pop\n      swap3\n      pop\n        /* \"#utility.yul\":2844:3141   */\n      pop\n        /* \"#utility.yul\":2619:3148   */\n      swap3\n      pop\n      swap3\n      swap1\n      pop\n      jump\t// out\n        /* \"#utility.yul\":3154:3272   */\n    tag_57:\n        /* \"#utility.yul\":3241:3265   */\n      tag_108\n        /* \"#utility.yul\":3259:3264   */\n      dup2\n        /* \"#utility.yul\":3241:3265   */\n      tag_46\n      jump\t// in\n    tag_108:\n        /* \"#utility.yul\":3236:3239   */\n      dup3\n        /* \"#utility.yul\":3229:3266   */\n      mstore\n        /* \"#utility.yul\":3154:3272   */\n      pop\n      pop\n      jump\t// out\n        /* \"#utility.yul\":3278:3500   */\n    tag_16:\n        /* \"#utility.yul\":3371:3375   */\n      0x00\n        /* \"#utility.yul\":3409:3411   */\n      0x20\n        /* \"#utility.yul\":3398:3407   */\n      dup3\n        /* \"#utility.yul\":3394:3412   */\n      add\n        /* \"#utility.yul\":3386:3412   */\n      swap1\n      pop\n        /* \"#utility.yul\":3422:3493   */\n      tag_110\n        /* \"#utility.yul\":3490:3491   */\n      0x00\n        /* \"#utility.yul\":3479:3488   */\n      dup4\n        /* \"#utility.yul\":3475:3492   */\n      add\n        /* \"#utility.yul\":3466:3472   */\n      dup5\n        /* \"#utility.yul\":3422:3493   */\n      tag_57\n      jump\t// in\n    tag_110:\n        /* \"#utility.yul\":3278:3500   */\n      swap3\n      swap2\n      pop\n      pop\n      jump\t// out\n        /* \"#utility.yul\":3506:3596   */\n    tag_58:\n        /* \"#utility.yul\":3540:3547   */\n      0x00\n        /* \"#utility.yul\":3583:3588   */\n      dup2\n        /* \"#utility.yul\":3576:3589   */\n      iszero\n        /* \"#utility.yul\":3569:3590   */\n      iszero\n        /* \"#utility.yul\":3558:3590   */\n      swap1\n      pop\n        /* \"#utility.yul\":3506:3596   */\n      swap2\n      swap1\n      pop\n      jump\t// out\n        /* \"#utility.yul\":3602:3711   */\n    tag_59:\n        /* \"#utility.yul\":3683:3704   */\n      tag_113\n        /* \"#utility.yul\":3698:3703   */\n      dup2\n        /* \"#utility.yul\":3683:3704   */\n      tag_58\n      jump\t// in\n    tag_113:\n        /* \"#utility.yul\":3678:3681   */\n      dup3\n        /* \"#utility.yul\":3671:3705   */\n      mstore\n        /* \"#utility.yul\":3602:3711   */\n      pop\n      pop\n      jump\t// out\n        /* \"#utility.yul\":3717:3927   */\n    tag_24:\n        /* \"#utility.yul\":3804:3808   */\n      0x00\n        /* \"#utility.yul\":3842:3844   */\n      0x20\n        /* \"#utility.yul\":3831:3840   */\n      dup3\n        /* \"#utility.yul\":3827:3845   */\n      add\n        /* \"#utility.yul\":3819:3845   */\n      swap1\n      pop\n        /* \"#utility.yul\":3855:3920   */\n      tag_115\n        /* \"#utility.yul\":3917:3918   */\n      0x00\n        /* \"#utility.yul\":3906:3915   */\n      dup4\n        /* \"#utility.yul\":3902:3919   */\n      add\n        /* \"#utility.yul\":3893:3899   */\n      dup5\n        /* \"#utility.yul\":3855:3920   */\n      tag_59\n      jump\t// in\n    tag_115:\n        /* \"#utility.yul\":3717:3927   */\n      swap3\n      swap2\n      pop\n      pop\n      jump\t// out\n        /* \"#utility.yul\":3933:4081   */\n    tag_60:\n        /* \"#utility.yul\":4035:4046   */\n      0x00\n        /* \"#utility.yul\":4072:4075   */\n      dup2\n        /* \"#utility.yul\":4057:4075   */\n      swap1\n      pop\n        /* \"#utility.yul\":3933:4081   */\n      swap3\n      swap2\n      pop\n      pop\n      jump\t// out\n        /* \"#utility.yul\":4087:4242   */\n    tag_61:\n        /* \"#utility.yul\":4227:4234   */\n      0x41444d494e000000000000000000000000000000000000000000000000000000\n        /* \"#utility.yul\":4223:4224   */\n      0x00\n        /* \"#utility.yul\":4215:4221   */\n      dup3\n        /* \"#utility.yul\":4211:4225   */\n      add\n        /* \"#utility.yul\":4204:4235   */\n      mstore\n        /* \"#utility.yul\":4087:4242   */\n      pop\n      jump\t// out\n        /* \"#utility.yul\":4248:4648   */\n    tag_62:\n        /* \"#utility.yul\":4408:4411   */\n      0x00\n        /* \"#utility.yul\":4429:4513   */\n      tag_119\n        /* \"#utility.yul\":4511:4512   */\n      0x05\n        /* \"#utility.yul\":4506:4509   */\n      dup4\n        /* \"#utility.yul\":4429:4513   */\n      tag_60\n      jump\t// in\n    tag_119:\n        /* \"#utility.yul\":4422:4513   */\n      swap2\n      pop\n        /* \"#utility.yul\":4522:4615   */\n      tag_120\n        /* \"#utility.yul\":4611:4614   */\n      dup3\n        /* \"#utility.yul\":4522:4615   */\n      tag_61\n      jump\t// in\n    tag_120:\n        /* \"#utility.yul\":4640:4641   */\n      0x05\n        /* \"#utility.yul\":4635:4638   */\n      dup3\n        /* \"#utility.yul\":4631:4642   */\n      add\n        /* \"#utility.yul\":4624:4642   */\n      swap1\n      pop\n        /* \"#utility.yul\":4248:4648   */\n      swap2\n      swap1\n      pop\n      jump\t// out\n        /* \"#utility.yul\":4654:5035   */\n    tag_26:\n        /* \"#utility.yul\":4839:4842   */\n      0x00\n        /* \"#utility.yul\":4861:5009   */\n      tag_122\n        /* \"#utility.yul\":5005:5008   */\n      dup3\n        /* \"#utility.yul\":4861:5009   */\n      tag_62\n      jump\t// in\n    tag_122:\n        /* \"#utility.yul\":4854:5009   */\n      swap2\n      pop\n        /* \"#utility.yul\":5026:5029   */\n      dup2\n        /* \"#utility.yul\":5019:5029   */\n      swap1\n      pop\n        /* \"#utility.yul\":4654:5035   */\n      swap2\n      swap1\n      pop\n      jump\t// out\n        /* \"#utility.yul\":5041:5210   */\n    tag_63:\n        /* \"#utility.yul\":5125:5136   */\n      0x00\n        /* \"#utility.yul\":5159:5165   */\n      dup3\n        /* \"#utility.yul\":5154:5157   */\n      dup3\n        /* \"#utility.yul\":5147:5166   */\n      mstore\n        /* \"#utility.yul\":5199:5203   */\n      0x20\n        /* \"#utility.yul\":5194:5197   */\n      dup3\n        /* \"#utility.yul\":5190:5204   */\n      add\n        /* \"#utility.yul\":5175:5204   */\n      swap1\n      pop\n        /* \"#utility.yul\":5041:5210   */\n      swap3\n      swap2\n      pop\n      pop\n      jump\t// out\n        /* \"#utility.yul\":5216:5379   */\n    tag_64:\n        /* \"#utility.yul\":5356:5371   */\n      0x6e6f74206175746872697a656400000000000000000000000000000000000000\n        /* \"#utility.yul\":5352:5353   */\n      0x00\n        /* \"#utility.yul\":5344:5350   */\n      dup3\n        /* \"#utility.yul\":5340:5354   */\n      add\n        /* \"#utility.yul\":5333:5372   */\n      mstore\n        /* \"#utility.yul\":5216:5379   */\n      pop\n      jump\t// out\n        /* \"#utility.yul\":5385:5751   */\n    tag_65:\n        /* \"#utility.yul\":5527:5530   */\n      0x00\n        /* \"#utility.yul\":5548:5615   */\n      tag_126\n        /* \"#utility.yul\":5612:5614   */\n      0x0d\n        /* \"#utility.yul\":5607:5610   */\n      dup4\n        /* \"#utility.yul\":5548:5615   */\n      tag_63\n      jump\t// in\n    tag_126:\n        /* \"#utility.yul\":5541:5615   */\n      swap2\n      pop\n        /* \"#utility.yul\":5624:5717   */\n      tag_127\n        /* \"#utility.yul\":5713:5716   */\n      dup3\n        /* \"#utility.yul\":5624:5717   */\n      tag_64\n      jump\t// in\n    tag_127:\n        /* \"#utility.yul\":5742:5744   */\n      0x20\n        /* \"#utility.yul\":5737:5740   */\n      dup3\n        /* \"#utility.yul\":5733:5745   */\n      add\n        /* \"#utility.yul\":5726:5745   */\n      swap1\n      pop\n        /* \"#utility.yul\":5385:5751   */\n      swap2\n      swap1\n      pop\n      jump\t// out\n        /* \"#utility.yul\":5757:6176   */\n    tag_30:\n        /* \"#utility.yul\":5923:5927   */\n      0x00\n        /* \"#utility.yul\":5961:5963   */\n      0x20\n        /* \"#utility.yul\":5950:5959   */\n      dup3\n        /* \"#utility.yul\":5946:5964   */\n      add\n        /* \"#utility.yul\":5938:5964   */\n      swap1\n      pop\n        /* \"#utility.yul\":6010:6019   */\n      dup2\n        /* \"#utility.yul\":6004:6008   */\n      dup2\n        /* \"#utility.yul\":6000:6020   */\n      sub\n        /* \"#utility.yul\":5996:5997   */\n      0x00\n        /* \"#utility.yul\":5985:5994   */\n      dup4\n        /* \"#utility.yul\":5981:5998   */\n      add\n        /* \"#utility.yul\":5974:6021   */\n      mstore\n        /* \"#utility.yul\":6038:6169   */\n      tag_129\n        /* \"#utility.yul\":6164:6168   */\n      dup2\n        /* \"#utility.yul\":6038:6169   */\n      tag_65\n      jump\t// in\n    tag_129:\n        /* \"#utility.yul\":6030:6169   */\n      swap1\n      pop\n        /* \"#utility.yul\":5757:6176   */\n      swap2\n      swap1\n      pop\n      jump\t// out\n        /* \"#utility.yul\":6182:6330   */\n    tag_66:\n        /* \"#utility.yul\":6280:6286   */\n      dup3\n        /* \"#utility.yul\":6275:6278   */\n      dup2\n        /* \"#utility.yul\":6270:6273   */\n      dup4\n        /* \"#utility.yul\":6257:6287   */\n      calldatacopy\n        /* \"#utility.yul\":6321:6322   */\n      0x00\n        /* \"#utility.yul\":6312:6318   */\n      dup4\n        /* \"#utility.yul\":6307:6310   */\n      dup4\n        /* \"#utility.yul\":6303:6319   */\n      add\n        /* \"#utility.yul\":6296:6323   */\n      mstore\n        /* \"#utility.yul\":6182:6330   */\n      pop\n      pop\n      pop\n      jump\t// out\n        /* \"#utility.yul\":6360:6690   */\n    tag_67:\n        /* \"#utility.yul\":6476:6479   */\n      0x00\n        /* \"#utility.yul\":6497:6586   */\n      tag_132\n        /* \"#utility.yul\":6579:6585   */\n      dup4\n        /* \"#utility.yul\":6574:6577   */\n      dup6\n        /* \"#utility.yul\":6497:6586   */\n      tag_60\n      jump\t// in\n    tag_132:\n        /* \"#utility.yul\":6490:6586   */\n      swap4\n      pop\n        /* \"#utility.yul\":6596:6652   */\n      tag_133\n        /* \"#utility.yul\":6645:6651   */\n      dup4\n        /* \"#utility.yul\":6640:6643   */\n      dup6\n        /* \"#utility.yul\":6633:6638   */\n      dup5\n        /* \"#utility.yul\":6596:6652   */\n      tag_66\n      jump\t// in\n    tag_133:\n        /* \"#utility.yul\":6677:6683   */\n      dup3\n        /* \"#utility.yul\":6672:6675   */\n      dup5\n        /* \"#utility.yul\":6668:6684   */\n      add\n        /* \"#utility.yul\":6661:6684   */\n      swap1\n      pop\n        /* \"#utility.yul\":6360:6690   */\n      swap4\n      swap3\n      pop\n      pop\n      pop\n      jump\t// out\n        /* \"#utility.yul\":6696:6991   */\n    tag_36:\n        /* \"#utility.yul\":6838:6841   */\n      0x00\n        /* \"#utility.yul\":6860:6965   */\n      tag_135\n        /* \"#utility.yul\":6961:6964   */\n      dup3\n        /* \"#utility.yul\":6952:6958   */\n      dup5\n        /* \"#utility.yul\":6944:6950   */\n      dup7\n        /* \"#utility.yul\":6860:6965   */\n      tag_67\n      jump\t// in\n    tag_135:\n        /* \"#utility.yul\":6853:6965   */\n      swap2\n      pop\n        /* \"#utility.yul\":6982:6985   */\n      dup2\n        /* \"#utility.yul\":6975:6985   */\n      swap1\n      pop\n        /* \"#utility.yul\":6696:6991   */\n      swap4\n      swap3\n      pop\n      pop\n      pop\n      jump\t// out\n\n    auxdata: 0xa2646970667358221220fab98ce86560f9a07e1ecf93b91ee6b6689a723b9b7dd313ecf0e0bf37fee70964736f6c634300081a0033\n}\n",
				"bytecode": {
					"linkReferences": {},
					"object": "608060405234801561000f575f80fd5b5061004460405160200161002290610104565b604051602081830303815290604052805190602001203361004960201b60201c565b610118565b60015f808481526020019081526020015f205f8373ffffffffffffffffffffffffffffffffffffffff1673ffffffffffffffffffffffffffffffffffffffff1681526020019081526020015f205f6101000a81548160ff0219169083151502179055505050565b5f81905092915050565b7f41444d494e0000000000000000000000000000000000000000000000000000005f82015250565b5f6100ee6005836100b0565b91506100f9826100ba565b600582019050919050565b5f61010e826100e2565b9150819050919050565b610758806101255f395ff3fe608060405234801561000f575f80fd5b506004361061004a575f3560e01c80632f2ff15d1461004e5780635b6beeb91461006a578063d547741f1461009a578063f8fc08b9146100b6575b5f80fd5b610068600480360381019061006391906104b3565b6100e6565b005b610084600480360381019061007f9190610552565b6101f5565b60405161009191906105ac565b60405180910390f35b6100b460048036038101906100af91906104b3565b610227565b005b6100d060048036038101906100cb91906104b3565b61038e565b6040516100dd91906105df565b60405180910390f35b6040516020016100f59061064c565b604051602081830303815290604052805190602001205f808281526020019081526020015f205f3373ffffffffffffffffffffffffffffffffffffffff1673ffffffffffffffffffffffffffffffffffffffff1681526020019081526020015f205f9054906101000a900460ff166101a2576040517f08c379a0000000000000000000000000000000000000000000000000000000008152600401610199906106ba565b60405180910390fd5b6101ac83836103b7565b8173ffffffffffffffffffffffffffffffffffffffff16837f1e2db4124ba16a55c59ab76dd9addc28b22f9aaadd1a46643c8ec1347976b9da60405160405180910390a3505050565b5f828260405160200161020992919061070a565b60405160208183030381529060405280519060200120905092915050565b6040516020016102369061064c565b604051602081830303815290604052805190602001205f808281526020019081526020015f205f3373ffffffffffffffffffffffffffffffffffffffff1673ffffffffffffffffffffffffffffffffffffffff1681526020019081526020015f205f9054906101000a900460ff166102e3576040517f08c379a00000000000000000000000000000000000000000000000000000000081526004016102da906106ba565b60405180910390fd5b5f805f8581526020019081526020015f205f8473ffffffffffffffffffffffffffffffffffffffff1673ffffffffffffffffffffffffffffffffffffffff1681526020019081526020015f205f6101000a81548160ff0219169083151502179055508173ffffffffffffffffffffffffffffffffffffffff16837fd77f88ced5d994f2443337ad5718fda611288a1fce93db6252a251335ea4bd1c60405160405180910390a3505050565b5f602052815f5260405f20602052805f5260405f205f915091509054906101000a900460ff1681565b60015f808481526020019081526020015f205f8373ffffffffffffffffffffffffffffffffffffffff1673ffffffffffffffffffffffffffffffffffffffff1681526020019081526020015f205f6101000a81548160ff0219169083151502179055505050565b5f80fd5b5f80fd5b5f819050919050565b61043881610426565b8114610442575f80fd5b50565b5f813590506104538161042f565b92915050565b5f73ffffffffffffffffffffffffffffffffffffffff82169050919050565b5f61048282610459565b9050919050565b61049281610478565b811461049c575f80fd5b50565b5f813590506104ad81610489565b92915050565b5f80604083850312156104c9576104c861041e565b5b5f6104d685828601610445565b92505060206104e78582860161049f565b9150509250929050565b5f80fd5b5f80fd5b5f80fd5b5f8083601f840112610512576105116104f1565b5b8235905067ffffffffffffffff81111561052f5761052e6104f5565b5b60208301915083600182028301111561054b5761054a6104f9565b5b9250929050565b5f80602083850312156105685761056761041e565b5b5f83013567ffffffffffffffff81111561058557610584610422565b5b610591858286016104fd565b92509250509250929050565b6105a681610426565b82525050565b5f6020820190506105bf5f83018461059d565b92915050565b5f8115159050919050565b6105d9816105c5565b82525050565b5f6020820190506105f25f8301846105d0565b92915050565b5f81905092915050565b7f41444d494e0000000000000000000000000000000000000000000000000000005f82015250565b5f6106366005836105f8565b915061064182610602565b600582019050919050565b5f6106568261062a565b9150819050919050565b5f82825260208201905092915050565b7f6e6f74206175746872697a6564000000000000000000000000000000000000005f82015250565b5f6106a4600d83610660565b91506106af82610670565b602082019050919050565b5f6020820190508181035f8301526106d181610698565b9050919050565b828183375f83830152505050565b5f6106f183856105f8565b93506106fe8385846106d8565b82840190509392505050565b5f6107168284866106e6565b9150819050939250505056fea2646970667358221220fab98ce86560f9a07e1ecf93b91ee6b6689a723b9b7dd313ecf0e0bf37fee70964736f6c634300081a0033",
					"opcodes": "PUSH1 0x80 PUSH1 0x40 MSTORE CALLVALUE DUP1 ISZERO PUSH2 0xF JUMPI PUSH0 DUP1 REVERT JUMPDEST POP PUSH2 0x44 PUSH1 0x40 MLOAD PUSH1 0x20 ADD PUSH2 0x22 SWAP1 PUSH2 0x104 JUMP JUMPDEST PUSH1 0x40 MLOAD PUSH1 0x20 DUP2 DUP4 SUB SUB DUP2 MSTORE SWAP1 PUSH1 0x40 MSTORE DUP1 MLOAD SWAP1 PUSH1 0x20 ADD KECCAK256 CALLER PUSH2 0x49 PUSH1 0x20 SHL PUSH1 0x20 SHR JUMP JUMPDEST PUSH2 0x118 JUMP JUMPDEST PUSH1 0x1 PUSH0 DUP1 DUP5 DUP2 MSTORE PUSH1 0x20 ADD SWAP1 DUP2 MSTORE PUSH1 0x20 ADD PUSH0 KECCAK256 PUSH0 DUP4 PUSH20 0xFFFFFFFFFFFFFFFFFFFFFFFFFFFFFFFFFFFFFFFF AND PUSH20 0xFFFFFFFFFFFFFFFFFFFFFFFFFFFFFFFFFFFFFFFF AND DUP2 MSTORE PUSH1 0x20 ADD SWAP1 DUP2 MSTORE PUSH1 0x20 ADD PUSH0 KECCAK256 PUSH0 PUSH2 0x100 EXP DUP2 SLOAD DUP2 PUSH1 0xFF MUL NOT AND SWAP1 DUP4 ISZERO ISZERO MUL OR SWAP1 SSTORE POP POP POP JUMP JUMPDEST PUSH0 DUP2 SWAP1 POP SWAP3 SWAP2 POP POP JUMP JUMPDEST PUSH32 0x41444D494E000000000000000000000000000000000000000000000000000000 PUSH0 DUP3 ADD MSTORE POP JUMP JUMPDEST PUSH0 PUSH2 0xEE PUSH1 0x5 DUP4 PUSH2 0xB0 JUMP JUMPDEST SWAP2 POP PUSH2 0xF9 DUP3 PUSH2 0xBA JUMP JUMPDEST PUSH1 0x5 DUP3 ADD SWAP1 POP SWAP2 SWAP1 POP JUMP JUMPDEST PUSH0 PUSH2 0x10E DUP3 PUSH2 0xE2 JUMP JUMPDEST SWAP2 POP DUP2 SWAP1 POP SWAP2 SWAP1 POP JUMP JUMPDEST PUSH2 0x758 DUP1 PUSH2 0x125 PUSH0 CODECOPY PUSH0 RETURN INVALID PUSH1 0x80 PUSH1 0x40 MSTORE CALLVALUE DUP1 ISZERO PUSH2 0xF JUMPI PUSH0 DUP1 REVERT JUMPDEST POP PUSH1 0x4 CALLDATASIZE LT PUSH2 0x4A JUMPI PUSH0 CALLDATALOAD PUSH1 0xE0 SHR DUP1 PUSH4 0x2F2FF15D EQ PUSH2 0x4E JUMPI DUP1 PUSH4 0x5B6BEEB9 EQ PUSH2 0x6A JUMPI DUP1 PUSH4 0xD547741F EQ PUSH2 0x9A JUMPI DUP1 PUSH4 0xF8FC08B9 EQ PUSH2 0xB6 JUMPI JUMPDEST PUSH0 DUP1 REVERT JUMPDEST PUSH2 0x68 PUSH1 0x4 DUP1 CALLDATASIZE SUB DUP2 ADD SWAP1 PUSH2 0x63 SWAP2 SWAP1 PUSH2 0x4B3 JUMP JUMPDEST PUSH2 0xE6 JUMP JUMPDEST STOP JUMPDEST PUSH2 0x84 PUSH1 0x4 DUP1 CALLDATASIZE SUB DUP2 ADD SWAP1 PUSH2 0x7F SWAP2 SWAP1 PUSH2 0x552 JUMP JUMPDEST PUSH2 0x1F5 JUMP JUMPDEST PUSH1 0x40 MLOAD PUSH2 0x91 SWAP2 SWAP1 PUSH2 0x5AC JUMP JUMPDEST PUSH1 0x40 MLOAD DUP1 SWAP2 SUB SWAP1 RETURN JUMPDEST PUSH2 0xB4 PUSH1 0x4 DUP1 CALLDATASIZE SUB DUP2 ADD SWAP1 PUSH2 0xAF SWAP2 SWAP1 PUSH2 0x4B3 JUMP JUMPDEST PUSH2 0x227 JUMP JUMPDEST STOP JUMPDEST PUSH2 0xD0 PUSH1 0x4 DUP1 CALLDATASIZE SUB DUP2 ADD SWAP1 PUSH2 0xCB SWAP2 SWAP1 PUSH2 0x4B3 JUMP JUMPDEST PUSH2 0x38E JUMP JUMPDEST PUSH1 0x40 MLOAD PUSH2 0xDD SWAP2 SWAP1 PUSH2 0x5DF JUMP JUMPDEST PUSH1 0x40 MLOAD DUP1 SWAP2 SUB SWAP1 RETURN JUMPDEST PUSH1 0x40 MLOAD PUSH1 0x20 ADD PUSH2 0xF5 SWAP1 PUSH2 0x64C JUMP JUMPDEST PUSH1 0x40 MLOAD PUSH1 0x20 DUP2 DUP4 SUB SUB DUP2 MSTORE SWAP1 PUSH1 0x40 MSTORE DUP1 MLOAD SWAP1 PUSH1 0x20 ADD KECCAK256 PUSH0 DUP1 DUP3 DUP2 MSTORE PUSH1 0x20 ADD SWAP1 DUP2 MSTORE PUSH1 0x20 ADD PUSH0 KECCAK256 PUSH0 CALLER PUSH20 0xFFFFFFFFFFFFFFFFFFFFFFFFFFFFFFFFFFFFFFFF AND PUSH20 0xFFFFFFFFFFFFFFFFFFFFFFFFFFFFFFFFFFFFFFFF AND DUP2 MSTORE PUSH1 0x20 ADD SWAP1 DUP2 MSTORE PUSH1 0x20 ADD PUSH0 KECCAK256 PUSH0 SWAP1 SLOAD SWAP1 PUSH2 0x100 EXP SWAP1 DIV PUSH1 0xFF AND PUSH2 0x1A2 JUMPI PUSH1 0x40 MLOAD PUSH32 0x8C379A000000000000000000000000000000000000000000000000000000000 DUP2 MSTORE PUSH1 0x4 ADD PUSH2 0x199 SWAP1 PUSH2 0x6BA JUMP JUMPDEST PUSH1 0x40 MLOAD DUP1 SWAP2 SUB SWAP1 REVERT JUMPDEST PUSH2 0x1AC DUP4 DUP4 PUSH2 0x3B7 JUMP JUMPDEST DUP2 PUSH20 0xFFFFFFFFFFFFFFFFFFFFFFFFFFFFFFFFFFFFFFFF AND DUP4 PUSH32 0x1E2DB4124BA16A55C59AB76DD9ADDC28B22F9AAADD1A46643C8EC1347976B9DA PUSH1 0x40 MLOAD PUSH1 0x40 MLOAD DUP1 SWAP2 SUB SWAP1 LOG3 POP POP POP JUMP JUMPDEST PUSH0 DUP3 DUP3 PUSH1 0x40 MLOAD PUSH1 0x20 ADD PUSH2 0x209 SWAP3 SWAP2 SWAP1 PUSH2 0x70A JUMP JUMPDEST PUSH1 0x40 MLOAD PUSH1 0x20 DUP2 DUP4 SUB SUB DUP2 MSTORE SWAP1 PUSH1 0x40 MSTORE DUP1 MLOAD SWAP1 PUSH1 0x20 ADD KECCAK256 SWAP1 POP SWAP3 SWAP2 POP POP JUMP JUMPDEST PUSH1 0x40 MLOAD PUSH1 0x20 ADD PUSH2 0x236 SWAP1 PUSH2 0x64C JUMP JUMPDEST PUSH1 0x40 MLOAD PUSH1 0x20 DUP2 DUP4 SUB SUB DUP2 MSTORE SWAP1 PUSH1 0x40 MSTORE DUP1 MLOAD SWAP1 PUSH1 0x20 ADD KECCAK256 PUSH0 DUP1 DUP3 DUP2 MSTORE PUSH1 0x20 ADD SWAP1 DUP2 MSTORE PUSH1 0x20 ADD PUSH0 KECCAK256 PUSH0 CALLER PUSH20 0xFFFFFFFFFFFFFFFFFFFFFFFFFFFFFFFFFFFFFFFF AND PUSH20 0xFFFFFFFFFFFFFFFFFFFFFFFFFFFFFFFFFFFFFFFF AND DUP2 MSTORE PUSH1 0x20 ADD SWAP1 DUP2 MSTORE PUSH1 0x20 ADD PUSH0 KECCAK256 PUSH0 SWAP1 SLOAD SWAP1 PUSH2 0x100 EXP SWAP1 DIV PUSH1 0xFF AND PUSH2 0x2E3 JUMPI PUSH1 0x40 MLOAD PUSH32 0x8C379A000000000000000000000000000000000000000000000000000000000 DUP2 MSTORE PUSH1 0x4 ADD PUSH2 0x2DA SWAP1 PUSH2 0x6BA JUMP JUMPDEST PUSH1 0x40 MLOAD DUP1 SWAP2 SUB SWAP1 REVERT JUMPDEST PUSH0 DUP1 PUSH0 DUP6 DUP2 MSTORE PUSH1 0x20 ADD SWAP1 DUP2 MSTORE PUSH1 0x20 ADD PUSH0 KECCAK256 PUSH0 DUP5 PUSH20 0xFFFFFFFFFFFFFFFFFFFFFFFFFFFFFFFFFFFFFFFF AND PUSH20 0xFFFFFFFFFFFFFFFFFFFFFFFFFFFFFFFFFFFFFFFF AND DUP2 MSTORE PUSH1 0x20 ADD SWAP1 DUP2 MSTORE PUSH1 0x20 ADD PUSH0 KECCAK256 PUSH0 PUSH2 0x100 EXP DUP2 SLOAD DUP2 PUSH1 0xFF MUL NOT AND SWAP1 DUP4 ISZERO ISZERO MUL OR SWAP1 SSTORE POP DUP2 PUSH20 0xFFFFFFFFFFFFFFFFFFFFFFFFFFFFFFFFFFFFFFFF AND DUP4 PUSH32 0xD77F88CED5D994F2443337AD5718FDA611288A1FCE93DB6252A251335EA4BD1C PUSH1 0x40 MLOAD PUSH1 0x40 MLOAD DUP1 SWAP2 SUB SWAP1 LOG3 POP POP POP JUMP JUMPDEST PUSH0 PUSH1 0x20 MSTORE DUP2 PUSH0 MSTORE PUSH1 0x40 PUSH0 KECCAK256 PUSH1 0x20 MSTORE DUP1 PUSH0 MSTORE PUSH1 0x40 PUSH0 KECCAK256 PUSH0 SWAP2 POP SWAP2 POP SWAP1 SLOAD SWAP1 PUSH2 0x100 EXP SWAP1 DIV PUSH1 0xFF AND DUP2 JUMP JUMPDEST PUSH1 0x1 PUSH0 DUP1 DUP5 DUP2 MSTORE PUSH1 0x20 ADD SWAP1 DUP2 MSTORE PUSH1 0x20 ADD PUSH0 KECCAK256 PUSH0 DUP4 PUSH20 0xFFFFFFFFFFFFFFFFFFFFFFFFFFFFFFFFFFFFFFFF AND PUSH20 0xFFFFFFFFFFFFFFFFFFFFFFFFFFFFFFFFFFFFFFFF AND DUP2 MSTORE PUSH1 0x20 ADD SWAP1 DUP2 MSTORE PUSH1 0x20 ADD PUSH0 KECCAK256 PUSH0 PUSH2 0x100 EXP DUP2 SLOAD DUP2 PUSH1 0xFF MUL NOT AND SWAP1 DUP4 ISZERO ISZERO MUL OR SWAP1 SSTORE POP POP POP JUMP JUMPDEST PUSH0 DUP1 REVERT JUMPDEST PUSH0 DUP1 REVERT JUMPDEST PUSH0 DUP2 SWAP1 POP SWAP2 SWAP1 POP JUMP JUMPDEST PUSH2 0x438 DUP2 PUSH2 0x426 JUMP JUMPDEST DUP2 EQ PUSH2 0x442 JUMPI PUSH0 DUP1 REVERT JUMPDEST POP JUMP JUMPDEST PUSH0 DUP2 CALLDATALOAD SWAP1 POP PUSH2 0x453 DUP2 PUSH2 0x42F JUMP JUMPDEST SWAP3 SWAP2 POP POP JUMP JUMPDEST PUSH0 PUSH20 0xFFFFFFFFFFFFFFFFFFFFFFFFFFFFFFFFFFFFFFFF DUP3 AND SWAP1 POP SWAP2 SWAP1 POP JUMP JUMPDEST PUSH0 PUSH2 0x482 DUP3 PUSH2 0x459 JUMP JUMPDEST SWAP1 POP SWAP2 SWAP1 POP JUMP JUMPDEST PUSH2 0x492 DUP2 PUSH2 0x478 JUMP JUMPDEST DUP2 EQ PUSH2 0x49C JUMPI PUSH0 DUP1 REVERT JUMPDEST POP JUMP JUMPDEST PUSH0 DUP2 CALLDATALOAD SWAP1 POP PUSH2 0x4AD DUP2 PUSH2 0x489 JUMP JUMPDEST SWAP3 SWAP2 POP POP JUMP JUMPDEST PUSH0 DUP1 PUSH1 0x40 DUP4 DUP6 SUB SLT ISZERO PUSH2 0x4C9 JUMPI PUSH2 0x4C8 PUSH2 0x41E JUMP JUMPDEST JUMPDEST PUSH0 PUSH2 0x4D6 DUP6 DUP3 DUP7 ADD PUSH2 0x445 JUMP JUMPDEST SWAP3 POP POP PUSH1 0x20 PUSH2 0x4E7 DUP6 DUP3 DUP7 ADD PUSH2 0x49F JUMP JUMPDEST SWAP2 POP POP SWAP3 POP SWAP3 SWAP1 POP JUMP JUMPDEST PUSH0 DUP1 REVERT JUMPDEST PUSH0 DUP1 REVERT JUMPDEST PUSH0 DUP1 REVERT JUMPDEST PUSH0 DUP1 DUP4 PUSH1 0x1F DUP5 ADD SLT PUSH2 0x512 JUMPI PUSH2 0x511 PUSH2 0x4F1 JUMP JUMPDEST JUMPDEST DUP3 CALLDATALOAD SWAP1 POP PUSH8 0xFFFFFFFFFFFFFFFF DUP2 GT ISZERO PUSH2 0x52F JUMPI PUSH2 0x52E PUSH2 0x4F5 JUMP JUMPDEST JUMPDEST PUSH1 0x20 DUP4 ADD SWAP2 POP DUP4 PUSH1 0x1 DUP3 MUL DUP4 ADD GT ISZERO PUSH2 0x54B JUMPI PUSH2 0x54A PUSH2 0x4F9 JUMP JUMPDEST JUMPDEST SWAP3 POP SWAP3 SWAP1 POP JUMP JUMPDEST PUSH0 DUP1 PUSH1 0x20 DUP4 DUP6 SUB SLT ISZERO PUSH2 0x568 JUMPI PUSH2 0x567 PUSH2 0x41E JUMP JUMPDEST JUMPDEST PUSH0 DUP4 ADD CALLDATALOAD PUSH8 0xFFFFFFFFFFFFFFFF DUP2 GT ISZERO PUSH2 0x585 JUMPI PUSH2 0x584 PUSH2 0x422 JUMP JUMPDEST JUMPDEST PUSH2 0x591 DUP6 DUP3 DUP7 ADD PUSH2 0x4FD JUMP JUMPDEST SWAP3 POP SWAP3 POP POP SWAP3 POP SWAP3 SWAP1 POP JUMP JUMPDEST PUSH2 0x5A6 DUP2 PUSH2 0x426 JUMP JUMPDEST DUP3 MSTORE POP POP JUMP JUMPDEST PUSH0 PUSH1 0x20 DUP3 ADD SWAP1 POP PUSH2 0x5BF PUSH0 DUP4 ADD DUP5 PUSH2 0x59D JUMP JUMPDEST SWAP3 SWAP2 POP POP JUMP JUMPDEST PUSH0 DUP2 ISZERO ISZERO SWAP1 POP SWAP2 SWAP1 POP JUMP JUMPDEST PUSH2 0x5D9 DUP2 PUSH2 0x5C5 JUMP JUMPDEST DUP3 MSTORE POP POP JUMP JUMPDEST PUSH0 PUSH1 0x20 DUP3 ADD SWAP1 POP PUSH2 0x5F2 PUSH0 DUP4 ADD DUP5 PUSH2 0x5D0 JUMP JUMPDEST SWAP3 SWAP2 POP POP JUMP JUMPDEST PUSH0 DUP2 SWAP1 POP SWAP3 SWAP2 POP POP JUMP JUMPDEST PUSH32 0x41444D494E000000000000000000000000000000000000000000000000000000 PUSH0 DUP3 ADD MSTORE POP JUMP JUMPDEST PUSH0 PUSH2 0x636 PUSH1 0x5 DUP4 PUSH2 0x5F8 JUMP JUMPDEST SWAP2 POP PUSH2 0x641 DUP3 PUSH2 0x602 JUMP JUMPDEST PUSH1 0x5 DUP3 ADD SWAP1 POP SWAP2 SWAP1 POP JUMP JUMPDEST PUSH0 PUSH2 0x656 DUP3 PUSH2 0x62A JUMP JUMPDEST SWAP2 POP DUP2 SWAP1 POP SWAP2 SWAP1 POP JUMP JUMPDEST PUSH0 DUP3 DUP3 MSTORE PUSH1 0x20 DUP3 ADD SWAP1 POP SWAP3 SWAP2 POP POP JUMP JUMPDEST PUSH32 0x6E6F74206175746872697A656400000000000000000000000000000000000000 PUSH0 DUP3 ADD MSTORE POP JUMP JUMPDEST PUSH0 PUSH2 0x6A4 PUSH1 0xD DUP4 PUSH2 0x660 JUMP JUMPDEST SWAP2 POP PUSH2 0x6AF DUP3 PUSH2 0x670 JUMP JUMPDEST PUSH1 0x20 DUP3 ADD SWAP1 POP SWAP2 SWAP1 POP JUMP JUMPDEST PUSH0 PUSH1 0x20 DUP3 ADD SWAP1 POP DUP2 DUP2 SUB PUSH0 DUP4 ADD MSTORE PUSH2 0x6D1 DUP2 PUSH2 0x698 JUMP JUMPDEST SWAP1 POP SWAP2 SWAP1 POP JUMP JUMPDEST DUP3 DUP2 DUP4 CALLDATACOPY PUSH0 DUP4 DUP4 ADD MSTORE POP POP POP JUMP JUMPDEST PUSH0 PUSH2 0x6F1 DUP4 DUP6 PUSH2 0x5F8 JUMP JUMPDEST SWAP4 POP PUSH2 0x6FE DUP4 DUP6 DUP5 PUSH2 0x6D8 JUMP JUMPDEST DUP3 DUP5 ADD SWAP1 POP SWAP4 SWAP3 POP POP POP JUMP JUMPDEST PUSH0 PUSH2 0x716 DUP3 DUP5 DUP7 PUSH2 0x6E6 JUMP JUMPDEST SWAP2 POP DUP2 SWAP1 POP SWAP4 SWAP3 POP POP POP JUMP INVALID LOG2 PUSH5 0x6970667358 0x22 SLT KECCAK256 STATICCALL 0xB9 DUP13 0xE8 PUSH6 0x60F9A07E1ECF SWAP4 0xB9 0x1E 0xE6 0xB6 PUSH9 0x9A723B9B7DD313ECF0 0xE0 0xBF CALLDATACOPY INVALID 0xE7 MULMOD PUSH5 0x736F6C6343 STOP ADDMOD BYTE STOP CALLER "
				},
				"gasEstimates": {
					"creation": {
						"codeDepositCost": "376000",
						"executionCost": "infinite",
						"totalCost": "infinite"
					},
					"external": {
						"getHash(string)": "infinite",
						"grantRole(bytes32,address)": "29225",
						"revokeRole(bytes32,address)": "29234",
						"roles(bytes32,address)": "3114"
					},
					"internal": {
						"_grantRole(bytes32,address)": "24449"
					}
				},
				"methodIdentifiers": {
					"getHash(string)": "5b6beeb9",
					"grantRole(bytes32,address)": "2f2ff15d",
					"revokeRole(bytes32,address)": "d547741f",
					"roles(bytes32,address)": "f8fc08b9"
				}
			},
			"storageLayout": {
				"storage": [
					{
						"astId": 19,
						"contract": "04/AccessControl.sol:AccessControl",
						"label": "roles",
						"offset": 0,
						"slot": "0",
						"type": "t_mapping(t_bytes32,t_mapping(t_address,t_bool))"
					}
				],
				"types": {
					"t_address": {
						"encoding": "inplace",
						"label": "address",
						"numberOfBytes": "20"
					},
					"t_bool": {
						"encoding": "inplace",
						"label": "bool",
						"numberOfBytes": "1"
					},
					"t_bytes32": {
						"encoding": "inplace",
						"label": "bytes32",
						"numberOfBytes": "32"
					},
					"t_mapping(t_address,t_bool)": {
						"encoding": "mapping",
						"key": "t_address",
						"label": "mapping(address => bool)",
						"numberOfBytes": "32",
						"value": "t_bool"
					},
					"t_mapping(t_bytes32,t_mapping(t_address,t_bool))": {
						"encoding": "mapping",
						"key": "t_bytes32",
						"label": "mapping(bytes32 => mapping(address => bool))",
						"numberOfBytes": "32",
						"value": "t_mapping(t_address,t_bool)"
					}
				}
			},
			"userdoc": {
				"kind": "user",
				"methods": {},
				"version": 1
			}
		}
	}
}