{
	"04/VerifySign.sol": {
		"VerifySign": {
			"abi": [
				{
					"inputs": [
						{
							"internalType": "bytes32",
							"name": "_msgHash",
							"type": "bytes32"
						}
					],
					"name": "getEthSignedMessageHash",
					"outputs": [
						{
							"internalType": "bytes32",
							"name": "",
							"type": "bytes32"
						}
					],
					"stateMutability": "pure",
					"type": "function"
				},
				{
					"inputs": [
						{
							"internalType": "string",
							"name": "_msg",
							"type": "string"
						}
					],
					"name": "getMessageHash",
					"outputs": [
						{
							"internalType": "bytes32",
							"name": "",
							"type": "bytes32"
						}
					],
					"stateMutability": "pure",
					"type": "function"
				},
				{
					"inputs": [
						{
							"internalType": "bytes32",
							"name": "_enSignMsgHash",
							"type": "bytes32"
						},
						{
							"internalType": "bytes",
							"name": "_sig",
							"type": "bytes"
						}
					],
					"name": "recover",
					"outputs": [
						{
							"internalType": "address",
							"name": "",
							"type": "address"
						}
					],
					"stateMutability": "pure",
					"type": "function"
				},
				{
					"inputs": [
						{
							"internalType": "address",
							"name": "_signer",
							"type": "address"
						},
						{
							"internalType": "string",
							"name": "_message",
							"type": "string"
						},
						{
							"internalType": "bytes",
							"name": "_sig",
							"type": "bytes"
						}
					],
					"name": "verify",
					"outputs": [
						{
							"internalType": "bool",
							"name": "",
							"type": "bool"
						}
					],
					"stateMutability": "pure",
					"type": "function"
				}
			],
			"devdoc": {
				"kind": "dev",
				"methods": {},
				"version": 1
			},
			"evm": {
				"assembly": "    /* \"04/VerifySign.sol\":576:2340  contract VerifySign {... */\n  mstore(0x40, 0x80)\n  callvalue\n  dup1\n  iszero\n  tag_1\n  jumpi\n  0x00\n  dup1\n  revert\ntag_1:\n  pop\n  dataSize(sub_0)\n  dup1\n  dataOffset(sub_0)\n  0x00\n  codecopy\n  0x00\n  return\nstop\n\nsub_0: assembly {\n        /* \"04/VerifySign.sol\":576:2340  contract VerifySign {... */\n      mstore(0x40, 0x80)\n      callvalue\n      dup1\n      iszero\n      tag_1\n      jumpi\n      0x00\n      dup1\n      revert\n    tag_1:\n      pop\n      jumpi(tag_2, lt(calldatasize, 0x04))\n      shr(0xe0, calldataload(0x00))\n      dup1\n      0x19045a25\n      eq\n      tag_3\n      jumpi\n      dup1\n      0x2dd34f0f\n      eq\n      tag_4\n      jumpi\n      dup1\n      0xb446f3b2\n      eq\n      tag_5\n      jumpi\n      dup1\n      0xfa540801\n      eq\n      tag_6\n      jumpi\n    tag_2:\n      0x00\n      dup1\n      revert\n        /* \"04/VerifySign.sol\":1582:1923  function recover(bytes32 _enSignMsgHash, bytes memory _sig)... */\n    tag_3:\n      tag_7\n      0x04\n      dup1\n      calldatasize\n      sub\n      dup2\n      add\n      swap1\n      tag_8\n      swap2\n      swap1\n      tag_9\n      jump\t// in\n    tag_8:\n      tag_10\n      jump\t// in\n    tag_7:\n      mload(0x40)\n      tag_11\n      swap2\n      swap1\n      tag_12\n      jump\t// in\n    tag_11:\n      mload(0x40)\n      dup1\n      swap2\n      sub\n      swap1\n      return\n        /* \"04/VerifySign.sol\":602:952  function verify(... */\n    tag_4:\n      tag_13\n      0x04\n      dup1\n      calldatasize\n      sub\n      dup2\n      add\n      swap1\n      tag_14\n      swap2\n      swap1\n      tag_15\n      jump\t// in\n    tag_14:\n      tag_16\n      jump\t// in\n    tag_13:\n      mload(0x40)\n      tag_17\n      swap2\n      swap1\n      tag_18\n      jump\t// in\n    tag_17:\n      mload(0x40)\n      dup1\n      swap2\n      sub\n      swap1\n      return\n        /* \"04/VerifySign.sol\":958:1089  function getMessageHash(string memory _msg) public pure returns (bytes32) {... */\n    tag_5:\n      tag_19\n      0x04\n      dup1\n      calldatasize\n      sub\n      dup2\n      add\n      swap1\n      tag_20\n      swap2\n      swap1\n      tag_21\n      jump\t// in\n    tag_20:\n      tag_22\n      jump\t// in\n    tag_19:\n      mload(0x40)\n      tag_23\n      swap2\n      swap1\n      tag_24\n      jump\t// in\n    tag_23:\n      mload(0x40)\n      dup1\n      swap2\n      sub\n      swap1\n      return\n        /* \"04/VerifySign.sol\":1328:1576  function getEthSignedMessageHash(bytes32 _msgHash)... */\n    tag_6:\n      tag_25\n      0x04\n      dup1\n      calldatasize\n      sub\n      dup2\n      add\n      swap1\n      tag_26\n      swap2\n      swap1\n      tag_27\n      jump\t// in\n    tag_26:\n      tag_28\n      jump\t// in\n    tag_25:\n      mload(0x40)\n      tag_29\n      swap2\n      swap1\n      tag_24\n      jump\t// in\n    tag_29:\n      mload(0x40)\n      dup1\n      swap2\n      sub\n      swap1\n      return\n        /* \"04/VerifySign.sol\":1582:1923  function recover(bytes32 _enSignMsgHash, bytes memory _sig)... */\n    tag_10:\n        /* \"04/VerifySign.sol\":1687:1694  address */\n      0x00\n        /* \"04/VerifySign.sol\":1711:1720  bytes32 r */\n      dup1\n        /* \"04/VerifySign.sol\":1722:1731  bytes32 s */\n      0x00\n        /* \"04/VerifySign.sol\":1733:1740  uint8 v */\n      dup1\n        /* \"04/VerifySign.sol\":1744:1764  splitSignature(_sig) */\n      tag_31\n        /* \"04/VerifySign.sol\":1759:1763  _sig */\n      dup6\n        /* \"04/VerifySign.sol\":1744:1758  splitSignature */\n      tag_32\n        /* \"04/VerifySign.sol\":1744:1764  splitSignature(_sig) */\n      jump\t// in\n    tag_31:\n        /* \"04/VerifySign.sol\":1710:1764  (bytes32 r, bytes32 s, uint8 v) = splitSignature(_sig) */\n      swap3\n      pop\n      swap3\n      pop\n      swap3\n      pop\n        /* \"04/VerifySign.sol\":1774:1788  address signer */\n      0x00\n        /* \"04/VerifySign.sol\":1791:1825  ecrecover(_enSignMsgHash, v, r, s) */\n      0x01\n        /* \"04/VerifySign.sol\":1801:1815  _enSignMsgHash */\n      dup8\n        /* \"04/VerifySign.sol\":1817:1818  v */\n      dup4\n        /* \"04/VerifySign.sol\":1820:1821  r */\n      dup7\n        /* \"04/VerifySign.sol\":1823:1824  s */\n      dup7\n        /* \"04/VerifySign.sol\":1791:1825  ecrecover(_enSignMsgHash, v, r, s) */\n      mload(0x40)\n      0x00\n      dup2\n      mstore\n      0x20\n      add\n      0x40\n      mstore\n      mload(0x40)\n      tag_33\n      swap5\n      swap4\n      swap3\n      swap2\n      swap1\n      tag_34\n      jump\t// in\n    tag_33:\n      0x20\n      mload(0x40)\n      0x20\n      dup2\n      sub\n      swap1\n      dup1\n      dup5\n      sub\n      swap1\n      dup6\n      gas\n      staticcall\n      iszero\n      dup1\n      iszero\n      tag_36\n      jumpi\n      returndatasize\n      0x00\n      dup1\n      returndatacopy\n      revert(0x00, returndatasize)\n    tag_36:\n      pop\n      pop\n      pop\n      mload(sub(mload(0x40), 0x20))\n        /* \"04/VerifySign.sol\":1774:1825  address signer = ecrecover(_enSignMsgHash, v, r, s) */\n      swap1\n      pop\n        /* \"04/VerifySign.sol\":1861:1862  0 */\n      0x00\n        /* \"04/VerifySign.sol\":1843:1863  signer != address(0) */\n      0xffffffffffffffffffffffffffffffffffffffff\n      and\n        /* \"04/VerifySign.sol\":1843:1849  signer */\n      dup2\n        /* \"04/VerifySign.sol\":1843:1863  signer != address(0) */\n      0xffffffffffffffffffffffffffffffffffffffff\n      and\n      sub\n        /* \"04/VerifySign.sol\":1835:1892  require(signer != address(0), \"ECDSA: invalid signature\") */\n      tag_37\n      jumpi\n      mload(0x40)\n      0x08c379a000000000000000000000000000000000000000000000000000000000\n      dup2\n      mstore\n      0x04\n      add\n      tag_38\n      swap1\n      tag_39\n      jump\t// in\n    tag_38:\n      mload(0x40)\n      dup1\n      swap2\n      sub\n      swap1\n      revert\n    tag_37:\n        /* \"04/VerifySign.sol\":1910:1916  signer */\n      dup1\n        /* \"04/VerifySign.sol\":1903:1916  return signer */\n      swap5\n      pop\n      pop\n      pop\n      pop\n      pop\n        /* \"04/VerifySign.sol\":1582:1923  function recover(bytes32 _enSignMsgHash, bytes memory _sig)... */\n      swap3\n      swap2\n      pop\n      pop\n      jump\t// out\n        /* \"04/VerifySign.sol\":602:952  function verify(... */\n    tag_16:\n        /* \"04/VerifySign.sol\":731:735  bool */\n      0x00\n        /* \"04/VerifySign.sol\":747:762  bytes32 msgHash */\n      dup1\n        /* \"04/VerifySign.sol\":765:789  getMessageHash(_message) */\n      tag_41\n        /* \"04/VerifySign.sol\":780:788  _message */\n      dup5\n        /* \"04/VerifySign.sol\":765:779  getMessageHash */\n      tag_22\n        /* \"04/VerifySign.sol\":765:789  getMessageHash(_message) */\n      jump\t// in\n    tag_41:\n        /* \"04/VerifySign.sol\":747:789  bytes32 msgHash = getMessageHash(_message) */\n      swap1\n      pop\n        /* \"04/VerifySign.sol\":799:819  bytes32 ethSignedMsg */\n      0x00\n        /* \"04/VerifySign.sol\":822:854  getEthSignedMessageHash(msgHash) */\n      tag_42\n        /* \"04/VerifySign.sol\":846:853  msgHash */\n      dup3\n        /* \"04/VerifySign.sol\":822:845  getEthSignedMessageHash */\n      tag_28\n        /* \"04/VerifySign.sol\":822:854  getEthSignedMessageHash(msgHash) */\n      jump\t// in\n    tag_42:\n        /* \"04/VerifySign.sol\":799:854  bytes32 ethSignedMsg = getEthSignedMessageHash(msgHash) */\n      swap1\n      pop\n        /* \"04/VerifySign.sol\":864:878  address signer */\n      0x00\n        /* \"04/VerifySign.sol\":881:908  recover(ethSignedMsg, _sig) */\n      tag_43\n        /* \"04/VerifySign.sol\":889:901  ethSignedMsg */\n      dup3\n        /* \"04/VerifySign.sol\":903:907  _sig */\n      dup7\n        /* \"04/VerifySign.sol\":881:888  recover */\n      tag_10\n        /* \"04/VerifySign.sol\":881:908  recover(ethSignedMsg, _sig) */\n      jump\t// in\n    tag_43:\n        /* \"04/VerifySign.sol\":864:908  address signer = recover(ethSignedMsg, _sig) */\n      swap1\n      pop\n        /* \"04/VerifySign.sol\":937:944  _signer */\n      dup7\n        /* \"04/VerifySign.sol\":927:944  signer == _signer */\n      0xffffffffffffffffffffffffffffffffffffffff\n      and\n        /* \"04/VerifySign.sol\":927:933  signer */\n      dup2\n        /* \"04/VerifySign.sol\":927:944  signer == _signer */\n      0xffffffffffffffffffffffffffffffffffffffff\n      and\n      eq\n        /* \"04/VerifySign.sol\":919:945  return (signer == _signer) */\n      swap4\n      pop\n      pop\n      pop\n      pop\n        /* \"04/VerifySign.sol\":602:952  function verify(... */\n      swap4\n      swap3\n      pop\n      pop\n      pop\n      jump\t// out\n        /* \"04/VerifySign.sol\":958:1089  function getMessageHash(string memory _msg) public pure returns (bytes32) {... */\n    tag_22:\n        /* \"04/VerifySign.sol\":1023:1030  bytes32 */\n      0x00\n        /* \"04/VerifySign.sol\":1076:1080  _msg */\n      dup2\n        /* \"04/VerifySign.sol\":1059:1081  abi.encodePacked(_msg) */\n      add(0x20, mload(0x40))\n      tag_45\n      swap2\n      swap1\n      tag_46\n      jump\t// in\n    tag_45:\n      mload(0x40)\n      0x20\n      dup2\n      dup4\n      sub\n      sub\n      dup2\n      mstore\n      swap1\n      0x40\n      mstore\n        /* \"04/VerifySign.sol\":1049:1082  keccak256(abi.encodePacked(_msg)) */\n      dup1\n      mload\n      swap1\n      0x20\n      add\n      keccak256\n        /* \"04/VerifySign.sol\":1042:1082  return keccak256(abi.encodePacked(_msg)) */\n      swap1\n      pop\n        /* \"04/VerifySign.sol\":958:1089  function getMessageHash(string memory _msg) public pure returns (bytes32) {... */\n      swap2\n      swap1\n      pop\n      jump\t// out\n        /* \"04/VerifySign.sol\":1328:1576  function getEthSignedMessageHash(bytes32 _msgHash)... */\n    tag_28:\n        /* \"04/VerifySign.sol\":1424:1431  bytes32 */\n      0x00\n        /* \"04/VerifySign.sol\":1546:1554  _msgHash */\n      dup2\n        /* \"04/VerifySign.sol\":1493:1555  abi.encodePacked(\"\\x19Ethereum Signed Message:\\n32\", _msgHash) */\n      add(0x20, mload(0x40))\n      tag_48\n      swap2\n      swap1\n      tag_49\n      jump\t// in\n    tag_48:\n      mload(0x40)\n      0x20\n      dup2\n      dup4\n      sub\n      sub\n      dup2\n      mstore\n      swap1\n      0x40\n      mstore\n        /* \"04/VerifySign.sol\":1466:1569  keccak256(... */\n      dup1\n      mload\n      swap1\n      0x20\n      add\n      keccak256\n        /* \"04/VerifySign.sol\":1447:1569  return... */\n      swap1\n      pop\n        /* \"04/VerifySign.sol\":1328:1576  function getEthSignedMessageHash(bytes32 _msgHash)... */\n      swap2\n      swap1\n      pop\n      jump\t// out\n        /* \"04/VerifySign.sol\":1929:2338  function splitSignature(bytes memory _sig)... */\n    tag_32:\n        /* \"04/VerifySign.sol\":2032:2041  bytes32 r */\n      0x00\n        /* \"04/VerifySign.sol\":2055:2064  bytes32 s */\n      dup1\n        /* \"04/VerifySign.sol\":2078:2085  uint8 v */\n      0x00\n        /* \"04/VerifySign.sol\":2133:2135  65 */\n      0x41\n        /* \"04/VerifySign.sol\":2118:2122  _sig */\n      dup5\n        /* \"04/VerifySign.sol\":2118:2129  _sig.length */\n      mload\n        /* \"04/VerifySign.sol\":2118:2135  _sig.length == 65 */\n      eq\n        /* \"04/VerifySign.sol\":2110:2164  require(_sig.length == 65, \"invalid signature length\") */\n      tag_51\n      jumpi\n      mload(0x40)\n      0x08c379a000000000000000000000000000000000000000000000000000000000\n      dup2\n      mstore\n      0x04\n      add\n      tag_52\n      swap1\n      tag_53\n      jump\t// in\n    tag_52:\n      mload(0x40)\n      dup1\n      swap2\n      sub\n      swap1\n      revert\n    tag_51:\n        /* \"04/VerifySign.sol\":2218:2220  32 */\n      0x20\n        /* \"04/VerifySign.sol\":2212:2216  _sig */\n      dup5\n        /* \"04/VerifySign.sol\":2208:2221  add(_sig, 32) */\n      add\n        /* \"04/VerifySign.sol\":2202:2222  mload(add(_sig, 32)) */\n      mload\n        /* \"04/VerifySign.sol\":2197:2222  r := mload(add(_sig, 32)) */\n      swap3\n      pop\n        /* \"04/VerifySign.sol\":2271:2273  64 */\n      0x40\n        /* \"04/VerifySign.sol\":2265:2269  _sig */\n      dup5\n        /* \"04/VerifySign.sol\":2261:2274  add(_sig, 64) */\n      add\n        /* \"04/VerifySign.sol\":2255:2275  mload(add(_sig, 64)) */\n      mload\n        /* \"04/VerifySign.sol\":2250:2275  s := mload(add(_sig, 64)) */\n      swap2\n      pop\n        /* \"04/VerifySign.sol\":2317:2319  96 */\n      0x60\n        /* \"04/VerifySign.sol\":2311:2315  _sig */\n      dup5\n        /* \"04/VerifySign.sol\":2307:2320  add(_sig, 96) */\n      add\n        /* \"04/VerifySign.sol\":2301:2321  mload(add(_sig, 96)) */\n      mload\n        /* \"04/VerifySign.sol\":2298:2299  0 */\n      0x00\n        /* \"04/VerifySign.sol\":2293:2322  byte(0, mload(add(_sig, 96))) */\n      byte\n        /* \"04/VerifySign.sol\":2288:2322  v := byte(0, mload(add(_sig, 96))) */\n      swap1\n      pop\n        /* \"04/VerifySign.sol\":1929:2338  function splitSignature(bytes memory _sig)... */\n      swap2\n      swap4\n      swap1\n      swap3\n      pop\n      jump\t// out\n        /* \"#utility.yul\":7:82   */\n    tag_54:\n        /* \"#utility.yul\":40:46   */\n      0x00\n        /* \"#utility.yul\":73:75   */\n      0x40\n        /* \"#utility.yul\":67:76   */\n      mload\n        /* \"#utility.yul\":57:76   */\n      swap1\n      pop\n        /* \"#utility.yul\":7:82   */\n      swap1\n      jump\t// out\n        /* \"#utility.yul\":88:205   */\n    tag_55:\n        /* \"#utility.yul\":197:198   */\n      0x00\n        /* \"#utility.yul\":194:195   */\n      dup1\n        /* \"#utility.yul\":187:199   */\n      revert\n        /* \"#utility.yul\":211:328   */\n    tag_56:\n        /* \"#utility.yul\":320:321   */\n      0x00\n        /* \"#utility.yul\":317:318   */\n      dup1\n        /* \"#utility.yul\":310:322   */\n      revert\n        /* \"#utility.yul\":334:411   */\n    tag_57:\n        /* \"#utility.yul\":371:378   */\n      0x00\n        /* \"#utility.yul\":400:405   */\n      dup2\n        /* \"#utility.yul\":389:405   */\n      swap1\n      pop\n        /* \"#utility.yul\":334:411   */\n      swap2\n      swap1\n      pop\n      jump\t// out\n        /* \"#utility.yul\":417:539   */\n    tag_58:\n        /* \"#utility.yul\":490:514   */\n      tag_102\n        /* \"#utility.yul\":508:513   */\n      dup2\n        /* \"#utility.yul\":490:514   */\n      tag_57\n      jump\t// in\n    tag_102:\n        /* \"#utility.yul\":483:488   */\n      dup2\n        /* \"#utility.yul\":480:515   */\n      eq\n        /* \"#utility.yul\":470:533   */\n      tag_103\n      jumpi\n        /* \"#utility.yul\":529:530   */\n      0x00\n        /* \"#utility.yul\":526:527   */\n      dup1\n        /* \"#utility.yul\":519:531   */\n      revert\n        /* \"#utility.yul\":470:533   */\n    tag_103:\n        /* \"#utility.yul\":417:539   */\n      pop\n      jump\t// out\n        /* \"#utility.yul\":545:684   */\n    tag_59:\n        /* \"#utility.yul\":591:596   */\n      0x00\n        /* \"#utility.yul\":629:635   */\n      dup2\n        /* \"#utility.yul\":616:636   */\n      calldataload\n        /* \"#utility.yul\":607:636   */\n      swap1\n      pop\n        /* \"#utility.yul\":645:678   */\n      tag_105\n        /* \"#utility.yul\":672:677   */\n      dup2\n        /* \"#utility.yul\":645:678   */\n      tag_58\n      jump\t// in\n    tag_105:\n        /* \"#utility.yul\":545:684   */\n      swap3\n      swap2\n      pop\n      pop\n      jump\t// out\n        /* \"#utility.yul\":690:807   */\n    tag_60:\n        /* \"#utility.yul\":799:800   */\n      0x00\n        /* \"#utility.yul\":796:797   */\n      dup1\n        /* \"#utility.yul\":789:801   */\n      revert\n        /* \"#utility.yul\":813:930   */\n    tag_61:\n        /* \"#utility.yul\":922:923   */\n      0x00\n        /* \"#utility.yul\":919:920   */\n      dup1\n        /* \"#utility.yul\":912:924   */\n      revert\n        /* \"#utility.yul\":936:1038   */\n    tag_62:\n        /* \"#utility.yul\":977:983   */\n      0x00\n        /* \"#utility.yul\":1028:1030   */\n      0x1f\n        /* \"#utility.yul\":1024:1031   */\n      not\n        /* \"#utility.yul\":1019:1021   */\n      0x1f\n        /* \"#utility.yul\":1012:1017   */\n      dup4\n        /* \"#utility.yul\":1008:1022   */\n      add\n        /* \"#utility.yul\":1004:1032   */\n      and\n        /* \"#utility.yul\":994:1032   */\n      swap1\n      pop\n        /* \"#utility.yul\":936:1038   */\n      swap2\n      swap1\n      pop\n      jump\t// out\n        /* \"#utility.yul\":1044:1224   */\n    tag_63:\n        /* \"#utility.yul\":1092:1169   */\n      0x4e487b7100000000000000000000000000000000000000000000000000000000\n        /* \"#utility.yul\":1089:1090   */\n      0x00\n        /* \"#utility.yul\":1082:1170   */\n      mstore\n        /* \"#utility.yul\":1189:1193   */\n      0x41\n        /* \"#utility.yul\":1186:1187   */\n      0x04\n        /* \"#utility.yul\":1179:1194   */\n      mstore\n        /* \"#utility.yul\":1213:1217   */\n      0x24\n        /* \"#utility.yul\":1210:1211   */\n      0x00\n        /* \"#utility.yul\":1203:1218   */\n      revert\n        /* \"#utility.yul\":1230:1511   */\n    tag_64:\n        /* \"#utility.yul\":1313:1340   */\n      tag_111\n        /* \"#utility.yul\":1335:1339   */\n      dup3\n        /* \"#utility.yul\":1313:1340   */\n      tag_62\n      jump\t// in\n    tag_111:\n        /* \"#utility.yul\":1305:1311   */\n      dup2\n        /* \"#utility.yul\":1301:1341   */\n      add\n        /* \"#utility.yul\":1443:1449   */\n      dup2\n        /* \"#utility.yul\":1431:1441   */\n      dup2\n        /* \"#utility.yul\":1428:1450   */\n      lt\n        /* \"#utility.yul\":1407:1425   */\n      0xffffffffffffffff\n        /* \"#utility.yul\":1395:1405   */\n      dup3\n        /* \"#utility.yul\":1392:1426   */\n      gt\n        /* \"#utility.yul\":1389:1451   */\n      or\n        /* \"#utility.yul\":1386:1474   */\n      iszero\n      tag_112\n      jumpi\n        /* \"#utility.yul\":1454:1472   */\n      tag_113\n      tag_63\n      jump\t// in\n    tag_113:\n        /* \"#utility.yul\":1386:1474   */\n    tag_112:\n        /* \"#utility.yul\":1494:1504   */\n      dup1\n        /* \"#utility.yul\":1490:1492   */\n      0x40\n        /* \"#utility.yul\":1483:1505   */\n      mstore\n        /* \"#utility.yul\":1273:1511   */\n      pop\n        /* \"#utility.yul\":1230:1511   */\n      pop\n      pop\n      jump\t// out\n        /* \"#utility.yul\":1517:1646   */\n    tag_65:\n        /* \"#utility.yul\":1551:1557   */\n      0x00\n        /* \"#utility.yul\":1578:1598   */\n      tag_115\n      tag_54\n      jump\t// in\n    tag_115:\n        /* \"#utility.yul\":1568:1598   */\n      swap1\n      pop\n        /* \"#utility.yul\":1607:1640   */\n      tag_116\n        /* \"#utility.yul\":1635:1639   */\n      dup3\n        /* \"#utility.yul\":1627:1633   */\n      dup3\n        /* \"#utility.yul\":1607:1640   */\n      tag_64\n      jump\t// in\n    tag_116:\n        /* \"#utility.yul\":1517:1646   */\n      swap2\n      swap1\n      pop\n      jump\t// out\n        /* \"#utility.yul\":1652:1959   */\n    tag_66:\n        /* \"#utility.yul\":1713:1717   */\n      0x00\n        /* \"#utility.yul\":1803:1821   */\n      0xffffffffffffffff\n        /* \"#utility.yul\":1795:1801   */\n      dup3\n        /* \"#utility.yul\":1792:1822   */\n      gt\n        /* \"#utility.yul\":1789:1845   */\n      iszero\n      tag_118\n      jumpi\n        /* \"#utility.yul\":1825:1843   */\n      tag_119\n      tag_63\n      jump\t// in\n    tag_119:\n        /* \"#utility.yul\":1789:1845   */\n    tag_118:\n        /* \"#utility.yul\":1863:1892   */\n      tag_120\n        /* \"#utility.yul\":1885:1891   */\n      dup3\n        /* \"#utility.yul\":1863:1892   */\n      tag_62\n      jump\t// in\n    tag_120:\n        /* \"#utility.yul\":1855:1892   */\n      swap1\n      pop\n        /* \"#utility.yul\":1947:1951   */\n      0x20\n        /* \"#utility.yul\":1941:1945   */\n      dup2\n        /* \"#utility.yul\":1937:1952   */\n      add\n        /* \"#utility.yul\":1929:1952   */\n      swap1\n      pop\n        /* \"#utility.yul\":1652:1959   */\n      swap2\n      swap1\n      pop\n      jump\t// out\n        /* \"#utility.yul\":1965:2113   */\n    tag_67:\n        /* \"#utility.yul\":2063:2069   */\n      dup3\n        /* \"#utility.yul\":2058:2061   */\n      dup2\n        /* \"#utility.yul\":2053:2056   */\n      dup4\n        /* \"#utility.yul\":2040:2070   */\n      calldatacopy\n        /* \"#utility.yul\":2104:2105   */\n      0x00\n        /* \"#utility.yul\":2095:2101   */\n      dup4\n        /* \"#utility.yul\":2090:2093   */\n      dup4\n        /* \"#utility.yul\":2086:2102   */\n      add\n        /* \"#utility.yul\":2079:2106   */\n      mstore\n        /* \"#utility.yul\":1965:2113   */\n      pop\n      pop\n      pop\n      jump\t// out\n        /* \"#utility.yul\":2119:2542   */\n    tag_68:\n        /* \"#utility.yul\":2196:2201   */\n      0x00\n        /* \"#utility.yul\":2221:2286   */\n      tag_123\n        /* \"#utility.yul\":2237:2285   */\n      tag_124\n        /* \"#utility.yul\":2278:2284   */\n      dup5\n        /* \"#utility.yul\":2237:2285   */\n      tag_66\n      jump\t// in\n    tag_124:\n        /* \"#utility.yul\":2221:2286   */\n      tag_65\n      jump\t// in\n    tag_123:\n        /* \"#utility.yul\":2212:2286   */\n      swap1\n      pop\n        /* \"#utility.yul\":2309:2315   */\n      dup3\n        /* \"#utility.yul\":2302:2307   */\n      dup2\n        /* \"#utility.yul\":2295:2316   */\n      mstore\n        /* \"#utility.yul\":2347:2351   */\n      0x20\n        /* \"#utility.yul\":2340:2345   */\n      dup2\n        /* \"#utility.yul\":2336:2352   */\n      add\n        /* \"#utility.yul\":2385:2388   */\n      dup5\n        /* \"#utility.yul\":2376:2382   */\n      dup5\n        /* \"#utility.yul\":2371:2374   */\n      dup5\n        /* \"#utility.yul\":2367:2383   */\n      add\n        /* \"#utility.yul\":2364:2389   */\n      gt\n        /* \"#utility.yul\":2361:2473   */\n      iszero\n      tag_125\n      jumpi\n        /* \"#utility.yul\":2392:2471   */\n      tag_126\n      tag_61\n      jump\t// in\n    tag_126:\n        /* \"#utility.yul\":2361:2473   */\n    tag_125:\n        /* \"#utility.yul\":2482:2536   */\n      tag_127\n        /* \"#utility.yul\":2529:2535   */\n      dup5\n        /* \"#utility.yul\":2524:2527   */\n      dup3\n        /* \"#utility.yul\":2519:2522   */\n      dup6\n        /* \"#utility.yul\":2482:2536   */\n      tag_67\n      jump\t// in\n    tag_127:\n        /* \"#utility.yul\":2202:2542   */\n      pop\n        /* \"#utility.yul\":2119:2542   */\n      swap4\n      swap3\n      pop\n      pop\n      pop\n      jump\t// out\n        /* \"#utility.yul\":2561:2899   */\n    tag_69:\n        /* \"#utility.yul\":2616:2621   */\n      0x00\n        /* \"#utility.yul\":2665:2668   */\n      dup3\n        /* \"#utility.yul\":2658:2662   */\n      0x1f\n        /* \"#utility.yul\":2650:2656   */\n      dup4\n        /* \"#utility.yul\":2646:2663   */\n      add\n        /* \"#utility.yul\":2642:2669   */\n      slt\n        /* \"#utility.yul\":2632:2754   */\n      tag_129\n      jumpi\n        /* \"#utility.yul\":2673:2752   */\n      tag_130\n      tag_60\n      jump\t// in\n    tag_130:\n        /* \"#utility.yul\":2632:2754   */\n    tag_129:\n        /* \"#utility.yul\":2790:2796   */\n      dup2\n        /* \"#utility.yul\":2777:2797   */\n      calldataload\n        /* \"#utility.yul\":2815:2893   */\n      tag_131\n        /* \"#utility.yul\":2889:2892   */\n      dup5\n        /* \"#utility.yul\":2881:2887   */\n      dup3\n        /* \"#utility.yul\":2874:2878   */\n      0x20\n        /* \"#utility.yul\":2866:2872   */\n      dup7\n        /* \"#utility.yul\":2862:2879   */\n      add\n        /* \"#utility.yul\":2815:2893   */\n      tag_68\n      jump\t// in\n    tag_131:\n        /* \"#utility.yul\":2806:2893   */\n      swap2\n      pop\n        /* \"#utility.yul\":2622:2899   */\n      pop\n        /* \"#utility.yul\":2561:2899   */\n      swap3\n      swap2\n      pop\n      pop\n      jump\t// out\n        /* \"#utility.yul\":2905:3557   */\n    tag_9:\n        /* \"#utility.yul\":2982:2988   */\n      0x00\n        /* \"#utility.yul\":2990:2996   */\n      dup1\n        /* \"#utility.yul\":3039:3041   */\n      0x40\n        /* \"#utility.yul\":3027:3036   */\n      dup4\n        /* \"#utility.yul\":3018:3025   */\n      dup6\n        /* \"#utility.yul\":3014:3037   */\n      sub\n        /* \"#utility.yul\":3010:3042   */\n      slt\n        /* \"#utility.yul\":3007:3126   */\n      iszero\n      tag_133\n      jumpi\n        /* \"#utility.yul\":3045:3124   */\n      tag_134\n      tag_55\n      jump\t// in\n    tag_134:\n        /* \"#utility.yul\":3007:3126   */\n    tag_133:\n        /* \"#utility.yul\":3165:3166   */\n      0x00\n        /* \"#utility.yul\":3190:3243   */\n      tag_135\n        /* \"#utility.yul\":3235:3242   */\n      dup6\n        /* \"#utility.yul\":3226:3232   */\n      dup3\n        /* \"#utility.yul\":3215:3224   */\n      dup7\n        /* \"#utility.yul\":3211:3233   */\n      add\n        /* \"#utility.yul\":3190:3243   */\n      tag_59\n      jump\t// in\n    tag_135:\n        /* \"#utility.yul\":3180:3243   */\n      swap3\n      pop\n        /* \"#utility.yul\":3136:3253   */\n      pop\n        /* \"#utility.yul\":3320:3322   */\n      0x20\n        /* \"#utility.yul\":3309:3318   */\n      dup4\n        /* \"#utility.yul\":3305:3323   */\n      add\n        /* \"#utility.yul\":3292:3324   */\n      calldataload\n        /* \"#utility.yul\":3351:3369   */\n      0xffffffffffffffff\n        /* \"#utility.yul\":3343:3349   */\n      dup2\n        /* \"#utility.yul\":3340:3370   */\n      gt\n        /* \"#utility.yul\":3337:3454   */\n      iszero\n      tag_136\n      jumpi\n        /* \"#utility.yul\":3373:3452   */\n      tag_137\n      tag_56\n      jump\t// in\n    tag_137:\n        /* \"#utility.yul\":3337:3454   */\n    tag_136:\n        /* \"#utility.yul\":3478:3540   */\n      tag_138\n        /* \"#utility.yul\":3532:3539   */\n      dup6\n        /* \"#utility.yul\":3523:3529   */\n      dup3\n        /* \"#utility.yul\":3512:3521   */\n      dup7\n        /* \"#utility.yul\":3508:3530   */\n      add\n        /* \"#utility.yul\":3478:3540   */\n      tag_69\n      jump\t// in\n    tag_138:\n        /* \"#utility.yul\":3468:3540   */\n      swap2\n      pop\n        /* \"#utility.yul\":3263:3550   */\n      pop\n        /* \"#utility.yul\":2905:3557   */\n      swap3\n      pop\n      swap3\n      swap1\n      pop\n      jump\t// out\n        /* \"#utility.yul\":3563:3689   */\n    tag_70:\n        /* \"#utility.yul\":3600:3607   */\n      0x00\n        /* \"#utility.yul\":3640:3682   */\n      0xffffffffffffffffffffffffffffffffffffffff\n        /* \"#utility.yul\":3633:3638   */\n      dup3\n        /* \"#utility.yul\":3629:3683   */\n      and\n        /* \"#utility.yul\":3618:3683   */\n      swap1\n      pop\n        /* \"#utility.yul\":3563:3689   */\n      swap2\n      swap1\n      pop\n      jump\t// out\n        /* \"#utility.yul\":3695:3791   */\n    tag_71:\n        /* \"#utility.yul\":3732:3739   */\n      0x00\n        /* \"#utility.yul\":3761:3785   */\n      tag_141\n        /* \"#utility.yul\":3779:3784   */\n      dup3\n        /* \"#utility.yul\":3761:3785   */\n      tag_70\n      jump\t// in\n    tag_141:\n        /* \"#utility.yul\":3750:3785   */\n      swap1\n      pop\n        /* \"#utility.yul\":3695:3791   */\n      swap2\n      swap1\n      pop\n      jump\t// out\n        /* \"#utility.yul\":3797:3915   */\n    tag_72:\n        /* \"#utility.yul\":3884:3908   */\n      tag_143\n        /* \"#utility.yul\":3902:3907   */\n      dup2\n        /* \"#utility.yul\":3884:3908   */\n      tag_71\n      jump\t// in\n    tag_143:\n        /* \"#utility.yul\":3879:3882   */\n      dup3\n        /* \"#utility.yul\":3872:3909   */\n      mstore\n        /* \"#utility.yul\":3797:3915   */\n      pop\n      pop\n      jump\t// out\n        /* \"#utility.yul\":3921:4143   */\n    tag_12:\n        /* \"#utility.yul\":4014:4018   */\n      0x00\n        /* \"#utility.yul\":4052:4054   */\n      0x20\n        /* \"#utility.yul\":4041:4050   */\n      dup3\n        /* \"#utility.yul\":4037:4055   */\n      add\n        /* \"#utility.yul\":4029:4055   */\n      swap1\n      pop\n        /* \"#utility.yul\":4065:4136   */\n      tag_145\n        /* \"#utility.yul\":4133:4134   */\n      0x00\n        /* \"#utility.yul\":4122:4131   */\n      dup4\n        /* \"#utility.yul\":4118:4135   */\n      add\n        /* \"#utility.yul\":4109:4115   */\n      dup5\n        /* \"#utility.yul\":4065:4136   */\n      tag_72\n      jump\t// in\n    tag_145:\n        /* \"#utility.yul\":3921:4143   */\n      swap3\n      swap2\n      pop\n      pop\n      jump\t// out\n        /* \"#utility.yul\":4149:4271   */\n    tag_73:\n        /* \"#utility.yul\":4222:4246   */\n      tag_147\n        /* \"#utility.yul\":4240:4245   */\n      dup2\n        /* \"#utility.yul\":4222:4246   */\n      tag_71\n      jump\t// in\n    tag_147:\n        /* \"#utility.yul\":4215:4220   */\n      dup2\n        /* \"#utility.yul\":4212:4247   */\n      eq\n        /* \"#utility.yul\":4202:4265   */\n      tag_148\n      jumpi\n        /* \"#utility.yul\":4261:4262   */\n      0x00\n        /* \"#utility.yul\":4258:4259   */\n      dup1\n        /* \"#utility.yul\":4251:4263   */\n      revert\n        /* \"#utility.yul\":4202:4265   */\n    tag_148:\n        /* \"#utility.yul\":4149:4271   */\n      pop\n      jump\t// out\n        /* \"#utility.yul\":4277:4416   */\n    tag_74:\n        /* \"#utility.yul\":4323:4328   */\n      0x00\n        /* \"#utility.yul\":4361:4367   */\n      dup2\n        /* \"#utility.yul\":4348:4368   */\n      calldataload\n        /* \"#utility.yul\":4339:4368   */\n      swap1\n      pop\n        /* \"#utility.yul\":4377:4410   */\n      tag_150\n        /* \"#utility.yul\":4404:4409   */\n      dup2\n        /* \"#utility.yul\":4377:4410   */\n      tag_73\n      jump\t// in\n    tag_150:\n        /* \"#utility.yul\":4277:4416   */\n      swap3\n      swap2\n      pop\n      pop\n      jump\t// out\n        /* \"#utility.yul\":4422:4730   */\n    tag_75:\n        /* \"#utility.yul\":4484:4488   */\n      0x00\n        /* \"#utility.yul\":4574:4592   */\n      0xffffffffffffffff\n        /* \"#utility.yul\":4566:4572   */\n      dup3\n        /* \"#utility.yul\":4563:4593   */\n      gt\n        /* \"#utility.yul\":4560:4616   */\n      iszero\n      tag_152\n      jumpi\n        /* \"#utility.yul\":4596:4614   */\n      tag_153\n      tag_63\n      jump\t// in\n    tag_153:\n        /* \"#utility.yul\":4560:4616   */\n    tag_152:\n        /* \"#utility.yul\":4634:4663   */\n      tag_154\n        /* \"#utility.yul\":4656:4662   */\n      dup3\n        /* \"#utility.yul\":4634:4663   */\n      tag_62\n      jump\t// in\n    tag_154:\n        /* \"#utility.yul\":4626:4663   */\n      swap1\n      pop\n        /* \"#utility.yul\":4718:4722   */\n      0x20\n        /* \"#utility.yul\":4712:4716   */\n      dup2\n        /* \"#utility.yul\":4708:4723   */\n      add\n        /* \"#utility.yul\":4700:4723   */\n      swap1\n      pop\n        /* \"#utility.yul\":4422:4730   */\n      swap2\n      swap1\n      pop\n      jump\t// out\n        /* \"#utility.yul\":4736:5161   */\n    tag_76:\n        /* \"#utility.yul\":4814:4819   */\n      0x00\n        /* \"#utility.yul\":4839:4905   */\n      tag_156\n        /* \"#utility.yul\":4855:4904   */\n      tag_157\n        /* \"#utility.yul\":4897:4903   */\n      dup5\n        /* \"#utility.yul\":4855:4904   */\n      tag_75\n      jump\t// in\n    tag_157:\n        /* \"#utility.yul\":4839:4905   */\n      tag_65\n      jump\t// in\n    tag_156:\n        /* \"#utility.yul\":4830:4905   */\n      swap1\n      pop\n        /* \"#utility.yul\":4928:4934   */\n      dup3\n        /* \"#utility.yul\":4921:4926   */\n      dup2\n        /* \"#utility.yul\":4914:4935   */\n      mstore\n        /* \"#utility.yul\":4966:4970   */\n      0x20\n        /* \"#utility.yul\":4959:4964   */\n      dup2\n        /* \"#utility.yul\":4955:4971   */\n      add\n        /* \"#utility.yul\":5004:5007   */\n      dup5\n        /* \"#utility.yul\":4995:5001   */\n      dup5\n        /* \"#utility.yul\":4990:4993   */\n      dup5\n        /* \"#utility.yul\":4986:5002   */\n      add\n        /* \"#utility.yul\":4983:5008   */\n      gt\n        /* \"#utility.yul\":4980:5092   */\n      iszero\n      tag_158\n      jumpi\n        /* \"#utility.yul\":5011:5090   */\n      tag_159\n      tag_61\n      jump\t// in\n    tag_159:\n        /* \"#utility.yul\":4980:5092   */\n    tag_158:\n        /* \"#utility.yul\":5101:5155   */\n      tag_160\n        /* \"#utility.yul\":5148:5154   */\n      dup5\n        /* \"#utility.yul\":5143:5146   */\n      dup3\n        /* \"#utility.yul\":5138:5141   */\n      dup6\n        /* \"#utility.yul\":5101:5155   */\n      tag_67\n      jump\t// in\n    tag_160:\n        /* \"#utility.yul\":4820:5161   */\n      pop\n        /* \"#utility.yul\":4736:5161   */\n      swap4\n      swap3\n      pop\n      pop\n      pop\n      jump\t// out\n        /* \"#utility.yul\":5181:5521   */\n    tag_77:\n        /* \"#utility.yul\":5237:5242   */\n      0x00\n        /* \"#utility.yul\":5286:5289   */\n      dup3\n        /* \"#utility.yul\":5279:5283   */\n      0x1f\n        /* \"#utility.yul\":5271:5277   */\n      dup4\n        /* \"#utility.yul\":5267:5284   */\n      add\n        /* \"#utility.yul\":5263:5290   */\n      slt\n        /* \"#utility.yul\":5253:5375   */\n      tag_162\n      jumpi\n        /* \"#utility.yul\":5294:5373   */\n      tag_163\n      tag_60\n      jump\t// in\n    tag_163:\n        /* \"#utility.yul\":5253:5375   */\n    tag_162:\n        /* \"#utility.yul\":5411:5417   */\n      dup2\n        /* \"#utility.yul\":5398:5418   */\n      calldataload\n        /* \"#utility.yul\":5436:5515   */\n      tag_164\n        /* \"#utility.yul\":5511:5514   */\n      dup5\n        /* \"#utility.yul\":5503:5509   */\n      dup3\n        /* \"#utility.yul\":5496:5500   */\n      0x20\n        /* \"#utility.yul\":5488:5494   */\n      dup7\n        /* \"#utility.yul\":5484:5501   */\n      add\n        /* \"#utility.yul\":5436:5515   */\n      tag_76\n      jump\t// in\n    tag_164:\n        /* \"#utility.yul\":5427:5515   */\n      swap2\n      pop\n        /* \"#utility.yul\":5243:5521   */\n      pop\n        /* \"#utility.yul\":5181:5521   */\n      swap3\n      swap2\n      pop\n      pop\n      jump\t// out\n        /* \"#utility.yul\":5527:6504   */\n    tag_15:\n        /* \"#utility.yul\":5623:5629   */\n      0x00\n        /* \"#utility.yul\":5631:5637   */\n      dup1\n        /* \"#utility.yul\":5639:5645   */\n      0x00\n        /* \"#utility.yul\":5688:5690   */\n      0x60\n        /* \"#utility.yul\":5676:5685   */\n      dup5\n        /* \"#utility.yul\":5667:5674   */\n      dup7\n        /* \"#utility.yul\":5663:5686   */\n      sub\n        /* \"#utility.yul\":5659:5691   */\n      slt\n        /* \"#utility.yul\":5656:5775   */\n      iszero\n      tag_166\n      jumpi\n        /* \"#utility.yul\":5694:5773   */\n      tag_167\n      tag_55\n      jump\t// in\n    tag_167:\n        /* \"#utility.yul\":5656:5775   */\n    tag_166:\n        /* \"#utility.yul\":5814:5815   */\n      0x00\n        /* \"#utility.yul\":5839:5892   */\n      tag_168\n        /* \"#utility.yul\":5884:5891   */\n      dup7\n        /* \"#utility.yul\":5875:5881   */\n      dup3\n        /* \"#utility.yul\":5864:5873   */\n      dup8\n        /* \"#utility.yul\":5860:5882   */\n      add\n        /* \"#utility.yul\":5839:5892   */\n      tag_74\n      jump\t// in\n    tag_168:\n        /* \"#utility.yul\":5829:5892   */\n      swap4\n      pop\n        /* \"#utility.yul\":5785:5902   */\n      pop\n        /* \"#utility.yul\":5969:5971   */\n      0x20\n        /* \"#utility.yul\":5958:5967   */\n      dup5\n        /* \"#utility.yul\":5954:5972   */\n      add\n        /* \"#utility.yul\":5941:5973   */\n      calldataload\n        /* \"#utility.yul\":6000:6018   */\n      0xffffffffffffffff\n        /* \"#utility.yul\":5992:5998   */\n      dup2\n        /* \"#utility.yul\":5989:6019   */\n      gt\n        /* \"#utility.yul\":5986:6103   */\n      iszero\n      tag_169\n      jumpi\n        /* \"#utility.yul\":6022:6101   */\n      tag_170\n      tag_56\n      jump\t// in\n    tag_170:\n        /* \"#utility.yul\":5986:6103   */\n    tag_169:\n        /* \"#utility.yul\":6127:6190   */\n      tag_171\n        /* \"#utility.yul\":6182:6189   */\n      dup7\n        /* \"#utility.yul\":6173:6179   */\n      dup3\n        /* \"#utility.yul\":6162:6171   */\n      dup8\n        /* \"#utility.yul\":6158:6180   */\n      add\n        /* \"#utility.yul\":6127:6190   */\n      tag_77\n      jump\t// in\n    tag_171:\n        /* \"#utility.yul\":6117:6190   */\n      swap3\n      pop\n        /* \"#utility.yul\":5912:6200   */\n      pop\n        /* \"#utility.yul\":6267:6269   */\n      0x40\n        /* \"#utility.yul\":6256:6265   */\n      dup5\n        /* \"#utility.yul\":6252:6270   */\n      add\n        /* \"#utility.yul\":6239:6271   */\n      calldataload\n        /* \"#utility.yul\":6298:6316   */\n      0xffffffffffffffff\n        /* \"#utility.yul\":6290:6296   */\n      dup2\n        /* \"#utility.yul\":6287:6317   */\n      gt\n        /* \"#utility.yul\":6284:6401   */\n      iszero\n      tag_172\n      jumpi\n        /* \"#utility.yul\":6320:6399   */\n      tag_173\n      tag_56\n      jump\t// in\n    tag_173:\n        /* \"#utility.yul\":6284:6401   */\n    tag_172:\n        /* \"#utility.yul\":6425:6487   */\n      tag_174\n        /* \"#utility.yul\":6479:6486   */\n      dup7\n        /* \"#utility.yul\":6470:6476   */\n      dup3\n        /* \"#utility.yul\":6459:6468   */\n      dup8\n        /* \"#utility.yul\":6455:6477   */\n      add\n        /* \"#utility.yul\":6425:6487   */\n      tag_69\n      jump\t// in\n    tag_174:\n        /* \"#utility.yul\":6415:6487   */\n      swap2\n      pop\n        /* \"#utility.yul\":6210:6497   */\n      pop\n        /* \"#utility.yul\":5527:6504   */\n      swap3\n      pop\n      swap3\n      pop\n      swap3\n      jump\t// out\n        /* \"#utility.yul\":6510:6600   */\n    tag_78:\n        /* \"#utility.yul\":6544:6551   */\n      0x00\n        /* \"#utility.yul\":6587:6592   */\n      dup2\n        /* \"#utility.yul\":6580:6593   */\n      iszero\n        /* \"#utility.yul\":6573:6594   */\n      iszero\n        /* \"#utility.yul\":6562:6594   */\n      swap1\n      pop\n        /* \"#utility.yul\":6510:6600   */\n      swap2\n      swap1\n      pop\n      jump\t// out\n        /* \"#utility.yul\":6606:6715   */\n    tag_79:\n        /* \"#utility.yul\":6687:6708   */\n      tag_177\n        /* \"#utility.yul\":6702:6707   */\n      dup2\n        /* \"#utility.yul\":6687:6708   */\n      tag_78\n      jump\t// in\n    tag_177:\n        /* \"#utility.yul\":6682:6685   */\n      dup3\n        /* \"#utility.yul\":6675:6709   */\n      mstore\n        /* \"#utility.yul\":6606:6715   */\n      pop\n      pop\n      jump\t// out\n        /* \"#utility.yul\":6721:6931   */\n    tag_18:\n        /* \"#utility.yul\":6808:6812   */\n      0x00\n        /* \"#utility.yul\":6846:6848   */\n      0x20\n        /* \"#utility.yul\":6835:6844   */\n      dup3\n        /* \"#utility.yul\":6831:6849   */\n      add\n        /* \"#utility.yul\":6823:6849   */\n      swap1\n      pop\n        /* \"#utility.yul\":6859:6924   */\n      tag_179\n        /* \"#utility.yul\":6921:6922   */\n      0x00\n        /* \"#utility.yul\":6910:6919   */\n      dup4\n        /* \"#utility.yul\":6906:6923   */\n      add\n        /* \"#utility.yul\":6897:6903   */\n      dup5\n        /* \"#utility.yul\":6859:6924   */\n      tag_79\n      jump\t// in\n    tag_179:\n        /* \"#utility.yul\":6721:6931   */\n      swap3\n      swap2\n      pop\n      pop\n      jump\t// out\n        /* \"#utility.yul\":6937:7446   */\n    tag_21:\n        /* \"#utility.yul\":7006:7012   */\n      0x00\n        /* \"#utility.yul\":7055:7057   */\n      0x20\n        /* \"#utility.yul\":7043:7052   */\n      dup3\n        /* \"#utility.yul\":7034:7041   */\n      dup5\n        /* \"#utility.yul\":7030:7053   */\n      sub\n        /* \"#utility.yul\":7026:7058   */\n      slt\n        /* \"#utility.yul\":7023:7142   */\n      iszero\n      tag_181\n      jumpi\n        /* \"#utility.yul\":7061:7140   */\n      tag_182\n      tag_55\n      jump\t// in\n    tag_182:\n        /* \"#utility.yul\":7023:7142   */\n    tag_181:\n        /* \"#utility.yul\":7209:7210   */\n      0x00\n        /* \"#utility.yul\":7198:7207   */\n      dup3\n        /* \"#utility.yul\":7194:7211   */\n      add\n        /* \"#utility.yul\":7181:7212   */\n      calldataload\n        /* \"#utility.yul\":7239:7257   */\n      0xffffffffffffffff\n        /* \"#utility.yul\":7231:7237   */\n      dup2\n        /* \"#utility.yul\":7228:7258   */\n      gt\n        /* \"#utility.yul\":7225:7342   */\n      iszero\n      tag_183\n      jumpi\n        /* \"#utility.yul\":7261:7340   */\n      tag_184\n      tag_56\n      jump\t// in\n    tag_184:\n        /* \"#utility.yul\":7225:7342   */\n    tag_183:\n        /* \"#utility.yul\":7366:7429   */\n      tag_185\n        /* \"#utility.yul\":7421:7428   */\n      dup5\n        /* \"#utility.yul\":7412:7418   */\n      dup3\n        /* \"#utility.yul\":7401:7410   */\n      dup6\n        /* \"#utility.yul\":7397:7419   */\n      add\n        /* \"#utility.yul\":7366:7429   */\n      tag_77\n      jump\t// in\n    tag_185:\n        /* \"#utility.yul\":7356:7429   */\n      swap2\n      pop\n        /* \"#utility.yul\":7152:7439   */\n      pop\n        /* \"#utility.yul\":6937:7446   */\n      swap3\n      swap2\n      pop\n      pop\n      jump\t// out\n        /* \"#utility.yul\":7452:7570   */\n    tag_80:\n        /* \"#utility.yul\":7539:7563   */\n      tag_187\n        /* \"#utility.yul\":7557:7562   */\n      dup2\n        /* \"#utility.yul\":7539:7563   */\n      tag_57\n      jump\t// in\n    tag_187:\n        /* \"#utility.yul\":7534:7537   */\n      dup3\n        /* \"#utility.yul\":7527:7564   */\n      mstore\n        /* \"#utility.yul\":7452:7570   */\n      pop\n      pop\n      jump\t// out\n        /* \"#utility.yul\":7576:7798   */\n    tag_24:\n        /* \"#utility.yul\":7669:7673   */\n      0x00\n        /* \"#utility.yul\":7707:7709   */\n      0x20\n        /* \"#utility.yul\":7696:7705   */\n      dup3\n        /* \"#utility.yul\":7692:7710   */\n      add\n        /* \"#utility.yul\":7684:7710   */\n      swap1\n      pop\n        /* \"#utility.yul\":7720:7791   */\n      tag_189\n        /* \"#utility.yul\":7788:7789   */\n      0x00\n        /* \"#utility.yul\":7777:7786   */\n      dup4\n        /* \"#utility.yul\":7773:7790   */\n      add\n        /* \"#utility.yul\":7764:7770   */\n      dup5\n        /* \"#utility.yul\":7720:7791   */\n      tag_80\n      jump\t// in\n    tag_189:\n        /* \"#utility.yul\":7576:7798   */\n      swap3\n      swap2\n      pop\n      pop\n      jump\t// out\n        /* \"#utility.yul\":7804:8133   */\n    tag_27:\n        /* \"#utility.yul\":7863:7869   */\n      0x00\n        /* \"#utility.yul\":7912:7914   */\n      0x20\n        /* \"#utility.yul\":7900:7909   */\n      dup3\n        /* \"#utility.yul\":7891:7898   */\n      dup5\n        /* \"#utility.yul\":7887:7910   */\n      sub\n        /* \"#utility.yul\":7883:7915   */\n      slt\n        /* \"#utility.yul\":7880:7999   */\n      iszero\n      tag_191\n      jumpi\n        /* \"#utility.yul\":7918:7997   */\n      tag_192\n      tag_55\n      jump\t// in\n    tag_192:\n        /* \"#utility.yul\":7880:7999   */\n    tag_191:\n        /* \"#utility.yul\":8038:8039   */\n      0x00\n        /* \"#utility.yul\":8063:8116   */\n      tag_193\n        /* \"#utility.yul\":8108:8115   */\n      dup5\n        /* \"#utility.yul\":8099:8105   */\n      dup3\n        /* \"#utility.yul\":8088:8097   */\n      dup6\n        /* \"#utility.yul\":8084:8106   */\n      add\n        /* \"#utility.yul\":8063:8116   */\n      tag_59\n      jump\t// in\n    tag_193:\n        /* \"#utility.yul\":8053:8116   */\n      swap2\n      pop\n        /* \"#utility.yul\":8009:8126   */\n      pop\n        /* \"#utility.yul\":7804:8133   */\n      swap3\n      swap2\n      pop\n      pop\n      jump\t// out\n        /* \"#utility.yul\":8139:8225   */\n    tag_81:\n        /* \"#utility.yul\":8174:8181   */\n      0x00\n        /* \"#utility.yul\":8214:8218   */\n      0xff\n        /* \"#utility.yul\":8207:8212   */\n      dup3\n        /* \"#utility.yul\":8203:8219   */\n      and\n        /* \"#utility.yul\":8192:8219   */\n      swap1\n      pop\n        /* \"#utility.yul\":8139:8225   */\n      swap2\n      swap1\n      pop\n      jump\t// out\n        /* \"#utility.yul\":8231:8343   */\n    tag_82:\n        /* \"#utility.yul\":8314:8336   */\n      tag_196\n        /* \"#utility.yul\":8330:8335   */\n      dup2\n        /* \"#utility.yul\":8314:8336   */\n      tag_81\n      jump\t// in\n    tag_196:\n        /* \"#utility.yul\":8309:8312   */\n      dup3\n        /* \"#utility.yul\":8302:8337   */\n      mstore\n        /* \"#utility.yul\":8231:8343   */\n      pop\n      pop\n      jump\t// out\n        /* \"#utility.yul\":8349:8894   */\n    tag_34:\n        /* \"#utility.yul\":8522:8526   */\n      0x00\n        /* \"#utility.yul\":8560:8563   */\n      0x80\n        /* \"#utility.yul\":8549:8558   */\n      dup3\n        /* \"#utility.yul\":8545:8564   */\n      add\n        /* \"#utility.yul\":8537:8564   */\n      swap1\n      pop\n        /* \"#utility.yul\":8574:8645   */\n      tag_198\n        /* \"#utility.yul\":8642:8643   */\n      0x00\n        /* \"#utility.yul\":8631:8640   */\n      dup4\n        /* \"#utility.yul\":8627:8644   */\n      add\n        /* \"#utility.yul\":8618:8624   */\n      dup8\n        /* \"#utility.yul\":8574:8645   */\n      tag_80\n      jump\t// in\n    tag_198:\n        /* \"#utility.yul\":8655:8723   */\n      tag_199\n        /* \"#utility.yul\":8719:8721   */\n      0x20\n        /* \"#utility.yul\":8708:8717   */\n      dup4\n        /* \"#utility.yul\":8704:8722   */\n      add\n        /* \"#utility.yul\":8695:8701   */\n      dup7\n        /* \"#utility.yul\":8655:8723   */\n      tag_82\n      jump\t// in\n    tag_199:\n        /* \"#utility.yul\":8733:8805   */\n      tag_200\n        /* \"#utility.yul\":8801:8803   */\n      0x40\n        /* \"#utility.yul\":8790:8799   */\n      dup4\n        /* \"#utility.yul\":8786:8804   */\n      add\n        /* \"#utility.yul\":8777:8783   */\n      dup6\n        /* \"#utility.yul\":8733:8805   */\n      tag_80\n      jump\t// in\n    tag_200:\n        /* \"#utility.yul\":8815:8887   */\n      tag_201\n        /* \"#utility.yul\":8883:8885   */\n      0x60\n        /* \"#utility.yul\":8872:8881   */\n      dup4\n        /* \"#utility.yul\":8868:8886   */\n      add\n        /* \"#utility.yul\":8859:8865   */\n      dup5\n        /* \"#utility.yul\":8815:8887   */\n      tag_80\n      jump\t// in\n    tag_201:\n        /* \"#utility.yul\":8349:8894   */\n      swap6\n      swap5\n      pop\n      pop\n      pop\n      pop\n      pop\n      jump\t// out\n        /* \"#utility.yul\":8900:9069   */\n    tag_83:\n        /* \"#utility.yul\":8984:8995   */\n      0x00\n        /* \"#utility.yul\":9018:9024   */\n      dup3\n        /* \"#utility.yul\":9013:9016   */\n      dup3\n        /* \"#utility.yul\":9006:9025   */\n      mstore\n        /* \"#utility.yul\":9058:9062   */\n      0x20\n        /* \"#utility.yul\":9053:9056   */\n      dup3\n        /* \"#utility.yul\":9049:9063   */\n      add\n        /* \"#utility.yul\":9034:9063   */\n      swap1\n      pop\n        /* \"#utility.yul\":8900:9069   */\n      swap3\n      swap2\n      pop\n      pop\n      jump\t// out\n        /* \"#utility.yul\":9075:9249   */\n    tag_84:\n        /* \"#utility.yul\":9215:9241   */\n      0x45434453413a20696e76616c6964207369676e61747572650000000000000000\n        /* \"#utility.yul\":9211:9212   */\n      0x00\n        /* \"#utility.yul\":9203:9209   */\n      dup3\n        /* \"#utility.yul\":9199:9213   */\n      add\n        /* \"#utility.yul\":9192:9242   */\n      mstore\n        /* \"#utility.yul\":9075:9249   */\n      pop\n      jump\t// out\n        /* \"#utility.yul\":9255:9621   */\n    tag_85:\n        /* \"#utility.yul\":9397:9400   */\n      0x00\n        /* \"#utility.yul\":9418:9485   */\n      tag_205\n        /* \"#utility.yul\":9482:9484   */\n      0x18\n        /* \"#utility.yul\":9477:9480   */\n      dup4\n        /* \"#utility.yul\":9418:9485   */\n      tag_83\n      jump\t// in\n    tag_205:\n        /* \"#utility.yul\":9411:9485   */\n      swap2\n      pop\n        /* \"#utility.yul\":9494:9587   */\n      tag_206\n        /* \"#utility.yul\":9583:9586   */\n      dup3\n        /* \"#utility.yul\":9494:9587   */\n      tag_84\n      jump\t// in\n    tag_206:\n        /* \"#utility.yul\":9612:9614   */\n      0x20\n        /* \"#utility.yul\":9607:9610   */\n      dup3\n        /* \"#utility.yul\":9603:9615   */\n      add\n        /* \"#utility.yul\":9596:9615   */\n      swap1\n      pop\n        /* \"#utility.yul\":9255:9621   */\n      swap2\n      swap1\n      pop\n      jump\t// out\n        /* \"#utility.yul\":9627:10046   */\n    tag_39:\n        /* \"#utility.yul\":9793:9797   */\n      0x00\n        /* \"#utility.yul\":9831:9833   */\n      0x20\n        /* \"#utility.yul\":9820:9829   */\n      dup3\n        /* \"#utility.yul\":9816:9834   */\n      add\n        /* \"#utility.yul\":9808:9834   */\n      swap1\n      pop\n        /* \"#utility.yul\":9880:9889   */\n      dup2\n        /* \"#utility.yul\":9874:9878   */\n      dup2\n        /* \"#utility.yul\":9870:9890   */\n      sub\n        /* \"#utility.yul\":9866:9867   */\n      0x00\n        /* \"#utility.yul\":9855:9864   */\n      dup4\n        /* \"#utility.yul\":9851:9868   */\n      add\n        /* \"#utility.yul\":9844:9891   */\n      mstore\n        /* \"#utility.yul\":9908:10039   */\n      tag_208\n        /* \"#utility.yul\":10034:10038   */\n      dup2\n        /* \"#utility.yul\":9908:10039   */\n      tag_85\n      jump\t// in\n    tag_208:\n        /* \"#utility.yul\":9900:10039   */\n      swap1\n      pop\n        /* \"#utility.yul\":9627:10046   */\n      swap2\n      swap1\n      pop\n      jump\t// out\n        /* \"#utility.yul\":10052:10151   */\n    tag_86:\n        /* \"#utility.yul\":10104:10110   */\n      0x00\n        /* \"#utility.yul\":10138:10143   */\n      dup2\n        /* \"#utility.yul\":10132:10144   */\n      mload\n        /* \"#utility.yul\":10122:10144   */\n      swap1\n      pop\n        /* \"#utility.yul\":10052:10151   */\n      swap2\n      swap1\n      pop\n      jump\t// out\n        /* \"#utility.yul\":10157:10305   */\n    tag_87:\n        /* \"#utility.yul\":10259:10270   */\n      0x00\n        /* \"#utility.yul\":10296:10299   */\n      dup2\n        /* \"#utility.yul\":10281:10299   */\n      swap1\n      pop\n        /* \"#utility.yul\":10157:10305   */\n      swap3\n      swap2\n      pop\n      pop\n      jump\t// out\n        /* \"#utility.yul\":10311:10450   */\n    tag_88:\n        /* \"#utility.yul\":10400:10406   */\n      dup3\n        /* \"#utility.yul\":10395:10398   */\n      dup2\n        /* \"#utility.yul\":10390:10393   */\n      dup4\n        /* \"#utility.yul\":10384:10407   */\n      mcopy\n        /* \"#utility.yul\":10441:10442   */\n      0x00\n        /* \"#utility.yul\":10432:10438   */\n      dup4\n        /* \"#utility.yul\":10427:10430   */\n      dup4\n        /* \"#utility.yul\":10423:10439   */\n      add\n        /* \"#utility.yul\":10416:10443   */\n      mstore\n        /* \"#utility.yul\":10311:10450   */\n      pop\n      pop\n      pop\n      jump\t// out\n        /* \"#utility.yul\":10456:10846   */\n    tag_89:\n        /* \"#utility.yul\":10562:10565   */\n      0x00\n        /* \"#utility.yul\":10590:10629   */\n      tag_213\n        /* \"#utility.yul\":10623:10628   */\n      dup3\n        /* \"#utility.yul\":10590:10629   */\n      tag_86\n      jump\t// in\n    tag_213:\n        /* \"#utility.yul\":10645:10734   */\n      tag_214\n        /* \"#utility.yul\":10727:10733   */\n      dup2\n        /* \"#utility.yul\":10722:10725   */\n      dup6\n        /* \"#utility.yul\":10645:10734   */\n      tag_87\n      jump\t// in\n    tag_214:\n        /* \"#utility.yul\":10638:10734   */\n      swap4\n      pop\n        /* \"#utility.yul\":10743:10808   */\n      tag_215\n        /* \"#utility.yul\":10801:10807   */\n      dup2\n        /* \"#utility.yul\":10796:10799   */\n      dup6\n        /* \"#utility.yul\":10789:10793   */\n      0x20\n        /* \"#utility.yul\":10782:10787   */\n      dup7\n        /* \"#utility.yul\":10778:10794   */\n      add\n        /* \"#utility.yul\":10743:10808   */\n      tag_88\n      jump\t// in\n    tag_215:\n        /* \"#utility.yul\":10833:10839   */\n      dup1\n        /* \"#utility.yul\":10828:10831   */\n      dup5\n        /* \"#utility.yul\":10824:10840   */\n      add\n        /* \"#utility.yul\":10817:10840   */\n      swap2\n      pop\n        /* \"#utility.yul\":10566:10846   */\n      pop\n        /* \"#utility.yul\":10456:10846   */\n      swap3\n      swap2\n      pop\n      pop\n      jump\t// out\n        /* \"#utility.yul\":10852:11127   */\n    tag_46:\n        /* \"#utility.yul\":10984:10987   */\n      0x00\n        /* \"#utility.yul\":11006:11101   */\n      tag_217\n        /* \"#utility.yul\":11097:11100   */\n      dup3\n        /* \"#utility.yul\":11088:11094   */\n      dup5\n        /* \"#utility.yul\":11006:11101   */\n      tag_89\n      jump\t// in\n    tag_217:\n        /* \"#utility.yul\":10999:11101   */\n      swap2\n      pop\n        /* \"#utility.yul\":11118:11121   */\n      dup2\n        /* \"#utility.yul\":11111:11121   */\n      swap1\n      pop\n        /* \"#utility.yul\":10852:11127   */\n      swap3\n      swap2\n      pop\n      pop\n      jump\t// out\n        /* \"#utility.yul\":11133:11347   */\n    tag_90:\n        /* \"#utility.yul\":11273:11339   */\n      0x19457468657265756d205369676e6564204d6573736167653a0a333200000000\n        /* \"#utility.yul\":11269:11270   */\n      0x00\n        /* \"#utility.yul\":11261:11267   */\n      dup3\n        /* \"#utility.yul\":11257:11271   */\n      add\n        /* \"#utility.yul\":11250:11340   */\n      mstore\n        /* \"#utility.yul\":11133:11347   */\n      pop\n      jump\t// out\n        /* \"#utility.yul\":11353:11755   */\n    tag_91:\n        /* \"#utility.yul\":11513:11516   */\n      0x00\n        /* \"#utility.yul\":11534:11619   */\n      tag_220\n        /* \"#utility.yul\":11616:11618   */\n      0x1c\n        /* \"#utility.yul\":11611:11614   */\n      dup4\n        /* \"#utility.yul\":11534:11619   */\n      tag_87\n      jump\t// in\n    tag_220:\n        /* \"#utility.yul\":11527:11619   */\n      swap2\n      pop\n        /* \"#utility.yul\":11628:11721   */\n      tag_221\n        /* \"#utility.yul\":11717:11720   */\n      dup3\n        /* \"#utility.yul\":11628:11721   */\n      tag_90\n      jump\t// in\n    tag_221:\n        /* \"#utility.yul\":11746:11748   */\n      0x1c\n        /* \"#utility.yul\":11741:11744   */\n      dup3\n        /* \"#utility.yul\":11737:11749   */\n      add\n        /* \"#utility.yul\":11730:11749   */\n      swap1\n      pop\n        /* \"#utility.yul\":11353:11755   */\n      swap2\n      swap1\n      pop\n      jump\t// out\n        /* \"#utility.yul\":11761:11840   */\n    tag_92:\n        /* \"#utility.yul\":11800:11807   */\n      0x00\n        /* \"#utility.yul\":11829:11834   */\n      dup2\n        /* \"#utility.yul\":11818:11834   */\n      swap1\n      pop\n        /* \"#utility.yul\":11761:11840   */\n      swap2\n      swap1\n      pop\n      jump\t// out\n        /* \"#utility.yul\":11846:12003   */\n    tag_93:\n        /* \"#utility.yul\":11951:11996   */\n      tag_224\n        /* \"#utility.yul\":11971:11995   */\n      tag_225\n        /* \"#utility.yul\":11989:11994   */\n      dup3\n        /* \"#utility.yul\":11971:11995   */\n      tag_57\n      jump\t// in\n    tag_225:\n        /* \"#utility.yul\":11951:11996   */\n      tag_92\n      jump\t// in\n    tag_224:\n        /* \"#utility.yul\":11946:11949   */\n      dup3\n        /* \"#utility.yul\":11939:11997   */\n      mstore\n        /* \"#utility.yul\":11846:12003   */\n      pop\n      pop\n      jump\t// out\n        /* \"#utility.yul\":12009:12531   */\n    tag_49:\n        /* \"#utility.yul\":12222:12225   */\n      0x00\n        /* \"#utility.yul\":12244:12392   */\n      tag_227\n        /* \"#utility.yul\":12388:12391   */\n      dup3\n        /* \"#utility.yul\":12244:12392   */\n      tag_91\n      jump\t// in\n    tag_227:\n        /* \"#utility.yul\":12237:12392   */\n      swap2\n      pop\n        /* \"#utility.yul\":12402:12477   */\n      tag_228\n        /* \"#utility.yul\":12473:12476   */\n      dup3\n        /* \"#utility.yul\":12464:12470   */\n      dup5\n        /* \"#utility.yul\":12402:12477   */\n      tag_93\n      jump\t// in\n    tag_228:\n        /* \"#utility.yul\":12502:12504   */\n      0x20\n        /* \"#utility.yul\":12497:12500   */\n      dup3\n        /* \"#utility.yul\":12493:12505   */\n      add\n        /* \"#utility.yul\":12486:12505   */\n      swap2\n      pop\n        /* \"#utility.yul\":12522:12525   */\n      dup2\n        /* \"#utility.yul\":12515:12525   */\n      swap1\n      pop\n        /* \"#utility.yul\":12009:12531   */\n      swap3\n      swap2\n      pop\n      pop\n      jump\t// out\n        /* \"#utility.yul\":12537:12711   */\n    tag_94:\n        /* \"#utility.yul\":12677:12703   */\n      0x696e76616c6964207369676e6174757265206c656e6774680000000000000000\n        /* \"#utility.yul\":12673:12674   */\n      0x00\n        /* \"#utility.yul\":12665:12671   */\n      dup3\n        /* \"#utility.yul\":12661:12675   */\n      add\n        /* \"#utility.yul\":12654:12704   */\n      mstore\n        /* \"#utility.yul\":12537:12711   */\n      pop\n      jump\t// out\n        /* \"#utility.yul\":12717:13083   */\n    tag_95:\n        /* \"#utility.yul\":12859:12862   */\n      0x00\n        /* \"#utility.yul\":12880:12947   */\n      tag_231\n        /* \"#utility.yul\":12944:12946   */\n      0x18\n        /* \"#utility.yul\":12939:12942   */\n      dup4\n        /* \"#utility.yul\":12880:12947   */\n      tag_83\n      jump\t// in\n    tag_231:\n        /* \"#utility.yul\":12873:12947   */\n      swap2\n      pop\n        /* \"#utility.yul\":12956:13049   */\n      tag_232\n        /* \"#utility.yul\":13045:13048   */\n      dup3\n        /* \"#utility.yul\":12956:13049   */\n      tag_94\n      jump\t// in\n    tag_232:\n        /* \"#utility.yul\":13074:13076   */\n      0x20\n        /* \"#utility.yul\":13069:13072   */\n      dup3\n        /* \"#utility.yul\":13065:13077   */\n      add\n        /* \"#utility.yul\":13058:13077   */\n      swap1\n      pop\n        /* \"#utility.yul\":12717:13083   */\n      swap2\n      swap1\n      pop\n      jump\t// out\n        /* \"#utility.yul\":13089:13508   */\n    tag_53:\n        /* \"#utility.yul\":13255:13259   */\n      0x00\n        /* \"#utility.yul\":13293:13295   */\n      0x20\n        /* \"#utility.yul\":13282:13291   */\n      dup3\n        /* \"#utility.yul\":13278:13296   */\n      add\n        /* \"#utility.yul\":13270:13296   */\n      swap1\n      pop\n        /* \"#utility.yul\":13342:13351   */\n      dup2\n        /* \"#utility.yul\":13336:13340   */\n      dup2\n        /* \"#utility.yul\":13332:13352   */\n      sub\n        /* \"#utility.yul\":13328:13329   */\n      0x00\n        /* \"#utility.yul\":13317:13326   */\n      dup4\n        /* \"#utility.yul\":13313:13330   */\n      add\n        /* \"#utility.yul\":13306:13353   */\n      mstore\n        /* \"#utility.yul\":13370:13501   */\n      tag_234\n        /* \"#utility.yul\":13496:13500   */\n      dup2\n        /* \"#utility.yul\":13370:13501   */\n      tag_95\n      jump\t// in\n    tag_234:\n        /* \"#utility.yul\":13362:13501   */\n      swap1\n      pop\n        /* \"#utility.yul\":13089:13508   */\n      swap2\n      swap1\n      pop\n      jump\t// out\n\n    auxdata: 0xa26469706673582212205cf7d0d7cc3b294161209919a217ce0743a49c92ed1b770007aa2f833bd5787b64736f6c634300081a0033\n}\n",
				"bytecode": {
					"linkReferences": {},
					"object": "6080604052348015600e575f80fd5b506109c98061001c5f395ff3fe608060405234801561000f575f80fd5b506004361061004a575f3560e01c806319045a251461004e5780632dd34f0f1461007e578063b446f3b2146100ae578063fa540801146100de575b5f80fd5b6100686004803603810190610063919061048f565b61010e565b6040516100759190610528565b60405180910390f35b61009860048036038101906100939190610609565b6101eb565b6040516100a591906106ab565b60405180910390f35b6100c860048036038101906100c391906106c4565b61024c565b6040516100d5919061071a565b60405180910390f35b6100f860048036038101906100f39190610733565b61027b565b604051610105919061071a565b60405180910390f35b5f805f8061011b856102aa565b9250925092505f6001878386866040515f81526020016040526040516101449493929190610779565b6020604051602081039080840390855afa158015610164573d5f803e3d5ffd5b5050506020604051035190505f73ffffffffffffffffffffffffffffffffffffffff168173ffffffffffffffffffffffffffffffffffffffff16036101de576040517f08c379a00000000000000000000000000000000000000000000000000000000081526004016101d590610816565b60405180910390fd5b8094505050505092915050565b5f806101f68461024c565b90505f6102028261027b565b90505f61020f828661010e565b90508673ffffffffffffffffffffffffffffffffffffffff168173ffffffffffffffffffffffffffffffffffffffff161493505050509392505050565b5f8160405160200161025e9190610886565b604051602081830303815290604052805190602001209050919050565b5f8160405160200161028d9190610906565b604051602081830303815290604052805190602001209050919050565b5f805f60418451146102f1576040517f08c379a00000000000000000000000000000000000000000000000000000000081526004016102e890610975565b60405180910390fd5b602084015192506040840151915060608401515f1a90509193909250565b5f604051905090565b5f80fd5b5f80fd5b5f819050919050565b61033281610320565b811461033c575f80fd5b50565b5f8135905061034d81610329565b92915050565b5f80fd5b5f80fd5b5f601f19601f8301169050919050565b7f4e487b71000000000000000000000000000000000000000000000000000000005f52604160045260245ffd5b6103a18261035b565b810181811067ffffffffffffffff821117156103c0576103bf61036b565b5b80604052505050565b5f6103d261030f565b90506103de8282610398565b919050565b5f67ffffffffffffffff8211156103fd576103fc61036b565b5b6104068261035b565b9050602081019050919050565b828183375f83830152505050565b5f61043361042e846103e3565b6103c9565b90508281526020810184848401111561044f5761044e610357565b5b61045a848285610413565b509392505050565b5f82601f83011261047657610475610353565b5b8135610486848260208601610421565b91505092915050565b5f80604083850312156104a5576104a4610318565b5b5f6104b28582860161033f565b925050602083013567ffffffffffffffff8111156104d3576104d261031c565b5b6104df85828601610462565b9150509250929050565b5f73ffffffffffffffffffffffffffffffffffffffff82169050919050565b5f610512826104e9565b9050919050565b61052281610508565b82525050565b5f60208201905061053b5f830184610519565b92915050565b61054a81610508565b8114610554575f80fd5b50565b5f8135905061056581610541565b92915050565b5f67ffffffffffffffff8211156105855761058461036b565b5b61058e8261035b565b9050602081019050919050565b5f6105ad6105a88461056b565b6103c9565b9050828152602081018484840111156105c9576105c8610357565b5b6105d4848285610413565b509392505050565b5f82601f8301126105f0576105ef610353565b5b813561060084826020860161059b565b91505092915050565b5f805f606084860312156106205761061f610318565b5b5f61062d86828701610557565b935050602084013567ffffffffffffffff81111561064e5761064d61031c565b5b61065a868287016105dc565b925050604084013567ffffffffffffffff81111561067b5761067a61031c565b5b61068786828701610462565b9150509250925092565b5f8115159050919050565b6106a581610691565b82525050565b5f6020820190506106be5f83018461069c565b92915050565b5f602082840312156106d9576106d8610318565b5b5f82013567ffffffffffffffff8111156106f6576106f561031c565b5b610702848285016105dc565b91505092915050565b61071481610320565b82525050565b5f60208201905061072d5f83018461070b565b92915050565b5f6020828403121561074857610747610318565b5b5f6107558482850161033f565b91505092915050565b5f60ff82169050919050565b6107738161075e565b82525050565b5f60808201905061078c5f83018761070b565b610799602083018661076a565b6107a6604083018561070b565b6107b3606083018461070b565b95945050505050565b5f82825260208201905092915050565b7f45434453413a20696e76616c6964207369676e617475726500000000000000005f82015250565b5f6108006018836107bc565b915061080b826107cc565b602082019050919050565b5f6020820190508181035f83015261082d816107f4565b9050919050565b5f81519050919050565b5f81905092915050565b8281835e5f83830152505050565b5f61086082610834565b61086a818561083e565b935061087a818560208601610848565b80840191505092915050565b5f6108918284610856565b915081905092915050565b7f19457468657265756d205369676e6564204d6573736167653a0a3332000000005f82015250565b5f6108d0601c8361083e565b91506108db8261089c565b601c82019050919050565b5f819050919050565b6109006108fb82610320565b6108e6565b82525050565b5f610910826108c4565b915061091c82846108ef565b60208201915081905092915050565b7f696e76616c6964207369676e6174757265206c656e67746800000000000000005f82015250565b5f61095f6018836107bc565b915061096a8261092b565b602082019050919050565b5f6020820190508181035f83015261098c81610953565b905091905056fea26469706673582212205cf7d0d7cc3b294161209919a217ce0743a49c92ed1b770007aa2f833bd5787b64736f6c634300081a0033",
					"opcodes": "PUSH1 0x80 PUSH1 0x40 MSTORE CALLVALUE DUP1 ISZERO PUSH1 0xE JUMPI PUSH0 DUP1 REVERT JUMPDEST POP PUSH2 0x9C9 DUP1 PUSH2 0x1C PUSH0 CODECOPY PUSH0 RETURN INVALID PUSH1 0x80 PUSH1 0x40 MSTORE CALLVALUE DUP1 ISZERO PUSH2 0xF JUMPI PUSH0 DUP1 REVERT JUMPDEST POP PUSH1 0x4 CALLDATASIZE LT PUSH2 0x4A JUMPI PUSH0 CALLDATALOAD PUSH1 0xE0 SHR DUP1 PUSH4 0x19045A25 EQ PUSH2 0x4E JUMPI DUP1 PUSH4 0x2DD34F0F EQ PUSH2 0x7E JUMPI DUP1 PUSH4 0xB446F3B2 EQ PUSH2 0xAE JUMPI DUP1 PUSH4 0xFA540801 EQ PUSH2 0xDE JUMPI JUMPDEST PUSH0 DUP1 REVERT JUMPDEST PUSH2 0x68 PUSH1 0x4 DUP1 CALLDATASIZE SUB DUP2 ADD SWAP1 PUSH2 0x63 SWAP2 SWAP1 PUSH2 0x48F JUMP JUMPDEST PUSH2 0x10E JUMP JUMPDEST PUSH1 0x40 MLOAD PUSH2 0x75 SWAP2 SWAP1 PUSH2 0x528 JUMP JUMPDEST PUSH1 0x40 MLOAD DUP1 SWAP2 SUB SWAP1 RETURN JUMPDEST PUSH2 0x98 PUSH1 0x4 DUP1 CALLDATASIZE SUB DUP2 ADD SWAP1 PUSH2 0x93 SWAP2 SWAP1 PUSH2 0x609 JUMP JUMPDEST PUSH2 0x1EB JUMP JUMPDEST PUSH1 0x40 MLOAD PUSH2 0xA5 SWAP2 SWAP1 PUSH2 0x6AB JUMP JUMPDEST PUSH1 0x40 MLOAD DUP1 SWAP2 SUB SWAP1 RETURN JUMPDEST PUSH2 0xC8 PUSH1 0x4 DUP1 CALLDATASIZE SUB DUP2 ADD SWAP1 PUSH2 0xC3 SWAP2 SWAP1 PUSH2 0x6C4 JUMP JUMPDEST PUSH2 0x24C JUMP JUMPDEST PUSH1 0x40 MLOAD PUSH2 0xD5 SWAP2 SWAP1 PUSH2 0x71A JUMP JUMPDEST PUSH1 0x40 MLOAD DUP1 SWAP2 SUB SWAP1 RETURN JUMPDEST PUSH2 0xF8 PUSH1 0x4 DUP1 CALLDATASIZE SUB DUP2 ADD SWAP1 PUSH2 0xF3 SWAP2 SWAP1 PUSH2 0x733 JUMP JUMPDEST PUSH2 0x27B JUMP JUMPDEST PUSH1 0x40 MLOAD PUSH2 0x105 SWAP2 SWAP1 PUSH2 0x71A JUMP JUMPDEST PUSH1 0x40 MLOAD DUP1 SWAP2 SUB SWAP1 RETURN JUMPDEST PUSH0 DUP1 PUSH0 DUP1 PUSH2 0x11B DUP6 PUSH2 0x2AA JUMP JUMPDEST SWAP3 POP SWAP3 POP SWAP3 POP PUSH0 PUSH1 0x1 DUP8 DUP4 DUP7 DUP7 PUSH1 0x40 MLOAD PUSH0 DUP2 MSTORE PUSH1 0x20 ADD PUSH1 0x40 MSTORE PUSH1 0x40 MLOAD PUSH2 0x144 SWAP5 SWAP4 SWAP3 SWAP2 SWAP1 PUSH2 0x779 JUMP JUMPDEST PUSH1 0x20 PUSH1 0x40 MLOAD PUSH1 0x20 DUP2 SUB SWAP1 DUP1 DUP5 SUB SWAP1 DUP6 GAS STATICCALL ISZERO DUP1 ISZERO PUSH2 0x164 JUMPI RETURNDATASIZE PUSH0 DUP1 RETURNDATACOPY RETURNDATASIZE PUSH0 REVERT JUMPDEST POP POP POP PUSH1 0x20 PUSH1 0x40 MLOAD SUB MLOAD SWAP1 POP PUSH0 PUSH20 0xFFFFFFFFFFFFFFFFFFFFFFFFFFFFFFFFFFFFFFFF AND DUP2 PUSH20 0xFFFFFFFFFFFFFFFFFFFFFFFFFFFFFFFFFFFFFFFF AND SUB PUSH2 0x1DE JUMPI PUSH1 0x40 MLOAD PUSH32 0x8C379A000000000000000000000000000000000000000000000000000000000 DUP2 MSTORE PUSH1 0x4 ADD PUSH2 0x1D5 SWAP1 PUSH2 0x816 JUMP JUMPDEST PUSH1 0x40 MLOAD DUP1 SWAP2 SUB SWAP1 REVERT JUMPDEST DUP1 SWAP5 POP POP POP POP POP SWAP3 SWAP2 POP POP JUMP JUMPDEST PUSH0 DUP1 PUSH2 0x1F6 DUP5 PUSH2 0x24C JUMP JUMPDEST SWAP1 POP PUSH0 PUSH2 0x202 DUP3 PUSH2 0x27B JUMP JUMPDEST SWAP1 POP PUSH0 PUSH2 0x20F DUP3 DUP7 PUSH2 0x10E JUMP JUMPDEST SWAP1 POP DUP7 PUSH20 0xFFFFFFFFFFFFFFFFFFFFFFFFFFFFFFFFFFFFFFFF AND DUP2 PUSH20 0xFFFFFFFFFFFFFFFFFFFFFFFFFFFFFFFFFFFFFFFF AND EQ SWAP4 POP POP POP POP SWAP4 SWAP3 POP POP POP JUMP JUMPDEST PUSH0 DUP2 PUSH1 0x40 MLOAD PUSH1 0x20 ADD PUSH2 0x25E SWAP2 SWAP1 PUSH2 0x886 JUMP JUMPDEST PUSH1 0x40 MLOAD PUSH1 0x20 DUP2 DUP4 SUB SUB DUP2 MSTORE SWAP1 PUSH1 0x40 MSTORE DUP1 MLOAD SWAP1 PUSH1 0x20 ADD KECCAK256 SWAP1 POP SWAP2 SWAP1 POP JUMP JUMPDEST PUSH0 DUP2 PUSH1 0x40 MLOAD PUSH1 0x20 ADD PUSH2 0x28D SWAP2 SWAP1 PUSH2 0x906 JUMP JUMPDEST PUSH1 0x40 MLOAD PUSH1 0x20 DUP2 DUP4 SUB SUB DUP2 MSTORE SWAP1 PUSH1 0x40 MSTORE DUP1 MLOAD SWAP1 PUSH1 0x20 ADD KECCAK256 SWAP1 POP SWAP2 SWAP1 POP JUMP JUMPDEST PUSH0 DUP1 PUSH0 PUSH1 0x41 DUP5 MLOAD EQ PUSH2 0x2F1 JUMPI PUSH1 0x40 MLOAD PUSH32 0x8C379A000000000000000000000000000000000000000000000000000000000 DUP2 MSTORE PUSH1 0x4 ADD PUSH2 0x2E8 SWAP1 PUSH2 0x975 JUMP JUMPDEST PUSH1 0x40 MLOAD DUP1 SWAP2 SUB SWAP1 REVERT JUMPDEST PUSH1 0x20 DUP5 ADD MLOAD SWAP3 POP PUSH1 0x40 DUP5 ADD MLOAD SWAP2 POP PUSH1 0x60 DUP5 ADD MLOAD PUSH0 BYTE SWAP1 POP SWAP2 SWAP4 SWAP1 SWAP3 POP JUMP JUMPDEST PUSH0 PUSH1 0x40 MLOAD SWAP1 POP SWAP1 JUMP JUMPDEST PUSH0 DUP1 REVERT JUMPDEST PUSH0 DUP1 REVERT JUMPDEST PUSH0 DUP2 SWAP1 POP SWAP2 SWAP1 POP JUMP JUMPDEST PUSH2 0x332 DUP2 PUSH2 0x320 JUMP JUMPDEST DUP2 EQ PUSH2 0x33C JUMPI PUSH0 DUP1 REVERT JUMPDEST POP JUMP JUMPDEST PUSH0 DUP2 CALLDATALOAD SWAP1 POP PUSH2 0x34D DUP2 PUSH2 0x329 JUMP JUMPDEST SWAP3 SWAP2 POP POP JUMP JUMPDEST PUSH0 DUP1 REVERT JUMPDEST PUSH0 DUP1 REVERT JUMPDEST PUSH0 PUSH1 0x1F NOT PUSH1 0x1F DUP4 ADD AND SWAP1 POP SWAP2 SWAP1 POP JUMP JUMPDEST PUSH32 0x4E487B7100000000000000000000000000000000000000000000000000000000 PUSH0 MSTORE PUSH1 0x41 PUSH1 0x4 MSTORE PUSH1 0x24 PUSH0 REVERT JUMPDEST PUSH2 0x3A1 DUP3 PUSH2 0x35B JUMP JUMPDEST DUP2 ADD DUP2 DUP2 LT PUSH8 0xFFFFFFFFFFFFFFFF DUP3 GT OR ISZERO PUSH2 0x3C0 JUMPI PUSH2 0x3BF PUSH2 0x36B JUMP JUMPDEST JUMPDEST DUP1 PUSH1 0x40 MSTORE POP POP POP JUMP JUMPDEST PUSH0 PUSH2 0x3D2 PUSH2 0x30F JUMP JUMPDEST SWAP1 POP PUSH2 0x3DE DUP3 DUP3 PUSH2 0x398 JUMP JUMPDEST SWAP2 SWAP1 POP JUMP JUMPDEST PUSH0 PUSH8 0xFFFFFFFFFFFFFFFF DUP3 GT ISZERO PUSH2 0x3FD JUMPI PUSH2 0x3FC PUSH2 0x36B JUMP JUMPDEST JUMPDEST PUSH2 0x406 DUP3 PUSH2 0x35B JUMP JUMPDEST SWAP1 POP PUSH1 0x20 DUP2 ADD SWAP1 POP SWAP2 SWAP1 POP JUMP JUMPDEST DUP3 DUP2 DUP4 CALLDATACOPY PUSH0 DUP4 DUP4 ADD MSTORE POP POP POP JUMP JUMPDEST PUSH0 PUSH2 0x433 PUSH2 0x42E DUP5 PUSH2 0x3E3 JUMP JUMPDEST PUSH2 0x3C9 JUMP JUMPDEST SWAP1 POP DUP3 DUP2 MSTORE PUSH1 0x20 DUP2 ADD DUP5 DUP5 DUP5 ADD GT ISZERO PUSH2 0x44F JUMPI PUSH2 0x44E PUSH2 0x357 JUMP JUMPDEST JUMPDEST PUSH2 0x45A DUP5 DUP3 DUP6 PUSH2 0x413 JUMP JUMPDEST POP SWAP4 SWAP3 POP POP POP JUMP JUMPDEST PUSH0 DUP3 PUSH1 0x1F DUP4 ADD SLT PUSH2 0x476 JUMPI PUSH2 0x475 PUSH2 0x353 JUMP JUMPDEST JUMPDEST DUP2 CALLDATALOAD PUSH2 0x486 DUP5 DUP3 PUSH1 0x20 DUP7 ADD PUSH2 0x421 JUMP JUMPDEST SWAP2 POP POP SWAP3 SWAP2 POP POP JUMP JUMPDEST PUSH0 DUP1 PUSH1 0x40 DUP4 DUP6 SUB SLT ISZERO PUSH2 0x4A5 JUMPI PUSH2 0x4A4 PUSH2 0x318 JUMP JUMPDEST JUMPDEST PUSH0 PUSH2 0x4B2 DUP6 DUP3 DUP7 ADD PUSH2 0x33F JUMP JUMPDEST SWAP3 POP POP PUSH1 0x20 DUP4 ADD CALLDATALOAD PUSH8 0xFFFFFFFFFFFFFFFF DUP2 GT ISZERO PUSH2 0x4D3 JUMPI PUSH2 0x4D2 PUSH2 0x31C JUMP JUMPDEST JUMPDEST PUSH2 0x4DF DUP6 DUP3 DUP7 ADD PUSH2 0x462 JUMP JUMPDEST SWAP2 POP POP SWAP3 POP SWAP3 SWAP1 POP JUMP JUMPDEST PUSH0 PUSH20 0xFFFFFFFFFFFFFFFFFFFFFFFFFFFFFFFFFFFFFFFF DUP3 AND SWAP1 POP SWAP2 SWAP1 POP JUMP JUMPDEST PUSH0 PUSH2 0x512 DUP3 PUSH2 0x4E9 JUMP JUMPDEST SWAP1 POP SWAP2 SWAP1 POP JUMP JUMPDEST PUSH2 0x522 DUP2 PUSH2 0x508 JUMP JUMPDEST DUP3 MSTORE POP POP JUMP JUMPDEST PUSH0 PUSH1 0x20 DUP3 ADD SWAP1 POP PUSH2 0x53B PUSH0 DUP4 ADD DUP5 PUSH2 0x519 JUMP JUMPDEST SWAP3 SWAP2 POP POP JUMP JUMPDEST PUSH2 0x54A DUP2 PUSH2 0x508 JUMP JUMPDEST DUP2 EQ PUSH2 0x554 JUMPI PUSH0 DUP1 REVERT JUMPDEST POP JUMP JUMPDEST PUSH0 DUP2 CALLDATALOAD SWAP1 POP PUSH2 0x565 DUP2 PUSH2 0x541 JUMP JUMPDEST SWAP3 SWAP2 POP POP JUMP JUMPDEST PUSH0 PUSH8 0xFFFFFFFFFFFFFFFF DUP3 GT ISZERO PUSH2 0x585 JUMPI PUSH2 0x584 PUSH2 0x36B JUMP JUMPDEST JUMPDEST PUSH2 0x58E DUP3 PUSH2 0x35B JUMP JUMPDEST SWAP1 POP PUSH1 0x20 DUP2 ADD SWAP1 POP SWAP2 SWAP1 POP JUMP JUMPDEST PUSH0 PUSH2 0x5AD PUSH2 0x5A8 DUP5 PUSH2 0x56B JUMP JUMPDEST PUSH2 0x3C9 JUMP JUMPDEST SWAP1 POP DUP3 DUP2 MSTORE PUSH1 0x20 DUP2 ADD DUP5 DUP5 DUP5 ADD GT ISZERO PUSH2 0x5C9 JUMPI PUSH2 0x5C8 PUSH2 0x357 JUMP JUMPDEST JUMPDEST PUSH2 0x5D4 DUP5 DUP3 DUP6 PUSH2 0x413 JUMP JUMPDEST POP SWAP4 SWAP3 POP POP POP JUMP JUMPDEST PUSH0 DUP3 PUSH1 0x1F DUP4 ADD SLT PUSH2 0x5F0 JUMPI PUSH2 0x5EF PUSH2 0x353 JUMP JUMPDEST JUMPDEST DUP2 CALLDATALOAD PUSH2 0x600 DUP5 DUP3 PUSH1 0x20 DUP7 ADD PUSH2 0x59B JUMP JUMPDEST SWAP2 POP POP SWAP3 SWAP2 POP POP JUMP JUMPDEST PUSH0 DUP1 PUSH0 PUSH1 0x60 DUP5 DUP7 SUB SLT ISZERO PUSH2 0x620 JUMPI PUSH2 0x61F PUSH2 0x318 JUMP JUMPDEST JUMPDEST PUSH0 PUSH2 0x62D DUP7 DUP3 DUP8 ADD PUSH2 0x557 JUMP JUMPDEST SWAP4 POP POP PUSH1 0x20 DUP5 ADD CALLDATALOAD PUSH8 0xFFFFFFFFFFFFFFFF DUP2 GT ISZERO PUSH2 0x64E JUMPI PUSH2 0x64D PUSH2 0x31C JUMP JUMPDEST JUMPDEST PUSH2 0x65A DUP7 DUP3 DUP8 ADD PUSH2 0x5DC JUMP JUMPDEST SWAP3 POP POP PUSH1 0x40 DUP5 ADD CALLDATALOAD PUSH8 0xFFFFFFFFFFFFFFFF DUP2 GT ISZERO PUSH2 0x67B JUMPI PUSH2 0x67A PUSH2 0x31C JUMP JUMPDEST JUMPDEST PUSH2 0x687 DUP7 DUP3 DUP8 ADD PUSH2 0x462 JUMP JUMPDEST SWAP2 POP POP SWAP3 POP SWAP3 POP SWAP3 JUMP JUMPDEST PUSH0 DUP2 ISZERO ISZERO SWAP1 POP SWAP2 SWAP1 POP JUMP JUMPDEST PUSH2 0x6A5 DUP2 PUSH2 0x691 JUMP JUMPDEST DUP3 MSTORE POP POP JUMP JUMPDEST PUSH0 PUSH1 0x20 DUP3 ADD SWAP1 POP PUSH2 0x6BE PUSH0 DUP4 ADD DUP5 PUSH2 0x69C JUMP JUMPDEST SWAP3 SWAP2 POP POP JUMP JUMPDEST PUSH0 PUSH1 0x20 DUP3 DUP5 SUB SLT ISZERO PUSH2 0x6D9 JUMPI PUSH2 0x6D8 PUSH2 0x318 JUMP JUMPDEST JUMPDEST PUSH0 DUP3 ADD CALLDATALOAD PUSH8 0xFFFFFFFFFFFFFFFF DUP2 GT ISZERO PUSH2 0x6F6 JUMPI PUSH2 0x6F5 PUSH2 0x31C JUMP JUMPDEST JUMPDEST PUSH2 0x702 DUP5 DUP3 DUP6 ADD PUSH2 0x5DC JUMP JUMPDEST SWAP2 POP POP SWAP3 SWAP2 POP POP JUMP JUMPDEST PUSH2 0x714 DUP2 PUSH2 0x320 JUMP JUMPDEST DUP3 MSTORE POP POP JUMP JUMPDEST PUSH0 PUSH1 0x20 DUP3 ADD SWAP1 POP PUSH2 0x72D PUSH0 DUP4 ADD DUP5 PUSH2 0x70B JUMP JUMPDEST SWAP3 SWAP2 POP POP JUMP JUMPDEST PUSH0 PUSH1 0x20 DUP3 DUP5 SUB SLT ISZERO PUSH2 0x748 JUMPI PUSH2 0x747 PUSH2 0x318 JUMP JUMPDEST JUMPDEST PUSH0 PUSH2 0x755 DUP5 DUP3 DUP6 ADD PUSH2 0x33F JUMP JUMPDEST SWAP2 POP POP SWAP3 SWAP2 POP POP JUMP JUMPDEST PUSH0 PUSH1 0xFF DUP3 AND SWAP1 POP SWAP2 SWAP1 POP JUMP JUMPDEST PUSH2 0x773 DUP2 PUSH2 0x75E JUMP JUMPDEST DUP3 MSTORE POP POP JUMP JUMPDEST PUSH0 PUSH1 0x80 DUP3 ADD SWAP1 POP PUSH2 0x78C PUSH0 DUP4 ADD DUP8 PUSH2 0x70B JUMP JUMPDEST PUSH2 0x799 PUSH1 0x20 DUP4 ADD DUP7 PUSH2 0x76A JUMP JUMPDEST PUSH2 0x7A6 PUSH1 0x40 DUP4 ADD DUP6 PUSH2 0x70B JUMP JUMPDEST PUSH2 0x7B3 PUSH1 0x60 DUP4 ADD DUP5 PUSH2 0x70B JUMP JUMPDEST SWAP6 SWAP5 POP POP POP POP POP JUMP JUMPDEST PUSH0 DUP3 DUP3 MSTORE PUSH1 0x20 DUP3 ADD SWAP1 POP SWAP3 SWAP2 POP POP JUMP JUMPDEST PUSH32 0x45434453413A20696E76616C6964207369676E61747572650000000000000000 PUSH0 DUP3 ADD MSTORE POP JUMP JUMPDEST PUSH0 PUSH2 0x800 PUSH1 0x18 DUP4 PUSH2 0x7BC JUMP JUMPDEST SWAP2 POP PUSH2 0x80B DUP3 PUSH2 0x7CC JUMP JUMPDEST PUSH1 0x20 DUP3 ADD SWAP1 POP SWAP2 SWAP1 POP JUMP JUMPDEST PUSH0 PUSH1 0x20 DUP3 ADD SWAP1 POP DUP2 DUP2 SUB PUSH0 DUP4 ADD MSTORE PUSH2 0x82D DUP2 PUSH2 0x7F4 JUMP JUMPDEST SWAP1 POP SWAP2 SWAP1 POP JUMP JUMPDEST PUSH0 DUP2 MLOAD SWAP1 POP SWAP2 SWAP1 POP JUMP JUMPDEST PUSH0 DUP2 SWAP1 POP SWAP3 SWAP2 POP POP JUMP JUMPDEST DUP3 DUP2 DUP4 MCOPY PUSH0 DUP4 DUP4 ADD MSTORE POP POP POP JUMP JUMPDEST PUSH0 PUSH2 0x860 DUP3 PUSH2 0x834 JUMP JUMPDEST PUSH2 0x86A DUP2 DUP6 PUSH2 0x83E JUMP JUMPDEST SWAP4 POP PUSH2 0x87A DUP2 DUP6 PUSH1 0x20 DUP7 ADD PUSH2 0x848 JUMP JUMPDEST DUP1 DUP5 ADD SWAP2 POP POP SWAP3 SWAP2 POP POP JUMP JUMPDEST PUSH0 PUSH2 0x891 DUP3 DUP5 PUSH2 0x856 JUMP JUMPDEST SWAP2 POP DUP2 SWAP1 POP SWAP3 SWAP2 POP POP JUMP JUMPDEST PUSH32 0x19457468657265756D205369676E6564204D6573736167653A0A333200000000 PUSH0 DUP3 ADD MSTORE POP JUMP JUMPDEST PUSH0 PUSH2 0x8D0 PUSH1 0x1C DUP4 PUSH2 0x83E JUMP JUMPDEST SWAP2 POP PUSH2 0x8DB DUP3 PUSH2 0x89C JUMP JUMPDEST PUSH1 0x1C DUP3 ADD SWAP1 POP SWAP2 SWAP1 POP JUMP JUMPDEST PUSH0 DUP2 SWAP1 POP SWAP2 SWAP1 POP JUMP JUMPDEST PUSH2 0x900 PUSH2 0x8FB DUP3 PUSH2 0x320 JUMP JUMPDEST PUSH2 0x8E6 JUMP JUMPDEST DUP3 MSTORE POP POP JUMP JUMPDEST PUSH0 PUSH2 0x910 DUP3 PUSH2 0x8C4 JUMP JUMPDEST SWAP2 POP PUSH2 0x91C DUP3 DUP5 PUSH2 0x8EF JUMP JUMPDEST PUSH1 0x20 DUP3 ADD SWAP2 POP DUP2 SWAP1 POP SWAP3 SWAP2 POP POP JUMP JUMPDEST PUSH32 0x696E76616C6964207369676E6174757265206C656E6774680000000000000000 PUSH0 DUP3 ADD MSTORE POP JUMP JUMPDEST PUSH0 PUSH2 0x95F PUSH1 0x18 DUP4 PUSH2 0x7BC JUMP JUMPDEST SWAP2 POP PUSH2 0x96A DUP3 PUSH2 0x92B JUMP JUMPDEST PUSH1 0x20 DUP3 ADD SWAP1 POP SWAP2 SWAP1 POP JUMP JUMPDEST PUSH0 PUSH1 0x20 DUP3 ADD SWAP1 POP DUP2 DUP2 SUB PUSH0 DUP4 ADD MSTORE PUSH2 0x98C DUP2 PUSH2 0x953 JUMP JUMPDEST SWAP1 POP SWAP2 SWAP1 POP JUMP INVALID LOG2 PUSH5 0x6970667358 0x22 SLT KECCAK256 TLOAD 0xF7 0xD0 0xD7 0xCC EXTCODESIZE 0x29 COINBASE PUSH2 0x2099 NOT LOG2 OR 0xCE SMOD NUMBER LOG4 SWAP13 SWAP3 0xED SHL PUSH24 0x7AA2F833BD5787B64736F6C634300081A003300000000 "
				},
				"gasEstimates": {
					"creation": {
						"codeDepositCost": "501000",
						"executionCost": "535",
						"totalCost": "501535"
					},
					"external": {
						"getEthSignedMessageHash(bytes32)": "infinite",
						"getMessageHash(string)": "infinite",
						"recover(bytes32,bytes)": "infinite",
						"verify(address,string,bytes)": "infinite"
					},
					"internal": {
						"splitSignature(bytes memory)": "infinite"
					}
				},
				"methodIdentifiers": {
					"getEthSignedMessageHash(bytes32)": "fa540801",
					"getMessageHash(string)": "b446f3b2",
					"recover(bytes32,bytes)": "19045a25",
					"verify(address,string,bytes)": "2dd34f0f"
				}
			},
			"storageLayout": {
				"storage": [],
				"types": null
			},
			"userdoc": {
				"kind": "user",
				"methods": {},
				"version": 1
			}
		}
	}
}