{
	"04/MultiSigWallet.sol": {
		"MultiSigWallet": {
			"abi": [
				{
					"inputs": [
						{
							"internalType": "address[]",
							"name": "_owners",
							"type": "address[]"
						},
						{
							"internalType": "uint256",
							"name": "_required",
							"type": "uint256"
						}
					],
					"stateMutability": "nonpayable",
					"type": "constructor"
				},
				{
					"anonymous": false,
					"inputs": [
						{
							"indexed": true,
							"internalType": "address",
							"name": "sender",
							"type": "address"
						},
						{
							"indexed": true,
							"internalType": "uint256",
							"name": "txId",
							"type": "uint256"
						}
					],
					"name": "Approve",
					"type": "event"
				},
				{
					"anonymous": false,
					"inputs": [
						{
							"indexed": true,
							"internalType": "address",
							"name": "sender",
							"type": "address"
						},
						{
							"indexed": false,
							"internalType": "uint256",
							"name": "amount",
							"type": "uint256"
						}
					],
					"name": "Deposit",
					"type": "event"
				},
				{
					"anonymous": false,
					"inputs": [
						{
							"indexed": true,
							"internalType": "uint256",
							"name": "txId",
							"type": "uint256"
						}
					],
					"name": "Execute",
					"type": "event"
				},
				{
					"anonymous": false,
					"inputs": [
						{
							"indexed": true,
							"internalType": "address",
							"name": "sender",
							"type": "address"
						},
						{
							"indexed": true,
							"internalType": "uint256",
							"name": "txId",
							"type": "uint256"
						}
					],
					"name": "Revoke",
					"type": "event"
				},
				{
					"anonymous": false,
					"inputs": [
						{
							"indexed": true,
							"internalType": "uint256",
							"name": "txId",
							"type": "uint256"
						}
					],
					"name": "Submit",
					"type": "event"
				},
				{
					"inputs": [
						{
							"internalType": "uint256",
							"name": "_txId",
							"type": "uint256"
						}
					],
					"name": "approve",
					"outputs": [],
					"stateMutability": "nonpayable",
					"type": "function"
				},
				{
					"inputs": [
						{
							"internalType": "uint256",
							"name": "",
							"type": "uint256"
						},
						{
							"internalType": "address",
							"name": "",
							"type": "address"
						}
					],
					"name": "approved",
					"outputs": [
						{
							"internalType": "bool",
							"name": "",
							"type": "bool"
						}
					],
					"stateMutability": "view",
					"type": "function"
				},
				{
					"inputs": [
						{
							"internalType": "uint256",
							"name": "_txId",
							"type": "uint256"
						}
					],
					"name": "execute",
					"outputs": [],
					"stateMutability": "nonpayable",
					"type": "function"
				},
				{
					"inputs": [
						{
							"internalType": "address",
							"name": "",
							"type": "address"
						}
					],
					"name": "isOwner",
					"outputs": [
						{
							"internalType": "bool",
							"name": "",
							"type": "bool"
						}
					],
					"stateMutability": "view",
					"type": "function"
				},
				{
					"inputs": [
						{
							"internalType": "uint256",
							"name": "",
							"type": "uint256"
						}
					],
					"name": "owners",
					"outputs": [
						{
							"internalType": "address",
							"name": "",
							"type": "address"
						}
					],
					"stateMutability": "view",
					"type": "function"
				},
				{
					"inputs": [],
					"name": "required",
					"outputs": [
						{
							"internalType": "uint256",
							"name": "",
							"type": "uint256"
						}
					],
					"stateMutability": "view",
					"type": "function"
				},
				{
					"inputs": [
						{
							"internalType": "uint256",
							"name": "_txId",
							"type": "uint256"
						}
					],
					"name": "revode",
					"outputs": [],
					"stateMutability": "nonpayable",
					"type": "function"
				},
				{
					"inputs": [
						{
							"internalType": "address",
							"name": "_to",
							"type": "address"
						},
						{
							"internalType": "uint256",
							"name": "_value",
							"type": "uint256"
						},
						{
							"internalType": "bytes",
							"name": "_data",
							"type": "bytes"
						}
					],
					"name": "submit",
					"outputs": [],
					"stateMutability": "nonpayable",
					"type": "function"
				},
				{
					"stateMutability": "payable",
					"type": "receive"
				}
			],
			"devdoc": {
				"kind": "dev",
				"methods": {},
				"version": 1
			},
			"evm": {
				"assembly": "    /* \"04/MultiSigWallet.sol\":57:3072  contract MultiSigWallet {... */\n  mstore(0x40, 0x80)\n    /* \"04/MultiSigWallet.sol\":1126:1622  constructor(address[] memory _owners, uint _required) {... */\n  callvalue\n  dup1\n  iszero\n  tag_1\n  jumpi\n  0x00\n  dup1\n  revert\ntag_1:\n  pop\n  mload(0x40)\n  sub(codesize, bytecodeSize)\n  dup1\n  bytecodeSize\n  dup4\n  codecopy\n  dup2\n  dup2\n  add\n  0x40\n  mstore\n  dup2\n  add\n  swap1\n  tag_2\n  swap2\n  swap1\n  tag_3\n  jump\t// in\ntag_2:\n    /* \"04/MultiSigWallet.sol\":1215:1216  0 */\n  0x00\n    /* \"04/MultiSigWallet.sol\":1198:1205  _owners */\n  dup3\n    /* \"04/MultiSigWallet.sol\":1198:1212  _owners.length */\n  mload\n    /* \"04/MultiSigWallet.sol\":1198:1216  _owners.length > 0 */\n  gt\n    /* \"04/MultiSigWallet.sol\":1190:1236  require(_owners.length > 0, \"owners required\") */\n  tag_6\n  jumpi\n  mload(0x40)\n  0x08c379a000000000000000000000000000000000000000000000000000000000\n  dup2\n  mstore\n  0x04\n  add\n  tag_7\n  swap1\n  tag_8\n  jump\t// in\ntag_7:\n  mload(0x40)\n  dup1\n  swap2\n  sub\n  swap1\n  revert\ntag_6:\n    /* \"04/MultiSigWallet.sol\":1266:1267  0 */\n  0x00\n    /* \"04/MultiSigWallet.sol\":1254:1263  _required */\n  dup2\n    /* \"04/MultiSigWallet.sol\":1254:1267  _required > 0 */\n  gt\n    /* \"04/MultiSigWallet.sol\":1246:1292  require(_required > 0, \"invalid required num\") */\n  tag_9\n  jumpi\n  mload(0x40)\n  0x08c379a000000000000000000000000000000000000000000000000000000000\n  dup2\n  mstore\n  0x04\n  add\n  tag_10\n  swap1\n  tag_11\n  jump\t// in\ntag_10:\n  mload(0x40)\n  dup1\n  swap2\n  sub\n  swap1\n  revert\ntag_9:\n    /* \"04/MultiSigWallet.sol\":1308:1314  uint i */\n  0x00\n    /* \"04/MultiSigWallet.sol\":1303:1585  for (uint i = 0; i < _owners.length; i++) {... */\ntag_12:\n    /* \"04/MultiSigWallet.sol\":1324:1331  _owners */\n  dup3\n    /* \"04/MultiSigWallet.sol\":1324:1338  _owners.length */\n  mload\n    /* \"04/MultiSigWallet.sol\":1320:1321  i */\n  dup2\n    /* \"04/MultiSigWallet.sol\":1320:1338  i < _owners.length */\n  lt\n    /* \"04/MultiSigWallet.sol\":1303:1585  for (uint i = 0; i < _owners.length; i++) {... */\n  iszero\n  tag_13\n  jumpi\n    /* \"04/MultiSigWallet.sol\":1359:1372  address owner */\n  0x00\n    /* \"04/MultiSigWallet.sol\":1375:1381  owners */\n  dup1\n    /* \"04/MultiSigWallet.sol\":1382:1383  i */\n  dup3\n    /* \"04/MultiSigWallet.sol\":1375:1384  owners[i] */\n  dup2\n  sload\n  dup2\n  lt\n  tag_15\n  jumpi\n  tag_16\n  tag_17\n  jump\t// in\ntag_16:\ntag_15:\n  swap1\n  0x00\n  mstore\n  keccak256(0x00, 0x20)\n  add\n  0x00\n  swap1\n  sload\n  swap1\n  0x0100\n  exp\n  swap1\n  div\n  0xffffffffffffffffffffffffffffffffffffffff\n  and\n    /* \"04/MultiSigWallet.sol\":1359:1384  address owner = owners[i] */\n  swap1\n  pop\n    /* \"04/MultiSigWallet.sol\":1424:1425  0 */\n  0x00\n    /* \"04/MultiSigWallet.sol\":1407:1426  owner != address(0) */\n  0xffffffffffffffffffffffffffffffffffffffff\n  and\n    /* \"04/MultiSigWallet.sol\":1407:1412  owner */\n  dup2\n    /* \"04/MultiSigWallet.sol\":1407:1426  owner != address(0) */\n  0xffffffffffffffffffffffffffffffffffffffff\n  and\n  sub\n    /* \"04/MultiSigWallet.sol\":1399:1444  require(owner != address(0), \"invalid owner\") */\n  tag_19\n  jumpi\n  mload(0x40)\n  0x08c379a000000000000000000000000000000000000000000000000000000000\n  dup2\n  mstore\n  0x04\n  add\n  tag_20\n  swap1\n  tag_21\n  jump\t// in\ntag_20:\n  mload(0x40)\n  dup1\n  swap2\n  sub\n  swap1\n  revert\ntag_19:\n    /* \"04/MultiSigWallet.sol\":1467:1474  isOwner */\n  0x01\n    /* \"04/MultiSigWallet.sol\":1467:1481  isOwner[owner] */\n  0x00\n    /* \"04/MultiSigWallet.sol\":1475:1480  owner */\n  dup3\n    /* \"04/MultiSigWallet.sol\":1467:1481  isOwner[owner] */\n  0xffffffffffffffffffffffffffffffffffffffff\n  and\n  0xffffffffffffffffffffffffffffffffffffffff\n  and\n  dup2\n  mstore\n  0x20\n  add\n  swap1\n  dup2\n  mstore\n  0x20\n  add\n  0x00\n  keccak256\n  0x00\n  swap1\n  sload\n  swap1\n  0x0100\n  exp\n  swap1\n  div\n  0xff\n  and\n    /* \"04/MultiSigWallet.sol\":1466:1481  !isOwner[owner] */\n  iszero\n    /* \"04/MultiSigWallet.sol\":1458:1505  require(!isOwner[owner], \"owner is not unique\") */\n  tag_22\n  jumpi\n  mload(0x40)\n  0x08c379a000000000000000000000000000000000000000000000000000000000\n  dup2\n  mstore\n  0x04\n  add\n  tag_23\n  swap1\n  tag_24\n  jump\t// in\ntag_23:\n  mload(0x40)\n  dup1\n  swap2\n  sub\n  swap1\n  revert\ntag_22:\n    /* \"04/MultiSigWallet.sol\":1520:1526  owners */\n  0x00\n    /* \"04/MultiSigWallet.sol\":1532:1537  owner */\n  dup2\n    /* \"04/MultiSigWallet.sol\":1520:1538  owners.push(owner) */\n  swap1\n  dup1\n  0x01\n  dup2\n  sload\n  add\n  dup1\n  dup3\n  sstore\n  dup1\n  swap2\n  pop\n  pop\n  0x01\n  swap1\n  sub\n  swap1\n  0x00\n  mstore\n  keccak256(0x00, 0x20)\n  add\n  0x00\n  swap1\n  swap2\n  swap1\n  swap2\n  swap1\n  swap2\n  0x0100\n  exp\n  dup2\n  sload\n  dup2\n  0xffffffffffffffffffffffffffffffffffffffff\n  mul\n  not\n  and\n  swap1\n  dup4\n  0xffffffffffffffffffffffffffffffffffffffff\n  and\n  mul\n  or\n  swap1\n  sstore\n  pop\n    /* \"04/MultiSigWallet.sol\":1569:1574  false */\n  0x00\n    /* \"04/MultiSigWallet.sol\":1552:1559  isOwner */\n  0x01\n    /* \"04/MultiSigWallet.sol\":1552:1566  isOwner[owner] */\n  0x00\n    /* \"04/MultiSigWallet.sol\":1560:1565  owner */\n  dup4\n    /* \"04/MultiSigWallet.sol\":1552:1566  isOwner[owner] */\n  0xffffffffffffffffffffffffffffffffffffffff\n  and\n  0xffffffffffffffffffffffffffffffffffffffff\n  and\n  dup2\n  mstore\n  0x20\n  add\n  swap1\n  dup2\n  mstore\n  0x20\n  add\n  0x00\n  keccak256\n  0x00\n    /* \"04/MultiSigWallet.sol\":1552:1574  isOwner[owner] = false */\n  0x0100\n  exp\n  dup2\n  sload\n  dup2\n  0xff\n  mul\n  not\n  and\n  swap1\n  dup4\n  iszero\n  iszero\n  mul\n  or\n  swap1\n  sstore\n  pop\n    /* \"04/MultiSigWallet.sol\":1345:1585  {... */\n  pop\n    /* \"04/MultiSigWallet.sol\":1340:1343  i++ */\n  dup1\n  dup1\n  0x01\n  add\n  swap2\n  pop\n  pop\n    /* \"04/MultiSigWallet.sol\":1303:1585  for (uint i = 0; i < _owners.length; i++) {... */\n  jump(tag_12)\ntag_13:\n  pop\n    /* \"04/MultiSigWallet.sol\":1606:1615  _required */\n  dup1\n    /* \"04/MultiSigWallet.sol\":1595:1603  required */\n  0x02\n    /* \"04/MultiSigWallet.sol\":1595:1615  required = _required */\n  dup2\n  swap1\n  sstore\n  pop\n    /* \"04/MultiSigWallet.sol\":1126:1622  constructor(address[] memory _owners, uint _required) {... */\n  pop\n  pop\n    /* \"04/MultiSigWallet.sol\":57:3072  contract MultiSigWallet {... */\n  jump(tag_26)\n    /* \"#utility.yul\":7:82   */\ntag_27:\n    /* \"#utility.yul\":40:46   */\n  0x00\n    /* \"#utility.yul\":73:75   */\n  0x40\n    /* \"#utility.yul\":67:76   */\n  mload\n    /* \"#utility.yul\":57:76   */\n  swap1\n  pop\n    /* \"#utility.yul\":7:82   */\n  swap1\n  jump\t// out\n    /* \"#utility.yul\":88:205   */\ntag_28:\n    /* \"#utility.yul\":197:198   */\n  0x00\n    /* \"#utility.yul\":194:195   */\n  dup1\n    /* \"#utility.yul\":187:199   */\n  revert\n    /* \"#utility.yul\":211:328   */\ntag_29:\n    /* \"#utility.yul\":320:321   */\n  0x00\n    /* \"#utility.yul\":317:318   */\n  dup1\n    /* \"#utility.yul\":310:322   */\n  revert\n    /* \"#utility.yul\":334:451   */\ntag_30:\n    /* \"#utility.yul\":443:444   */\n  0x00\n    /* \"#utility.yul\":440:441   */\n  dup1\n    /* \"#utility.yul\":433:445   */\n  revert\n    /* \"#utility.yul\":457:559   */\ntag_31:\n    /* \"#utility.yul\":498:504   */\n  0x00\n    /* \"#utility.yul\":549:551   */\n  0x1f\n    /* \"#utility.yul\":545:552   */\n  not\n    /* \"#utility.yul\":540:542   */\n  0x1f\n    /* \"#utility.yul\":533:538   */\n  dup4\n    /* \"#utility.yul\":529:543   */\n  add\n    /* \"#utility.yul\":525:553   */\n  and\n    /* \"#utility.yul\":515:553   */\n  swap1\n  pop\n    /* \"#utility.yul\":457:559   */\n  swap2\n  swap1\n  pop\n  jump\t// out\n    /* \"#utility.yul\":565:745   */\ntag_32:\n    /* \"#utility.yul\":613:690   */\n  0x4e487b7100000000000000000000000000000000000000000000000000000000\n    /* \"#utility.yul\":610:611   */\n  0x00\n    /* \"#utility.yul\":603:691   */\n  mstore\n    /* \"#utility.yul\":710:714   */\n  0x41\n    /* \"#utility.yul\":707:708   */\n  0x04\n    /* \"#utility.yul\":700:715   */\n  mstore\n    /* \"#utility.yul\":734:738   */\n  0x24\n    /* \"#utility.yul\":731:732   */\n  0x00\n    /* \"#utility.yul\":724:739   */\n  revert\n    /* \"#utility.yul\":751:1032   */\ntag_33:\n    /* \"#utility.yul\":834:861   */\n  tag_63\n    /* \"#utility.yul\":856:860   */\n  dup3\n    /* \"#utility.yul\":834:861   */\n  tag_31\n  jump\t// in\ntag_63:\n    /* \"#utility.yul\":826:832   */\n  dup2\n    /* \"#utility.yul\":822:862   */\n  add\n    /* \"#utility.yul\":964:970   */\n  dup2\n    /* \"#utility.yul\":952:962   */\n  dup2\n    /* \"#utility.yul\":949:971   */\n  lt\n    /* \"#utility.yul\":928:946   */\n  0xffffffffffffffff\n    /* \"#utility.yul\":916:926   */\n  dup3\n    /* \"#utility.yul\":913:947   */\n  gt\n    /* \"#utility.yul\":910:972   */\n  or\n    /* \"#utility.yul\":907:995   */\n  iszero\n  tag_64\n  jumpi\n    /* \"#utility.yul\":975:993   */\n  tag_65\n  tag_32\n  jump\t// in\ntag_65:\n    /* \"#utility.yul\":907:995   */\ntag_64:\n    /* \"#utility.yul\":1015:1025   */\n  dup1\n    /* \"#utility.yul\":1011:1013   */\n  0x40\n    /* \"#utility.yul\":1004:1026   */\n  mstore\n    /* \"#utility.yul\":794:1032   */\n  pop\n    /* \"#utility.yul\":751:1032   */\n  pop\n  pop\n  jump\t// out\n    /* \"#utility.yul\":1038:1167   */\ntag_34:\n    /* \"#utility.yul\":1072:1078   */\n  0x00\n    /* \"#utility.yul\":1099:1119   */\n  tag_67\n  tag_27\n  jump\t// in\ntag_67:\n    /* \"#utility.yul\":1089:1119   */\n  swap1\n  pop\n    /* \"#utility.yul\":1128:1161   */\n  tag_68\n    /* \"#utility.yul\":1156:1160   */\n  dup3\n    /* \"#utility.yul\":1148:1154   */\n  dup3\n    /* \"#utility.yul\":1128:1161   */\n  tag_33\n  jump\t// in\ntag_68:\n    /* \"#utility.yul\":1038:1167   */\n  swap2\n  swap1\n  pop\n  jump\t// out\n    /* \"#utility.yul\":1173:1484   */\ntag_35:\n    /* \"#utility.yul\":1250:1254   */\n  0x00\n    /* \"#utility.yul\":1340:1358   */\n  0xffffffffffffffff\n    /* \"#utility.yul\":1332:1338   */\n  dup3\n    /* \"#utility.yul\":1329:1359   */\n  gt\n    /* \"#utility.yul\":1326:1382   */\n  iszero\n  tag_70\n  jumpi\n    /* \"#utility.yul\":1362:1380   */\n  tag_71\n  tag_32\n  jump\t// in\ntag_71:\n    /* \"#utility.yul\":1326:1382   */\ntag_70:\n    /* \"#utility.yul\":1412:1416   */\n  0x20\n    /* \"#utility.yul\":1404:1410   */\n  dup3\n    /* \"#utility.yul\":1400:1417   */\n  mul\n    /* \"#utility.yul\":1392:1417   */\n  swap1\n  pop\n    /* \"#utility.yul\":1472:1476   */\n  0x20\n    /* \"#utility.yul\":1466:1470   */\n  dup2\n    /* \"#utility.yul\":1462:1477   */\n  add\n    /* \"#utility.yul\":1454:1477   */\n  swap1\n  pop\n    /* \"#utility.yul\":1173:1484   */\n  swap2\n  swap1\n  pop\n  jump\t// out\n    /* \"#utility.yul\":1490:1607   */\ntag_36:\n    /* \"#utility.yul\":1599:1600   */\n  0x00\n    /* \"#utility.yul\":1596:1597   */\n  dup1\n    /* \"#utility.yul\":1589:1601   */\n  revert\n    /* \"#utility.yul\":1613:1739   */\ntag_37:\n    /* \"#utility.yul\":1650:1657   */\n  0x00\n    /* \"#utility.yul\":1690:1732   */\n  0xffffffffffffffffffffffffffffffffffffffff\n    /* \"#utility.yul\":1683:1688   */\n  dup3\n    /* \"#utility.yul\":1679:1733   */\n  and\n    /* \"#utility.yul\":1668:1733   */\n  swap1\n  pop\n    /* \"#utility.yul\":1613:1739   */\n  swap2\n  swap1\n  pop\n  jump\t// out\n    /* \"#utility.yul\":1745:1841   */\ntag_38:\n    /* \"#utility.yul\":1782:1789   */\n  0x00\n    /* \"#utility.yul\":1811:1835   */\n  tag_75\n    /* \"#utility.yul\":1829:1834   */\n  dup3\n    /* \"#utility.yul\":1811:1835   */\n  tag_37\n  jump\t// in\ntag_75:\n    /* \"#utility.yul\":1800:1835   */\n  swap1\n  pop\n    /* \"#utility.yul\":1745:1841   */\n  swap2\n  swap1\n  pop\n  jump\t// out\n    /* \"#utility.yul\":1847:1969   */\ntag_39:\n    /* \"#utility.yul\":1920:1944   */\n  tag_77\n    /* \"#utility.yul\":1938:1943   */\n  dup2\n    /* \"#utility.yul\":1920:1944   */\n  tag_38\n  jump\t// in\ntag_77:\n    /* \"#utility.yul\":1913:1918   */\n  dup2\n    /* \"#utility.yul\":1910:1945   */\n  eq\n    /* \"#utility.yul\":1900:1963   */\n  tag_78\n  jumpi\n    /* \"#utility.yul\":1959:1960   */\n  0x00\n    /* \"#utility.yul\":1956:1957   */\n  dup1\n    /* \"#utility.yul\":1949:1961   */\n  revert\n    /* \"#utility.yul\":1900:1963   */\ntag_78:\n    /* \"#utility.yul\":1847:1969   */\n  pop\n  jump\t// out\n    /* \"#utility.yul\":1975:2118   */\ntag_40:\n    /* \"#utility.yul\":2032:2037   */\n  0x00\n    /* \"#utility.yul\":2063:2069   */\n  dup2\n    /* \"#utility.yul\":2057:2070   */\n  mload\n    /* \"#utility.yul\":2048:2070   */\n  swap1\n  pop\n    /* \"#utility.yul\":2079:2112   */\n  tag_80\n    /* \"#utility.yul\":2106:2111   */\n  dup2\n    /* \"#utility.yul\":2079:2112   */\n  tag_39\n  jump\t// in\ntag_80:\n    /* \"#utility.yul\":1975:2118   */\n  swap3\n  swap2\n  pop\n  pop\n  jump\t// out\n    /* \"#utility.yul\":2141:2873   */\ntag_41:\n    /* \"#utility.yul\":2248:2253   */\n  0x00\n    /* \"#utility.yul\":2273:2354   */\n  tag_82\n    /* \"#utility.yul\":2289:2353   */\n  tag_83\n    /* \"#utility.yul\":2346:2352   */\n  dup5\n    /* \"#utility.yul\":2289:2353   */\n  tag_35\n  jump\t// in\ntag_83:\n    /* \"#utility.yul\":2273:2354   */\n  tag_34\n  jump\t// in\ntag_82:\n    /* \"#utility.yul\":2264:2354   */\n  swap1\n  pop\n    /* \"#utility.yul\":2374:2379   */\n  dup1\n    /* \"#utility.yul\":2403:2409   */\n  dup4\n    /* \"#utility.yul\":2396:2401   */\n  dup3\n    /* \"#utility.yul\":2389:2410   */\n  mstore\n    /* \"#utility.yul\":2437:2441   */\n  0x20\n    /* \"#utility.yul\":2430:2435   */\n  dup3\n    /* \"#utility.yul\":2426:2442   */\n  add\n    /* \"#utility.yul\":2419:2442   */\n  swap1\n  pop\n    /* \"#utility.yul\":2490:2494   */\n  0x20\n    /* \"#utility.yul\":2482:2488   */\n  dup5\n    /* \"#utility.yul\":2478:2495   */\n  mul\n    /* \"#utility.yul\":2470:2476   */\n  dup4\n    /* \"#utility.yul\":2466:2496   */\n  add\n    /* \"#utility.yul\":2519:2522   */\n  dup6\n    /* \"#utility.yul\":2511:2517   */\n  dup2\n    /* \"#utility.yul\":2508:2523   */\n  gt\n    /* \"#utility.yul\":2505:2627   */\n  iszero\n  tag_84\n  jumpi\n    /* \"#utility.yul\":2538:2617   */\n  tag_85\n  tag_36\n  jump\t// in\ntag_85:\n    /* \"#utility.yul\":2505:2627   */\ntag_84:\n    /* \"#utility.yul\":2653:2659   */\n  dup4\n    /* \"#utility.yul\":2636:2867   */\ntag_86:\n    /* \"#utility.yul\":2670:2676   */\n  dup2\n    /* \"#utility.yul\":2665:2668   */\n  dup2\n    /* \"#utility.yul\":2662:2677   */\n  lt\n    /* \"#utility.yul\":2636:2867   */\n  iszero\n  tag_88\n  jumpi\n    /* \"#utility.yul\":2745:2748   */\n  dup1\n    /* \"#utility.yul\":2774:2822   */\n  tag_89\n    /* \"#utility.yul\":2818:2821   */\n  dup9\n    /* \"#utility.yul\":2806:2816   */\n  dup3\n    /* \"#utility.yul\":2774:2822   */\n  tag_40\n  jump\t// in\ntag_89:\n    /* \"#utility.yul\":2769:2772   */\n  dup5\n    /* \"#utility.yul\":2762:2823   */\n  mstore\n    /* \"#utility.yul\":2852:2856   */\n  0x20\n    /* \"#utility.yul\":2847:2850   */\n  dup5\n    /* \"#utility.yul\":2843:2857   */\n  add\n    /* \"#utility.yul\":2836:2857   */\n  swap4\n  pop\n    /* \"#utility.yul\":2712:2867   */\n  pop\n    /* \"#utility.yul\":2696:2700   */\n  0x20\n    /* \"#utility.yul\":2691:2694   */\n  dup2\n    /* \"#utility.yul\":2687:2701   */\n  add\n    /* \"#utility.yul\":2680:2701   */\n  swap1\n  pop\n    /* \"#utility.yul\":2636:2867   */\n  jump(tag_86)\ntag_88:\n    /* \"#utility.yul\":2640:2661   */\n  pop\n    /* \"#utility.yul\":2254:2873   */\n  pop\n  pop\n    /* \"#utility.yul\":2141:2873   */\n  swap4\n  swap3\n  pop\n  pop\n  pop\n  jump\t// out\n    /* \"#utility.yul\":2896:3281   */\ntag_42:\n    /* \"#utility.yul\":2978:2983   */\n  0x00\n    /* \"#utility.yul\":3027:3030   */\n  dup3\n    /* \"#utility.yul\":3020:3024   */\n  0x1f\n    /* \"#utility.yul\":3012:3018   */\n  dup4\n    /* \"#utility.yul\":3008:3025   */\n  add\n    /* \"#utility.yul\":3004:3031   */\n  slt\n    /* \"#utility.yul\":2994:3116   */\n  tag_91\n  jumpi\n    /* \"#utility.yul\":3035:3114   */\n  tag_92\n  tag_30\n  jump\t// in\ntag_92:\n    /* \"#utility.yul\":2994:3116   */\ntag_91:\n    /* \"#utility.yul\":3145:3151   */\n  dup2\n    /* \"#utility.yul\":3139:3152   */\n  mload\n    /* \"#utility.yul\":3170:3275   */\n  tag_93\n    /* \"#utility.yul\":3271:3274   */\n  dup5\n    /* \"#utility.yul\":3263:3269   */\n  dup3\n    /* \"#utility.yul\":3256:3260   */\n  0x20\n    /* \"#utility.yul\":3248:3254   */\n  dup7\n    /* \"#utility.yul\":3244:3261   */\n  add\n    /* \"#utility.yul\":3170:3275   */\n  tag_41\n  jump\t// in\ntag_93:\n    /* \"#utility.yul\":3161:3275   */\n  swap2\n  pop\n    /* \"#utility.yul\":2984:3281   */\n  pop\n    /* \"#utility.yul\":2896:3281   */\n  swap3\n  swap2\n  pop\n  pop\n  jump\t// out\n    /* \"#utility.yul\":3287:3364   */\ntag_43:\n    /* \"#utility.yul\":3324:3331   */\n  0x00\n    /* \"#utility.yul\":3353:3358   */\n  dup2\n    /* \"#utility.yul\":3342:3358   */\n  swap1\n  pop\n    /* \"#utility.yul\":3287:3364   */\n  swap2\n  swap1\n  pop\n  jump\t// out\n    /* \"#utility.yul\":3370:3492   */\ntag_44:\n    /* \"#utility.yul\":3443:3467   */\n  tag_96\n    /* \"#utility.yul\":3461:3466   */\n  dup2\n    /* \"#utility.yul\":3443:3467   */\n  tag_43\n  jump\t// in\ntag_96:\n    /* \"#utility.yul\":3436:3441   */\n  dup2\n    /* \"#utility.yul\":3433:3468   */\n  eq\n    /* \"#utility.yul\":3423:3486   */\n  tag_97\n  jumpi\n    /* \"#utility.yul\":3482:3483   */\n  0x00\n    /* \"#utility.yul\":3479:3480   */\n  dup1\n    /* \"#utility.yul\":3472:3484   */\n  revert\n    /* \"#utility.yul\":3423:3486   */\ntag_97:\n    /* \"#utility.yul\":3370:3492   */\n  pop\n  jump\t// out\n    /* \"#utility.yul\":3498:3641   */\ntag_45:\n    /* \"#utility.yul\":3555:3560   */\n  0x00\n    /* \"#utility.yul\":3586:3592   */\n  dup2\n    /* \"#utility.yul\":3580:3593   */\n  mload\n    /* \"#utility.yul\":3571:3593   */\n  swap1\n  pop\n    /* \"#utility.yul\":3602:3635   */\n  tag_99\n    /* \"#utility.yul\":3629:3634   */\n  dup2\n    /* \"#utility.yul\":3602:3635   */\n  tag_44\n  jump\t// in\ntag_99:\n    /* \"#utility.yul\":3498:3641   */\n  swap3\n  swap2\n  pop\n  pop\n  jump\t// out\n    /* \"#utility.yul\":3647:4357   */\ntag_3:\n    /* \"#utility.yul\":3751:3757   */\n  0x00\n    /* \"#utility.yul\":3759:3765   */\n  dup1\n    /* \"#utility.yul\":3808:3810   */\n  0x40\n    /* \"#utility.yul\":3796:3805   */\n  dup4\n    /* \"#utility.yul\":3787:3794   */\n  dup6\n    /* \"#utility.yul\":3783:3806   */\n  sub\n    /* \"#utility.yul\":3779:3811   */\n  slt\n    /* \"#utility.yul\":3776:3895   */\n  iszero\n  tag_101\n  jumpi\n    /* \"#utility.yul\":3814:3893   */\n  tag_102\n  tag_28\n  jump\t// in\ntag_102:\n    /* \"#utility.yul\":3776:3895   */\ntag_101:\n    /* \"#utility.yul\":3955:3956   */\n  0x00\n    /* \"#utility.yul\":3944:3953   */\n  dup4\n    /* \"#utility.yul\":3940:3957   */\n  add\n    /* \"#utility.yul\":3934:3958   */\n  mload\n    /* \"#utility.yul\":3985:4003   */\n  0xffffffffffffffff\n    /* \"#utility.yul\":3977:3983   */\n  dup2\n    /* \"#utility.yul\":3974:4004   */\n  gt\n    /* \"#utility.yul\":3971:4088   */\n  iszero\n  tag_103\n  jumpi\n    /* \"#utility.yul\":4007:4086   */\n  tag_104\n  tag_29\n  jump\t// in\ntag_104:\n    /* \"#utility.yul\":3971:4088   */\ntag_103:\n    /* \"#utility.yul\":4112:4201   */\n  tag_105\n    /* \"#utility.yul\":4193:4200   */\n  dup6\n    /* \"#utility.yul\":4184:4190   */\n  dup3\n    /* \"#utility.yul\":4173:4182   */\n  dup7\n    /* \"#utility.yul\":4169:4191   */\n  add\n    /* \"#utility.yul\":4112:4201   */\n  tag_42\n  jump\t// in\ntag_105:\n    /* \"#utility.yul\":4102:4201   */\n  swap3\n  pop\n    /* \"#utility.yul\":3905:4211   */\n  pop\n    /* \"#utility.yul\":4250:4252   */\n  0x20\n    /* \"#utility.yul\":4276:4340   */\n  tag_106\n    /* \"#utility.yul\":4332:4339   */\n  dup6\n    /* \"#utility.yul\":4323:4329   */\n  dup3\n    /* \"#utility.yul\":4312:4321   */\n  dup7\n    /* \"#utility.yul\":4308:4330   */\n  add\n    /* \"#utility.yul\":4276:4340   */\n  tag_45\n  jump\t// in\ntag_106:\n    /* \"#utility.yul\":4266:4340   */\n  swap2\n  pop\n    /* \"#utility.yul\":4221:4350   */\n  pop\n    /* \"#utility.yul\":3647:4357   */\n  swap3\n  pop\n  swap3\n  swap1\n  pop\n  jump\t// out\n    /* \"#utility.yul\":4363:4532   */\ntag_46:\n    /* \"#utility.yul\":4447:4458   */\n  0x00\n    /* \"#utility.yul\":4481:4487   */\n  dup3\n    /* \"#utility.yul\":4476:4479   */\n  dup3\n    /* \"#utility.yul\":4469:4488   */\n  mstore\n    /* \"#utility.yul\":4521:4525   */\n  0x20\n    /* \"#utility.yul\":4516:4519   */\n  dup3\n    /* \"#utility.yul\":4512:4526   */\n  add\n    /* \"#utility.yul\":4497:4526   */\n  swap1\n  pop\n    /* \"#utility.yul\":4363:4532   */\n  swap3\n  swap2\n  pop\n  pop\n  jump\t// out\n    /* \"#utility.yul\":4538:4703   */\ntag_47:\n    /* \"#utility.yul\":4678:4695   */\n  0x6f776e6572732072657175697265640000000000000000000000000000000000\n    /* \"#utility.yul\":4674:4675   */\n  0x00\n    /* \"#utility.yul\":4666:4672   */\n  dup3\n    /* \"#utility.yul\":4662:4676   */\n  add\n    /* \"#utility.yul\":4655:4696   */\n  mstore\n    /* \"#utility.yul\":4538:4703   */\n  pop\n  jump\t// out\n    /* \"#utility.yul\":4709:5075   */\ntag_48:\n    /* \"#utility.yul\":4851:4854   */\n  0x00\n    /* \"#utility.yul\":4872:4939   */\n  tag_110\n    /* \"#utility.yul\":4936:4938   */\n  0x0f\n    /* \"#utility.yul\":4931:4934   */\n  dup4\n    /* \"#utility.yul\":4872:4939   */\n  tag_46\n  jump\t// in\ntag_110:\n    /* \"#utility.yul\":4865:4939   */\n  swap2\n  pop\n    /* \"#utility.yul\":4948:5041   */\n  tag_111\n    /* \"#utility.yul\":5037:5040   */\n  dup3\n    /* \"#utility.yul\":4948:5041   */\n  tag_47\n  jump\t// in\ntag_111:\n    /* \"#utility.yul\":5066:5068   */\n  0x20\n    /* \"#utility.yul\":5061:5064   */\n  dup3\n    /* \"#utility.yul\":5057:5069   */\n  add\n    /* \"#utility.yul\":5050:5069   */\n  swap1\n  pop\n    /* \"#utility.yul\":4709:5075   */\n  swap2\n  swap1\n  pop\n  jump\t// out\n    /* \"#utility.yul\":5081:5500   */\ntag_8:\n    /* \"#utility.yul\":5247:5251   */\n  0x00\n    /* \"#utility.yul\":5285:5287   */\n  0x20\n    /* \"#utility.yul\":5274:5283   */\n  dup3\n    /* \"#utility.yul\":5270:5288   */\n  add\n    /* \"#utility.yul\":5262:5288   */\n  swap1\n  pop\n    /* \"#utility.yul\":5334:5343   */\n  dup2\n    /* \"#utility.yul\":5328:5332   */\n  dup2\n    /* \"#utility.yul\":5324:5344   */\n  sub\n    /* \"#utility.yul\":5320:5321   */\n  0x00\n    /* \"#utility.yul\":5309:5318   */\n  dup4\n    /* \"#utility.yul\":5305:5322   */\n  add\n    /* \"#utility.yul\":5298:5345   */\n  mstore\n    /* \"#utility.yul\":5362:5493   */\n  tag_113\n    /* \"#utility.yul\":5488:5492   */\n  dup2\n    /* \"#utility.yul\":5362:5493   */\n  tag_48\n  jump\t// in\ntag_113:\n    /* \"#utility.yul\":5354:5493   */\n  swap1\n  pop\n    /* \"#utility.yul\":5081:5500   */\n  swap2\n  swap1\n  pop\n  jump\t// out\n    /* \"#utility.yul\":5506:5676   */\ntag_49:\n    /* \"#utility.yul\":5646:5668   */\n  0x696e76616c6964207265717569726564206e756d000000000000000000000000\n    /* \"#utility.yul\":5642:5643   */\n  0x00\n    /* \"#utility.yul\":5634:5640   */\n  dup3\n    /* \"#utility.yul\":5630:5644   */\n  add\n    /* \"#utility.yul\":5623:5669   */\n  mstore\n    /* \"#utility.yul\":5506:5676   */\n  pop\n  jump\t// out\n    /* \"#utility.yul\":5682:6048   */\ntag_50:\n    /* \"#utility.yul\":5824:5827   */\n  0x00\n    /* \"#utility.yul\":5845:5912   */\n  tag_116\n    /* \"#utility.yul\":5909:5911   */\n  0x14\n    /* \"#utility.yul\":5904:5907   */\n  dup4\n    /* \"#utility.yul\":5845:5912   */\n  tag_46\n  jump\t// in\ntag_116:\n    /* \"#utility.yul\":5838:5912   */\n  swap2\n  pop\n    /* \"#utility.yul\":5921:6014   */\n  tag_117\n    /* \"#utility.yul\":6010:6013   */\n  dup3\n    /* \"#utility.yul\":5921:6014   */\n  tag_49\n  jump\t// in\ntag_117:\n    /* \"#utility.yul\":6039:6041   */\n  0x20\n    /* \"#utility.yul\":6034:6037   */\n  dup3\n    /* \"#utility.yul\":6030:6042   */\n  add\n    /* \"#utility.yul\":6023:6042   */\n  swap1\n  pop\n    /* \"#utility.yul\":5682:6048   */\n  swap2\n  swap1\n  pop\n  jump\t// out\n    /* \"#utility.yul\":6054:6473   */\ntag_11:\n    /* \"#utility.yul\":6220:6224   */\n  0x00\n    /* \"#utility.yul\":6258:6260   */\n  0x20\n    /* \"#utility.yul\":6247:6256   */\n  dup3\n    /* \"#utility.yul\":6243:6261   */\n  add\n    /* \"#utility.yul\":6235:6261   */\n  swap1\n  pop\n    /* \"#utility.yul\":6307:6316   */\n  dup2\n    /* \"#utility.yul\":6301:6305   */\n  dup2\n    /* \"#utility.yul\":6297:6317   */\n  sub\n    /* \"#utility.yul\":6293:6294   */\n  0x00\n    /* \"#utility.yul\":6282:6291   */\n  dup4\n    /* \"#utility.yul\":6278:6295   */\n  add\n    /* \"#utility.yul\":6271:6318   */\n  mstore\n    /* \"#utility.yul\":6335:6466   */\n  tag_119\n    /* \"#utility.yul\":6461:6465   */\n  dup2\n    /* \"#utility.yul\":6335:6466   */\n  tag_50\n  jump\t// in\ntag_119:\n    /* \"#utility.yul\":6327:6466   */\n  swap1\n  pop\n    /* \"#utility.yul\":6054:6473   */\n  swap2\n  swap1\n  pop\n  jump\t// out\n    /* \"#utility.yul\":6479:6659   */\ntag_17:\n    /* \"#utility.yul\":6527:6604   */\n  0x4e487b7100000000000000000000000000000000000000000000000000000000\n    /* \"#utility.yul\":6524:6525   */\n  0x00\n    /* \"#utility.yul\":6517:6605   */\n  mstore\n    /* \"#utility.yul\":6624:6628   */\n  0x32\n    /* \"#utility.yul\":6621:6622   */\n  0x04\n    /* \"#utility.yul\":6614:6629   */\n  mstore\n    /* \"#utility.yul\":6648:6652   */\n  0x24\n    /* \"#utility.yul\":6645:6646   */\n  0x00\n    /* \"#utility.yul\":6638:6653   */\n  revert\n    /* \"#utility.yul\":6665:6828   */\ntag_51:\n    /* \"#utility.yul\":6805:6820   */\n  0x696e76616c6964206f776e657200000000000000000000000000000000000000\n    /* \"#utility.yul\":6801:6802   */\n  0x00\n    /* \"#utility.yul\":6793:6799   */\n  dup3\n    /* \"#utility.yul\":6789:6803   */\n  add\n    /* \"#utility.yul\":6782:6821   */\n  mstore\n    /* \"#utility.yul\":6665:6828   */\n  pop\n  jump\t// out\n    /* \"#utility.yul\":6834:7200   */\ntag_52:\n    /* \"#utility.yul\":6976:6979   */\n  0x00\n    /* \"#utility.yul\":6997:7064   */\n  tag_123\n    /* \"#utility.yul\":7061:7063   */\n  0x0d\n    /* \"#utility.yul\":7056:7059   */\n  dup4\n    /* \"#utility.yul\":6997:7064   */\n  tag_46\n  jump\t// in\ntag_123:\n    /* \"#utility.yul\":6990:7064   */\n  swap2\n  pop\n    /* \"#utility.yul\":7073:7166   */\n  tag_124\n    /* \"#utility.yul\":7162:7165   */\n  dup3\n    /* \"#utility.yul\":7073:7166   */\n  tag_51\n  jump\t// in\ntag_124:\n    /* \"#utility.yul\":7191:7193   */\n  0x20\n    /* \"#utility.yul\":7186:7189   */\n  dup3\n    /* \"#utility.yul\":7182:7194   */\n  add\n    /* \"#utility.yul\":7175:7194   */\n  swap1\n  pop\n    /* \"#utility.yul\":6834:7200   */\n  swap2\n  swap1\n  pop\n  jump\t// out\n    /* \"#utility.yul\":7206:7625   */\ntag_21:\n    /* \"#utility.yul\":7372:7376   */\n  0x00\n    /* \"#utility.yul\":7410:7412   */\n  0x20\n    /* \"#utility.yul\":7399:7408   */\n  dup3\n    /* \"#utility.yul\":7395:7413   */\n  add\n    /* \"#utility.yul\":7387:7413   */\n  swap1\n  pop\n    /* \"#utility.yul\":7459:7468   */\n  dup2\n    /* \"#utility.yul\":7453:7457   */\n  dup2\n    /* \"#utility.yul\":7449:7469   */\n  sub\n    /* \"#utility.yul\":7445:7446   */\n  0x00\n    /* \"#utility.yul\":7434:7443   */\n  dup4\n    /* \"#utility.yul\":7430:7447   */\n  add\n    /* \"#utility.yul\":7423:7470   */\n  mstore\n    /* \"#utility.yul\":7487:7618   */\n  tag_126\n    /* \"#utility.yul\":7613:7617   */\n  dup2\n    /* \"#utility.yul\":7487:7618   */\n  tag_52\n  jump\t// in\ntag_126:\n    /* \"#utility.yul\":7479:7618   */\n  swap1\n  pop\n    /* \"#utility.yul\":7206:7625   */\n  swap2\n  swap1\n  pop\n  jump\t// out\n    /* \"#utility.yul\":7631:7800   */\ntag_53:\n    /* \"#utility.yul\":7771:7792   */\n  0x6f776e6572206973206e6f7420756e6971756500000000000000000000000000\n    /* \"#utility.yul\":7767:7768   */\n  0x00\n    /* \"#utility.yul\":7759:7765   */\n  dup3\n    /* \"#utility.yul\":7755:7769   */\n  add\n    /* \"#utility.yul\":7748:7793   */\n  mstore\n    /* \"#utility.yul\":7631:7800   */\n  pop\n  jump\t// out\n    /* \"#utility.yul\":7806:8172   */\ntag_54:\n    /* \"#utility.yul\":7948:7951   */\n  0x00\n    /* \"#utility.yul\":7969:8036   */\n  tag_129\n    /* \"#utility.yul\":8033:8035   */\n  0x13\n    /* \"#utility.yul\":8028:8031   */\n  dup4\n    /* \"#utility.yul\":7969:8036   */\n  tag_46\n  jump\t// in\ntag_129:\n    /* \"#utility.yul\":7962:8036   */\n  swap2\n  pop\n    /* \"#utility.yul\":8045:8138   */\n  tag_130\n    /* \"#utility.yul\":8134:8137   */\n  dup3\n    /* \"#utility.yul\":8045:8138   */\n  tag_53\n  jump\t// in\ntag_130:\n    /* \"#utility.yul\":8163:8165   */\n  0x20\n    /* \"#utility.yul\":8158:8161   */\n  dup3\n    /* \"#utility.yul\":8154:8166   */\n  add\n    /* \"#utility.yul\":8147:8166   */\n  swap1\n  pop\n    /* \"#utility.yul\":7806:8172   */\n  swap2\n  swap1\n  pop\n  jump\t// out\n    /* \"#utility.yul\":8178:8597   */\ntag_24:\n    /* \"#utility.yul\":8344:8348   */\n  0x00\n    /* \"#utility.yul\":8382:8384   */\n  0x20\n    /* \"#utility.yul\":8371:8380   */\n  dup3\n    /* \"#utility.yul\":8367:8385   */\n  add\n    /* \"#utility.yul\":8359:8385   */\n  swap1\n  pop\n    /* \"#utility.yul\":8431:8440   */\n  dup2\n    /* \"#utility.yul\":8425:8429   */\n  dup2\n    /* \"#utility.yul\":8421:8441   */\n  sub\n    /* \"#utility.yul\":8417:8418   */\n  0x00\n    /* \"#utility.yul\":8406:8415   */\n  dup4\n    /* \"#utility.yul\":8402:8419   */\n  add\n    /* \"#utility.yul\":8395:8442   */\n  mstore\n    /* \"#utility.yul\":8459:8590   */\n  tag_132\n    /* \"#utility.yul\":8585:8589   */\n  dup2\n    /* \"#utility.yul\":8459:8590   */\n  tag_54\n  jump\t// in\ntag_132:\n    /* \"#utility.yul\":8451:8590   */\n  swap1\n  pop\n    /* \"#utility.yul\":8178:8597   */\n  swap2\n  swap1\n  pop\n  jump\t// out\n    /* \"04/MultiSigWallet.sol\":57:3072  contract MultiSigWallet {... */\ntag_26:\n  dataSize(sub_0)\n  dup1\n  dataOffset(sub_0)\n  0x00\n  codecopy\n  0x00\n  return\nstop\n\nsub_0: assembly {\n        /* \"04/MultiSigWallet.sol\":57:3072  contract MultiSigWallet {... */\n      mstore(0x40, 0x80)\n      jumpi(tag_1, lt(calldatasize, 0x04))\n      shr(0xe0, calldataload(0x00))\n      dup1\n      0x8253951a\n      gt\n      tag_11\n      jumpi\n      dup1\n      0x8253951a\n      eq\n      tag_7\n      jumpi\n      dup1\n      0xb759f954\n      eq\n      tag_8\n      jumpi\n      dup1\n      0xdc8452cd\n      eq\n      tag_9\n      jumpi\n      dup1\n      0xfe0d94c1\n      eq\n      tag_10\n      jumpi\n      jump(tag_2)\n    tag_11:\n      dup1\n      0x025e7c27\n      eq\n      tag_3\n      jumpi\n      dup1\n      0x14de327f\n      eq\n      tag_4\n      jumpi\n      dup1\n      0x2513146d\n      eq\n      tag_5\n      jumpi\n      dup1\n      0x2f54bf6e\n      eq\n      tag_6\n      jumpi\n      jump(tag_2)\n    tag_1:\n      jumpi(tag_2, calldatasize)\n        /* \"04/MultiSigWallet.sol\":1678:1688  msg.sender */\n      caller\n        /* \"04/MultiSigWallet.sol\":1670:1700  Deposit(msg.sender, msg.value) */\n      0xffffffffffffffffffffffffffffffffffffffff\n      and\n      0xe1fffcc4923d04b559f4d29a8bfc6cda04eb5b0d3c460751c2402c5c5cc9109c\n        /* \"04/MultiSigWallet.sol\":1690:1699  msg.value */\n      callvalue\n        /* \"04/MultiSigWallet.sol\":1670:1700  Deposit(msg.sender, msg.value) */\n      mload(0x40)\n      tag_14\n      swap2\n      swap1\n      tag_15\n      jump\t// in\n    tag_14:\n      mload(0x40)\n      dup1\n      swap2\n      sub\n      swap1\n      log2\n        /* \"04/MultiSigWallet.sol\":57:3072  contract MultiSigWallet {... */\n      stop\n    tag_2:\n      0x00\n      dup1\n      revert\n        /* \"04/MultiSigWallet.sol\":457:480  address[] public owners */\n    tag_3:\n      callvalue\n      dup1\n      iszero\n      tag_16\n      jumpi\n      0x00\n      dup1\n      revert\n    tag_16:\n      pop\n      tag_17\n      0x04\n      dup1\n      calldatasize\n      sub\n      dup2\n      add\n      swap1\n      tag_18\n      swap2\n      swap1\n      tag_19\n      jump\t// in\n    tag_18:\n      tag_20\n      jump\t// in\n    tag_17:\n      mload(0x40)\n      tag_21\n      swap2\n      swap1\n      tag_22\n      jump\t// in\n    tag_21:\n      mload(0x40)\n      dup1\n      swap2\n      sub\n      swap1\n      return\n        /* \"04/MultiSigWallet.sol\":1713:1998  function submit(... */\n    tag_4:\n      callvalue\n      dup1\n      iszero\n      tag_23\n      jumpi\n      0x00\n      dup1\n      revert\n    tag_23:\n      pop\n      tag_24\n      0x04\n      dup1\n      calldatasize\n      sub\n      dup2\n      add\n      swap1\n      tag_25\n      swap2\n      swap1\n      tag_26\n      jump\t// in\n    tag_25:\n      tag_27\n      jump\t// in\n    tag_24:\n      stop\n        /* \"04/MultiSigWallet.sol\":2845:3070  function revode(uint _txId) external txExists(_txId) notExecuted(_txId){... */\n    tag_5:\n      callvalue\n      dup1\n      iszero\n      tag_28\n      jumpi\n      0x00\n      dup1\n      revert\n    tag_28:\n      pop\n      tag_29\n      0x04\n      dup1\n      calldatasize\n      sub\n      dup2\n      add\n      swap1\n      tag_30\n      swap2\n      swap1\n      tag_19\n      jump\t// in\n    tag_30:\n      tag_31\n      jump\t// in\n    tag_29:\n      stop\n        /* \"04/MultiSigWallet.sol\":486:525  mapping(address => bool) public isOwner */\n    tag_6:\n      callvalue\n      dup1\n      iszero\n      tag_32\n      jumpi\n      0x00\n      dup1\n      revert\n    tag_32:\n      pop\n      tag_33\n      0x04\n      dup1\n      calldatasize\n      sub\n      dup2\n      add\n      swap1\n      tag_34\n      swap2\n      swap1\n      tag_35\n      jump\t// in\n    tag_34:\n      tag_36\n      jump\t// in\n    tag_33:\n      mload(0x40)\n      tag_37\n      swap2\n      swap1\n      tag_38\n      jump\t// in\n    tag_37:\n      mload(0x40)\n      dup1\n      swap2\n      sub\n      swap1\n      return\n        /* \"04/MultiSigWallet.sol\":590:647  mapping(uint => mapping(address => bool)) public approved */\n    tag_7:\n      callvalue\n      dup1\n      iszero\n      tag_39\n      jumpi\n      0x00\n      dup1\n      revert\n    tag_39:\n      pop\n      tag_40\n      0x04\n      dup1\n      calldatasize\n      sub\n      dup2\n      add\n      swap1\n      tag_41\n      swap2\n      swap1\n      tag_42\n      jump\t// in\n    tag_41:\n      tag_43\n      jump\t// in\n    tag_40:\n      mload(0x40)\n      tag_44\n      swap2\n      swap1\n      tag_38\n      jump\t// in\n    tag_44:\n      mload(0x40)\n      dup1\n      swap2\n      sub\n      swap1\n      return\n        /* \"04/MultiSigWallet.sol\":2004:2212  function approve(... */\n    tag_8:\n      callvalue\n      dup1\n      iszero\n      tag_45\n      jumpi\n      0x00\n      dup1\n      revert\n    tag_45:\n      pop\n      tag_46\n      0x04\n      dup1\n      calldatasize\n      sub\n      dup2\n      add\n      swap1\n      tag_47\n      swap2\n      swap1\n      tag_19\n      jump\t// in\n    tag_47:\n      tag_48\n      jump\t// in\n    tag_46:\n      stop\n        /* \"04/MultiSigWallet.sol\":531:551  uint public required */\n    tag_9:\n      callvalue\n      dup1\n      iszero\n      tag_49\n      jumpi\n      0x00\n      dup1\n      revert\n    tag_49:\n      pop\n      tag_50\n      tag_51\n      jump\t// in\n    tag_50:\n      mload(0x40)\n      tag_52\n      swap2\n      swap1\n      tag_15\n      jump\t// in\n    tag_52:\n      mload(0x40)\n      dup1\n      swap2\n      sub\n      swap1\n      return\n        /* \"04/MultiSigWallet.sol\":2450:2839  function execute(uint _txId) external txExists(_txId) notExecuted(_txId) {... */\n    tag_10:\n      callvalue\n      dup1\n      iszero\n      tag_53\n      jumpi\n      0x00\n      dup1\n      revert\n    tag_53:\n      pop\n      tag_54\n      0x04\n      dup1\n      calldatasize\n      sub\n      dup2\n      add\n      swap1\n      tag_55\n      swap2\n      swap1\n      tag_19\n      jump\t// in\n    tag_55:\n      tag_56\n      jump\t// in\n    tag_54:\n      stop\n        /* \"04/MultiSigWallet.sol\":457:480  address[] public owners */\n    tag_20:\n      0x00\n      dup2\n      dup2\n      sload\n      dup2\n      lt\n      tag_57\n      jumpi\n      0x00\n      dup1\n      revert\n    tag_57:\n      swap1\n      0x00\n      mstore\n      keccak256(0x00, 0x20)\n      add\n      0x00\n      swap2\n      pop\n      sload\n      swap1\n      0x0100\n      exp\n      swap1\n      div\n      0xffffffffffffffffffffffffffffffffffffffff\n      and\n      dup2\n      jump\t// out\n        /* \"04/MultiSigWallet.sol\":1713:1998  function submit(... */\n    tag_27:\n        /* \"04/MultiSigWallet.sol\":693:700  isOwner */\n      0x01\n        /* \"04/MultiSigWallet.sol\":693:712  isOwner[msg.sender] */\n      0x00\n        /* \"04/MultiSigWallet.sol\":701:711  msg.sender */\n      caller\n        /* \"04/MultiSigWallet.sol\":693:712  isOwner[msg.sender] */\n      0xffffffffffffffffffffffffffffffffffffffff\n      and\n      0xffffffffffffffffffffffffffffffffffffffff\n      and\n      dup2\n      mstore\n      0x20\n      add\n      swap1\n      dup2\n      mstore\n      0x20\n      add\n      0x00\n      keccak256\n      0x00\n      swap1\n      sload\n      swap1\n      0x0100\n      exp\n      swap1\n      div\n      0xff\n      and\n        /* \"04/MultiSigWallet.sol\":685:726  require(isOwner[msg.sender], \"not owner\") */\n      tag_60\n      jumpi\n      mload(0x40)\n      0x08c379a000000000000000000000000000000000000000000000000000000000\n      dup2\n      mstore\n      0x04\n      add\n      tag_61\n      swap1\n      tag_62\n      jump\t// in\n    tag_61:\n      mload(0x40)\n      dup1\n      swap2\n      sub\n      swap1\n      revert\n    tag_60:\n        /* \"04/MultiSigWallet.sol\":1836:1848  transactions */\n      0x03\n        /* \"04/MultiSigWallet.sol\":1867:1934  Transaction({to: _to, value: _value, data: _data, executed: false}) */\n      mload(0x40)\n      dup1\n      0x80\n      add\n      0x40\n      mstore\n      dup1\n        /* \"04/MultiSigWallet.sol\":1884:1887  _to */\n      dup7\n        /* \"04/MultiSigWallet.sol\":1867:1934  Transaction({to: _to, value: _value, data: _data, executed: false}) */\n      0xffffffffffffffffffffffffffffffffffffffff\n      and\n      dup2\n      mstore\n      0x20\n      add\n        /* \"04/MultiSigWallet.sol\":1896:1902  _value */\n      dup6\n        /* \"04/MultiSigWallet.sol\":1867:1934  Transaction({to: _to, value: _value, data: _data, executed: false}) */\n      dup2\n      mstore\n      0x20\n      add\n        /* \"04/MultiSigWallet.sol\":1910:1915  _data */\n      dup5\n      dup5\n        /* \"04/MultiSigWallet.sol\":1867:1934  Transaction({to: _to, value: _value, data: _data, executed: false}) */\n      dup1\n      dup1\n      0x1f\n      add\n      0x20\n      dup1\n      swap2\n      div\n      mul\n      0x20\n      add\n      mload(0x40)\n      swap1\n      dup2\n      add\n      0x40\n      mstore\n      dup1\n      swap4\n      swap3\n      swap2\n      swap1\n      dup2\n      dup2\n      mstore\n      0x20\n      add\n      dup4\n      dup4\n      dup1\n      dup3\n      dup5\n      calldatacopy\n      0x00\n      dup2\n      dup5\n      add\n      mstore\n      not(0x1f)\n      0x1f\n      dup3\n      add\n      and\n      swap1\n      pop\n      dup1\n      dup4\n      add\n      swap3\n      pop\n      pop\n      pop\n      pop\n      pop\n      pop\n      pop\n      dup2\n      mstore\n      0x20\n      add\n        /* \"04/MultiSigWallet.sol\":1927:1932  false */\n      0x00\n        /* \"04/MultiSigWallet.sol\":1867:1934  Transaction({to: _to, value: _value, data: _data, executed: false}) */\n      iszero\n      iszero\n      dup2\n      mstore\n      pop\n        /* \"04/MultiSigWallet.sol\":1836:1944  transactions.push(... */\n      swap1\n      dup1\n      0x01\n      dup2\n      sload\n      add\n      dup1\n      dup3\n      sstore\n      dup1\n      swap2\n      pop\n      pop\n      0x01\n      swap1\n      sub\n      swap1\n      0x00\n      mstore\n      keccak256(0x00, 0x20)\n      swap1\n      0x04\n      mul\n      add\n      0x00\n      swap1\n      swap2\n      swap1\n      swap2\n      swap1\n      swap2\n      pop\n      0x00\n      dup3\n      add\n      mload\n      dup2\n      0x00\n      add\n      exp(0x0100, 0x00)\n      dup2\n      sload\n      dup2\n      0xffffffffffffffffffffffffffffffffffffffff\n      mul\n      not\n      and\n      swap1\n      dup4\n      0xffffffffffffffffffffffffffffffffffffffff\n      and\n      mul\n      or\n      swap1\n      sstore\n      pop\n      0x20\n      dup3\n      add\n      mload\n      dup2\n      0x01\n      add\n      sstore\n      0x40\n      dup3\n      add\n      mload\n      dup2\n      0x02\n      add\n      swap1\n      dup2\n      tag_65\n      swap2\n      swap1\n      tag_66\n      jump\t// in\n    tag_65:\n      pop\n      0x60\n      dup3\n      add\n      mload\n      dup2\n      0x03\n      add\n      exp(0x0100, 0x00)\n      dup2\n      sload\n      dup2\n      0xff\n      mul\n      not\n      and\n      swap1\n      dup4\n      iszero\n      iszero\n      mul\n      or\n      swap1\n      sstore\n      pop\n      pop\n      pop\n        /* \"04/MultiSigWallet.sol\":1989:1990  1 */\n      0x01\n        /* \"04/MultiSigWallet.sol\":1967:1979  transactions */\n      0x03\n        /* \"04/MultiSigWallet.sol\":1967:1986  transactions.length */\n      dup1\n      sload\n      swap1\n      pop\n        /* \"04/MultiSigWallet.sol\":1967:1990  transactions.length - 1 */\n      tag_67\n      swap2\n      swap1\n      tag_68\n      jump\t// in\n    tag_67:\n        /* \"04/MultiSigWallet.sol\":1960:1991  Submit(transactions.length - 1) */\n      0x08324b3d745b914e3abd4ffbfead91e3b78391a98c173202129215ab933adfbe\n      mload(0x40)\n      mload(0x40)\n      dup1\n      swap2\n      sub\n      swap1\n      log2\n        /* \"04/MultiSigWallet.sol\":1713:1998  function submit(... */\n      pop\n      pop\n      pop\n      pop\n      jump\t// out\n        /* \"04/MultiSigWallet.sol\":2845:3070  function revode(uint _txId) external txExists(_txId) notExecuted(_txId){... */\n    tag_31:\n        /* \"04/MultiSigWallet.sol\":2891:2896  _txId */\n      dup1\n        /* \"04/MultiSigWallet.sol\":806:818  transactions */\n      0x03\n        /* \"04/MultiSigWallet.sol\":806:825  transactions.length */\n      dup1\n      sload\n      swap1\n      pop\n        /* \"04/MultiSigWallet.sol\":798:803  _txId */\n      dup2\n        /* \"04/MultiSigWallet.sol\":798:825  _txId < transactions.length */\n      lt\n        /* \"04/MultiSigWallet.sol\":790:847  require(_txId < transactions.length, \"tx does not exist\") */\n      tag_70\n      jumpi\n      mload(0x40)\n      0x08c379a000000000000000000000000000000000000000000000000000000000\n      dup2\n      mstore\n      0x04\n      add\n      tag_71\n      swap1\n      tag_72\n      jump\t// in\n    tag_71:\n      mload(0x40)\n      dup1\n      swap2\n      sub\n      swap1\n      revert\n    tag_70:\n        /* \"04/MultiSigWallet.sol\":2910:2915  _txId */\n      dup2\n        /* \"04/MultiSigWallet.sol\":1050:1062  transactions */\n      0x03\n        /* \"04/MultiSigWallet.sol\":1063:1068  _txId */\n      dup2\n        /* \"04/MultiSigWallet.sol\":1050:1069  transactions[_txId] */\n      dup2\n      sload\n      dup2\n      lt\n      tag_74\n      jumpi\n      tag_75\n      tag_76\n      jump\t// in\n    tag_75:\n    tag_74:\n      swap1\n      0x00\n      mstore\n      keccak256(0x00, 0x20)\n      swap1\n      0x04\n      mul\n      add\n        /* \"04/MultiSigWallet.sol\":1050:1078  transactions[_txId].executed */\n      0x03\n      add\n      0x00\n      swap1\n      sload\n      swap1\n      0x0100\n      exp\n      swap1\n      div\n      0xff\n      and\n        /* \"04/MultiSigWallet.sol\":1049:1078  !transactions[_txId].executed */\n      iszero\n        /* \"04/MultiSigWallet.sol\":1041:1102  require(!transactions[_txId].executed, \"tx already executed\") */\n      tag_78\n      jumpi\n      mload(0x40)\n      0x08c379a000000000000000000000000000000000000000000000000000000000\n      dup2\n      mstore\n      0x04\n      add\n      tag_79\n      swap1\n      tag_80\n      jump\t// in\n    tag_79:\n      mload(0x40)\n      dup1\n      swap2\n      sub\n      swap1\n      revert\n    tag_78:\n        /* \"04/MultiSigWallet.sol\":2934:2942  approved */\n      0x04\n        /* \"04/MultiSigWallet.sol\":2934:2949  approved[_txId] */\n      0x00\n        /* \"04/MultiSigWallet.sol\":2943:2948  _txId */\n      dup5\n        /* \"04/MultiSigWallet.sol\":2934:2949  approved[_txId] */\n      dup2\n      mstore\n      0x20\n      add\n      swap1\n      dup2\n      mstore\n      0x20\n      add\n      0x00\n      keccak256\n        /* \"04/MultiSigWallet.sol\":2934:2961  approved[_txId][msg.sender] */\n      0x00\n        /* \"04/MultiSigWallet.sol\":2950:2960  msg.sender */\n      caller\n        /* \"04/MultiSigWallet.sol\":2934:2961  approved[_txId][msg.sender] */\n      0xffffffffffffffffffffffffffffffffffffffff\n      and\n      0xffffffffffffffffffffffffffffffffffffffff\n      and\n      dup2\n      mstore\n      0x20\n      add\n      swap1\n      dup2\n      mstore\n      0x20\n      add\n      0x00\n      keccak256\n      0x00\n      swap1\n      sload\n      swap1\n      0x0100\n      exp\n      swap1\n      div\n      0xff\n      and\n        /* \"04/MultiSigWallet.sol\":2926:2980  require(approved[_txId][msg.sender],\"tx not approved\") */\n      tag_82\n      jumpi\n      mload(0x40)\n      0x08c379a000000000000000000000000000000000000000000000000000000000\n      dup2\n      mstore\n      0x04\n      add\n      tag_83\n      swap1\n      tag_84\n      jump\t// in\n    tag_83:\n      mload(0x40)\n      dup1\n      swap2\n      sub\n      swap1\n      revert\n    tag_82:\n        /* \"04/MultiSigWallet.sol\":3018:3023  false */\n      0x00\n        /* \"04/MultiSigWallet.sol\":2990:2998  approved */\n      0x04\n        /* \"04/MultiSigWallet.sol\":2990:3005  approved[_txId] */\n      0x00\n        /* \"04/MultiSigWallet.sol\":2999:3004  _txId */\n      dup6\n        /* \"04/MultiSigWallet.sol\":2990:3005  approved[_txId] */\n      dup2\n      mstore\n      0x20\n      add\n      swap1\n      dup2\n      mstore\n      0x20\n      add\n      0x00\n      keccak256\n        /* \"04/MultiSigWallet.sol\":2990:3017  approved[_txId][msg.sender] */\n      0x00\n        /* \"04/MultiSigWallet.sol\":3006:3016  msg.sender */\n      caller\n        /* \"04/MultiSigWallet.sol\":2990:3017  approved[_txId][msg.sender] */\n      0xffffffffffffffffffffffffffffffffffffffff\n      and\n      0xffffffffffffffffffffffffffffffffffffffff\n      and\n      dup2\n      mstore\n      0x20\n      add\n      swap1\n      dup2\n      mstore\n      0x20\n      add\n      0x00\n      keccak256\n      0x00\n        /* \"04/MultiSigWallet.sol\":2990:3023  approved[_txId][msg.sender]=false */\n      0x0100\n      exp\n      dup2\n      sload\n      dup2\n      0xff\n      mul\n      not\n      and\n      swap1\n      dup4\n      iszero\n      iszero\n      mul\n      or\n      swap1\n      sstore\n      pop\n        /* \"04/MultiSigWallet.sol\":3057:3062  _txId */\n      dup3\n        /* \"04/MultiSigWallet.sol\":3045:3055  msg.sender */\n      caller\n        /* \"04/MultiSigWallet.sol\":3038:3063  Revoke(msg.sender, _txId) */\n      0xffffffffffffffffffffffffffffffffffffffff\n      and\n      0xec9ab91322523c899ede7830ec9bfc992b5981cdcc27b91162fb23de5791117b\n      mload(0x40)\n      mload(0x40)\n      dup1\n      swap2\n      sub\n      swap1\n      log3\n        /* \"04/MultiSigWallet.sol\":857:858  _ */\n      pop\n        /* \"04/MultiSigWallet.sol\":2845:3070  function revode(uint _txId) external txExists(_txId) notExecuted(_txId){... */\n      pop\n      pop\n      jump\t// out\n        /* \"04/MultiSigWallet.sol\":486:525  mapping(address => bool) public isOwner */\n    tag_36:\n      mstore(0x20, 0x01)\n      dup1\n      0x00\n      mstore\n      keccak256(0x00, 0x40)\n      0x00\n      swap2\n      pop\n      sload\n      swap1\n      0x0100\n      exp\n      swap1\n      div\n      0xff\n      and\n      dup2\n      jump\t// out\n        /* \"04/MultiSigWallet.sol\":590:647  mapping(uint => mapping(address => bool)) public approved */\n    tag_43:\n      mstore(0x20, 0x04)\n      dup2\n      0x00\n      mstore\n      mstore(0x20, keccak256(0x00, 0x40))\n      dup1\n      0x00\n      mstore\n      keccak256(0x00, 0x40)\n      0x00\n      swap2\n      pop\n      swap2\n      pop\n      swap1\n      sload\n      swap1\n      0x0100\n      exp\n      swap1\n      div\n      0xff\n      and\n      dup2\n      jump\t// out\n        /* \"04/MultiSigWallet.sol\":2004:2212  function approve(... */\n    tag_48:\n        /* \"04/MultiSigWallet.sol\":693:700  isOwner */\n      0x01\n        /* \"04/MultiSigWallet.sol\":693:712  isOwner[msg.sender] */\n      0x00\n        /* \"04/MultiSigWallet.sol\":701:711  msg.sender */\n      caller\n        /* \"04/MultiSigWallet.sol\":693:712  isOwner[msg.sender] */\n      0xffffffffffffffffffffffffffffffffffffffff\n      and\n      0xffffffffffffffffffffffffffffffffffffffff\n      and\n      dup2\n      mstore\n      0x20\n      add\n      swap1\n      dup2\n      mstore\n      0x20\n      add\n      0x00\n      keccak256\n      0x00\n      swap1\n      sload\n      swap1\n      0x0100\n      exp\n      swap1\n      div\n      0xff\n      and\n        /* \"04/MultiSigWallet.sol\":685:726  require(isOwner[msg.sender], \"not owner\") */\n      tag_86\n      jumpi\n      mload(0x40)\n      0x08c379a000000000000000000000000000000000000000000000000000000000\n      dup2\n      mstore\n      0x04\n      add\n      tag_87\n      swap1\n      tag_62\n      jump\t// in\n    tag_87:\n      mload(0x40)\n      dup1\n      swap2\n      sub\n      swap1\n      revert\n    tag_86:\n        /* \"04/MultiSigWallet.sol\":2075:2080  _txId */\n      dup1\n        /* \"04/MultiSigWallet.sol\":806:818  transactions */\n      0x03\n        /* \"04/MultiSigWallet.sol\":806:825  transactions.length */\n      dup1\n      sload\n      swap1\n      pop\n        /* \"04/MultiSigWallet.sol\":798:803  _txId */\n      dup2\n        /* \"04/MultiSigWallet.sol\":798:825  _txId < transactions.length */\n      lt\n        /* \"04/MultiSigWallet.sol\":790:847  require(_txId < transactions.length, \"tx does not exist\") */\n      tag_89\n      jumpi\n      mload(0x40)\n      0x08c379a000000000000000000000000000000000000000000000000000000000\n      dup2\n      mstore\n      0x04\n      add\n      tag_90\n      swap1\n      tag_72\n      jump\t// in\n    tag_90:\n      mload(0x40)\n      dup1\n      swap2\n      sub\n      swap1\n      revert\n    tag_89:\n        /* \"04/MultiSigWallet.sol\":2094:2099  _txId */\n      dup2\n        /* \"04/MultiSigWallet.sol\":923:931  approved */\n      0x04\n        /* \"04/MultiSigWallet.sol\":923:938  approved[_txId] */\n      0x00\n        /* \"04/MultiSigWallet.sol\":932:937  _txId */\n      dup3\n        /* \"04/MultiSigWallet.sol\":923:938  approved[_txId] */\n      dup2\n      mstore\n      0x20\n      add\n      swap1\n      dup2\n      mstore\n      0x20\n      add\n      0x00\n      keccak256\n        /* \"04/MultiSigWallet.sol\":923:950  approved[_txId][msg.sender] */\n      0x00\n        /* \"04/MultiSigWallet.sol\":939:949  msg.sender */\n      caller\n        /* \"04/MultiSigWallet.sol\":923:950  approved[_txId][msg.sender] */\n      0xffffffffffffffffffffffffffffffffffffffff\n      and\n      0xffffffffffffffffffffffffffffffffffffffff\n      and\n      dup2\n      mstore\n      0x20\n      add\n      swap1\n      dup2\n      mstore\n      0x20\n      add\n      0x00\n      keccak256\n      0x00\n      swap1\n      sload\n      swap1\n      0x0100\n      exp\n      swap1\n      div\n      0xff\n      and\n        /* \"04/MultiSigWallet.sol\":922:950  !approved[_txId][msg.sender] */\n      iszero\n        /* \"04/MultiSigWallet.sol\":914:974  require(!approved[_txId][msg.sender], \"tx already approved\") */\n      tag_92\n      jumpi\n      mload(0x40)\n      0x08c379a000000000000000000000000000000000000000000000000000000000\n      dup2\n      mstore\n      0x04\n      add\n      tag_93\n      swap1\n      tag_94\n      jump\t// in\n    tag_93:\n      mload(0x40)\n      dup1\n      swap2\n      sub\n      swap1\n      revert\n    tag_92:\n        /* \"04/MultiSigWallet.sol\":2113:2118  _txId */\n      dup3\n        /* \"04/MultiSigWallet.sol\":1050:1062  transactions */\n      0x03\n        /* \"04/MultiSigWallet.sol\":1063:1068  _txId */\n      dup2\n        /* \"04/MultiSigWallet.sol\":1050:1069  transactions[_txId] */\n      dup2\n      sload\n      dup2\n      lt\n      tag_96\n      jumpi\n      tag_97\n      tag_76\n      jump\t// in\n    tag_97:\n    tag_96:\n      swap1\n      0x00\n      mstore\n      keccak256(0x00, 0x20)\n      swap1\n      0x04\n      mul\n      add\n        /* \"04/MultiSigWallet.sol\":1050:1078  transactions[_txId].executed */\n      0x03\n      add\n      0x00\n      swap1\n      sload\n      swap1\n      0x0100\n      exp\n      swap1\n      div\n      0xff\n      and\n        /* \"04/MultiSigWallet.sol\":1049:1078  !transactions[_txId].executed */\n      iszero\n        /* \"04/MultiSigWallet.sol\":1041:1102  require(!transactions[_txId].executed, \"tx already executed\") */\n      tag_99\n      jumpi\n      mload(0x40)\n      0x08c379a000000000000000000000000000000000000000000000000000000000\n      dup2\n      mstore\n      0x04\n      add\n      tag_100\n      swap1\n      tag_80\n      jump\t// in\n    tag_100:\n      mload(0x40)\n      dup1\n      swap2\n      sub\n      swap1\n      revert\n    tag_99:\n        /* \"04/MultiSigWallet.sol\":2160:2164  true */\n      0x01\n        /* \"04/MultiSigWallet.sol\":2130:2138  approved */\n      0x04\n        /* \"04/MultiSigWallet.sol\":2130:2145  approved[_txId] */\n      0x00\n        /* \"04/MultiSigWallet.sol\":2139:2144  _txId */\n      dup7\n        /* \"04/MultiSigWallet.sol\":2130:2145  approved[_txId] */\n      dup2\n      mstore\n      0x20\n      add\n      swap1\n      dup2\n      mstore\n      0x20\n      add\n      0x00\n      keccak256\n        /* \"04/MultiSigWallet.sol\":2130:2157  approved[_txId][msg.sender] */\n      0x00\n        /* \"04/MultiSigWallet.sol\":2146:2156  msg.sender */\n      caller\n        /* \"04/MultiSigWallet.sol\":2130:2157  approved[_txId][msg.sender] */\n      0xffffffffffffffffffffffffffffffffffffffff\n      and\n      0xffffffffffffffffffffffffffffffffffffffff\n      and\n      dup2\n      mstore\n      0x20\n      add\n      swap1\n      dup2\n      mstore\n      0x20\n      add\n      0x00\n      keccak256\n      0x00\n        /* \"04/MultiSigWallet.sol\":2130:2164  approved[_txId][msg.sender] = true */\n      0x0100\n      exp\n      dup2\n      sload\n      dup2\n      0xff\n      mul\n      not\n      and\n      swap1\n      dup4\n      iszero\n      iszero\n      mul\n      or\n      swap1\n      sstore\n      pop\n        /* \"04/MultiSigWallet.sol\":2199:2204  _txId */\n      dup4\n        /* \"04/MultiSigWallet.sol\":2187:2197  msg.sender */\n      caller\n        /* \"04/MultiSigWallet.sol\":2179:2205  Approve(msg.sender, _txId) */\n      0xffffffffffffffffffffffffffffffffffffffff\n      and\n      0x90ec57f18fa7b15c6b8d5e4d1deb90796c74b2ff23d4d0cecad0cb42a96b3128\n      mload(0x40)\n      mload(0x40)\n      dup1\n      swap2\n      sub\n      swap1\n      log3\n        /* \"04/MultiSigWallet.sol\":984:985  _ */\n      pop\n        /* \"04/MultiSigWallet.sol\":857:858  _ */\n      pop\n        /* \"04/MultiSigWallet.sol\":736:737  _ */\n      pop\n        /* \"04/MultiSigWallet.sol\":2004:2212  function approve(... */\n      pop\n      jump\t// out\n        /* \"04/MultiSigWallet.sol\":531:551  uint public required */\n    tag_51:\n      sload(0x02)\n      dup2\n      jump\t// out\n        /* \"04/MultiSigWallet.sol\":2450:2839  function execute(uint _txId) external txExists(_txId) notExecuted(_txId) {... */\n    tag_56:\n        /* \"04/MultiSigWallet.sol\":2497:2502  _txId */\n      dup1\n        /* \"04/MultiSigWallet.sol\":806:818  transactions */\n      0x03\n        /* \"04/MultiSigWallet.sol\":806:825  transactions.length */\n      dup1\n      sload\n      swap1\n      pop\n        /* \"04/MultiSigWallet.sol\":798:803  _txId */\n      dup2\n        /* \"04/MultiSigWallet.sol\":798:825  _txId < transactions.length */\n      lt\n        /* \"04/MultiSigWallet.sol\":790:847  require(_txId < transactions.length, \"tx does not exist\") */\n      tag_103\n      jumpi\n      mload(0x40)\n      0x08c379a000000000000000000000000000000000000000000000000000000000\n      dup2\n      mstore\n      0x04\n      add\n      tag_104\n      swap1\n      tag_72\n      jump\t// in\n    tag_104:\n      mload(0x40)\n      dup1\n      swap2\n      sub\n      swap1\n      revert\n    tag_103:\n        /* \"04/MultiSigWallet.sol\":2516:2521  _txId */\n      dup2\n        /* \"04/MultiSigWallet.sol\":1050:1062  transactions */\n      0x03\n        /* \"04/MultiSigWallet.sol\":1063:1068  _txId */\n      dup2\n        /* \"04/MultiSigWallet.sol\":1050:1069  transactions[_txId] */\n      dup2\n      sload\n      dup2\n      lt\n      tag_106\n      jumpi\n      tag_107\n      tag_76\n      jump\t// in\n    tag_107:\n    tag_106:\n      swap1\n      0x00\n      mstore\n      keccak256(0x00, 0x20)\n      swap1\n      0x04\n      mul\n      add\n        /* \"04/MultiSigWallet.sol\":1050:1078  transactions[_txId].executed */\n      0x03\n      add\n      0x00\n      swap1\n      sload\n      swap1\n      0x0100\n      exp\n      swap1\n      div\n      0xff\n      and\n        /* \"04/MultiSigWallet.sol\":1049:1078  !transactions[_txId].executed */\n      iszero\n        /* \"04/MultiSigWallet.sol\":1041:1102  require(!transactions[_txId].executed, \"tx already executed\") */\n      tag_109\n      jumpi\n      mload(0x40)\n      0x08c379a000000000000000000000000000000000000000000000000000000000\n      dup2\n      mstore\n      0x04\n      add\n      tag_110\n      swap1\n      tag_80\n      jump\t// in\n    tag_110:\n      mload(0x40)\n      dup1\n      swap2\n      sub\n      swap1\n      revert\n    tag_109:\n        /* \"04/MultiSigWallet.sol\":2569:2577  required */\n      sload(0x02)\n        /* \"04/MultiSigWallet.sol\":2541:2565  _getApprovalCount(_txId) */\n      tag_112\n        /* \"04/MultiSigWallet.sol\":2559:2564  _txId */\n      dup5\n        /* \"04/MultiSigWallet.sol\":2541:2558  _getApprovalCount */\n      tag_113\n        /* \"04/MultiSigWallet.sol\":2541:2565  _getApprovalCount(_txId) */\n      jump\t// in\n    tag_112:\n        /* \"04/MultiSigWallet.sol\":2541:2577  _getApprovalCount(_txId) >= required */\n      lt\n      iszero\n        /* \"04/MultiSigWallet.sol\":2533:2602  require(_getApprovalCount(_txId) >= required, \"approvals < required\") */\n      tag_114\n      jumpi\n      mload(0x40)\n      0x08c379a000000000000000000000000000000000000000000000000000000000\n      dup2\n      mstore\n      0x04\n      add\n      tag_115\n      swap1\n      tag_116\n      jump\t// in\n    tag_115:\n      mload(0x40)\n      dup1\n      swap2\n      sub\n      swap1\n      revert\n    tag_114:\n        /* \"04/MultiSigWallet.sol\":2612:2637  Transaction storage trans */\n      0x00\n        /* \"04/MultiSigWallet.sol\":2640:2652  transactions */\n      0x03\n        /* \"04/MultiSigWallet.sol\":2653:2658  _txId */\n      dup5\n        /* \"04/MultiSigWallet.sol\":2640:2659  transactions[_txId] */\n      dup2\n      sload\n      dup2\n      lt\n      tag_117\n      jumpi\n      tag_118\n      tag_76\n      jump\t// in\n    tag_118:\n    tag_117:\n      swap1\n      0x00\n      mstore\n      keccak256(0x00, 0x20)\n      swap1\n      0x04\n      mul\n      add\n        /* \"04/MultiSigWallet.sol\":2612:2659  Transaction storage trans = transactions[_txId] */\n      swap1\n      pop\n        /* \"04/MultiSigWallet.sol\":2686:2690  true */\n      0x01\n        /* \"04/MultiSigWallet.sol\":2669:2674  trans */\n      dup2\n        /* \"04/MultiSigWallet.sol\":2669:2683  trans.executed */\n      0x03\n      add\n      0x00\n        /* \"04/MultiSigWallet.sol\":2669:2690  trans.executed = true */\n      0x0100\n      exp\n      dup2\n      sload\n      dup2\n      0xff\n      mul\n      not\n      and\n      swap1\n      dup4\n      iszero\n      iszero\n      mul\n      or\n      swap1\n      sstore\n      pop\n        /* \"04/MultiSigWallet.sol\":2702:2712  bool _succ */\n      0x00\n        /* \"04/MultiSigWallet.sol\":2717:2722  trans */\n      dup2\n        /* \"04/MultiSigWallet.sol\":2717:2725  trans.to */\n      0x00\n      add\n      0x00\n      swap1\n      sload\n      swap1\n      0x0100\n      exp\n      swap1\n      div\n      0xffffffffffffffffffffffffffffffffffffffff\n      and\n        /* \"04/MultiSigWallet.sol\":2717:2730  trans.to.call */\n      0xffffffffffffffffffffffffffffffffffffffff\n      and\n        /* \"04/MultiSigWallet.sol\":2738:2743  trans */\n      dup3\n        /* \"04/MultiSigWallet.sol\":2738:2749  trans.value */\n      0x01\n      add\n      sload\n        /* \"04/MultiSigWallet.sol\":2751:2756  trans */\n      dup4\n        /* \"04/MultiSigWallet.sol\":2751:2761  trans.data */\n      0x02\n      add\n        /* \"04/MultiSigWallet.sol\":2717:2762  trans.to.call{value: trans.value}(trans.data) */\n      mload(0x40)\n      tag_120\n      swap2\n      swap1\n      tag_121\n      jump\t// in\n    tag_120:\n      0x00\n      mload(0x40)\n      dup1\n      dup4\n      sub\n      dup2\n      dup6\n      dup8\n      gas\n      call\n      swap3\n      pop\n      pop\n      pop\n      returndatasize\n      dup1\n      0x00\n      dup2\n      eq\n      tag_124\n      jumpi\n      mload(0x40)\n      swap2\n      pop\n      and(add(returndatasize, 0x3f), not(0x1f))\n      dup3\n      add\n      0x40\n      mstore\n      returndatasize\n      dup3\n      mstore\n      returndatasize\n      0x00\n      0x20\n      dup5\n      add\n      returndatacopy\n      jump(tag_123)\n    tag_124:\n      0x60\n      swap2\n      pop\n    tag_123:\n      pop\n        /* \"04/MultiSigWallet.sol\":2701:2762  (bool _succ,) = trans.to.call{value: trans.value}(trans.data) */\n      pop\n      swap1\n      pop\n        /* \"04/MultiSigWallet.sol\":2780:2785  _succ */\n      dup1\n        /* \"04/MultiSigWallet.sol\":2772:2803  require(_succ,\"exec tx failed\") */\n      tag_125\n      jumpi\n      mload(0x40)\n      0x08c379a000000000000000000000000000000000000000000000000000000000\n      dup2\n      mstore\n      0x04\n      add\n      tag_126\n      swap1\n      tag_127\n      jump\t// in\n    tag_126:\n      mload(0x40)\n      dup1\n      swap2\n      sub\n      swap1\n      revert\n    tag_125:\n        /* \"04/MultiSigWallet.sol\":2826:2831  _txId */\n      dup5\n        /* \"04/MultiSigWallet.sol\":2818:2832  Execute(_txId) */\n      0xddb556f1d2c1ec821e910b019d3685b229db152a0ecd517ca7e24b8bd7139289\n      mload(0x40)\n      mload(0x40)\n      dup1\n      swap2\n      sub\n      swap1\n      log2\n        /* \"04/MultiSigWallet.sol\":2523:2839  {... */\n      pop\n      pop\n        /* \"04/MultiSigWallet.sol\":857:858  _ */\n      pop\n        /* \"04/MultiSigWallet.sol\":2450:2839  function execute(uint _txId) external txExists(_txId) notExecuted(_txId) {... */\n      pop\n      pop\n      jump\t// out\n        /* \"04/MultiSigWallet.sol\":2218:2444  function _getApprovalCount(uint _txId) private view returns (uint count) {... */\n    tag_113:\n        /* \"04/MultiSigWallet.sol\":2279:2289  uint count */\n      0x00\n        /* \"04/MultiSigWallet.sol\":2306:2312  uint i */\n      dup1\n        /* \"04/MultiSigWallet.sol\":2315:2316  0 */\n      0x00\n        /* \"04/MultiSigWallet.sol\":2306:2316  uint i = 0 */\n      swap1\n      pop\n        /* \"04/MultiSigWallet.sol\":2301:2438  for (uint i = 0; i < owners.length; i++) {... */\n    tag_129:\n        /* \"04/MultiSigWallet.sol\":2322:2328  owners */\n      0x00\n        /* \"04/MultiSigWallet.sol\":2322:2335  owners.length */\n      dup1\n      sload\n      swap1\n      pop\n        /* \"04/MultiSigWallet.sol\":2318:2319  i */\n      dup2\n        /* \"04/MultiSigWallet.sol\":2318:2335  i < owners.length */\n      lt\n        /* \"04/MultiSigWallet.sol\":2301:2438  for (uint i = 0; i < owners.length; i++) {... */\n      iszero\n      tag_130\n      jumpi\n        /* \"04/MultiSigWallet.sol\":2360:2368  approved */\n      0x04\n        /* \"04/MultiSigWallet.sol\":2360:2375  approved[_txId] */\n      0x00\n        /* \"04/MultiSigWallet.sol\":2369:2374  _txId */\n      dup5\n        /* \"04/MultiSigWallet.sol\":2360:2375  approved[_txId] */\n      dup2\n      mstore\n      0x20\n      add\n      swap1\n      dup2\n      mstore\n      0x20\n      add\n      0x00\n      keccak256\n        /* \"04/MultiSigWallet.sol\":2360:2386  approved[_txId][owners[i]] */\n      0x00\n        /* \"04/MultiSigWallet.sol\":2376:2382  owners */\n      dup1\n        /* \"04/MultiSigWallet.sol\":2383:2384  i */\n      dup4\n        /* \"04/MultiSigWallet.sol\":2376:2385  owners[i] */\n      dup2\n      sload\n      dup2\n      lt\n      tag_132\n      jumpi\n      tag_133\n      tag_76\n      jump\t// in\n    tag_133:\n    tag_132:\n      swap1\n      0x00\n      mstore\n      keccak256(0x00, 0x20)\n      add\n      0x00\n      swap1\n      sload\n      swap1\n      0x0100\n      exp\n      swap1\n      div\n      0xffffffffffffffffffffffffffffffffffffffff\n      and\n        /* \"04/MultiSigWallet.sol\":2360:2386  approved[_txId][owners[i]] */\n      0xffffffffffffffffffffffffffffffffffffffff\n      and\n      0xffffffffffffffffffffffffffffffffffffffff\n      and\n      dup2\n      mstore\n      0x20\n      add\n      swap1\n      dup2\n      mstore\n      0x20\n      add\n      0x00\n      keccak256\n      0x00\n      swap1\n      sload\n      swap1\n      0x0100\n      exp\n      swap1\n      div\n      0xff\n      and\n        /* \"04/MultiSigWallet.sol\":2356:2428  if (approved[_txId][owners[i]]) {... */\n      iszero\n      tag_135\n      jumpi\n        /* \"04/MultiSigWallet.sol\":2406:2413  count++ */\n      dup2\n      dup1\n      tag_136\n      swap1\n      tag_137\n      jump\t// in\n    tag_136:\n      swap3\n      pop\n      pop\n        /* \"04/MultiSigWallet.sol\":2356:2428  if (approved[_txId][owners[i]]) {... */\n    tag_135:\n        /* \"04/MultiSigWallet.sol\":2337:2340  i++ */\n      dup1\n      dup1\n      0x01\n      add\n      swap2\n      pop\n      pop\n        /* \"04/MultiSigWallet.sol\":2301:2438  for (uint i = 0; i < owners.length; i++) {... */\n      jump(tag_129)\n    tag_130:\n      pop\n        /* \"04/MultiSigWallet.sol\":2218:2444  function _getApprovalCount(uint _txId) private view returns (uint count) {... */\n      swap2\n      swap1\n      pop\n      jump\t// out\n        /* \"#utility.yul\":7:84   */\n    tag_138:\n        /* \"#utility.yul\":44:51   */\n      0x00\n        /* \"#utility.yul\":73:78   */\n      dup2\n        /* \"#utility.yul\":62:78   */\n      swap1\n      pop\n        /* \"#utility.yul\":7:84   */\n      swap2\n      swap1\n      pop\n      jump\t// out\n        /* \"#utility.yul\":90:208   */\n    tag_139:\n        /* \"#utility.yul\":177:201   */\n      tag_196\n        /* \"#utility.yul\":195:200   */\n      dup2\n        /* \"#utility.yul\":177:201   */\n      tag_138\n      jump\t// in\n    tag_196:\n        /* \"#utility.yul\":172:175   */\n      dup3\n        /* \"#utility.yul\":165:202   */\n      mstore\n        /* \"#utility.yul\":90:208   */\n      pop\n      pop\n      jump\t// out\n        /* \"#utility.yul\":214:436   */\n    tag_15:\n        /* \"#utility.yul\":307:311   */\n      0x00\n        /* \"#utility.yul\":345:347   */\n      0x20\n        /* \"#utility.yul\":334:343   */\n      dup3\n        /* \"#utility.yul\":330:348   */\n      add\n        /* \"#utility.yul\":322:348   */\n      swap1\n      pop\n        /* \"#utility.yul\":358:429   */\n      tag_198\n        /* \"#utility.yul\":426:427   */\n      0x00\n        /* \"#utility.yul\":415:424   */\n      dup4\n        /* \"#utility.yul\":411:428   */\n      add\n        /* \"#utility.yul\":402:408   */\n      dup5\n        /* \"#utility.yul\":358:429   */\n      tag_139\n      jump\t// in\n    tag_198:\n        /* \"#utility.yul\":214:436   */\n      swap3\n      swap2\n      pop\n      pop\n      jump\t// out\n        /* \"#utility.yul\":523:640   */\n    tag_141:\n        /* \"#utility.yul\":632:633   */\n      0x00\n        /* \"#utility.yul\":629:630   */\n      dup1\n        /* \"#utility.yul\":622:634   */\n      revert\n        /* \"#utility.yul\":646:763   */\n    tag_142:\n        /* \"#utility.yul\":755:756   */\n      0x00\n        /* \"#utility.yul\":752:753   */\n      dup1\n        /* \"#utility.yul\":745:757   */\n      revert\n        /* \"#utility.yul\":769:891   */\n    tag_143:\n        /* \"#utility.yul\":842:866   */\n      tag_203\n        /* \"#utility.yul\":860:865   */\n      dup2\n        /* \"#utility.yul\":842:866   */\n      tag_138\n      jump\t// in\n    tag_203:\n        /* \"#utility.yul\":835:840   */\n      dup2\n        /* \"#utility.yul\":832:867   */\n      eq\n        /* \"#utility.yul\":822:885   */\n      tag_204\n      jumpi\n        /* \"#utility.yul\":881:882   */\n      0x00\n        /* \"#utility.yul\":878:879   */\n      dup1\n        /* \"#utility.yul\":871:883   */\n      revert\n        /* \"#utility.yul\":822:885   */\n    tag_204:\n        /* \"#utility.yul\":769:891   */\n      pop\n      jump\t// out\n        /* \"#utility.yul\":897:1036   */\n    tag_144:\n        /* \"#utility.yul\":943:948   */\n      0x00\n        /* \"#utility.yul\":981:987   */\n      dup2\n        /* \"#utility.yul\":968:988   */\n      calldataload\n        /* \"#utility.yul\":959:988   */\n      swap1\n      pop\n        /* \"#utility.yul\":997:1030   */\n      tag_206\n        /* \"#utility.yul\":1024:1029   */\n      dup2\n        /* \"#utility.yul\":997:1030   */\n      tag_143\n      jump\t// in\n    tag_206:\n        /* \"#utility.yul\":897:1036   */\n      swap3\n      swap2\n      pop\n      pop\n      jump\t// out\n        /* \"#utility.yul\":1042:1371   */\n    tag_19:\n        /* \"#utility.yul\":1101:1107   */\n      0x00\n        /* \"#utility.yul\":1150:1152   */\n      0x20\n        /* \"#utility.yul\":1138:1147   */\n      dup3\n        /* \"#utility.yul\":1129:1136   */\n      dup5\n        /* \"#utility.yul\":1125:1148   */\n      sub\n        /* \"#utility.yul\":1121:1153   */\n      slt\n        /* \"#utility.yul\":1118:1237   */\n      iszero\n      tag_208\n      jumpi\n        /* \"#utility.yul\":1156:1235   */\n      tag_209\n      tag_141\n      jump\t// in\n    tag_209:\n        /* \"#utility.yul\":1118:1237   */\n    tag_208:\n        /* \"#utility.yul\":1276:1277   */\n      0x00\n        /* \"#utility.yul\":1301:1354   */\n      tag_210\n        /* \"#utility.yul\":1346:1353   */\n      dup5\n        /* \"#utility.yul\":1337:1343   */\n      dup3\n        /* \"#utility.yul\":1326:1335   */\n      dup6\n        /* \"#utility.yul\":1322:1344   */\n      add\n        /* \"#utility.yul\":1301:1354   */\n      tag_144\n      jump\t// in\n    tag_210:\n        /* \"#utility.yul\":1291:1354   */\n      swap2\n      pop\n        /* \"#utility.yul\":1247:1364   */\n      pop\n        /* \"#utility.yul\":1042:1371   */\n      swap3\n      swap2\n      pop\n      pop\n      jump\t// out\n        /* \"#utility.yul\":1377:1503   */\n    tag_145:\n        /* \"#utility.yul\":1414:1421   */\n      0x00\n        /* \"#utility.yul\":1454:1496   */\n      0xffffffffffffffffffffffffffffffffffffffff\n        /* \"#utility.yul\":1447:1452   */\n      dup3\n        /* \"#utility.yul\":1443:1497   */\n      and\n        /* \"#utility.yul\":1432:1497   */\n      swap1\n      pop\n        /* \"#utility.yul\":1377:1503   */\n      swap2\n      swap1\n      pop\n      jump\t// out\n        /* \"#utility.yul\":1509:1605   */\n    tag_146:\n        /* \"#utility.yul\":1546:1553   */\n      0x00\n        /* \"#utility.yul\":1575:1599   */\n      tag_213\n        /* \"#utility.yul\":1593:1598   */\n      dup3\n        /* \"#utility.yul\":1575:1599   */\n      tag_145\n      jump\t// in\n    tag_213:\n        /* \"#utility.yul\":1564:1599   */\n      swap1\n      pop\n        /* \"#utility.yul\":1509:1605   */\n      swap2\n      swap1\n      pop\n      jump\t// out\n        /* \"#utility.yul\":1611:1729   */\n    tag_147:\n        /* \"#utility.yul\":1698:1722   */\n      tag_215\n        /* \"#utility.yul\":1716:1721   */\n      dup2\n        /* \"#utility.yul\":1698:1722   */\n      tag_146\n      jump\t// in\n    tag_215:\n        /* \"#utility.yul\":1693:1696   */\n      dup3\n        /* \"#utility.yul\":1686:1723   */\n      mstore\n        /* \"#utility.yul\":1611:1729   */\n      pop\n      pop\n      jump\t// out\n        /* \"#utility.yul\":1735:1957   */\n    tag_22:\n        /* \"#utility.yul\":1828:1832   */\n      0x00\n        /* \"#utility.yul\":1866:1868   */\n      0x20\n        /* \"#utility.yul\":1855:1864   */\n      dup3\n        /* \"#utility.yul\":1851:1869   */\n      add\n        /* \"#utility.yul\":1843:1869   */\n      swap1\n      pop\n        /* \"#utility.yul\":1879:1950   */\n      tag_217\n        /* \"#utility.yul\":1947:1948   */\n      0x00\n        /* \"#utility.yul\":1936:1945   */\n      dup4\n        /* \"#utility.yul\":1932:1949   */\n      add\n        /* \"#utility.yul\":1923:1929   */\n      dup5\n        /* \"#utility.yul\":1879:1950   */\n      tag_147\n      jump\t// in\n    tag_217:\n        /* \"#utility.yul\":1735:1957   */\n      swap3\n      swap2\n      pop\n      pop\n      jump\t// out\n        /* \"#utility.yul\":1963:2085   */\n    tag_148:\n        /* \"#utility.yul\":2036:2060   */\n      tag_219\n        /* \"#utility.yul\":2054:2059   */\n      dup2\n        /* \"#utility.yul\":2036:2060   */\n      tag_146\n      jump\t// in\n    tag_219:\n        /* \"#utility.yul\":2029:2034   */\n      dup2\n        /* \"#utility.yul\":2026:2061   */\n      eq\n        /* \"#utility.yul\":2016:2079   */\n      tag_220\n      jumpi\n        /* \"#utility.yul\":2075:2076   */\n      0x00\n        /* \"#utility.yul\":2072:2073   */\n      dup1\n        /* \"#utility.yul\":2065:2077   */\n      revert\n        /* \"#utility.yul\":2016:2079   */\n    tag_220:\n        /* \"#utility.yul\":1963:2085   */\n      pop\n      jump\t// out\n        /* \"#utility.yul\":2091:2230   */\n    tag_149:\n        /* \"#utility.yul\":2137:2142   */\n      0x00\n        /* \"#utility.yul\":2175:2181   */\n      dup2\n        /* \"#utility.yul\":2162:2182   */\n      calldataload\n        /* \"#utility.yul\":2153:2182   */\n      swap1\n      pop\n        /* \"#utility.yul\":2191:2224   */\n      tag_222\n        /* \"#utility.yul\":2218:2223   */\n      dup2\n        /* \"#utility.yul\":2191:2224   */\n      tag_148\n      jump\t// in\n    tag_222:\n        /* \"#utility.yul\":2091:2230   */\n      swap3\n      swap2\n      pop\n      pop\n      jump\t// out\n        /* \"#utility.yul\":2236:2353   */\n    tag_150:\n        /* \"#utility.yul\":2345:2346   */\n      0x00\n        /* \"#utility.yul\":2342:2343   */\n      dup1\n        /* \"#utility.yul\":2335:2347   */\n      revert\n        /* \"#utility.yul\":2359:2476   */\n    tag_151:\n        /* \"#utility.yul\":2468:2469   */\n      0x00\n        /* \"#utility.yul\":2465:2466   */\n      dup1\n        /* \"#utility.yul\":2458:2470   */\n      revert\n        /* \"#utility.yul\":2482:2599   */\n    tag_152:\n        /* \"#utility.yul\":2591:2592   */\n      0x00\n        /* \"#utility.yul\":2588:2589   */\n      dup1\n        /* \"#utility.yul\":2581:2593   */\n      revert\n        /* \"#utility.yul\":2618:3170   */\n    tag_153:\n        /* \"#utility.yul\":2675:2683   */\n      0x00\n        /* \"#utility.yul\":2685:2691   */\n      dup1\n        /* \"#utility.yul\":2735:2738   */\n      dup4\n        /* \"#utility.yul\":2728:2732   */\n      0x1f\n        /* \"#utility.yul\":2720:2726   */\n      dup5\n        /* \"#utility.yul\":2716:2733   */\n      add\n        /* \"#utility.yul\":2712:2739   */\n      slt\n        /* \"#utility.yul\":2702:2824   */\n      tag_227\n      jumpi\n        /* \"#utility.yul\":2743:2822   */\n      tag_228\n      tag_150\n      jump\t// in\n    tag_228:\n        /* \"#utility.yul\":2702:2824   */\n    tag_227:\n        /* \"#utility.yul\":2856:2862   */\n      dup3\n        /* \"#utility.yul\":2843:2863   */\n      calldataload\n        /* \"#utility.yul\":2833:2863   */\n      swap1\n      pop\n        /* \"#utility.yul\":2886:2904   */\n      0xffffffffffffffff\n        /* \"#utility.yul\":2878:2884   */\n      dup2\n        /* \"#utility.yul\":2875:2905   */\n      gt\n        /* \"#utility.yul\":2872:2989   */\n      iszero\n      tag_229\n      jumpi\n        /* \"#utility.yul\":2908:2987   */\n      tag_230\n      tag_151\n      jump\t// in\n    tag_230:\n        /* \"#utility.yul\":2872:2989   */\n    tag_229:\n        /* \"#utility.yul\":3022:3026   */\n      0x20\n        /* \"#utility.yul\":3014:3020   */\n      dup4\n        /* \"#utility.yul\":3010:3027   */\n      add\n        /* \"#utility.yul\":2998:3027   */\n      swap2\n      pop\n        /* \"#utility.yul\":3076:3079   */\n      dup4\n        /* \"#utility.yul\":3068:3072   */\n      0x01\n        /* \"#utility.yul\":3060:3066   */\n      dup3\n        /* \"#utility.yul\":3056:3073   */\n      mul\n        /* \"#utility.yul\":3046:3054   */\n      dup4\n        /* \"#utility.yul\":3042:3074   */\n      add\n        /* \"#utility.yul\":3039:3080   */\n      gt\n        /* \"#utility.yul\":3036:3164   */\n      iszero\n      tag_231\n      jumpi\n        /* \"#utility.yul\":3083:3162   */\n      tag_232\n      tag_152\n      jump\t// in\n    tag_232:\n        /* \"#utility.yul\":3036:3164   */\n    tag_231:\n        /* \"#utility.yul\":2618:3170   */\n      swap3\n      pop\n      swap3\n      swap1\n      pop\n      jump\t// out\n        /* \"#utility.yul\":3176:3993   */\n    tag_26:\n        /* \"#utility.yul\":3264:3270   */\n      0x00\n        /* \"#utility.yul\":3272:3278   */\n      dup1\n        /* \"#utility.yul\":3280:3286   */\n      0x00\n        /* \"#utility.yul\":3288:3294   */\n      dup1\n        /* \"#utility.yul\":3337:3339   */\n      0x60\n        /* \"#utility.yul\":3325:3334   */\n      dup6\n        /* \"#utility.yul\":3316:3323   */\n      dup8\n        /* \"#utility.yul\":3312:3335   */\n      sub\n        /* \"#utility.yul\":3308:3340   */\n      slt\n        /* \"#utility.yul\":3305:3424   */\n      iszero\n      tag_234\n      jumpi\n        /* \"#utility.yul\":3343:3422   */\n      tag_235\n      tag_141\n      jump\t// in\n    tag_235:\n        /* \"#utility.yul\":3305:3424   */\n    tag_234:\n        /* \"#utility.yul\":3463:3464   */\n      0x00\n        /* \"#utility.yul\":3488:3541   */\n      tag_236\n        /* \"#utility.yul\":3533:3540   */\n      dup8\n        /* \"#utility.yul\":3524:3530   */\n      dup3\n        /* \"#utility.yul\":3513:3522   */\n      dup9\n        /* \"#utility.yul\":3509:3531   */\n      add\n        /* \"#utility.yul\":3488:3541   */\n      tag_149\n      jump\t// in\n    tag_236:\n        /* \"#utility.yul\":3478:3541   */\n      swap5\n      pop\n        /* \"#utility.yul\":3434:3551   */\n      pop\n        /* \"#utility.yul\":3590:3592   */\n      0x20\n        /* \"#utility.yul\":3616:3669   */\n      tag_237\n        /* \"#utility.yul\":3661:3668   */\n      dup8\n        /* \"#utility.yul\":3652:3658   */\n      dup3\n        /* \"#utility.yul\":3641:3650   */\n      dup9\n        /* \"#utility.yul\":3637:3659   */\n      add\n        /* \"#utility.yul\":3616:3669   */\n      tag_144\n      jump\t// in\n    tag_237:\n        /* \"#utility.yul\":3606:3669   */\n      swap4\n      pop\n        /* \"#utility.yul\":3561:3679   */\n      pop\n        /* \"#utility.yul\":3746:3748   */\n      0x40\n        /* \"#utility.yul\":3735:3744   */\n      dup6\n        /* \"#utility.yul\":3731:3749   */\n      add\n        /* \"#utility.yul\":3718:3750   */\n      calldataload\n        /* \"#utility.yul\":3777:3795   */\n      0xffffffffffffffff\n        /* \"#utility.yul\":3769:3775   */\n      dup2\n        /* \"#utility.yul\":3766:3796   */\n      gt\n        /* \"#utility.yul\":3763:3880   */\n      iszero\n      tag_238\n      jumpi\n        /* \"#utility.yul\":3799:3878   */\n      tag_239\n      tag_142\n      jump\t// in\n    tag_239:\n        /* \"#utility.yul\":3763:3880   */\n    tag_238:\n        /* \"#utility.yul\":3912:3976   */\n      tag_240\n        /* \"#utility.yul\":3968:3975   */\n      dup8\n        /* \"#utility.yul\":3959:3965   */\n      dup3\n        /* \"#utility.yul\":3948:3957   */\n      dup9\n        /* \"#utility.yul\":3944:3966   */\n      add\n        /* \"#utility.yul\":3912:3976   */\n      tag_153\n      jump\t// in\n    tag_240:\n        /* \"#utility.yul\":3894:3976   */\n      swap3\n      pop\n      swap3\n      pop\n        /* \"#utility.yul\":3689:3986   */\n      pop\n        /* \"#utility.yul\":3176:3993   */\n      swap3\n      swap6\n      swap2\n      swap5\n      pop\n      swap3\n      pop\n      jump\t// out\n        /* \"#utility.yul\":3999:4328   */\n    tag_35:\n        /* \"#utility.yul\":4058:4064   */\n      0x00\n        /* \"#utility.yul\":4107:4109   */\n      0x20\n        /* \"#utility.yul\":4095:4104   */\n      dup3\n        /* \"#utility.yul\":4086:4093   */\n      dup5\n        /* \"#utility.yul\":4082:4105   */\n      sub\n        /* \"#utility.yul\":4078:4110   */\n      slt\n        /* \"#utility.yul\":4075:4194   */\n      iszero\n      tag_242\n      jumpi\n        /* \"#utility.yul\":4113:4192   */\n      tag_243\n      tag_141\n      jump\t// in\n    tag_243:\n        /* \"#utility.yul\":4075:4194   */\n    tag_242:\n        /* \"#utility.yul\":4233:4234   */\n      0x00\n        /* \"#utility.yul\":4258:4311   */\n      tag_244\n        /* \"#utility.yul\":4303:4310   */\n      dup5\n        /* \"#utility.yul\":4294:4300   */\n      dup3\n        /* \"#utility.yul\":4283:4292   */\n      dup6\n        /* \"#utility.yul\":4279:4301   */\n      add\n        /* \"#utility.yul\":4258:4311   */\n      tag_149\n      jump\t// in\n    tag_244:\n        /* \"#utility.yul\":4248:4311   */\n      swap2\n      pop\n        /* \"#utility.yul\":4204:4321   */\n      pop\n        /* \"#utility.yul\":3999:4328   */\n      swap3\n      swap2\n      pop\n      pop\n      jump\t// out\n        /* \"#utility.yul\":4334:4424   */\n    tag_154:\n        /* \"#utility.yul\":4368:4375   */\n      0x00\n        /* \"#utility.yul\":4411:4416   */\n      dup2\n        /* \"#utility.yul\":4404:4417   */\n      iszero\n        /* \"#utility.yul\":4397:4418   */\n      iszero\n        /* \"#utility.yul\":4386:4418   */\n      swap1\n      pop\n        /* \"#utility.yul\":4334:4424   */\n      swap2\n      swap1\n      pop\n      jump\t// out\n        /* \"#utility.yul\":4430:4539   */\n    tag_155:\n        /* \"#utility.yul\":4511:4532   */\n      tag_247\n        /* \"#utility.yul\":4526:4531   */\n      dup2\n        /* \"#utility.yul\":4511:4532   */\n      tag_154\n      jump\t// in\n    tag_247:\n        /* \"#utility.yul\":4506:4509   */\n      dup3\n        /* \"#utility.yul\":4499:4533   */\n      mstore\n        /* \"#utility.yul\":4430:4539   */\n      pop\n      pop\n      jump\t// out\n        /* \"#utility.yul\":4545:4755   */\n    tag_38:\n        /* \"#utility.yul\":4632:4636   */\n      0x00\n        /* \"#utility.yul\":4670:4672   */\n      0x20\n        /* \"#utility.yul\":4659:4668   */\n      dup3\n        /* \"#utility.yul\":4655:4673   */\n      add\n        /* \"#utility.yul\":4647:4673   */\n      swap1\n      pop\n        /* \"#utility.yul\":4683:4748   */\n      tag_249\n        /* \"#utility.yul\":4745:4746   */\n      0x00\n        /* \"#utility.yul\":4734:4743   */\n      dup4\n        /* \"#utility.yul\":4730:4747   */\n      add\n        /* \"#utility.yul\":4721:4727   */\n      dup5\n        /* \"#utility.yul\":4683:4748   */\n      tag_155\n      jump\t// in\n    tag_249:\n        /* \"#utility.yul\":4545:4755   */\n      swap3\n      swap2\n      pop\n      pop\n      jump\t// out\n        /* \"#utility.yul\":4761:5235   */\n    tag_42:\n        /* \"#utility.yul\":4829:4835   */\n      0x00\n        /* \"#utility.yul\":4837:4843   */\n      dup1\n        /* \"#utility.yul\":4886:4888   */\n      0x40\n        /* \"#utility.yul\":4874:4883   */\n      dup4\n        /* \"#utility.yul\":4865:4872   */\n      dup6\n        /* \"#utility.yul\":4861:4884   */\n      sub\n        /* \"#utility.yul\":4857:4889   */\n      slt\n        /* \"#utility.yul\":4854:4973   */\n      iszero\n      tag_251\n      jumpi\n        /* \"#utility.yul\":4892:4971   */\n      tag_252\n      tag_141\n      jump\t// in\n    tag_252:\n        /* \"#utility.yul\":4854:4973   */\n    tag_251:\n        /* \"#utility.yul\":5012:5013   */\n      0x00\n        /* \"#utility.yul\":5037:5090   */\n      tag_253\n        /* \"#utility.yul\":5082:5089   */\n      dup6\n        /* \"#utility.yul\":5073:5079   */\n      dup3\n        /* \"#utility.yul\":5062:5071   */\n      dup7\n        /* \"#utility.yul\":5058:5080   */\n      add\n        /* \"#utility.yul\":5037:5090   */\n      tag_144\n      jump\t// in\n    tag_253:\n        /* \"#utility.yul\":5027:5090   */\n      swap3\n      pop\n        /* \"#utility.yul\":4983:5100   */\n      pop\n        /* \"#utility.yul\":5139:5141   */\n      0x20\n        /* \"#utility.yul\":5165:5218   */\n      tag_254\n        /* \"#utility.yul\":5210:5217   */\n      dup6\n        /* \"#utility.yul\":5201:5207   */\n      dup3\n        /* \"#utility.yul\":5190:5199   */\n      dup7\n        /* \"#utility.yul\":5186:5208   */\n      add\n        /* \"#utility.yul\":5165:5218   */\n      tag_149\n      jump\t// in\n    tag_254:\n        /* \"#utility.yul\":5155:5218   */\n      swap2\n      pop\n        /* \"#utility.yul\":5110:5228   */\n      pop\n        /* \"#utility.yul\":4761:5235   */\n      swap3\n      pop\n      swap3\n      swap1\n      pop\n      jump\t// out\n        /* \"#utility.yul\":5241:5410   */\n    tag_156:\n        /* \"#utility.yul\":5325:5336   */\n      0x00\n        /* \"#utility.yul\":5359:5365   */\n      dup3\n        /* \"#utility.yul\":5354:5357   */\n      dup3\n        /* \"#utility.yul\":5347:5366   */\n      mstore\n        /* \"#utility.yul\":5399:5403   */\n      0x20\n        /* \"#utility.yul\":5394:5397   */\n      dup3\n        /* \"#utility.yul\":5390:5404   */\n      add\n        /* \"#utility.yul\":5375:5404   */\n      swap1\n      pop\n        /* \"#utility.yul\":5241:5410   */\n      swap3\n      swap2\n      pop\n      pop\n      jump\t// out\n        /* \"#utility.yul\":5416:5575   */\n    tag_157:\n        /* \"#utility.yul\":5556:5567   */\n      0x6e6f74206f776e65720000000000000000000000000000000000000000000000\n        /* \"#utility.yul\":5552:5553   */\n      0x00\n        /* \"#utility.yul\":5544:5550   */\n      dup3\n        /* \"#utility.yul\":5540:5554   */\n      add\n        /* \"#utility.yul\":5533:5568   */\n      mstore\n        /* \"#utility.yul\":5416:5575   */\n      pop\n      jump\t// out\n        /* \"#utility.yul\":5581:5946   */\n    tag_158:\n        /* \"#utility.yul\":5723:5726   */\n      0x00\n        /* \"#utility.yul\":5744:5810   */\n      tag_258\n        /* \"#utility.yul\":5808:5809   */\n      0x09\n        /* \"#utility.yul\":5803:5806   */\n      dup4\n        /* \"#utility.yul\":5744:5810   */\n      tag_156\n      jump\t// in\n    tag_258:\n        /* \"#utility.yul\":5737:5810   */\n      swap2\n      pop\n        /* \"#utility.yul\":5819:5912   */\n      tag_259\n        /* \"#utility.yul\":5908:5911   */\n      dup3\n        /* \"#utility.yul\":5819:5912   */\n      tag_157\n      jump\t// in\n    tag_259:\n        /* \"#utility.yul\":5937:5939   */\n      0x20\n        /* \"#utility.yul\":5932:5935   */\n      dup3\n        /* \"#utility.yul\":5928:5940   */\n      add\n        /* \"#utility.yul\":5921:5940   */\n      swap1\n      pop\n        /* \"#utility.yul\":5581:5946   */\n      swap2\n      swap1\n      pop\n      jump\t// out\n        /* \"#utility.yul\":5952:6371   */\n    tag_62:\n        /* \"#utility.yul\":6118:6122   */\n      0x00\n        /* \"#utility.yul\":6156:6158   */\n      0x20\n        /* \"#utility.yul\":6145:6154   */\n      dup3\n        /* \"#utility.yul\":6141:6159   */\n      add\n        /* \"#utility.yul\":6133:6159   */\n      swap1\n      pop\n        /* \"#utility.yul\":6205:6214   */\n      dup2\n        /* \"#utility.yul\":6199:6203   */\n      dup2\n        /* \"#utility.yul\":6195:6215   */\n      sub\n        /* \"#utility.yul\":6191:6192   */\n      0x00\n        /* \"#utility.yul\":6180:6189   */\n      dup4\n        /* \"#utility.yul\":6176:6193   */\n      add\n        /* \"#utility.yul\":6169:6216   */\n      mstore\n        /* \"#utility.yul\":6233:6364   */\n      tag_261\n        /* \"#utility.yul\":6359:6363   */\n      dup2\n        /* \"#utility.yul\":6233:6364   */\n      tag_158\n      jump\t// in\n    tag_261:\n        /* \"#utility.yul\":6225:6364   */\n      swap1\n      pop\n        /* \"#utility.yul\":5952:6371   */\n      swap2\n      swap1\n      pop\n      jump\t// out\n        /* \"#utility.yul\":6377:6475   */\n    tag_159:\n        /* \"#utility.yul\":6428:6434   */\n      0x00\n        /* \"#utility.yul\":6462:6467   */\n      dup2\n        /* \"#utility.yul\":6456:6468   */\n      mload\n        /* \"#utility.yul\":6446:6468   */\n      swap1\n      pop\n        /* \"#utility.yul\":6377:6475   */\n      swap2\n      swap1\n      pop\n      jump\t// out\n        /* \"#utility.yul\":6481:6661   */\n    tag_160:\n        /* \"#utility.yul\":6529:6606   */\n      0x4e487b7100000000000000000000000000000000000000000000000000000000\n        /* \"#utility.yul\":6526:6527   */\n      0x00\n        /* \"#utility.yul\":6519:6607   */\n      mstore\n        /* \"#utility.yul\":6626:6630   */\n      0x41\n        /* \"#utility.yul\":6623:6624   */\n      0x04\n        /* \"#utility.yul\":6616:6631   */\n      mstore\n        /* \"#utility.yul\":6650:6654   */\n      0x24\n        /* \"#utility.yul\":6647:6648   */\n      0x00\n        /* \"#utility.yul\":6640:6655   */\n      revert\n        /* \"#utility.yul\":6667:6847   */\n    tag_161:\n        /* \"#utility.yul\":6715:6792   */\n      0x4e487b7100000000000000000000000000000000000000000000000000000000\n        /* \"#utility.yul\":6712:6713   */\n      0x00\n        /* \"#utility.yul\":6705:6793   */\n      mstore\n        /* \"#utility.yul\":6812:6816   */\n      0x22\n        /* \"#utility.yul\":6809:6810   */\n      0x04\n        /* \"#utility.yul\":6802:6817   */\n      mstore\n        /* \"#utility.yul\":6836:6840   */\n      0x24\n        /* \"#utility.yul\":6833:6834   */\n      0x00\n        /* \"#utility.yul\":6826:6841   */\n      revert\n        /* \"#utility.yul\":6853:7173   */\n    tag_162:\n        /* \"#utility.yul\":6897:6903   */\n      0x00\n        /* \"#utility.yul\":6934:6935   */\n      0x02\n        /* \"#utility.yul\":6928:6932   */\n      dup3\n        /* \"#utility.yul\":6924:6936   */\n      div\n        /* \"#utility.yul\":6914:6936   */\n      swap1\n      pop\n        /* \"#utility.yul\":6981:6982   */\n      0x01\n        /* \"#utility.yul\":6975:6979   */\n      dup3\n        /* \"#utility.yul\":6971:6983   */\n      and\n        /* \"#utility.yul\":7002:7020   */\n      dup1\n        /* \"#utility.yul\":6992:7073   */\n      tag_266\n      jumpi\n        /* \"#utility.yul\":7058:7062   */\n      0x7f\n        /* \"#utility.yul\":7050:7056   */\n      dup3\n        /* \"#utility.yul\":7046:7063   */\n      and\n        /* \"#utility.yul\":7036:7063   */\n      swap2\n      pop\n        /* \"#utility.yul\":6992:7073   */\n    tag_266:\n        /* \"#utility.yul\":7120:7122   */\n      0x20\n        /* \"#utility.yul\":7112:7118   */\n      dup3\n        /* \"#utility.yul\":7109:7123   */\n      lt\n        /* \"#utility.yul\":7089:7107   */\n      dup2\n        /* \"#utility.yul\":7086:7124   */\n      sub\n        /* \"#utility.yul\":7083:7167   */\n      tag_267\n      jumpi\n        /* \"#utility.yul\":7139:7157   */\n      tag_268\n      tag_161\n      jump\t// in\n    tag_268:\n        /* \"#utility.yul\":7083:7167   */\n    tag_267:\n        /* \"#utility.yul\":6904:7173   */\n      pop\n        /* \"#utility.yul\":6853:7173   */\n      swap2\n      swap1\n      pop\n      jump\t// out\n        /* \"#utility.yul\":7179:7319   */\n    tag_163:\n        /* \"#utility.yul\":7227:7231   */\n      0x00\n        /* \"#utility.yul\":7250:7253   */\n      dup2\n        /* \"#utility.yul\":7242:7253   */\n      swap1\n      pop\n        /* \"#utility.yul\":7273:7276   */\n      dup2\n        /* \"#utility.yul\":7270:7271   */\n      0x00\n        /* \"#utility.yul\":7263:7277   */\n      mstore\n        /* \"#utility.yul\":7307:7311   */\n      0x20\n        /* \"#utility.yul\":7304:7305   */\n      0x00\n        /* \"#utility.yul\":7294:7312   */\n      keccak256\n        /* \"#utility.yul\":7286:7312   */\n      swap1\n      pop\n        /* \"#utility.yul\":7179:7319   */\n      swap2\n      swap1\n      pop\n      jump\t// out\n        /* \"#utility.yul\":7325:7418   */\n    tag_164:\n        /* \"#utility.yul\":7362:7368   */\n      0x00\n        /* \"#utility.yul\":7409:7411   */\n      0x20\n        /* \"#utility.yul\":7404:7406   */\n      0x1f\n        /* \"#utility.yul\":7397:7402   */\n      dup4\n        /* \"#utility.yul\":7393:7407   */\n      add\n        /* \"#utility.yul\":7389:7412   */\n      div\n        /* \"#utility.yul\":7379:7412   */\n      swap1\n      pop\n        /* \"#utility.yul\":7325:7418   */\n      swap2\n      swap1\n      pop\n      jump\t// out\n        /* \"#utility.yul\":7424:7531   */\n    tag_165:\n        /* \"#utility.yul\":7468:7476   */\n      0x00\n        /* \"#utility.yul\":7518:7523   */\n      dup3\n        /* \"#utility.yul\":7512:7516   */\n      dup3\n        /* \"#utility.yul\":7508:7524   */\n      shl\n        /* \"#utility.yul\":7487:7524   */\n      swap1\n      pop\n        /* \"#utility.yul\":7424:7531   */\n      swap3\n      swap2\n      pop\n      pop\n      jump\t// out\n        /* \"#utility.yul\":7537:7930   */\n    tag_166:\n        /* \"#utility.yul\":7606:7612   */\n      0x00\n        /* \"#utility.yul\":7656:7657   */\n      0x08\n        /* \"#utility.yul\":7644:7654   */\n      dup4\n        /* \"#utility.yul\":7640:7658   */\n      mul\n        /* \"#utility.yul\":7679:7776   */\n      tag_273\n        /* \"#utility.yul\":7709:7775   */\n      0xffffffffffffffffffffffffffffffffffffffffffffffffffffffffffffffff\n        /* \"#utility.yul\":7698:7707   */\n      dup3\n        /* \"#utility.yul\":7679:7776   */\n      tag_165\n      jump\t// in\n    tag_273:\n        /* \"#utility.yul\":7797:7836   */\n      tag_274\n        /* \"#utility.yul\":7827:7835   */\n      dup7\n        /* \"#utility.yul\":7816:7825   */\n      dup4\n        /* \"#utility.yul\":7797:7836   */\n      tag_165\n      jump\t// in\n    tag_274:\n        /* \"#utility.yul\":7785:7836   */\n      swap6\n      pop\n        /* \"#utility.yul\":7869:7873   */\n      dup1\n        /* \"#utility.yul\":7865:7874   */\n      not\n        /* \"#utility.yul\":7858:7863   */\n      dup5\n        /* \"#utility.yul\":7854:7875   */\n      and\n        /* \"#utility.yul\":7845:7875   */\n      swap4\n      pop\n        /* \"#utility.yul\":7918:7922   */\n      dup1\n        /* \"#utility.yul\":7908:7916   */\n      dup7\n        /* \"#utility.yul\":7904:7923   */\n      and\n        /* \"#utility.yul\":7897:7902   */\n      dup5\n        /* \"#utility.yul\":7894:7924   */\n      or\n        /* \"#utility.yul\":7884:7924   */\n      swap3\n      pop\n        /* \"#utility.yul\":7613:7930   */\n      pop\n      pop\n        /* \"#utility.yul\":7537:7930   */\n      swap4\n      swap3\n      pop\n      pop\n      pop\n      jump\t// out\n        /* \"#utility.yul\":7936:7996   */\n    tag_167:\n        /* \"#utility.yul\":7964:7967   */\n      0x00\n        /* \"#utility.yul\":7985:7990   */\n      dup2\n        /* \"#utility.yul\":7978:7990   */\n      swap1\n      pop\n        /* \"#utility.yul\":7936:7996   */\n      swap2\n      swap1\n      pop\n      jump\t// out\n        /* \"#utility.yul\":8002:8144   */\n    tag_168:\n        /* \"#utility.yul\":8052:8061   */\n      0x00\n        /* \"#utility.yul\":8085:8138   */\n      tag_277\n        /* \"#utility.yul\":8103:8137   */\n      tag_278\n        /* \"#utility.yul\":8112:8136   */\n      tag_279\n        /* \"#utility.yul\":8130:8135   */\n      dup5\n        /* \"#utility.yul\":8112:8136   */\n      tag_138\n      jump\t// in\n    tag_279:\n        /* \"#utility.yul\":8103:8137   */\n      tag_167\n      jump\t// in\n    tag_278:\n        /* \"#utility.yul\":8085:8138   */\n      tag_138\n      jump\t// in\n    tag_277:\n        /* \"#utility.yul\":8072:8138   */\n      swap1\n      pop\n        /* \"#utility.yul\":8002:8144   */\n      swap2\n      swap1\n      pop\n      jump\t// out\n        /* \"#utility.yul\":8150:8225   */\n    tag_169:\n        /* \"#utility.yul\":8193:8196   */\n      0x00\n        /* \"#utility.yul\":8214:8219   */\n      dup2\n        /* \"#utility.yul\":8207:8219   */\n      swap1\n      pop\n        /* \"#utility.yul\":8150:8225   */\n      swap2\n      swap1\n      pop\n      jump\t// out\n        /* \"#utility.yul\":8231:8500   */\n    tag_170:\n        /* \"#utility.yul\":8341:8380   */\n      tag_282\n        /* \"#utility.yul\":8372:8379   */\n      dup4\n        /* \"#utility.yul\":8341:8380   */\n      tag_168\n      jump\t// in\n    tag_282:\n        /* \"#utility.yul\":8402:8493   */\n      tag_283\n        /* \"#utility.yul\":8451:8492   */\n      tag_284\n        /* \"#utility.yul\":8475:8491   */\n      dup3\n        /* \"#utility.yul\":8451:8492   */\n      tag_169\n      jump\t// in\n    tag_284:\n        /* \"#utility.yul\":8443:8449   */\n      dup5\n        /* \"#utility.yul\":8436:8440   */\n      dup5\n        /* \"#utility.yul\":8430:8441   */\n      sload\n        /* \"#utility.yul\":8402:8493   */\n      tag_166\n      jump\t// in\n    tag_283:\n        /* \"#utility.yul\":8396:8400   */\n      dup3\n        /* \"#utility.yul\":8389:8494   */\n      sstore\n        /* \"#utility.yul\":8307:8500   */\n      pop\n        /* \"#utility.yul\":8231:8500   */\n      pop\n      pop\n      pop\n      jump\t// out\n        /* \"#utility.yul\":8506:8579   */\n    tag_171:\n        /* \"#utility.yul\":8551:8554   */\n      0x00\n        /* \"#utility.yul\":8506:8579   */\n      swap1\n      jump\t// out\n        /* \"#utility.yul\":8585:8774   */\n    tag_172:\n        /* \"#utility.yul\":8662:8694   */\n      tag_287\n      tag_171\n      jump\t// in\n    tag_287:\n        /* \"#utility.yul\":8703:8768   */\n      tag_288\n        /* \"#utility.yul\":8761:8767   */\n      dup2\n        /* \"#utility.yul\":8753:8759   */\n      dup5\n        /* \"#utility.yul\":8747:8751   */\n      dup5\n        /* \"#utility.yul\":8703:8768   */\n      tag_170\n      jump\t// in\n    tag_288:\n        /* \"#utility.yul\":8638:8774   */\n      pop\n        /* \"#utility.yul\":8585:8774   */\n      pop\n      pop\n      jump\t// out\n        /* \"#utility.yul\":8780:8966   */\n    tag_173:\n        /* \"#utility.yul\":8840:8960   */\n    tag_290:\n        /* \"#utility.yul\":8857:8860   */\n      dup2\n        /* \"#utility.yul\":8850:8855   */\n      dup2\n        /* \"#utility.yul\":8847:8861   */\n      lt\n        /* \"#utility.yul\":8840:8960   */\n      iszero\n      tag_292\n      jumpi\n        /* \"#utility.yul\":8911:8950   */\n      tag_293\n        /* \"#utility.yul\":8948:8949   */\n      0x00\n        /* \"#utility.yul\":8941:8946   */\n      dup3\n        /* \"#utility.yul\":8911:8950   */\n      tag_172\n      jump\t// in\n    tag_293:\n        /* \"#utility.yul\":8884:8885   */\n      0x01\n        /* \"#utility.yul\":8877:8882   */\n      dup2\n        /* \"#utility.yul\":8873:8886   */\n      add\n        /* \"#utility.yul\":8864:8886   */\n      swap1\n      pop\n        /* \"#utility.yul\":8840:8960   */\n      jump(tag_290)\n    tag_292:\n        /* \"#utility.yul\":8780:8966   */\n      pop\n      pop\n      jump\t// out\n        /* \"#utility.yul\":8972:9513   */\n    tag_174:\n        /* \"#utility.yul\":9072:9074   */\n      0x1f\n        /* \"#utility.yul\":9067:9070   */\n      dup3\n        /* \"#utility.yul\":9064:9075   */\n      gt\n        /* \"#utility.yul\":9061:9506   */\n      iszero\n      tag_295\n      jumpi\n        /* \"#utility.yul\":9106:9143   */\n      tag_296\n        /* \"#utility.yul\":9137:9142   */\n      dup2\n        /* \"#utility.yul\":9106:9143   */\n      tag_163\n      jump\t// in\n    tag_296:\n        /* \"#utility.yul\":9189:9218   */\n      tag_297\n        /* \"#utility.yul\":9207:9217   */\n      dup5\n        /* \"#utility.yul\":9189:9218   */\n      tag_164\n      jump\t// in\n    tag_297:\n        /* \"#utility.yul\":9179:9187   */\n      dup2\n        /* \"#utility.yul\":9175:9219   */\n      add\n        /* \"#utility.yul\":9372:9374   */\n      0x20\n        /* \"#utility.yul\":9360:9370   */\n      dup6\n        /* \"#utility.yul\":9357:9375   */\n      lt\n        /* \"#utility.yul\":9354:9403   */\n      iszero\n      tag_298\n      jumpi\n        /* \"#utility.yul\":9393:9401   */\n      dup2\n        /* \"#utility.yul\":9378:9401   */\n      swap1\n      pop\n        /* \"#utility.yul\":9354:9403   */\n    tag_298:\n        /* \"#utility.yul\":9416:9496   */\n      tag_299\n        /* \"#utility.yul\":9472:9494   */\n      tag_300\n        /* \"#utility.yul\":9490:9493   */\n      dup6\n        /* \"#utility.yul\":9472:9494   */\n      tag_164\n      jump\t// in\n    tag_300:\n        /* \"#utility.yul\":9462:9470   */\n      dup4\n        /* \"#utility.yul\":9458:9495   */\n      add\n        /* \"#utility.yul\":9445:9456   */\n      dup3\n        /* \"#utility.yul\":9416:9496   */\n      tag_173\n      jump\t// in\n    tag_299:\n        /* \"#utility.yul\":9076:9506   */\n      pop\n      pop\n        /* \"#utility.yul\":9061:9506   */\n    tag_295:\n        /* \"#utility.yul\":8972:9513   */\n      pop\n      pop\n      pop\n      jump\t// out\n        /* \"#utility.yul\":9519:9636   */\n    tag_175:\n        /* \"#utility.yul\":9573:9581   */\n      0x00\n        /* \"#utility.yul\":9623:9628   */\n      dup3\n        /* \"#utility.yul\":9617:9621   */\n      dup3\n        /* \"#utility.yul\":9613:9629   */\n      shr\n        /* \"#utility.yul\":9592:9629   */\n      swap1\n      pop\n        /* \"#utility.yul\":9519:9636   */\n      swap3\n      swap2\n      pop\n      pop\n      jump\t// out\n        /* \"#utility.yul\":9642:9811   */\n    tag_176:\n        /* \"#utility.yul\":9686:9692   */\n      0x00\n        /* \"#utility.yul\":9719:9770   */\n      tag_303\n        /* \"#utility.yul\":9767:9768   */\n      0x00\n        /* \"#utility.yul\":9763:9769   */\n      not\n        /* \"#utility.yul\":9755:9760   */\n      dup5\n        /* \"#utility.yul\":9752:9753   */\n      0x08\n        /* \"#utility.yul\":9748:9761   */\n      mul\n        /* \"#utility.yul\":9719:9770   */\n      tag_175\n      jump\t// in\n    tag_303:\n        /* \"#utility.yul\":9715:9771   */\n      not\n        /* \"#utility.yul\":9800:9804   */\n      dup1\n        /* \"#utility.yul\":9794:9798   */\n      dup4\n        /* \"#utility.yul\":9790:9805   */\n      and\n        /* \"#utility.yul\":9780:9805   */\n      swap2\n      pop\n        /* \"#utility.yul\":9693:9811   */\n      pop\n        /* \"#utility.yul\":9642:9811   */\n      swap3\n      swap2\n      pop\n      pop\n      jump\t// out\n        /* \"#utility.yul\":9816:10111   */\n    tag_177:\n        /* \"#utility.yul\":9892:9896   */\n      0x00\n        /* \"#utility.yul\":10038:10067   */\n      tag_305\n        /* \"#utility.yul\":10063:10066   */\n      dup4\n        /* \"#utility.yul\":10057:10061   */\n      dup4\n        /* \"#utility.yul\":10038:10067   */\n      tag_176\n      jump\t// in\n    tag_305:\n        /* \"#utility.yul\":10030:10067   */\n      swap2\n      pop\n        /* \"#utility.yul\":10100:10103   */\n      dup3\n        /* \"#utility.yul\":10097:10098   */\n      0x02\n        /* \"#utility.yul\":10093:10104   */\n      mul\n        /* \"#utility.yul\":10087:10091   */\n      dup3\n        /* \"#utility.yul\":10084:10105   */\n      or\n        /* \"#utility.yul\":10076:10105   */\n      swap1\n      pop\n        /* \"#utility.yul\":9816:10111   */\n      swap3\n      swap2\n      pop\n      pop\n      jump\t// out\n        /* \"#utility.yul\":10116:11506   */\n    tag_66:\n        /* \"#utility.yul\":10231:10267   */\n      tag_307\n        /* \"#utility.yul\":10263:10266   */\n      dup3\n        /* \"#utility.yul\":10231:10267   */\n      tag_159\n      jump\t// in\n    tag_307:\n        /* \"#utility.yul\":10332:10350   */\n      0xffffffffffffffff\n        /* \"#utility.yul\":10324:10330   */\n      dup2\n        /* \"#utility.yul\":10321:10351   */\n      gt\n        /* \"#utility.yul\":10318:10374   */\n      iszero\n      tag_308\n      jumpi\n        /* \"#utility.yul\":10354:10372   */\n      tag_309\n      tag_160\n      jump\t// in\n    tag_309:\n        /* \"#utility.yul\":10318:10374   */\n    tag_308:\n        /* \"#utility.yul\":10398:10436   */\n      tag_310\n        /* \"#utility.yul\":10430:10434   */\n      dup3\n        /* \"#utility.yul\":10424:10435   */\n      sload\n        /* \"#utility.yul\":10398:10436   */\n      tag_162\n      jump\t// in\n    tag_310:\n        /* \"#utility.yul\":10483:10549   */\n      tag_311\n        /* \"#utility.yul\":10542:10548   */\n      dup3\n        /* \"#utility.yul\":10534:10540   */\n      dup3\n        /* \"#utility.yul\":10528:10532   */\n      dup6\n        /* \"#utility.yul\":10483:10549   */\n      tag_174\n      jump\t// in\n    tag_311:\n        /* \"#utility.yul\":10576:10577   */\n      0x00\n        /* \"#utility.yul\":10600:10604   */\n      0x20\n        /* \"#utility.yul\":10587:10604   */\n      swap1\n      pop\n        /* \"#utility.yul\":10632:10634   */\n      0x1f\n        /* \"#utility.yul\":10624:10630   */\n      dup4\n        /* \"#utility.yul\":10621:10635   */\n      gt\n        /* \"#utility.yul\":10649:10650   */\n      0x01\n        /* \"#utility.yul\":10644:11261   */\n      dup2\n      eq\n      tag_313\n      jumpi\n        /* \"#utility.yul\":11305:11306   */\n      0x00\n        /* \"#utility.yul\":11322:11328   */\n      dup5\n        /* \"#utility.yul\":11319:11396   */\n      iszero\n      tag_314\n      jumpi\n        /* \"#utility.yul\":11371:11380   */\n      dup3\n        /* \"#utility.yul\":11366:11369   */\n      dup8\n        /* \"#utility.yul\":11362:11381   */\n      add\n        /* \"#utility.yul\":11356:11382   */\n      mload\n        /* \"#utility.yul\":11347:11382   */\n      swap1\n      pop\n        /* \"#utility.yul\":11319:11396   */\n    tag_314:\n        /* \"#utility.yul\":11422:11489   */\n      tag_315\n        /* \"#utility.yul\":11482:11488   */\n      dup6\n        /* \"#utility.yul\":11475:11480   */\n      dup3\n        /* \"#utility.yul\":11422:11489   */\n      tag_177\n      jump\t// in\n    tag_315:\n        /* \"#utility.yul\":11416:11420   */\n      dup7\n        /* \"#utility.yul\":11409:11490   */\n      sstore\n        /* \"#utility.yul\":11278:11500   */\n      pop\n        /* \"#utility.yul\":10614:11500   */\n      jump(tag_312)\n        /* \"#utility.yul\":10644:11261   */\n    tag_313:\n        /* \"#utility.yul\":10696:10700   */\n      0x1f\n        /* \"#utility.yul\":10692:10701   */\n      not\n        /* \"#utility.yul\":10684:10690   */\n      dup5\n        /* \"#utility.yul\":10680:10702   */\n      and\n        /* \"#utility.yul\":10730:10766   */\n      tag_316\n        /* \"#utility.yul\":10761:10765   */\n      dup7\n        /* \"#utility.yul\":10730:10766   */\n      tag_163\n      jump\t// in\n    tag_316:\n        /* \"#utility.yul\":10788:10789   */\n      0x00\n        /* \"#utility.yul\":10802:11010   */\n    tag_317:\n        /* \"#utility.yul\":10816:10823   */\n      dup3\n        /* \"#utility.yul\":10813:10814   */\n      dup2\n        /* \"#utility.yul\":10810:10824   */\n      lt\n        /* \"#utility.yul\":10802:11010   */\n      iszero\n      tag_319\n      jumpi\n        /* \"#utility.yul\":10895:10904   */\n      dup5\n        /* \"#utility.yul\":10890:10893   */\n      dup10\n        /* \"#utility.yul\":10886:10905   */\n      add\n        /* \"#utility.yul\":10880:10906   */\n      mload\n        /* \"#utility.yul\":10872:10878   */\n      dup3\n        /* \"#utility.yul\":10865:10907   */\n      sstore\n        /* \"#utility.yul\":10946:10947   */\n      0x01\n        /* \"#utility.yul\":10938:10944   */\n      dup3\n        /* \"#utility.yul\":10934:10948   */\n      add\n        /* \"#utility.yul\":10924:10948   */\n      swap2\n      pop\n        /* \"#utility.yul\":10993:10995   */\n      0x20\n        /* \"#utility.yul\":10982:10991   */\n      dup6\n        /* \"#utility.yul\":10978:10996   */\n      add\n        /* \"#utility.yul\":10965:10996   */\n      swap5\n      pop\n        /* \"#utility.yul\":10839:10843   */\n      0x20\n        /* \"#utility.yul\":10836:10837   */\n      dup2\n        /* \"#utility.yul\":10832:10844   */\n      add\n        /* \"#utility.yul\":10827:10844   */\n      swap1\n      pop\n        /* \"#utility.yul\":10802:11010   */\n      jump(tag_317)\n    tag_319:\n        /* \"#utility.yul\":11038:11044   */\n      dup7\n        /* \"#utility.yul\":11029:11036   */\n      dup4\n        /* \"#utility.yul\":11026:11045   */\n      lt\n        /* \"#utility.yul\":11023:11202   */\n      iszero\n      tag_320\n      jumpi\n        /* \"#utility.yul\":11096:11105   */\n      dup5\n        /* \"#utility.yul\":11091:11094   */\n      dup10\n        /* \"#utility.yul\":11087:11106   */\n      add\n        /* \"#utility.yul\":11081:11107   */\n      mload\n        /* \"#utility.yul\":11139:11187   */\n      tag_321\n        /* \"#utility.yul\":11181:11185   */\n      0x1f\n        /* \"#utility.yul\":11173:11179   */\n      dup10\n        /* \"#utility.yul\":11169:11186   */\n      and\n        /* \"#utility.yul\":11158:11167   */\n      dup3\n        /* \"#utility.yul\":11139:11187   */\n      tag_176\n      jump\t// in\n    tag_321:\n        /* \"#utility.yul\":11131:11137   */\n      dup4\n        /* \"#utility.yul\":11124:11188   */\n      sstore\n        /* \"#utility.yul\":11046:11202   */\n      pop\n        /* \"#utility.yul\":11023:11202   */\n    tag_320:\n        /* \"#utility.yul\":11248:11249   */\n      0x01\n        /* \"#utility.yul\":11244:11245   */\n      0x02\n        /* \"#utility.yul\":11236:11242   */\n      dup9\n        /* \"#utility.yul\":11232:11246   */\n      mul\n        /* \"#utility.yul\":11228:11250   */\n      add\n        /* \"#utility.yul\":11222:11226   */\n      dup9\n        /* \"#utility.yul\":11215:11251   */\n      sstore\n        /* \"#utility.yul\":10651:11261   */\n      pop\n      pop\n      pop\n        /* \"#utility.yul\":10614:11500   */\n    tag_312:\n      pop\n        /* \"#utility.yul\":10206:11506   */\n      pop\n      pop\n      pop\n        /* \"#utility.yul\":10116:11506   */\n      pop\n      pop\n      jump\t// out\n        /* \"#utility.yul\":11512:11692   */\n    tag_178:\n        /* \"#utility.yul\":11560:11637   */\n      0x4e487b7100000000000000000000000000000000000000000000000000000000\n        /* \"#utility.yul\":11557:11558   */\n      0x00\n        /* \"#utility.yul\":11550:11638   */\n      mstore\n        /* \"#utility.yul\":11657:11661   */\n      0x11\n        /* \"#utility.yul\":11654:11655   */\n      0x04\n        /* \"#utility.yul\":11647:11662   */\n      mstore\n        /* \"#utility.yul\":11681:11685   */\n      0x24\n        /* \"#utility.yul\":11678:11679   */\n      0x00\n        /* \"#utility.yul\":11671:11686   */\n      revert\n        /* \"#utility.yul\":11698:11892   */\n    tag_68:\n        /* \"#utility.yul\":11738:11742   */\n      0x00\n        /* \"#utility.yul\":11758:11778   */\n      tag_324\n        /* \"#utility.yul\":11776:11777   */\n      dup3\n        /* \"#utility.yul\":11758:11778   */\n      tag_138\n      jump\t// in\n    tag_324:\n        /* \"#utility.yul\":11753:11778   */\n      swap2\n      pop\n        /* \"#utility.yul\":11792:11812   */\n      tag_325\n        /* \"#utility.yul\":11810:11811   */\n      dup4\n        /* \"#utility.yul\":11792:11812   */\n      tag_138\n      jump\t// in\n    tag_325:\n        /* \"#utility.yul\":11787:11812   */\n      swap3\n      pop\n        /* \"#utility.yul\":11836:11837   */\n      dup3\n        /* \"#utility.yul\":11833:11834   */\n      dup3\n        /* \"#utility.yul\":11829:11838   */\n      sub\n        /* \"#utility.yul\":11821:11838   */\n      swap1\n      pop\n        /* \"#utility.yul\":11860:11861   */\n      dup2\n        /* \"#utility.yul\":11854:11858   */\n      dup2\n        /* \"#utility.yul\":11851:11862   */\n      gt\n        /* \"#utility.yul\":11848:11885   */\n      iszero\n      tag_326\n      jumpi\n        /* \"#utility.yul\":11865:11883   */\n      tag_327\n      tag_178\n      jump\t// in\n    tag_327:\n        /* \"#utility.yul\":11848:11885   */\n    tag_326:\n        /* \"#utility.yul\":11698:11892   */\n      swap3\n      swap2\n      pop\n      pop\n      jump\t// out\n        /* \"#utility.yul\":11898:12065   */\n    tag_179:\n        /* \"#utility.yul\":12038:12057   */\n      0x747820646f6573206e6f74206578697374000000000000000000000000000000\n        /* \"#utility.yul\":12034:12035   */\n      0x00\n        /* \"#utility.yul\":12026:12032   */\n      dup3\n        /* \"#utility.yul\":12022:12036   */\n      add\n        /* \"#utility.yul\":12015:12058   */\n      mstore\n        /* \"#utility.yul\":11898:12065   */\n      pop\n      jump\t// out\n        /* \"#utility.yul\":12071:12437   */\n    tag_180:\n        /* \"#utility.yul\":12213:12216   */\n      0x00\n        /* \"#utility.yul\":12234:12301   */\n      tag_330\n        /* \"#utility.yul\":12298:12300   */\n      0x11\n        /* \"#utility.yul\":12293:12296   */\n      dup4\n        /* \"#utility.yul\":12234:12301   */\n      tag_156\n      jump\t// in\n    tag_330:\n        /* \"#utility.yul\":12227:12301   */\n      swap2\n      pop\n        /* \"#utility.yul\":12310:12403   */\n      tag_331\n        /* \"#utility.yul\":12399:12402   */\n      dup3\n        /* \"#utility.yul\":12310:12403   */\n      tag_179\n      jump\t// in\n    tag_331:\n        /* \"#utility.yul\":12428:12430   */\n      0x20\n        /* \"#utility.yul\":12423:12426   */\n      dup3\n        /* \"#utility.yul\":12419:12431   */\n      add\n        /* \"#utility.yul\":12412:12431   */\n      swap1\n      pop\n        /* \"#utility.yul\":12071:12437   */\n      swap2\n      swap1\n      pop\n      jump\t// out\n        /* \"#utility.yul\":12443:12862   */\n    tag_72:\n        /* \"#utility.yul\":12609:12613   */\n      0x00\n        /* \"#utility.yul\":12647:12649   */\n      0x20\n        /* \"#utility.yul\":12636:12645   */\n      dup3\n        /* \"#utility.yul\":12632:12650   */\n      add\n        /* \"#utility.yul\":12624:12650   */\n      swap1\n      pop\n        /* \"#utility.yul\":12696:12705   */\n      dup2\n        /* \"#utility.yul\":12690:12694   */\n      dup2\n        /* \"#utility.yul\":12686:12706   */\n      sub\n        /* \"#utility.yul\":12682:12683   */\n      0x00\n        /* \"#utility.yul\":12671:12680   */\n      dup4\n        /* \"#utility.yul\":12667:12684   */\n      add\n        /* \"#utility.yul\":12660:12707   */\n      mstore\n        /* \"#utility.yul\":12724:12855   */\n      tag_333\n        /* \"#utility.yul\":12850:12854   */\n      dup2\n        /* \"#utility.yul\":12724:12855   */\n      tag_180\n      jump\t// in\n    tag_333:\n        /* \"#utility.yul\":12716:12855   */\n      swap1\n      pop\n        /* \"#utility.yul\":12443:12862   */\n      swap2\n      swap1\n      pop\n      jump\t// out\n        /* \"#utility.yul\":12868:13048   */\n    tag_76:\n        /* \"#utility.yul\":12916:12993   */\n      0x4e487b7100000000000000000000000000000000000000000000000000000000\n        /* \"#utility.yul\":12913:12914   */\n      0x00\n        /* \"#utility.yul\":12906:12994   */\n      mstore\n        /* \"#utility.yul\":13013:13017   */\n      0x32\n        /* \"#utility.yul\":13010:13011   */\n      0x04\n        /* \"#utility.yul\":13003:13018   */\n      mstore\n        /* \"#utility.yul\":13037:13041   */\n      0x24\n        /* \"#utility.yul\":13034:13035   */\n      0x00\n        /* \"#utility.yul\":13027:13042   */\n      revert\n        /* \"#utility.yul\":13054:13223   */\n    tag_181:\n        /* \"#utility.yul\":13194:13215   */\n      0x747820616c726561647920657865637574656400000000000000000000000000\n        /* \"#utility.yul\":13190:13191   */\n      0x00\n        /* \"#utility.yul\":13182:13188   */\n      dup3\n        /* \"#utility.yul\":13178:13192   */\n      add\n        /* \"#utility.yul\":13171:13216   */\n      mstore\n        /* \"#utility.yul\":13054:13223   */\n      pop\n      jump\t// out\n        /* \"#utility.yul\":13229:13595   */\n    tag_182:\n        /* \"#utility.yul\":13371:13374   */\n      0x00\n        /* \"#utility.yul\":13392:13459   */\n      tag_337\n        /* \"#utility.yul\":13456:13458   */\n      0x13\n        /* \"#utility.yul\":13451:13454   */\n      dup4\n        /* \"#utility.yul\":13392:13459   */\n      tag_156\n      jump\t// in\n    tag_337:\n        /* \"#utility.yul\":13385:13459   */\n      swap2\n      pop\n        /* \"#utility.yul\":13468:13561   */\n      tag_338\n        /* \"#utility.yul\":13557:13560   */\n      dup3\n        /* \"#utility.yul\":13468:13561   */\n      tag_181\n      jump\t// in\n    tag_338:\n        /* \"#utility.yul\":13586:13588   */\n      0x20\n        /* \"#utility.yul\":13581:13584   */\n      dup3\n        /* \"#utility.yul\":13577:13589   */\n      add\n        /* \"#utility.yul\":13570:13589   */\n      swap1\n      pop\n        /* \"#utility.yul\":13229:13595   */\n      swap2\n      swap1\n      pop\n      jump\t// out\n        /* \"#utility.yul\":13601:14020   */\n    tag_80:\n        /* \"#utility.yul\":13767:13771   */\n      0x00\n        /* \"#utility.yul\":13805:13807   */\n      0x20\n        /* \"#utility.yul\":13794:13803   */\n      dup3\n        /* \"#utility.yul\":13790:13808   */\n      add\n        /* \"#utility.yul\":13782:13808   */\n      swap1\n      pop\n        /* \"#utility.yul\":13854:13863   */\n      dup2\n        /* \"#utility.yul\":13848:13852   */\n      dup2\n        /* \"#utility.yul\":13844:13864   */\n      sub\n        /* \"#utility.yul\":13840:13841   */\n      0x00\n        /* \"#utility.yul\":13829:13838   */\n      dup4\n        /* \"#utility.yul\":13825:13842   */\n      add\n        /* \"#utility.yul\":13818:13865   */\n      mstore\n        /* \"#utility.yul\":13882:14013   */\n      tag_340\n        /* \"#utility.yul\":14008:14012   */\n      dup2\n        /* \"#utility.yul\":13882:14013   */\n      tag_182\n      jump\t// in\n    tag_340:\n        /* \"#utility.yul\":13874:14013   */\n      swap1\n      pop\n        /* \"#utility.yul\":13601:14020   */\n      swap2\n      swap1\n      pop\n      jump\t// out\n        /* \"#utility.yul\":14026:14191   */\n    tag_183:\n        /* \"#utility.yul\":14166:14183   */\n      0x7478206e6f7420617070726f7665640000000000000000000000000000000000\n        /* \"#utility.yul\":14162:14163   */\n      0x00\n        /* \"#utility.yul\":14154:14160   */\n      dup3\n        /* \"#utility.yul\":14150:14164   */\n      add\n        /* \"#utility.yul\":14143:14184   */\n      mstore\n        /* \"#utility.yul\":14026:14191   */\n      pop\n      jump\t// out\n        /* \"#utility.yul\":14197:14563   */\n    tag_184:\n        /* \"#utility.yul\":14339:14342   */\n      0x00\n        /* \"#utility.yul\":14360:14427   */\n      tag_343\n        /* \"#utility.yul\":14424:14426   */\n      0x0f\n        /* \"#utility.yul\":14419:14422   */\n      dup4\n        /* \"#utility.yul\":14360:14427   */\n      tag_156\n      jump\t// in\n    tag_343:\n        /* \"#utility.yul\":14353:14427   */\n      swap2\n      pop\n        /* \"#utility.yul\":14436:14529   */\n      tag_344\n        /* \"#utility.yul\":14525:14528   */\n      dup3\n        /* \"#utility.yul\":14436:14529   */\n      tag_183\n      jump\t// in\n    tag_344:\n        /* \"#utility.yul\":14554:14556   */\n      0x20\n        /* \"#utility.yul\":14549:14552   */\n      dup3\n        /* \"#utility.yul\":14545:14557   */\n      add\n        /* \"#utility.yul\":14538:14557   */\n      swap1\n      pop\n        /* \"#utility.yul\":14197:14563   */\n      swap2\n      swap1\n      pop\n      jump\t// out\n        /* \"#utility.yul\":14569:14988   */\n    tag_84:\n        /* \"#utility.yul\":14735:14739   */\n      0x00\n        /* \"#utility.yul\":14773:14775   */\n      0x20\n        /* \"#utility.yul\":14762:14771   */\n      dup3\n        /* \"#utility.yul\":14758:14776   */\n      add\n        /* \"#utility.yul\":14750:14776   */\n      swap1\n      pop\n        /* \"#utility.yul\":14822:14831   */\n      dup2\n        /* \"#utility.yul\":14816:14820   */\n      dup2\n        /* \"#utility.yul\":14812:14832   */\n      sub\n        /* \"#utility.yul\":14808:14809   */\n      0x00\n        /* \"#utility.yul\":14797:14806   */\n      dup4\n        /* \"#utility.yul\":14793:14810   */\n      add\n        /* \"#utility.yul\":14786:14833   */\n      mstore\n        /* \"#utility.yul\":14850:14981   */\n      tag_346\n        /* \"#utility.yul\":14976:14980   */\n      dup2\n        /* \"#utility.yul\":14850:14981   */\n      tag_184\n      jump\t// in\n    tag_346:\n        /* \"#utility.yul\":14842:14981   */\n      swap1\n      pop\n        /* \"#utility.yul\":14569:14988   */\n      swap2\n      swap1\n      pop\n      jump\t// out\n        /* \"#utility.yul\":14994:15163   */\n    tag_185:\n        /* \"#utility.yul\":15134:15155   */\n      0x747820616c726561647920617070726f76656400000000000000000000000000\n        /* \"#utility.yul\":15130:15131   */\n      0x00\n        /* \"#utility.yul\":15122:15128   */\n      dup3\n        /* \"#utility.yul\":15118:15132   */\n      add\n        /* \"#utility.yul\":15111:15156   */\n      mstore\n        /* \"#utility.yul\":14994:15163   */\n      pop\n      jump\t// out\n        /* \"#utility.yul\":15169:15535   */\n    tag_186:\n        /* \"#utility.yul\":15311:15314   */\n      0x00\n        /* \"#utility.yul\":15332:15399   */\n      tag_349\n        /* \"#utility.yul\":15396:15398   */\n      0x13\n        /* \"#utility.yul\":15391:15394   */\n      dup4\n        /* \"#utility.yul\":15332:15399   */\n      tag_156\n      jump\t// in\n    tag_349:\n        /* \"#utility.yul\":15325:15399   */\n      swap2\n      pop\n        /* \"#utility.yul\":15408:15501   */\n      tag_350\n        /* \"#utility.yul\":15497:15500   */\n      dup3\n        /* \"#utility.yul\":15408:15501   */\n      tag_185\n      jump\t// in\n    tag_350:\n        /* \"#utility.yul\":15526:15528   */\n      0x20\n        /* \"#utility.yul\":15521:15524   */\n      dup3\n        /* \"#utility.yul\":15517:15529   */\n      add\n        /* \"#utility.yul\":15510:15529   */\n      swap1\n      pop\n        /* \"#utility.yul\":15169:15535   */\n      swap2\n      swap1\n      pop\n      jump\t// out\n        /* \"#utility.yul\":15541:15960   */\n    tag_94:\n        /* \"#utility.yul\":15707:15711   */\n      0x00\n        /* \"#utility.yul\":15745:15747   */\n      0x20\n        /* \"#utility.yul\":15734:15743   */\n      dup3\n        /* \"#utility.yul\":15730:15748   */\n      add\n        /* \"#utility.yul\":15722:15748   */\n      swap1\n      pop\n        /* \"#utility.yul\":15794:15803   */\n      dup2\n        /* \"#utility.yul\":15788:15792   */\n      dup2\n        /* \"#utility.yul\":15784:15804   */\n      sub\n        /* \"#utility.yul\":15780:15781   */\n      0x00\n        /* \"#utility.yul\":15769:15778   */\n      dup4\n        /* \"#utility.yul\":15765:15782   */\n      add\n        /* \"#utility.yul\":15758:15805   */\n      mstore\n        /* \"#utility.yul\":15822:15953   */\n      tag_352\n        /* \"#utility.yul\":15948:15952   */\n      dup2\n        /* \"#utility.yul\":15822:15953   */\n      tag_186\n      jump\t// in\n    tag_352:\n        /* \"#utility.yul\":15814:15953   */\n      swap1\n      pop\n        /* \"#utility.yul\":15541:15960   */\n      swap2\n      swap1\n      pop\n      jump\t// out\n        /* \"#utility.yul\":15966:16136   */\n    tag_187:\n        /* \"#utility.yul\":16106:16128   */\n      0x617070726f76616c73203c207265717569726564000000000000000000000000\n        /* \"#utility.yul\":16102:16103   */\n      0x00\n        /* \"#utility.yul\":16094:16100   */\n      dup3\n        /* \"#utility.yul\":16090:16104   */\n      add\n        /* \"#utility.yul\":16083:16129   */\n      mstore\n        /* \"#utility.yul\":15966:16136   */\n      pop\n      jump\t// out\n        /* \"#utility.yul\":16142:16508   */\n    tag_188:\n        /* \"#utility.yul\":16284:16287   */\n      0x00\n        /* \"#utility.yul\":16305:16372   */\n      tag_355\n        /* \"#utility.yul\":16369:16371   */\n      0x14\n        /* \"#utility.yul\":16364:16367   */\n      dup4\n        /* \"#utility.yul\":16305:16372   */\n      tag_156\n      jump\t// in\n    tag_355:\n        /* \"#utility.yul\":16298:16372   */\n      swap2\n      pop\n        /* \"#utility.yul\":16381:16474   */\n      tag_356\n        /* \"#utility.yul\":16470:16473   */\n      dup3\n        /* \"#utility.yul\":16381:16474   */\n      tag_187\n      jump\t// in\n    tag_356:\n        /* \"#utility.yul\":16499:16501   */\n      0x20\n        /* \"#utility.yul\":16494:16497   */\n      dup3\n        /* \"#utility.yul\":16490:16502   */\n      add\n        /* \"#utility.yul\":16483:16502   */\n      swap1\n      pop\n        /* \"#utility.yul\":16142:16508   */\n      swap2\n      swap1\n      pop\n      jump\t// out\n        /* \"#utility.yul\":16514:16933   */\n    tag_116:\n        /* \"#utility.yul\":16680:16684   */\n      0x00\n        /* \"#utility.yul\":16718:16720   */\n      0x20\n        /* \"#utility.yul\":16707:16716   */\n      dup3\n        /* \"#utility.yul\":16703:16721   */\n      add\n        /* \"#utility.yul\":16695:16721   */\n      swap1\n      pop\n        /* \"#utility.yul\":16767:16776   */\n      dup2\n        /* \"#utility.yul\":16761:16765   */\n      dup2\n        /* \"#utility.yul\":16757:16777   */\n      sub\n        /* \"#utility.yul\":16753:16754   */\n      0x00\n        /* \"#utility.yul\":16742:16751   */\n      dup4\n        /* \"#utility.yul\":16738:16755   */\n      add\n        /* \"#utility.yul\":16731:16778   */\n      mstore\n        /* \"#utility.yul\":16795:16926   */\n      tag_358\n        /* \"#utility.yul\":16921:16925   */\n      dup2\n        /* \"#utility.yul\":16795:16926   */\n      tag_188\n      jump\t// in\n    tag_358:\n        /* \"#utility.yul\":16787:16926   */\n      swap1\n      pop\n        /* \"#utility.yul\":16514:16933   */\n      swap2\n      swap1\n      pop\n      jump\t// out\n        /* \"#utility.yul\":16939:17086   */\n    tag_189:\n        /* \"#utility.yul\":17040:17051   */\n      0x00\n        /* \"#utility.yul\":17077:17080   */\n      dup2\n        /* \"#utility.yul\":17062:17080   */\n      swap1\n      pop\n        /* \"#utility.yul\":16939:17086   */\n      swap3\n      swap2\n      pop\n      pop\n      jump\t// out\n        /* \"#utility.yul\":17114:17984   */\n    tag_190:\n        /* \"#utility.yul\":17215:17218   */\n      0x00\n        /* \"#utility.yul\":17252:17257   */\n      dup2\n        /* \"#utility.yul\":17246:17258   */\n      sload\n        /* \"#utility.yul\":17281:17317   */\n      tag_361\n        /* \"#utility.yul\":17307:17316   */\n      dup2\n        /* \"#utility.yul\":17281:17317   */\n      tag_162\n      jump\t// in\n    tag_361:\n        /* \"#utility.yul\":17333:17421   */\n      tag_362\n        /* \"#utility.yul\":17414:17420   */\n      dup2\n        /* \"#utility.yul\":17409:17412   */\n      dup7\n        /* \"#utility.yul\":17333:17421   */\n      tag_189\n      jump\t// in\n    tag_362:\n        /* \"#utility.yul\":17326:17421   */\n      swap5\n      pop\n        /* \"#utility.yul\":17452:17453   */\n      0x01\n        /* \"#utility.yul\":17441:17450   */\n      dup3\n        /* \"#utility.yul\":17437:17454   */\n      and\n        /* \"#utility.yul\":17468:17469   */\n      0x00\n        /* \"#utility.yul\":17463:17629   */\n      dup2\n      eq\n      tag_364\n      jumpi\n        /* \"#utility.yul\":17643:17644   */\n      0x01\n        /* \"#utility.yul\":17638:17978   */\n      dup2\n      eq\n      tag_365\n      jumpi\n        /* \"#utility.yul\":17430:17978   */\n      jump(tag_363)\n        /* \"#utility.yul\":17463:17629   */\n    tag_364:\n        /* \"#utility.yul\":17547:17551   */\n      0xff\n        /* \"#utility.yul\":17543:17552   */\n      not\n        /* \"#utility.yul\":17532:17541   */\n      dup4\n        /* \"#utility.yul\":17528:17553   */\n      and\n        /* \"#utility.yul\":17523:17526   */\n      dup7\n        /* \"#utility.yul\":17516:17554   */\n      mstore\n        /* \"#utility.yul\":17609:17615   */\n      dup2\n        /* \"#utility.yul\":17602:17616   */\n      iszero\n        /* \"#utility.yul\":17595:17617   */\n      iszero\n        /* \"#utility.yul\":17587:17593   */\n      dup3\n        /* \"#utility.yul\":17583:17618   */\n      mul\n        /* \"#utility.yul\":17578:17581   */\n      dup7\n        /* \"#utility.yul\":17574:17619   */\n      add\n        /* \"#utility.yul\":17567:17619   */\n      swap4\n      pop\n        /* \"#utility.yul\":17463:17629   */\n      jump(tag_363)\n        /* \"#utility.yul\":17638:17978   */\n    tag_365:\n        /* \"#utility.yul\":17705:17742   */\n      tag_366\n        /* \"#utility.yul\":17736:17741   */\n      dup6\n        /* \"#utility.yul\":17705:17742   */\n      tag_163\n      jump\t// in\n    tag_366:\n        /* \"#utility.yul\":17764:17765   */\n      0x00\n        /* \"#utility.yul\":17778:17932   */\n    tag_367:\n        /* \"#utility.yul\":17792:17798   */\n      dup4\n        /* \"#utility.yul\":17789:17790   */\n      dup2\n        /* \"#utility.yul\":17786:17799   */\n      lt\n        /* \"#utility.yul\":17778:17932   */\n      iszero\n      tag_369\n      jumpi\n        /* \"#utility.yul\":17866:17873   */\n      dup2\n        /* \"#utility.yul\":17860:17874   */\n      sload\n        /* \"#utility.yul\":17856:17857   */\n      dup2\n        /* \"#utility.yul\":17851:17854   */\n      dup10\n        /* \"#utility.yul\":17847:17858   */\n      add\n        /* \"#utility.yul\":17840:17875   */\n      mstore\n        /* \"#utility.yul\":17916:17917   */\n      0x01\n        /* \"#utility.yul\":17907:17914   */\n      dup3\n        /* \"#utility.yul\":17903:17918   */\n      add\n        /* \"#utility.yul\":17892:17918   */\n      swap2\n      pop\n        /* \"#utility.yul\":17814:17818   */\n      0x20\n        /* \"#utility.yul\":17811:17812   */\n      dup2\n        /* \"#utility.yul\":17807:17819   */\n      add\n        /* \"#utility.yul\":17802:17819   */\n      swap1\n      pop\n        /* \"#utility.yul\":17778:17932   */\n      jump(tag_367)\n    tag_369:\n        /* \"#utility.yul\":17961:17967   */\n      dup4\n        /* \"#utility.yul\":17956:17959   */\n      dup9\n        /* \"#utility.yul\":17952:17968   */\n      add\n        /* \"#utility.yul\":17945:17968   */\n      swap6\n      pop\n        /* \"#utility.yul\":17645:17978   */\n      pop\n      pop\n        /* \"#utility.yul\":17430:17978   */\n    tag_363:\n      pop\n        /* \"#utility.yul\":17219:17984   */\n      pop\n      pop\n        /* \"#utility.yul\":17114:17984   */\n      swap3\n      swap2\n      pop\n      pop\n      jump\t// out\n        /* \"#utility.yul\":17990:18255   */\n    tag_121:\n        /* \"#utility.yul\":18117:18120   */\n      0x00\n        /* \"#utility.yul\":18139:18229   */\n      tag_371\n        /* \"#utility.yul\":18225:18228   */\n      dup3\n        /* \"#utility.yul\":18216:18222   */\n      dup5\n        /* \"#utility.yul\":18139:18229   */\n      tag_190\n      jump\t// in\n    tag_371:\n        /* \"#utility.yul\":18132:18229   */\n      swap2\n      pop\n        /* \"#utility.yul\":18246:18249   */\n      dup2\n        /* \"#utility.yul\":18239:18249   */\n      swap1\n      pop\n        /* \"#utility.yul\":17990:18255   */\n      swap3\n      swap2\n      pop\n      pop\n      jump\t// out\n        /* \"#utility.yul\":18261:18425   */\n    tag_191:\n        /* \"#utility.yul\":18401:18417   */\n      0x65786563207478206661696c6564000000000000000000000000000000000000\n        /* \"#utility.yul\":18397:18398   */\n      0x00\n        /* \"#utility.yul\":18389:18395   */\n      dup3\n        /* \"#utility.yul\":18385:18399   */\n      add\n        /* \"#utility.yul\":18378:18418   */\n      mstore\n        /* \"#utility.yul\":18261:18425   */\n      pop\n      jump\t// out\n        /* \"#utility.yul\":18431:18797   */\n    tag_192:\n        /* \"#utility.yul\":18573:18576   */\n      0x00\n        /* \"#utility.yul\":18594:18661   */\n      tag_374\n        /* \"#utility.yul\":18658:18660   */\n      0x0e\n        /* \"#utility.yul\":18653:18656   */\n      dup4\n        /* \"#utility.yul\":18594:18661   */\n      tag_156\n      jump\t// in\n    tag_374:\n        /* \"#utility.yul\":18587:18661   */\n      swap2\n      pop\n        /* \"#utility.yul\":18670:18763   */\n      tag_375\n        /* \"#utility.yul\":18759:18762   */\n      dup3\n        /* \"#utility.yul\":18670:18763   */\n      tag_191\n      jump\t// in\n    tag_375:\n        /* \"#utility.yul\":18788:18790   */\n      0x20\n        /* \"#utility.yul\":18783:18786   */\n      dup3\n        /* \"#utility.yul\":18779:18791   */\n      add\n        /* \"#utility.yul\":18772:18791   */\n      swap1\n      pop\n        /* \"#utility.yul\":18431:18797   */\n      swap2\n      swap1\n      pop\n      jump\t// out\n        /* \"#utility.yul\":18803:19222   */\n    tag_127:\n        /* \"#utility.yul\":18969:18973   */\n      0x00\n        /* \"#utility.yul\":19007:19009   */\n      0x20\n        /* \"#utility.yul\":18996:19005   */\n      dup3\n        /* \"#utility.yul\":18992:19010   */\n      add\n        /* \"#utility.yul\":18984:19010   */\n      swap1\n      pop\n        /* \"#utility.yul\":19056:19065   */\n      dup2\n        /* \"#utility.yul\":19050:19054   */\n      dup2\n        /* \"#utility.yul\":19046:19066   */\n      sub\n        /* \"#utility.yul\":19042:19043   */\n      0x00\n        /* \"#utility.yul\":19031:19040   */\n      dup4\n        /* \"#utility.yul\":19027:19044   */\n      add\n        /* \"#utility.yul\":19020:19067   */\n      mstore\n        /* \"#utility.yul\":19084:19215   */\n      tag_377\n        /* \"#utility.yul\":19210:19214   */\n      dup2\n        /* \"#utility.yul\":19084:19215   */\n      tag_192\n      jump\t// in\n    tag_377:\n        /* \"#utility.yul\":19076:19215   */\n      swap1\n      pop\n        /* \"#utility.yul\":18803:19222   */\n      swap2\n      swap1\n      pop\n      jump\t// out\n        /* \"#utility.yul\":19228:19461   */\n    tag_137:\n        /* \"#utility.yul\":19267:19270   */\n      0x00\n        /* \"#utility.yul\":19290:19314   */\n      tag_379\n        /* \"#utility.yul\":19308:19313   */\n      dup3\n        /* \"#utility.yul\":19290:19314   */\n      tag_138\n      jump\t// in\n    tag_379:\n        /* \"#utility.yul\":19281:19314   */\n      swap2\n      pop\n        /* \"#utility.yul\":19336:19402   */\n      0xffffffffffffffffffffffffffffffffffffffffffffffffffffffffffffffff\n        /* \"#utility.yul\":19329:19334   */\n      dup3\n        /* \"#utility.yul\":19326:19403   */\n      sub\n        /* \"#utility.yul\":19323:19426   */\n      tag_380\n      jumpi\n        /* \"#utility.yul\":19406:19424   */\n      tag_381\n      tag_178\n      jump\t// in\n    tag_381:\n        /* \"#utility.yul\":19323:19426   */\n    tag_380:\n        /* \"#utility.yul\":19453:19454   */\n      0x01\n        /* \"#utility.yul\":19446:19451   */\n      dup3\n        /* \"#utility.yul\":19442:19455   */\n      add\n        /* \"#utility.yul\":19435:19455   */\n      swap1\n      pop\n        /* \"#utility.yul\":19228:19461   */\n      swap2\n      swap1\n      pop\n      jump\t// out\n\n    auxdata: 0xa2646970667358221220d66ab04cf9ae2e282603ec7923ed124291236ce4692c1607e9fa1fdd4230001264736f6c634300081a0033\n}\n",
				"bytecode": {
					"linkReferences": {},
					"object": "608060405234801561000f575f80fd5b50604051611d7a380380611d7a833981810160405281019061003191906104b5565b5f825111610074576040517f08c379a000000000000000000000000000000000000000000000000000000000815260040161006b90610569565b60405180910390fd5b5f81116100b6576040517f08c379a00000000000000000000000000000000000000000000000000000000081526004016100ad906105d1565b60405180910390fd5b5f5b82518110156102b8575f8082815481106100d5576100d46105ef565b5b905f5260205f20015f9054906101000a900473ffffffffffffffffffffffffffffffffffffffff1690505f73ffffffffffffffffffffffffffffffffffffffff168173ffffffffffffffffffffffffffffffffffffffff160361016d576040517f08c379a000000000000000000000000000000000000000000000000000000000815260040161016490610666565b60405180910390fd5b60015f8273ffffffffffffffffffffffffffffffffffffffff1673ffffffffffffffffffffffffffffffffffffffff1681526020019081526020015f205f9054906101000a900460ff16156101f7576040517f08c379a00000000000000000000000000000000000000000000000000000000081526004016101ee906106ce565b60405180910390fd5b5f81908060018154018082558091505060019003905f5260205f20015f9091909190916101000a81548173ffffffffffffffffffffffffffffffffffffffff021916908373ffffffffffffffffffffffffffffffffffffffff1602179055505f60015f8373ffffffffffffffffffffffffffffffffffffffff1673ffffffffffffffffffffffffffffffffffffffff1681526020019081526020015f205f6101000a81548160ff0219169083151502179055505080806001019150506100b8565b508060028190555050506106ec565b5f604051905090565b5f80fd5b5f80fd5b5f80fd5b5f601f19601f8301169050919050565b7f4e487b71000000000000000000000000000000000000000000000000000000005f52604160045260245ffd5b610322826102dc565b810181811067ffffffffffffffff82111715610341576103406102ec565b5b80604052505050565b5f6103536102c7565b905061035f8282610319565b919050565b5f67ffffffffffffffff82111561037e5761037d6102ec565b5b602082029050602081019050919050565b5f80fd5b5f73ffffffffffffffffffffffffffffffffffffffff82169050919050565b5f6103bc82610393565b9050919050565b6103cc816103b2565b81146103d6575f80fd5b50565b5f815190506103e7816103c3565b92915050565b5f6103ff6103fa84610364565b61034a565b905080838252602082019050602084028301858111156104225761042161038f565b5b835b8181101561044b578061043788826103d9565b845260208401935050602081019050610424565b5050509392505050565b5f82601f830112610469576104686102d8565b5b81516104798482602086016103ed565b91505092915050565b5f819050919050565b61049481610482565b811461049e575f80fd5b50565b5f815190506104af8161048b565b92915050565b5f80604083850312156104cb576104ca6102d0565b5b5f83015167ffffffffffffffff8111156104e8576104e76102d4565b5b6104f485828601610455565b9250506020610505858286016104a1565b9150509250929050565b5f82825260208201905092915050565b7f6f776e65727320726571756972656400000000000000000000000000000000005f82015250565b5f610553600f8361050f565b915061055e8261051f565b602082019050919050565b5f6020820190508181035f83015261058081610547565b9050919050565b7f696e76616c6964207265717569726564206e756d0000000000000000000000005f82015250565b5f6105bb60148361050f565b91506105c682610587565b602082019050919050565b5f6020820190508181035f8301526105e8816105af565b9050919050565b7f4e487b71000000000000000000000000000000000000000000000000000000005f52603260045260245ffd5b7f696e76616c6964206f776e6572000000000000000000000000000000000000005f82015250565b5f610650600d8361050f565b915061065b8261061c565b602082019050919050565b5f6020820190508181035f83015261067d81610644565b9050919050565b7f6f776e6572206973206e6f7420756e69717565000000000000000000000000005f82015250565b5f6106b860138361050f565b91506106c382610684565b602082019050919050565b5f6020820190508181035f8301526106e5816106ac565b9050919050565b611681806106f95f395ff3fe60806040526004361061007e575f3560e01c80638253951a1161004d5780638253951a1461019f578063b759f954146101db578063dc8452cd14610203578063fe0d94c11461022d576100d3565b8063025e7c27146100d757806314de327f146101135780632513146d1461013b5780632f54bf6e14610163576100d3565b366100d3573373ffffffffffffffffffffffffffffffffffffffff167fe1fffcc4923d04b559f4d29a8bfc6cda04eb5b0d3c460751c2402c5c5cc9109c346040516100c99190610c89565b60405180910390a2005b5f80fd5b3480156100e2575f80fd5b506100fd60048036038101906100f89190610cd4565b610255565b60405161010a9190610d3e565b60405180910390f35b34801561011e575f80fd5b5061013960048036038101906101349190610de2565b61028f565b005b348015610146575f80fd5b50610161600480360381019061015c9190610cd4565b610485565b005b34801561016e575f80fd5b5061018960048036038101906101849190610e53565b610682565b6040516101969190610e98565b60405180910390f35b3480156101aa575f80fd5b506101c560048036038101906101c09190610eb1565b61069f565b6040516101d29190610e98565b60405180910390f35b3480156101e6575f80fd5b5061020160048036038101906101fc9190610cd4565b6106c9565b005b34801561020e575f80fd5b50610217610953565b6040516102249190610c89565b60405180910390f35b348015610238575f80fd5b50610253600480360381019061024e9190610cd4565b610959565b005b5f8181548110610263575f80fd5b905f5260205f20015f915054906101000a900473ffffffffffffffffffffffffffffffffffffffff1681565b60015f3373ffffffffffffffffffffffffffffffffffffffff1673ffffffffffffffffffffffffffffffffffffffff1681526020019081526020015f205f9054906101000a900460ff16610318576040517f08c379a000000000000000000000000000000000000000000000000000000000815260040161030f90610f49565b60405180910390fd5b600360405180608001604052808673ffffffffffffffffffffffffffffffffffffffff16815260200185815260200184848080601f0160208091040260200160405190810160405280939291908181526020018383808284375f81840152601f19601f8201169050808301925050505050505081526020015f1515815250908060018154018082558091505060019003905f5260205f2090600402015f909190919091505f820151815f015f6101000a81548173ffffffffffffffffffffffffffffffffffffffff021916908373ffffffffffffffffffffffffffffffffffffffff16021790555060208201518160010155604082015181600201908161041f9190611198565b506060820151816003015f6101000a81548160ff021916908315150217905550505060016003805490506104539190611294565b7f08324b3d745b914e3abd4ffbfead91e3b78391a98c173202129215ab933adfbe60405160405180910390a250505050565b8060038054905081106104cd576040517f08c379a00000000000000000000000000000000000000000000000000000000081526004016104c490611311565b60405180910390fd5b81600381815481106104e2576104e161132f565b5b905f5260205f2090600402016003015f9054906101000a900460ff161561053e576040517f08c379a0000000000000000000000000000000000000000000000000000000008152600401610535906113a6565b60405180910390fd5b60045f8481526020019081526020015f205f3373ffffffffffffffffffffffffffffffffffffffff1673ffffffffffffffffffffffffffffffffffffffff1681526020019081526020015f205f9054906101000a900460ff166105d6576040517f08c379a00000000000000000000000000000000000000000000000000000000081526004016105cd9061140e565b60405180910390fd5b5f60045f8581526020019081526020015f205f3373ffffffffffffffffffffffffffffffffffffffff1673ffffffffffffffffffffffffffffffffffffffff1681526020019081526020015f205f6101000a81548160ff021916908315150217905550823373ffffffffffffffffffffffffffffffffffffffff167fec9ab91322523c899ede7830ec9bfc992b5981cdcc27b91162fb23de5791117b60405160405180910390a3505050565b6001602052805f5260405f205f915054906101000a900460ff1681565b6004602052815f5260405f20602052805f5260405f205f915091509054906101000a900460ff1681565b60015f3373ffffffffffffffffffffffffffffffffffffffff1673ffffffffffffffffffffffffffffffffffffffff1681526020019081526020015f205f9054906101000a900460ff16610752576040517f08c379a000000000000000000000000000000000000000000000000000000000815260040161074990610f49565b60405180910390fd5b80600380549050811061079a576040517f08c379a000000000000000000000000000000000000000000000000000000000815260040161079190611311565b60405180910390fd5b8160045f8281526020019081526020015f205f3373ffffffffffffffffffffffffffffffffffffffff1673ffffffffffffffffffffffffffffffffffffffff1681526020019081526020015f205f9054906101000a900460ff1615610834576040517f08c379a000000000000000000000000000000000000000000000000000000000815260040161082b90611476565b60405180910390fd5b82600381815481106108495761084861132f565b5b905f5260205f2090600402016003015f9054906101000a900460ff16156108a5576040517f08c379a000000000000000000000000000000000000000000000000000000000815260040161089c906113a6565b60405180910390fd5b600160045f8681526020019081526020015f205f3373ffffffffffffffffffffffffffffffffffffffff1673ffffffffffffffffffffffffffffffffffffffff1681526020019081526020015f205f6101000a81548160ff021916908315150217905550833373ffffffffffffffffffffffffffffffffffffffff167f90ec57f18fa7b15c6b8d5e4d1deb90796c74b2ff23d4d0cecad0cb42a96b312860405160405180910390a350505050565b60025481565b8060038054905081106109a1576040517f08c379a000000000000000000000000000000000000000000000000000000000815260040161099890611311565b60405180910390fd5b81600381815481106109b6576109b561132f565b5b905f5260205f2090600402016003015f9054906101000a900460ff1615610a12576040517f08c379a0000000000000000000000000000000000000000000000000000000008152600401610a09906113a6565b60405180910390fd5b600254610a1e84610ba5565b1015610a5f576040517f08c379a0000000000000000000000000000000000000000000000000000000008152600401610a56906114de565b60405180910390fd5b5f60038481548110610a7457610a7361132f565b5b905f5260205f20906004020190506001816003015f6101000a81548160ff0219169083151502179055505f815f015f9054906101000a900473ffffffffffffffffffffffffffffffffffffffff1673ffffffffffffffffffffffffffffffffffffffff16826001015483600201604051610aee9190611586565b5f6040518083038185875af1925050503d805f8114610b28576040519150601f19603f3d011682016040523d82523d5f602084013e610b2d565b606091505b5050905080610b71576040517f08c379a0000000000000000000000000000000000000000000000000000000008152600401610b68906115e6565b60405180910390fd5b847fddb556f1d2c1ec821e910b019d3685b229db152a0ecd517ca7e24b8bd713928960405160405180910390a25050505050565b5f805f90505b5f80549050811015610c6b5760045f8481526020019081526020015f205f808381548110610bdc57610bdb61132f565b5b905f5260205f20015f9054906101000a900473ffffffffffffffffffffffffffffffffffffffff1673ffffffffffffffffffffffffffffffffffffffff1673ffffffffffffffffffffffffffffffffffffffff1681526020019081526020015f205f9054906101000a900460ff1615610c5e578180610c5a90611604565b9250505b8080600101915050610bab565b50919050565b5f819050919050565b610c8381610c71565b82525050565b5f602082019050610c9c5f830184610c7a565b92915050565b5f80fd5b5f80fd5b610cb381610c71565b8114610cbd575f80fd5b50565b5f81359050610cce81610caa565b92915050565b5f60208284031215610ce957610ce8610ca2565b5b5f610cf684828501610cc0565b91505092915050565b5f73ffffffffffffffffffffffffffffffffffffffff82169050919050565b5f610d2882610cff565b9050919050565b610d3881610d1e565b82525050565b5f602082019050610d515f830184610d2f565b92915050565b610d6081610d1e565b8114610d6a575f80fd5b50565b5f81359050610d7b81610d57565b92915050565b5f80fd5b5f80fd5b5f80fd5b5f8083601f840112610da257610da1610d81565b5b8235905067ffffffffffffffff811115610dbf57610dbe610d85565b5b602083019150836001820283011115610ddb57610dda610d89565b5b9250929050565b5f805f8060608587031215610dfa57610df9610ca2565b5b5f610e0787828801610d6d565b9450506020610e1887828801610cc0565b935050604085013567ffffffffffffffff811115610e3957610e38610ca6565b5b610e4587828801610d8d565b925092505092959194509250565b5f60208284031215610e6857610e67610ca2565b5b5f610e7584828501610d6d565b91505092915050565b5f8115159050919050565b610e9281610e7e565b82525050565b5f602082019050610eab5f830184610e89565b92915050565b5f8060408385031215610ec757610ec6610ca2565b5b5f610ed485828601610cc0565b9250506020610ee585828601610d6d565b9150509250929050565b5f82825260208201905092915050565b7f6e6f74206f776e657200000000000000000000000000000000000000000000005f82015250565b5f610f33600983610eef565b9150610f3e82610eff565b602082019050919050565b5f6020820190508181035f830152610f6081610f27565b9050919050565b5f81519050919050565b7f4e487b71000000000000000000000000000000000000000000000000000000005f52604160045260245ffd5b7f4e487b71000000000000000000000000000000000000000000000000000000005f52602260045260245ffd5b5f6002820490506001821680610fe257607f821691505b602082108103610ff557610ff4610f9e565b5b50919050565b5f819050815f5260205f209050919050565b5f6020601f8301049050919050565b5f82821b905092915050565b5f600883026110577fffffffffffffffffffffffffffffffffffffffffffffffffffffffffffffffff8261101c565b611061868361101c565b95508019841693508086168417925050509392505050565b5f819050919050565b5f61109c61109761109284610c71565b611079565b610c71565b9050919050565b5f819050919050565b6110b583611082565b6110c96110c1826110a3565b848454611028565b825550505050565b5f90565b6110dd6110d1565b6110e88184846110ac565b505050565b5b8181101561110b576111005f826110d5565b6001810190506110ee565b5050565b601f8211156111505761112181610ffb565b61112a8461100d565b81016020851015611139578190505b61114d6111458561100d565b8301826110ed565b50505b505050565b5f82821c905092915050565b5f6111705f1984600802611155565b1980831691505092915050565b5f6111888383611161565b9150826002028217905092915050565b6111a182610f67565b67ffffffffffffffff8111156111ba576111b9610f71565b5b6111c48254610fcb565b6111cf82828561110f565b5f60209050601f831160018114611200575f84156111ee578287015190505b6111f8858261117d565b86555061125f565b601f19841661120e86610ffb565b5f5b8281101561123557848901518255600182019150602085019450602081019050611210565b86831015611252578489015161124e601f891682611161565b8355505b6001600288020188555050505b505050505050565b7f4e487b71000000000000000000000000000000000000000000000000000000005f52601160045260245ffd5b5f61129e82610c71565b91506112a983610c71565b92508282039050818111156112c1576112c0611267565b5b92915050565b7f747820646f6573206e6f742065786973740000000000000000000000000000005f82015250565b5f6112fb601183610eef565b9150611306826112c7565b602082019050919050565b5f6020820190508181035f830152611328816112ef565b9050919050565b7f4e487b71000000000000000000000000000000000000000000000000000000005f52603260045260245ffd5b7f747820616c7265616479206578656375746564000000000000000000000000005f82015250565b5f611390601383610eef565b915061139b8261135c565b602082019050919050565b5f6020820190508181035f8301526113bd81611384565b9050919050565b7f7478206e6f7420617070726f76656400000000000000000000000000000000005f82015250565b5f6113f8600f83610eef565b9150611403826113c4565b602082019050919050565b5f6020820190508181035f830152611425816113ec565b9050919050565b7f747820616c726561647920617070726f766564000000000000000000000000005f82015250565b5f611460601383610eef565b915061146b8261142c565b602082019050919050565b5f6020820190508181035f83015261148d81611454565b9050919050565b7f617070726f76616c73203c2072657175697265640000000000000000000000005f82015250565b5f6114c8601483610eef565b91506114d382611494565b602082019050919050565b5f6020820190508181035f8301526114f5816114bc565b9050919050565b5f81905092915050565b5f815461151281610fcb565b61151c81866114fc565b9450600182165f8114611536576001811461154b5761157d565b60ff198316865281151582028601935061157d565b61155485610ffb565b5f5b8381101561157557815481890152600182019150602081019050611556565b838801955050505b50505092915050565b5f6115918284611506565b915081905092915050565b7f65786563207478206661696c65640000000000000000000000000000000000005f82015250565b5f6115d0600e83610eef565b91506115db8261159c565b602082019050919050565b5f6020820190508181035f8301526115fd816115c4565b9050919050565b5f61160e82610c71565b91507fffffffffffffffffffffffffffffffffffffffffffffffffffffffffffffffff82036116405761163f611267565b5b60018201905091905056fea2646970667358221220d66ab04cf9ae2e282603ec7923ed124291236ce4692c1607e9fa1fdd4230001264736f6c634300081a0033",
					"opcodes": "PUSH1 0x80 PUSH1 0x40 MSTORE CALLVALUE DUP1 ISZERO PUSH2 0xF JUMPI PUSH0 DUP1 REVERT JUMPDEST POP PUSH1 0x40 MLOAD PUSH2 0x1D7A CODESIZE SUB DUP1 PUSH2 0x1D7A DUP4 CODECOPY DUP2 DUP2 ADD PUSH1 0x40 MSTORE DUP2 ADD SWAP1 PUSH2 0x31 SWAP2 SWAP1 PUSH2 0x4B5 JUMP JUMPDEST PUSH0 DUP3 MLOAD GT PUSH2 0x74 JUMPI PUSH1 0x40 MLOAD PUSH32 0x8C379A000000000000000000000000000000000000000000000000000000000 DUP2 MSTORE PUSH1 0x4 ADD PUSH2 0x6B SWAP1 PUSH2 0x569 JUMP JUMPDEST PUSH1 0x40 MLOAD DUP1 SWAP2 SUB SWAP1 REVERT JUMPDEST PUSH0 DUP2 GT PUSH2 0xB6 JUMPI PUSH1 0x40 MLOAD PUSH32 0x8C379A000000000000000000000000000000000000000000000000000000000 DUP2 MSTORE PUSH1 0x4 ADD PUSH2 0xAD SWAP1 PUSH2 0x5D1 JUMP JUMPDEST PUSH1 0x40 MLOAD DUP1 SWAP2 SUB SWAP1 REVERT JUMPDEST PUSH0 JUMPDEST DUP3 MLOAD DUP2 LT ISZERO PUSH2 0x2B8 JUMPI PUSH0 DUP1 DUP3 DUP2 SLOAD DUP2 LT PUSH2 0xD5 JUMPI PUSH2 0xD4 PUSH2 0x5EF JUMP JUMPDEST JUMPDEST SWAP1 PUSH0 MSTORE PUSH1 0x20 PUSH0 KECCAK256 ADD PUSH0 SWAP1 SLOAD SWAP1 PUSH2 0x100 EXP SWAP1 DIV PUSH20 0xFFFFFFFFFFFFFFFFFFFFFFFFFFFFFFFFFFFFFFFF AND SWAP1 POP PUSH0 PUSH20 0xFFFFFFFFFFFFFFFFFFFFFFFFFFFFFFFFFFFFFFFF AND DUP2 PUSH20 0xFFFFFFFFFFFFFFFFFFFFFFFFFFFFFFFFFFFFFFFF AND SUB PUSH2 0x16D JUMPI PUSH1 0x40 MLOAD PUSH32 0x8C379A000000000000000000000000000000000000000000000000000000000 DUP2 MSTORE PUSH1 0x4 ADD PUSH2 0x164 SWAP1 PUSH2 0x666 JUMP JUMPDEST PUSH1 0x40 MLOAD DUP1 SWAP2 SUB SWAP1 REVERT JUMPDEST PUSH1 0x1 PUSH0 DUP3 PUSH20 0xFFFFFFFFFFFFFFFFFFFFFFFFFFFFFFFFFFFFFFFF AND PUSH20 0xFFFFFFFFFFFFFFFFFFFFFFFFFFFFFFFFFFFFFFFF AND DUP2 MSTORE PUSH1 0x20 ADD SWAP1 DUP2 MSTORE PUSH1 0x20 ADD PUSH0 KECCAK256 PUSH0 SWAP1 SLOAD SWAP1 PUSH2 0x100 EXP SWAP1 DIV PUSH1 0xFF AND ISZERO PUSH2 0x1F7 JUMPI PUSH1 0x40 MLOAD PUSH32 0x8C379A000000000000000000000000000000000000000000000000000000000 DUP2 MSTORE PUSH1 0x4 ADD PUSH2 0x1EE SWAP1 PUSH2 0x6CE JUMP JUMPDEST PUSH1 0x40 MLOAD DUP1 SWAP2 SUB SWAP1 REVERT JUMPDEST PUSH0 DUP2 SWAP1 DUP1 PUSH1 0x1 DUP2 SLOAD ADD DUP1 DUP3 SSTORE DUP1 SWAP2 POP POP PUSH1 0x1 SWAP1 SUB SWAP1 PUSH0 MSTORE PUSH1 0x20 PUSH0 KECCAK256 ADD PUSH0 SWAP1 SWAP2 SWAP1 SWAP2 SWAP1 SWAP2 PUSH2 0x100 EXP DUP2 SLOAD DUP2 PUSH20 0xFFFFFFFFFFFFFFFFFFFFFFFFFFFFFFFFFFFFFFFF MUL NOT AND SWAP1 DUP4 PUSH20 0xFFFFFFFFFFFFFFFFFFFFFFFFFFFFFFFFFFFFFFFF AND MUL OR SWAP1 SSTORE POP PUSH0 PUSH1 0x1 PUSH0 DUP4 PUSH20 0xFFFFFFFFFFFFFFFFFFFFFFFFFFFFFFFFFFFFFFFF AND PUSH20 0xFFFFFFFFFFFFFFFFFFFFFFFFFFFFFFFFFFFFFFFF AND DUP2 MSTORE PUSH1 0x20 ADD SWAP1 DUP2 MSTORE PUSH1 0x20 ADD PUSH0 KECCAK256 PUSH0 PUSH2 0x100 EXP DUP2 SLOAD DUP2 PUSH1 0xFF MUL NOT AND SWAP1 DUP4 ISZERO ISZERO MUL OR SWAP1 SSTORE POP POP DUP1 DUP1 PUSH1 0x1 ADD SWAP2 POP POP PUSH2 0xB8 JUMP JUMPDEST POP DUP1 PUSH1 0x2 DUP2 SWAP1 SSTORE POP POP POP PUSH2 0x6EC JUMP JUMPDEST PUSH0 PUSH1 0x40 MLOAD SWAP1 POP SWAP1 JUMP JUMPDEST PUSH0 DUP1 REVERT JUMPDEST PUSH0 DUP1 REVERT JUMPDEST PUSH0 DUP1 REVERT JUMPDEST PUSH0 PUSH1 0x1F NOT PUSH1 0x1F DUP4 ADD AND SWAP1 POP SWAP2 SWAP1 POP JUMP JUMPDEST PUSH32 0x4E487B7100000000000000000000000000000000000000000000000000000000 PUSH0 MSTORE PUSH1 0x41 PUSH1 0x4 MSTORE PUSH1 0x24 PUSH0 REVERT JUMPDEST PUSH2 0x322 DUP3 PUSH2 0x2DC JUMP JUMPDEST DUP2 ADD DUP2 DUP2 LT PUSH8 0xFFFFFFFFFFFFFFFF DUP3 GT OR ISZERO PUSH2 0x341 JUMPI PUSH2 0x340 PUSH2 0x2EC JUMP JUMPDEST JUMPDEST DUP1 PUSH1 0x40 MSTORE POP POP POP JUMP JUMPDEST PUSH0 PUSH2 0x353 PUSH2 0x2C7 JUMP JUMPDEST SWAP1 POP PUSH2 0x35F DUP3 DUP3 PUSH2 0x319 JUMP JUMPDEST SWAP2 SWAP1 POP JUMP JUMPDEST PUSH0 PUSH8 0xFFFFFFFFFFFFFFFF DUP3 GT ISZERO PUSH2 0x37E JUMPI PUSH2 0x37D PUSH2 0x2EC JUMP JUMPDEST JUMPDEST PUSH1 0x20 DUP3 MUL SWAP1 POP PUSH1 0x20 DUP2 ADD SWAP1 POP SWAP2 SWAP1 POP JUMP JUMPDEST PUSH0 DUP1 REVERT JUMPDEST PUSH0 PUSH20 0xFFFFFFFFFFFFFFFFFFFFFFFFFFFFFFFFFFFFFFFF DUP3 AND SWAP1 POP SWAP2 SWAP1 POP JUMP JUMPDEST PUSH0 PUSH2 0x3BC DUP3 PUSH2 0x393 JUMP JUMPDEST SWAP1 POP SWAP2 SWAP1 POP JUMP JUMPDEST PUSH2 0x3CC DUP2 PUSH2 0x3B2 JUMP JUMPDEST DUP2 EQ PUSH2 0x3D6 JUMPI PUSH0 DUP1 REVERT JUMPDEST POP JUMP JUMPDEST PUSH0 DUP2 MLOAD SWAP1 POP PUSH2 0x3E7 DUP2 PUSH2 0x3C3 JUMP JUMPDEST SWAP3 SWAP2 POP POP JUMP JUMPDEST PUSH0 PUSH2 0x3FF PUSH2 0x3FA DUP5 PUSH2 0x364 JUMP JUMPDEST PUSH2 0x34A JUMP JUMPDEST SWAP1 POP DUP1 DUP4 DUP3 MSTORE PUSH1 0x20 DUP3 ADD SWAP1 POP PUSH1 0x20 DUP5 MUL DUP4 ADD DUP6 DUP2 GT ISZERO PUSH2 0x422 JUMPI PUSH2 0x421 PUSH2 0x38F JUMP JUMPDEST JUMPDEST DUP4 JUMPDEST DUP2 DUP2 LT ISZERO PUSH2 0x44B JUMPI DUP1 PUSH2 0x437 DUP9 DUP3 PUSH2 0x3D9 JUMP JUMPDEST DUP5 MSTORE PUSH1 0x20 DUP5 ADD SWAP4 POP POP PUSH1 0x20 DUP2 ADD SWAP1 POP PUSH2 0x424 JUMP JUMPDEST POP POP POP SWAP4 SWAP3 POP POP POP JUMP JUMPDEST PUSH0 DUP3 PUSH1 0x1F DUP4 ADD SLT PUSH2 0x469 JUMPI PUSH2 0x468 PUSH2 0x2D8 JUMP JUMPDEST JUMPDEST DUP2 MLOAD PUSH2 0x479 DUP5 DUP3 PUSH1 0x20 DUP7 ADD PUSH2 0x3ED JUMP JUMPDEST SWAP2 POP POP SWAP3 SWAP2 POP POP JUMP JUMPDEST PUSH0 DUP2 SWAP1 POP SWAP2 SWAP1 POP JUMP JUMPDEST PUSH2 0x494 DUP2 PUSH2 0x482 JUMP JUMPDEST DUP2 EQ PUSH2 0x49E JUMPI PUSH0 DUP1 REVERT JUMPDEST POP JUMP JUMPDEST PUSH0 DUP2 MLOAD SWAP1 POP PUSH2 0x4AF DUP2 PUSH2 0x48B JUMP JUMPDEST SWAP3 SWAP2 POP POP JUMP JUMPDEST PUSH0 DUP1 PUSH1 0x40 DUP4 DUP6 SUB SLT ISZERO PUSH2 0x4CB JUMPI PUSH2 0x4CA PUSH2 0x2D0 JUMP JUMPDEST JUMPDEST PUSH0 DUP4 ADD MLOAD PUSH8 0xFFFFFFFFFFFFFFFF DUP2 GT ISZERO PUSH2 0x4E8 JUMPI PUSH2 0x4E7 PUSH2 0x2D4 JUMP JUMPDEST JUMPDEST PUSH2 0x4F4 DUP6 DUP3 DUP7 ADD PUSH2 0x455 JUMP JUMPDEST SWAP3 POP POP PUSH1 0x20 PUSH2 0x505 DUP6 DUP3 DUP7 ADD PUSH2 0x4A1 JUMP JUMPDEST SWAP2 POP POP SWAP3 POP SWAP3 SWAP1 POP JUMP JUMPDEST PUSH0 DUP3 DUP3 MSTORE PUSH1 0x20 DUP3 ADD SWAP1 POP SWAP3 SWAP2 POP POP JUMP JUMPDEST PUSH32 0x6F776E6572732072657175697265640000000000000000000000000000000000 PUSH0 DUP3 ADD MSTORE POP JUMP JUMPDEST PUSH0 PUSH2 0x553 PUSH1 0xF DUP4 PUSH2 0x50F JUMP JUMPDEST SWAP2 POP PUSH2 0x55E DUP3 PUSH2 0x51F JUMP JUMPDEST PUSH1 0x20 DUP3 ADD SWAP1 POP SWAP2 SWAP1 POP JUMP JUMPDEST PUSH0 PUSH1 0x20 DUP3 ADD SWAP1 POP DUP2 DUP2 SUB PUSH0 DUP4 ADD MSTORE PUSH2 0x580 DUP2 PUSH2 0x547 JUMP JUMPDEST SWAP1 POP SWAP2 SWAP1 POP JUMP JUMPDEST PUSH32 0x696E76616C6964207265717569726564206E756D000000000000000000000000 PUSH0 DUP3 ADD MSTORE POP JUMP JUMPDEST PUSH0 PUSH2 0x5BB PUSH1 0x14 DUP4 PUSH2 0x50F JUMP JUMPDEST SWAP2 POP PUSH2 0x5C6 DUP3 PUSH2 0x587 JUMP JUMPDEST PUSH1 0x20 DUP3 ADD SWAP1 POP SWAP2 SWAP1 POP JUMP JUMPDEST PUSH0 PUSH1 0x20 DUP3 ADD SWAP1 POP DUP2 DUP2 SUB PUSH0 DUP4 ADD MSTORE PUSH2 0x5E8 DUP2 PUSH2 0x5AF JUMP JUMPDEST SWAP1 POP SWAP2 SWAP1 POP JUMP JUMPDEST PUSH32 0x4E487B7100000000000000000000000000000000000000000000000000000000 PUSH0 MSTORE PUSH1 0x32 PUSH1 0x4 MSTORE PUSH1 0x24 PUSH0 REVERT JUMPDEST PUSH32 0x696E76616C6964206F776E657200000000000000000000000000000000000000 PUSH0 DUP3 ADD MSTORE POP JUMP JUMPDEST PUSH0 PUSH2 0x650 PUSH1 0xD DUP4 PUSH2 0x50F JUMP JUMPDEST SWAP2 POP PUSH2 0x65B DUP3 PUSH2 0x61C JUMP JUMPDEST PUSH1 0x20 DUP3 ADD SWAP1 POP SWAP2 SWAP1 POP JUMP JUMPDEST PUSH0 PUSH1 0x20 DUP3 ADD SWAP1 POP DUP2 DUP2 SUB PUSH0 DUP4 ADD MSTORE PUSH2 0x67D DUP2 PUSH2 0x644 JUMP JUMPDEST SWAP1 POP SWAP2 SWAP1 POP JUMP JUMPDEST PUSH32 0x6F776E6572206973206E6F7420756E6971756500000000000000000000000000 PUSH0 DUP3 ADD MSTORE POP JUMP JUMPDEST PUSH0 PUSH2 0x6B8 PUSH1 0x13 DUP4 PUSH2 0x50F JUMP JUMPDEST SWAP2 POP PUSH2 0x6C3 DUP3 PUSH2 0x684 JUMP JUMPDEST PUSH1 0x20 DUP3 ADD SWAP1 POP SWAP2 SWAP1 POP JUMP JUMPDEST PUSH0 PUSH1 0x20 DUP3 ADD SWAP1 POP DUP2 DUP2 SUB PUSH0 DUP4 ADD MSTORE PUSH2 0x6E5 DUP2 PUSH2 0x6AC JUMP JUMPDEST SWAP1 POP SWAP2 SWAP1 POP JUMP JUMPDEST PUSH2 0x1681 DUP1 PUSH2 0x6F9 PUSH0 CODECOPY PUSH0 RETURN INVALID PUSH1 0x80 PUSH1 0x40 MSTORE PUSH1 0x4 CALLDATASIZE LT PUSH2 0x7E JUMPI PUSH0 CALLDATALOAD PUSH1 0xE0 SHR DUP1 PUSH4 0x8253951A GT PUSH2 0x4D JUMPI DUP1 PUSH4 0x8253951A EQ PUSH2 0x19F JUMPI DUP1 PUSH4 0xB759F954 EQ PUSH2 0x1DB JUMPI DUP1 PUSH4 0xDC8452CD EQ PUSH2 0x203 JUMPI DUP1 PUSH4 0xFE0D94C1 EQ PUSH2 0x22D JUMPI PUSH2 0xD3 JUMP JUMPDEST DUP1 PUSH4 0x25E7C27 EQ PUSH2 0xD7 JUMPI DUP1 PUSH4 0x14DE327F EQ PUSH2 0x113 JUMPI DUP1 PUSH4 0x2513146D EQ PUSH2 0x13B JUMPI DUP1 PUSH4 0x2F54BF6E EQ PUSH2 0x163 JUMPI PUSH2 0xD3 JUMP JUMPDEST CALLDATASIZE PUSH2 0xD3 JUMPI CALLER PUSH20 0xFFFFFFFFFFFFFFFFFFFFFFFFFFFFFFFFFFFFFFFF AND PUSH32 0xE1FFFCC4923D04B559F4D29A8BFC6CDA04EB5B0D3C460751C2402C5C5CC9109C CALLVALUE PUSH1 0x40 MLOAD PUSH2 0xC9 SWAP2 SWAP1 PUSH2 0xC89 JUMP JUMPDEST PUSH1 0x40 MLOAD DUP1 SWAP2 SUB SWAP1 LOG2 STOP JUMPDEST PUSH0 DUP1 REVERT JUMPDEST CALLVALUE DUP1 ISZERO PUSH2 0xE2 JUMPI PUSH0 DUP1 REVERT JUMPDEST POP PUSH2 0xFD PUSH1 0x4 DUP1 CALLDATASIZE SUB DUP2 ADD SWAP1 PUSH2 0xF8 SWAP2 SWAP1 PUSH2 0xCD4 JUMP JUMPDEST PUSH2 0x255 JUMP JUMPDEST PUSH1 0x40 MLOAD PUSH2 0x10A SWAP2 SWAP1 PUSH2 0xD3E JUMP JUMPDEST PUSH1 0x40 MLOAD DUP1 SWAP2 SUB SWAP1 RETURN JUMPDEST CALLVALUE DUP1 ISZERO PUSH2 0x11E JUMPI PUSH0 DUP1 REVERT JUMPDEST POP PUSH2 0x139 PUSH1 0x4 DUP1 CALLDATASIZE SUB DUP2 ADD SWAP1 PUSH2 0x134 SWAP2 SWAP1 PUSH2 0xDE2 JUMP JUMPDEST PUSH2 0x28F JUMP JUMPDEST STOP JUMPDEST CALLVALUE DUP1 ISZERO PUSH2 0x146 JUMPI PUSH0 DUP1 REVERT JUMPDEST POP PUSH2 0x161 PUSH1 0x4 DUP1 CALLDATASIZE SUB DUP2 ADD SWAP1 PUSH2 0x15C SWAP2 SWAP1 PUSH2 0xCD4 JUMP JUMPDEST PUSH2 0x485 JUMP JUMPDEST STOP JUMPDEST CALLVALUE DUP1 ISZERO PUSH2 0x16E JUMPI PUSH0 DUP1 REVERT JUMPDEST POP PUSH2 0x189 PUSH1 0x4 DUP1 CALLDATASIZE SUB DUP2 ADD SWAP1 PUSH2 0x184 SWAP2 SWAP1 PUSH2 0xE53 JUMP JUMPDEST PUSH2 0x682 JUMP JUMPDEST PUSH1 0x40 MLOAD PUSH2 0x196 SWAP2 SWAP1 PUSH2 0xE98 JUMP JUMPDEST PUSH1 0x40 MLOAD DUP1 SWAP2 SUB SWAP1 RETURN JUMPDEST CALLVALUE DUP1 ISZERO PUSH2 0x1AA JUMPI PUSH0 DUP1 REVERT JUMPDEST POP PUSH2 0x1C5 PUSH1 0x4 DUP1 CALLDATASIZE SUB DUP2 ADD SWAP1 PUSH2 0x1C0 SWAP2 SWAP1 PUSH2 0xEB1 JUMP JUMPDEST PUSH2 0x69F JUMP JUMPDEST PUSH1 0x40 MLOAD PUSH2 0x1D2 SWAP2 SWAP1 PUSH2 0xE98 JUMP JUMPDEST PUSH1 0x40 MLOAD DUP1 SWAP2 SUB SWAP1 RETURN JUMPDEST CALLVALUE DUP1 ISZERO PUSH2 0x1E6 JUMPI PUSH0 DUP1 REVERT JUMPDEST POP PUSH2 0x201 PUSH1 0x4 DUP1 CALLDATASIZE SUB DUP2 ADD SWAP1 PUSH2 0x1FC SWAP2 SWAP1 PUSH2 0xCD4 JUMP JUMPDEST PUSH2 0x6C9 JUMP JUMPDEST STOP JUMPDEST CALLVALUE DUP1 ISZERO PUSH2 0x20E JUMPI PUSH0 DUP1 REVERT JUMPDEST POP PUSH2 0x217 PUSH2 0x953 JUMP JUMPDEST PUSH1 0x40 MLOAD PUSH2 0x224 SWAP2 SWAP1 PUSH2 0xC89 JUMP JUMPDEST PUSH1 0x40 MLOAD DUP1 SWAP2 SUB SWAP1 RETURN JUMPDEST CALLVALUE DUP1 ISZERO PUSH2 0x238 JUMPI PUSH0 DUP1 REVERT JUMPDEST POP PUSH2 0x253 PUSH1 0x4 DUP1 CALLDATASIZE SUB DUP2 ADD SWAP1 PUSH2 0x24E SWAP2 SWAP1 PUSH2 0xCD4 JUMP JUMPDEST PUSH2 0x959 JUMP JUMPDEST STOP JUMPDEST PUSH0 DUP2 DUP2 SLOAD DUP2 LT PUSH2 0x263 JUMPI PUSH0 DUP1 REVERT JUMPDEST SWAP1 PUSH0 MSTORE PUSH1 0x20 PUSH0 KECCAK256 ADD PUSH0 SWAP2 POP SLOAD SWAP1 PUSH2 0x100 EXP SWAP1 DIV PUSH20 0xFFFFFFFFFFFFFFFFFFFFFFFFFFFFFFFFFFFFFFFF AND DUP2 JUMP JUMPDEST PUSH1 0x1 PUSH0 CALLER PUSH20 0xFFFFFFFFFFFFFFFFFFFFFFFFFFFFFFFFFFFFFFFF AND PUSH20 0xFFFFFFFFFFFFFFFFFFFFFFFFFFFFFFFFFFFFFFFF AND DUP2 MSTORE PUSH1 0x20 ADD SWAP1 DUP2 MSTORE PUSH1 0x20 ADD PUSH0 KECCAK256 PUSH0 SWAP1 SLOAD SWAP1 PUSH2 0x100 EXP SWAP1 DIV PUSH1 0xFF AND PUSH2 0x318 JUMPI PUSH1 0x40 MLOAD PUSH32 0x8C379A000000000000000000000000000000000000000000000000000000000 DUP2 MSTORE PUSH1 0x4 ADD PUSH2 0x30F SWAP1 PUSH2 0xF49 JUMP JUMPDEST PUSH1 0x40 MLOAD DUP1 SWAP2 SUB SWAP1 REVERT JUMPDEST PUSH1 0x3 PUSH1 0x40 MLOAD DUP1 PUSH1 0x80 ADD PUSH1 0x40 MSTORE DUP1 DUP7 PUSH20 0xFFFFFFFFFFFFFFFFFFFFFFFFFFFFFFFFFFFFFFFF AND DUP2 MSTORE PUSH1 0x20 ADD DUP6 DUP2 MSTORE PUSH1 0x20 ADD DUP5 DUP5 DUP1 DUP1 PUSH1 0x1F ADD PUSH1 0x20 DUP1 SWAP2 DIV MUL PUSH1 0x20 ADD PUSH1 0x40 MLOAD SWAP1 DUP2 ADD PUSH1 0x40 MSTORE DUP1 SWAP4 SWAP3 SWAP2 SWAP1 DUP2 DUP2 MSTORE PUSH1 0x20 ADD DUP4 DUP4 DUP1 DUP3 DUP5 CALLDATACOPY PUSH0 DUP2 DUP5 ADD MSTORE PUSH1 0x1F NOT PUSH1 0x1F DUP3 ADD AND SWAP1 POP DUP1 DUP4 ADD SWAP3 POP POP POP POP POP POP POP DUP2 MSTORE PUSH1 0x20 ADD PUSH0 ISZERO ISZERO DUP2 MSTORE POP SWAP1 DUP1 PUSH1 0x1 DUP2 SLOAD ADD DUP1 DUP3 SSTORE DUP1 SWAP2 POP POP PUSH1 0x1 SWAP1 SUB SWAP1 PUSH0 MSTORE PUSH1 0x20 PUSH0 KECCAK256 SWAP1 PUSH1 0x4 MUL ADD PUSH0 SWAP1 SWAP2 SWAP1 SWAP2 SWAP1 SWAP2 POP PUSH0 DUP3 ADD MLOAD DUP2 PUSH0 ADD PUSH0 PUSH2 0x100 EXP DUP2 SLOAD DUP2 PUSH20 0xFFFFFFFFFFFFFFFFFFFFFFFFFFFFFFFFFFFFFFFF MUL NOT AND SWAP1 DUP4 PUSH20 0xFFFFFFFFFFFFFFFFFFFFFFFFFFFFFFFFFFFFFFFF AND MUL OR SWAP1 SSTORE POP PUSH1 0x20 DUP3 ADD MLOAD DUP2 PUSH1 0x1 ADD SSTORE PUSH1 0x40 DUP3 ADD MLOAD DUP2 PUSH1 0x2 ADD SWAP1 DUP2 PUSH2 0x41F SWAP2 SWAP1 PUSH2 0x1198 JUMP JUMPDEST POP PUSH1 0x60 DUP3 ADD MLOAD DUP2 PUSH1 0x3 ADD PUSH0 PUSH2 0x100 EXP DUP2 SLOAD DUP2 PUSH1 0xFF MUL NOT AND SWAP1 DUP4 ISZERO ISZERO MUL OR SWAP1 SSTORE POP POP POP PUSH1 0x1 PUSH1 0x3 DUP1 SLOAD SWAP1 POP PUSH2 0x453 SWAP2 SWAP1 PUSH2 0x1294 JUMP JUMPDEST PUSH32 0x8324B3D745B914E3ABD4FFBFEAD91E3B78391A98C173202129215AB933ADFBE PUSH1 0x40 MLOAD PUSH1 0x40 MLOAD DUP1 SWAP2 SUB SWAP1 LOG2 POP POP POP POP JUMP JUMPDEST DUP1 PUSH1 0x3 DUP1 SLOAD SWAP1 POP DUP2 LT PUSH2 0x4CD JUMPI PUSH1 0x40 MLOAD PUSH32 0x8C379A000000000000000000000000000000000000000000000000000000000 DUP2 MSTORE PUSH1 0x4 ADD PUSH2 0x4C4 SWAP1 PUSH2 0x1311 JUMP JUMPDEST PUSH1 0x40 MLOAD DUP1 SWAP2 SUB SWAP1 REVERT JUMPDEST DUP2 PUSH1 0x3 DUP2 DUP2 SLOAD DUP2 LT PUSH2 0x4E2 JUMPI PUSH2 0x4E1 PUSH2 0x132F JUMP JUMPDEST JUMPDEST SWAP1 PUSH0 MSTORE PUSH1 0x20 PUSH0 KECCAK256 SWAP1 PUSH1 0x4 MUL ADD PUSH1 0x3 ADD PUSH0 SWAP1 SLOAD SWAP1 PUSH2 0x100 EXP SWAP1 DIV PUSH1 0xFF AND ISZERO PUSH2 0x53E JUMPI PUSH1 0x40 MLOAD PUSH32 0x8C379A000000000000000000000000000000000000000000000000000000000 DUP2 MSTORE PUSH1 0x4 ADD PUSH2 0x535 SWAP1 PUSH2 0x13A6 JUMP JUMPDEST PUSH1 0x40 MLOAD DUP1 SWAP2 SUB SWAP1 REVERT JUMPDEST PUSH1 0x4 PUSH0 DUP5 DUP2 MSTORE PUSH1 0x20 ADD SWAP1 DUP2 MSTORE PUSH1 0x20 ADD PUSH0 KECCAK256 PUSH0 CALLER PUSH20 0xFFFFFFFFFFFFFFFFFFFFFFFFFFFFFFFFFFFFFFFF AND PUSH20 0xFFFFFFFFFFFFFFFFFFFFFFFFFFFFFFFFFFFFFFFF AND DUP2 MSTORE PUSH1 0x20 ADD SWAP1 DUP2 MSTORE PUSH1 0x20 ADD PUSH0 KECCAK256 PUSH0 SWAP1 SLOAD SWAP1 PUSH2 0x100 EXP SWAP1 DIV PUSH1 0xFF AND PUSH2 0x5D6 JUMPI PUSH1 0x40 MLOAD PUSH32 0x8C379A000000000000000000000000000000000000000000000000000000000 DUP2 MSTORE PUSH1 0x4 ADD PUSH2 0x5CD SWAP1 PUSH2 0x140E JUMP JUMPDEST PUSH1 0x40 MLOAD DUP1 SWAP2 SUB SWAP1 REVERT JUMPDEST PUSH0 PUSH1 0x4 PUSH0 DUP6 DUP2 MSTORE PUSH1 0x20 ADD SWAP1 DUP2 MSTORE PUSH1 0x20 ADD PUSH0 KECCAK256 PUSH0 CALLER PUSH20 0xFFFFFFFFFFFFFFFFFFFFFFFFFFFFFFFFFFFFFFFF AND PUSH20 0xFFFFFFFFFFFFFFFFFFFFFFFFFFFFFFFFFFFFFFFF AND DUP2 MSTORE PUSH1 0x20 ADD SWAP1 DUP2 MSTORE PUSH1 0x20 ADD PUSH0 KECCAK256 PUSH0 PUSH2 0x100 EXP DUP2 SLOAD DUP2 PUSH1 0xFF MUL NOT AND SWAP1 DUP4 ISZERO ISZERO MUL OR SWAP1 SSTORE POP DUP3 CALLER PUSH20 0xFFFFFFFFFFFFFFFFFFFFFFFFFFFFFFFFFFFFFFFF AND PUSH32 0xEC9AB91322523C899EDE7830EC9BFC992B5981CDCC27B91162FB23DE5791117B PUSH1 0x40 MLOAD PUSH1 0x40 MLOAD DUP1 SWAP2 SUB SWAP1 LOG3 POP POP POP JUMP JUMPDEST PUSH1 0x1 PUSH1 0x20 MSTORE DUP1 PUSH0 MSTORE PUSH1 0x40 PUSH0 KECCAK256 PUSH0 SWAP2 POP SLOAD SWAP1 PUSH2 0x100 EXP SWAP1 DIV PUSH1 0xFF AND DUP2 JUMP JUMPDEST PUSH1 0x4 PUSH1 0x20 MSTORE DUP2 PUSH0 MSTORE PUSH1 0x40 PUSH0 KECCAK256 PUSH1 0x20 MSTORE DUP1 PUSH0 MSTORE PUSH1 0x40 PUSH0 KECCAK256 PUSH0 SWAP2 POP SWAP2 POP SWAP1 SLOAD SWAP1 PUSH2 0x100 EXP SWAP1 DIV PUSH1 0xFF AND DUP2 JUMP JUMPDEST PUSH1 0x1 PUSH0 CALLER PUSH20 0xFFFFFFFFFFFFFFFFFFFFFFFFFFFFFFFFFFFFFFFF AND PUSH20 0xFFFFFFFFFFFFFFFFFFFFFFFFFFFFFFFFFFFFFFFF AND DUP2 MSTORE PUSH1 0x20 ADD SWAP1 DUP2 MSTORE PUSH1 0x20 ADD PUSH0 KECCAK256 PUSH0 SWAP1 SLOAD SWAP1 PUSH2 0x100 EXP SWAP1 DIV PUSH1 0xFF AND PUSH2 0x752 JUMPI PUSH1 0x40 MLOAD PUSH32 0x8C379A000000000000000000000000000000000000000000000000000000000 DUP2 MSTORE PUSH1 0x4 ADD PUSH2 0x749 SWAP1 PUSH2 0xF49 JUMP JUMPDEST PUSH1 0x40 MLOAD DUP1 SWAP2 SUB SWAP1 REVERT JUMPDEST DUP1 PUSH1 0x3 DUP1 SLOAD SWAP1 POP DUP2 LT PUSH2 0x79A JUMPI PUSH1 0x40 MLOAD PUSH32 0x8C379A000000000000000000000000000000000000000000000000000000000 DUP2 MSTORE PUSH1 0x4 ADD PUSH2 0x791 SWAP1 PUSH2 0x1311 JUMP JUMPDEST PUSH1 0x40 MLOAD DUP1 SWAP2 SUB SWAP1 REVERT JUMPDEST DUP2 PUSH1 0x4 PUSH0 DUP3 DUP2 MSTORE PUSH1 0x20 ADD SWAP1 DUP2 MSTORE PUSH1 0x20 ADD PUSH0 KECCAK256 PUSH0 CALLER PUSH20 0xFFFFFFFFFFFFFFFFFFFFFFFFFFFFFFFFFFFFFFFF AND PUSH20 0xFFFFFFFFFFFFFFFFFFFFFFFFFFFFFFFFFFFFFFFF AND DUP2 MSTORE PUSH1 0x20 ADD SWAP1 DUP2 MSTORE PUSH1 0x20 ADD PUSH0 KECCAK256 PUSH0 SWAP1 SLOAD SWAP1 PUSH2 0x100 EXP SWAP1 DIV PUSH1 0xFF AND ISZERO PUSH2 0x834 JUMPI PUSH1 0x40 MLOAD PUSH32 0x8C379A000000000000000000000000000000000000000000000000000000000 DUP2 MSTORE PUSH1 0x4 ADD PUSH2 0x82B SWAP1 PUSH2 0x1476 JUMP JUMPDEST PUSH1 0x40 MLOAD DUP1 SWAP2 SUB SWAP1 REVERT JUMPDEST DUP3 PUSH1 0x3 DUP2 DUP2 SLOAD DUP2 LT PUSH2 0x849 JUMPI PUSH2 0x848 PUSH2 0x132F JUMP JUMPDEST JUMPDEST SWAP1 PUSH0 MSTORE PUSH1 0x20 PUSH0 KECCAK256 SWAP1 PUSH1 0x4 MUL ADD PUSH1 0x3 ADD PUSH0 SWAP1 SLOAD SWAP1 PUSH2 0x100 EXP SWAP1 DIV PUSH1 0xFF AND ISZERO PUSH2 0x8A5 JUMPI PUSH1 0x40 MLOAD PUSH32 0x8C379A000000000000000000000000000000000000000000000000000000000 DUP2 MSTORE PUSH1 0x4 ADD PUSH2 0x89C SWAP1 PUSH2 0x13A6 JUMP JUMPDEST PUSH1 0x40 MLOAD DUP1 SWAP2 SUB SWAP1 REVERT JUMPDEST PUSH1 0x1 PUSH1 0x4 PUSH0 DUP7 DUP2 MSTORE PUSH1 0x20 ADD SWAP1 DUP2 MSTORE PUSH1 0x20 ADD PUSH0 KECCAK256 PUSH0 CALLER PUSH20 0xFFFFFFFFFFFFFFFFFFFFFFFFFFFFFFFFFFFFFFFF AND PUSH20 0xFFFFFFFFFFFFFFFFFFFFFFFFFFFFFFFFFFFFFFFF AND DUP2 MSTORE PUSH1 0x20 ADD SWAP1 DUP2 MSTORE PUSH1 0x20 ADD PUSH0 KECCAK256 PUSH0 PUSH2 0x100 EXP DUP2 SLOAD DUP2 PUSH1 0xFF MUL NOT AND SWAP1 DUP4 ISZERO ISZERO MUL OR SWAP1 SSTORE POP DUP4 CALLER PUSH20 0xFFFFFFFFFFFFFFFFFFFFFFFFFFFFFFFFFFFFFFFF AND PUSH32 0x90EC57F18FA7B15C6B8D5E4D1DEB90796C74B2FF23D4D0CECAD0CB42A96B3128 PUSH1 0x40 MLOAD PUSH1 0x40 MLOAD DUP1 SWAP2 SUB SWAP1 LOG3 POP POP POP POP JUMP JUMPDEST PUSH1 0x2 SLOAD DUP2 JUMP JUMPDEST DUP1 PUSH1 0x3 DUP1 SLOAD SWAP1 POP DUP2 LT PUSH2 0x9A1 JUMPI PUSH1 0x40 MLOAD PUSH32 0x8C379A000000000000000000000000000000000000000000000000000000000 DUP2 MSTORE PUSH1 0x4 ADD PUSH2 0x998 SWAP1 PUSH2 0x1311 JUMP JUMPDEST PUSH1 0x40 MLOAD DUP1 SWAP2 SUB SWAP1 REVERT JUMPDEST DUP2 PUSH1 0x3 DUP2 DUP2 SLOAD DUP2 LT PUSH2 0x9B6 JUMPI PUSH2 0x9B5 PUSH2 0x132F JUMP JUMPDEST JUMPDEST SWAP1 PUSH0 MSTORE PUSH1 0x20 PUSH0 KECCAK256 SWAP1 PUSH1 0x4 MUL ADD PUSH1 0x3 ADD PUSH0 SWAP1 SLOAD SWAP1 PUSH2 0x100 EXP SWAP1 DIV PUSH1 0xFF AND ISZERO PUSH2 0xA12 JUMPI PUSH1 0x40 MLOAD PUSH32 0x8C379A000000000000000000000000000000000000000000000000000000000 DUP2 MSTORE PUSH1 0x4 ADD PUSH2 0xA09 SWAP1 PUSH2 0x13A6 JUMP JUMPDEST PUSH1 0x40 MLOAD DUP1 SWAP2 SUB SWAP1 REVERT JUMPDEST PUSH1 0x2 SLOAD PUSH2 0xA1E DUP5 PUSH2 0xBA5 JUMP JUMPDEST LT ISZERO PUSH2 0xA5F JUMPI PUSH1 0x40 MLOAD PUSH32 0x8C379A000000000000000000000000000000000000000000000000000000000 DUP2 MSTORE PUSH1 0x4 ADD PUSH2 0xA56 SWAP1 PUSH2 0x14DE JUMP JUMPDEST PUSH1 0x40 MLOAD DUP1 SWAP2 SUB SWAP1 REVERT JUMPDEST PUSH0 PUSH1 0x3 DUP5 DUP2 SLOAD DUP2 LT PUSH2 0xA74 JUMPI PUSH2 0xA73 PUSH2 0x132F JUMP JUMPDEST JUMPDEST SWAP1 PUSH0 MSTORE PUSH1 0x20 PUSH0 KECCAK256 SWAP1 PUSH1 0x4 MUL ADD SWAP1 POP PUSH1 0x1 DUP2 PUSH1 0x3 ADD PUSH0 PUSH2 0x100 EXP DUP2 SLOAD DUP2 PUSH1 0xFF MUL NOT AND SWAP1 DUP4 ISZERO ISZERO MUL OR SWAP1 SSTORE POP PUSH0 DUP2 PUSH0 ADD PUSH0 SWAP1 SLOAD SWAP1 PUSH2 0x100 EXP SWAP1 DIV PUSH20 0xFFFFFFFFFFFFFFFFFFFFFFFFFFFFFFFFFFFFFFFF AND PUSH20 0xFFFFFFFFFFFFFFFFFFFFFFFFFFFFFFFFFFFFFFFF AND DUP3 PUSH1 0x1 ADD SLOAD DUP4 PUSH1 0x2 ADD PUSH1 0x40 MLOAD PUSH2 0xAEE SWAP2 SWAP1 PUSH2 0x1586 JUMP JUMPDEST PUSH0 PUSH1 0x40 MLOAD DUP1 DUP4 SUB DUP2 DUP6 DUP8 GAS CALL SWAP3 POP POP POP RETURNDATASIZE DUP1 PUSH0 DUP2 EQ PUSH2 0xB28 JUMPI PUSH1 0x40 MLOAD SWAP2 POP PUSH1 0x1F NOT PUSH1 0x3F RETURNDATASIZE ADD AND DUP3 ADD PUSH1 0x40 MSTORE RETURNDATASIZE DUP3 MSTORE RETURNDATASIZE PUSH0 PUSH1 0x20 DUP5 ADD RETURNDATACOPY PUSH2 0xB2D JUMP JUMPDEST PUSH1 0x60 SWAP2 POP JUMPDEST POP POP SWAP1 POP DUP1 PUSH2 0xB71 JUMPI PUSH1 0x40 MLOAD PUSH32 0x8C379A000000000000000000000000000000000000000000000000000000000 DUP2 MSTORE PUSH1 0x4 ADD PUSH2 0xB68 SWAP1 PUSH2 0x15E6 JUMP JUMPDEST PUSH1 0x40 MLOAD DUP1 SWAP2 SUB SWAP1 REVERT JUMPDEST DUP5 PUSH32 0xDDB556F1D2C1EC821E910B019D3685B229DB152A0ECD517CA7E24B8BD7139289 PUSH1 0x40 MLOAD PUSH1 0x40 MLOAD DUP1 SWAP2 SUB SWAP1 LOG2 POP POP POP POP POP JUMP JUMPDEST PUSH0 DUP1 PUSH0 SWAP1 POP JUMPDEST PUSH0 DUP1 SLOAD SWAP1 POP DUP2 LT ISZERO PUSH2 0xC6B JUMPI PUSH1 0x4 PUSH0 DUP5 DUP2 MSTORE PUSH1 0x20 ADD SWAP1 DUP2 MSTORE PUSH1 0x20 ADD PUSH0 KECCAK256 PUSH0 DUP1 DUP4 DUP2 SLOAD DUP2 LT PUSH2 0xBDC JUMPI PUSH2 0xBDB PUSH2 0x132F JUMP JUMPDEST JUMPDEST SWAP1 PUSH0 MSTORE PUSH1 0x20 PUSH0 KECCAK256 ADD PUSH0 SWAP1 SLOAD SWAP1 PUSH2 0x100 EXP SWAP1 DIV PUSH20 0xFFFFFFFFFFFFFFFFFFFFFFFFFFFFFFFFFFFFFFFF AND PUSH20 0xFFFFFFFFFFFFFFFFFFFFFFFFFFFFFFFFFFFFFFFF AND PUSH20 0xFFFFFFFFFFFFFFFFFFFFFFFFFFFFFFFFFFFFFFFF AND DUP2 MSTORE PUSH1 0x20 ADD SWAP1 DUP2 MSTORE PUSH1 0x20 ADD PUSH0 KECCAK256 PUSH0 SWAP1 SLOAD SWAP1 PUSH2 0x100 EXP SWAP1 DIV PUSH1 0xFF AND ISZERO PUSH2 0xC5E JUMPI DUP2 DUP1 PUSH2 0xC5A SWAP1 PUSH2 0x1604 JUMP JUMPDEST SWAP3 POP POP JUMPDEST DUP1 DUP1 PUSH1 0x1 ADD SWAP2 POP POP PUSH2 0xBAB JUMP JUMPDEST POP SWAP2 SWAP1 POP JUMP JUMPDEST PUSH0 DUP2 SWAP1 POP SWAP2 SWAP1 POP JUMP JUMPDEST PUSH2 0xC83 DUP2 PUSH2 0xC71 JUMP JUMPDEST DUP3 MSTORE POP POP JUMP JUMPDEST PUSH0 PUSH1 0x20 DUP3 ADD SWAP1 POP PUSH2 0xC9C PUSH0 DUP4 ADD DUP5 PUSH2 0xC7A JUMP JUMPDEST SWAP3 SWAP2 POP POP JUMP JUMPDEST PUSH0 DUP1 REVERT JUMPDEST PUSH0 DUP1 REVERT JUMPDEST PUSH2 0xCB3 DUP2 PUSH2 0xC71 JUMP JUMPDEST DUP2 EQ PUSH2 0xCBD JUMPI PUSH0 DUP1 REVERT JUMPDEST POP JUMP JUMPDEST PUSH0 DUP2 CALLDATALOAD SWAP1 POP PUSH2 0xCCE DUP2 PUSH2 0xCAA JUMP JUMPDEST SWAP3 SWAP2 POP POP JUMP JUMPDEST PUSH0 PUSH1 0x20 DUP3 DUP5 SUB SLT ISZERO PUSH2 0xCE9 JUMPI PUSH2 0xCE8 PUSH2 0xCA2 JUMP JUMPDEST JUMPDEST PUSH0 PUSH2 0xCF6 DUP5 DUP3 DUP6 ADD PUSH2 0xCC0 JUMP JUMPDEST SWAP2 POP POP SWAP3 SWAP2 POP POP JUMP JUMPDEST PUSH0 PUSH20 0xFFFFFFFFFFFFFFFFFFFFFFFFFFFFFFFFFFFFFFFF DUP3 AND SWAP1 POP SWAP2 SWAP1 POP JUMP JUMPDEST PUSH0 PUSH2 0xD28 DUP3 PUSH2 0xCFF JUMP JUMPDEST SWAP1 POP SWAP2 SWAP1 POP JUMP JUMPDEST PUSH2 0xD38 DUP2 PUSH2 0xD1E JUMP JUMPDEST DUP3 MSTORE POP POP JUMP JUMPDEST PUSH0 PUSH1 0x20 DUP3 ADD SWAP1 POP PUSH2 0xD51 PUSH0 DUP4 ADD DUP5 PUSH2 0xD2F JUMP JUMPDEST SWAP3 SWAP2 POP POP JUMP JUMPDEST PUSH2 0xD60 DUP2 PUSH2 0xD1E JUMP JUMPDEST DUP2 EQ PUSH2 0xD6A JUMPI PUSH0 DUP1 REVERT JUMPDEST POP JUMP JUMPDEST PUSH0 DUP2 CALLDATALOAD SWAP1 POP PUSH2 0xD7B DUP2 PUSH2 0xD57 JUMP JUMPDEST SWAP3 SWAP2 POP POP JUMP JUMPDEST PUSH0 DUP1 REVERT JUMPDEST PUSH0 DUP1 REVERT JUMPDEST PUSH0 DUP1 REVERT JUMPDEST PUSH0 DUP1 DUP4 PUSH1 0x1F DUP5 ADD SLT PUSH2 0xDA2 JUMPI PUSH2 0xDA1 PUSH2 0xD81 JUMP JUMPDEST JUMPDEST DUP3 CALLDATALOAD SWAP1 POP PUSH8 0xFFFFFFFFFFFFFFFF DUP2 GT ISZERO PUSH2 0xDBF JUMPI PUSH2 0xDBE PUSH2 0xD85 JUMP JUMPDEST JUMPDEST PUSH1 0x20 DUP4 ADD SWAP2 POP DUP4 PUSH1 0x1 DUP3 MUL DUP4 ADD GT ISZERO PUSH2 0xDDB JUMPI PUSH2 0xDDA PUSH2 0xD89 JUMP JUMPDEST JUMPDEST SWAP3 POP SWAP3 SWAP1 POP JUMP JUMPDEST PUSH0 DUP1 PUSH0 DUP1 PUSH1 0x60 DUP6 DUP8 SUB SLT ISZERO PUSH2 0xDFA JUMPI PUSH2 0xDF9 PUSH2 0xCA2 JUMP JUMPDEST JUMPDEST PUSH0 PUSH2 0xE07 DUP8 DUP3 DUP9 ADD PUSH2 0xD6D JUMP JUMPDEST SWAP5 POP POP PUSH1 0x20 PUSH2 0xE18 DUP8 DUP3 DUP9 ADD PUSH2 0xCC0 JUMP JUMPDEST SWAP4 POP POP PUSH1 0x40 DUP6 ADD CALLDATALOAD PUSH8 0xFFFFFFFFFFFFFFFF DUP2 GT ISZERO PUSH2 0xE39 JUMPI PUSH2 0xE38 PUSH2 0xCA6 JUMP JUMPDEST JUMPDEST PUSH2 0xE45 DUP8 DUP3 DUP9 ADD PUSH2 0xD8D JUMP JUMPDEST SWAP3 POP SWAP3 POP POP SWAP3 SWAP6 SWAP2 SWAP5 POP SWAP3 POP JUMP JUMPDEST PUSH0 PUSH1 0x20 DUP3 DUP5 SUB SLT ISZERO PUSH2 0xE68 JUMPI PUSH2 0xE67 PUSH2 0xCA2 JUMP JUMPDEST JUMPDEST PUSH0 PUSH2 0xE75 DUP5 DUP3 DUP6 ADD PUSH2 0xD6D JUMP JUMPDEST SWAP2 POP POP SWAP3 SWAP2 POP POP JUMP JUMPDEST PUSH0 DUP2 ISZERO ISZERO SWAP1 POP SWAP2 SWAP1 POP JUMP JUMPDEST PUSH2 0xE92 DUP2 PUSH2 0xE7E JUMP JUMPDEST DUP3 MSTORE POP POP JUMP JUMPDEST PUSH0 PUSH1 0x20 DUP3 ADD SWAP1 POP PUSH2 0xEAB PUSH0 DUP4 ADD DUP5 PUSH2 0xE89 JUMP JUMPDEST SWAP3 SWAP2 POP POP JUMP JUMPDEST PUSH0 DUP1 PUSH1 0x40 DUP4 DUP6 SUB SLT ISZERO PUSH2 0xEC7 JUMPI PUSH2 0xEC6 PUSH2 0xCA2 JUMP JUMPDEST JUMPDEST PUSH0 PUSH2 0xED4 DUP6 DUP3 DUP7 ADD PUSH2 0xCC0 JUMP JUMPDEST SWAP3 POP POP PUSH1 0x20 PUSH2 0xEE5 DUP6 DUP3 DUP7 ADD PUSH2 0xD6D JUMP JUMPDEST SWAP2 POP POP SWAP3 POP SWAP3 SWAP1 POP JUMP JUMPDEST PUSH0 DUP3 DUP3 MSTORE PUSH1 0x20 DUP3 ADD SWAP1 POP SWAP3 SWAP2 POP POP JUMP JUMPDEST PUSH32 0x6E6F74206F776E65720000000000000000000000000000000000000000000000 PUSH0 DUP3 ADD MSTORE POP JUMP JUMPDEST PUSH0 PUSH2 0xF33 PUSH1 0x9 DUP4 PUSH2 0xEEF JUMP JUMPDEST SWAP2 POP PUSH2 0xF3E DUP3 PUSH2 0xEFF JUMP JUMPDEST PUSH1 0x20 DUP3 ADD SWAP1 POP SWAP2 SWAP1 POP JUMP JUMPDEST PUSH0 PUSH1 0x20 DUP3 ADD SWAP1 POP DUP2 DUP2 SUB PUSH0 DUP4 ADD MSTORE PUSH2 0xF60 DUP2 PUSH2 0xF27 JUMP JUMPDEST SWAP1 POP SWAP2 SWAP1 POP JUMP JUMPDEST PUSH0 DUP2 MLOAD SWAP1 POP SWAP2 SWAP1 POP JUMP JUMPDEST PUSH32 0x4E487B7100000000000000000000000000000000000000000000000000000000 PUSH0 MSTORE PUSH1 0x41 PUSH1 0x4 MSTORE PUSH1 0x24 PUSH0 REVERT JUMPDEST PUSH32 0x4E487B7100000000000000000000000000000000000000000000000000000000 PUSH0 MSTORE PUSH1 0x22 PUSH1 0x4 MSTORE PUSH1 0x24 PUSH0 REVERT JUMPDEST PUSH0 PUSH1 0x2 DUP3 DIV SWAP1 POP PUSH1 0x1 DUP3 AND DUP1 PUSH2 0xFE2 JUMPI PUSH1 0x7F DUP3 AND SWAP2 POP JUMPDEST PUSH1 0x20 DUP3 LT DUP2 SUB PUSH2 0xFF5 JUMPI PUSH2 0xFF4 PUSH2 0xF9E JUMP JUMPDEST JUMPDEST POP SWAP2 SWAP1 POP JUMP JUMPDEST PUSH0 DUP2 SWAP1 POP DUP2 PUSH0 MSTORE PUSH1 0x20 PUSH0 KECCAK256 SWAP1 POP SWAP2 SWAP1 POP JUMP JUMPDEST PUSH0 PUSH1 0x20 PUSH1 0x1F DUP4 ADD DIV SWAP1 POP SWAP2 SWAP1 POP JUMP JUMPDEST PUSH0 DUP3 DUP3 SHL SWAP1 POP SWAP3 SWAP2 POP POP JUMP JUMPDEST PUSH0 PUSH1 0x8 DUP4 MUL PUSH2 0x1057 PUSH32 0xFFFFFFFFFFFFFFFFFFFFFFFFFFFFFFFFFFFFFFFFFFFFFFFFFFFFFFFFFFFFFFFF DUP3 PUSH2 0x101C JUMP JUMPDEST PUSH2 0x1061 DUP7 DUP4 PUSH2 0x101C JUMP JUMPDEST SWAP6 POP DUP1 NOT DUP5 AND SWAP4 POP DUP1 DUP7 AND DUP5 OR SWAP3 POP POP POP SWAP4 SWAP3 POP POP POP JUMP JUMPDEST PUSH0 DUP2 SWAP1 POP SWAP2 SWAP1 POP JUMP JUMPDEST PUSH0 PUSH2 0x109C PUSH2 0x1097 PUSH2 0x1092 DUP5 PUSH2 0xC71 JUMP JUMPDEST PUSH2 0x1079 JUMP JUMPDEST PUSH2 0xC71 JUMP JUMPDEST SWAP1 POP SWAP2 SWAP1 POP JUMP JUMPDEST PUSH0 DUP2 SWAP1 POP SWAP2 SWAP1 POP JUMP JUMPDEST PUSH2 0x10B5 DUP4 PUSH2 0x1082 JUMP JUMPDEST PUSH2 0x10C9 PUSH2 0x10C1 DUP3 PUSH2 0x10A3 JUMP JUMPDEST DUP5 DUP5 SLOAD PUSH2 0x1028 JUMP JUMPDEST DUP3 SSTORE POP POP POP POP JUMP JUMPDEST PUSH0 SWAP1 JUMP JUMPDEST PUSH2 0x10DD PUSH2 0x10D1 JUMP JUMPDEST PUSH2 0x10E8 DUP2 DUP5 DUP5 PUSH2 0x10AC JUMP JUMPDEST POP POP POP JUMP JUMPDEST JUMPDEST DUP2 DUP2 LT ISZERO PUSH2 0x110B JUMPI PUSH2 0x1100 PUSH0 DUP3 PUSH2 0x10D5 JUMP JUMPDEST PUSH1 0x1 DUP2 ADD SWAP1 POP PUSH2 0x10EE JUMP JUMPDEST POP POP JUMP JUMPDEST PUSH1 0x1F DUP3 GT ISZERO PUSH2 0x1150 JUMPI PUSH2 0x1121 DUP2 PUSH2 0xFFB JUMP JUMPDEST PUSH2 0x112A DUP5 PUSH2 0x100D JUMP JUMPDEST DUP2 ADD PUSH1 0x20 DUP6 LT ISZERO PUSH2 0x1139 JUMPI DUP2 SWAP1 POP JUMPDEST PUSH2 0x114D PUSH2 0x1145 DUP6 PUSH2 0x100D JUMP JUMPDEST DUP4 ADD DUP3 PUSH2 0x10ED JUMP JUMPDEST POP POP JUMPDEST POP POP POP JUMP JUMPDEST PUSH0 DUP3 DUP3 SHR SWAP1 POP SWAP3 SWAP2 POP POP JUMP JUMPDEST PUSH0 PUSH2 0x1170 PUSH0 NOT DUP5 PUSH1 0x8 MUL PUSH2 0x1155 JUMP JUMPDEST NOT DUP1 DUP4 AND SWAP2 POP POP SWAP3 SWAP2 POP POP JUMP JUMPDEST PUSH0 PUSH2 0x1188 DUP4 DUP4 PUSH2 0x1161 JUMP JUMPDEST SWAP2 POP DUP3 PUSH1 0x2 MUL DUP3 OR SWAP1 POP SWAP3 SWAP2 POP POP JUMP JUMPDEST PUSH2 0x11A1 DUP3 PUSH2 0xF67 JUMP JUMPDEST PUSH8 0xFFFFFFFFFFFFFFFF DUP2 GT ISZERO PUSH2 0x11BA JUMPI PUSH2 0x11B9 PUSH2 0xF71 JUMP JUMPDEST JUMPDEST PUSH2 0x11C4 DUP3 SLOAD PUSH2 0xFCB JUMP JUMPDEST PUSH2 0x11CF DUP3 DUP3 DUP6 PUSH2 0x110F JUMP JUMPDEST PUSH0 PUSH1 0x20 SWAP1 POP PUSH1 0x1F DUP4 GT PUSH1 0x1 DUP2 EQ PUSH2 0x1200 JUMPI PUSH0 DUP5 ISZERO PUSH2 0x11EE JUMPI DUP3 DUP8 ADD MLOAD SWAP1 POP JUMPDEST PUSH2 0x11F8 DUP6 DUP3 PUSH2 0x117D JUMP JUMPDEST DUP7 SSTORE POP PUSH2 0x125F JUMP JUMPDEST PUSH1 0x1F NOT DUP5 AND PUSH2 0x120E DUP7 PUSH2 0xFFB JUMP JUMPDEST PUSH0 JUMPDEST DUP3 DUP2 LT ISZERO PUSH2 0x1235 JUMPI DUP5 DUP10 ADD MLOAD DUP3 SSTORE PUSH1 0x1 DUP3 ADD SWAP2 POP PUSH1 0x20 DUP6 ADD SWAP5 POP PUSH1 0x20 DUP2 ADD SWAP1 POP PUSH2 0x1210 JUMP JUMPDEST DUP7 DUP4 LT ISZERO PUSH2 0x1252 JUMPI DUP5 DUP10 ADD MLOAD PUSH2 0x124E PUSH1 0x1F DUP10 AND DUP3 PUSH2 0x1161 JUMP JUMPDEST DUP4 SSTORE POP JUMPDEST PUSH1 0x1 PUSH1 0x2 DUP9 MUL ADD DUP9 SSTORE POP POP POP JUMPDEST POP POP POP POP POP POP JUMP JUMPDEST PUSH32 0x4E487B7100000000000000000000000000000000000000000000000000000000 PUSH0 MSTORE PUSH1 0x11 PUSH1 0x4 MSTORE PUSH1 0x24 PUSH0 REVERT JUMPDEST PUSH0 PUSH2 0x129E DUP3 PUSH2 0xC71 JUMP JUMPDEST SWAP2 POP PUSH2 0x12A9 DUP4 PUSH2 0xC71 JUMP JUMPDEST SWAP3 POP DUP3 DUP3 SUB SWAP1 POP DUP2 DUP2 GT ISZERO PUSH2 0x12C1 JUMPI PUSH2 0x12C0 PUSH2 0x1267 JUMP JUMPDEST JUMPDEST SWAP3 SWAP2 POP POP JUMP JUMPDEST PUSH32 0x747820646F6573206E6F74206578697374000000000000000000000000000000 PUSH0 DUP3 ADD MSTORE POP JUMP JUMPDEST PUSH0 PUSH2 0x12FB PUSH1 0x11 DUP4 PUSH2 0xEEF JUMP JUMPDEST SWAP2 POP PUSH2 0x1306 DUP3 PUSH2 0x12C7 JUMP JUMPDEST PUSH1 0x20 DUP3 ADD SWAP1 POP SWAP2 SWAP1 POP JUMP JUMPDEST PUSH0 PUSH1 0x20 DUP3 ADD SWAP1 POP DUP2 DUP2 SUB PUSH0 DUP4 ADD MSTORE PUSH2 0x1328 DUP2 PUSH2 0x12EF JUMP JUMPDEST SWAP1 POP SWAP2 SWAP1 POP JUMP JUMPDEST PUSH32 0x4E487B7100000000000000000000000000000000000000000000000000000000 PUSH0 MSTORE PUSH1 0x32 PUSH1 0x4 MSTORE PUSH1 0x24 PUSH0 REVERT JUMPDEST PUSH32 0x747820616C726561647920657865637574656400000000000000000000000000 PUSH0 DUP3 ADD MSTORE POP JUMP JUMPDEST PUSH0 PUSH2 0x1390 PUSH1 0x13 DUP4 PUSH2 0xEEF JUMP JUMPDEST SWAP2 POP PUSH2 0x139B DUP3 PUSH2 0x135C JUMP JUMPDEST PUSH1 0x20 DUP3 ADD SWAP1 POP SWAP2 SWAP1 POP JUMP JUMPDEST PUSH0 PUSH1 0x20 DUP3 ADD SWAP1 POP DUP2 DUP2 SUB PUSH0 DUP4 ADD MSTORE PUSH2 0x13BD DUP2 PUSH2 0x1384 JUMP JUMPDEST SWAP1 POP SWAP2 SWAP1 POP JUMP JUMPDEST PUSH32 0x7478206E6F7420617070726F7665640000000000000000000000000000000000 PUSH0 DUP3 ADD MSTORE POP JUMP JUMPDEST PUSH0 PUSH2 0x13F8 PUSH1 0xF DUP4 PUSH2 0xEEF JUMP JUMPDEST SWAP2 POP PUSH2 0x1403 DUP3 PUSH2 0x13C4 JUMP JUMPDEST PUSH1 0x20 DUP3 ADD SWAP1 POP SWAP2 SWAP1 POP JUMP JUMPDEST PUSH0 PUSH1 0x20 DUP3 ADD SWAP1 POP DUP2 DUP2 SUB PUSH0 DUP4 ADD MSTORE PUSH2 0x1425 DUP2 PUSH2 0x13EC JUMP JUMPDEST SWAP1 POP SWAP2 SWAP1 POP JUMP JUMPDEST PUSH32 0x747820616C726561647920617070726F76656400000000000000000000000000 PUSH0 DUP3 ADD MSTORE POP JUMP JUMPDEST PUSH0 PUSH2 0x1460 PUSH1 0x13 DUP4 PUSH2 0xEEF JUMP JUMPDEST SWAP2 POP PUSH2 0x146B DUP3 PUSH2 0x142C JUMP JUMPDEST PUSH1 0x20 DUP3 ADD SWAP1 POP SWAP2 SWAP1 POP JUMP JUMPDEST PUSH0 PUSH1 0x20 DUP3 ADD SWAP1 POP DUP2 DUP2 SUB PUSH0 DUP4 ADD MSTORE PUSH2 0x148D DUP2 PUSH2 0x1454 JUMP JUMPDEST SWAP1 POP SWAP2 SWAP1 POP JUMP JUMPDEST PUSH32 0x617070726F76616C73203C207265717569726564000000000000000000000000 PUSH0 DUP3 ADD MSTORE POP JUMP JUMPDEST PUSH0 PUSH2 0x14C8 PUSH1 0x14 DUP4 PUSH2 0xEEF JUMP JUMPDEST SWAP2 POP PUSH2 0x14D3 DUP3 PUSH2 0x1494 JUMP JUMPDEST PUSH1 0x20 DUP3 ADD SWAP1 POP SWAP2 SWAP1 POP JUMP JUMPDEST PUSH0 PUSH1 0x20 DUP3 ADD SWAP1 POP DUP2 DUP2 SUB PUSH0 DUP4 ADD MSTORE PUSH2 0x14F5 DUP2 PUSH2 0x14BC JUMP JUMPDEST SWAP1 POP SWAP2 SWAP1 POP JUMP JUMPDEST PUSH0 DUP2 SWAP1 POP SWAP3 SWAP2 POP POP JUMP JUMPDEST PUSH0 DUP2 SLOAD PUSH2 0x1512 DUP2 PUSH2 0xFCB JUMP JUMPDEST PUSH2 0x151C DUP2 DUP7 PUSH2 0x14FC JUMP JUMPDEST SWAP5 POP PUSH1 0x1 DUP3 AND PUSH0 DUP2 EQ PUSH2 0x1536 JUMPI PUSH1 0x1 DUP2 EQ PUSH2 0x154B JUMPI PUSH2 0x157D JUMP JUMPDEST PUSH1 0xFF NOT DUP4 AND DUP7 MSTORE DUP2 ISZERO ISZERO DUP3 MUL DUP7 ADD SWAP4 POP PUSH2 0x157D JUMP JUMPDEST PUSH2 0x1554 DUP6 PUSH2 0xFFB JUMP JUMPDEST PUSH0 JUMPDEST DUP4 DUP2 LT ISZERO PUSH2 0x1575 JUMPI DUP2 SLOAD DUP2 DUP10 ADD MSTORE PUSH1 0x1 DUP3 ADD SWAP2 POP PUSH1 0x20 DUP2 ADD SWAP1 POP PUSH2 0x1556 JUMP JUMPDEST DUP4 DUP9 ADD SWAP6 POP POP POP JUMPDEST POP POP POP SWAP3 SWAP2 POP POP JUMP JUMPDEST PUSH0 PUSH2 0x1591 DUP3 DUP5 PUSH2 0x1506 JUMP JUMPDEST SWAP2 POP DUP2 SWAP1 POP SWAP3 SWAP2 POP POP JUMP JUMPDEST PUSH32 0x65786563207478206661696C6564000000000000000000000000000000000000 PUSH0 DUP3 ADD MSTORE POP JUMP JUMPDEST PUSH0 PUSH2 0x15D0 PUSH1 0xE DUP4 PUSH2 0xEEF JUMP JUMPDEST SWAP2 POP PUSH2 0x15DB DUP3 PUSH2 0x159C JUMP JUMPDEST PUSH1 0x20 DUP3 ADD SWAP1 POP SWAP2 SWAP1 POP JUMP JUMPDEST PUSH0 PUSH1 0x20 DUP3 ADD SWAP1 POP DUP2 DUP2 SUB PUSH0 DUP4 ADD MSTORE PUSH2 0x15FD DUP2 PUSH2 0x15C4 JUMP JUMPDEST SWAP1 POP SWAP2 SWAP1 POP JUMP JUMPDEST PUSH0 PUSH2 0x160E DUP3 PUSH2 0xC71 JUMP JUMPDEST SWAP2 POP PUSH32 0xFFFFFFFFFFFFFFFFFFFFFFFFFFFFFFFFFFFFFFFFFFFFFFFFFFFFFFFFFFFFFFFF DUP3 SUB PUSH2 0x1640 JUMPI PUSH2 0x163F PUSH2 0x1267 JUMP JUMPDEST JUMPDEST PUSH1 0x1 DUP3 ADD SWAP1 POP SWAP2 SWAP1 POP JUMP INVALID LOG2 PUSH5 0x6970667358 0x22 SLT KECCAK256 0xD6 PUSH11 0xB04CF9AE2E282603EC7923 0xED SLT TIMESTAMP SWAP2 0x23 PUSH13 0xE4692C1607E9FA1FDD42300012 PUSH5 0x736F6C6343 STOP ADDMOD BYTE STOP CALLER "
				},
				"gasEstimates": {
					"creation": {
						"codeDepositCost": "1152200",
						"executionCost": "infinite",
						"totalCost": "infinite"
					},
					"external": {
						"approve(uint256)": "37443",
						"approved(uint256,address)": "3071",
						"execute(uint256)": "infinite",
						"isOwner(address)": "2900",
						"owners(uint256)": "4944",
						"required()": "2469",
						"revode(uint256)": "35218",
						"submit(address,uint256,bytes)": "infinite"
					},
					"internal": {
						"_getApprovalCount(uint256)": "infinite"
					}
				},
				"methodIdentifiers": {
					"approve(uint256)": "b759f954",
					"approved(uint256,address)": "8253951a",
					"execute(uint256)": "fe0d94c1",
					"isOwner(address)": "2f54bf6e",
					"owners(uint256)": "025e7c27",
					"required()": "dc8452cd",
					"revode(uint256)": "2513146d",
					"submit(address,uint256,bytes)": "14de327f"
				}
			},
			"storageLayout": {
				"storage": [
					{
						"astId": 39,
						"contract": "04/MultiSigWallet.sol:MultiSigWallet",
						"label": "owners",
						"offset": 0,
						"slot": "0",
						"type": "t_array(t_address)dyn_storage"
					},
					{
						"astId": 43,
						"contract": "04/MultiSigWallet.sol:MultiSigWallet",
						"label": "isOwner",
						"offset": 0,
						"slot": "1",
						"type": "t_mapping(t_address,t_bool)"
					},
					{
						"astId": 45,
						"contract": "04/MultiSigWallet.sol:MultiSigWallet",
						"label": "required",
						"offset": 0,
						"slot": "2",
						"type": "t_uint256"
					},
					{
						"astId": 49,
						"contract": "04/MultiSigWallet.sol:MultiSigWallet",
						"label": "transactions",
						"offset": 0,
						"slot": "3",
						"type": "t_array(t_struct(Transaction)36_storage)dyn_storage"
					},
					{
						"astId": 55,
						"contract": "04/MultiSigWallet.sol:MultiSigWallet",
						"label": "approved",
						"offset": 0,
						"slot": "4",
						"type": "t_mapping(t_uint256,t_mapping(t_address,t_bool))"
					}
				],
				"types": {
					"t_address": {
						"encoding": "inplace",
						"label": "address",
						"numberOfBytes": "20"
					},
					"t_array(t_address)dyn_storage": {
						"base": "t_address",
						"encoding": "dynamic_array",
						"label": "address[]",
						"numberOfBytes": "32"
					},
					"t_array(t_struct(Transaction)36_storage)dyn_storage": {
						"base": "t_struct(Transaction)36_storage",
						"encoding": "dynamic_array",
						"label": "struct MultiSigWallet.Transaction[]",
						"numberOfBytes": "32"
					},
					"t_bool": {
						"encoding": "inplace",
						"label": "bool",
						"numberOfBytes": "1"
					},
					"t_bytes_storage": {
						"encoding": "bytes",
						"label": "bytes",
						"numberOfBytes": "32"
					},
					"t_mapping(t_address,t_bool)": {
						"encoding": "mapping",
						"key": "t_address",
						"label": "mapping(address => bool)",
						"numberOfBytes": "32",
						"value": "t_bool"
					},
					"t_mapping(t_uint256,t_mapping(t_address,t_bool))": {
						"encoding": "mapping",
						"key": "t_uint256",
						"label": "mapping(uint256 => mapping(address => bool))",
						"numberOfBytes": "32",
						"value": "t_mapping(t_address,t_bool)"
					},
					"t_struct(Transaction)36_storage": {
						"encoding": "inplace",
						"label": "struct MultiSigWallet.Transaction",
						"members": [
							{
								"astId": 29,
								"contract": "04/MultiSigWallet.sol:MultiSigWallet",
								"label": "to",
								"offset": 0,
								"slot": "0",
								"type": "t_address"
							},
							{
								"astId": 31,
								"contract": "04/MultiSigWallet.sol:MultiSigWallet",
								"label": "value",
								"offset": 0,
								"slot": "1",
								"type": "t_uint256"
							},
							{
								"astId": 33,
								"contract": "04/MultiSigWallet.sol:MultiSigWallet",
								"label": "data",
								"offset": 0,
								"slot": "2",
								"type": "t_bytes_storage"
							},
							{
								"astId": 35,
								"contract": "04/MultiSigWallet.sol:MultiSigWallet",
								"label": "executed",
								"offset": 0,
								"slot": "3",
								"type": "t_bool"
							}
						],
						"numberOfBytes": "128"
					},
					"t_uint256": {
						"encoding": "inplace",
						"label": "uint256",
						"numberOfBytes": "32"
					}
				}
			},
			"userdoc": {
				"kind": "user",
				"methods": {},
				"version": 1
			}
		}
	}
}