{
	"01/ValueTypes.sol": {
		"ValueTypes": {
			"abi": [
				{
					"inputs": [],
					"name": "_b",
					"outputs": [
						{
							"internalType": "bytes1",
							"name": "",
							"type": "bytes1"
						}
					],
					"stateMutability": "view",
					"type": "function"
				},
				{
					"inputs": [
						{
							"internalType": "address",
							"name": "",
							"type": "address"
						}
					],
					"name": "_balances",
					"outputs": [
						{
							"internalType": "uint256",
							"name": "",
							"type": "uint256"
						}
					],
					"stateMutability": "view",
					"type": "function"
				},
				{
					"inputs": [],
					"name": "b",
					"outputs": [
						{
							"internalType": "bool",
							"name": "",
							"type": "bool"
						}
					],
					"stateMutability": "view",
					"type": "function"
				},
				{
					"inputs": [],
					"name": "i",
					"outputs": [
						{
							"internalType": "int256",
							"name": "",
							"type": "int256"
						}
					],
					"stateMutability": "view",
					"type": "function"
				},
				{
					"inputs": [],
					"name": "maxInt",
					"outputs": [
						{
							"internalType": "int256",
							"name": "",
							"type": "int256"
						}
					],
					"stateMutability": "view",
					"type": "function"
				},
				{
					"inputs": [],
					"name": "minInt",
					"outputs": [
						{
							"internalType": "int256",
							"name": "",
							"type": "int256"
						}
					],
					"stateMutability": "view",
					"type": "function"
				},
				{
					"inputs": [],
					"name": "u",
					"outputs": [
						{
							"internalType": "uint256",
							"name": "",
							"type": "uint256"
						}
					],
					"stateMutability": "view",
					"type": "function"
				}
			],
			"devdoc": {
				"kind": "dev",
				"methods": {},
				"version": 1
			},
			"evm": {
				"assembly": "    /* \"01/ValueTypes.sol\":95:493  contract ValueTypes {... */\n  mstore(0x40, 0x80)\n    /* \"01/ValueTypes.sol\":142:145  256 */\n  0x0100\n    /* \"01/ValueTypes.sol\":123:145  uint256 public u = 256 */\n  0x00\n  sstore\n  not(0x7f)\n    /* \"01/ValueTypes.sol\":151:170  int public i = -128 */\n  0x01\n  swap1\n  dup2\n  sstore\n    /* \"01/ValueTypes.sol\":176:196  bool public b = true */\n  0x02\n  dup1\n  sload\n  not(0xff)\n  and\n  swap1\n  swap2\n  or\n  swap1\n  sstore\n  shl(0xff, 0x01)\n    /* \"01/ValueTypes.sol\":225:258  int public minInt = type(int).min */\n  0x03\n  sstore\n  sub(shl(0xff, 0x01), 0x01)\n    /* \"01/ValueTypes.sol\":264:297  int public maxInt = type(int).max */\n  0x04\n  sstore\n    /* \"01/ValueTypes.sol\":95:493  contract ValueTypes {... */\n  callvalue\n  dup1\n  iszero\n  tag_1\n  jumpi\n  0x00\n  dup1\n  revert\ntag_1:\n  pop\n  dataSize(sub_0)\n  dup1\n  dataOffset(sub_0)\n  0x00\n  codecopy\n  0x00\n  return\nstop\n\nsub_0: assembly {\n        /* \"01/ValueTypes.sol\":95:493  contract ValueTypes {... */\n      mstore(0x40, 0x80)\n      callvalue\n      dup1\n      iszero\n      tag_1\n      jumpi\n      0x00\n      dup1\n      revert\n    tag_1:\n      pop\n      jumpi(tag_2, lt(calldatasize, 0x04))\n      shr(0xe0, calldataload(0x00))\n      dup1\n      0x7a4c2571\n      gt\n      tag_10\n      jumpi\n      dup1\n      0x7a4c2571\n      eq\n      tag_6\n      jumpi\n      dup1\n      0x7e4e14cc\n      eq\n      tag_7\n      jumpi\n      dup1\n      0xc6a898c5\n      eq\n      tag_8\n      jumpi\n      dup1\n      0xe5aa3d58\n      eq\n      tag_9\n      jumpi\n      0x00\n      dup1\n      revert\n    tag_10:\n      dup1\n      0x25374996\n      eq\n      tag_3\n      jumpi\n      dup1\n      0x4df7e3d0\n      eq\n      tag_4\n      jumpi\n      dup1\n      0x6ebcf607\n      eq\n      tag_5\n      jumpi\n    tag_2:\n      0x00\n      dup1\n      revert\n        /* \"01/ValueTypes.sol\":202:218  bytes1 public _b */\n    tag_3:\n      sload(0x02)\n      tag_11\n      swap1\n      0x0100\n      swap1\n      div\n      0xf8\n      shl\n      dup2\n      jump\n    tag_11:\n      mload(0x40)\n      not(sub(shl(0xf8, 0x01), 0x01))\n        /* \"#utility.yul\":659:685   */\n      swap1\n      swap2\n      and\n        /* \"#utility.yul\":641:686   */\n      dup2\n      mstore\n        /* \"#utility.yul\":629:631   */\n      0x20\n        /* \"#utility.yul\":614:632   */\n      add\n        /* \"01/ValueTypes.sol\":202:218  bytes1 public _b */\n    tag_13:\n      mload(0x40)\n      dup1\n      swap2\n      sub\n      swap1\n      return\n        /* \"01/ValueTypes.sol\":176:196  bool public b = true */\n    tag_4:\n      sload(0x02)\n      tag_15\n      swap1\n      0xff\n      and\n      dup2\n      jump\n    tag_15:\n      mload(0x40)\n        /* \"#utility.yul\":470:484   */\n      swap1\n      iszero\n        /* \"#utility.yul\":463:485   */\n      iszero\n        /* \"#utility.yul\":445:486   */\n      dup2\n      mstore\n        /* \"#utility.yul\":433:435   */\n      0x20\n        /* \"#utility.yul\":418:436   */\n      add\n        /* \"01/ValueTypes.sol\":176:196  bool public b = true */\n      tag_13\n        /* \"#utility.yul\":305:492   */\n      jump\n        /* \"01/ValueTypes.sol\":303:347  mapping(address => uint256) public _balances */\n    tag_5:\n      tag_19\n      tag_20\n      calldatasize\n      0x04\n      tag_21\n      jump\t// in\n    tag_20:\n      mstore(0x20, 0x05)\n      0x00\n      swap1\n      dup2\n      mstore\n      0x40\n      swap1\n      keccak256\n      sload\n      dup2\n      jump\n    tag_19:\n      mload(0x40)\n        /* \"#utility.yul\":841:866   */\n      swap1\n      dup2\n      mstore\n        /* \"#utility.yul\":829:831   */\n      0x20\n        /* \"#utility.yul\":814:832   */\n      add\n        /* \"01/ValueTypes.sol\":303:347  mapping(address => uint256) public _balances */\n      tag_13\n        /* \"#utility.yul\":697:872   */\n      jump\n        /* \"01/ValueTypes.sol\":264:297  int public maxInt = type(int).max */\n    tag_6:\n      tag_19\n      sload(0x04)\n      dup2\n      jump\n        /* \"01/ValueTypes.sol\":225:258  int public minInt = type(int).min */\n    tag_7:\n      tag_19\n      sload(0x03)\n      dup2\n      jump\n        /* \"01/ValueTypes.sol\":123:145  uint256 public u = 256 */\n    tag_8:\n      tag_19\n      sload(0x00)\n      dup2\n      jump\n        /* \"01/ValueTypes.sol\":151:170  int public i = -128 */\n    tag_9:\n      tag_19\n      sload(0x01)\n      dup2\n      jump\n        /* \"#utility.yul\":14:300   */\n    tag_21:\n        /* \"#utility.yul\":73:79   */\n      0x00\n        /* \"#utility.yul\":126:128   */\n      0x20\n        /* \"#utility.yul\":114:123   */\n      dup3\n        /* \"#utility.yul\":105:112   */\n      dup5\n        /* \"#utility.yul\":101:124   */\n      sub\n        /* \"#utility.yul\":97:129   */\n      slt\n        /* \"#utility.yul\":94:146   */\n      iszero\n      tag_40\n      jumpi\n        /* \"#utility.yul\":142:143   */\n      0x00\n        /* \"#utility.yul\":139:140   */\n      dup1\n        /* \"#utility.yul\":132:144   */\n      revert\n        /* \"#utility.yul\":94:146   */\n    tag_40:\n        /* \"#utility.yul\":168:191   */\n      dup2\n      calldataload\n      sub(shl(0xa0, 0x01), 0x01)\n        /* \"#utility.yul\":220:251   */\n      dup2\n      and\n        /* \"#utility.yul\":210:252   */\n      dup2\n      eq\n        /* \"#utility.yul\":200:270   */\n      tag_41\n      jumpi\n        /* \"#utility.yul\":266:267   */\n      0x00\n        /* \"#utility.yul\":263:264   */\n      dup1\n        /* \"#utility.yul\":256:268   */\n      revert\n        /* \"#utility.yul\":200:270   */\n    tag_41:\n        /* \"#utility.yul\":289:294   */\n      swap4\n        /* \"#utility.yul\":14:300   */\n      swap3\n      pop\n      pop\n      pop\n      jump\t// out\n\n    auxdata: 0xa2646970667358221220b6bb325f1e49f56729a47c7439b18872e807988be9d6ae154b0bb790e6a35e4464736f6c63430008070033\n}\n",
				"bytecode": {
					"linkReferences": {},
					"object": "6080604052610100600055607f1960019081556002805460ff19169091179055600160ff1b6003556001600160ff1b0360045534801561003e57600080fd5b506101878061004e6000396000f3fe608060405234801561001057600080fd5b506004361061007d5760003560e01c80637a4c25711161005b5780637a4c2571146100fd5780637e4e14cc14610106578063c6a898c51461010f578063e5aa3d581461011857600080fd5b806325374996146100825780634df7e3d0146100b25780636ebcf607146100cf575b600080fd5b60025461009490610100900460f81b81565b6040516001600160f81b031990911681526020015b60405180910390f35b6002546100bf9060ff1681565b60405190151581526020016100a9565b6100ef6100dd366004610121565b60056020526000908152604090205481565b6040519081526020016100a9565b6100ef60045481565b6100ef60035481565b6100ef60005481565b6100ef60015481565b60006020828403121561013357600080fd5b81356001600160a01b038116811461014a57600080fd5b939250505056fea2646970667358221220b6bb325f1e49f56729a47c7439b18872e807988be9d6ae154b0bb790e6a35e4464736f6c63430008070033",
					"opcodes": "PUSH1 0x80 PUSH1 0x40 MSTORE PUSH2 0x100 PUSH1 0x0 SSTORE PUSH1 0x7F NOT PUSH1 0x1 SWAP1 DUP2 SSTORE PUSH1 0x2 DUP1 SLOAD PUSH1 0xFF NOT AND SWAP1 SWAP2 OR SWAP1 SSTORE PUSH1 0x1 PUSH1 0xFF SHL PUSH1 0x3 SSTORE PUSH1 0x1 PUSH1 0x1 PUSH1 0xFF SHL SUB PUSH1 0x4 SSTORE CALLVALUE DUP1 ISZERO PUSH2 0x3E JUMPI PUSH1 0x0 DUP1 REVERT JUMPDEST POP PUSH2 0x187 DUP1 PUSH2 0x4E PUSH1 0x0 CODECOPY PUSH1 0x0 RETURN INVALID PUSH1 0x80 PUSH1 0x40 MSTORE CALLVALUE DUP1 ISZERO PUSH2 0x10 JUMPI PUSH1 0x0 DUP1 REVERT JUMPDEST POP PUSH1 0x4 CALLDATASIZE LT PUSH2 0x7D JUMPI PUSH1 0x0 CALLDATALOAD PUSH1 0xE0 SHR DUP1 PUSH4 0x7A4C2571 GT PUSH2 0x5B JUMPI DUP1 PUSH4 0x7A4C2571 EQ PUSH2 0xFD JUMPI DUP1 PUSH4 0x7E4E14CC EQ PUSH2 0x106 JUMPI DUP1 PUSH4 0xC6A898C5 EQ PUSH2 0x10F JUMPI DUP1 PUSH4 0xE5AA3D58 EQ PUSH2 0x118 JUMPI PUSH1 0x0 DUP1 REVERT JUMPDEST DUP1 PUSH4 0x25374996 EQ PUSH2 0x82 JUMPI DUP1 PUSH4 0x4DF7E3D0 EQ PUSH2 0xB2 JUMPI DUP1 PUSH4 0x6EBCF607 EQ PUSH2 0xCF JUMPI JUMPDEST PUSH1 0x0 DUP1 REVERT JUMPDEST PUSH1 0x2 SLOAD PUSH2 0x94 SWAP1 PUSH2 0x100 SWAP1 DIV PUSH1 0xF8 SHL DUP2 JUMP JUMPDEST PUSH1 0x40 MLOAD PUSH1 0x1 PUSH1 0x1 PUSH1 0xF8 SHL SUB NOT SWAP1 SWAP2 AND DUP2 MSTORE PUSH1 0x20 ADD JUMPDEST PUSH1 0x40 MLOAD DUP1 SWAP2 SUB SWAP1 RETURN JUMPDEST PUSH1 0x2 SLOAD PUSH2 0xBF SWAP1 PUSH1 0xFF AND DUP2 JUMP JUMPDEST PUSH1 0x40 MLOAD SWAP1 ISZERO ISZERO DUP2 MSTORE PUSH1 0x20 ADD PUSH2 0xA9 JUMP JUMPDEST PUSH2 0xEF PUSH2 0xDD CALLDATASIZE PUSH1 0x4 PUSH2 0x121 JUMP JUMPDEST PUSH1 0x5 PUSH1 0x20 MSTORE PUSH1 0x0 SWAP1 DUP2 MSTORE PUSH1 0x40 SWAP1 KECCAK256 SLOAD DUP2 JUMP JUMPDEST PUSH1 0x40 MLOAD SWAP1 DUP2 MSTORE PUSH1 0x20 ADD PUSH2 0xA9 JUMP JUMPDEST PUSH2 0xEF PUSH1 0x4 SLOAD DUP2 JUMP JUMPDEST PUSH2 0xEF PUSH1 0x3 SLOAD DUP2 JUMP JUMPDEST PUSH2 0xEF PUSH1 0x0 SLOAD DUP2 JUMP JUMPDEST PUSH2 0xEF PUSH1 0x1 SLOAD DUP2 JUMP JUMPDEST PUSH1 0x0 PUSH1 0x20 DUP3 DUP5 SUB SLT ISZERO PUSH2 0x133 JUMPI PUSH1 0x0 DUP1 REVERT JUMPDEST DUP2 CALLDATALOAD PUSH1 0x1 PUSH1 0x1 PUSH1 0xA0 SHL SUB DUP2 AND DUP2 EQ PUSH2 0x14A JUMPI PUSH1 0x0 DUP1 REVERT JUMPDEST SWAP4 SWAP3 POP POP POP JUMP INVALID LOG2 PUSH5 0x6970667358 0x22 SLT KECCAK256 0xB6 0xBB ORIGIN 0x5F 0x1E 0x49 CREATE2 PUSH8 0x29A47C7439B18872 0xE8 SMOD SWAP9 DUP12 0xE9 0xD6 0xAE ISZERO 0x4B SIGNEXTEND 0xB7 SWAP1 0xE6 LOG3 0x5E DIFFICULTY PUSH5 0x736F6C6343 STOP ADDMOD SMOD STOP CALLER "
				},
				"gasEstimates": {
					"creation": {
						"codeDepositCost": "78200",
						"executionCost": "112807",
						"totalCost": "191007"
					},
					"external": {
						"_b()": "2329",
						"_balances(address)": "2529",
						"b()": "2333",
						"i()": "2361",
						"maxInt()": "2295",
						"minInt()": "2317",
						"u()": "2339"
					}
				},
				"methodIdentifiers": {
					"_b()": "25374996",
					"_balances(address)": "6ebcf607",
					"b()": "4df7e3d0",
					"i()": "e5aa3d58",
					"maxInt()": "7a4c2571",
					"minInt()": "7e4e14cc",
					"u()": "c6a898c5"
				}
			},
			"storageLayout": {
				"storage": [
					{
						"astId": 4,
						"contract": "01/ValueTypes.sol:ValueTypes",
						"label": "u",
						"offset": 0,
						"slot": "0",
						"type": "t_uint256"
					},
					{
						"astId": 8,
						"contract": "01/ValueTypes.sol:ValueTypes",
						"label": "i",
						"offset": 0,
						"slot": "1",
						"type": "t_int256"
					},
					{
						"astId": 11,
						"contract": "01/ValueTypes.sol:ValueTypes",
						"label": "b",
						"offset": 0,
						"slot": "2",
						"type": "t_bool"
					},
					{
						"astId": 13,
						"contract": "01/ValueTypes.sol:ValueTypes",
						"label": "_b",
						"offset": 1,
						"slot": "2",
						"type": "t_bytes1"
					},
					{
						"astId": 20,
						"contract": "01/ValueTypes.sol:ValueTypes",
						"label": "minInt",
						"offset": 0,
						"slot": "3",
						"type": "t_int256"
					},
					{
						"astId": 27,
						"contract": "01/ValueTypes.sol:ValueTypes",
						"label": "maxInt",
						"offset": 0,
						"slot": "4",
						"type": "t_int256"
					},
					{
						"astId": 31,
						"contract": "01/ValueTypes.sol:ValueTypes",
						"label": "_balances",
						"offset": 0,
						"slot": "5",
						"type": "t_mapping(t_address,t_uint256)"
					}
				],
				"types": {
					"t_address": {
						"encoding": "inplace",
						"label": "address",
						"numberOfBytes": "20"
					},
					"t_bool": {
						"encoding": "inplace",
						"label": "bool",
						"numberOfBytes": "1"
					},
					"t_bytes1": {
						"encoding": "inplace",
						"label": "bytes1",
						"numberOfBytes": "1"
					},
					"t_int256": {
						"encoding": "inplace",
						"label": "int256",
						"numberOfBytes": "32"
					},
					"t_mapping(t_address,t_uint256)": {
						"encoding": "mapping",
						"key": "t_address",
						"label": "mapping(address => uint256)",
						"numberOfBytes": "32",
						"value": "t_uint256"
					},
					"t_uint256": {
						"encoding": "inplace",
						"label": "uint256",
						"numberOfBytes": "32"
					}
				}
			},
			"userdoc": {
				"kind": "user",
				"methods": {},
				"version": 1
			}
		}
	}
}