{
	"data": {
		"bytecode": {
			"linkReferences": {},
			"object": "60e060405260016080908152600260a052600360c08190526020915f91605b565b50604080516060810182526004815260056020820152600691810191909152604b906001906003605b565b503480156056575f80fd5b5060b6565b828054828255905f5260205f209081019282156096579160200282015b828111156096578251829060ff169055916020019190600101906078565b5060a092915060a4565b5090565b5b8082111560a0575f815560010160a5565b61081e806100c35f395ff3fe608060405234801561000f575f80fd5b506004361061009b575f3560e01c80634cc82215116100635780634cc822151461010957806357771a231461011c5780639507d39a1461012f578063cbbdc4ac14610142578063fd1ee54c14610155575f80fd5b80630b441f651461009f5780631d834a1b146100c55780631f7b6d32146100da578063216c748e146100e15780632fb565e8146100f6575b5f80fd5b6100b26100ad3660046105ed565b610168565b6040519081526020015b60405180910390f35b6100d86100d3366004610604565b610187565b005b5f546100b2565b6100e96102a1565b6040516100bc9190610624565b6100d8610104366004610604565b6102f6565b6100e96101173660046105ed565b61033b565b6100d861012a3660046105ed565b61043b565b6100b261013d3660046105ed565b61047d565b6100e961015036600461067a565b6104c3565b6100b26101633660046105ed565b6105df565b60018181548110610177575f80fd5b5f91825260209091200154905081565b5f54829081106101b25760405162461bcd60e51b81526004016101a99061074a565b60405180910390fd5b5f805481906101c39060019061077f565b815481106101d3576101d3610798565b5f91825260208220015481549092506101ee9060019061077f565b90505b8481111561024d575f61020560018361077f565b8154811061021557610215610798565b905f5260205f2001545f828154811061023057610230610798565b5f9182526020909120015580610245816107ac565b9150506101f1565b50825f858154811061026157610261610798565b5f91825260208220019190915580546001810182559080527f290decd9548b62a8d60345a988386fc84ba6bc95484008f6362f93160ef3e5630155505050565b60605f8054806020026020016040519081016040528092919081815260200182805480156102ec57602002820191905f5260205f20905b8154815260200190600101908083116102d8575b5050505050905090565b5f54829081106103185760405162461bcd60e51b81526004016101a99061074a565b815f848154811061032b5761032b610798565b5f91825260209091200155505050565b5f54606090829081106103605760405162461bcd60e51b81526004016101a99061074a565b825b5f546103709060019061077f565b8110156103c1575f6103838260016107c1565b8154811061039357610393610798565b905f5260205f2001545f82815481106103ae576103ae610798565b5f91825260209091200155600101610362565b505f8054806103d2576103d26107d4565b600190038181905f5260205f20015f905590555f80548060200260200160405190810160405280929190818152602001828054801561042e57602002820191905f5260205f20905b81548152602001906001019080831161041a575b5050505050915050919050565b5f548190811061045d5760405162461bcd60e51b81526004016101a99061074a565b5f828154811061046f5761046f610798565b5f9182526020822001555050565b5f8054829081106104a05760405162461bcd60e51b81526004016101a99061074a565b5f83815481106104b2576104b2610798565b905f5260205f200154915050919050565b5f54606090829081106104e85760405162461bcd60e51b81526004016101a99061074a565b5f600185516104f7919061077f565b67ffffffffffffffff81111561050f5761050f610666565b604051908082528060200260200182016040528015610538578160200160208202803683370190505b5090505f5b85518110156105d6578481101561058b5785818151811061056057610560610798565b602002602001015182828151811061057a5761057a610798565b6020026020010181815250506105ce565b856105978260016107c1565b815181106105a7576105a7610798565b60200260200101518282815181106105c1576105c1610798565b6020026020010181815250505b60010161053d565b50949350505050565b5f8181548110610177575f80fd5b5f602082840312156105fd575f80fd5b5035919050565b5f8060408385031215610615575f80fd5b50508035926020909101359150565b602080825282518282018190525f918401906040840190835b8181101561065b57835183526020938401939092019160010161063d565b509095945050505050565b634e487b7160e01b5f52604160045260245ffd5b5f806040838503121561068b575f80fd5b823567ffffffffffffffff8111156106a1575f80fd5b8301601f810185136106b1575f80fd5b803567ffffffffffffffff8111156106cb576106cb610666565b8060051b604051601f19603f830116810181811067ffffffffffffffff821117156106f8576106f8610666565b604052918252602081840181019290810188841115610715575f80fd5b6020850194505b838510156107385784358082526020958601959093500161071c565b50976020969096013596505050505050565b6020808252600790820152660cae4e440d2c8f60cb1b604082015260600190565b634e487b7160e01b5f52601160045260245ffd5b818103818111156107925761079261076b565b92915050565b634e487b7160e01b5f52603260045260245ffd5b5f816107ba576107ba61076b565b505f190190565b808201808211156107925761079261076b565b634e487b7160e01b5f52603160045260245ffdfea2646970667358221220b7041e7812b5176f747950d8af3a5ccbb18aa290d60d3bc100b2bc612a3708ac64736f6c634300081a0033",
			"opcodes": "PUSH1 0xE0 PUSH1 0x40 MSTORE PUSH1 0x1 PUSH1 0x80 SWAP1 DUP2 MSTORE PUSH1 0x2 PUSH1 0xA0 MSTORE PUSH1 0x3 PUSH1 0xC0 DUP2 SWAP1 MSTORE PUSH1 0x20 SWAP2 PUSH0 SWAP2 PUSH1 0x5B JUMP JUMPDEST POP PUSH1 0x40 DUP1 MLOAD PUSH1 0x60 DUP2 ADD DUP3 MSTORE PUSH1 0x4 DUP2 MSTORE PUSH1 0x5 PUSH1 0x20 DUP3 ADD MSTORE PUSH1 0x6 SWAP2 DUP2 ADD SWAP2 SWAP1 SWAP2 MSTORE PUSH1 0x4B SWAP1 PUSH1 0x1 SWAP1 PUSH1 0x3 PUSH1 0x5B JUMP JUMPDEST POP CALLVALUE DUP1 ISZERO PUSH1 0x56 JUMPI PUSH0 DUP1 REVERT JUMPDEST POP PUSH1 0xB6 JUMP JUMPDEST DUP3 DUP1 SLOAD DUP3 DUP3 SSTORE SWAP1 PUSH0 MSTORE PUSH1 0x20 PUSH0 KECCAK256 SWAP1 DUP2 ADD SWAP3 DUP3 ISZERO PUSH1 0x96 JUMPI SWAP2 PUSH1 0x20 MUL DUP3 ADD JUMPDEST DUP3 DUP2 GT ISZERO PUSH1 0x96 JUMPI DUP3 MLOAD DUP3 SWAP1 PUSH1 0xFF AND SWAP1 SSTORE SWAP2 PUSH1 0x20 ADD SWAP2 SWAP1 PUSH1 0x1 ADD SWAP1 PUSH1 0x78 JUMP JUMPDEST POP PUSH1 0xA0 SWAP3 SWAP2 POP PUSH1 0xA4 JUMP JUMPDEST POP SWAP1 JUMP JUMPDEST JUMPDEST DUP1 DUP3 GT ISZERO PUSH1 0xA0 JUMPI PUSH0 DUP2 SSTORE PUSH1 0x1 ADD PUSH1 0xA5 JUMP JUMPDEST PUSH2 0x81E DUP1 PUSH2 0xC3 PUSH0 CODECOPY PUSH0 RETURN INVALID PUSH1 0x80 PUSH1 0x40 MSTORE CALLVALUE DUP1 ISZERO PUSH2 0xF JUMPI PUSH0 DUP1 REVERT JUMPDEST POP PUSH1 0x4 CALLDATASIZE LT PUSH2 0x9B JUMPI PUSH0 CALLDATALOAD PUSH1 0xE0 SHR DUP1 PUSH4 0x4CC82215 GT PUSH2 0x63 JUMPI DUP1 PUSH4 0x4CC82215 EQ PUSH2 0x109 JUMPI DUP1 PUSH4 0x57771A23 EQ PUSH2 0x11C JUMPI DUP1 PUSH4 0x9507D39A EQ PUSH2 0x12F JUMPI DUP1 PUSH4 0xCBBDC4AC EQ PUSH2 0x142 JUMPI DUP1 PUSH4 0xFD1EE54C EQ PUSH2 0x155 JUMPI PUSH0 DUP1 REVERT JUMPDEST DUP1 PUSH4 0xB441F65 EQ PUSH2 0x9F JUMPI DUP1 PUSH4 0x1D834A1B EQ PUSH2 0xC5 JUMPI DUP1 PUSH4 0x1F7B6D32 EQ PUSH2 0xDA JUMPI DUP1 PUSH4 0x216C748E EQ PUSH2 0xE1 JUMPI DUP1 PUSH4 0x2FB565E8 EQ PUSH2 0xF6 JUMPI JUMPDEST PUSH0 DUP1 REVERT JUMPDEST PUSH2 0xB2 PUSH2 0xAD CALLDATASIZE PUSH1 0x4 PUSH2 0x5ED JUMP JUMPDEST PUSH2 0x168 JUMP JUMPDEST PUSH1 0x40 MLOAD SWAP1 DUP2 MSTORE PUSH1 0x20 ADD JUMPDEST PUSH1 0x40 MLOAD DUP1 SWAP2 SUB SWAP1 RETURN JUMPDEST PUSH2 0xD8 PUSH2 0xD3 CALLDATASIZE PUSH1 0x4 PUSH2 0x604 JUMP JUMPDEST PUSH2 0x187 JUMP JUMPDEST STOP JUMPDEST PUSH0 SLOAD PUSH2 0xB2 JUMP JUMPDEST PUSH2 0xE9 PUSH2 0x2A1 JUMP JUMPDEST PUSH1 0x40 MLOAD PUSH2 0xBC SWAP2 SWAP1 PUSH2 0x624 JUMP JUMPDEST PUSH2 0xD8 PUSH2 0x104 CALLDATASIZE PUSH1 0x4 PUSH2 0x604 JUMP JUMPDEST PUSH2 0x2F6 JUMP JUMPDEST PUSH2 0xE9 PUSH2 0x117 CALLDATASIZE PUSH1 0x4 PUSH2 0x5ED JUMP JUMPDEST PUSH2 0x33B JUMP JUMPDEST PUSH2 0xD8 PUSH2 0x12A CALLDATASIZE PUSH1 0x4 PUSH2 0x5ED JUMP JUMPDEST PUSH2 0x43B JUMP JUMPDEST PUSH2 0xB2 PUSH2 0x13D CALLDATASIZE PUSH1 0x4 PUSH2 0x5ED JUMP JUMPDEST PUSH2 0x47D JUMP JUMPDEST PUSH2 0xE9 PUSH2 0x150 CALLDATASIZE PUSH1 0x4 PUSH2 0x67A JUMP JUMPDEST PUSH2 0x4C3 JUMP JUMPDEST PUSH2 0xB2 PUSH2 0x163 CALLDATASIZE PUSH1 0x4 PUSH2 0x5ED JUMP JUMPDEST PUSH2 0x5DF JUMP JUMPDEST PUSH1 0x1 DUP2 DUP2 SLOAD DUP2 LT PUSH2 0x177 JUMPI PUSH0 DUP1 REVERT JUMPDEST PUSH0 SWAP2 DUP3 MSTORE PUSH1 0x20 SWAP1 SWAP2 KECCAK256 ADD SLOAD SWAP1 POP DUP2 JUMP JUMPDEST PUSH0 SLOAD DUP3 SWAP1 DUP2 LT PUSH2 0x1B2 JUMPI PUSH1 0x40 MLOAD PUSH3 0x461BCD PUSH1 0xE5 SHL DUP2 MSTORE PUSH1 0x4 ADD PUSH2 0x1A9 SWAP1 PUSH2 0x74A JUMP JUMPDEST PUSH1 0x40 MLOAD DUP1 SWAP2 SUB SWAP1 REVERT JUMPDEST PUSH0 DUP1 SLOAD DUP2 SWAP1 PUSH2 0x1C3 SWAP1 PUSH1 0x1 SWAP1 PUSH2 0x77F JUMP JUMPDEST DUP2 SLOAD DUP2 LT PUSH2 0x1D3 JUMPI PUSH2 0x1D3 PUSH2 0x798 JUMP JUMPDEST PUSH0 SWAP2 DUP3 MSTORE PUSH1 0x20 DUP3 KECCAK256 ADD SLOAD DUP2 SLOAD SWAP1 SWAP3 POP PUSH2 0x1EE SWAP1 PUSH1 0x1 SWAP1 PUSH2 0x77F JUMP JUMPDEST SWAP1 POP JUMPDEST DUP5 DUP2 GT ISZERO PUSH2 0x24D JUMPI PUSH0 PUSH2 0x205 PUSH1 0x1 DUP4 PUSH2 0x77F JUMP JUMPDEST DUP2 SLOAD DUP2 LT PUSH2 0x215 JUMPI PUSH2 0x215 PUSH2 0x798 JUMP JUMPDEST SWAP1 PUSH0 MSTORE PUSH1 0x20 PUSH0 KECCAK256 ADD SLOAD PUSH0 DUP3 DUP2 SLOAD DUP2 LT PUSH2 0x230 JUMPI PUSH2 0x230 PUSH2 0x798 JUMP JUMPDEST PUSH0 SWAP2 DUP3 MSTORE PUSH1 0x20 SWAP1 SWAP2 KECCAK256 ADD SSTORE DUP1 PUSH2 0x245 DUP2 PUSH2 0x7AC JUMP JUMPDEST SWAP2 POP POP PUSH2 0x1F1 JUMP JUMPDEST POP DUP3 PUSH0 DUP6 DUP2 SLOAD DUP2 LT PUSH2 0x261 JUMPI PUSH2 0x261 PUSH2 0x798 JUMP JUMPDEST PUSH0 SWAP2 DUP3 MSTORE PUSH1 0x20 DUP3 KECCAK256 ADD SWAP2 SWAP1 SWAP2 SSTORE DUP1 SLOAD PUSH1 0x1 DUP2 ADD DUP3 SSTORE SWAP1 DUP1 MSTORE PUSH32 0x290DECD9548B62A8D60345A988386FC84BA6BC95484008F6362F93160EF3E563 ADD SSTORE POP POP POP JUMP JUMPDEST PUSH1 0x60 PUSH0 DUP1 SLOAD DUP1 PUSH1 0x20 MUL PUSH1 0x20 ADD PUSH1 0x40 MLOAD SWAP1 DUP2 ADD PUSH1 0x40 MSTORE DUP1 SWAP3 SWAP2 SWAP1 DUP2 DUP2 MSTORE PUSH1 0x20 ADD DUP3 DUP1 SLOAD DUP1 ISZERO PUSH2 0x2EC JUMPI PUSH1 0x20 MUL DUP3 ADD SWAP2 SWAP1 PUSH0 MSTORE PUSH1 0x20 PUSH0 KECCAK256 SWAP1 JUMPDEST DUP2 SLOAD DUP2 MSTORE PUSH1 0x20 ADD SWAP1 PUSH1 0x1 ADD SWAP1 DUP1 DUP4 GT PUSH2 0x2D8 JUMPI JUMPDEST POP POP POP POP POP SWAP1 POP SWAP1 JUMP JUMPDEST PUSH0 SLOAD DUP3 SWAP1 DUP2 LT PUSH2 0x318 JUMPI PUSH1 0x40 MLOAD PUSH3 0x461BCD PUSH1 0xE5 SHL DUP2 MSTORE PUSH1 0x4 ADD PUSH2 0x1A9 SWAP1 PUSH2 0x74A JUMP JUMPDEST DUP2 PUSH0 DUP5 DUP2 SLOAD DUP2 LT PUSH2 0x32B JUMPI PUSH2 0x32B PUSH2 0x798 JUMP JUMPDEST PUSH0 SWAP2 DUP3 MSTORE PUSH1 0x20 SWAP1 SWAP2 KECCAK256 ADD SSTORE POP POP POP JUMP JUMPDEST PUSH0 SLOAD PUSH1 0x60 SWAP1 DUP3 SWAP1 DUP2 LT PUSH2 0x360 JUMPI PUSH1 0x40 MLOAD PUSH3 0x461BCD PUSH1 0xE5 SHL DUP2 MSTORE PUSH1 0x4 ADD PUSH2 0x1A9 SWAP1 PUSH2 0x74A JUMP JUMPDEST DUP3 JUMPDEST PUSH0 SLOAD PUSH2 0x370 SWAP1 PUSH1 0x1 SWAP1 PUSH2 0x77F JUMP JUMPDEST DUP2 LT ISZERO PUSH2 0x3C1 JUMPI PUSH0 PUSH2 0x383 DUP3 PUSH1 0x1 PUSH2 0x7C1 JUMP JUMPDEST DUP2 SLOAD DUP2 LT PUSH2 0x393 JUMPI PUSH2 0x393 PUSH2 0x798 JUMP JUMPDEST SWAP1 PUSH0 MSTORE PUSH1 0x20 PUSH0 KECCAK256 ADD SLOAD PUSH0 DUP3 DUP2 SLOAD DUP2 LT PUSH2 0x3AE JUMPI PUSH2 0x3AE PUSH2 0x798 JUMP JUMPDEST PUSH0 SWAP2 DUP3 MSTORE PUSH1 0x20 SWAP1 SWAP2 KECCAK256 ADD SSTORE PUSH1 0x1 ADD PUSH2 0x362 JUMP JUMPDEST POP PUSH0 DUP1 SLOAD DUP1 PUSH2 0x3D2 JUMPI PUSH2 0x3D2 PUSH2 0x7D4 JUMP JUMPDEST PUSH1 0x1 SWAP1 SUB DUP2 DUP2 SWAP1 PUSH0 MSTORE PUSH1 0x20 PUSH0 KECCAK256 ADD PUSH0 SWAP1 SSTORE SWAP1 SSTORE PUSH0 DUP1 SLOAD DUP1 PUSH1 0x20 MUL PUSH1 0x20 ADD PUSH1 0x40 MLOAD SWAP1 DUP2 ADD PUSH1 0x40 MSTORE DUP1 SWAP3 SWAP2 SWAP1 DUP2 DUP2 MSTORE PUSH1 0x20 ADD DUP3 DUP1 SLOAD DUP1 ISZERO PUSH2 0x42E JUMPI PUSH1 0x20 MUL DUP3 ADD SWAP2 SWAP1 PUSH0 MSTORE PUSH1 0x20 PUSH0 KECCAK256 SWAP1 JUMPDEST DUP2 SLOAD DUP2 MSTORE PUSH1 0x20 ADD SWAP1 PUSH1 0x1 ADD SWAP1 DUP1 DUP4 GT PUSH2 0x41A JUMPI JUMPDEST POP POP POP POP POP SWAP2 POP POP SWAP2 SWAP1 POP JUMP JUMPDEST PUSH0 SLOAD DUP2 SWAP1 DUP2 LT PUSH2 0x45D JUMPI PUSH1 0x40 MLOAD PUSH3 0x461BCD PUSH1 0xE5 SHL DUP2 MSTORE PUSH1 0x4 ADD PUSH2 0x1A9 SWAP1 PUSH2 0x74A JUMP JUMPDEST PUSH0 DUP3 DUP2 SLOAD DUP2 LT PUSH2 0x46F JUMPI PUSH2 0x46F PUSH2 0x798 JUMP JUMPDEST PUSH0 SWAP2 DUP3 MSTORE PUSH1 0x20 DUP3 KECCAK256 ADD SSTORE POP POP JUMP JUMPDEST PUSH0 DUP1 SLOAD DUP3 SWAP1 DUP2 LT PUSH2 0x4A0 JUMPI PUSH1 0x40 MLOAD PUSH3 0x461BCD PUSH1 0xE5 SHL DUP2 MSTORE PUSH1 0x4 ADD PUSH2 0x1A9 SWAP1 PUSH2 0x74A JUMP JUMPDEST PUSH0 DUP4 DUP2 SLOAD DUP2 LT PUSH2 0x4B2 JUMPI PUSH2 0x4B2 PUSH2 0x798 JUMP JUMPDEST SWAP1 PUSH0 MSTORE PUSH1 0x20 PUSH0 KECCAK256 ADD SLOAD SWAP2 POP POP SWAP2 SWAP1 POP JUMP JUMPDEST PUSH0 SLOAD PUSH1 0x60 SWAP1 DUP3 SWAP1 DUP2 LT PUSH2 0x4E8 JUMPI PUSH1 0x40 MLOAD PUSH3 0x461BCD PUSH1 0xE5 SHL DUP2 MSTORE PUSH1 0x4 ADD PUSH2 0x1A9 SWAP1 PUSH2 0x74A JUMP JUMPDEST PUSH0 PUSH1 0x1 DUP6 MLOAD PUSH2 0x4F7 SWAP2 SWAP1 PUSH2 0x77F JUMP JUMPDEST PUSH8 0xFFFFFFFFFFFFFFFF DUP2 GT ISZERO PUSH2 0x50F JUMPI PUSH2 0x50F PUSH2 0x666 JUMP JUMPDEST PUSH1 0x40 MLOAD SWAP1 DUP1 DUP3 MSTORE DUP1 PUSH1 0x20 MUL PUSH1 0x20 ADD DUP3 ADD PUSH1 0x40 MSTORE DUP1 ISZERO PUSH2 0x538 JUMPI DUP2 PUSH1 0x20 ADD PUSH1 0x20 DUP3 MUL DUP1 CALLDATASIZE DUP4 CALLDATACOPY ADD SWAP1 POP JUMPDEST POP SWAP1 POP PUSH0 JUMPDEST DUP6 MLOAD DUP2 LT ISZERO PUSH2 0x5D6 JUMPI DUP5 DUP2 LT ISZERO PUSH2 0x58B JUMPI DUP6 DUP2 DUP2 MLOAD DUP2 LT PUSH2 0x560 JUMPI PUSH2 0x560 PUSH2 0x798 JUMP JUMPDEST PUSH1 0x20 MUL PUSH1 0x20 ADD ADD MLOAD DUP3 DUP3 DUP2 MLOAD DUP2 LT PUSH2 0x57A JUMPI PUSH2 0x57A PUSH2 0x798 JUMP JUMPDEST PUSH1 0x20 MUL PUSH1 0x20 ADD ADD DUP2 DUP2 MSTORE POP POP PUSH2 0x5CE JUMP JUMPDEST DUP6 PUSH2 0x597 DUP3 PUSH1 0x1 PUSH2 0x7C1 JUMP JUMPDEST DUP2 MLOAD DUP2 LT PUSH2 0x5A7 JUMPI PUSH2 0x5A7 PUSH2 0x798 JUMP JUMPDEST PUSH1 0x20 MUL PUSH1 0x20 ADD ADD MLOAD DUP3 DUP3 DUP2 MLOAD DUP2 LT PUSH2 0x5C1 JUMPI PUSH2 0x5C1 PUSH2 0x798 JUMP JUMPDEST PUSH1 0x20 MUL PUSH1 0x20 ADD ADD DUP2 DUP2 MSTORE POP POP JUMPDEST PUSH1 0x1 ADD PUSH2 0x53D JUMP JUMPDEST POP SWAP5 SWAP4 POP POP POP POP JUMP JUMPDEST PUSH0 DUP2 DUP2 SLOAD DUP2 LT PUSH2 0x177 JUMPI PUSH0 DUP1 REVERT JUMPDEST PUSH0 PUSH1 0x20 DUP3 DUP5 SUB SLT ISZERO PUSH2 0x5FD JUMPI PUSH0 DUP1 REVERT JUMPDEST POP CALLDATALOAD SWAP2 SWAP1 POP JUMP JUMPDEST PUSH0 DUP1 PUSH1 0x40 DUP4 DUP6 SUB SLT ISZERO PUSH2 0x615 JUMPI PUSH0 DUP1 REVERT JUMPDEST POP POP DUP1 CALLDATALOAD SWAP3 PUSH1 0x20 SWAP1 SWAP2 ADD CALLDATALOAD SWAP2 POP JUMP JUMPDEST PUSH1 0x20 DUP1 DUP3 MSTORE DUP3 MLOAD DUP3 DUP3 ADD DUP2 SWAP1 MSTORE PUSH0 SWAP2 DUP5 ADD SWAP1 PUSH1 0x40 DUP5 ADD SWAP1 DUP4 JUMPDEST DUP2 DUP2 LT ISZERO PUSH2 0x65B JUMPI DUP4 MLOAD DUP4 MSTORE PUSH1 0x20 SWAP4 DUP5 ADD SWAP4 SWAP1 SWAP3 ADD SWAP2 PUSH1 0x1 ADD PUSH2 0x63D JUMP JUMPDEST POP SWAP1 SWAP6 SWAP5 POP POP POP POP POP JUMP JUMPDEST PUSH4 0x4E487B71 PUSH1 0xE0 SHL PUSH0 MSTORE PUSH1 0x41 PUSH1 0x4 MSTORE PUSH1 0x24 PUSH0 REVERT JUMPDEST PUSH0 DUP1 PUSH1 0x40 DUP4 DUP6 SUB SLT ISZERO PUSH2 0x68B JUMPI PUSH0 DUP1 REVERT JUMPDEST DUP3 CALLDATALOAD PUSH8 0xFFFFFFFFFFFFFFFF DUP2 GT ISZERO PUSH2 0x6A1 JUMPI PUSH0 DUP1 REVERT JUMPDEST DUP4 ADD PUSH1 0x1F DUP2 ADD DUP6 SGT PUSH2 0x6B1 JUMPI PUSH0 DUP1 REVERT JUMPDEST DUP1 CALLDATALOAD PUSH8 0xFFFFFFFFFFFFFFFF DUP2 GT ISZERO PUSH2 0x6CB JUMPI PUSH2 0x6CB PUSH2 0x666 JUMP JUMPDEST DUP1 PUSH1 0x5 SHL PUSH1 0x40 MLOAD PUSH1 0x1F NOT PUSH1 0x3F DUP4 ADD AND DUP2 ADD DUP2 DUP2 LT PUSH8 0xFFFFFFFFFFFFFFFF DUP3 GT OR ISZERO PUSH2 0x6F8 JUMPI PUSH2 0x6F8 PUSH2 0x666 JUMP JUMPDEST PUSH1 0x40 MSTORE SWAP2 DUP3 MSTORE PUSH1 0x20 DUP2 DUP5 ADD DUP2 ADD SWAP3 SWAP1 DUP2 ADD DUP9 DUP5 GT ISZERO PUSH2 0x715 JUMPI PUSH0 DUP1 REVERT JUMPDEST PUSH1 0x20 DUP6 ADD SWAP5 POP JUMPDEST DUP4 DUP6 LT ISZERO PUSH2 0x738 JUMPI DUP5 CALLDATALOAD DUP1 DUP3 MSTORE PUSH1 0x20 SWAP6 DUP7 ADD SWAP6 SWAP1 SWAP4 POP ADD PUSH2 0x71C JUMP JUMPDEST POP SWAP8 PUSH1 0x20 SWAP7 SWAP1 SWAP7 ADD CALLDATALOAD SWAP7 POP POP POP POP POP POP JUMP JUMPDEST PUSH1 0x20 DUP1 DUP3 MSTORE PUSH1 0x7 SWAP1 DUP3 ADD MSTORE PUSH7 0xCAE4E440D2C8F PUSH1 0xCB SHL PUSH1 0x40 DUP3 ADD MSTORE PUSH1 0x60 ADD SWAP1 JUMP JUMPDEST PUSH4 0x4E487B71 PUSH1 0xE0 SHL PUSH0 MSTORE PUSH1 0x11 PUSH1 0x4 MSTORE PUSH1 0x24 PUSH0 REVERT JUMPDEST DUP2 DUP2 SUB DUP2 DUP2 GT ISZERO PUSH2 0x792 JUMPI PUSH2 0x792 PUSH2 0x76B JUMP JUMPDEST SWAP3 SWAP2 POP POP JUMP JUMPDEST PUSH4 0x4E487B71 PUSH1 0xE0 SHL PUSH0 MSTORE PUSH1 0x32 PUSH1 0x4 MSTORE PUSH1 0x24 PUSH0 REVERT JUMPDEST PUSH0 DUP2 PUSH2 0x7BA JUMPI PUSH2 0x7BA PUSH2 0x76B JUMP JUMPDEST POP PUSH0 NOT ADD SWAP1 JUMP JUMPDEST DUP1 DUP3 ADD DUP1 DUP3 GT ISZERO PUSH2 0x792 JUMPI PUSH2 0x792 PUSH2 0x76B JUMP JUMPDEST PUSH4 0x4E487B71 PUSH1 0xE0 SHL PUSH0 MSTORE PUSH1 0x31 PUSH1 0x4 MSTORE PUSH1 0x24 PUSH0 REVERT INVALID LOG2 PUSH5 0x6970667358 0x22 SLT KECCAK256 0xB7 DIV 0x1E PUSH25 0x12B5176F747950D8AF3A5CCBB18AA290D60D3BC100B2BC612A CALLDATACOPY ADDMOD 0xAC PUSH5 0x736F6C6343 STOP ADDMOD BYTE STOP CALLER "
		},
		"gasEstimates": {
			"creation": {
				"codeDepositCost": "415600",
				"executionCost": "infinite",
				"totalCost": "infinite"
			},
			"external": {
				"del(uint256)": "9557",
				"fixedNums(uint256)": "4562",
				"get(uint256)": "6735",
				"insert(uint256,uint256)": "infinite",
				"length()": "2324",
				"nums(uint256)": "4648",
				"remove(uint256)": "infinite",
				"remove(uint256[],uint256)": "infinite",
				"retArr()": "infinite",
				"update(uint256,uint256)": "26755"
			}
		},
		"methodIdentifiers": {
			"del(uint256)": "57771a23",
			"fixedNums(uint256)": "0b441f65",
			"get(uint256)": "9507d39a",
			"insert(uint256,uint256)": "1d834a1b",
			"length()": "1f7b6d32",
			"nums(uint256)": "fd1ee54c",
			"remove(uint256)": "4cc82215",
			"remove(uint256[],uint256)": "cbbdc4ac",
			"retArr()": "216c748e",
			"update(uint256,uint256)": "2fb565e8"
		}
	},
	"abi": [
		{
			"inputs": [
				{
					"internalType": "uint256",
					"name": "idx",
					"type": "uint256"
				}
			],
			"name": "del",
			"outputs": [],
			"stateMutability": "nonpayable",
			"type": "function"
		},
		{
			"inputs": [
				{
					"internalType": "uint256",
					"name": "",
					"type": "uint256"
				}
			],
			"name": "fixedNums",
			"outputs": [
				{
					"internalType": "uint256",
					"name": "",
					"type": "uint256"
				}
			],
			"stateMutability": "view",
			"type": "function"
		},
		{
			"inputs": [
				{
					"internalType": "uint256",
					"name": "idx",
					"type": "uint256"
				}
			],
			"name": "get",
			"outputs": [
				{
					"internalType": "uint256",
					"name": "",
					"type": "uint256"
				}
			],
			"stateMutability": "view",
			"type": "function"
		},
		{
			"inputs": [
				{
					"internalType": "uint256",
					"name": "idx",
					"type": "uint256"
				},
				{
					"internalType": "uint256",
					"name": "value",
					"type": "uint256"
				}
			],
			"name": "insert",
			"outputs": [],
			"stateMutability": "nonpayable",
			"type": "function"
		},
		{
			"inputs": [],
			"name": "length",
			"outputs": [
				{
					"internalType": "uint256",
					"name": "",
					"type": "uint256"
				}
			],
			"stateMutability": "view",
			"type": "function"
		},
		{
			"inputs": [
				{
					"internalType": "uint256",
					"name": "",
					"type": "uint256"
				}
			],
			"name": "nums",
			"outputs": [
				{
					"internalType": "uint256",
					"name": "",
					"type": "uint256"
				}
			],
			"stateMutability": "view",
			"type": "function"
		},
		{
			"inputs": [
				{
					"internalType": "uint256",
					"name": "idx",
					"type": "uint256"
				}
			],
			"name": "remove",
			"outputs": [
				{
					"internalType": "uint256[]",
					"name": "",
					"type": "uint256[]"
				}
			],
			"stateMutability": "nonpayable",
			"type": "function"
		},
		{
			"inputs": [
				{
					"internalType": "uint256[]",
					"name": "arr",
					"type": "uint256[]"
				},
				{
					"internalType": "uint256",
					"name": "idx",
					"type": "uint256"
				}
			],
			"name": "remove",
			"outputs": [
				{
					"internalType": "uint256[]",
					"name": "",
					"type": "uint256[]"
				}
			],
			"stateMutability": "view",
			"type": "function"
		},
		{
			"inputs": [],
			"name": "retArr",
			"outputs": [
				{
					"internalType": "uint256[]",
					"name": "",
					"type": "uint256[]"
				}
			],
			"stateMutability": "view",
			"type": "function"
		},
		{
			"inputs": [
				{
					"internalType": "uint256",
					"name": "idx",
					"type": "uint256"
				},
				{
					"internalType": "uint256",
					"name": "value",
					"type": "uint256"
				}
			],
			"name": "update",
			"outputs": [],
			"stateMutability": "nonpayable",
			"type": "function"
		}
	]
}