{
	"data": {
		"bytecode": {
			"linkReferences": {},
			"object": "6080604052348015600e575f80fd5b506106648061001c5f395ff3fe608060405234801561000f575f80fd5b506004361061003f575f3560e01c8063124258c6146100435780633075f55214610058578063b0c8f9dc14610076575b5f80fd5b61005661005136600461033b565b610089565b005b6100606100fe565b60405161006d9190610352565b60405180910390f35b61005661008436600461039b565b610268565b5f80828154811061009c5761009c610409565b905f5260205f2090600202019050806001015f8154809291906100be9061041d565b91905055507fa20a521773d732508d35f71531a5cfa7e1d3d194bae5ec6c253c14876593aa97816040516100f29190610479565b60405180910390a15050565b60408051808201909152606081525f602082015260408051808201909152606081525f60208201525f5b5f5481101561022b5781602001515f828154811061014857610148610409565b905f5260205f209060020201600101541115610223575f818154811061017057610170610409565b905f5260205f2090600202016040518060400160405290815f8201805461019690610441565b80601f01602080910402602001604051908101604052809291908181526020018280546101c290610441565b801561020d5780601f106101e45761010080835404028352916020019161020d565b820191905f5260205f20905b8154815290600101906020018083116101f057829003601f168201915b5050505050815260200160018201548152505091505b600101610128565b507fa20a521773d732508d35f71531a5cfa7e1d3d194bae5ec6c253c14876593aa978160405161025b9190610352565b60405180910390a1919050565b6040805160606020601f8501819004028201810183529181018381525f9282919086908690819085018382808284375f920182905250938552505050602090910181905280546001810182559080528151919250829160029091027f290decd9548b62a8d60345a988386fc84ba6bc95484008f6362f93160ef3e563019081906102f29082610573565b506020820151816001015550507fa20a521773d732508d35f71531a5cfa7e1d3d194bae5ec6c253c14876593aa978160405161032e9190610352565b60405180910390a1505050565b5f6020828403121561034b575f80fd5b5035919050565b602081525f82516040602084015280518060608501528060208301608086015e5f60808286010152602085015160408501526080601f19601f8301168501019250505092915050565b5f80602083850312156103ac575f80fd5b823567ffffffffffffffff8111156103c2575f80fd5b8301601f810185136103d2575f80fd5b803567ffffffffffffffff8111156103e8575f80fd5b8560208284010111156103f9575f80fd5b6020919091019590945092505050565b634e487b7160e01b5f52603260045260245ffd5b5f6001820161043a57634e487b7160e01b5f52601160045260245ffd5b5060010190565b600181811c9082168061045557607f821691505b60208210810361047357634e487b7160e01b5f52602260045260245ffd5b50919050565b60208152604060208201525f80835461049181610441565b806060860152600182165f81146104af57600181146104cb576104fc565b60ff1983166080870152608082151560051b87010193506104fc565b865f5260205f205f5b838110156104f3578154888201608001526001909101906020016104d4565b87016080019450505b505050600184015460408401528091505092915050565b634e487b7160e01b5f52604160045260245ffd5b601f82111561056e57805f5260205f20601f840160051c8101602085101561054c5750805b601f840160051c820191505b8181101561056b575f8155600101610558565b50505b505050565b815167ffffffffffffffff81111561058d5761058d610513565b6105a18161059b8454610441565b84610527565b6020601f8211600181146105d3575f83156105bc5750848201515b5f19600385901b1c1916600184901b17845561056b565b5f84815260208120601f198516915b8281101561060257878501518255602094850194600190920191016105e2565b508482101561061f57868401515f19600387901b60f8161c191681555b50505050600190811b0190555056fea264697066735822122047e1cc611c8803afaa91ff1240be468739d9580cb7c8ce3080917bac5575461a64736f6c634300081a0033",
			"opcodes": "PUSH1 0x80 PUSH1 0x40 MSTORE CALLVALUE DUP1 ISZERO PUSH1 0xE JUMPI PUSH0 DUP1 REVERT JUMPDEST POP PUSH2 0x664 DUP1 PUSH2 0x1C PUSH0 CODECOPY PUSH0 RETURN INVALID PUSH1 0x80 PUSH1 0x40 MSTORE CALLVALUE DUP1 ISZERO PUSH2 0xF JUMPI PUSH0 DUP1 REVERT JUMPDEST POP PUSH1 0x4 CALLDATASIZE LT PUSH2 0x3F JUMPI PUSH0 CALLDATALOAD PUSH1 0xE0 SHR DUP1 PUSH4 0x124258C6 EQ PUSH2 0x43 JUMPI DUP1 PUSH4 0x3075F552 EQ PUSH2 0x58 JUMPI DUP1 PUSH4 0xB0C8F9DC EQ PUSH2 0x76 JUMPI JUMPDEST PUSH0 DUP1 REVERT JUMPDEST PUSH2 0x56 PUSH2 0x51 CALLDATASIZE PUSH1 0x4 PUSH2 0x33B JUMP JUMPDEST PUSH2 0x89 JUMP JUMPDEST STOP JUMPDEST PUSH2 0x60 PUSH2 0xFE JUMP JUMPDEST PUSH1 0x40 MLOAD PUSH2 0x6D SWAP2 SWAP1 PUSH2 0x352 JUMP JUMPDEST PUSH1 0x40 MLOAD DUP1 SWAP2 SUB SWAP1 RETURN JUMPDEST PUSH2 0x56 PUSH2 0x84 CALLDATASIZE PUSH1 0x4 PUSH2 0x39B JUMP JUMPDEST PUSH2 0x268 JUMP JUMPDEST PUSH0 DUP1 DUP3 DUP2 SLOAD DUP2 LT PUSH2 0x9C JUMPI PUSH2 0x9C PUSH2 0x409 JUMP JUMPDEST SWAP1 PUSH0 MSTORE PUSH1 0x20 PUSH0 KECCAK256 SWAP1 PUSH1 0x2 MUL ADD SWAP1 POP DUP1 PUSH1 0x1 ADD PUSH0 DUP2 SLOAD DUP1 SWAP3 SWAP2 SWAP1 PUSH2 0xBE SWAP1 PUSH2 0x41D JUMP JUMPDEST SWAP2 SWAP1 POP SSTORE POP PUSH32 0xA20A521773D732508D35F71531A5CFA7E1D3D194BAE5EC6C253C14876593AA97 DUP2 PUSH1 0x40 MLOAD PUSH2 0xF2 SWAP2 SWAP1 PUSH2 0x479 JUMP JUMPDEST PUSH1 0x40 MLOAD DUP1 SWAP2 SUB SWAP1 LOG1 POP POP JUMP JUMPDEST PUSH1 0x40 DUP1 MLOAD DUP1 DUP3 ADD SWAP1 SWAP2 MSTORE PUSH1 0x60 DUP2 MSTORE PUSH0 PUSH1 0x20 DUP3 ADD MSTORE PUSH1 0x40 DUP1 MLOAD DUP1 DUP3 ADD SWAP1 SWAP2 MSTORE PUSH1 0x60 DUP2 MSTORE PUSH0 PUSH1 0x20 DUP3 ADD MSTORE PUSH0 JUMPDEST PUSH0 SLOAD DUP2 LT ISZERO PUSH2 0x22B JUMPI DUP2 PUSH1 0x20 ADD MLOAD PUSH0 DUP3 DUP2 SLOAD DUP2 LT PUSH2 0x148 JUMPI PUSH2 0x148 PUSH2 0x409 JUMP JUMPDEST SWAP1 PUSH0 MSTORE PUSH1 0x20 PUSH0 KECCAK256 SWAP1 PUSH1 0x2 MUL ADD PUSH1 0x1 ADD SLOAD GT ISZERO PUSH2 0x223 JUMPI PUSH0 DUP2 DUP2 SLOAD DUP2 LT PUSH2 0x170 JUMPI PUSH2 0x170 PUSH2 0x409 JUMP JUMPDEST SWAP1 PUSH0 MSTORE PUSH1 0x20 PUSH0 KECCAK256 SWAP1 PUSH1 0x2 MUL ADD PUSH1 0x40 MLOAD DUP1 PUSH1 0x40 ADD PUSH1 0x40 MSTORE SWAP1 DUP2 PUSH0 DUP3 ADD DUP1 SLOAD PUSH2 0x196 SWAP1 PUSH2 0x441 JUMP JUMPDEST DUP1 PUSH1 0x1F ADD PUSH1 0x20 DUP1 SWAP2 DIV MUL PUSH1 0x20 ADD PUSH1 0x40 MLOAD SWAP1 DUP2 ADD PUSH1 0x40 MSTORE DUP1 SWAP3 SWAP2 SWAP1 DUP2 DUP2 MSTORE PUSH1 0x20 ADD DUP3 DUP1 SLOAD PUSH2 0x1C2 SWAP1 PUSH2 0x441 JUMP JUMPDEST DUP1 ISZERO PUSH2 0x20D JUMPI DUP1 PUSH1 0x1F LT PUSH2 0x1E4 JUMPI PUSH2 0x100 DUP1 DUP4 SLOAD DIV MUL DUP4 MSTORE SWAP2 PUSH1 0x20 ADD SWAP2 PUSH2 0x20D JUMP JUMPDEST DUP3 ADD SWAP2 SWAP1 PUSH0 MSTORE PUSH1 0x20 PUSH0 KECCAK256 SWAP1 JUMPDEST DUP2 SLOAD DUP2 MSTORE SWAP1 PUSH1 0x1 ADD SWAP1 PUSH1 0x20 ADD DUP1 DUP4 GT PUSH2 0x1F0 JUMPI DUP3 SWAP1 SUB PUSH1 0x1F AND DUP3 ADD SWAP2 JUMPDEST POP POP POP POP POP DUP2 MSTORE PUSH1 0x20 ADD PUSH1 0x1 DUP3 ADD SLOAD DUP2 MSTORE POP POP SWAP2 POP JUMPDEST PUSH1 0x1 ADD PUSH2 0x128 JUMP JUMPDEST POP PUSH32 0xA20A521773D732508D35F71531A5CFA7E1D3D194BAE5EC6C253C14876593AA97 DUP2 PUSH1 0x40 MLOAD PUSH2 0x25B SWAP2 SWAP1 PUSH2 0x352 JUMP JUMPDEST PUSH1 0x40 MLOAD DUP1 SWAP2 SUB SWAP1 LOG1 SWAP2 SWAP1 POP JUMP JUMPDEST PUSH1 0x40 DUP1 MLOAD PUSH1 0x60 PUSH1 0x20 PUSH1 0x1F DUP6 ADD DUP2 SWAP1 DIV MUL DUP3 ADD DUP2 ADD DUP4 MSTORE SWAP2 DUP2 ADD DUP4 DUP2 MSTORE PUSH0 SWAP3 DUP3 SWAP2 SWAP1 DUP7 SWAP1 DUP7 SWAP1 DUP2 SWAP1 DUP6 ADD DUP4 DUP3 DUP1 DUP3 DUP5 CALLDATACOPY PUSH0 SWAP3 ADD DUP3 SWAP1 MSTORE POP SWAP4 DUP6 MSTORE POP POP POP PUSH1 0x20 SWAP1 SWAP2 ADD DUP2 SWAP1 MSTORE DUP1 SLOAD PUSH1 0x1 DUP2 ADD DUP3 SSTORE SWAP1 DUP1 MSTORE DUP2 MLOAD SWAP2 SWAP3 POP DUP3 SWAP2 PUSH1 0x2 SWAP1 SWAP2 MUL PUSH32 0x290DECD9548B62A8D60345A988386FC84BA6BC95484008F6362F93160EF3E563 ADD SWAP1 DUP2 SWAP1 PUSH2 0x2F2 SWAP1 DUP3 PUSH2 0x573 JUMP JUMPDEST POP PUSH1 0x20 DUP3 ADD MLOAD DUP2 PUSH1 0x1 ADD SSTORE POP POP PUSH32 0xA20A521773D732508D35F71531A5CFA7E1D3D194BAE5EC6C253C14876593AA97 DUP2 PUSH1 0x40 MLOAD PUSH2 0x32E SWAP2 SWAP1 PUSH2 0x352 JUMP JUMPDEST PUSH1 0x40 MLOAD DUP1 SWAP2 SUB SWAP1 LOG1 POP POP POP JUMP JUMPDEST PUSH0 PUSH1 0x20 DUP3 DUP5 SUB SLT ISZERO PUSH2 0x34B JUMPI PUSH0 DUP1 REVERT JUMPDEST POP CALLDATALOAD SWAP2 SWAP1 POP JUMP JUMPDEST PUSH1 0x20 DUP2 MSTORE PUSH0 DUP3 MLOAD PUSH1 0x40 PUSH1 0x20 DUP5 ADD MSTORE DUP1 MLOAD DUP1 PUSH1 0x60 DUP6 ADD MSTORE DUP1 PUSH1 0x20 DUP4 ADD PUSH1 0x80 DUP7 ADD MCOPY PUSH0 PUSH1 0x80 DUP3 DUP7 ADD ADD MSTORE PUSH1 0x20 DUP6 ADD MLOAD PUSH1 0x40 DUP6 ADD MSTORE PUSH1 0x80 PUSH1 0x1F NOT PUSH1 0x1F DUP4 ADD AND DUP6 ADD ADD SWAP3 POP POP POP SWAP3 SWAP2 POP POP JUMP JUMPDEST PUSH0 DUP1 PUSH1 0x20 DUP4 DUP6 SUB SLT ISZERO PUSH2 0x3AC JUMPI PUSH0 DUP1 REVERT JUMPDEST DUP3 CALLDATALOAD PUSH8 0xFFFFFFFFFFFFFFFF DUP2 GT ISZERO PUSH2 0x3C2 JUMPI PUSH0 DUP1 REVERT JUMPDEST DUP4 ADD PUSH1 0x1F DUP2 ADD DUP6 SGT PUSH2 0x3D2 JUMPI PUSH0 DUP1 REVERT JUMPDEST DUP1 CALLDATALOAD PUSH8 0xFFFFFFFFFFFFFFFF DUP2 GT ISZERO PUSH2 0x3E8 JUMPI PUSH0 DUP1 REVERT JUMPDEST DUP6 PUSH1 0x20 DUP3 DUP5 ADD ADD GT ISZERO PUSH2 0x3F9 JUMPI PUSH0 DUP1 REVERT JUMPDEST PUSH1 0x20 SWAP2 SWAP1 SWAP2 ADD SWAP6 SWAP1 SWAP5 POP SWAP3 POP POP POP JUMP JUMPDEST PUSH4 0x4E487B71 PUSH1 0xE0 SHL PUSH0 MSTORE PUSH1 0x32 PUSH1 0x4 MSTORE PUSH1 0x24 PUSH0 REVERT JUMPDEST PUSH0 PUSH1 0x1 DUP3 ADD PUSH2 0x43A JUMPI PUSH4 0x4E487B71 PUSH1 0xE0 SHL PUSH0 MSTORE PUSH1 0x11 PUSH1 0x4 MSTORE PUSH1 0x24 PUSH0 REVERT JUMPDEST POP PUSH1 0x1 ADD SWAP1 JUMP JUMPDEST PUSH1 0x1 DUP2 DUP2 SHR SWAP1 DUP3 AND DUP1 PUSH2 0x455 JUMPI PUSH1 0x7F DUP3 AND SWAP2 POP JUMPDEST PUSH1 0x20 DUP3 LT DUP2 SUB PUSH2 0x473 JUMPI PUSH4 0x4E487B71 PUSH1 0xE0 SHL PUSH0 MSTORE PUSH1 0x22 PUSH1 0x4 MSTORE PUSH1 0x24 PUSH0 REVERT JUMPDEST POP SWAP2 SWAP1 POP JUMP JUMPDEST PUSH1 0x20 DUP2 MSTORE PUSH1 0x40 PUSH1 0x20 DUP3 ADD MSTORE PUSH0 DUP1 DUP4 SLOAD PUSH2 0x491 DUP2 PUSH2 0x441 JUMP JUMPDEST DUP1 PUSH1 0x60 DUP7 ADD MSTORE PUSH1 0x1 DUP3 AND PUSH0 DUP2 EQ PUSH2 0x4AF JUMPI PUSH1 0x1 DUP2 EQ PUSH2 0x4CB JUMPI PUSH2 0x4FC JUMP JUMPDEST PUSH1 0xFF NOT DUP4 AND PUSH1 0x80 DUP8 ADD MSTORE PUSH1 0x80 DUP3 ISZERO ISZERO PUSH1 0x5 SHL DUP8 ADD ADD SWAP4 POP PUSH2 0x4FC JUMP JUMPDEST DUP7 PUSH0 MSTORE PUSH1 0x20 PUSH0 KECCAK256 PUSH0 JUMPDEST DUP4 DUP2 LT ISZERO PUSH2 0x4F3 JUMPI DUP2 SLOAD DUP9 DUP3 ADD PUSH1 0x80 ADD MSTORE PUSH1 0x1 SWAP1 SWAP2 ADD SWAP1 PUSH1 0x20 ADD PUSH2 0x4D4 JUMP JUMPDEST DUP8 ADD PUSH1 0x80 ADD SWAP5 POP POP JUMPDEST POP POP POP PUSH1 0x1 DUP5 ADD SLOAD PUSH1 0x40 DUP5 ADD MSTORE DUP1 SWAP2 POP POP SWAP3 SWAP2 POP POP JUMP JUMPDEST PUSH4 0x4E487B71 PUSH1 0xE0 SHL PUSH0 MSTORE PUSH1 0x41 PUSH1 0x4 MSTORE PUSH1 0x24 PUSH0 REVERT JUMPDEST PUSH1 0x1F DUP3 GT ISZERO PUSH2 0x56E JUMPI DUP1 PUSH0 MSTORE PUSH1 0x20 PUSH0 KECCAK256 PUSH1 0x1F DUP5 ADD PUSH1 0x5 SHR DUP2 ADD PUSH1 0x20 DUP6 LT ISZERO PUSH2 0x54C JUMPI POP DUP1 JUMPDEST PUSH1 0x1F DUP5 ADD PUSH1 0x5 SHR DUP3 ADD SWAP2 POP JUMPDEST DUP2 DUP2 LT ISZERO PUSH2 0x56B JUMPI PUSH0 DUP2 SSTORE PUSH1 0x1 ADD PUSH2 0x558 JUMP JUMPDEST POP POP JUMPDEST POP POP POP JUMP JUMPDEST DUP2 MLOAD PUSH8 0xFFFFFFFFFFFFFFFF DUP2 GT ISZERO PUSH2 0x58D JUMPI PUSH2 0x58D PUSH2 0x513 JUMP JUMPDEST PUSH2 0x5A1 DUP2 PUSH2 0x59B DUP5 SLOAD PUSH2 0x441 JUMP JUMPDEST DUP5 PUSH2 0x527 JUMP JUMPDEST PUSH1 0x20 PUSH1 0x1F DUP3 GT PUSH1 0x1 DUP2 EQ PUSH2 0x5D3 JUMPI PUSH0 DUP4 ISZERO PUSH2 0x5BC JUMPI POP DUP5 DUP3 ADD MLOAD JUMPDEST PUSH0 NOT PUSH1 0x3 DUP6 SWAP1 SHL SHR NOT AND PUSH1 0x1 DUP5 SWAP1 SHL OR DUP5 SSTORE PUSH2 0x56B JUMP JUMPDEST PUSH0 DUP5 DUP2 MSTORE PUSH1 0x20 DUP2 KECCAK256 PUSH1 0x1F NOT DUP6 AND SWAP2 JUMPDEST DUP3 DUP2 LT ISZERO PUSH2 0x602 JUMPI DUP8 DUP6 ADD MLOAD DUP3 SSTORE PUSH1 0x20 SWAP5 DUP6 ADD SWAP5 PUSH1 0x1 SWAP1 SWAP3 ADD SWAP2 ADD PUSH2 0x5E2 JUMP JUMPDEST POP DUP5 DUP3 LT ISZERO PUSH2 0x61F JUMPI DUP7 DUP5 ADD MLOAD PUSH0 NOT PUSH1 0x3 DUP8 SWAP1 SHL PUSH1 0xF8 AND SHR NOT AND DUP2 SSTORE JUMPDEST POP POP POP POP PUSH1 0x1 SWAP1 DUP2 SHL ADD SWAP1 SSTORE POP JUMP INVALID LOG2 PUSH5 0x6970667358 0x22 SLT KECCAK256 SELFBALANCE 0xE1 0xCC PUSH2 0x1C88 SUB 0xAF 0xAA SWAP2 SELFDESTRUCT SLT BLOCKHASH 0xBE CHAINID DUP8 CODECOPY 0xD9 PC 0xC 0xB7 0xC8 0xCE ADDRESS DUP1 SWAP2 PUSH28 0xAC5575461A64736F6C634300081A0033000000000000000000000000 "
		},
		"gasEstimates": {
			"creation": {
				"codeDepositCost": "327200",
				"executionCost": "366",
				"totalCost": "327566"
			},
			"external": {
				"add(string)": "infinite",
				"doVote(uint256)": "infinite",
				"getMax()": "infinite"
			}
		},
		"methodIdentifiers": {
			"add(string)": "b0c8f9dc",
			"doVote(uint256)": "124258c6",
			"getMax()": "3075f552"
		}
	},
	"abi": [
		{
			"anonymous": false,
			"inputs": [
				{
					"components": [
						{
							"internalType": "string",
							"name": "title",
							"type": "string"
						},
						{
							"internalType": "uint256",
							"name": "count",
							"type": "uint256"
						}
					],
					"indexed": false,
					"internalType": "struct Event.Vote",
					"name": "vote",
					"type": "tuple"
				}
			],
			"name": "Log",
			"type": "event"
		},
		{
			"inputs": [
				{
					"internalType": "string",
					"name": "_title",
					"type": "string"
				}
			],
			"name": "add",
			"outputs": [],
			"stateMutability": "nonpayable",
			"type": "function"
		},
		{
			"inputs": [
				{
					"internalType": "uint256",
					"name": "idx",
					"type": "uint256"
				}
			],
			"name": "doVote",
			"outputs": [],
			"stateMutability": "nonpayable",
			"type": "function"
		},
		{
			"inputs": [],
			"name": "getMax",
			"outputs": [
				{
					"components": [
						{
							"internalType": "string",
							"name": "title",
							"type": "string"
						},
						{
							"internalType": "uint256",
							"name": "count",
							"type": "uint256"
						}
					],
					"internalType": "struct Event.Vote",
					"name": "vote",
					"type": "tuple"
				}
			],
			"stateMutability": "nonpayable",
			"type": "function"
		}
	]
}