{
	"data": {
		"bytecode": {
			"linkReferences": {},
			"object": "6080604052348015600e575f80fd5b506103fb8061001c5f395ff3fe608060405234801561000f575f80fd5b5060043610610085575f3560e01c806347799da81161005857806347799da8146101035780637cd380f11461010b5780639507d39a1461013d578063de8fa43114610150575f80fd5b80630cb6aaf11461008957806327e235e3146100b95780633825d828146100e65780633df4ddf4146100fb575b5f80fd5b61009c610097366004610312565b610158565b6040516001600160a01b0390911681526020015b60405180910390f35b6100d86100c7366004610344565b5f6020819052908152604090205481565b6040519081526020016100b0565b6100f96100f4366004610364565b610180565b005b6100d8610222565b6100d8610261565b61012d610119366004610344565b60016020525f908152604090205460ff1681565b60405190151581526020016100b0565b6100d861014b366004610312565b610288565b6002546100d8565b60028181548110610167575f80fd5b5f918252602090912001546001600160a01b0316905081565b6001600160a01b0382165f90815260208181526040808320849055600190915290205460ff166101d0576001600160a01b0382165f908152600160208190526040909120805460ff191690911790555b50600280546001810182555f919091527f405787fa12a823e0f2b7631cc41b3ba8828b3321ca811111fa75cd3aa3bb5ace0180546001600160a01b0319166001600160a01b0392909216919091179055565b5f805f60025f815481106102385761023861038c565b5f9182526020808320909101546001600160a01b03168352820192909252604001902054919050565b5f805f6002600160028054905061027891906103a0565b815481106102385761023861038c565b6002545f9082108015610299575060015b6102d35760405162461bcd60e51b815260206004820152600760248201526634b23c1032b93960c91b604482015260640160405180910390fd5b5f80600284815481106102e8576102e861038c565b5f9182526020808320909101546001600160a01b0316835282019290925260400190205492915050565b5f60208284031215610322575f80fd5b5035919050565b80356001600160a01b038116811461033f575f80fd5b919050565b5f60208284031215610354575f80fd5b61035d82610329565b9392505050565b5f8060408385031215610375575f80fd5b61037e83610329565b946020939093013593505050565b634e487b7160e01b5f52603260045260245ffd5b818103818111156103bf57634e487b7160e01b5f52601160045260245ffd5b9291505056fea26469706673582212201d6ace23d47cb0bdd9dd0a3b0e79e7f9fa42aeb21798abd8320744f23f9a4a7364736f6c634300081a0033",
			"opcodes": "PUSH1 0x80 PUSH1 0x40 MSTORE CALLVALUE DUP1 ISZERO PUSH1 0xE JUMPI PUSH0 DUP1 REVERT JUMPDEST POP PUSH2 0x3FB DUP1 PUSH2 0x1C PUSH0 CODECOPY PUSH0 RETURN INVALID PUSH1 0x80 PUSH1 0x40 MSTORE CALLVALUE DUP1 ISZERO PUSH2 0xF JUMPI PUSH0 DUP1 REVERT JUMPDEST POP PUSH1 0x4 CALLDATASIZE LT PUSH2 0x85 JUMPI PUSH0 CALLDATALOAD PUSH1 0xE0 SHR DUP1 PUSH4 0x47799DA8 GT PUSH2 0x58 JUMPI DUP1 PUSH4 0x47799DA8 EQ PUSH2 0x103 JUMPI DUP1 PUSH4 0x7CD380F1 EQ PUSH2 0x10B JUMPI DUP1 PUSH4 0x9507D39A EQ PUSH2 0x13D JUMPI DUP1 PUSH4 0xDE8FA431 EQ PUSH2 0x150 JUMPI PUSH0 DUP1 REVERT JUMPDEST DUP1 PUSH4 0xCB6AAF1 EQ PUSH2 0x89 JUMPI DUP1 PUSH4 0x27E235E3 EQ PUSH2 0xB9 JUMPI DUP1 PUSH4 0x3825D828 EQ PUSH2 0xE6 JUMPI DUP1 PUSH4 0x3DF4DDF4 EQ PUSH2 0xFB JUMPI JUMPDEST PUSH0 DUP1 REVERT JUMPDEST PUSH2 0x9C PUSH2 0x97 CALLDATASIZE PUSH1 0x4 PUSH2 0x312 JUMP JUMPDEST PUSH2 0x158 JUMP JUMPDEST PUSH1 0x40 MLOAD PUSH1 0x1 PUSH1 0x1 PUSH1 0xA0 SHL SUB SWAP1 SWAP2 AND DUP2 MSTORE PUSH1 0x20 ADD JUMPDEST PUSH1 0x40 MLOAD DUP1 SWAP2 SUB SWAP1 RETURN JUMPDEST PUSH2 0xD8 PUSH2 0xC7 CALLDATASIZE PUSH1 0x4 PUSH2 0x344 JUMP JUMPDEST PUSH0 PUSH1 0x20 DUP2 SWAP1 MSTORE SWAP1 DUP2 MSTORE PUSH1 0x40 SWAP1 KECCAK256 SLOAD DUP2 JUMP JUMPDEST PUSH1 0x40 MLOAD SWAP1 DUP2 MSTORE PUSH1 0x20 ADD PUSH2 0xB0 JUMP JUMPDEST PUSH2 0xF9 PUSH2 0xF4 CALLDATASIZE PUSH1 0x4 PUSH2 0x364 JUMP JUMPDEST PUSH2 0x180 JUMP JUMPDEST STOP JUMPDEST PUSH2 0xD8 PUSH2 0x222 JUMP JUMPDEST PUSH2 0xD8 PUSH2 0x261 JUMP JUMPDEST PUSH2 0x12D PUSH2 0x119 CALLDATASIZE PUSH1 0x4 PUSH2 0x344 JUMP JUMPDEST PUSH1 0x1 PUSH1 0x20 MSTORE PUSH0 SWAP1 DUP2 MSTORE PUSH1 0x40 SWAP1 KECCAK256 SLOAD PUSH1 0xFF AND DUP2 JUMP JUMPDEST PUSH1 0x40 MLOAD SWAP1 ISZERO ISZERO DUP2 MSTORE PUSH1 0x20 ADD PUSH2 0xB0 JUMP JUMPDEST PUSH2 0xD8 PUSH2 0x14B CALLDATASIZE PUSH1 0x4 PUSH2 0x312 JUMP JUMPDEST PUSH2 0x288 JUMP JUMPDEST PUSH1 0x2 SLOAD PUSH2 0xD8 JUMP JUMPDEST PUSH1 0x2 DUP2 DUP2 SLOAD DUP2 LT PUSH2 0x167 JUMPI PUSH0 DUP1 REVERT JUMPDEST PUSH0 SWAP2 DUP3 MSTORE PUSH1 0x20 SWAP1 SWAP2 KECCAK256 ADD SLOAD PUSH1 0x1 PUSH1 0x1 PUSH1 0xA0 SHL SUB AND SWAP1 POP DUP2 JUMP JUMPDEST PUSH1 0x1 PUSH1 0x1 PUSH1 0xA0 SHL SUB DUP3 AND PUSH0 SWAP1 DUP2 MSTORE PUSH1 0x20 DUP2 DUP2 MSTORE PUSH1 0x40 DUP1 DUP4 KECCAK256 DUP5 SWAP1 SSTORE PUSH1 0x1 SWAP1 SWAP2 MSTORE SWAP1 KECCAK256 SLOAD PUSH1 0xFF AND PUSH2 0x1D0 JUMPI PUSH1 0x1 PUSH1 0x1 PUSH1 0xA0 SHL SUB DUP3 AND PUSH0 SWAP1 DUP2 MSTORE PUSH1 0x1 PUSH1 0x20 DUP2 SWAP1 MSTORE PUSH1 0x40 SWAP1 SWAP2 KECCAK256 DUP1 SLOAD PUSH1 0xFF NOT AND SWAP1 SWAP2 OR SWAP1 SSTORE JUMPDEST POP PUSH1 0x2 DUP1 SLOAD PUSH1 0x1 DUP2 ADD DUP3 SSTORE PUSH0 SWAP2 SWAP1 SWAP2 MSTORE PUSH32 0x405787FA12A823E0F2B7631CC41B3BA8828B3321CA811111FA75CD3AA3BB5ACE ADD DUP1 SLOAD PUSH1 0x1 PUSH1 0x1 PUSH1 0xA0 SHL SUB NOT AND PUSH1 0x1 PUSH1 0x1 PUSH1 0xA0 SHL SUB SWAP3 SWAP1 SWAP3 AND SWAP2 SWAP1 SWAP2 OR SWAP1 SSTORE JUMP JUMPDEST PUSH0 DUP1 PUSH0 PUSH1 0x2 PUSH0 DUP2 SLOAD DUP2 LT PUSH2 0x238 JUMPI PUSH2 0x238 PUSH2 0x38C JUMP JUMPDEST PUSH0 SWAP2 DUP3 MSTORE PUSH1 0x20 DUP1 DUP4 KECCAK256 SWAP1 SWAP2 ADD SLOAD PUSH1 0x1 PUSH1 0x1 PUSH1 0xA0 SHL SUB AND DUP4 MSTORE DUP3 ADD SWAP3 SWAP1 SWAP3 MSTORE PUSH1 0x40 ADD SWAP1 KECCAK256 SLOAD SWAP2 SWAP1 POP JUMP JUMPDEST PUSH0 DUP1 PUSH0 PUSH1 0x2 PUSH1 0x1 PUSH1 0x2 DUP1 SLOAD SWAP1 POP PUSH2 0x278 SWAP2 SWAP1 PUSH2 0x3A0 JUMP JUMPDEST DUP2 SLOAD DUP2 LT PUSH2 0x238 JUMPI PUSH2 0x238 PUSH2 0x38C JUMP JUMPDEST PUSH1 0x2 SLOAD PUSH0 SWAP1 DUP3 LT DUP1 ISZERO PUSH2 0x299 JUMPI POP PUSH1 0x1 JUMPDEST PUSH2 0x2D3 JUMPI PUSH1 0x40 MLOAD PUSH3 0x461BCD PUSH1 0xE5 SHL DUP2 MSTORE PUSH1 0x20 PUSH1 0x4 DUP3 ADD MSTORE PUSH1 0x7 PUSH1 0x24 DUP3 ADD MSTORE PUSH7 0x34B23C1032B939 PUSH1 0xC9 SHL PUSH1 0x44 DUP3 ADD MSTORE PUSH1 0x64 ADD PUSH1 0x40 MLOAD DUP1 SWAP2 SUB SWAP1 REVERT JUMPDEST PUSH0 DUP1 PUSH1 0x2 DUP5 DUP2 SLOAD DUP2 LT PUSH2 0x2E8 JUMPI PUSH2 0x2E8 PUSH2 0x38C JUMP JUMPDEST PUSH0 SWAP2 DUP3 MSTORE PUSH1 0x20 DUP1 DUP4 KECCAK256 SWAP1 SWAP2 ADD SLOAD PUSH1 0x1 PUSH1 0x1 PUSH1 0xA0 SHL SUB AND DUP4 MSTORE DUP3 ADD SWAP3 SWAP1 SWAP3 MSTORE PUSH1 0x40 ADD SWAP1 KECCAK256 SLOAD SWAP3 SWAP2 POP POP JUMP JUMPDEST PUSH0 PUSH1 0x20 DUP3 DUP5 SUB SLT ISZERO PUSH2 0x322 JUMPI PUSH0 DUP1 REVERT JUMPDEST POP CALLDATALOAD SWAP2 SWAP1 POP JUMP JUMPDEST DUP1 CALLDATALOAD PUSH1 0x1 PUSH1 0x1 PUSH1 0xA0 SHL SUB DUP2 AND DUP2 EQ PUSH2 0x33F JUMPI PUSH0 DUP1 REVERT JUMPDEST SWAP2 SWAP1 POP JUMP JUMPDEST PUSH0 PUSH1 0x20 DUP3 DUP5 SUB SLT ISZERO PUSH2 0x354 JUMPI PUSH0 DUP1 REVERT JUMPDEST PUSH2 0x35D DUP3 PUSH2 0x329 JUMP JUMPDEST SWAP4 SWAP3 POP POP POP JUMP JUMPDEST PUSH0 DUP1 PUSH1 0x40 DUP4 DUP6 SUB SLT ISZERO PUSH2 0x375 JUMPI PUSH0 DUP1 REVERT JUMPDEST PUSH2 0x37E DUP4 PUSH2 0x329 JUMP JUMPDEST SWAP5 PUSH1 0x20 SWAP4 SWAP1 SWAP4 ADD CALLDATALOAD SWAP4 POP POP POP JUMP JUMPDEST PUSH4 0x4E487B71 PUSH1 0xE0 SHL PUSH0 MSTORE PUSH1 0x32 PUSH1 0x4 MSTORE PUSH1 0x24 PUSH0 REVERT JUMPDEST DUP2 DUP2 SUB DUP2 DUP2 GT ISZERO PUSH2 0x3BF JUMPI PUSH4 0x4E487B71 PUSH1 0xE0 SHL PUSH0 MSTORE PUSH1 0x11 PUSH1 0x4 MSTORE PUSH1 0x24 PUSH0 REVERT JUMPDEST SWAP3 SWAP2 POP POP JUMP INVALID LOG2 PUSH5 0x6970667358 0x22 SLT KECCAK256 SAR PUSH11 0xCE23D47CB0BDD9DD0A3B0E PUSH26 0xE7F9FA42AEB21798ABD8320744F23F9A4A7364736F6C63430008 BYTE STOP CALLER "
		},
		"gasEstimates": {
			"creation": {
				"codeDepositCost": "203800",
				"executionCost": "243",
				"totalCost": "204043"
			},
			"external": {
				"balances(address)": "2542",
				"first()": "6768",
				"get(uint256)": "8975",
				"getSize()": "2357",
				"inserted(address)": "2550",
				"keys(uint256)": "4601",
				"last()": "8888",
				"set(address,uint256)": "97572"
			}
		},
		"methodIdentifiers": {
			"balances(address)": "27e235e3",
			"first()": "3df4ddf4",
			"get(uint256)": "9507d39a",
			"getSize()": "de8fa431",
			"inserted(address)": "7cd380f1",
			"keys(uint256)": "0cb6aaf1",
			"last()": "47799da8",
			"set(address,uint256)": "3825d828"
		}
	},
	"abi": [
		{
			"inputs": [
				{
					"internalType": "address",
					"name": "",
					"type": "address"
				}
			],
			"name": "balances",
			"outputs": [
				{
					"internalType": "uint256",
					"name": "",
					"type": "uint256"
				}
			],
			"stateMutability": "view",
			"type": "function"
		},
		{
			"inputs": [],
			"name": "first",
			"outputs": [
				{
					"internalType": "uint256",
					"name": "",
					"type": "uint256"
				}
			],
			"stateMutability": "view",
			"type": "function"
		},
		{
			"inputs": [
				{
					"internalType": "uint256",
					"name": "idx",
					"type": "uint256"
				}
			],
			"name": "get",
			"outputs": [
				{
					"internalType": "uint256",
					"name": "",
					"type": "uint256"
				}
			],
			"stateMutability": "view",
			"type": "function"
		},
		{
			"inputs": [],
			"name": "getSize",
			"outputs": [
				{
					"internalType": "uint256",
					"name": "",
					"type": "uint256"
				}
			],
			"stateMutability": "view",
			"type": "function"
		},
		{
			"inputs": [
				{
					"internalType": "address",
					"name": "",
					"type": "address"
				}
			],
			"name": "inserted",
			"outputs": [
				{
					"internalType": "bool",
					"name": "",
					"type": "bool"
				}
			],
			"stateMutability": "view",
			"type": "function"
		},
		{
			"inputs": [
				{
					"internalType": "uint256",
					"name": "",
					"type": "uint256"
				}
			],
			"name": "keys",
			"outputs": [
				{
					"internalType": "address",
					"name": "",
					"type": "address"
				}
			],
			"stateMutability": "view",
			"type": "function"
		},
		{
			"inputs": [],
			"name": "last",
			"outputs": [
				{
					"internalType": "uint256",
					"name": "",
					"type": "uint256"
				}
			],
			"stateMutability": "view",
			"type": "function"
		},
		{
			"inputs": [
				{
					"internalType": "address",
					"name": "_addr",
					"type": "address"
				},
				{
					"internalType": "uint256",
					"name": "_val",
					"type": "uint256"
				}
			],
			"name": "set",
			"outputs": [],
			"stateMutability": "nonpayable",
			"type": "function"
		}
	]
}