{
	"data": {
		"bytecode": {
			"linkReferences": {},
			"object": "6080604052348015600e575f80fd5b506104578061001c5f395ff3fe608060405234801561000f575f80fd5b506004361061007a575f3560e01c8063c105731d11610058578063c105731d146100dd578063c44b682f146100f0578063f419df7214610103578063f8a8fd6d14610116575f80fd5b8063244f643b1461007e5780639507d39a14610093578063a85c38ef146100bc575b5f80fd5b61009161008c3660046102d9565b61011e565b005b6100a66100a13660046102d9565b610164565b6040516100b39190610324565b60405180910390f35b6100cf6100ca3660046102d9565b610192565b6040516100b3929190610338565b6100916100eb36600461036f565b6101c4565b6100916100fe3660046102d9565b610249565b6100916101113660046103e3565b610273565b6100916102b9565b60025f82815481106101325761013261040d565b5f918252602090912001805460ff60a01b1916600160a01b83600581111561015c5761015c6102f0565b021790555050565b5f8082815481106101775761017761040d565b5f91825260209091200154600160a01b900460ff1692915050565b5f81815481106101a0575f80fd5b5f918252602090912001546001600160a01b0381169150600160a01b900460ff1682565b5f805460018101825590805281517f290decd9548b62a8d60345a988386fc84ba6bc95484008f6362f93160ef3e56390910180546001600160a01b039092166001600160a01b031983168117825560208401518493909183916001600160a81b03191617600160a01b83600581111561023f5761023f6102f0565b0217905550505050565b5f818154811061025b5761025b61040d565b5f918252602090912001805460ff60a01b1916905550565b805f83815481106102865761028661040d565b5f918252602090912001805460ff60a01b1916600160a01b8360058111156102b0576102b06102f0565b02179055505050565b60408051808201909152338152600160208201526102d6816101c4565b50565b5f602082840312156102e9575f80fd5b5035919050565b634e487b7160e01b5f52602160045260245ffd5b6006811061032057634e487b7160e01b5f52602160045260245ffd5b9052565b602081016103328284610304565b92915050565b6001600160a01b0383168152604081016103556020830184610304565b9392505050565b80356006811061036a575f80fd5b919050565b5f6040828403128015610380575f80fd5b506040805190810167ffffffffffffffff811182821017156103b057634e487b7160e01b5f52604160045260245ffd5b60405282356001600160a01b03811681146103c9575f80fd5b81526103d76020840161035c565b60208201529392505050565b5f80604083850312156103f4575f80fd5b823591506104046020840161035c565b90509250929050565b634e487b7160e01b5f52603260045260245ffdfea2646970667358221220b8660c687ceffe0e6984f1c1301e181ec2cfb87639db313b8ef3a49f6cf6cdfa64736f6c634300081a0033",
			"opcodes": "PUSH1 0x80 PUSH1 0x40 MSTORE CALLVALUE DUP1 ISZERO PUSH1 0xE JUMPI PUSH0 DUP1 REVERT JUMPDEST POP PUSH2 0x457 DUP1 PUSH2 0x1C PUSH0 CODECOPY PUSH0 RETURN INVALID PUSH1 0x80 PUSH1 0x40 MSTORE CALLVALUE DUP1 ISZERO PUSH2 0xF JUMPI PUSH0 DUP1 REVERT JUMPDEST POP PUSH1 0x4 CALLDATASIZE LT PUSH2 0x7A JUMPI PUSH0 CALLDATALOAD PUSH1 0xE0 SHR DUP1 PUSH4 0xC105731D GT PUSH2 0x58 JUMPI DUP1 PUSH4 0xC105731D EQ PUSH2 0xDD JUMPI DUP1 PUSH4 0xC44B682F EQ PUSH2 0xF0 JUMPI DUP1 PUSH4 0xF419DF72 EQ PUSH2 0x103 JUMPI DUP1 PUSH4 0xF8A8FD6D EQ PUSH2 0x116 JUMPI PUSH0 DUP1 REVERT JUMPDEST DUP1 PUSH4 0x244F643B EQ PUSH2 0x7E JUMPI DUP1 PUSH4 0x9507D39A EQ PUSH2 0x93 JUMPI DUP1 PUSH4 0xA85C38EF EQ PUSH2 0xBC JUMPI JUMPDEST PUSH0 DUP1 REVERT JUMPDEST PUSH2 0x91 PUSH2 0x8C CALLDATASIZE PUSH1 0x4 PUSH2 0x2D9 JUMP JUMPDEST PUSH2 0x11E JUMP JUMPDEST STOP JUMPDEST PUSH2 0xA6 PUSH2 0xA1 CALLDATASIZE PUSH1 0x4 PUSH2 0x2D9 JUMP JUMPDEST PUSH2 0x164 JUMP JUMPDEST PUSH1 0x40 MLOAD PUSH2 0xB3 SWAP2 SWAP1 PUSH2 0x324 JUMP JUMPDEST PUSH1 0x40 MLOAD DUP1 SWAP2 SUB SWAP1 RETURN JUMPDEST PUSH2 0xCF PUSH2 0xCA CALLDATASIZE PUSH1 0x4 PUSH2 0x2D9 JUMP JUMPDEST PUSH2 0x192 JUMP JUMPDEST PUSH1 0x40 MLOAD PUSH2 0xB3 SWAP3 SWAP2 SWAP1 PUSH2 0x338 JUMP JUMPDEST PUSH2 0x91 PUSH2 0xEB CALLDATASIZE PUSH1 0x4 PUSH2 0x36F JUMP JUMPDEST PUSH2 0x1C4 JUMP JUMPDEST PUSH2 0x91 PUSH2 0xFE CALLDATASIZE PUSH1 0x4 PUSH2 0x2D9 JUMP JUMPDEST PUSH2 0x249 JUMP JUMPDEST PUSH2 0x91 PUSH2 0x111 CALLDATASIZE PUSH1 0x4 PUSH2 0x3E3 JUMP JUMPDEST PUSH2 0x273 JUMP JUMPDEST PUSH2 0x91 PUSH2 0x2B9 JUMP JUMPDEST PUSH1 0x2 PUSH0 DUP3 DUP2 SLOAD DUP2 LT PUSH2 0x132 JUMPI PUSH2 0x132 PUSH2 0x40D JUMP JUMPDEST PUSH0 SWAP2 DUP3 MSTORE PUSH1 0x20 SWAP1 SWAP2 KECCAK256 ADD DUP1 SLOAD PUSH1 0xFF PUSH1 0xA0 SHL NOT AND PUSH1 0x1 PUSH1 0xA0 SHL DUP4 PUSH1 0x5 DUP2 GT ISZERO PUSH2 0x15C JUMPI PUSH2 0x15C PUSH2 0x2F0 JUMP JUMPDEST MUL OR SWAP1 SSTORE POP POP JUMP JUMPDEST PUSH0 DUP1 DUP3 DUP2 SLOAD DUP2 LT PUSH2 0x177 JUMPI PUSH2 0x177 PUSH2 0x40D JUMP JUMPDEST PUSH0 SWAP2 DUP3 MSTORE PUSH1 0x20 SWAP1 SWAP2 KECCAK256 ADD SLOAD PUSH1 0x1 PUSH1 0xA0 SHL SWAP1 DIV PUSH1 0xFF AND SWAP3 SWAP2 POP POP JUMP JUMPDEST PUSH0 DUP2 DUP2 SLOAD DUP2 LT PUSH2 0x1A0 JUMPI PUSH0 DUP1 REVERT JUMPDEST PUSH0 SWAP2 DUP3 MSTORE PUSH1 0x20 SWAP1 SWAP2 KECCAK256 ADD SLOAD PUSH1 0x1 PUSH1 0x1 PUSH1 0xA0 SHL SUB DUP2 AND SWAP2 POP PUSH1 0x1 PUSH1 0xA0 SHL SWAP1 DIV PUSH1 0xFF AND DUP3 JUMP JUMPDEST PUSH0 DUP1 SLOAD PUSH1 0x1 DUP2 ADD DUP3 SSTORE SWAP1 DUP1 MSTORE DUP2 MLOAD PUSH32 0x290DECD9548B62A8D60345A988386FC84BA6BC95484008F6362F93160EF3E563 SWAP1 SWAP2 ADD DUP1 SLOAD PUSH1 0x1 PUSH1 0x1 PUSH1 0xA0 SHL SUB SWAP1 SWAP3 AND PUSH1 0x1 PUSH1 0x1 PUSH1 0xA0 SHL SUB NOT DUP4 AND DUP2 OR DUP3 SSTORE PUSH1 0x20 DUP5 ADD MLOAD DUP5 SWAP4 SWAP1 SWAP2 DUP4 SWAP2 PUSH1 0x1 PUSH1 0x1 PUSH1 0xA8 SHL SUB NOT AND OR PUSH1 0x1 PUSH1 0xA0 SHL DUP4 PUSH1 0x5 DUP2 GT ISZERO PUSH2 0x23F JUMPI PUSH2 0x23F PUSH2 0x2F0 JUMP JUMPDEST MUL OR SWAP1 SSTORE POP POP POP POP JUMP JUMPDEST PUSH0 DUP2 DUP2 SLOAD DUP2 LT PUSH2 0x25B JUMPI PUSH2 0x25B PUSH2 0x40D JUMP JUMPDEST PUSH0 SWAP2 DUP3 MSTORE PUSH1 0x20 SWAP1 SWAP2 KECCAK256 ADD DUP1 SLOAD PUSH1 0xFF PUSH1 0xA0 SHL NOT AND SWAP1 SSTORE POP JUMP JUMPDEST DUP1 PUSH0 DUP4 DUP2 SLOAD DUP2 LT PUSH2 0x286 JUMPI PUSH2 0x286 PUSH2 0x40D JUMP JUMPDEST PUSH0 SWAP2 DUP3 MSTORE PUSH1 0x20 SWAP1 SWAP2 KECCAK256 ADD DUP1 SLOAD PUSH1 0xFF PUSH1 0xA0 SHL NOT AND PUSH1 0x1 PUSH1 0xA0 SHL DUP4 PUSH1 0x5 DUP2 GT ISZERO PUSH2 0x2B0 JUMPI PUSH2 0x2B0 PUSH2 0x2F0 JUMP JUMPDEST MUL OR SWAP1 SSTORE POP POP POP JUMP JUMPDEST PUSH1 0x40 DUP1 MLOAD DUP1 DUP3 ADD SWAP1 SWAP2 MSTORE CALLER DUP2 MSTORE PUSH1 0x1 PUSH1 0x20 DUP3 ADD MSTORE PUSH2 0x2D6 DUP2 PUSH2 0x1C4 JUMP JUMPDEST POP JUMP JUMPDEST PUSH0 PUSH1 0x20 DUP3 DUP5 SUB SLT ISZERO PUSH2 0x2E9 JUMPI PUSH0 DUP1 REVERT JUMPDEST POP CALLDATALOAD SWAP2 SWAP1 POP JUMP JUMPDEST PUSH4 0x4E487B71 PUSH1 0xE0 SHL PUSH0 MSTORE PUSH1 0x21 PUSH1 0x4 MSTORE PUSH1 0x24 PUSH0 REVERT JUMPDEST PUSH1 0x6 DUP2 LT PUSH2 0x320 JUMPI PUSH4 0x4E487B71 PUSH1 0xE0 SHL PUSH0 MSTORE PUSH1 0x21 PUSH1 0x4 MSTORE PUSH1 0x24 PUSH0 REVERT JUMPDEST SWAP1 MSTORE JUMP JUMPDEST PUSH1 0x20 DUP2 ADD PUSH2 0x332 DUP3 DUP5 PUSH2 0x304 JUMP JUMPDEST SWAP3 SWAP2 POP POP JUMP JUMPDEST PUSH1 0x1 PUSH1 0x1 PUSH1 0xA0 SHL SUB DUP4 AND DUP2 MSTORE PUSH1 0x40 DUP2 ADD PUSH2 0x355 PUSH1 0x20 DUP4 ADD DUP5 PUSH2 0x304 JUMP JUMPDEST SWAP4 SWAP3 POP POP POP JUMP JUMPDEST DUP1 CALLDATALOAD PUSH1 0x6 DUP2 LT PUSH2 0x36A JUMPI PUSH0 DUP1 REVERT JUMPDEST SWAP2 SWAP1 POP JUMP JUMPDEST PUSH0 PUSH1 0x40 DUP3 DUP5 SUB SLT DUP1 ISZERO PUSH2 0x380 JUMPI PUSH0 DUP1 REVERT JUMPDEST POP PUSH1 0x40 DUP1 MLOAD SWAP1 DUP2 ADD PUSH8 0xFFFFFFFFFFFFFFFF DUP2 GT DUP3 DUP3 LT OR ISZERO PUSH2 0x3B0 JUMPI PUSH4 0x4E487B71 PUSH1 0xE0 SHL PUSH0 MSTORE PUSH1 0x41 PUSH1 0x4 MSTORE PUSH1 0x24 PUSH0 REVERT JUMPDEST PUSH1 0x40 MSTORE DUP3 CALLDATALOAD PUSH1 0x1 PUSH1 0x1 PUSH1 0xA0 SHL SUB DUP2 AND DUP2 EQ PUSH2 0x3C9 JUMPI PUSH0 DUP1 REVERT JUMPDEST DUP2 MSTORE PUSH2 0x3D7 PUSH1 0x20 DUP5 ADD PUSH2 0x35C JUMP JUMPDEST PUSH1 0x20 DUP3 ADD MSTORE SWAP4 SWAP3 POP POP POP JUMP JUMPDEST PUSH0 DUP1 PUSH1 0x40 DUP4 DUP6 SUB SLT ISZERO PUSH2 0x3F4 JUMPI PUSH0 DUP1 REVERT JUMPDEST DUP3 CALLDATALOAD SWAP2 POP PUSH2 0x404 PUSH1 0x20 DUP5 ADD PUSH2 0x35C JUMP JUMPDEST SWAP1 POP SWAP3 POP SWAP3 SWAP1 POP JUMP JUMPDEST PUSH4 0x4E487B71 PUSH1 0xE0 SHL PUSH0 MSTORE PUSH1 0x32 PUSH1 0x4 MSTORE PUSH1 0x24 PUSH0 REVERT INVALID LOG2 PUSH5 0x6970667358 0x22 SLT KECCAK256 0xB8 PUSH7 0xC687CEFFE0E69 DUP5 CALL 0xC1 ADDRESS 0x1E XOR 0x1E 0xC2 0xCF 0xB8 PUSH23 0x39DB313B8EF3A49F6CF6CDFA64736F6C634300081A0033 "
		},
		"gasEstimates": {
			"creation": {
				"codeDepositCost": "222200",
				"executionCost": "261",
				"totalCost": "222461"
			},
			"external": {
				"add((address,uint8))": "71144",
				"get(uint256)": "4703",
				"orders(uint256)": "4782",
				"reSet(uint256)": "26651",
				"set(uint256,uint8)": "26815",
				"ship(uint256)": "26681",
				"test()": "71012"
			}
		},
		"methodIdentifiers": {
			"add((address,uint8))": "c105731d",
			"get(uint256)": "9507d39a",
			"orders(uint256)": "a85c38ef",
			"reSet(uint256)": "c44b682f",
			"set(uint256,uint8)": "f419df72",
			"ship(uint256)": "244f643b",
			"test()": "f8a8fd6d"
		}
	},
	"abi": [
		{
			"inputs": [
				{
					"components": [
						{
							"internalType": "address",
							"name": "buyer",
							"type": "address"
						},
						{
							"internalType": "enum OrderDemo.OrderStatus",
							"name": "status",
							"type": "uint8"
						}
					],
					"internalType": "struct OrderDemo.Order",
					"name": "_order",
					"type": "tuple"
				}
			],
			"name": "add",
			"outputs": [],
			"stateMutability": "nonpayable",
			"type": "function"
		},
		{
			"inputs": [
				{
					"internalType": "uint256",
					"name": "idx",
					"type": "uint256"
				}
			],
			"name": "get",
			"outputs": [
				{
					"internalType": "enum OrderDemo.OrderStatus",
					"name": "",
					"type": "uint8"
				}
			],
			"stateMutability": "view",
			"type": "function"
		},
		{
			"inputs": [
				{
					"internalType": "uint256",
					"name": "",
					"type": "uint256"
				}
			],
			"name": "orders",
			"outputs": [
				{
					"internalType": "address",
					"name": "buyer",
					"type": "address"
				},
				{
					"internalType": "enum OrderDemo.OrderStatus",
					"name": "status",
					"type": "uint8"
				}
			],
			"stateMutability": "view",
			"type": "function"
		},
		{
			"inputs": [
				{
					"internalType": "uint256",
					"name": "idx",
					"type": "uint256"
				}
			],
			"name": "reSet",
			"outputs": [],
			"stateMutability": "nonpayable",
			"type": "function"
		},
		{
			"inputs": [
				{
					"internalType": "uint256",
					"name": "idx",
					"type": "uint256"
				},
				{
					"internalType": "enum OrderDemo.OrderStatus",
					"name": "status",
					"type": "uint8"
				}
			],
			"name": "set",
			"outputs": [],
			"stateMutability": "nonpayable",
			"type": "function"
		},
		{
			"inputs": [
				{
					"internalType": "uint256",
					"name": "idx",
					"type": "uint256"
				}
			],
			"name": "ship",
			"outputs": [],
			"stateMutability": "nonpayable",
			"type": "function"
		},
		{
			"inputs": [],
			"name": "test",
			"outputs": [],
			"stateMutability": "nonpayable",
			"type": "function"
		}
	]
}