{
	"data": {
		"bytecode": {
			"linkReferences": {},
			"object": "6080604052348015600e575f80fd5b5061028d8061001c5f395ff3fe608060405234801561000f575f80fd5b506004361061003f575f3560e01c80634347dbb014610043578063a5aff9031461006c578063e4ab46cd14610074575b5f80fd5b61005661005136600461011e565b6100a3565b6040516100639190610135565b60405180910390f35b6100566100e8565b6100566040805160048152602481019091526020810180516001600160e01b0316631b53398f60e21b17905290565b6060816040516024016100b891815260200190565b60408051601f198184030181529190526020810180516001600160e01b03166360fe47b160e01b17905292915050565b6060604051806020016100fa90610112565b601f1982820381018352601f90910116604052919050565b60ed8061016b83390190565b5f6020828403121561012e575f80fd5b5035919050565b602081525f82518060208401528060208501604085015e5f604082850101526040601f19601f8301168401019150509291505056fe60806040525f80546001600160a01b03191633179055348015601f575f80fd5b50606460015560bd8060305f395ff3fe6080604052348015600e575f80fd5b5060043610603a575f3560e01c80634e70b1dc14603e57806360fe47b11460585780636d4ce63c14606a575b5f80fd5b604660015481565b60405190815260200160405180910390f35b606860633660046071565b600155565b005b6001546046565b5f602082840312156080575f80fd5b503591905056fea26469706673582212209fcfc5c4427af73958f524d8767611944340dd94c2fd71a36be2102160f4b6ba64736f6c634300081a0033a2646970667358221220482e213b5bd80e416ae8caf9b3ed995aa937efc5248a25dddafa3032dc08caf064736f6c634300081a0033",
			"opcodes": "PUSH1 0x80 PUSH1 0x40 MSTORE CALLVALUE DUP1 ISZERO PUSH1 0xE JUMPI PUSH0 DUP1 REVERT JUMPDEST POP PUSH2 0x28D DUP1 PUSH2 0x1C PUSH0 CODECOPY PUSH0 RETURN INVALID PUSH1 0x80 PUSH1 0x40 MSTORE CALLVALUE DUP1 ISZERO PUSH2 0xF JUMPI PUSH0 DUP1 REVERT JUMPDEST POP PUSH1 0x4 CALLDATASIZE LT PUSH2 0x3F JUMPI PUSH0 CALLDATALOAD PUSH1 0xE0 SHR DUP1 PUSH4 0x4347DBB0 EQ PUSH2 0x43 JUMPI DUP1 PUSH4 0xA5AFF903 EQ PUSH2 0x6C JUMPI DUP1 PUSH4 0xE4AB46CD EQ PUSH2 0x74 JUMPI JUMPDEST PUSH0 DUP1 REVERT JUMPDEST PUSH2 0x56 PUSH2 0x51 CALLDATASIZE PUSH1 0x4 PUSH2 0x11E JUMP JUMPDEST PUSH2 0xA3 JUMP JUMPDEST PUSH1 0x40 MLOAD PUSH2 0x63 SWAP2 SWAP1 PUSH2 0x135 JUMP JUMPDEST PUSH1 0x40 MLOAD DUP1 SWAP2 SUB SWAP1 RETURN JUMPDEST PUSH2 0x56 PUSH2 0xE8 JUMP JUMPDEST PUSH2 0x56 PUSH1 0x40 DUP1 MLOAD PUSH1 0x4 DUP2 MSTORE PUSH1 0x24 DUP2 ADD SWAP1 SWAP2 MSTORE PUSH1 0x20 DUP2 ADD DUP1 MLOAD PUSH1 0x1 PUSH1 0x1 PUSH1 0xE0 SHL SUB AND PUSH4 0x1B53398F PUSH1 0xE2 SHL OR SWAP1 MSTORE SWAP1 JUMP JUMPDEST PUSH1 0x60 DUP2 PUSH1 0x40 MLOAD PUSH1 0x24 ADD PUSH2 0xB8 SWAP2 DUP2 MSTORE PUSH1 0x20 ADD SWAP1 JUMP JUMPDEST PUSH1 0x40 DUP1 MLOAD PUSH1 0x1F NOT DUP2 DUP5 SUB ADD DUP2 MSTORE SWAP2 SWAP1 MSTORE PUSH1 0x20 DUP2 ADD DUP1 MLOAD PUSH1 0x1 PUSH1 0x1 PUSH1 0xE0 SHL SUB AND PUSH4 0x60FE47B1 PUSH1 0xE0 SHL OR SWAP1 MSTORE SWAP3 SWAP2 POP POP JUMP JUMPDEST PUSH1 0x60 PUSH1 0x40 MLOAD DUP1 PUSH1 0x20 ADD PUSH2 0xFA SWAP1 PUSH2 0x112 JUMP JUMPDEST PUSH1 0x1F NOT DUP3 DUP3 SUB DUP2 ADD DUP4 MSTORE PUSH1 0x1F SWAP1 SWAP2 ADD AND PUSH1 0x40 MSTORE SWAP2 SWAP1 POP JUMP JUMPDEST PUSH1 0xED DUP1 PUSH2 0x16B DUP4 CODECOPY ADD SWAP1 JUMP JUMPDEST PUSH0 PUSH1 0x20 DUP3 DUP5 SUB SLT ISZERO PUSH2 0x12E JUMPI PUSH0 DUP1 REVERT JUMPDEST POP CALLDATALOAD SWAP2 SWAP1 POP JUMP JUMPDEST PUSH1 0x20 DUP2 MSTORE PUSH0 DUP3 MLOAD DUP1 PUSH1 0x20 DUP5 ADD MSTORE DUP1 PUSH1 0x20 DUP6 ADD PUSH1 0x40 DUP6 ADD MCOPY PUSH0 PUSH1 0x40 DUP3 DUP6 ADD ADD MSTORE PUSH1 0x40 PUSH1 0x1F NOT PUSH1 0x1F DUP4 ADD AND DUP5 ADD ADD SWAP2 POP POP SWAP3 SWAP2 POP POP JUMP INVALID PUSH1 0x80 PUSH1 0x40 MSTORE PUSH0 DUP1 SLOAD PUSH1 0x1 PUSH1 0x1 PUSH1 0xA0 SHL SUB NOT AND CALLER OR SWAP1 SSTORE CALLVALUE DUP1 ISZERO PUSH1 0x1F JUMPI PUSH0 DUP1 REVERT JUMPDEST POP PUSH1 0x64 PUSH1 0x1 SSTORE PUSH1 0xBD DUP1 PUSH1 0x30 PUSH0 CODECOPY PUSH0 RETURN INVALID PUSH1 0x80 PUSH1 0x40 MSTORE CALLVALUE DUP1 ISZERO PUSH1 0xE JUMPI PUSH0 DUP1 REVERT JUMPDEST POP PUSH1 0x4 CALLDATASIZE LT PUSH1 0x3A JUMPI PUSH0 CALLDATALOAD PUSH1 0xE0 SHR DUP1 PUSH4 0x4E70B1DC EQ PUSH1 0x3E JUMPI DUP1 PUSH4 0x60FE47B1 EQ PUSH1 0x58 JUMPI DUP1 PUSH4 0x6D4CE63C EQ PUSH1 0x6A JUMPI JUMPDEST PUSH0 DUP1 REVERT JUMPDEST PUSH1 0x46 PUSH1 0x1 SLOAD DUP2 JUMP JUMPDEST PUSH1 0x40 MLOAD SWAP1 DUP2 MSTORE PUSH1 0x20 ADD PUSH1 0x40 MLOAD DUP1 SWAP2 SUB SWAP1 RETURN JUMPDEST PUSH1 0x68 PUSH1 0x63 CALLDATASIZE PUSH1 0x4 PUSH1 0x71 JUMP JUMPDEST PUSH1 0x1 SSTORE JUMP JUMPDEST STOP JUMPDEST PUSH1 0x1 SLOAD PUSH1 0x46 JUMP JUMPDEST PUSH0 PUSH1 0x20 DUP3 DUP5 SUB SLT ISZERO PUSH1 0x80 JUMPI PUSH0 DUP1 REVERT JUMPDEST POP CALLDATALOAD SWAP2 SWAP1 POP JUMP INVALID LOG2 PUSH5 0x6970667358 0x22 SLT KECCAK256 SWAP16 0xCF 0xC5 0xC4 TIMESTAMP PUSH27 0xF73958F524D8767611944340DD94C2FD71A36BE2102160F4B6BA64 PUSH20 0x6F6C634300081A0033A264697066735822122048 0x2E 0x21 EXTCODESIZE JUMPDEST 0xD8 0xE COINBASE PUSH11 0xE8CAF9B3ED995AA937EFC5 0x24 DUP11 0x25 0xDD 0xDA STATICCALL ADDRESS ORIGIN 0xDC ADDMOD 0xCA CREATE PUSH5 0x736F6C6343 STOP ADDMOD BYTE STOP CALLER "
		},
		"gasEstimates": {
			"creation": {
				"codeDepositCost": "130600",
				"executionCost": "175",
				"totalCost": "130775"
			},
			"external": {
				"getSimpleCode()": "infinite",
				"retGetCode()": "infinite",
				"retSetCode(uint256)": "infinite"
			}
		},
		"methodIdentifiers": {
			"getSimpleCode()": "a5aff903",
			"retGetCode()": "e4ab46cd",
			"retSetCode(uint256)": "4347dbb0"
		}
	},
	"abi": [
		{
			"inputs": [],
			"name": "getSimpleCode",
			"outputs": [
				{
					"internalType": "bytes",
					"name": "",
					"type": "bytes"
				}
			],
			"stateMutability": "pure",
			"type": "function"
		},
		{
			"inputs": [],
			"name": "retGetCode",
			"outputs": [
				{
					"internalType": "bytes",
					"name": "",
					"type": "bytes"
				}
			],
			"stateMutability": "pure",
			"type": "function"
		},
		{
			"inputs": [
				{
					"internalType": "uint256",
					"name": "x",
					"type": "uint256"
				}
			],
			"name": "retSetCode",
			"outputs": [
				{
					"internalType": "bytes",
					"name": "",
					"type": "bytes"
				}
			],
			"stateMutability": "pure",
			"type": "function"
		}
	]
}