{
	"02/SimpleBank.sol": {
		"SimpleBank": {
			"abi": [
				{
					"inputs": [
						{
							"internalType": "address",
							"name": "",
							"type": "address"
						}
					],
					"name": "balances",
					"outputs": [
						{
							"internalType": "uint256",
							"name": "",
							"type": "uint256"
						}
					],
					"stateMutability": "view",
					"type": "function"
				},
				{
					"inputs": [],
					"name": "checkBalance",
					"outputs": [
						{
							"internalType": "uint256",
							"name": "",
							"type": "uint256"
						}
					],
					"stateMutability": "view",
					"type": "function"
				},
				{
					"inputs": [],
					"name": "deposit",
					"outputs": [],
					"stateMutability": "payable",
					"type": "function"
				},
				{
					"inputs": [
						{
							"internalType": "uint256",
							"name": "amount",
							"type": "uint256"
						}
					],
					"name": "withdraw",
					"outputs": [],
					"stateMutability": "nonpayable",
					"type": "function"
				}
			],
			"devdoc": {
				"kind": "dev",
				"methods": {},
				"version": 1
			},
			"evm": {
				"assembly": "    /* \"02/SimpleBank.sol\":57:520  contract SimpleBank{... */\n  mstore(0x40, 0x80)\n  callvalue\n  dup1\n  iszero\n  tag_1\n  jumpi\n  0x00\n  dup1\n  revert\ntag_1:\n  pop\n  dataSize(sub_0)\n  dup1\n  dataOffset(sub_0)\n  0x00\n  codecopy\n  0x00\n  return\nstop\n\nsub_0: assembly {\n        /* \"02/SimpleBank.sol\":57:520  contract SimpleBank{... */\n      mstore(0x40, 0x80)\n      jumpi(tag_1, lt(calldatasize, 0x04))\n      shr(0xe0, calldataload(0x00))\n      dup1\n      0x27e235e3\n      eq\n      tag_2\n      jumpi\n      dup1\n      0x2e1a7d4d\n      eq\n      tag_3\n      jumpi\n      dup1\n      0xc71daccb\n      eq\n      tag_4\n      jumpi\n      dup1\n      0xd0e30db0\n      eq\n      tag_5\n      jumpi\n    tag_1:\n      0x00\n      dup1\n      revert\n        /* \"02/SimpleBank.sol\":82:121  mapping(address=>uint)  public balances */\n    tag_2:\n      callvalue\n      dup1\n      iszero\n      tag_6\n      jumpi\n      0x00\n      dup1\n      revert\n    tag_6:\n      pop\n      tag_7\n      tag_8\n      calldatasize\n      0x04\n      tag_9\n      jump\t// in\n    tag_8:\n      0x00\n      0x20\n      dup2\n      swap1\n      mstore\n      swap1\n      dup2\n      mstore\n      0x40\n      swap1\n      keccak256\n      sload\n      dup2\n      jump\n    tag_7:\n      mload(0x40)\n        /* \"#utility.yul\":451:476   */\n      swap1\n      dup2\n      mstore\n        /* \"#utility.yul\":439:441   */\n      0x20\n        /* \"#utility.yul\":424:442   */\n      add\n        /* \"02/SimpleBank.sol\":82:121  mapping(address=>uint)  public balances */\n      mload(0x40)\n      dup1\n      swap2\n      sub\n      swap1\n      return\n        /* \"02/SimpleBank.sol\":218:417  function withdraw(uint amount) public {... */\n    tag_3:\n      callvalue\n      dup1\n      iszero\n      tag_13\n      jumpi\n      0x00\n      dup1\n      revert\n    tag_13:\n      pop\n      tag_14\n      tag_15\n      calldatasize\n      0x04\n      tag_16\n      jump\t// in\n    tag_15:\n      tag_17\n      jump\t// in\n    tag_14:\n      stop\n        /* \"02/SimpleBank.sol\":423:518  function checkBalance() public view returns (uint){... */\n    tag_4:\n      callvalue\n      dup1\n      iszero\n      tag_18\n      jumpi\n      0x00\n      dup1\n      revert\n    tag_18:\n      pop\n        /* \"02/SimpleBank.sol\":500:510  msg.sender */\n      caller\n        /* \"02/SimpleBank.sol\":468:472  uint */\n      0x00\n        /* \"02/SimpleBank.sol\":491:511  balances[msg.sender] */\n      swap1\n      dup2\n      mstore\n      0x20\n      dup2\n      swap1\n      mstore\n      0x40\n      swap1\n      keccak256\n      sload\n        /* \"02/SimpleBank.sol\":423:518  function checkBalance() public view returns (uint){... */\n      jump(tag_7)\n        /* \"02/SimpleBank.sol\":128:212  function deposit() public payable{... */\n    tag_5:\n      tag_14\n      tag_23\n      jump\t// in\n        /* \"02/SimpleBank.sol\":218:417  function withdraw(uint amount) public {... */\n    tag_17:\n        /* \"02/SimpleBank.sol\":283:293  msg.sender */\n      caller\n        /* \"02/SimpleBank.sol\":274:282  balances */\n      0x00\n        /* \"02/SimpleBank.sol\":274:294  balances[msg.sender] */\n      swap1\n      dup2\n      mstore\n      0x20\n      dup2\n      swap1\n      mstore\n      0x40\n      swap1\n      keccak256\n      sload\n        /* \"02/SimpleBank.sol\":274:302  balances[msg.sender]>=amount */\n      dup2\n      gt\n      iszero\n        /* \"02/SimpleBank.sol\":266:324  require(balances[msg.sender]>=amount,\"Insufficient funds\") */\n      tag_25\n      jumpi\n      mload(0x40)\n      shl(0xe5, 0x461bcd)\n      dup2\n      mstore\n        /* \"#utility.yul\":874:876   */\n      0x20\n        /* \"02/SimpleBank.sol\":266:324  require(balances[msg.sender]>=amount,\"Insufficient funds\") */\n      0x04\n      dup3\n      add\n        /* \"#utility.yul\":856:877   */\n      mstore\n        /* \"#utility.yul\":913:915   */\n      0x12\n        /* \"#utility.yul\":893:911   */\n      0x24\n      dup3\n      add\n        /* \"#utility.yul\":886:916   */\n      mstore\n      shl(0x70, 0x496e73756666696369656e742066756e6473)\n        /* \"#utility.yul\":932:950   */\n      0x44\n      dup3\n      add\n        /* \"#utility.yul\":925:973   */\n      mstore\n        /* \"#utility.yul\":990:1008   */\n      0x64\n      add\n        /* \"02/SimpleBank.sol\":266:324  require(balances[msg.sender]>=amount,\"Insufficient funds\") */\n      mload(0x40)\n      dup1\n      swap2\n      sub\n      swap1\n      revert\n    tag_25:\n        /* \"02/SimpleBank.sol\":334:370  payable(msg.sender).transfer(amount) */\n      mload(0x40)\n        /* \"02/SimpleBank.sol\":342:352  msg.sender */\n      caller\n      swap1\n        /* \"02/SimpleBank.sol\":334:370  payable(msg.sender).transfer(amount) */\n      dup3\n      iszero\n      0x08fc\n      mul\n      swap1\n        /* \"02/SimpleBank.sol\":363:369  amount */\n      dup4\n      swap1\n        /* \"02/SimpleBank.sol\":334:370  payable(msg.sender).transfer(amount) */\n      0x00\n      dup2\n      dup2\n      dup2\n        /* \"02/SimpleBank.sol\":363:369  amount */\n      dup6\n        /* \"02/SimpleBank.sol\":342:352  msg.sender */\n      dup9\n        /* \"02/SimpleBank.sol\":334:370  payable(msg.sender).transfer(amount) */\n      dup9\n      call\n      swap4\n      pop\n      pop\n      pop\n      pop\n      iszero\n      dup1\n      iszero\n      tag_29\n      jumpi\n      returndatasize\n      0x00\n      dup1\n      returndatacopy\n      revert(0x00, returndatasize)\n    tag_29:\n      pop\n        /* \"02/SimpleBank.sol\":389:399  msg.sender */\n      caller\n        /* \"02/SimpleBank.sol\":380:388  balances */\n      0x00\n        /* \"02/SimpleBank.sol\":380:400  balances[msg.sender] */\n      swap1\n      dup2\n      mstore\n      0x20\n      dup2\n      swap1\n      mstore\n      0x40\n      dup2\n      keccak256\n        /* \"02/SimpleBank.sol\":380:410  balances[msg.sender] -= amount */\n      dup1\n      sload\n        /* \"02/SimpleBank.sol\":404:410  amount */\n      dup4\n      swap3\n        /* \"02/SimpleBank.sol\":380:388  balances */\n      swap1\n        /* \"02/SimpleBank.sol\":380:410  balances[msg.sender] -= amount */\n      tag_30\n      swap1\n        /* \"02/SimpleBank.sol\":404:410  amount */\n      dup5\n      swap1\n        /* \"02/SimpleBank.sol\":380:410  balances[msg.sender] -= amount */\n      tag_31\n      jump\t// in\n    tag_30:\n      swap1\n      swap2\n      sstore\n      pop\n      pop\n      pop\n        /* \"02/SimpleBank.sol\":218:417  function withdraw(uint amount) public {... */\n      jump\t// out\n        /* \"02/SimpleBank.sol\":128:212  function deposit() public payable{... */\n    tag_23:\n        /* \"02/SimpleBank.sol\":181:191  msg.sender */\n      caller\n        /* \"02/SimpleBank.sol\":172:180  balances */\n      0x00\n        /* \"02/SimpleBank.sol\":172:192  balances[msg.sender] */\n      swap1\n      dup2\n      mstore\n      0x20\n      dup2\n      swap1\n      mstore\n      0x40\n      dup2\n      keccak256\n        /* \"02/SimpleBank.sol\":172:205  balances[msg.sender] += msg.value */\n      dup1\n      sload\n        /* \"02/SimpleBank.sol\":196:205  msg.value */\n      callvalue\n      swap3\n        /* \"02/SimpleBank.sol\":172:180  balances */\n      swap1\n        /* \"02/SimpleBank.sol\":172:205  balances[msg.sender] += msg.value */\n      tag_34\n      swap1\n        /* \"02/SimpleBank.sol\":196:205  msg.value */\n      dup5\n      swap1\n        /* \"02/SimpleBank.sol\":172:205  balances[msg.sender] += msg.value */\n      tag_35\n      jump\t// in\n    tag_34:\n      swap1\n      swap2\n      sstore\n      pop\n      pop\n        /* \"02/SimpleBank.sol\":128:212  function deposit() public payable{... */\n      jump\t// out\n        /* \"#utility.yul\":14:300   */\n    tag_9:\n        /* \"#utility.yul\":73:79   */\n      0x00\n        /* \"#utility.yul\":126:128   */\n      0x20\n        /* \"#utility.yul\":114:123   */\n      dup3\n        /* \"#utility.yul\":105:112   */\n      dup5\n        /* \"#utility.yul\":101:124   */\n      sub\n        /* \"#utility.yul\":97:129   */\n      slt\n        /* \"#utility.yul\":94:146   */\n      iszero\n      tag_39\n      jumpi\n        /* \"#utility.yul\":142:143   */\n      0x00\n        /* \"#utility.yul\":139:140   */\n      dup1\n        /* \"#utility.yul\":132:144   */\n      revert\n        /* \"#utility.yul\":94:146   */\n    tag_39:\n        /* \"#utility.yul\":168:191   */\n      dup2\n      calldataload\n      sub(shl(0xa0, 0x01), 0x01)\n        /* \"#utility.yul\":220:251   */\n      dup2\n      and\n        /* \"#utility.yul\":210:252   */\n      dup2\n      eq\n        /* \"#utility.yul\":200:270   */\n      tag_40\n      jumpi\n        /* \"#utility.yul\":266:267   */\n      0x00\n        /* \"#utility.yul\":263:264   */\n      dup1\n        /* \"#utility.yul\":256:268   */\n      revert\n        /* \"#utility.yul\":200:270   */\n    tag_40:\n        /* \"#utility.yul\":289:294   */\n      swap4\n        /* \"#utility.yul\":14:300   */\n      swap3\n      pop\n      pop\n      pop\n      jump\t// out\n        /* \"#utility.yul\":487:667   */\n    tag_16:\n        /* \"#utility.yul\":546:552   */\n      0x00\n        /* \"#utility.yul\":599:601   */\n      0x20\n        /* \"#utility.yul\":587:596   */\n      dup3\n        /* \"#utility.yul\":578:585   */\n      dup5\n        /* \"#utility.yul\":574:597   */\n      sub\n        /* \"#utility.yul\":570:602   */\n      slt\n        /* \"#utility.yul\":567:619   */\n      iszero\n      tag_43\n      jumpi\n        /* \"#utility.yul\":615:616   */\n      0x00\n        /* \"#utility.yul\":612:613   */\n      dup1\n        /* \"#utility.yul\":605:617   */\n      revert\n        /* \"#utility.yul\":567:619   */\n    tag_43:\n      pop\n        /* \"#utility.yul\":638:661   */\n      calldataload\n      swap2\n        /* \"#utility.yul\":487:667   */\n      swap1\n      pop\n      jump\t// out\n        /* \"#utility.yul\":1019:1146   */\n    tag_36:\n        /* \"#utility.yul\":1080:1090   */\n      0x4e487b71\n        /* \"#utility.yul\":1075:1078   */\n      0xe0\n        /* \"#utility.yul\":1071:1091   */\n      shl\n        /* \"#utility.yul\":1068:1069   */\n      0x00\n        /* \"#utility.yul\":1061:1092   */\n      mstore\n        /* \"#utility.yul\":1111:1115   */\n      0x11\n        /* \"#utility.yul\":1108:1109   */\n      0x04\n        /* \"#utility.yul\":1101:1116   */\n      mstore\n        /* \"#utility.yul\":1135:1139   */\n      0x24\n        /* \"#utility.yul\":1132:1133   */\n      0x00\n        /* \"#utility.yul\":1125:1140   */\n      revert\n        /* \"#utility.yul\":1151:1279   */\n    tag_31:\n        /* \"#utility.yul\":1218:1227   */\n      dup2\n      dup2\n      sub\n        /* \"#utility.yul\":1239:1250   */\n      dup2\n      dup2\n      gt\n        /* \"#utility.yul\":1236:1273   */\n      iszero\n      tag_48\n      jumpi\n        /* \"#utility.yul\":1253:1271   */\n      tag_48\n      tag_36\n      jump\t// in\n    tag_48:\n        /* \"#utility.yul\":1151:1279   */\n      swap3\n      swap2\n      pop\n      pop\n      jump\t// out\n        /* \"#utility.yul\":1284:1409   */\n    tag_35:\n        /* \"#utility.yul\":1349:1358   */\n      dup1\n      dup3\n      add\n        /* \"#utility.yul\":1370:1380   */\n      dup1\n      dup3\n      gt\n        /* \"#utility.yul\":1367:1403   */\n      iszero\n      tag_48\n      jumpi\n        /* \"#utility.yul\":1383:1401   */\n      tag_48\n      tag_36\n      jump\t// in\n\n    auxdata: 0xa264697066735822122050e1511e638dbbe39bdd0d7233e151258a23c4aa66892dcfb901224b8db3b40164736f6c634300081a0033\n}\n",
				"bytecode": {
					"linkReferences": {},
					"object": "6080604052348015600e575f80fd5b5061024f8061001c5f395ff3fe60806040526004361061003e575f3560e01c806327e235e3146100425780632e1a7d4d1461007f578063c71daccb146100a0578063d0e30db0146100c0575b5f80fd5b34801561004d575f80fd5b5061006d61005c366004610195565b5f6020819052908152604090205481565b60405190815260200160405180910390f35b34801561008a575f80fd5b5061009e6100993660046101c2565b6100c8565b005b3480156100ab575f80fd5b50335f9081526020819052604090205461006d565b61009e610170565b335f9081526020819052604090205481111561011f5760405162461bcd60e51b8152602060048201526012602482015271496e73756666696369656e742066756e647360701b604482015260640160405180910390fd5b604051339082156108fc029083905f818181858888f19350505050158015610149573d5f803e3d5ffd5b50335f90815260208190526040812080548392906101689084906101ed565b909155505050565b335f908152602081905260408120805434929061018e908490610206565b9091555050565b5f602082840312156101a5575f80fd5b81356001600160a01b03811681146101bb575f80fd5b9392505050565b5f602082840312156101d2575f80fd5b5035919050565b634e487b7160e01b5f52601160045260245ffd5b81810381811115610200576102006101d9565b92915050565b80820180821115610200576102006101d956fea264697066735822122050e1511e638dbbe39bdd0d7233e151258a23c4aa66892dcfb901224b8db3b40164736f6c634300081a0033",
					"opcodes": "PUSH1 0x80 PUSH1 0x40 MSTORE CALLVALUE DUP1 ISZERO PUSH1 0xE JUMPI PUSH0 DUP1 REVERT JUMPDEST POP PUSH2 0x24F DUP1 PUSH2 0x1C PUSH0 CODECOPY PUSH0 RETURN INVALID PUSH1 0x80 PUSH1 0x40 MSTORE PUSH1 0x4 CALLDATASIZE LT PUSH2 0x3E JUMPI PUSH0 CALLDATALOAD PUSH1 0xE0 SHR DUP1 PUSH4 0x27E235E3 EQ PUSH2 0x42 JUMPI DUP1 PUSH4 0x2E1A7D4D EQ PUSH2 0x7F JUMPI DUP1 PUSH4 0xC71DACCB EQ PUSH2 0xA0 JUMPI DUP1 PUSH4 0xD0E30DB0 EQ PUSH2 0xC0 JUMPI JUMPDEST PUSH0 DUP1 REVERT JUMPDEST CALLVALUE DUP1 ISZERO PUSH2 0x4D JUMPI PUSH0 DUP1 REVERT JUMPDEST POP PUSH2 0x6D PUSH2 0x5C CALLDATASIZE PUSH1 0x4 PUSH2 0x195 JUMP JUMPDEST PUSH0 PUSH1 0x20 DUP2 SWAP1 MSTORE SWAP1 DUP2 MSTORE PUSH1 0x40 SWAP1 KECCAK256 SLOAD DUP2 JUMP JUMPDEST PUSH1 0x40 MLOAD SWAP1 DUP2 MSTORE PUSH1 0x20 ADD PUSH1 0x40 MLOAD DUP1 SWAP2 SUB SWAP1 RETURN JUMPDEST CALLVALUE DUP1 ISZERO PUSH2 0x8A JUMPI PUSH0 DUP1 REVERT JUMPDEST POP PUSH2 0x9E PUSH2 0x99 CALLDATASIZE PUSH1 0x4 PUSH2 0x1C2 JUMP JUMPDEST PUSH2 0xC8 JUMP JUMPDEST STOP JUMPDEST CALLVALUE DUP1 ISZERO PUSH2 0xAB JUMPI PUSH0 DUP1 REVERT JUMPDEST POP CALLER PUSH0 SWAP1 DUP2 MSTORE PUSH1 0x20 DUP2 SWAP1 MSTORE PUSH1 0x40 SWAP1 KECCAK256 SLOAD PUSH2 0x6D JUMP JUMPDEST PUSH2 0x9E PUSH2 0x170 JUMP JUMPDEST CALLER PUSH0 SWAP1 DUP2 MSTORE PUSH1 0x20 DUP2 SWAP1 MSTORE PUSH1 0x40 SWAP1 KECCAK256 SLOAD DUP2 GT ISZERO PUSH2 0x11F JUMPI PUSH1 0x40 MLOAD PUSH3 0x461BCD PUSH1 0xE5 SHL DUP2 MSTORE PUSH1 0x20 PUSH1 0x4 DUP3 ADD MSTORE PUSH1 0x12 PUSH1 0x24 DUP3 ADD MSTORE PUSH18 0x496E73756666696369656E742066756E6473 PUSH1 0x70 SHL PUSH1 0x44 DUP3 ADD MSTORE PUSH1 0x64 ADD PUSH1 0x40 MLOAD DUP1 SWAP2 SUB SWAP1 REVERT JUMPDEST PUSH1 0x40 MLOAD CALLER SWAP1 DUP3 ISZERO PUSH2 0x8FC MUL SWAP1 DUP4 SWAP1 PUSH0 DUP2 DUP2 DUP2 DUP6 DUP9 DUP9 CALL SWAP4 POP POP POP POP ISZERO DUP1 ISZERO PUSH2 0x149 JUMPI RETURNDATASIZE PUSH0 DUP1 RETURNDATACOPY RETURNDATASIZE PUSH0 REVERT JUMPDEST POP CALLER PUSH0 SWAP1 DUP2 MSTORE PUSH1 0x20 DUP2 SWAP1 MSTORE PUSH1 0x40 DUP2 KECCAK256 DUP1 SLOAD DUP4 SWAP3 SWAP1 PUSH2 0x168 SWAP1 DUP5 SWAP1 PUSH2 0x1ED JUMP JUMPDEST SWAP1 SWAP2 SSTORE POP POP POP JUMP JUMPDEST CALLER PUSH0 SWAP1 DUP2 MSTORE PUSH1 0x20 DUP2 SWAP1 MSTORE PUSH1 0x40 DUP2 KECCAK256 DUP1 SLOAD CALLVALUE SWAP3 SWAP1 PUSH2 0x18E SWAP1 DUP5 SWAP1 PUSH2 0x206 JUMP JUMPDEST SWAP1 SWAP2 SSTORE POP POP JUMP JUMPDEST PUSH0 PUSH1 0x20 DUP3 DUP5 SUB SLT ISZERO PUSH2 0x1A5 JUMPI PUSH0 DUP1 REVERT JUMPDEST DUP2 CALLDATALOAD PUSH1 0x1 PUSH1 0x1 PUSH1 0xA0 SHL SUB DUP2 AND DUP2 EQ PUSH2 0x1BB JUMPI PUSH0 DUP1 REVERT JUMPDEST SWAP4 SWAP3 POP POP POP JUMP JUMPDEST PUSH0 PUSH1 0x20 DUP3 DUP5 SUB SLT ISZERO PUSH2 0x1D2 JUMPI PUSH0 DUP1 REVERT JUMPDEST POP CALLDATALOAD SWAP2 SWAP1 POP JUMP JUMPDEST PUSH4 0x4E487B71 PUSH1 0xE0 SHL PUSH0 MSTORE PUSH1 0x11 PUSH1 0x4 MSTORE PUSH1 0x24 PUSH0 REVERT JUMPDEST DUP2 DUP2 SUB DUP2 DUP2 GT ISZERO PUSH2 0x200 JUMPI PUSH2 0x200 PUSH2 0x1D9 JUMP JUMPDEST SWAP3 SWAP2 POP POP JUMP JUMPDEST DUP1 DUP3 ADD DUP1 DUP3 GT ISZERO PUSH2 0x200 JUMPI PUSH2 0x200 PUSH2 0x1D9 JUMP INVALID LOG2 PUSH5 0x6970667358 0x22 SLT KECCAK256 POP 0xE1 MLOAD 0x1E PUSH4 0x8DBBE39B 0xDD 0xD PUSH19 0x33E151258A23C4AA66892DCFB901224B8DB3B4 ADD PUSH5 0x736F6C6343 STOP ADDMOD BYTE STOP CALLER "
				},
				"gasEstimates": {
					"creation": {
						"codeDepositCost": "118200",
						"executionCost": "163",
						"totalCost": "118363"
					},
					"external": {
						"balances(address)": "2450",
						"checkBalance()": "2371",
						"deposit()": "24535",
						"withdraw(uint256)": "infinite"
					}
				},
				"methodIdentifiers": {
					"balances(address)": "27e235e3",
					"checkBalance()": "c71daccb",
					"deposit()": "d0e30db0",
					"withdraw(uint256)": "2e1a7d4d"
				}
			},
			"storageLayout": {
				"storage": [
					{
						"astId": 5,
						"contract": "02/SimpleBank.sol:SimpleBank",
						"label": "balances",
						"offset": 0,
						"slot": "0",
						"type": "t_mapping(t_address,t_uint256)"
					}
				],
				"types": {
					"t_address": {
						"encoding": "inplace",
						"label": "address",
						"numberOfBytes": "20"
					},
					"t_mapping(t_address,t_uint256)": {
						"encoding": "mapping",
						"key": "t_address",
						"label": "mapping(address => uint256)",
						"numberOfBytes": "32",
						"value": "t_uint256"
					},
					"t_uint256": {
						"encoding": "inplace",
						"label": "uint256",
						"numberOfBytes": "32"
					}
				}
			},
			"userdoc": {
				"kind": "user",
				"methods": {},
				"version": 1
			}
		}
	}
}