{
	"02/DeployContract.sol": {
		"Simple": {
			"abi": [
				{
					"inputs": [],
					"stateMutability": "nonpayable",
					"type": "constructor"
				},
				{
					"inputs": [],
					"name": "get",
					"outputs": [
						{
							"internalType": "uint256",
							"name": "",
							"type": "uint256"
						}
					],
					"stateMutability": "view",
					"type": "function"
				},
				{
					"inputs": [],
					"name": "num",
					"outputs": [
						{
							"internalType": "uint256",
							"name": "",
							"type": "uint256"
						}
					],
					"stateMutability": "view",
					"type": "function"
				},
				{
					"inputs": [
						{
							"internalType": "uint256",
							"name": "val",
							"type": "uint256"
						}
					],
					"name": "set",
					"outputs": [],
					"stateMutability": "nonpayable",
					"type": "function"
				}
			],
			"devdoc": {
				"kind": "dev",
				"methods": {},
				"version": 1
			},
			"evm": {
				"assembly": "    /* \"02/DeployContract.sol\":58:315  contract Simple{... */\n  mstore(0x40, 0x80)\n    /* \"02/DeployContract.sol\":80:106  address owner = msg.sender */\n  0x00\n  dup1\n  sload\n  not(sub(shl(0xa0, 0x01), 0x01))\n  and\n    /* \"02/DeployContract.sol\":96:106  msg.sender */\n  caller\n    /* \"02/DeployContract.sol\":80:106  address owner = msg.sender */\n  or\n  swap1\n  sstore\n    /* \"02/DeployContract.sol\":135:174  constructor(){... */\n  callvalue\n  dup1\n  iszero\n  tag_1\n  jumpi\n  0x00\n  dup1\n  revert\ntag_1:\n  pop\n    /* \"02/DeployContract.sol\":164:167  100 */\n  0x64\n    /* \"02/DeployContract.sol\":158:161  num */\n  0x01\n    /* \"02/DeployContract.sol\":158:167  num = 100 */\n  sstore\n    /* \"02/DeployContract.sol\":58:315  contract Simple{... */\n  dataSize(sub_0)\n  dup1\n  dataOffset(sub_0)\n  0x00\n  codecopy\n  0x00\n  return\nstop\n\nsub_0: assembly {\n        /* \"02/DeployContract.sol\":58:315  contract Simple{... */\n      mstore(0x40, 0x80)\n      callvalue\n      dup1\n      iszero\n      tag_1\n      jumpi\n      0x00\n      dup1\n      revert\n    tag_1:\n      pop\n      jumpi(tag_2, lt(calldatasize, 0x04))\n      shr(0xe0, calldataload(0x00))\n      dup1\n      0x4e70b1dc\n      eq\n      tag_3\n      jumpi\n      dup1\n      0x60fe47b1\n      eq\n      tag_4\n      jumpi\n      dup1\n      0x6d4ce63c\n      eq\n      tag_5\n      jumpi\n    tag_2:\n      0x00\n      dup1\n      revert\n        /* \"02/DeployContract.sol\":113:128  uint public num */\n    tag_3:\n      tag_6\n      sload(0x01)\n      dup2\n      jump\n    tag_6:\n      mload(0x40)\n        /* \"#utility.yul\":160:185   */\n      swap1\n      dup2\n      mstore\n        /* \"#utility.yul\":148:150   */\n      0x20\n        /* \"#utility.yul\":133:151   */\n      add\n        /* \"02/DeployContract.sol\":113:128  uint public num */\n      mload(0x40)\n      dup1\n      swap2\n      sub\n      swap1\n      return\n        /* \"02/DeployContract.sol\":180:237  function set(uint val) external{... */\n    tag_4:\n      tag_10\n      tag_11\n      calldatasize\n      0x04\n      tag_12\n      jump\t// in\n    tag_11:\n        /* \"02/DeployContract.sol\":221:224  num */\n      0x01\n        /* \"02/DeployContract.sol\":221:230  num = val */\n      sstore\n        /* \"02/DeployContract.sol\":180:237  function set(uint val) external{... */\n      jump\n    tag_10:\n      stop\n        /* \"02/DeployContract.sol\":243:312  function get() external view returns(uint){... */\n    tag_5:\n        /* \"02/DeployContract.sol\":302:305  num */\n      sload(0x01)\n        /* \"02/DeployContract.sol\":243:312  function get() external view returns(uint){... */\n      jump(tag_6)\n        /* \"#utility.yul\":196:376   */\n    tag_12:\n        /* \"#utility.yul\":255:261   */\n      0x00\n        /* \"#utility.yul\":308:310   */\n      0x20\n        /* \"#utility.yul\":296:305   */\n      dup3\n        /* \"#utility.yul\":287:294   */\n      dup5\n        /* \"#utility.yul\":283:306   */\n      sub\n        /* \"#utility.yul\":279:311   */\n      slt\n        /* \"#utility.yul\":276:328   */\n      iszero\n      tag_22\n      jumpi\n        /* \"#utility.yul\":324:325   */\n      0x00\n        /* \"#utility.yul\":321:322   */\n      dup1\n        /* \"#utility.yul\":314:326   */\n      revert\n        /* \"#utility.yul\":276:328   */\n    tag_22:\n      pop\n        /* \"#utility.yul\":347:370   */\n      calldataload\n      swap2\n        /* \"#utility.yul\":196:376   */\n      swap1\n      pop\n      jump\t// out\n\n    auxdata: 0xa26469706673582212209fcfc5c4427af73958f524d8767611944340dd94c2fd71a36be2102160f4b6ba64736f6c634300081a0033\n}\n",
				"bytecode": {
					"linkReferences": {},
					"object": "60806040525f80546001600160a01b03191633179055348015601f575f80fd5b50606460015560bd8060305f395ff3fe6080604052348015600e575f80fd5b5060043610603a575f3560e01c80634e70b1dc14603e57806360fe47b11460585780636d4ce63c14606a575b5f80fd5b604660015481565b60405190815260200160405180910390f35b606860633660046071565b600155565b005b6001546046565b5f602082840312156080575f80fd5b503591905056fea26469706673582212209fcfc5c4427af73958f524d8767611944340dd94c2fd71a36be2102160f4b6ba64736f6c634300081a0033",
					"opcodes": "PUSH1 0x80 PUSH1 0x40 MSTORE PUSH0 DUP1 SLOAD PUSH1 0x1 PUSH1 0x1 PUSH1 0xA0 SHL SUB NOT AND CALLER OR SWAP1 SSTORE CALLVALUE DUP1 ISZERO PUSH1 0x1F JUMPI PUSH0 DUP1 REVERT JUMPDEST POP PUSH1 0x64 PUSH1 0x1 SSTORE PUSH1 0xBD DUP1 PUSH1 0x30 PUSH0 CODECOPY PUSH0 RETURN INVALID PUSH1 0x80 PUSH1 0x40 MSTORE CALLVALUE DUP1 ISZERO PUSH1 0xE JUMPI PUSH0 DUP1 REVERT JUMPDEST POP PUSH1 0x4 CALLDATASIZE LT PUSH1 0x3A JUMPI PUSH0 CALLDATALOAD PUSH1 0xE0 SHR DUP1 PUSH4 0x4E70B1DC EQ PUSH1 0x3E JUMPI DUP1 PUSH4 0x60FE47B1 EQ PUSH1 0x58 JUMPI DUP1 PUSH4 0x6D4CE63C EQ PUSH1 0x6A JUMPI JUMPDEST PUSH0 DUP1 REVERT JUMPDEST PUSH1 0x46 PUSH1 0x1 SLOAD DUP2 JUMP JUMPDEST PUSH1 0x40 MLOAD SWAP1 DUP2 MSTORE PUSH1 0x20 ADD PUSH1 0x40 MLOAD DUP1 SWAP2 SUB SWAP1 RETURN JUMPDEST PUSH1 0x68 PUSH1 0x63 CALLDATASIZE PUSH1 0x4 PUSH1 0x71 JUMP JUMPDEST PUSH1 0x1 SSTORE JUMP JUMPDEST STOP JUMPDEST PUSH1 0x1 SLOAD PUSH1 0x46 JUMP JUMPDEST PUSH0 PUSH1 0x20 DUP3 DUP5 SUB SLT ISZERO PUSH1 0x80 JUMPI PUSH0 DUP1 REVERT JUMPDEST POP CALLDATALOAD SWAP2 SWAP1 POP JUMP INVALID LOG2 PUSH5 0x6970667358 0x22 SLT KECCAK256 SWAP16 0xCF 0xC5 0xC4 TIMESTAMP PUSH27 0xF73958F524D8767611944340DD94C2FD71A36BE2102160F4B6BA64 PUSH20 0x6F6C634300081A00330000000000000000000000 "
				},
				"gasEstimates": {
					"creation": {
						"codeDepositCost": "37800",
						"executionCost": "46425",
						"totalCost": "84225"
					},
					"external": {
						"get()": "2301",
						"num()": "2260",
						"set(uint256)": "22310"
					}
				},
				"methodIdentifiers": {
					"get()": "6d4ce63c",
					"num()": "4e70b1dc",
					"set(uint256)": "60fe47b1"
				}
			},
			"storageLayout": {
				"storage": [
					{
						"astId": 5,
						"contract": "02/DeployContract.sol:Simple",
						"label": "owner",
						"offset": 0,
						"slot": "0",
						"type": "t_address"
					},
					{
						"astId": 7,
						"contract": "02/DeployContract.sol:Simple",
						"label": "num",
						"offset": 0,
						"slot": "1",
						"type": "t_uint256"
					}
				],
				"types": {
					"t_address": {
						"encoding": "inplace",
						"label": "address",
						"numberOfBytes": "20"
					},
					"t_uint256": {
						"encoding": "inplace",
						"label": "uint256",
						"numberOfBytes": "32"
					}
				}
			},
			"userdoc": {
				"kind": "user",
				"methods": {},
				"version": 1
			}
		}
	}
}