{
	"02/FuncOutputs.sol": {
		"FuncOutputs": {
			"abi": [
				{
					"inputs": [],
					"name": "captureOutputs",
					"outputs": [],
					"stateMutability": "nonpayable",
					"type": "function"
				},
				{
					"inputs": [],
					"name": "displayOutputs",
					"outputs": [
						{
							"internalType": "uint256",
							"name": "",
							"type": "uint256"
						},
						{
							"internalType": "bool",
							"name": "",
							"type": "bool"
						},
						{
							"internalType": "string",
							"name": "",
							"type": "string"
						}
					],
					"stateMutability": "view",
					"type": "function"
				},
				{
					"inputs": [],
					"name": "returnMultiple",
					"outputs": [
						{
							"internalType": "uint256",
							"name": "",
							"type": "uint256"
						},
						{
							"internalType": "bool",
							"name": "",
							"type": "bool"
						},
						{
							"internalType": "string",
							"name": "",
							"type": "string"
						}
					],
					"stateMutability": "pure",
					"type": "function"
				}
			],
			"devdoc": {
				"kind": "dev",
				"methods": {},
				"version": 1
			},
			"evm": {
				"assembly": "    /* \"02/FuncOutputs.sol\":57:483  contract FuncOutputs{... */\n  mstore(0x40, 0x80)\n  callvalue\n  dup1\n  iszero\n  tag_1\n  jumpi\n  0x00\n  dup1\n  revert\ntag_1:\n  pop\n  dataSize(sub_0)\n  dup1\n  dataOffset(sub_0)\n  0x00\n  codecopy\n  0x00\n  return\nstop\n\nsub_0: assembly {\n        /* \"02/FuncOutputs.sol\":57:483  contract FuncOutputs{... */\n      mstore(0x40, 0x80)\n      callvalue\n      dup1\n      iszero\n      tag_1\n      jumpi\n      0x00\n      dup1\n      revert\n    tag_1:\n      pop\n      jumpi(tag_2, lt(calldatasize, 0x04))\n      shr(0xe0, calldataload(0x00))\n      dup1\n      0x26a89e04\n      eq\n      tag_3\n      jumpi\n      dup1\n      0x64f13521\n      eq\n      tag_4\n      jumpi\n      dup1\n      0xe61e4008\n      eq\n      tag_5\n      jumpi\n    tag_2:\n      0x00\n      dup1\n      revert\n        /* \"02/FuncOutputs.sol\":262:356  function captureOutputs() public {... */\n    tag_3:\n      tag_6\n      tag_7\n      jump\t// in\n    tag_6:\n      stop\n        /* \"02/FuncOutputs.sol\":362:481  function displayOutputs() public view returns (uint ,bool ,string memory){... */\n    tag_4:\n      tag_8\n      tag_9\n      jump\t// in\n    tag_8:\n      mload(0x40)\n      tag_10\n      swap4\n      swap3\n      swap2\n      swap1\n      tag_11\n      jump\t// in\n    tag_10:\n      mload(0x40)\n      dup1\n      swap2\n      sub\n      swap1\n      return\n        /* \"02/FuncOutputs.sol\":137:256  function returnMultiple() public pure returns (uint ,bool ,string memory){... */\n    tag_5:\n        /* \"02/FuncOutputs.sol\":219:249  return (1,true,\"hello world!\") */\n      0x40\n      dup1\n      mload\n      dup1\n      dup3\n      add\n      swap1\n      swap2\n      mstore\n      0x0c\n      dup2\n      mstore\n      shl(0xa0, 0x68656c6c6f20776f726c6421)\n      0x20\n      dup3\n      add\n      mstore\n        /* \"02/FuncOutputs.sol\":227:228  1 */\n      0x01\n      swap1\n      dup2\n      swap1\n        /* \"02/FuncOutputs.sol\":137:256  function returnMultiple() public pure returns (uint ,bool ,string memory){... */\n      jump(tag_8)\n        /* \"02/FuncOutputs.sol\":262:356  function captureOutputs() public {... */\n    tag_7:\n        /* \"02/FuncOutputs.sol\":219:249  return (1,true,\"hello world!\") */\n      0x40\n      dup1\n      mload\n      dup1\n      dup3\n      add\n      swap1\n      swap2\n      mstore\n      0x0c\n      dup2\n      mstore\n      shl(0xa0, 0x68656c6c6f20776f726c6421)\n      0x20\n      dup3\n      add\n      mstore\n        /* \"02/FuncOutputs.sol\":227:228  1 */\n      0x01\n      swap1\n      dup2\n      swap1\n        /* \"02/FuncOutputs.sol\":309:349  (_uint,_bool,_string) = returnMultiple() */\n      dup1\n      mload\n        /* \"02/FuncOutputs.sol\":310:315  _uint */\n      0x00\n      swap1\n      dup2\n      swap1\n        /* \"02/FuncOutputs.sol\":316:321  _bool */\n      0x01\n      swap1\n        /* \"02/FuncOutputs.sol\":310:315  _uint */\n      dup3\n      swap1\n        /* \"02/FuncOutputs.sol\":309:349  (_uint,_bool,_string) = returnMultiple() */\n      tag_17\n      swap1\n        /* \"02/FuncOutputs.sol\":322:329  _string */\n      0x02\n      swap1\n        /* \"02/FuncOutputs.sol\":309:349  (_uint,_bool,_string) = returnMultiple() */\n      0x20\n      dup9\n      add\n      swap1\n      tag_18\n      jump\t// in\n    tag_17:\n      pop\n      dup6\n      swap2\n      swap1\n      0x0100\n      exp\n      dup2\n      sload\n      dup2\n      0xff\n      mul\n      not\n      and\n      swap1\n      dup4\n      iszero\n      iszero\n      mul\n      or\n      swap1\n      sstore\n      pop\n      dup5\n      swap2\n      swap1\n      pop\n      sstore\n      pop\n      pop\n      pop\n        /* \"02/FuncOutputs.sol\":262:356  function captureOutputs() public {... */\n      jump\t// out\n        /* \"02/FuncOutputs.sol\":362:481  function displayOutputs() public view returns (uint ,bool ,string memory){... */\n    tag_9:\n        /* \"02/FuncOutputs.sol\":409:413  uint */\n      0x00\n        /* \"02/FuncOutputs.sol\":415:419  bool */\n      dup1\n        /* \"02/FuncOutputs.sol\":421:434  string memory */\n      0x60\n        /* \"02/FuncOutputs.sol\":454:459  _uint */\n      sload(0x00)\n        /* \"02/FuncOutputs.sol\":460:465  _bool */\n      0x01\n      0x00\n      swap1\n      sload\n      swap1\n      0x0100\n      exp\n      swap1\n      div\n      0xff\n      and\n        /* \"02/FuncOutputs.sol\":466:473  _string */\n      0x02\n        /* \"02/FuncOutputs.sol\":446:474  return (_uint,_bool,_string) */\n      dup1\n      dup1\n      sload\n      tag_20\n      swap1\n      tag_21\n      jump\t// in\n    tag_20:\n      dup1\n      0x1f\n      add\n      0x20\n      dup1\n      swap2\n      div\n      mul\n      0x20\n      add\n      mload(0x40)\n      swap1\n      dup2\n      add\n      0x40\n      mstore\n      dup1\n      swap3\n      swap2\n      swap1\n      dup2\n      dup2\n      mstore\n      0x20\n      add\n      dup3\n      dup1\n      sload\n      tag_22\n      swap1\n      tag_21\n      jump\t// in\n    tag_22:\n      dup1\n      iszero\n      tag_23\n      jumpi\n      dup1\n      0x1f\n      lt\n      tag_24\n      jumpi\n      0x0100\n      dup1\n      dup4\n      sload\n      div\n      mul\n      dup4\n      mstore\n      swap2\n      0x20\n      add\n      swap2\n      jump(tag_23)\n    tag_24:\n      dup3\n      add\n      swap2\n      swap1\n      0x00\n      mstore\n      keccak256(0x00, 0x20)\n      swap1\n    tag_25:\n      dup2\n      sload\n      dup2\n      mstore\n      swap1\n      0x01\n      add\n      swap1\n      0x20\n      add\n      dup1\n      dup4\n      gt\n      tag_25\n      jumpi\n      dup3\n      swap1\n      sub\n      0x1f\n      and\n      dup3\n      add\n      swap2\n    tag_23:\n      pop\n      pop\n      pop\n      pop\n      pop\n      swap1\n      pop\n      swap3\n      pop\n      swap3\n      pop\n      swap3\n      pop\n        /* \"02/FuncOutputs.sol\":362:481  function displayOutputs() public view returns (uint ,bool ,string memory){... */\n      swap1\n      swap2\n      swap3\n      jump\t// out\n    tag_18:\n      dup3\n      dup1\n      sload\n      tag_27\n      swap1\n      tag_21\n      jump\t// in\n    tag_27:\n      swap1\n      0x00\n      mstore\n      keccak256(0x00, 0x20)\n      swap1\n      0x1f\n      add\n      0x20\n      swap1\n      div\n      dup2\n      add\n      swap3\n      dup3\n      tag_29\n      jumpi\n      0x00\n      dup6\n      sstore\n      jump(tag_32)\n    tag_29:\n      dup3\n      0x1f\n      lt\n      tag_30\n      jumpi\n      dup1\n      mload\n      not(0xff)\n      and\n      dup4\n      dup1\n      add\n      or\n      dup6\n      sstore\n      jump(tag_32)\n    tag_30:\n      dup3\n      dup1\n      add\n      0x01\n      add\n      dup6\n      sstore\n      dup3\n      iszero\n      tag_32\n      jumpi\n      swap2\n      dup3\n      add\n    tag_31:\n      dup3\n      dup2\n      gt\n      iszero\n      tag_32\n      jumpi\n      dup3\n      mload\n      dup3\n      sstore\n      swap2\n      0x20\n      add\n      swap2\n      swap1\n      0x01\n      add\n      swap1\n      jump(tag_31)\n    tag_32:\n      pop\n      tag_33\n      swap3\n      swap2\n      pop\n      tag_34\n      jump\t// in\n    tag_33:\n      pop\n      swap1\n      jump\t// out\n    tag_34:\n    tag_35:\n      dup1\n      dup3\n      gt\n      iszero\n      tag_33\n      jumpi\n      0x00\n      dup2\n      sstore\n      0x01\n      add\n      jump(tag_35)\n        /* \"#utility.yul\":14:766   */\n    tag_11:\n        /* \"#utility.yul\":213:219   */\n      dup4\n        /* \"#utility.yul\":202:211   */\n      dup2\n        /* \"#utility.yul\":195:220   */\n      mstore\n        /* \"#utility.yul\":176:180   */\n      0x00\n        /* \"#utility.yul\":239:241   */\n      0x20\n        /* \"#utility.yul\":291:297   */\n      dup5\n        /* \"#utility.yul\":284:298   */\n      iszero\n        /* \"#utility.yul\":277:299   */\n      iszero\n        /* \"#utility.yul\":272:274   */\n      dup2\n        /* \"#utility.yul\":261:270   */\n      dup5\n        /* \"#utility.yul\":257:275   */\n      add\n        /* \"#utility.yul\":250:300   */\n      mstore\n        /* \"#utility.yul\":336:338   */\n      0x60\n        /* \"#utility.yul\":331:333   */\n      0x40\n        /* \"#utility.yul\":320:329   */\n      dup5\n        /* \"#utility.yul\":316:334   */\n      add\n        /* \"#utility.yul\":309:339   */\n      mstore\n        /* \"#utility.yul\":368:374   */\n      dup4\n        /* \"#utility.yul\":362:375   */\n      mload\n        /* \"#utility.yul\":411:417   */\n      dup1\n        /* \"#utility.yul\":406:408   */\n      0x60\n        /* \"#utility.yul\":395:404   */\n      dup6\n        /* \"#utility.yul\":391:409   */\n      add\n        /* \"#utility.yul\":384:418   */\n      mstore\n        /* \"#utility.yul\":436:437   */\n      0x00\n        /* \"#utility.yul\":446:587   */\n    tag_39:\n        /* \"#utility.yul\":460:466   */\n      dup2\n        /* \"#utility.yul\":457:458   */\n      dup2\n        /* \"#utility.yul\":454:467   */\n      lt\n        /* \"#utility.yul\":446:587   */\n      iszero\n      tag_41\n      jumpi\n        /* \"#utility.yul\":556:570   */\n      dup6\n      dup2\n      add\n        /* \"#utility.yul\":552:575   */\n      dup4\n      add\n        /* \"#utility.yul\":546:576   */\n      mload\n        /* \"#utility.yul\":521:538   */\n      dup6\n      dup3\n      add\n        /* \"#utility.yul\":540:543   */\n      0x80\n        /* \"#utility.yul\":517:544   */\n      add\n        /* \"#utility.yul\":510:577   */\n      mstore\n        /* \"#utility.yul\":475:485   */\n      dup3\n      add\n        /* \"#utility.yul\":446:587   */\n      jump(tag_39)\n    tag_41:\n        /* \"#utility.yul\":605:611   */\n      dup2\n        /* \"#utility.yul\":602:603   */\n      dup2\n        /* \"#utility.yul\":599:612   */\n      gt\n        /* \"#utility.yul\":596:688   */\n      iszero\n      tag_42\n      jumpi\n        /* \"#utility.yul\":676:677   */\n      0x00\n        /* \"#utility.yul\":670:673   */\n      0x80\n        /* \"#utility.yul\":661:667   */\n      dup4\n        /* \"#utility.yul\":650:659   */\n      dup8\n        /* \"#utility.yul\":646:668   */\n      add\n        /* \"#utility.yul\":642:674   */\n      add\n        /* \"#utility.yul\":635:678   */\n      mstore\n        /* \"#utility.yul\":596:688   */\n    tag_42:\n      pop\n        /* \"#utility.yul\":749:751   */\n      0x1f\n        /* \"#utility.yul\":728:743   */\n      add\n      not(0x1f)\n        /* \"#utility.yul\":724:753   */\n      and\n        /* \"#utility.yul\":709:754   */\n      swap3\n      swap1\n      swap3\n      add\n        /* \"#utility.yul\":756:759   */\n      0x80\n        /* \"#utility.yul\":705:760   */\n      add\n      swap6\n        /* \"#utility.yul\":14:766   */\n      swap5\n      pop\n      pop\n      pop\n      pop\n      pop\n      jump\t// out\n        /* \"#utility.yul\":771:1151   */\n    tag_21:\n        /* \"#utility.yul\":850:851   */\n      0x01\n        /* \"#utility.yul\":846:858   */\n      dup2\n      dup2\n      shr\n      swap1\n        /* \"#utility.yul\":893:905   */\n      dup3\n      and\n      dup1\n        /* \"#utility.yul\":914:975   */\n      tag_44\n      jumpi\n        /* \"#utility.yul\":968:972   */\n      0x7f\n        /* \"#utility.yul\":960:966   */\n      dup3\n        /* \"#utility.yul\":956:973   */\n      and\n        /* \"#utility.yul\":946:973   */\n      swap2\n      pop\n        /* \"#utility.yul\":914:975   */\n    tag_44:\n        /* \"#utility.yul\":1021:1023   */\n      0x20\n        /* \"#utility.yul\":1013:1019   */\n      dup3\n        /* \"#utility.yul\":1010:1024   */\n      lt\n        /* \"#utility.yul\":990:1008   */\n      dup2\n        /* \"#utility.yul\":987:1025   */\n      eq\n        /* \"#utility.yul\":984:1145   */\n      iszero\n      tag_45\n      jumpi\n        /* \"#utility.yul\":1067:1077   */\n      0x4e487b71\n        /* \"#utility.yul\":1062:1065   */\n      0xe0\n        /* \"#utility.yul\":1058:1078   */\n      shl\n        /* \"#utility.yul\":1055:1056   */\n      0x00\n        /* \"#utility.yul\":1048:1079   */\n      mstore\n        /* \"#utility.yul\":1102:1106   */\n      0x22\n        /* \"#utility.yul\":1099:1100   */\n      0x04\n        /* \"#utility.yul\":1092:1107   */\n      mstore\n        /* \"#utility.yul\":1130:1134   */\n      0x24\n        /* \"#utility.yul\":1127:1128   */\n      0x00\n        /* \"#utility.yul\":1120:1135   */\n      revert\n        /* \"#utility.yul\":984:1145   */\n    tag_45:\n      pop\n        /* \"#utility.yul\":771:1151   */\n      swap2\n      swap1\n      pop\n      jump\t// out\n\n    auxdata: 0xa2646970667358221220cf1ed09236cb4246c606f075d21f9f13daa947c5ac0850f3cfd0207ba0d746b364736f6c63430008070033\n}\n",
				"bytecode": {
					"linkReferences": {},
					"object": "608060405234801561001057600080fd5b50610326806100206000396000f3fe608060405234801561001057600080fd5b50600436106100415760003560e01c806326a89e041461004657806364f1352114610050578063e61e400814610070575b600080fd5b61004e61009d565b005b610058610105565b6040516100679392919061024f565b60405180910390f35b60408051808201909152600c81526b68656c6c6f20776f726c642160a01b60208201526001908190610058565b60408051808201909152600c81526b68656c6c6f20776f726c642160a01b602082015260019081908051600090819060019082906100e29060029060208801906101b6565b508591906101000a81548160ff0219169083151502179055508491905055505050565b6000806060600054600160009054906101000a900460ff16600280805461012b906102b5565b80601f0160208091040260200160405190810160405280929190818152602001828054610157906102b5565b80156101a45780601f10610179576101008083540402835291602001916101a4565b820191906000526020600020905b81548152906001019060200180831161018757829003601f168201915b50505050509050925092509250909192565b8280546101c2906102b5565b90600052602060002090601f0160209004810192826101e4576000855561022a565b82601f106101fd57805160ff191683800117855561022a565b8280016001018555821561022a579182015b8281111561022a57825182559160200191906001019061020f565b5061023692915061023a565b5090565b5b80821115610236576000815560010161023b565b838152600060208415158184015260606040840152835180606085015260005b8181101561028b5785810183015185820160800152820161026f565b8181111561029d576000608083870101525b50601f01601f19169290920160800195945050505050565b600181811c908216806102c957607f821691505b602082108114156102ea57634e487b7160e01b600052602260045260246000fd5b5091905056fea2646970667358221220cf1ed09236cb4246c606f075d21f9f13daa947c5ac0850f3cfd0207ba0d746b364736f6c63430008070033",
					"opcodes": "PUSH1 0x80 PUSH1 0x40 MSTORE CALLVALUE DUP1 ISZERO PUSH2 0x10 JUMPI PUSH1 0x0 DUP1 REVERT JUMPDEST POP PUSH2 0x326 DUP1 PUSH2 0x20 PUSH1 0x0 CODECOPY PUSH1 0x0 RETURN INVALID PUSH1 0x80 PUSH1 0x40 MSTORE CALLVALUE DUP1 ISZERO PUSH2 0x10 JUMPI PUSH1 0x0 DUP1 REVERT JUMPDEST POP PUSH1 0x4 CALLDATASIZE LT PUSH2 0x41 JUMPI PUSH1 0x0 CALLDATALOAD PUSH1 0xE0 SHR DUP1 PUSH4 0x26A89E04 EQ PUSH2 0x46 JUMPI DUP1 PUSH4 0x64F13521 EQ PUSH2 0x50 JUMPI DUP1 PUSH4 0xE61E4008 EQ PUSH2 0x70 JUMPI JUMPDEST PUSH1 0x0 DUP1 REVERT JUMPDEST PUSH2 0x4E PUSH2 0x9D JUMP JUMPDEST STOP JUMPDEST PUSH2 0x58 PUSH2 0x105 JUMP JUMPDEST PUSH1 0x40 MLOAD PUSH2 0x67 SWAP4 SWAP3 SWAP2 SWAP1 PUSH2 0x24F JUMP JUMPDEST PUSH1 0x40 MLOAD DUP1 SWAP2 SUB SWAP1 RETURN JUMPDEST PUSH1 0x40 DUP1 MLOAD DUP1 DUP3 ADD SWAP1 SWAP2 MSTORE PUSH1 0xC DUP2 MSTORE PUSH12 0x68656C6C6F20776F726C6421 PUSH1 0xA0 SHL PUSH1 0x20 DUP3 ADD MSTORE PUSH1 0x1 SWAP1 DUP2 SWAP1 PUSH2 0x58 JUMP JUMPDEST PUSH1 0x40 DUP1 MLOAD DUP1 DUP3 ADD SWAP1 SWAP2 MSTORE PUSH1 0xC DUP2 MSTORE PUSH12 0x68656C6C6F20776F726C6421 PUSH1 0xA0 SHL PUSH1 0x20 DUP3 ADD MSTORE PUSH1 0x1 SWAP1 DUP2 SWAP1 DUP1 MLOAD PUSH1 0x0 SWAP1 DUP2 SWAP1 PUSH1 0x1 SWAP1 DUP3 SWAP1 PUSH2 0xE2 SWAP1 PUSH1 0x2 SWAP1 PUSH1 0x20 DUP9 ADD SWAP1 PUSH2 0x1B6 JUMP JUMPDEST POP DUP6 SWAP2 SWAP1 PUSH2 0x100 EXP DUP2 SLOAD DUP2 PUSH1 0xFF MUL NOT AND SWAP1 DUP4 ISZERO ISZERO MUL OR SWAP1 SSTORE POP DUP5 SWAP2 SWAP1 POP SSTORE POP POP POP JUMP JUMPDEST PUSH1 0x0 DUP1 PUSH1 0x60 PUSH1 0x0 SLOAD PUSH1 0x1 PUSH1 0x0 SWAP1 SLOAD SWAP1 PUSH2 0x100 EXP SWAP1 DIV PUSH1 0xFF AND PUSH1 0x2 DUP1 DUP1 SLOAD PUSH2 0x12B SWAP1 PUSH2 0x2B5 JUMP JUMPDEST DUP1 PUSH1 0x1F ADD PUSH1 0x20 DUP1 SWAP2 DIV MUL PUSH1 0x20 ADD PUSH1 0x40 MLOAD SWAP1 DUP2 ADD PUSH1 0x40 MSTORE DUP1 SWAP3 SWAP2 SWAP1 DUP2 DUP2 MSTORE PUSH1 0x20 ADD DUP3 DUP1 SLOAD PUSH2 0x157 SWAP1 PUSH2 0x2B5 JUMP JUMPDEST DUP1 ISZERO PUSH2 0x1A4 JUMPI DUP1 PUSH1 0x1F LT PUSH2 0x179 JUMPI PUSH2 0x100 DUP1 DUP4 SLOAD DIV MUL DUP4 MSTORE SWAP2 PUSH1 0x20 ADD SWAP2 PUSH2 0x1A4 JUMP JUMPDEST DUP3 ADD SWAP2 SWAP1 PUSH1 0x0 MSTORE PUSH1 0x20 PUSH1 0x0 KECCAK256 SWAP1 JUMPDEST DUP2 SLOAD DUP2 MSTORE SWAP1 PUSH1 0x1 ADD SWAP1 PUSH1 0x20 ADD DUP1 DUP4 GT PUSH2 0x187 JUMPI DUP3 SWAP1 SUB PUSH1 0x1F AND DUP3 ADD SWAP2 JUMPDEST POP POP POP POP POP SWAP1 POP SWAP3 POP SWAP3 POP SWAP3 POP SWAP1 SWAP2 SWAP3 JUMP JUMPDEST DUP3 DUP1 SLOAD PUSH2 0x1C2 SWAP1 PUSH2 0x2B5 JUMP JUMPDEST SWAP1 PUSH1 0x0 MSTORE PUSH1 0x20 PUSH1 0x0 KECCAK256 SWAP1 PUSH1 0x1F ADD PUSH1 0x20 SWAP1 DIV DUP2 ADD SWAP3 DUP3 PUSH2 0x1E4 JUMPI PUSH1 0x0 DUP6 SSTORE PUSH2 0x22A JUMP JUMPDEST DUP3 PUSH1 0x1F LT PUSH2 0x1FD JUMPI DUP1 MLOAD PUSH1 0xFF NOT AND DUP4 DUP1 ADD OR DUP6 SSTORE PUSH2 0x22A JUMP JUMPDEST DUP3 DUP1 ADD PUSH1 0x1 ADD DUP6 SSTORE DUP3 ISZERO PUSH2 0x22A JUMPI SWAP2 DUP3 ADD JUMPDEST DUP3 DUP2 GT ISZERO PUSH2 0x22A JUMPI DUP3 MLOAD DUP3 SSTORE SWAP2 PUSH1 0x20 ADD SWAP2 SWAP1 PUSH1 0x1 ADD SWAP1 PUSH2 0x20F JUMP JUMPDEST POP PUSH2 0x236 SWAP3 SWAP2 POP PUSH2 0x23A JUMP JUMPDEST POP SWAP1 JUMP JUMPDEST JUMPDEST DUP1 DUP3 GT ISZERO PUSH2 0x236 JUMPI PUSH1 0x0 DUP2 SSTORE PUSH1 0x1 ADD PUSH2 0x23B JUMP JUMPDEST DUP4 DUP2 MSTORE PUSH1 0x0 PUSH1 0x20 DUP5 ISZERO ISZERO DUP2 DUP5 ADD MSTORE PUSH1 0x60 PUSH1 0x40 DUP5 ADD MSTORE DUP4 MLOAD DUP1 PUSH1 0x60 DUP6 ADD MSTORE PUSH1 0x0 JUMPDEST DUP2 DUP2 LT ISZERO PUSH2 0x28B JUMPI DUP6 DUP2 ADD DUP4 ADD MLOAD DUP6 DUP3 ADD PUSH1 0x80 ADD MSTORE DUP3 ADD PUSH2 0x26F JUMP JUMPDEST DUP2 DUP2 GT ISZERO PUSH2 0x29D JUMPI PUSH1 0x0 PUSH1 0x80 DUP4 DUP8 ADD ADD MSTORE JUMPDEST POP PUSH1 0x1F ADD PUSH1 0x1F NOT AND SWAP3 SWAP1 SWAP3 ADD PUSH1 0x80 ADD SWAP6 SWAP5 POP POP POP POP POP JUMP JUMPDEST PUSH1 0x1 DUP2 DUP2 SHR SWAP1 DUP3 AND DUP1 PUSH2 0x2C9 JUMPI PUSH1 0x7F DUP3 AND SWAP2 POP JUMPDEST PUSH1 0x20 DUP3 LT DUP2 EQ ISZERO PUSH2 0x2EA JUMPI PUSH4 0x4E487B71 PUSH1 0xE0 SHL PUSH1 0x0 MSTORE PUSH1 0x22 PUSH1 0x4 MSTORE PUSH1 0x24 PUSH1 0x0 REVERT JUMPDEST POP SWAP2 SWAP1 POP JUMP INVALID LOG2 PUSH5 0x6970667358 0x22 SLT KECCAK256 0xCF 0x1E 0xD0 SWAP3 CALLDATASIZE 0xCB TIMESTAMP CHAINID 0xC6 MOD CREATE PUSH22 0xD21F9F13DAA947C5AC0850F3CFD0207BA0D746B36473 PUSH16 0x6C634300080700330000000000000000 "
				},
				"gasEstimates": {
					"creation": {
						"codeDepositCost": "161200",
						"executionCost": "208",
						"totalCost": "161408"
					},
					"external": {
						"captureOutputs()": "infinite",
						"displayOutputs()": "infinite",
						"returnMultiple()": "infinite"
					}
				},
				"methodIdentifiers": {
					"captureOutputs()": "26a89e04",
					"displayOutputs()": "64f13521",
					"returnMultiple()": "e61e4008"
				}
			},
			"storageLayout": {
				"storage": [
					{
						"astId": 3,
						"contract": "02/FuncOutputs.sol:FuncOutputs",
						"label": "_uint",
						"offset": 0,
						"slot": "0",
						"type": "t_uint256"
					},
					{
						"astId": 5,
						"contract": "02/FuncOutputs.sol:FuncOutputs",
						"label": "_bool",
						"offset": 0,
						"slot": "1",
						"type": "t_bool"
					},
					{
						"astId": 7,
						"contract": "02/FuncOutputs.sol:FuncOutputs",
						"label": "_string",
						"offset": 0,
						"slot": "2",
						"type": "t_string_storage"
					}
				],
				"types": {
					"t_bool": {
						"encoding": "inplace",
						"label": "bool",
						"numberOfBytes": "1"
					},
					"t_string_storage": {
						"encoding": "bytes",
						"label": "string",
						"numberOfBytes": "32"
					},
					"t_uint256": {
						"encoding": "inplace",
						"label": "uint256",
						"numberOfBytes": "32"
					}
				}
			},
			"userdoc": {
				"kind": "user",
				"methods": {},
				"version": 1
			}
		}
	}
}