{
	"02/sign.sol": {
		"Sign": {
			"abi": [
				{
					"inputs": [],
					"name": "getSign",
					"outputs": [
						{
							"internalType": "bytes4",
							"name": "",
							"type": "bytes4"
						}
					],
					"stateMutability": "pure",
					"type": "function"
				}
			],
			"devdoc": {
				"kind": "dev",
				"methods": {},
				"version": 1
			},
			"evm": {
				"assembly": "    /* \"02/sign.sol\":57:203  contract Sign{... */\n  mstore(0x40, 0x80)\n  callvalue\n  dup1\n  iszero\n  tag_1\n  jumpi\n  0x00\n  dup1\n  revert\ntag_1:\n  pop\n  dataSize(sub_0)\n  dup1\n  dataOffset(sub_0)\n  0x00\n  codecopy\n  0x00\n  return\nstop\n\nsub_0: assembly {\n        /* \"02/sign.sol\":57:203  contract Sign{... */\n      mstore(0x40, 0x80)\n      callvalue\n      dup1\n      iszero\n      tag_1\n      jumpi\n      0x00\n      dup1\n      revert\n    tag_1:\n      pop\n      jumpi(tag_2, lt(calldatasize, 0x04))\n      shr(0xe0, calldataload(0x00))\n      dup1\n      0xcf504e0a\n      eq\n      tag_3\n      jumpi\n    tag_2:\n      0x00\n      dup1\n      revert\n        /* \"02/sign.sol\":77:200  function  getSign() public pure returns (bytes4){... */\n    tag_3:\n      0x40\n      dup1\n      mload\n      shl(0xe0, 0xa9059cbb)\n        /* \"#utility.yul\":158:210   */\n      dup2\n      mstore\n        /* \"02/sign.sol\":77:200  function  getSign() public pure returns (bytes4){... */\n      swap1\n      mload\n      swap1\n      dup2\n      swap1\n      sub\n        /* \"#utility.yul\":146:148   */\n      0x20\n        /* \"02/sign.sol\":77:200  function  getSign() public pure returns (bytes4){... */\n      add\n      swap1\n      return\n\n    auxdata: 0xa2646970667358221220cfb1e2e77dd70fd71db0f330ca3b483dd0fc4bd7d0512fbdfa7fa879241fa9b664736f6c63430008070033\n}\n",
				"bytecode": {
					"linkReferences": {},
					"object": "6080604052348015600f57600080fd5b50607d80601d6000396000f3fe6080604052348015600f57600080fd5b506004361060285760003560e01c8063cf504e0a14602d575b600080fd5b6040805163a9059cbb60e01b815290519081900360200190f3fea2646970667358221220cfb1e2e77dd70fd71db0f330ca3b483dd0fc4bd7d0512fbdfa7fa879241fa9b664736f6c63430008070033",
					"opcodes": "PUSH1 0x80 PUSH1 0x40 MSTORE CALLVALUE DUP1 ISZERO PUSH1 0xF JUMPI PUSH1 0x0 DUP1 REVERT JUMPDEST POP PUSH1 0x7D DUP1 PUSH1 0x1D PUSH1 0x0 CODECOPY PUSH1 0x0 RETURN INVALID PUSH1 0x80 PUSH1 0x40 MSTORE CALLVALUE DUP1 ISZERO PUSH1 0xF JUMPI PUSH1 0x0 DUP1 REVERT JUMPDEST POP PUSH1 0x4 CALLDATASIZE LT PUSH1 0x28 JUMPI PUSH1 0x0 CALLDATALOAD PUSH1 0xE0 SHR DUP1 PUSH4 0xCF504E0A EQ PUSH1 0x2D JUMPI JUMPDEST PUSH1 0x0 DUP1 REVERT JUMPDEST PUSH1 0x40 DUP1 MLOAD PUSH4 0xA9059CBB PUSH1 0xE0 SHL DUP2 MSTORE SWAP1 MLOAD SWAP1 DUP2 SWAP1 SUB PUSH1 0x20 ADD SWAP1 RETURN INVALID LOG2 PUSH5 0x6970667358 0x22 SLT KECCAK256 0xCF 0xB1 0xE2 0xE7 PUSH30 0xD70FD71DB0F330CA3B483DD0FC4BD7D0512FBDFA7FA879241FA9B664736F PUSH13 0x63430008070033000000000000 "
				},
				"gasEstimates": {
					"creation": {
						"codeDepositCost": "25000",
						"executionCost": "75",
						"totalCost": "25075"
					},
					"external": {
						"getSign()": "155"
					}
				},
				"methodIdentifiers": {
					"getSign()": "cf504e0a"
				}
			},
			"storageLayout": {
				"storage": [],
				"types": null
			},
			"userdoc": {
				"kind": "user",
				"methods": {},
				"version": 1
			}
		}
	}
}