{
	"02/MyOwnable.sol": {
		"MyOwnable": {
			"abi": [
				{
					"inputs": [],
					"stateMutability": "nonpayable",
					"type": "constructor"
				},
				{
					"inputs": [],
					"name": "count",
					"outputs": [
						{
							"internalType": "uint256",
							"name": "",
							"type": "uint256"
						}
					],
					"stateMutability": "view",
					"type": "function"
				},
				{
					"inputs": [],
					"name": "exec",
					"outputs": [],
					"stateMutability": "nonpayable",
					"type": "function"
				},
				{
					"inputs": [],
					"name": "owner",
					"outputs": [
						{
							"internalType": "address",
							"name": "",
							"type": "address"
						}
					],
					"stateMutability": "view",
					"type": "function"
				},
				{
					"inputs": [
						{
							"internalType": "uint256",
							"name": "value",
							"type": "uint256"
						}
					],
					"name": "resetCount",
					"outputs": [],
					"stateMutability": "nonpayable",
					"type": "function"
				},
				{
					"inputs": [
						{
							"internalType": "address",
							"name": "_owner",
							"type": "address"
						}
					],
					"name": "transferOwnership",
					"outputs": [],
					"stateMutability": "nonpayable",
					"type": "function"
				}
			],
			"devdoc": {
				"kind": "dev",
				"methods": {},
				"version": 1
			},
			"evm": {
				"assembly": "    /* \"02/MyOwnable.sol\":57:577  contract MyOwnable{... */\n  mstore(0x40, 0x80)\n    /* \"02/MyOwnable.sol\":132:180  constructor(){... */\n  callvalue\n  dup1\n  iszero\n  tag_1\n  jumpi\n  0x00\n  dup1\n  revert\ntag_1:\n  pop\n    /* \"02/MyOwnable.sol\":155:160  owner */\n  0x00\n    /* \"02/MyOwnable.sol\":155:173  owner = msg.sender */\n  dup1\n  sload\n  not(sub(shl(0xa0, 0x01), 0x01))\n  and\n    /* \"02/MyOwnable.sol\":163:173  msg.sender */\n  caller\n    /* \"02/MyOwnable.sol\":155:173  owner = msg.sender */\n  or\n  swap1\n  sstore\n    /* \"02/MyOwnable.sol\":57:577  contract MyOwnable{... */\n  dataSize(sub_0)\n  dup1\n  dataOffset(sub_0)\n  0x00\n  codecopy\n  0x00\n  return\nstop\n\nsub_0: assembly {\n        /* \"02/MyOwnable.sol\":57:577  contract MyOwnable{... */\n      mstore(0x40, 0x80)\n      callvalue\n      dup1\n      iszero\n      tag_1\n      jumpi\n      0x00\n      dup1\n      revert\n    tag_1:\n      pop\n      jumpi(tag_2, lt(calldatasize, 0x04))\n      shr(0xe0, calldataload(0x00))\n      dup1\n      0x06661abd\n      eq\n      tag_3\n      jumpi\n      dup1\n      0x45083d07\n      eq\n      tag_4\n      jumpi\n      dup1\n      0x8da5cb5b\n      eq\n      tag_5\n      jumpi\n      dup1\n      0xc1c0e9c4\n      eq\n      tag_6\n      jumpi\n      dup1\n      0xf2fde38b\n      eq\n      tag_7\n      jumpi\n    tag_2:\n      0x00\n      dup1\n      revert\n        /* \"02/MyOwnable.sol\":108:125  uint public count */\n    tag_3:\n      tag_8\n      sload(0x01)\n      dup2\n      jump\n    tag_8:\n      mload(0x40)\n        /* \"#utility.yul\":160:185   */\n      swap1\n      dup2\n      mstore\n        /* \"#utility.yul\":148:150   */\n      0x20\n        /* \"#utility.yul\":133:151   */\n      add\n        /* \"02/MyOwnable.sol\":108:125  uint public count */\n    tag_10:\n      mload(0x40)\n      dup1\n      swap2\n      sub\n      swap1\n      return\n        /* \"02/MyOwnable.sol\":486:571  function resetCount(uint value) external onlyOwner(){   ... */\n    tag_4:\n      tag_12\n      tag_13\n      calldatasize\n      0x04\n      tag_14\n      jump\t// in\n    tag_13:\n      tag_15\n      jump\t// in\n    tag_12:\n      stop\n        /* \"02/MyOwnable.sol\":81:102  address  public owner */\n    tag_5:\n      sload(0x00)\n      tag_16\n      swap1\n      sub(shl(0xa0, 0x01), 0x01)\n      and\n      dup2\n      jump\n    tag_16:\n      mload(0x40)\n      sub(shl(0xa0, 0x01), 0x01)\n        /* \"#utility.yul\":545:577   */\n      swap1\n      swap2\n      and\n        /* \"#utility.yul\":527:578   */\n      dup2\n      mstore\n        /* \"#utility.yul\":515:517   */\n      0x20\n        /* \"#utility.yul\":500:518   */\n      add\n        /* \"02/MyOwnable.sol\":81:102  address  public owner */\n      tag_10\n        /* \"#utility.yul\":381:584   */\n      jump\n        /* \"02/MyOwnable.sol\":432:480  function exec() external{... */\n    tag_6:\n      tag_12\n      tag_21\n      jump\t// in\n        /* \"02/MyOwnable.sol\":280:426  function transferOwnership(address _owner) external onlyOwner(){... */\n    tag_7:\n      tag_12\n      tag_23\n      calldatasize\n      0x04\n      tag_24\n      jump\t// in\n    tag_23:\n      tag_25\n      jump\t// in\n        /* \"02/MyOwnable.sol\":486:571  function resetCount(uint value) external onlyOwner(){   ... */\n    tag_15:\n        /* \"02/MyOwnable.sol\":224:229  owner */\n      and(sub(shl(0xa0, 0x01), 0x01), sload(0x00))\n        /* \"02/MyOwnable.sol\":233:243  msg.sender */\n      caller\n        /* \"02/MyOwnable.sol\":224:243  owner == msg.sender */\n      eq\n        /* \"02/MyOwnable.sol\":216:256  require(owner == msg.sender,\"not owner\") */\n      tag_27\n      jumpi\n      mload(0x40)\n      shl(0xe5, 0x461bcd)\n      dup2\n      mstore\n        /* \"#utility.yul\":1082:1084   */\n      0x20\n        /* \"02/MyOwnable.sol\":216:256  require(owner == msg.sender,\"not owner\") */\n      0x04\n      dup3\n      add\n        /* \"#utility.yul\":1064:1085   */\n      mstore\n        /* \"#utility.yul\":1121:1122   */\n      0x09\n        /* \"#utility.yul\":1101:1119   */\n      0x24\n      dup3\n      add\n        /* \"#utility.yul\":1094:1123   */\n      mstore\n      shl(0xb9, 0x3737ba1037bbb732b9)\n        /* \"#utility.yul\":1139:1157   */\n      0x44\n      dup3\n      add\n        /* \"#utility.yul\":1132:1171   */\n      mstore\n        /* \"#utility.yul\":1188:1206   */\n      0x64\n      add\n        /* \"02/MyOwnable.sol\":216:256  require(owner == msg.sender,\"not owner\") */\n    tag_28:\n      mload(0x40)\n      dup1\n      swap2\n      sub\n      swap1\n      revert\n    tag_27:\n        /* \"02/MyOwnable.sol\":551:556  count */\n      0x01\n        /* \"02/MyOwnable.sol\":551:564  count = value */\n      sstore\n        /* \"02/MyOwnable.sol\":486:571  function resetCount(uint value) external onlyOwner(){   ... */\n      jump\t// out\n        /* \"02/MyOwnable.sol\":432:480  function exec() external{... */\n    tag_21:\n        /* \"02/MyOwnable.sol\":466:471  count */\n      0x01\n        /* \"02/MyOwnable.sol\":466:473  count++ */\n      dup1\n      sload\n      swap1\n        /* \"02/MyOwnable.sol\":466:471  count */\n      0x00\n        /* \"02/MyOwnable.sol\":466:473  count++ */\n      tag_32\n      dup4\n      tag_33\n      jump\t// in\n    tag_32:\n      swap2\n      swap1\n      pop\n      sstore\n      pop\n        /* \"02/MyOwnable.sol\":432:480  function exec() external{... */\n      jump\t// out\n        /* \"02/MyOwnable.sol\":280:426  function transferOwnership(address _owner) external onlyOwner(){... */\n    tag_25:\n        /* \"02/MyOwnable.sol\":224:229  owner */\n      and(sub(shl(0xa0, 0x01), 0x01), sload(0x00))\n        /* \"02/MyOwnable.sol\":233:243  msg.sender */\n      caller\n        /* \"02/MyOwnable.sol\":224:243  owner == msg.sender */\n      eq\n        /* \"02/MyOwnable.sol\":216:256  require(owner == msg.sender,\"not owner\") */\n      tag_35\n      jumpi\n      mload(0x40)\n      shl(0xe5, 0x461bcd)\n      dup2\n      mstore\n        /* \"#utility.yul\":1082:1084   */\n      0x20\n        /* \"02/MyOwnable.sol\":216:256  require(owner == msg.sender,\"not owner\") */\n      0x04\n      dup3\n      add\n        /* \"#utility.yul\":1064:1085   */\n      mstore\n        /* \"#utility.yul\":1121:1122   */\n      0x09\n        /* \"#utility.yul\":1101:1119   */\n      0x24\n      dup3\n      add\n        /* \"#utility.yul\":1094:1123   */\n      mstore\n      shl(0xb9, 0x3737ba1037bbb732b9)\n        /* \"#utility.yul\":1139:1157   */\n      0x44\n      dup3\n      add\n        /* \"#utility.yul\":1132:1171   */\n      mstore\n        /* \"#utility.yul\":1188:1206   */\n      0x64\n      add\n        /* \"02/MyOwnable.sol\":216:256  require(owner == msg.sender,\"not owner\") */\n      tag_28\n        /* \"#utility.yul\":880:1212   */\n      jump\n        /* \"02/MyOwnable.sol\":216:256  require(owner == msg.sender,\"not owner\") */\n    tag_35:\n      sub(shl(0xa0, 0x01), 0x01)\n        /* \"02/MyOwnable.sol\":361:381  _owner != address(0) */\n      dup2\n      and\n        /* \"02/MyOwnable.sol\":353:395  require(_owner != address(0),\"can't be 0\") */\n      tag_38\n      jumpi\n      mload(0x40)\n      shl(0xe5, 0x461bcd)\n      dup2\n      mstore\n        /* \"#utility.yul\":1656:1658   */\n      0x20\n        /* \"02/MyOwnable.sol\":353:395  require(_owner != address(0),\"can't be 0\") */\n      0x04\n      dup3\n      add\n        /* \"#utility.yul\":1638:1659   */\n      mstore\n        /* \"#utility.yul\":1695:1697   */\n      0x0a\n        /* \"#utility.yul\":1675:1693   */\n      0x24\n      dup3\n      add\n        /* \"#utility.yul\":1668:1698   */\n      mstore\n      shl(0xb4, 0x063616e2774206265203)\n        /* \"#utility.yul\":1714:1732   */\n      0x44\n      dup3\n      add\n        /* \"#utility.yul\":1707:1747   */\n      mstore\n        /* \"#utility.yul\":1764:1782   */\n      0x64\n      add\n        /* \"02/MyOwnable.sol\":353:395  require(_owner != address(0),\"can't be 0\") */\n      tag_28\n        /* \"#utility.yul\":1454:1788   */\n      jump\n        /* \"02/MyOwnable.sol\":353:395  require(_owner != address(0),\"can't be 0\") */\n    tag_38:\n        /* \"02/MyOwnable.sol\":405:410  owner */\n      0x00\n        /* \"02/MyOwnable.sol\":405:419  owner = _owner */\n      dup1\n      sload\n      not(sub(shl(0xa0, 0x01), 0x01))\n      and\n      sub(shl(0xa0, 0x01), 0x01)\n      swap3\n      swap1\n      swap3\n      and\n      swap2\n      swap1\n      swap2\n      or\n      swap1\n      sstore\n        /* \"02/MyOwnable.sol\":280:426  function transferOwnership(address _owner) external onlyOwner(){... */\n      jump\t// out\n        /* \"#utility.yul\":196:376   */\n    tag_14:\n        /* \"#utility.yul\":255:261   */\n      0x00\n        /* \"#utility.yul\":308:310   */\n      0x20\n        /* \"#utility.yul\":296:305   */\n      dup3\n        /* \"#utility.yul\":287:294   */\n      dup5\n        /* \"#utility.yul\":283:306   */\n      sub\n        /* \"#utility.yul\":279:311   */\n      slt\n        /* \"#utility.yul\":276:328   */\n      iszero\n      tag_44\n      jumpi\n        /* \"#utility.yul\":324:325   */\n      0x00\n        /* \"#utility.yul\":321:322   */\n      dup1\n        /* \"#utility.yul\":314:326   */\n      revert\n        /* \"#utility.yul\":276:328   */\n    tag_44:\n      pop\n        /* \"#utility.yul\":347:370   */\n      calldataload\n      swap2\n        /* \"#utility.yul\":196:376   */\n      swap1\n      pop\n      jump\t// out\n        /* \"#utility.yul\":589:875   */\n    tag_24:\n        /* \"#utility.yul\":648:654   */\n      0x00\n        /* \"#utility.yul\":701:703   */\n      0x20\n        /* \"#utility.yul\":689:698   */\n      dup3\n        /* \"#utility.yul\":680:687   */\n      dup5\n        /* \"#utility.yul\":676:699   */\n      sub\n        /* \"#utility.yul\":672:704   */\n      slt\n        /* \"#utility.yul\":669:721   */\n      iszero\n      tag_47\n      jumpi\n        /* \"#utility.yul\":717:718   */\n      0x00\n        /* \"#utility.yul\":714:715   */\n      dup1\n        /* \"#utility.yul\":707:719   */\n      revert\n        /* \"#utility.yul\":669:721   */\n    tag_47:\n        /* \"#utility.yul\":743:766   */\n      dup2\n      calldataload\n      sub(shl(0xa0, 0x01), 0x01)\n        /* \"#utility.yul\":795:826   */\n      dup2\n      and\n        /* \"#utility.yul\":785:827   */\n      dup2\n      eq\n        /* \"#utility.yul\":775:845   */\n      tag_48\n      jumpi\n        /* \"#utility.yul\":841:842   */\n      0x00\n        /* \"#utility.yul\":838:839   */\n      dup1\n        /* \"#utility.yul\":831:843   */\n      revert\n        /* \"#utility.yul\":775:845   */\n    tag_48:\n        /* \"#utility.yul\":864:869   */\n      swap4\n        /* \"#utility.yul\":589:875   */\n      swap3\n      pop\n      pop\n      pop\n      jump\t// out\n        /* \"#utility.yul\":1217:1449   */\n    tag_33:\n        /* \"#utility.yul\":1256:1259   */\n      0x00\n        /* \"#utility.yul\":1277:1294   */\n      0x01\n      dup3\n      add\n        /* \"#utility.yul\":1274:1414   */\n      tag_51\n      jumpi\n        /* \"#utility.yul\":1336:1346   */\n      0x4e487b71\n        /* \"#utility.yul\":1331:1334   */\n      0xe0\n        /* \"#utility.yul\":1327:1347   */\n      shl\n        /* \"#utility.yul\":1324:1325   */\n      0x00\n        /* \"#utility.yul\":1317:1348   */\n      mstore\n        /* \"#utility.yul\":1371:1375   */\n      0x11\n        /* \"#utility.yul\":1368:1369   */\n      0x04\n        /* \"#utility.yul\":1361:1376   */\n      mstore\n        /* \"#utility.yul\":1399:1403   */\n      0x24\n        /* \"#utility.yul\":1396:1397   */\n      0x00\n        /* \"#utility.yul\":1389:1404   */\n      revert\n        /* \"#utility.yul\":1274:1414   */\n    tag_51:\n      pop\n        /* \"#utility.yul\":1441:1442   */\n      0x01\n        /* \"#utility.yul\":1430:1443   */\n      add\n      swap1\n        /* \"#utility.yul\":1217:1449   */\n      jump\t// out\n\n    auxdata: 0xa264697066735822122060ffbe40a36278ed262e777bd7ccd4ca447aa668df15f0fbbce65f31cb8ea32a64736f6c634300081a0033\n}\n",
				"bytecode": {
					"linkReferences": {},
					"object": "6080604052348015600e575f80fd5b505f80546001600160a01b0319163317905561027b8061002d5f395ff3fe608060405234801561000f575f80fd5b5060043610610055575f3560e01c806306661abd1461005957806345083d07146100755780638da5cb5b1461008a578063c1c0e9c4146100b4578063f2fde38b146100bc575b5f80fd5b61006260015481565b6040519081526020015b60405180910390f35b6100886100833660046101dd565b6100cf565b005b5f5461009c906001600160a01b031681565b6040516001600160a01b03909116815260200161006c565b61008861011e565b6100886100ca3660046101f4565b610134565b5f546001600160a01b031633146101195760405162461bcd60e51b81526020600482015260096024820152683737ba1037bbb732b960b91b60448201526064015b60405180910390fd5b600155565b60018054905f61012d83610221565b9190505550565b5f546001600160a01b031633146101795760405162461bcd60e51b81526020600482015260096024820152683737ba1037bbb732b960b91b6044820152606401610110565b6001600160a01b0381166101bc5760405162461bcd60e51b815260206004820152600a602482015269063616e277420626520360b41b6044820152606401610110565b5f80546001600160a01b0319166001600160a01b0392909216919091179055565b5f602082840312156101ed575f80fd5b5035919050565b5f60208284031215610204575f80fd5b81356001600160a01b038116811461021a575f80fd5b9392505050565b5f6001820161023e57634e487b7160e01b5f52601160045260245ffd5b506001019056fea264697066735822122060ffbe40a36278ed262e777bd7ccd4ca447aa668df15f0fbbce65f31cb8ea32a64736f6c634300081a0033",
					"opcodes": "PUSH1 0x80 PUSH1 0x40 MSTORE CALLVALUE DUP1 ISZERO PUSH1 0xE JUMPI PUSH0 DUP1 REVERT JUMPDEST POP PUSH0 DUP1 SLOAD PUSH1 0x1 PUSH1 0x1 PUSH1 0xA0 SHL SUB NOT AND CALLER OR SWAP1 SSTORE PUSH2 0x27B DUP1 PUSH2 0x2D PUSH0 CODECOPY PUSH0 RETURN INVALID PUSH1 0x80 PUSH1 0x40 MSTORE CALLVALUE DUP1 ISZERO PUSH2 0xF JUMPI PUSH0 DUP1 REVERT JUMPDEST POP PUSH1 0x4 CALLDATASIZE LT PUSH2 0x55 JUMPI PUSH0 CALLDATALOAD PUSH1 0xE0 SHR DUP1 PUSH4 0x6661ABD EQ PUSH2 0x59 JUMPI DUP1 PUSH4 0x45083D07 EQ PUSH2 0x75 JUMPI DUP1 PUSH4 0x8DA5CB5B EQ PUSH2 0x8A JUMPI DUP1 PUSH4 0xC1C0E9C4 EQ PUSH2 0xB4 JUMPI DUP1 PUSH4 0xF2FDE38B EQ PUSH2 0xBC JUMPI JUMPDEST PUSH0 DUP1 REVERT JUMPDEST PUSH2 0x62 PUSH1 0x1 SLOAD DUP2 JUMP JUMPDEST PUSH1 0x40 MLOAD SWAP1 DUP2 MSTORE PUSH1 0x20 ADD JUMPDEST PUSH1 0x40 MLOAD DUP1 SWAP2 SUB SWAP1 RETURN JUMPDEST PUSH2 0x88 PUSH2 0x83 CALLDATASIZE PUSH1 0x4 PUSH2 0x1DD JUMP JUMPDEST PUSH2 0xCF JUMP JUMPDEST STOP JUMPDEST PUSH0 SLOAD PUSH2 0x9C SWAP1 PUSH1 0x1 PUSH1 0x1 PUSH1 0xA0 SHL SUB AND DUP2 JUMP JUMPDEST PUSH1 0x40 MLOAD PUSH1 0x1 PUSH1 0x1 PUSH1 0xA0 SHL SUB SWAP1 SWAP2 AND DUP2 MSTORE PUSH1 0x20 ADD PUSH2 0x6C JUMP JUMPDEST PUSH2 0x88 PUSH2 0x11E JUMP JUMPDEST PUSH2 0x88 PUSH2 0xCA CALLDATASIZE PUSH1 0x4 PUSH2 0x1F4 JUMP JUMPDEST PUSH2 0x134 JUMP JUMPDEST PUSH0 SLOAD PUSH1 0x1 PUSH1 0x1 PUSH1 0xA0 SHL SUB AND CALLER EQ PUSH2 0x119 JUMPI PUSH1 0x40 MLOAD PUSH3 0x461BCD PUSH1 0xE5 SHL DUP2 MSTORE PUSH1 0x20 PUSH1 0x4 DUP3 ADD MSTORE PUSH1 0x9 PUSH1 0x24 DUP3 ADD MSTORE PUSH9 0x3737BA1037BBB732B9 PUSH1 0xB9 SHL PUSH1 0x44 DUP3 ADD MSTORE PUSH1 0x64 ADD JUMPDEST PUSH1 0x40 MLOAD DUP1 SWAP2 SUB SWAP1 REVERT JUMPDEST PUSH1 0x1 SSTORE JUMP JUMPDEST PUSH1 0x1 DUP1 SLOAD SWAP1 PUSH0 PUSH2 0x12D DUP4 PUSH2 0x221 JUMP JUMPDEST SWAP2 SWAP1 POP SSTORE POP JUMP JUMPDEST PUSH0 SLOAD PUSH1 0x1 PUSH1 0x1 PUSH1 0xA0 SHL SUB AND CALLER EQ PUSH2 0x179 JUMPI PUSH1 0x40 MLOAD PUSH3 0x461BCD PUSH1 0xE5 SHL DUP2 MSTORE PUSH1 0x20 PUSH1 0x4 DUP3 ADD MSTORE PUSH1 0x9 PUSH1 0x24 DUP3 ADD MSTORE PUSH9 0x3737BA1037BBB732B9 PUSH1 0xB9 SHL PUSH1 0x44 DUP3 ADD MSTORE PUSH1 0x64 ADD PUSH2 0x110 JUMP JUMPDEST PUSH1 0x1 PUSH1 0x1 PUSH1 0xA0 SHL SUB DUP2 AND PUSH2 0x1BC JUMPI PUSH1 0x40 MLOAD PUSH3 0x461BCD PUSH1 0xE5 SHL DUP2 MSTORE PUSH1 0x20 PUSH1 0x4 DUP3 ADD MSTORE PUSH1 0xA PUSH1 0x24 DUP3 ADD MSTORE PUSH10 0x63616E2774206265203 PUSH1 0xB4 SHL PUSH1 0x44 DUP3 ADD MSTORE PUSH1 0x64 ADD PUSH2 0x110 JUMP JUMPDEST PUSH0 DUP1 SLOAD PUSH1 0x1 PUSH1 0x1 PUSH1 0xA0 SHL SUB NOT AND PUSH1 0x1 PUSH1 0x1 PUSH1 0xA0 SHL SUB SWAP3 SWAP1 SWAP3 AND SWAP2 SWAP1 SWAP2 OR SWAP1 SSTORE JUMP JUMPDEST PUSH0 PUSH1 0x20 DUP3 DUP5 SUB SLT ISZERO PUSH2 0x1ED JUMPI PUSH0 DUP1 REVERT JUMPDEST POP CALLDATALOAD SWAP2 SWAP1 POP JUMP JUMPDEST PUSH0 PUSH1 0x20 DUP3 DUP5 SUB SLT ISZERO PUSH2 0x204 JUMPI PUSH0 DUP1 REVERT JUMPDEST DUP2 CALLDATALOAD PUSH1 0x1 PUSH1 0x1 PUSH1 0xA0 SHL SUB DUP2 AND DUP2 EQ PUSH2 0x21A JUMPI PUSH0 DUP1 REVERT JUMPDEST SWAP4 SWAP3 POP POP POP JUMP JUMPDEST PUSH0 PUSH1 0x1 DUP3 ADD PUSH2 0x23E JUMPI PUSH4 0x4E487B71 PUSH1 0xE0 SHL PUSH0 MSTORE PUSH1 0x11 PUSH1 0x4 MSTORE PUSH1 0x24 PUSH0 REVERT JUMPDEST POP PUSH1 0x1 ADD SWAP1 JUMP INVALID LOG2 PUSH5 0x6970667358 0x22 SLT KECCAK256 PUSH1 0xFF 0xBE BLOCKHASH LOG3 PUSH3 0x78ED26 0x2E PUSH24 0x7BD7CCD4CA447AA668DF15F0FBBCE65F31CB8EA32A64736F PUSH13 0x634300081A0033000000000000 "
				},
				"gasEstimates": {
					"creation": {
						"codeDepositCost": "127000",
						"executionCost": "24403",
						"totalCost": "151403"
					},
					"external": {
						"count()": "2261",
						"exec()": "24471",
						"owner()": "2357",
						"resetCount(uint256)": "24461",
						"transferOwnership(address)": "26773"
					}
				},
				"methodIdentifiers": {
					"count()": "06661abd",
					"exec()": "c1c0e9c4",
					"owner()": "8da5cb5b",
					"resetCount(uint256)": "45083d07",
					"transferOwnership(address)": "f2fde38b"
				}
			},
			"storageLayout": {
				"storage": [
					{
						"astId": 3,
						"contract": "02/MyOwnable.sol:MyOwnable",
						"label": "owner",
						"offset": 0,
						"slot": "0",
						"type": "t_address"
					},
					{
						"astId": 5,
						"contract": "02/MyOwnable.sol:MyOwnable",
						"label": "count",
						"offset": 0,
						"slot": "1",
						"type": "t_uint256"
					}
				],
				"types": {
					"t_address": {
						"encoding": "inplace",
						"label": "address",
						"numberOfBytes": "20"
					},
					"t_uint256": {
						"encoding": "inplace",
						"label": "uint256",
						"numberOfBytes": "32"
					}
				}
			},
			"userdoc": {
				"kind": "user",
				"methods": {},
				"version": 1
			}
		}
	}
}