{
	"03/Visibility.sol": {
		"Base": {
			"abi": [
				{
					"inputs": [],
					"name": "example",
					"outputs": [
						{
							"internalType": "uint256",
							"name": "",
							"type": "uint256"
						}
					],
					"stateMutability": "view",
					"type": "function"
				},
				{
					"inputs": [],
					"name": "externalFunc",
					"outputs": [
						{
							"internalType": "uint256",
							"name": "",
							"type": "uint256"
						}
					],
					"stateMutability": "pure",
					"type": "function"
				},
				{
					"inputs": [],
					"name": "publicFunc",
					"outputs": [
						{
							"internalType": "uint256",
							"name": "",
							"type": "uint256"
						}
					],
					"stateMutability": "pure",
					"type": "function"
				},
				{
					"inputs": [],
					"name": "z",
					"outputs": [
						{
							"internalType": "uint256",
							"name": "",
							"type": "uint256"
						}
					],
					"stateMutability": "view",
					"type": "function"
				}
			],
			"devdoc": {
				"kind": "dev",
				"methods": {},
				"version": 1
			},
			"evm": {
				"assembly": "    /* \"03/Visibility.sol\":57:652  contract Base{... */\n  mstore(0x40, 0x80)\n  callvalue\n  dup1\n  iszero\n  tag_1\n  jumpi\n  0x00\n  dup1\n  revert\ntag_1:\n  pop\n  dataSize(sub_0)\n  dup1\n  dataOffset(sub_0)\n  0x00\n  codecopy\n  0x00\n  return\nstop\n\nsub_0: assembly {\n        /* \"03/Visibility.sol\":57:652  contract Base{... */\n      mstore(0x40, 0x80)\n      callvalue\n      dup1\n      iszero\n      tag_1\n      jumpi\n      0x00\n      dup1\n      revert\n    tag_1:\n      pop\n      jumpi(tag_2, lt(calldatasize, 0x04))\n      shr(0xe0, calldataload(0x00))\n      dup1\n      0x42b148aa\n      eq\n      tag_3\n      jumpi\n      dup1\n      0x4b73383f\n      eq\n      tag_4\n      jumpi\n      dup1\n      0x54353f2f\n      eq\n      tag_5\n      jumpi\n      dup1\n      0xc5d7802e\n      eq\n      tag_6\n      jumpi\n    tag_2:\n      0x00\n      dup1\n      revert\n        /* \"03/Visibility.sol\":381:459  function externalFunc() external pure returns(uint){... */\n    tag_3:\n        /* \"03/Visibility.sol\":449:452  100 */\n      0x64\n        /* \"03/Visibility.sol\":381:459  function externalFunc() external pure returns(uint){... */\n    tag_7:\n      mload(0x40)\n        /* \"#utility.yul\":160:185   */\n      swap1\n      dup2\n      mstore\n        /* \"#utility.yul\":148:150   */\n      0x20\n        /* \"#utility.yul\":133:151   */\n      add\n        /* \"03/Visibility.sol\":381:459  function externalFunc() external pure returns(uint){... */\n      mload(0x40)\n      dup1\n      swap2\n      sub\n      swap1\n      return\n        /* \"03/Visibility.sol\":301:374  function publicFunc() public pure returns(uint){... */\n    tag_4:\n        /* \"03/Visibility.sol\":365:367  10 */\n      0x0a\n        /* \"03/Visibility.sol\":301:374  function publicFunc() public pure returns(uint){... */\n      jump(tag_7)\n        /* \"03/Visibility.sol\":465:650  function example() external view returns (uint){... */\n    tag_5:\n      tag_7\n      tag_15\n      jump\t// in\n        /* \"03/Visibility.sol\":117:130  uint public z */\n    tag_6:\n      tag_7\n      sload(0x02)\n      dup2\n      jump\n        /* \"03/Visibility.sol\":465:650  function example() external view returns (uint){... */\n    tag_15:\n        /* \"03/Visibility.sol\":507:511  uint */\n      0x00\n        /* \"03/Visibility.sol\":611:612  z */\n      sload(0x02)\n        /* \"03/Visibility.sol\":609:610  y */\n      sload(0x01)\n        /* \"03/Visibility.sol\":607:608  x */\n      sload(0x00)\n        /* \"03/Visibility.sol\":607:610  x+y */\n      tag_28\n      swap2\n      swap1\n      tag_29\n      jump\t// in\n    tag_28:\n        /* \"03/Visibility.sol\":607:612  x+y+z */\n      tag_30\n      swap2\n      swap1\n      tag_29\n      jump\t// in\n    tag_30:\n        /* \"03/Visibility.sol\":600:612  return x+y+z */\n      swap1\n      pop\n        /* \"03/Visibility.sol\":465:650  function example() external view returns (uint){... */\n      swap1\n      jump\t// out\n        /* \"#utility.yul\":196:418   */\n    tag_29:\n        /* \"#utility.yul\":261:270   */\n      dup1\n      dup3\n      add\n        /* \"#utility.yul\":282:292   */\n      dup1\n      dup3\n      gt\n        /* \"#utility.yul\":279:412   */\n      iszero\n      tag_36\n      jumpi\n        /* \"#utility.yul\":334:344   */\n      0x4e487b71\n        /* \"#utility.yul\":329:332   */\n      0xe0\n        /* \"#utility.yul\":325:345   */\n      shl\n        /* \"#utility.yul\":322:323   */\n      0x00\n        /* \"#utility.yul\":315:346   */\n      mstore\n        /* \"#utility.yul\":369:373   */\n      0x11\n        /* \"#utility.yul\":366:367   */\n      0x04\n        /* \"#utility.yul\":359:374   */\n      mstore\n        /* \"#utility.yul\":397:401   */\n      0x24\n        /* \"#utility.yul\":394:395   */\n      0x00\n        /* \"#utility.yul\":387:402   */\n      revert\n        /* \"#utility.yul\":279:412   */\n    tag_36:\n        /* \"#utility.yul\":196:418   */\n      swap3\n      swap2\n      pop\n      pop\n      jump\t// out\n\n    auxdata: 0xa2646970667358221220c6a0f4b11b642dc18ff3430388406f452cfdd4ab937209a117a451f518f4657a64736f6c634300081a0033\n}\n",
				"bytecode": {
					"linkReferences": {},
					"object": "6080604052348015600e575f80fd5b5060e98061001b5f395ff3fe6080604052348015600e575f80fd5b50600436106044575f3560e01c806342b148aa1460485780634b73383f14605d57806354353f2f146063578063c5d7802e146069575b5f80fd5b60645b60405190815260200160405180910390f35b600a604b565b604b6071565b604b60025481565b5f6002546001545f5460829190608f565b608a9190608f565b905090565b8082018082111560ad57634e487b7160e01b5f52601160045260245ffd5b9291505056fea2646970667358221220c6a0f4b11b642dc18ff3430388406f452cfdd4ab937209a117a451f518f4657a64736f6c634300081a0033",
					"opcodes": "PUSH1 0x80 PUSH1 0x40 MSTORE CALLVALUE DUP1 ISZERO PUSH1 0xE JUMPI PUSH0 DUP1 REVERT JUMPDEST POP PUSH1 0xE9 DUP1 PUSH2 0x1B PUSH0 CODECOPY PUSH0 RETURN INVALID PUSH1 0x80 PUSH1 0x40 MSTORE CALLVALUE DUP1 ISZERO PUSH1 0xE JUMPI PUSH0 DUP1 REVERT JUMPDEST POP PUSH1 0x4 CALLDATASIZE LT PUSH1 0x44 JUMPI PUSH0 CALLDATALOAD PUSH1 0xE0 SHR DUP1 PUSH4 0x42B148AA EQ PUSH1 0x48 JUMPI DUP1 PUSH4 0x4B73383F EQ PUSH1 0x5D JUMPI DUP1 PUSH4 0x54353F2F EQ PUSH1 0x63 JUMPI DUP1 PUSH4 0xC5D7802E EQ PUSH1 0x69 JUMPI JUMPDEST PUSH0 DUP1 REVERT JUMPDEST PUSH1 0x64 JUMPDEST PUSH1 0x40 MLOAD SWAP1 DUP2 MSTORE PUSH1 0x20 ADD PUSH1 0x40 MLOAD DUP1 SWAP2 SUB SWAP1 RETURN JUMPDEST PUSH1 0xA PUSH1 0x4B JUMP JUMPDEST PUSH1 0x4B PUSH1 0x71 JUMP JUMPDEST PUSH1 0x4B PUSH1 0x2 SLOAD DUP2 JUMP JUMPDEST PUSH0 PUSH1 0x2 SLOAD PUSH1 0x1 SLOAD PUSH0 SLOAD PUSH1 0x82 SWAP2 SWAP1 PUSH1 0x8F JUMP JUMPDEST PUSH1 0x8A SWAP2 SWAP1 PUSH1 0x8F JUMP JUMPDEST SWAP1 POP SWAP1 JUMP JUMPDEST DUP1 DUP3 ADD DUP1 DUP3 GT ISZERO PUSH1 0xAD JUMPI PUSH4 0x4E487B71 PUSH1 0xE0 SHL PUSH0 MSTORE PUSH1 0x11 PUSH1 0x4 MSTORE PUSH1 0x24 PUSH0 REVERT JUMPDEST SWAP3 SWAP2 POP POP JUMP INVALID LOG2 PUSH5 0x6970667358 0x22 SLT KECCAK256 0xC6 LOG0 DELEGATECALL 0xB1 SHL PUSH5 0x2DC18FF343 SUB DUP9 BLOCKHASH PUSH16 0x452CFDD4AB937209A117A451F518F465 PUSH27 0x64736F6C634300081A003300000000000000000000000000000000 "
				},
				"gasEstimates": {
					"creation": {
						"codeDepositCost": "46600",
						"executionCost": "97",
						"totalCost": "46697"
					},
					"external": {
						"example()": "infinite",
						"externalFunc()": "146",
						"publicFunc()": "179",
						"z()": "2326"
					},
					"internal": {
						"internalFunc()": "infinite",
						"privateFunc()": "infinite"
					}
				},
				"methodIdentifiers": {
					"example()": "54353f2f",
					"externalFunc()": "42b148aa",
					"publicFunc()": "4b73383f",
					"z()": "c5d7802e"
				}
			},
			"storageLayout": {
				"storage": [
					{
						"astId": 3,
						"contract": "03/Visibility.sol:Base",
						"label": "x",
						"offset": 0,
						"slot": "0",
						"type": "t_uint256"
					},
					{
						"astId": 5,
						"contract": "03/Visibility.sol:Base",
						"label": "y",
						"offset": 0,
						"slot": "1",
						"type": "t_uint256"
					},
					{
						"astId": 7,
						"contract": "03/Visibility.sol:Base",
						"label": "z",
						"offset": 0,
						"slot": "2",
						"type": "t_uint256"
					}
				],
				"types": {
					"t_uint256": {
						"encoding": "inplace",
						"label": "uint256",
						"numberOfBytes": "32"
					}
				}
			},
			"userdoc": {
				"kind": "user",
				"methods": {},
				"version": 1
			}
		}
	}
}