{
	"03/Call.sol": {
		"TestContract": {
			"abi": [
				{
					"anonymous": false,
					"inputs": [
						{
							"indexed": false,
							"internalType": "address",
							"name": "caller",
							"type": "address"
						},
						{
							"indexed": false,
							"internalType": "uint256",
							"name": "amount",
							"type": "uint256"
						},
						{
							"indexed": false,
							"internalType": "string",
							"name": "msg",
							"type": "string"
						}
					],
					"name": "Log",
					"type": "event"
				},
				{
					"stateMutability": "payable",
					"type": "fallback"
				},
				{
					"inputs": [
						{
							"internalType": "string",
							"name": "_msg",
							"type": "string"
						},
						{
							"internalType": "uint256",
							"name": "_num",
							"type": "uint256"
						}
					],
					"name": "foo",
					"outputs": [],
					"stateMutability": "nonpayable",
					"type": "function"
				},
				{
					"inputs": [],
					"name": "message",
					"outputs": [
						{
							"internalType": "string",
							"name": "",
							"type": "string"
						}
					],
					"stateMutability": "view",
					"type": "function"
				},
				{
					"inputs": [],
					"name": "num",
					"outputs": [
						{
							"internalType": "uint256",
							"name": "",
							"type": "uint256"
						}
					],
					"stateMutability": "view",
					"type": "function"
				},
				{
					"stateMutability": "payable",
					"type": "receive"
				}
			],
			"devdoc": {
				"kind": "dev",
				"methods": {},
				"version": 1
			},
			"evm": {
				"assembly": "    /* \"03/Call.sol\":57:443  contract TestContract{... */\n  mstore(0x40, 0x80)\n  callvalue\n  dup1\n  iszero\n  tag_1\n  jumpi\n  0x00\n  dup1\n  revert\ntag_1:\n  pop\n  dataSize(sub_0)\n  dup1\n  dataOffset(sub_0)\n  0x00\n  codecopy\n  0x00\n  return\nstop\n\nsub_0: assembly {\n        /* \"03/Call.sol\":57:443  contract TestContract{... */\n      mstore(0x40, 0x80)\n      jumpi(tag_1, lt(calldatasize, 0x04))\n      shr(0xe0, calldataload(0x00))\n      dup1\n      0x24ccab8f\n      eq\n      tag_3\n      jumpi\n      dup1\n      0x4e70b1dc\n      eq\n      tag_4\n      jumpi\n      dup1\n      0xe21f37ce\n      eq\n      tag_5\n      jumpi\n      jump(tag_2)\n    tag_1:\n      jumpi(tag_2, calldatasize)\n      stop\n    tag_2:\n        /* \"03/Call.sol\":384:433  Log(msg.sender,msg.value,\" fallback  was called\") */\n      0x4e3358e5bdb38f499a83fbcd33d16343569f3b6fe53021022dede6364017b4a8\n        /* \"03/Call.sol\":388:398  msg.sender */\n      caller\n        /* \"03/Call.sol\":399:408  msg.value */\n      callvalue\n        /* \"03/Call.sol\":384:433  Log(msg.sender,msg.value,\" fallback  was called\") */\n      mload(0x40)\n      tag_10\n      swap3\n      swap2\n      swap1\n      tag_11\n      jump\t// in\n    tag_10:\n      mload(0x40)\n      dup1\n      swap2\n      sub\n      swap1\n      log1\n        /* \"03/Call.sol\":57:443  contract TestContract{... */\n      stop\n        /* \"03/Call.sol\":190:295  function foo(string memory _msg, uint256 _num) public {... */\n    tag_3:\n      callvalue\n      dup1\n      iszero\n      tag_12\n      jumpi\n      0x00\n      dup1\n      revert\n    tag_12:\n      pop\n      tag_13\n      0x04\n      dup1\n      calldatasize\n      sub\n      dup2\n      add\n      swap1\n      tag_14\n      swap2\n      swap1\n      tag_15\n      jump\t// in\n    tag_14:\n      tag_16\n      jump\t// in\n    tag_13:\n      stop\n        /* \"03/Call.sol\":168:183  uint public num */\n    tag_4:\n      callvalue\n      dup1\n      iszero\n      tag_17\n      jumpi\n      0x00\n      dup1\n      revert\n    tag_17:\n      pop\n      tag_18\n      tag_19\n      jump\t// in\n    tag_18:\n      mload(0x40)\n      tag_20\n      swap2\n      swap1\n      tag_21\n      jump\t// in\n    tag_20:\n      mload(0x40)\n      dup1\n      swap2\n      sub\n      swap1\n      return\n        /* \"03/Call.sol\":141:162  string public message */\n    tag_5:\n      callvalue\n      dup1\n      iszero\n      tag_22\n      jumpi\n      0x00\n      dup1\n      revert\n    tag_22:\n      pop\n      tag_23\n      tag_24\n      jump\t// in\n    tag_23:\n      mload(0x40)\n      tag_25\n      swap2\n      swap1\n      tag_26\n      jump\t// in\n    tag_25:\n      mload(0x40)\n      dup1\n      swap2\n      sub\n      swap1\n      return\n        /* \"03/Call.sol\":190:295  function foo(string memory _msg, uint256 _num) public {... */\n    tag_16:\n        /* \"03/Call.sol\":264:268  _msg */\n      dup2\n        /* \"03/Call.sol\":254:261  message */\n      0x00\n        /* \"03/Call.sol\":254:268  message = _msg */\n      swap1\n      dup2\n      tag_28\n      swap2\n      swap1\n      tag_29\n      jump\t// in\n    tag_28:\n      pop\n        /* \"03/Call.sol\":284:288  _num */\n      dup1\n        /* \"03/Call.sol\":278:281  num */\n      0x01\n        /* \"03/Call.sol\":278:288  num = _num */\n      dup2\n      swap1\n      sstore\n      pop\n        /* \"03/Call.sol\":190:295  function foo(string memory _msg, uint256 _num) public {... */\n      pop\n      pop\n      jump\t// out\n        /* \"03/Call.sol\":168:183  uint public num */\n    tag_19:\n      sload(0x01)\n      dup2\n      jump\t// out\n        /* \"03/Call.sol\":141:162  string public message */\n    tag_24:\n      0x00\n      dup1\n      sload\n      tag_30\n      swap1\n      tag_31\n      jump\t// in\n    tag_30:\n      dup1\n      0x1f\n      add\n      0x20\n      dup1\n      swap2\n      div\n      mul\n      0x20\n      add\n      mload(0x40)\n      swap1\n      dup2\n      add\n      0x40\n      mstore\n      dup1\n      swap3\n      swap2\n      swap1\n      dup2\n      dup2\n      mstore\n      0x20\n      add\n      dup3\n      dup1\n      sload\n      tag_32\n      swap1\n      tag_31\n      jump\t// in\n    tag_32:\n      dup1\n      iszero\n      tag_33\n      jumpi\n      dup1\n      0x1f\n      lt\n      tag_34\n      jumpi\n      0x0100\n      dup1\n      dup4\n      sload\n      div\n      mul\n      dup4\n      mstore\n      swap2\n      0x20\n      add\n      swap2\n      jump(tag_33)\n    tag_34:\n      dup3\n      add\n      swap2\n      swap1\n      0x00\n      mstore\n      keccak256(0x00, 0x20)\n      swap1\n    tag_35:\n      dup2\n      sload\n      dup2\n      mstore\n      swap1\n      0x01\n      add\n      swap1\n      0x20\n      add\n      dup1\n      dup4\n      gt\n      tag_35\n      jumpi\n      dup3\n      swap1\n      sub\n      0x1f\n      and\n      dup3\n      add\n      swap2\n    tag_33:\n      pop\n      pop\n      pop\n      pop\n      pop\n      dup2\n      jump\t// out\n        /* \"#utility.yul\":7:133   */\n    tag_36:\n        /* \"#utility.yul\":44:51   */\n      0x00\n        /* \"#utility.yul\":84:126   */\n      0xffffffffffffffffffffffffffffffffffffffff\n        /* \"#utility.yul\":77:82   */\n      dup3\n        /* \"#utility.yul\":73:127   */\n      and\n        /* \"#utility.yul\":62:127   */\n      swap1\n      pop\n        /* \"#utility.yul\":7:133   */\n      swap2\n      swap1\n      pop\n      jump\t// out\n        /* \"#utility.yul\":139:235   */\n    tag_37:\n        /* \"#utility.yul\":176:183   */\n      0x00\n        /* \"#utility.yul\":205:229   */\n      tag_81\n        /* \"#utility.yul\":223:228   */\n      dup3\n        /* \"#utility.yul\":205:229   */\n      tag_36\n      jump\t// in\n    tag_81:\n        /* \"#utility.yul\":194:229   */\n      swap1\n      pop\n        /* \"#utility.yul\":139:235   */\n      swap2\n      swap1\n      pop\n      jump\t// out\n        /* \"#utility.yul\":241:359   */\n    tag_38:\n        /* \"#utility.yul\":328:352   */\n      tag_83\n        /* \"#utility.yul\":346:351   */\n      dup2\n        /* \"#utility.yul\":328:352   */\n      tag_37\n      jump\t// in\n    tag_83:\n        /* \"#utility.yul\":323:326   */\n      dup3\n        /* \"#utility.yul\":316:353   */\n      mstore\n        /* \"#utility.yul\":241:359   */\n      pop\n      pop\n      jump\t// out\n        /* \"#utility.yul\":365:442   */\n    tag_39:\n        /* \"#utility.yul\":402:409   */\n      0x00\n        /* \"#utility.yul\":431:436   */\n      dup2\n        /* \"#utility.yul\":420:436   */\n      swap1\n      pop\n        /* \"#utility.yul\":365:442   */\n      swap2\n      swap1\n      pop\n      jump\t// out\n        /* \"#utility.yul\":448:566   */\n    tag_40:\n        /* \"#utility.yul\":535:559   */\n      tag_86\n        /* \"#utility.yul\":553:558   */\n      dup2\n        /* \"#utility.yul\":535:559   */\n      tag_39\n      jump\t// in\n    tag_86:\n        /* \"#utility.yul\":530:533   */\n      dup3\n        /* \"#utility.yul\":523:560   */\n      mstore\n        /* \"#utility.yul\":448:566   */\n      pop\n      pop\n      jump\t// out\n        /* \"#utility.yul\":572:741   */\n    tag_41:\n        /* \"#utility.yul\":656:667   */\n      0x00\n        /* \"#utility.yul\":690:696   */\n      dup3\n        /* \"#utility.yul\":685:688   */\n      dup3\n        /* \"#utility.yul\":678:697   */\n      mstore\n        /* \"#utility.yul\":730:734   */\n      0x20\n        /* \"#utility.yul\":725:728   */\n      dup3\n        /* \"#utility.yul\":721:735   */\n      add\n        /* \"#utility.yul\":706:735   */\n      swap1\n      pop\n        /* \"#utility.yul\":572:741   */\n      swap3\n      swap2\n      pop\n      pop\n      jump\t// out\n        /* \"#utility.yul\":747:918   */\n    tag_42:\n        /* \"#utility.yul\":887:910   */\n      0x2066616c6c6261636b20207761732063616c6c65640000000000000000000000\n        /* \"#utility.yul\":883:884   */\n      0x00\n        /* \"#utility.yul\":875:881   */\n      dup3\n        /* \"#utility.yul\":871:885   */\n      add\n        /* \"#utility.yul\":864:911   */\n      mstore\n        /* \"#utility.yul\":747:918   */\n      pop\n      jump\t// out\n        /* \"#utility.yul\":924:1290   */\n    tag_43:\n        /* \"#utility.yul\":1066:1069   */\n      0x00\n        /* \"#utility.yul\":1087:1154   */\n      tag_90\n        /* \"#utility.yul\":1151:1153   */\n      0x15\n        /* \"#utility.yul\":1146:1149   */\n      dup4\n        /* \"#utility.yul\":1087:1154   */\n      tag_41\n      jump\t// in\n    tag_90:\n        /* \"#utility.yul\":1080:1154   */\n      swap2\n      pop\n        /* \"#utility.yul\":1163:1256   */\n      tag_91\n        /* \"#utility.yul\":1252:1255   */\n      dup3\n        /* \"#utility.yul\":1163:1256   */\n      tag_42\n      jump\t// in\n    tag_91:\n        /* \"#utility.yul\":1281:1283   */\n      0x20\n        /* \"#utility.yul\":1276:1279   */\n      dup3\n        /* \"#utility.yul\":1272:1284   */\n      add\n        /* \"#utility.yul\":1265:1284   */\n      swap1\n      pop\n        /* \"#utility.yul\":924:1290   */\n      swap2\n      swap1\n      pop\n      jump\t// out\n        /* \"#utility.yul\":1296:1935   */\n    tag_11:\n        /* \"#utility.yul\":1518:1522   */\n      0x00\n        /* \"#utility.yul\":1556:1558   */\n      0x60\n        /* \"#utility.yul\":1545:1554   */\n      dup3\n        /* \"#utility.yul\":1541:1559   */\n      add\n        /* \"#utility.yul\":1533:1559   */\n      swap1\n      pop\n        /* \"#utility.yul\":1569:1640   */\n      tag_93\n        /* \"#utility.yul\":1637:1638   */\n      0x00\n        /* \"#utility.yul\":1626:1635   */\n      dup4\n        /* \"#utility.yul\":1622:1639   */\n      add\n        /* \"#utility.yul\":1613:1619   */\n      dup6\n        /* \"#utility.yul\":1569:1640   */\n      tag_38\n      jump\t// in\n    tag_93:\n        /* \"#utility.yul\":1650:1722   */\n      tag_94\n        /* \"#utility.yul\":1718:1720   */\n      0x20\n        /* \"#utility.yul\":1707:1716   */\n      dup4\n        /* \"#utility.yul\":1703:1721   */\n      add\n        /* \"#utility.yul\":1694:1700   */\n      dup5\n        /* \"#utility.yul\":1650:1722   */\n      tag_40\n      jump\t// in\n    tag_94:\n        /* \"#utility.yul\":1769:1778   */\n      dup2\n        /* \"#utility.yul\":1763:1767   */\n      dup2\n        /* \"#utility.yul\":1759:1779   */\n      sub\n        /* \"#utility.yul\":1754:1756   */\n      0x40\n        /* \"#utility.yul\":1743:1752   */\n      dup4\n        /* \"#utility.yul\":1739:1757   */\n      add\n        /* \"#utility.yul\":1732:1780   */\n      mstore\n        /* \"#utility.yul\":1797:1928   */\n      tag_95\n        /* \"#utility.yul\":1923:1927   */\n      dup2\n        /* \"#utility.yul\":1797:1928   */\n      tag_43\n      jump\t// in\n    tag_95:\n        /* \"#utility.yul\":1789:1928   */\n      swap1\n      pop\n        /* \"#utility.yul\":1296:1935   */\n      swap4\n      swap3\n      pop\n      pop\n      pop\n      jump\t// out\n        /* \"#utility.yul\":1941:2016   */\n    tag_44:\n        /* \"#utility.yul\":1974:1980   */\n      0x00\n        /* \"#utility.yul\":2007:2009   */\n      0x40\n        /* \"#utility.yul\":2001:2010   */\n      mload\n        /* \"#utility.yul\":1991:2010   */\n      swap1\n      pop\n        /* \"#utility.yul\":1941:2016   */\n      swap1\n      jump\t// out\n        /* \"#utility.yul\":2022:2139   */\n    tag_45:\n        /* \"#utility.yul\":2131:2132   */\n      0x00\n        /* \"#utility.yul\":2128:2129   */\n      dup1\n        /* \"#utility.yul\":2121:2133   */\n      revert\n        /* \"#utility.yul\":2145:2262   */\n    tag_46:\n        /* \"#utility.yul\":2254:2255   */\n      0x00\n        /* \"#utility.yul\":2251:2252   */\n      dup1\n        /* \"#utility.yul\":2244:2256   */\n      revert\n        /* \"#utility.yul\":2268:2385   */\n    tag_47:\n        /* \"#utility.yul\":2377:2378   */\n      0x00\n        /* \"#utility.yul\":2374:2375   */\n      dup1\n        /* \"#utility.yul\":2367:2379   */\n      revert\n        /* \"#utility.yul\":2391:2508   */\n    tag_48:\n        /* \"#utility.yul\":2500:2501   */\n      0x00\n        /* \"#utility.yul\":2497:2498   */\n      dup1\n        /* \"#utility.yul\":2490:2502   */\n      revert\n        /* \"#utility.yul\":2514:2616   */\n    tag_49:\n        /* \"#utility.yul\":2555:2561   */\n      0x00\n        /* \"#utility.yul\":2606:2608   */\n      0x1f\n        /* \"#utility.yul\":2602:2609   */\n      not\n        /* \"#utility.yul\":2597:2599   */\n      0x1f\n        /* \"#utility.yul\":2590:2595   */\n      dup4\n        /* \"#utility.yul\":2586:2600   */\n      add\n        /* \"#utility.yul\":2582:2610   */\n      and\n        /* \"#utility.yul\":2572:2610   */\n      swap1\n      pop\n        /* \"#utility.yul\":2514:2616   */\n      swap2\n      swap1\n      pop\n      jump\t// out\n        /* \"#utility.yul\":2622:2802   */\n    tag_50:\n        /* \"#utility.yul\":2670:2747   */\n      0x4e487b7100000000000000000000000000000000000000000000000000000000\n        /* \"#utility.yul\":2667:2668   */\n      0x00\n        /* \"#utility.yul\":2660:2748   */\n      mstore\n        /* \"#utility.yul\":2767:2771   */\n      0x41\n        /* \"#utility.yul\":2764:2765   */\n      0x04\n        /* \"#utility.yul\":2757:2772   */\n      mstore\n        /* \"#utility.yul\":2791:2795   */\n      0x24\n        /* \"#utility.yul\":2788:2789   */\n      0x00\n        /* \"#utility.yul\":2781:2796   */\n      revert\n        /* \"#utility.yul\":2808:3089   */\n    tag_51:\n        /* \"#utility.yul\":2891:2918   */\n      tag_104\n        /* \"#utility.yul\":2913:2917   */\n      dup3\n        /* \"#utility.yul\":2891:2918   */\n      tag_49\n      jump\t// in\n    tag_104:\n        /* \"#utility.yul\":2883:2889   */\n      dup2\n        /* \"#utility.yul\":2879:2919   */\n      add\n        /* \"#utility.yul\":3021:3027   */\n      dup2\n        /* \"#utility.yul\":3009:3019   */\n      dup2\n        /* \"#utility.yul\":3006:3028   */\n      lt\n        /* \"#utility.yul\":2985:3003   */\n      0xffffffffffffffff\n        /* \"#utility.yul\":2973:2983   */\n      dup3\n        /* \"#utility.yul\":2970:3004   */\n      gt\n        /* \"#utility.yul\":2967:3029   */\n      or\n        /* \"#utility.yul\":2964:3052   */\n      iszero\n      tag_105\n      jumpi\n        /* \"#utility.yul\":3032:3050   */\n      tag_106\n      tag_50\n      jump\t// in\n    tag_106:\n        /* \"#utility.yul\":2964:3052   */\n    tag_105:\n        /* \"#utility.yul\":3072:3082   */\n      dup1\n        /* \"#utility.yul\":3068:3070   */\n      0x40\n        /* \"#utility.yul\":3061:3083   */\n      mstore\n        /* \"#utility.yul\":2851:3089   */\n      pop\n        /* \"#utility.yul\":2808:3089   */\n      pop\n      pop\n      jump\t// out\n        /* \"#utility.yul\":3095:3224   */\n    tag_52:\n        /* \"#utility.yul\":3129:3135   */\n      0x00\n        /* \"#utility.yul\":3156:3176   */\n      tag_108\n      tag_44\n      jump\t// in\n    tag_108:\n        /* \"#utility.yul\":3146:3176   */\n      swap1\n      pop\n        /* \"#utility.yul\":3185:3218   */\n      tag_109\n        /* \"#utility.yul\":3213:3217   */\n      dup3\n        /* \"#utility.yul\":3205:3211   */\n      dup3\n        /* \"#utility.yul\":3185:3218   */\n      tag_51\n      jump\t// in\n    tag_109:\n        /* \"#utility.yul\":3095:3224   */\n      swap2\n      swap1\n      pop\n      jump\t// out\n        /* \"#utility.yul\":3230:3538   */\n    tag_53:\n        /* \"#utility.yul\":3292:3296   */\n      0x00\n        /* \"#utility.yul\":3382:3400   */\n      0xffffffffffffffff\n        /* \"#utility.yul\":3374:3380   */\n      dup3\n        /* \"#utility.yul\":3371:3401   */\n      gt\n        /* \"#utility.yul\":3368:3424   */\n      iszero\n      tag_111\n      jumpi\n        /* \"#utility.yul\":3404:3422   */\n      tag_112\n      tag_50\n      jump\t// in\n    tag_112:\n        /* \"#utility.yul\":3368:3424   */\n    tag_111:\n        /* \"#utility.yul\":3442:3471   */\n      tag_113\n        /* \"#utility.yul\":3464:3470   */\n      dup3\n        /* \"#utility.yul\":3442:3471   */\n      tag_49\n      jump\t// in\n    tag_113:\n        /* \"#utility.yul\":3434:3471   */\n      swap1\n      pop\n        /* \"#utility.yul\":3526:3530   */\n      0x20\n        /* \"#utility.yul\":3520:3524   */\n      dup2\n        /* \"#utility.yul\":3516:3531   */\n      add\n        /* \"#utility.yul\":3508:3531   */\n      swap1\n      pop\n        /* \"#utility.yul\":3230:3538   */\n      swap2\n      swap1\n      pop\n      jump\t// out\n        /* \"#utility.yul\":3544:3692   */\n    tag_54:\n        /* \"#utility.yul\":3642:3648   */\n      dup3\n        /* \"#utility.yul\":3637:3640   */\n      dup2\n        /* \"#utility.yul\":3632:3635   */\n      dup4\n        /* \"#utility.yul\":3619:3649   */\n      calldatacopy\n        /* \"#utility.yul\":3683:3684   */\n      0x00\n        /* \"#utility.yul\":3674:3680   */\n      dup4\n        /* \"#utility.yul\":3669:3672   */\n      dup4\n        /* \"#utility.yul\":3665:3681   */\n      add\n        /* \"#utility.yul\":3658:3685   */\n      mstore\n        /* \"#utility.yul\":3544:3692   */\n      pop\n      pop\n      pop\n      jump\t// out\n        /* \"#utility.yul\":3698:4123   */\n    tag_55:\n        /* \"#utility.yul\":3776:3781   */\n      0x00\n        /* \"#utility.yul\":3801:3867   */\n      tag_116\n        /* \"#utility.yul\":3817:3866   */\n      tag_117\n        /* \"#utility.yul\":3859:3865   */\n      dup5\n        /* \"#utility.yul\":3817:3866   */\n      tag_53\n      jump\t// in\n    tag_117:\n        /* \"#utility.yul\":3801:3867   */\n      tag_52\n      jump\t// in\n    tag_116:\n        /* \"#utility.yul\":3792:3867   */\n      swap1\n      pop\n        /* \"#utility.yul\":3890:3896   */\n      dup3\n        /* \"#utility.yul\":3883:3888   */\n      dup2\n        /* \"#utility.yul\":3876:3897   */\n      mstore\n        /* \"#utility.yul\":3928:3932   */\n      0x20\n        /* \"#utility.yul\":3921:3926   */\n      dup2\n        /* \"#utility.yul\":3917:3933   */\n      add\n        /* \"#utility.yul\":3966:3969   */\n      dup5\n        /* \"#utility.yul\":3957:3963   */\n      dup5\n        /* \"#utility.yul\":3952:3955   */\n      dup5\n        /* \"#utility.yul\":3948:3964   */\n      add\n        /* \"#utility.yul\":3945:3970   */\n      gt\n        /* \"#utility.yul\":3942:4054   */\n      iszero\n      tag_118\n      jumpi\n        /* \"#utility.yul\":3973:4052   */\n      tag_119\n      tag_48\n      jump\t// in\n    tag_119:\n        /* \"#utility.yul\":3942:4054   */\n    tag_118:\n        /* \"#utility.yul\":4063:4117   */\n      tag_120\n        /* \"#utility.yul\":4110:4116   */\n      dup5\n        /* \"#utility.yul\":4105:4108   */\n      dup3\n        /* \"#utility.yul\":4100:4103   */\n      dup6\n        /* \"#utility.yul\":4063:4117   */\n      tag_54\n      jump\t// in\n    tag_120:\n        /* \"#utility.yul\":3782:4123   */\n      pop\n        /* \"#utility.yul\":3698:4123   */\n      swap4\n      swap3\n      pop\n      pop\n      pop\n      jump\t// out\n        /* \"#utility.yul\":4143:4483   */\n    tag_56:\n        /* \"#utility.yul\":4199:4204   */\n      0x00\n        /* \"#utility.yul\":4248:4251   */\n      dup3\n        /* \"#utility.yul\":4241:4245   */\n      0x1f\n        /* \"#utility.yul\":4233:4239   */\n      dup4\n        /* \"#utility.yul\":4229:4246   */\n      add\n        /* \"#utility.yul\":4225:4252   */\n      slt\n        /* \"#utility.yul\":4215:4337   */\n      tag_122\n      jumpi\n        /* \"#utility.yul\":4256:4335   */\n      tag_123\n      tag_47\n      jump\t// in\n    tag_123:\n        /* \"#utility.yul\":4215:4337   */\n    tag_122:\n        /* \"#utility.yul\":4373:4379   */\n      dup2\n        /* \"#utility.yul\":4360:4380   */\n      calldataload\n        /* \"#utility.yul\":4398:4477   */\n      tag_124\n        /* \"#utility.yul\":4473:4476   */\n      dup5\n        /* \"#utility.yul\":4465:4471   */\n      dup3\n        /* \"#utility.yul\":4458:4462   */\n      0x20\n        /* \"#utility.yul\":4450:4456   */\n      dup7\n        /* \"#utility.yul\":4446:4463   */\n      add\n        /* \"#utility.yul\":4398:4477   */\n      tag_55\n      jump\t// in\n    tag_124:\n        /* \"#utility.yul\":4389:4477   */\n      swap2\n      pop\n        /* \"#utility.yul\":4205:4483   */\n      pop\n        /* \"#utility.yul\":4143:4483   */\n      swap3\n      swap2\n      pop\n      pop\n      jump\t// out\n        /* \"#utility.yul\":4489:4611   */\n    tag_57:\n        /* \"#utility.yul\":4562:4586   */\n      tag_126\n        /* \"#utility.yul\":4580:4585   */\n      dup2\n        /* \"#utility.yul\":4562:4586   */\n      tag_39\n      jump\t// in\n    tag_126:\n        /* \"#utility.yul\":4555:4560   */\n      dup2\n        /* \"#utility.yul\":4552:4587   */\n      eq\n        /* \"#utility.yul\":4542:4605   */\n      tag_127\n      jumpi\n        /* \"#utility.yul\":4601:4602   */\n      0x00\n        /* \"#utility.yul\":4598:4599   */\n      dup1\n        /* \"#utility.yul\":4591:4603   */\n      revert\n        /* \"#utility.yul\":4542:4605   */\n    tag_127:\n        /* \"#utility.yul\":4489:4611   */\n      pop\n      jump\t// out\n        /* \"#utility.yul\":4617:4756   */\n    tag_58:\n        /* \"#utility.yul\":4663:4668   */\n      0x00\n        /* \"#utility.yul\":4701:4707   */\n      dup2\n        /* \"#utility.yul\":4688:4708   */\n      calldataload\n        /* \"#utility.yul\":4679:4708   */\n      swap1\n      pop\n        /* \"#utility.yul\":4717:4750   */\n      tag_129\n        /* \"#utility.yul\":4744:4749   */\n      dup2\n        /* \"#utility.yul\":4717:4750   */\n      tag_57\n      jump\t// in\n    tag_129:\n        /* \"#utility.yul\":4617:4756   */\n      swap3\n      swap2\n      pop\n      pop\n      jump\t// out\n        /* \"#utility.yul\":4762:5416   */\n    tag_15:\n        /* \"#utility.yul\":4840:4846   */\n      0x00\n        /* \"#utility.yul\":4848:4854   */\n      dup1\n        /* \"#utility.yul\":4897:4899   */\n      0x40\n        /* \"#utility.yul\":4885:4894   */\n      dup4\n        /* \"#utility.yul\":4876:4883   */\n      dup6\n        /* \"#utility.yul\":4872:4895   */\n      sub\n        /* \"#utility.yul\":4868:4900   */\n      slt\n        /* \"#utility.yul\":4865:4984   */\n      iszero\n      tag_131\n      jumpi\n        /* \"#utility.yul\":4903:4982   */\n      tag_132\n      tag_45\n      jump\t// in\n    tag_132:\n        /* \"#utility.yul\":4865:4984   */\n    tag_131:\n        /* \"#utility.yul\":5051:5052   */\n      0x00\n        /* \"#utility.yul\":5040:5049   */\n      dup4\n        /* \"#utility.yul\":5036:5053   */\n      add\n        /* \"#utility.yul\":5023:5054   */\n      calldataload\n        /* \"#utility.yul\":5081:5099   */\n      0xffffffffffffffff\n        /* \"#utility.yul\":5073:5079   */\n      dup2\n        /* \"#utility.yul\":5070:5100   */\n      gt\n        /* \"#utility.yul\":5067:5184   */\n      iszero\n      tag_133\n      jumpi\n        /* \"#utility.yul\":5103:5182   */\n      tag_134\n      tag_46\n      jump\t// in\n    tag_134:\n        /* \"#utility.yul\":5067:5184   */\n    tag_133:\n        /* \"#utility.yul\":5208:5271   */\n      tag_135\n        /* \"#utility.yul\":5263:5270   */\n      dup6\n        /* \"#utility.yul\":5254:5260   */\n      dup3\n        /* \"#utility.yul\":5243:5252   */\n      dup7\n        /* \"#utility.yul\":5239:5261   */\n      add\n        /* \"#utility.yul\":5208:5271   */\n      tag_56\n      jump\t// in\n    tag_135:\n        /* \"#utility.yul\":5198:5271   */\n      swap3\n      pop\n        /* \"#utility.yul\":4994:5281   */\n      pop\n        /* \"#utility.yul\":5320:5322   */\n      0x20\n        /* \"#utility.yul\":5346:5399   */\n      tag_136\n        /* \"#utility.yul\":5391:5398   */\n      dup6\n        /* \"#utility.yul\":5382:5388   */\n      dup3\n        /* \"#utility.yul\":5371:5380   */\n      dup7\n        /* \"#utility.yul\":5367:5389   */\n      add\n        /* \"#utility.yul\":5346:5399   */\n      tag_58\n      jump\t// in\n    tag_136:\n        /* \"#utility.yul\":5336:5399   */\n      swap2\n      pop\n        /* \"#utility.yul\":5291:5409   */\n      pop\n        /* \"#utility.yul\":4762:5416   */\n      swap3\n      pop\n      swap3\n      swap1\n      pop\n      jump\t// out\n        /* \"#utility.yul\":5422:5644   */\n    tag_21:\n        /* \"#utility.yul\":5515:5519   */\n      0x00\n        /* \"#utility.yul\":5553:5555   */\n      0x20\n        /* \"#utility.yul\":5542:5551   */\n      dup3\n        /* \"#utility.yul\":5538:5556   */\n      add\n        /* \"#utility.yul\":5530:5556   */\n      swap1\n      pop\n        /* \"#utility.yul\":5566:5637   */\n      tag_138\n        /* \"#utility.yul\":5634:5635   */\n      0x00\n        /* \"#utility.yul\":5623:5632   */\n      dup4\n        /* \"#utility.yul\":5619:5636   */\n      add\n        /* \"#utility.yul\":5610:5616   */\n      dup5\n        /* \"#utility.yul\":5566:5637   */\n      tag_40\n      jump\t// in\n    tag_138:\n        /* \"#utility.yul\":5422:5644   */\n      swap3\n      swap2\n      pop\n      pop\n      jump\t// out\n        /* \"#utility.yul\":5650:5749   */\n    tag_59:\n        /* \"#utility.yul\":5702:5708   */\n      0x00\n        /* \"#utility.yul\":5736:5741   */\n      dup2\n        /* \"#utility.yul\":5730:5742   */\n      mload\n        /* \"#utility.yul\":5720:5742   */\n      swap1\n      pop\n        /* \"#utility.yul\":5650:5749   */\n      swap2\n      swap1\n      pop\n      jump\t// out\n        /* \"#utility.yul\":5755:5894   */\n    tag_60:\n        /* \"#utility.yul\":5844:5850   */\n      dup3\n        /* \"#utility.yul\":5839:5842   */\n      dup2\n        /* \"#utility.yul\":5834:5837   */\n      dup4\n        /* \"#utility.yul\":5828:5851   */\n      mcopy\n        /* \"#utility.yul\":5885:5886   */\n      0x00\n        /* \"#utility.yul\":5876:5882   */\n      dup4\n        /* \"#utility.yul\":5871:5874   */\n      dup4\n        /* \"#utility.yul\":5867:5883   */\n      add\n        /* \"#utility.yul\":5860:5887   */\n      mstore\n        /* \"#utility.yul\":5755:5894   */\n      pop\n      pop\n      pop\n      jump\t// out\n        /* \"#utility.yul\":5900:6277   */\n    tag_61:\n        /* \"#utility.yul\":5988:5991   */\n      0x00\n        /* \"#utility.yul\":6016:6055   */\n      tag_142\n        /* \"#utility.yul\":6049:6054   */\n      dup3\n        /* \"#utility.yul\":6016:6055   */\n      tag_59\n      jump\t// in\n    tag_142:\n        /* \"#utility.yul\":6071:6142   */\n      tag_143\n        /* \"#utility.yul\":6135:6141   */\n      dup2\n        /* \"#utility.yul\":6130:6133   */\n      dup6\n        /* \"#utility.yul\":6071:6142   */\n      tag_41\n      jump\t// in\n    tag_143:\n        /* \"#utility.yul\":6064:6142   */\n      swap4\n      pop\n        /* \"#utility.yul\":6151:6216   */\n      tag_144\n        /* \"#utility.yul\":6209:6215   */\n      dup2\n        /* \"#utility.yul\":6204:6207   */\n      dup6\n        /* \"#utility.yul\":6197:6201   */\n      0x20\n        /* \"#utility.yul\":6190:6195   */\n      dup7\n        /* \"#utility.yul\":6186:6202   */\n      add\n        /* \"#utility.yul\":6151:6216   */\n      tag_60\n      jump\t// in\n    tag_144:\n        /* \"#utility.yul\":6241:6270   */\n      tag_145\n        /* \"#utility.yul\":6263:6269   */\n      dup2\n        /* \"#utility.yul\":6241:6270   */\n      tag_49\n      jump\t// in\n    tag_145:\n        /* \"#utility.yul\":6236:6239   */\n      dup5\n        /* \"#utility.yul\":6232:6271   */\n      add\n        /* \"#utility.yul\":6225:6271   */\n      swap2\n      pop\n        /* \"#utility.yul\":5992:6277   */\n      pop\n        /* \"#utility.yul\":5900:6277   */\n      swap3\n      swap2\n      pop\n      pop\n      jump\t// out\n        /* \"#utility.yul\":6283:6596   */\n    tag_26:\n        /* \"#utility.yul\":6396:6400   */\n      0x00\n        /* \"#utility.yul\":6434:6436   */\n      0x20\n        /* \"#utility.yul\":6423:6432   */\n      dup3\n        /* \"#utility.yul\":6419:6437   */\n      add\n        /* \"#utility.yul\":6411:6437   */\n      swap1\n      pop\n        /* \"#utility.yul\":6483:6492   */\n      dup2\n        /* \"#utility.yul\":6477:6481   */\n      dup2\n        /* \"#utility.yul\":6473:6493   */\n      sub\n        /* \"#utility.yul\":6469:6470   */\n      0x00\n        /* \"#utility.yul\":6458:6467   */\n      dup4\n        /* \"#utility.yul\":6454:6471   */\n      add\n        /* \"#utility.yul\":6447:6494   */\n      mstore\n        /* \"#utility.yul\":6511:6589   */\n      tag_147\n        /* \"#utility.yul\":6584:6588   */\n      dup2\n        /* \"#utility.yul\":6575:6581   */\n      dup5\n        /* \"#utility.yul\":6511:6589   */\n      tag_61\n      jump\t// in\n    tag_147:\n        /* \"#utility.yul\":6503:6589   */\n      swap1\n      pop\n        /* \"#utility.yul\":6283:6596   */\n      swap3\n      swap2\n      pop\n      pop\n      jump\t// out\n        /* \"#utility.yul\":6602:6782   */\n    tag_62:\n        /* \"#utility.yul\":6650:6727   */\n      0x4e487b7100000000000000000000000000000000000000000000000000000000\n        /* \"#utility.yul\":6647:6648   */\n      0x00\n        /* \"#utility.yul\":6640:6728   */\n      mstore\n        /* \"#utility.yul\":6747:6751   */\n      0x22\n        /* \"#utility.yul\":6744:6745   */\n      0x04\n        /* \"#utility.yul\":6737:6752   */\n      mstore\n        /* \"#utility.yul\":6771:6775   */\n      0x24\n        /* \"#utility.yul\":6768:6769   */\n      0x00\n        /* \"#utility.yul\":6761:6776   */\n      revert\n        /* \"#utility.yul\":6788:7108   */\n    tag_31:\n        /* \"#utility.yul\":6832:6838   */\n      0x00\n        /* \"#utility.yul\":6869:6870   */\n      0x02\n        /* \"#utility.yul\":6863:6867   */\n      dup3\n        /* \"#utility.yul\":6859:6871   */\n      div\n        /* \"#utility.yul\":6849:6871   */\n      swap1\n      pop\n        /* \"#utility.yul\":6916:6917   */\n      0x01\n        /* \"#utility.yul\":6910:6914   */\n      dup3\n        /* \"#utility.yul\":6906:6918   */\n      and\n        /* \"#utility.yul\":6937:6955   */\n      dup1\n        /* \"#utility.yul\":6927:7008   */\n      tag_150\n      jumpi\n        /* \"#utility.yul\":6993:6997   */\n      0x7f\n        /* \"#utility.yul\":6985:6991   */\n      dup3\n        /* \"#utility.yul\":6981:6998   */\n      and\n        /* \"#utility.yul\":6971:6998   */\n      swap2\n      pop\n        /* \"#utility.yul\":6927:7008   */\n    tag_150:\n        /* \"#utility.yul\":7055:7057   */\n      0x20\n        /* \"#utility.yul\":7047:7053   */\n      dup3\n        /* \"#utility.yul\":7044:7058   */\n      lt\n        /* \"#utility.yul\":7024:7042   */\n      dup2\n        /* \"#utility.yul\":7021:7059   */\n      sub\n        /* \"#utility.yul\":7018:7102   */\n      tag_151\n      jumpi\n        /* \"#utility.yul\":7074:7092   */\n      tag_152\n      tag_62\n      jump\t// in\n    tag_152:\n        /* \"#utility.yul\":7018:7102   */\n    tag_151:\n        /* \"#utility.yul\":6839:7108   */\n      pop\n        /* \"#utility.yul\":6788:7108   */\n      swap2\n      swap1\n      pop\n      jump\t// out\n        /* \"#utility.yul\":7114:7255   */\n    tag_63:\n        /* \"#utility.yul\":7163:7167   */\n      0x00\n        /* \"#utility.yul\":7186:7189   */\n      dup2\n        /* \"#utility.yul\":7178:7189   */\n      swap1\n      pop\n        /* \"#utility.yul\":7209:7212   */\n      dup2\n        /* \"#utility.yul\":7206:7207   */\n      0x00\n        /* \"#utility.yul\":7199:7213   */\n      mstore\n        /* \"#utility.yul\":7243:7247   */\n      0x20\n        /* \"#utility.yul\":7240:7241   */\n      0x00\n        /* \"#utility.yul\":7230:7248   */\n      keccak256\n        /* \"#utility.yul\":7222:7248   */\n      swap1\n      pop\n        /* \"#utility.yul\":7114:7255   */\n      swap2\n      swap1\n      pop\n      jump\t// out\n        /* \"#utility.yul\":7261:7354   */\n    tag_64:\n        /* \"#utility.yul\":7298:7304   */\n      0x00\n        /* \"#utility.yul\":7345:7347   */\n      0x20\n        /* \"#utility.yul\":7340:7342   */\n      0x1f\n        /* \"#utility.yul\":7333:7338   */\n      dup4\n        /* \"#utility.yul\":7329:7343   */\n      add\n        /* \"#utility.yul\":7325:7348   */\n      div\n        /* \"#utility.yul\":7315:7348   */\n      swap1\n      pop\n        /* \"#utility.yul\":7261:7354   */\n      swap2\n      swap1\n      pop\n      jump\t// out\n        /* \"#utility.yul\":7360:7467   */\n    tag_65:\n        /* \"#utility.yul\":7404:7412   */\n      0x00\n        /* \"#utility.yul\":7454:7459   */\n      dup3\n        /* \"#utility.yul\":7448:7452   */\n      dup3\n        /* \"#utility.yul\":7444:7460   */\n      shl\n        /* \"#utility.yul\":7423:7460   */\n      swap1\n      pop\n        /* \"#utility.yul\":7360:7467   */\n      swap3\n      swap2\n      pop\n      pop\n      jump\t// out\n        /* \"#utility.yul\":7473:7866   */\n    tag_66:\n        /* \"#utility.yul\":7542:7548   */\n      0x00\n        /* \"#utility.yul\":7592:7593   */\n      0x08\n        /* \"#utility.yul\":7580:7590   */\n      dup4\n        /* \"#utility.yul\":7576:7594   */\n      mul\n        /* \"#utility.yul\":7615:7712   */\n      tag_157\n        /* \"#utility.yul\":7645:7711   */\n      0xffffffffffffffffffffffffffffffffffffffffffffffffffffffffffffffff\n        /* \"#utility.yul\":7634:7643   */\n      dup3\n        /* \"#utility.yul\":7615:7712   */\n      tag_65\n      jump\t// in\n    tag_157:\n        /* \"#utility.yul\":7733:7772   */\n      tag_158\n        /* \"#utility.yul\":7763:7771   */\n      dup7\n        /* \"#utility.yul\":7752:7761   */\n      dup4\n        /* \"#utility.yul\":7733:7772   */\n      tag_65\n      jump\t// in\n    tag_158:\n        /* \"#utility.yul\":7721:7772   */\n      swap6\n      pop\n        /* \"#utility.yul\":7805:7809   */\n      dup1\n        /* \"#utility.yul\":7801:7810   */\n      not\n        /* \"#utility.yul\":7794:7799   */\n      dup5\n        /* \"#utility.yul\":7790:7811   */\n      and\n        /* \"#utility.yul\":7781:7811   */\n      swap4\n      pop\n        /* \"#utility.yul\":7854:7858   */\n      dup1\n        /* \"#utility.yul\":7844:7852   */\n      dup7\n        /* \"#utility.yul\":7840:7859   */\n      and\n        /* \"#utility.yul\":7833:7838   */\n      dup5\n        /* \"#utility.yul\":7830:7860   */\n      or\n        /* \"#utility.yul\":7820:7860   */\n      swap3\n      pop\n        /* \"#utility.yul\":7549:7866   */\n      pop\n      pop\n        /* \"#utility.yul\":7473:7866   */\n      swap4\n      swap3\n      pop\n      pop\n      pop\n      jump\t// out\n        /* \"#utility.yul\":7872:7932   */\n    tag_67:\n        /* \"#utility.yul\":7900:7903   */\n      0x00\n        /* \"#utility.yul\":7921:7926   */\n      dup2\n        /* \"#utility.yul\":7914:7926   */\n      swap1\n      pop\n        /* \"#utility.yul\":7872:7932   */\n      swap2\n      swap1\n      pop\n      jump\t// out\n        /* \"#utility.yul\":7938:8080   */\n    tag_68:\n        /* \"#utility.yul\":7988:7997   */\n      0x00\n        /* \"#utility.yul\":8021:8074   */\n      tag_161\n        /* \"#utility.yul\":8039:8073   */\n      tag_162\n        /* \"#utility.yul\":8048:8072   */\n      tag_163\n        /* \"#utility.yul\":8066:8071   */\n      dup5\n        /* \"#utility.yul\":8048:8072   */\n      tag_39\n      jump\t// in\n    tag_163:\n        /* \"#utility.yul\":8039:8073   */\n      tag_67\n      jump\t// in\n    tag_162:\n        /* \"#utility.yul\":8021:8074   */\n      tag_39\n      jump\t// in\n    tag_161:\n        /* \"#utility.yul\":8008:8074   */\n      swap1\n      pop\n        /* \"#utility.yul\":7938:8080   */\n      swap2\n      swap1\n      pop\n      jump\t// out\n        /* \"#utility.yul\":8086:8161   */\n    tag_69:\n        /* \"#utility.yul\":8129:8132   */\n      0x00\n        /* \"#utility.yul\":8150:8155   */\n      dup2\n        /* \"#utility.yul\":8143:8155   */\n      swap1\n      pop\n        /* \"#utility.yul\":8086:8161   */\n      swap2\n      swap1\n      pop\n      jump\t// out\n        /* \"#utility.yul\":8167:8436   */\n    tag_70:\n        /* \"#utility.yul\":8277:8316   */\n      tag_166\n        /* \"#utility.yul\":8308:8315   */\n      dup4\n        /* \"#utility.yul\":8277:8316   */\n      tag_68\n      jump\t// in\n    tag_166:\n        /* \"#utility.yul\":8338:8429   */\n      tag_167\n        /* \"#utility.yul\":8387:8428   */\n      tag_168\n        /* \"#utility.yul\":8411:8427   */\n      dup3\n        /* \"#utility.yul\":8387:8428   */\n      tag_69\n      jump\t// in\n    tag_168:\n        /* \"#utility.yul\":8379:8385   */\n      dup5\n        /* \"#utility.yul\":8372:8376   */\n      dup5\n        /* \"#utility.yul\":8366:8377   */\n      sload\n        /* \"#utility.yul\":8338:8429   */\n      tag_66\n      jump\t// in\n    tag_167:\n        /* \"#utility.yul\":8332:8336   */\n      dup3\n        /* \"#utility.yul\":8325:8430   */\n      sstore\n        /* \"#utility.yul\":8243:8436   */\n      pop\n        /* \"#utility.yul\":8167:8436   */\n      pop\n      pop\n      pop\n      jump\t// out\n        /* \"#utility.yul\":8442:8515   */\n    tag_71:\n        /* \"#utility.yul\":8487:8490   */\n      0x00\n        /* \"#utility.yul\":8442:8515   */\n      swap1\n      jump\t// out\n        /* \"#utility.yul\":8521:8710   */\n    tag_72:\n        /* \"#utility.yul\":8598:8630   */\n      tag_171\n      tag_71\n      jump\t// in\n    tag_171:\n        /* \"#utility.yul\":8639:8704   */\n      tag_172\n        /* \"#utility.yul\":8697:8703   */\n      dup2\n        /* \"#utility.yul\":8689:8695   */\n      dup5\n        /* \"#utility.yul\":8683:8687   */\n      dup5\n        /* \"#utility.yul\":8639:8704   */\n      tag_70\n      jump\t// in\n    tag_172:\n        /* \"#utility.yul\":8574:8710   */\n      pop\n        /* \"#utility.yul\":8521:8710   */\n      pop\n      pop\n      jump\t// out\n        /* \"#utility.yul\":8716:8902   */\n    tag_73:\n        /* \"#utility.yul\":8776:8896   */\n    tag_174:\n        /* \"#utility.yul\":8793:8796   */\n      dup2\n        /* \"#utility.yul\":8786:8791   */\n      dup2\n        /* \"#utility.yul\":8783:8797   */\n      lt\n        /* \"#utility.yul\":8776:8896   */\n      iszero\n      tag_176\n      jumpi\n        /* \"#utility.yul\":8847:8886   */\n      tag_177\n        /* \"#utility.yul\":8884:8885   */\n      0x00\n        /* \"#utility.yul\":8877:8882   */\n      dup3\n        /* \"#utility.yul\":8847:8886   */\n      tag_72\n      jump\t// in\n    tag_177:\n        /* \"#utility.yul\":8820:8821   */\n      0x01\n        /* \"#utility.yul\":8813:8818   */\n      dup2\n        /* \"#utility.yul\":8809:8822   */\n      add\n        /* \"#utility.yul\":8800:8822   */\n      swap1\n      pop\n        /* \"#utility.yul\":8776:8896   */\n      jump(tag_174)\n    tag_176:\n        /* \"#utility.yul\":8716:8902   */\n      pop\n      pop\n      jump\t// out\n        /* \"#utility.yul\":8908:9451   */\n    tag_74:\n        /* \"#utility.yul\":9009:9011   */\n      0x1f\n        /* \"#utility.yul\":9004:9007   */\n      dup3\n        /* \"#utility.yul\":9001:9012   */\n      gt\n        /* \"#utility.yul\":8998:9444   */\n      iszero\n      tag_179\n      jumpi\n        /* \"#utility.yul\":9043:9081   */\n      tag_180\n        /* \"#utility.yul\":9075:9080   */\n      dup2\n        /* \"#utility.yul\":9043:9081   */\n      tag_63\n      jump\t// in\n    tag_180:\n        /* \"#utility.yul\":9127:9156   */\n      tag_181\n        /* \"#utility.yul\":9145:9155   */\n      dup5\n        /* \"#utility.yul\":9127:9156   */\n      tag_64\n      jump\t// in\n    tag_181:\n        /* \"#utility.yul\":9117:9125   */\n      dup2\n        /* \"#utility.yul\":9113:9157   */\n      add\n        /* \"#utility.yul\":9310:9312   */\n      0x20\n        /* \"#utility.yul\":9298:9308   */\n      dup6\n        /* \"#utility.yul\":9295:9313   */\n      lt\n        /* \"#utility.yul\":9292:9341   */\n      iszero\n      tag_182\n      jumpi\n        /* \"#utility.yul\":9331:9339   */\n      dup2\n        /* \"#utility.yul\":9316:9339   */\n      swap1\n      pop\n        /* \"#utility.yul\":9292:9341   */\n    tag_182:\n        /* \"#utility.yul\":9354:9434   */\n      tag_183\n        /* \"#utility.yul\":9410:9432   */\n      tag_184\n        /* \"#utility.yul\":9428:9431   */\n      dup6\n        /* \"#utility.yul\":9410:9432   */\n      tag_64\n      jump\t// in\n    tag_184:\n        /* \"#utility.yul\":9400:9408   */\n      dup4\n        /* \"#utility.yul\":9396:9433   */\n      add\n        /* \"#utility.yul\":9383:9394   */\n      dup3\n        /* \"#utility.yul\":9354:9434   */\n      tag_73\n      jump\t// in\n    tag_183:\n        /* \"#utility.yul\":9013:9444   */\n      pop\n      pop\n        /* \"#utility.yul\":8998:9444   */\n    tag_179:\n        /* \"#utility.yul\":8908:9451   */\n      pop\n      pop\n      pop\n      jump\t// out\n        /* \"#utility.yul\":9457:9574   */\n    tag_75:\n        /* \"#utility.yul\":9511:9519   */\n      0x00\n        /* \"#utility.yul\":9561:9566   */\n      dup3\n        /* \"#utility.yul\":9555:9559   */\n      dup3\n        /* \"#utility.yul\":9551:9567   */\n      shr\n        /* \"#utility.yul\":9530:9567   */\n      swap1\n      pop\n        /* \"#utility.yul\":9457:9574   */\n      swap3\n      swap2\n      pop\n      pop\n      jump\t// out\n        /* \"#utility.yul\":9580:9749   */\n    tag_76:\n        /* \"#utility.yul\":9624:9630   */\n      0x00\n        /* \"#utility.yul\":9657:9708   */\n      tag_187\n        /* \"#utility.yul\":9705:9706   */\n      0x00\n        /* \"#utility.yul\":9701:9707   */\n      not\n        /* \"#utility.yul\":9693:9698   */\n      dup5\n        /* \"#utility.yul\":9690:9691   */\n      0x08\n        /* \"#utility.yul\":9686:9699   */\n      mul\n        /* \"#utility.yul\":9657:9708   */\n      tag_75\n      jump\t// in\n    tag_187:\n        /* \"#utility.yul\":9653:9709   */\n      not\n        /* \"#utility.yul\":9738:9742   */\n      dup1\n        /* \"#utility.yul\":9732:9736   */\n      dup4\n        /* \"#utility.yul\":9728:9743   */\n      and\n        /* \"#utility.yul\":9718:9743   */\n      swap2\n      pop\n        /* \"#utility.yul\":9631:9749   */\n      pop\n        /* \"#utility.yul\":9580:9749   */\n      swap3\n      swap2\n      pop\n      pop\n      jump\t// out\n        /* \"#utility.yul\":9754:10049   */\n    tag_77:\n        /* \"#utility.yul\":9830:9834   */\n      0x00\n        /* \"#utility.yul\":9976:10005   */\n      tag_189\n        /* \"#utility.yul\":10001:10004   */\n      dup4\n        /* \"#utility.yul\":9995:9999   */\n      dup4\n        /* \"#utility.yul\":9976:10005   */\n      tag_76\n      jump\t// in\n    tag_189:\n        /* \"#utility.yul\":9968:10005   */\n      swap2\n      pop\n        /* \"#utility.yul\":10038:10041   */\n      dup3\n        /* \"#utility.yul\":10035:10036   */\n      0x02\n        /* \"#utility.yul\":10031:10042   */\n      mul\n        /* \"#utility.yul\":10025:10029   */\n      dup3\n        /* \"#utility.yul\":10022:10043   */\n      or\n        /* \"#utility.yul\":10014:10043   */\n      swap1\n      pop\n        /* \"#utility.yul\":9754:10049   */\n      swap3\n      swap2\n      pop\n      pop\n      jump\t// out\n        /* \"#utility.yul\":10054:11449   */\n    tag_29:\n        /* \"#utility.yul\":10171:10208   */\n      tag_191\n        /* \"#utility.yul\":10204:10207   */\n      dup3\n        /* \"#utility.yul\":10171:10208   */\n      tag_59\n      jump\t// in\n    tag_191:\n        /* \"#utility.yul\":10273:10291   */\n      0xffffffffffffffff\n        /* \"#utility.yul\":10265:10271   */\n      dup2\n        /* \"#utility.yul\":10262:10292   */\n      gt\n        /* \"#utility.yul\":10259:10315   */\n      iszero\n      tag_192\n      jumpi\n        /* \"#utility.yul\":10295:10313   */\n      tag_193\n      tag_50\n      jump\t// in\n    tag_193:\n        /* \"#utility.yul\":10259:10315   */\n    tag_192:\n        /* \"#utility.yul\":10339:10377   */\n      tag_194\n        /* \"#utility.yul\":10371:10375   */\n      dup3\n        /* \"#utility.yul\":10365:10376   */\n      sload\n        /* \"#utility.yul\":10339:10377   */\n      tag_31\n      jump\t// in\n    tag_194:\n        /* \"#utility.yul\":10424:10491   */\n      tag_195\n        /* \"#utility.yul\":10484:10490   */\n      dup3\n        /* \"#utility.yul\":10476:10482   */\n      dup3\n        /* \"#utility.yul\":10470:10474   */\n      dup6\n        /* \"#utility.yul\":10424:10491   */\n      tag_74\n      jump\t// in\n    tag_195:\n        /* \"#utility.yul\":10518:10519   */\n      0x00\n        /* \"#utility.yul\":10542:10546   */\n      0x20\n        /* \"#utility.yul\":10529:10546   */\n      swap1\n      pop\n        /* \"#utility.yul\":10574:10576   */\n      0x1f\n        /* \"#utility.yul\":10566:10572   */\n      dup4\n        /* \"#utility.yul\":10563:10577   */\n      gt\n        /* \"#utility.yul\":10591:10592   */\n      0x01\n        /* \"#utility.yul\":10586:11204   */\n      dup2\n      eq\n      tag_197\n      jumpi\n        /* \"#utility.yul\":11248:11249   */\n      0x00\n        /* \"#utility.yul\":11265:11271   */\n      dup5\n        /* \"#utility.yul\":11262:11339   */\n      iszero\n      tag_198\n      jumpi\n        /* \"#utility.yul\":11314:11323   */\n      dup3\n        /* \"#utility.yul\":11309:11312   */\n      dup8\n        /* \"#utility.yul\":11305:11324   */\n      add\n        /* \"#utility.yul\":11299:11325   */\n      mload\n        /* \"#utility.yul\":11290:11325   */\n      swap1\n      pop\n        /* \"#utility.yul\":11262:11339   */\n    tag_198:\n        /* \"#utility.yul\":11365:11432   */\n      tag_199\n        /* \"#utility.yul\":11425:11431   */\n      dup6\n        /* \"#utility.yul\":11418:11423   */\n      dup3\n        /* \"#utility.yul\":11365:11432   */\n      tag_77\n      jump\t// in\n    tag_199:\n        /* \"#utility.yul\":11359:11363   */\n      dup7\n        /* \"#utility.yul\":11352:11433   */\n      sstore\n        /* \"#utility.yul\":11221:11443   */\n      pop\n        /* \"#utility.yul\":10556:11443   */\n      jump(tag_196)\n        /* \"#utility.yul\":10586:11204   */\n    tag_197:\n        /* \"#utility.yul\":10638:10642   */\n      0x1f\n        /* \"#utility.yul\":10634:10643   */\n      not\n        /* \"#utility.yul\":10626:10632   */\n      dup5\n        /* \"#utility.yul\":10622:10644   */\n      and\n        /* \"#utility.yul\":10672:10709   */\n      tag_200\n        /* \"#utility.yul\":10704:10708   */\n      dup7\n        /* \"#utility.yul\":10672:10709   */\n      tag_63\n      jump\t// in\n    tag_200:\n        /* \"#utility.yul\":10731:10732   */\n      0x00\n        /* \"#utility.yul\":10745:10953   */\n    tag_201:\n        /* \"#utility.yul\":10759:10766   */\n      dup3\n        /* \"#utility.yul\":10756:10757   */\n      dup2\n        /* \"#utility.yul\":10753:10767   */\n      lt\n        /* \"#utility.yul\":10745:10953   */\n      iszero\n      tag_203\n      jumpi\n        /* \"#utility.yul\":10838:10847   */\n      dup5\n        /* \"#utility.yul\":10833:10836   */\n      dup10\n        /* \"#utility.yul\":10829:10848   */\n      add\n        /* \"#utility.yul\":10823:10849   */\n      mload\n        /* \"#utility.yul\":10815:10821   */\n      dup3\n        /* \"#utility.yul\":10808:10850   */\n      sstore\n        /* \"#utility.yul\":10889:10890   */\n      0x01\n        /* \"#utility.yul\":10881:10887   */\n      dup3\n        /* \"#utility.yul\":10877:10891   */\n      add\n        /* \"#utility.yul\":10867:10891   */\n      swap2\n      pop\n        /* \"#utility.yul\":10936:10938   */\n      0x20\n        /* \"#utility.yul\":10925:10934   */\n      dup6\n        /* \"#utility.yul\":10921:10939   */\n      add\n        /* \"#utility.yul\":10908:10939   */\n      swap5\n      pop\n        /* \"#utility.yul\":10782:10786   */\n      0x20\n        /* \"#utility.yul\":10779:10780   */\n      dup2\n        /* \"#utility.yul\":10775:10787   */\n      add\n        /* \"#utility.yul\":10770:10787   */\n      swap1\n      pop\n        /* \"#utility.yul\":10745:10953   */\n      jump(tag_201)\n    tag_203:\n        /* \"#utility.yul\":10981:10987   */\n      dup7\n        /* \"#utility.yul\":10972:10979   */\n      dup4\n        /* \"#utility.yul\":10969:10988   */\n      lt\n        /* \"#utility.yul\":10966:11145   */\n      iszero\n      tag_204\n      jumpi\n        /* \"#utility.yul\":11039:11048   */\n      dup5\n        /* \"#utility.yul\":11034:11037   */\n      dup10\n        /* \"#utility.yul\":11030:11049   */\n      add\n        /* \"#utility.yul\":11024:11050   */\n      mload\n        /* \"#utility.yul\":11082:11130   */\n      tag_205\n        /* \"#utility.yul\":11124:11128   */\n      0x1f\n        /* \"#utility.yul\":11116:11122   */\n      dup10\n        /* \"#utility.yul\":11112:11129   */\n      and\n        /* \"#utility.yul\":11101:11110   */\n      dup3\n        /* \"#utility.yul\":11082:11130   */\n      tag_76\n      jump\t// in\n    tag_205:\n        /* \"#utility.yul\":11074:11080   */\n      dup4\n        /* \"#utility.yul\":11067:11131   */\n      sstore\n        /* \"#utility.yul\":10989:11145   */\n      pop\n        /* \"#utility.yul\":10966:11145   */\n    tag_204:\n        /* \"#utility.yul\":11191:11192   */\n      0x01\n        /* \"#utility.yul\":11187:11188   */\n      0x02\n        /* \"#utility.yul\":11179:11185   */\n      dup9\n        /* \"#utility.yul\":11175:11189   */\n      mul\n        /* \"#utility.yul\":11171:11193   */\n      add\n        /* \"#utility.yul\":11165:11169   */\n      dup9\n        /* \"#utility.yul\":11158:11194   */\n      sstore\n        /* \"#utility.yul\":10593:11204   */\n      pop\n      pop\n      pop\n        /* \"#utility.yul\":10556:11443   */\n    tag_196:\n      pop\n        /* \"#utility.yul\":10146:11449   */\n      pop\n      pop\n      pop\n        /* \"#utility.yul\":10054:11449   */\n      pop\n      pop\n      jump\t// out\n\n    auxdata: 0xa26469706673582212201785af19be3d30ffa47675a543a91ba45179194f6494ffd9380a8d7d715fa8e764736f6c634300081a0033\n}\n",
				"bytecode": {
					"linkReferences": {},
					"object": "6080604052348015600e575f80fd5b506107e48061001c5f395ff3fe608060405260043610610037575f3560e01c806324ccab8f146100795780634e70b1dc146100a1578063e21f37ce146100cb5761003e565b3661003e57005b7f4e3358e5bdb38f499a83fbcd33d16343569f3b6fe53021022dede6364017b4a8333460405161006f929190610251565b60405180910390a1005b348015610084575f80fd5b5061009f600480360381019061009a9190610402565b6100f5565b005b3480156100ac575f80fd5b506100b561010f565b6040516100c2919061045c565b60405180910390f35b3480156100d6575f80fd5b506100df610115565b6040516100ec91906104c5565b60405180910390f35b815f908161010391906106df565b50806001819055505050565b60015481565b5f805461012190610512565b80601f016020809104026020016040519081016040528092919081815260200182805461014d90610512565b80156101985780601f1061016f57610100808354040283529160200191610198565b820191905f5260205f20905b81548152906001019060200180831161017b57829003601f168201915b505050505081565b5f73ffffffffffffffffffffffffffffffffffffffff82169050919050565b5f6101c9826101a0565b9050919050565b6101d9816101bf565b82525050565b5f819050919050565b6101f1816101df565b82525050565b5f82825260208201905092915050565b7f2066616c6c6261636b20207761732063616c6c656400000000000000000000005f82015250565b5f61023b6015836101f7565b915061024682610207565b602082019050919050565b5f6060820190506102645f8301856101d0565b61027160208301846101e8565b81810360408301526102828161022f565b90509392505050565b5f604051905090565b5f80fd5b5f80fd5b5f80fd5b5f80fd5b5f601f19601f8301169050919050565b7f4e487b71000000000000000000000000000000000000000000000000000000005f52604160045260245ffd5b6102ea826102a4565b810181811067ffffffffffffffff82111715610309576103086102b4565b5b80604052505050565b5f61031b61028b565b905061032782826102e1565b919050565b5f67ffffffffffffffff821115610346576103456102b4565b5b61034f826102a4565b9050602081019050919050565b828183375f83830152505050565b5f61037c6103778461032c565b610312565b905082815260208101848484011115610398576103976102a0565b5b6103a384828561035c565b509392505050565b5f82601f8301126103bf576103be61029c565b5b81356103cf84826020860161036a565b91505092915050565b6103e1816101df565b81146103eb575f80fd5b50565b5f813590506103fc816103d8565b92915050565b5f806040838503121561041857610417610294565b5b5f83013567ffffffffffffffff81111561043557610434610298565b5b610441858286016103ab565b9250506020610452858286016103ee565b9150509250929050565b5f60208201905061046f5f8301846101e8565b92915050565b5f81519050919050565b8281835e5f83830152505050565b5f61049782610475565b6104a181856101f7565b93506104b181856020860161047f565b6104ba816102a4565b840191505092915050565b5f6020820190508181035f8301526104dd818461048d565b905092915050565b7f4e487b71000000000000000000000000000000000000000000000000000000005f52602260045260245ffd5b5f600282049050600182168061052957607f821691505b60208210810361053c5761053b6104e5565b5b50919050565b5f819050815f5260205f209050919050565b5f6020601f8301049050919050565b5f82821b905092915050565b5f6008830261059e7fffffffffffffffffffffffffffffffffffffffffffffffffffffffffffffffff82610563565b6105a88683610563565b95508019841693508086168417925050509392505050565b5f819050919050565b5f6105e36105de6105d9846101df565b6105c0565b6101df565b9050919050565b5f819050919050565b6105fc836105c9565b610610610608826105ea565b84845461056f565b825550505050565b5f90565b610624610618565b61062f8184846105f3565b505050565b5b81811015610652576106475f8261061c565b600181019050610635565b5050565b601f8211156106975761066881610542565b61067184610554565b81016020851015610680578190505b61069461068c85610554565b830182610634565b50505b505050565b5f82821c905092915050565b5f6106b75f198460080261069c565b1980831691505092915050565b5f6106cf83836106a8565b9150826002028217905092915050565b6106e882610475565b67ffffffffffffffff811115610701576107006102b4565b5b61070b8254610512565b610716828285610656565b5f60209050601f831160018114610747575f8415610735578287015190505b61073f85826106c4565b8655506107a6565b601f19841661075586610542565b5f5b8281101561077c57848901518255600182019150602085019450602081019050610757565b868310156107995784890151610795601f8916826106a8565b8355505b6001600288020188555050505b50505050505056fea26469706673582212201785af19be3d30ffa47675a543a91ba45179194f6494ffd9380a8d7d715fa8e764736f6c634300081a0033",
					"opcodes": "PUSH1 0x80 PUSH1 0x40 MSTORE CALLVALUE DUP1 ISZERO PUSH1 0xE JUMPI PUSH0 DUP1 REVERT JUMPDEST POP PUSH2 0x7E4 DUP1 PUSH2 0x1C PUSH0 CODECOPY PUSH0 RETURN INVALID PUSH1 0x80 PUSH1 0x40 MSTORE PUSH1 0x4 CALLDATASIZE LT PUSH2 0x37 JUMPI PUSH0 CALLDATALOAD PUSH1 0xE0 SHR DUP1 PUSH4 0x24CCAB8F EQ PUSH2 0x79 JUMPI DUP1 PUSH4 0x4E70B1DC EQ PUSH2 0xA1 JUMPI DUP1 PUSH4 0xE21F37CE EQ PUSH2 0xCB JUMPI PUSH2 0x3E JUMP JUMPDEST CALLDATASIZE PUSH2 0x3E JUMPI STOP JUMPDEST PUSH32 0x4E3358E5BDB38F499A83FBCD33D16343569F3B6FE53021022DEDE6364017B4A8 CALLER CALLVALUE PUSH1 0x40 MLOAD PUSH2 0x6F SWAP3 SWAP2 SWAP1 PUSH2 0x251 JUMP JUMPDEST PUSH1 0x40 MLOAD DUP1 SWAP2 SUB SWAP1 LOG1 STOP JUMPDEST CALLVALUE DUP1 ISZERO PUSH2 0x84 JUMPI PUSH0 DUP1 REVERT JUMPDEST POP PUSH2 0x9F PUSH1 0x4 DUP1 CALLDATASIZE SUB DUP2 ADD SWAP1 PUSH2 0x9A SWAP2 SWAP1 PUSH2 0x402 JUMP JUMPDEST PUSH2 0xF5 JUMP JUMPDEST STOP JUMPDEST CALLVALUE DUP1 ISZERO PUSH2 0xAC JUMPI PUSH0 DUP1 REVERT JUMPDEST POP PUSH2 0xB5 PUSH2 0x10F JUMP JUMPDEST PUSH1 0x40 MLOAD PUSH2 0xC2 SWAP2 SWAP1 PUSH2 0x45C JUMP JUMPDEST PUSH1 0x40 MLOAD DUP1 SWAP2 SUB SWAP1 RETURN JUMPDEST CALLVALUE DUP1 ISZERO PUSH2 0xD6 JUMPI PUSH0 DUP1 REVERT JUMPDEST POP PUSH2 0xDF PUSH2 0x115 JUMP JUMPDEST PUSH1 0x40 MLOAD PUSH2 0xEC SWAP2 SWAP1 PUSH2 0x4C5 JUMP JUMPDEST PUSH1 0x40 MLOAD DUP1 SWAP2 SUB SWAP1 RETURN JUMPDEST DUP2 PUSH0 SWAP1 DUP2 PUSH2 0x103 SWAP2 SWAP1 PUSH2 0x6DF JUMP JUMPDEST POP DUP1 PUSH1 0x1 DUP2 SWAP1 SSTORE POP POP POP JUMP JUMPDEST PUSH1 0x1 SLOAD DUP2 JUMP JUMPDEST PUSH0 DUP1 SLOAD PUSH2 0x121 SWAP1 PUSH2 0x512 JUMP JUMPDEST DUP1 PUSH1 0x1F ADD PUSH1 0x20 DUP1 SWAP2 DIV MUL PUSH1 0x20 ADD PUSH1 0x40 MLOAD SWAP1 DUP2 ADD PUSH1 0x40 MSTORE DUP1 SWAP3 SWAP2 SWAP1 DUP2 DUP2 MSTORE PUSH1 0x20 ADD DUP3 DUP1 SLOAD PUSH2 0x14D SWAP1 PUSH2 0x512 JUMP JUMPDEST DUP1 ISZERO PUSH2 0x198 JUMPI DUP1 PUSH1 0x1F LT PUSH2 0x16F JUMPI PUSH2 0x100 DUP1 DUP4 SLOAD DIV MUL DUP4 MSTORE SWAP2 PUSH1 0x20 ADD SWAP2 PUSH2 0x198 JUMP JUMPDEST DUP3 ADD SWAP2 SWAP1 PUSH0 MSTORE PUSH1 0x20 PUSH0 KECCAK256 SWAP1 JUMPDEST DUP2 SLOAD DUP2 MSTORE SWAP1 PUSH1 0x1 ADD SWAP1 PUSH1 0x20 ADD DUP1 DUP4 GT PUSH2 0x17B JUMPI DUP3 SWAP1 SUB PUSH1 0x1F AND DUP3 ADD SWAP2 JUMPDEST POP POP POP POP POP DUP2 JUMP JUMPDEST PUSH0 PUSH20 0xFFFFFFFFFFFFFFFFFFFFFFFFFFFFFFFFFFFFFFFF DUP3 AND SWAP1 POP SWAP2 SWAP1 POP JUMP JUMPDEST PUSH0 PUSH2 0x1C9 DUP3 PUSH2 0x1A0 JUMP JUMPDEST SWAP1 POP SWAP2 SWAP1 POP JUMP JUMPDEST PUSH2 0x1D9 DUP2 PUSH2 0x1BF JUMP JUMPDEST DUP3 MSTORE POP POP JUMP JUMPDEST PUSH0 DUP2 SWAP1 POP SWAP2 SWAP1 POP JUMP JUMPDEST PUSH2 0x1F1 DUP2 PUSH2 0x1DF JUMP JUMPDEST DUP3 MSTORE POP POP JUMP JUMPDEST PUSH0 DUP3 DUP3 MSTORE PUSH1 0x20 DUP3 ADD SWAP1 POP SWAP3 SWAP2 POP POP JUMP JUMPDEST PUSH32 0x2066616C6C6261636B20207761732063616C6C65640000000000000000000000 PUSH0 DUP3 ADD MSTORE POP JUMP JUMPDEST PUSH0 PUSH2 0x23B PUSH1 0x15 DUP4 PUSH2 0x1F7 JUMP JUMPDEST SWAP2 POP PUSH2 0x246 DUP3 PUSH2 0x207 JUMP JUMPDEST PUSH1 0x20 DUP3 ADD SWAP1 POP SWAP2 SWAP1 POP JUMP JUMPDEST PUSH0 PUSH1 0x60 DUP3 ADD SWAP1 POP PUSH2 0x264 PUSH0 DUP4 ADD DUP6 PUSH2 0x1D0 JUMP JUMPDEST PUSH2 0x271 PUSH1 0x20 DUP4 ADD DUP5 PUSH2 0x1E8 JUMP JUMPDEST DUP2 DUP2 SUB PUSH1 0x40 DUP4 ADD MSTORE PUSH2 0x282 DUP2 PUSH2 0x22F JUMP JUMPDEST SWAP1 POP SWAP4 SWAP3 POP POP POP JUMP JUMPDEST PUSH0 PUSH1 0x40 MLOAD SWAP1 POP SWAP1 JUMP JUMPDEST PUSH0 DUP1 REVERT JUMPDEST PUSH0 DUP1 REVERT JUMPDEST PUSH0 DUP1 REVERT JUMPDEST PUSH0 DUP1 REVERT JUMPDEST PUSH0 PUSH1 0x1F NOT PUSH1 0x1F DUP4 ADD AND SWAP1 POP SWAP2 SWAP1 POP JUMP JUMPDEST PUSH32 0x4E487B7100000000000000000000000000000000000000000000000000000000 PUSH0 MSTORE PUSH1 0x41 PUSH1 0x4 MSTORE PUSH1 0x24 PUSH0 REVERT JUMPDEST PUSH2 0x2EA DUP3 PUSH2 0x2A4 JUMP JUMPDEST DUP2 ADD DUP2 DUP2 LT PUSH8 0xFFFFFFFFFFFFFFFF DUP3 GT OR ISZERO PUSH2 0x309 JUMPI PUSH2 0x308 PUSH2 0x2B4 JUMP JUMPDEST JUMPDEST DUP1 PUSH1 0x40 MSTORE POP POP POP JUMP JUMPDEST PUSH0 PUSH2 0x31B PUSH2 0x28B JUMP JUMPDEST SWAP1 POP PUSH2 0x327 DUP3 DUP3 PUSH2 0x2E1 JUMP JUMPDEST SWAP2 SWAP1 POP JUMP JUMPDEST PUSH0 PUSH8 0xFFFFFFFFFFFFFFFF DUP3 GT ISZERO PUSH2 0x346 JUMPI PUSH2 0x345 PUSH2 0x2B4 JUMP JUMPDEST JUMPDEST PUSH2 0x34F DUP3 PUSH2 0x2A4 JUMP JUMPDEST SWAP1 POP PUSH1 0x20 DUP2 ADD SWAP1 POP SWAP2 SWAP1 POP JUMP JUMPDEST DUP3 DUP2 DUP4 CALLDATACOPY PUSH0 DUP4 DUP4 ADD MSTORE POP POP POP JUMP JUMPDEST PUSH0 PUSH2 0x37C PUSH2 0x377 DUP5 PUSH2 0x32C JUMP JUMPDEST PUSH2 0x312 JUMP JUMPDEST SWAP1 POP DUP3 DUP2 MSTORE PUSH1 0x20 DUP2 ADD DUP5 DUP5 DUP5 ADD GT ISZERO PUSH2 0x398 JUMPI PUSH2 0x397 PUSH2 0x2A0 JUMP JUMPDEST JUMPDEST PUSH2 0x3A3 DUP5 DUP3 DUP6 PUSH2 0x35C JUMP JUMPDEST POP SWAP4 SWAP3 POP POP POP JUMP JUMPDEST PUSH0 DUP3 PUSH1 0x1F DUP4 ADD SLT PUSH2 0x3BF JUMPI PUSH2 0x3BE PUSH2 0x29C JUMP JUMPDEST JUMPDEST DUP2 CALLDATALOAD PUSH2 0x3CF DUP5 DUP3 PUSH1 0x20 DUP7 ADD PUSH2 0x36A JUMP JUMPDEST SWAP2 POP POP SWAP3 SWAP2 POP POP JUMP JUMPDEST PUSH2 0x3E1 DUP2 PUSH2 0x1DF JUMP JUMPDEST DUP2 EQ PUSH2 0x3EB JUMPI PUSH0 DUP1 REVERT JUMPDEST POP JUMP JUMPDEST PUSH0 DUP2 CALLDATALOAD SWAP1 POP PUSH2 0x3FC DUP2 PUSH2 0x3D8 JUMP JUMPDEST SWAP3 SWAP2 POP POP JUMP JUMPDEST PUSH0 DUP1 PUSH1 0x40 DUP4 DUP6 SUB SLT ISZERO PUSH2 0x418 JUMPI PUSH2 0x417 PUSH2 0x294 JUMP JUMPDEST JUMPDEST PUSH0 DUP4 ADD CALLDATALOAD PUSH8 0xFFFFFFFFFFFFFFFF DUP2 GT ISZERO PUSH2 0x435 JUMPI PUSH2 0x434 PUSH2 0x298 JUMP JUMPDEST JUMPDEST PUSH2 0x441 DUP6 DUP3 DUP7 ADD PUSH2 0x3AB JUMP JUMPDEST SWAP3 POP POP PUSH1 0x20 PUSH2 0x452 DUP6 DUP3 DUP7 ADD PUSH2 0x3EE JUMP JUMPDEST SWAP2 POP POP SWAP3 POP SWAP3 SWAP1 POP JUMP JUMPDEST PUSH0 PUSH1 0x20 DUP3 ADD SWAP1 POP PUSH2 0x46F PUSH0 DUP4 ADD DUP5 PUSH2 0x1E8 JUMP JUMPDEST SWAP3 SWAP2 POP POP JUMP JUMPDEST PUSH0 DUP2 MLOAD SWAP1 POP SWAP2 SWAP1 POP JUMP JUMPDEST DUP3 DUP2 DUP4 MCOPY PUSH0 DUP4 DUP4 ADD MSTORE POP POP POP JUMP JUMPDEST PUSH0 PUSH2 0x497 DUP3 PUSH2 0x475 JUMP JUMPDEST PUSH2 0x4A1 DUP2 DUP6 PUSH2 0x1F7 JUMP JUMPDEST SWAP4 POP PUSH2 0x4B1 DUP2 DUP6 PUSH1 0x20 DUP7 ADD PUSH2 0x47F JUMP JUMPDEST PUSH2 0x4BA DUP2 PUSH2 0x2A4 JUMP JUMPDEST DUP5 ADD SWAP2 POP POP SWAP3 SWAP2 POP POP JUMP JUMPDEST PUSH0 PUSH1 0x20 DUP3 ADD SWAP1 POP DUP2 DUP2 SUB PUSH0 DUP4 ADD MSTORE PUSH2 0x4DD DUP2 DUP5 PUSH2 0x48D JUMP JUMPDEST SWAP1 POP SWAP3 SWAP2 POP POP JUMP JUMPDEST PUSH32 0x4E487B7100000000000000000000000000000000000000000000000000000000 PUSH0 MSTORE PUSH1 0x22 PUSH1 0x4 MSTORE PUSH1 0x24 PUSH0 REVERT JUMPDEST PUSH0 PUSH1 0x2 DUP3 DIV SWAP1 POP PUSH1 0x1 DUP3 AND DUP1 PUSH2 0x529 JUMPI PUSH1 0x7F DUP3 AND SWAP2 POP JUMPDEST PUSH1 0x20 DUP3 LT DUP2 SUB PUSH2 0x53C JUMPI PUSH2 0x53B PUSH2 0x4E5 JUMP JUMPDEST JUMPDEST POP SWAP2 SWAP1 POP JUMP JUMPDEST PUSH0 DUP2 SWAP1 POP DUP2 PUSH0 MSTORE PUSH1 0x20 PUSH0 KECCAK256 SWAP1 POP SWAP2 SWAP1 POP JUMP JUMPDEST PUSH0 PUSH1 0x20 PUSH1 0x1F DUP4 ADD DIV SWAP1 POP SWAP2 SWAP1 POP JUMP JUMPDEST PUSH0 DUP3 DUP3 SHL SWAP1 POP SWAP3 SWAP2 POP POP JUMP JUMPDEST PUSH0 PUSH1 0x8 DUP4 MUL PUSH2 0x59E PUSH32 0xFFFFFFFFFFFFFFFFFFFFFFFFFFFFFFFFFFFFFFFFFFFFFFFFFFFFFFFFFFFFFFFF DUP3 PUSH2 0x563 JUMP JUMPDEST PUSH2 0x5A8 DUP7 DUP4 PUSH2 0x563 JUMP JUMPDEST SWAP6 POP DUP1 NOT DUP5 AND SWAP4 POP DUP1 DUP7 AND DUP5 OR SWAP3 POP POP POP SWAP4 SWAP3 POP POP POP JUMP JUMPDEST PUSH0 DUP2 SWAP1 POP SWAP2 SWAP1 POP JUMP JUMPDEST PUSH0 PUSH2 0x5E3 PUSH2 0x5DE PUSH2 0x5D9 DUP5 PUSH2 0x1DF JUMP JUMPDEST PUSH2 0x5C0 JUMP JUMPDEST PUSH2 0x1DF JUMP JUMPDEST SWAP1 POP SWAP2 SWAP1 POP JUMP JUMPDEST PUSH0 DUP2 SWAP1 POP SWAP2 SWAP1 POP JUMP JUMPDEST PUSH2 0x5FC DUP4 PUSH2 0x5C9 JUMP JUMPDEST PUSH2 0x610 PUSH2 0x608 DUP3 PUSH2 0x5EA JUMP JUMPDEST DUP5 DUP5 SLOAD PUSH2 0x56F JUMP JUMPDEST DUP3 SSTORE POP POP POP POP JUMP JUMPDEST PUSH0 SWAP1 JUMP JUMPDEST PUSH2 0x624 PUSH2 0x618 JUMP JUMPDEST PUSH2 0x62F DUP2 DUP5 DUP5 PUSH2 0x5F3 JUMP JUMPDEST POP POP POP JUMP JUMPDEST JUMPDEST DUP2 DUP2 LT ISZERO PUSH2 0x652 JUMPI PUSH2 0x647 PUSH0 DUP3 PUSH2 0x61C JUMP JUMPDEST PUSH1 0x1 DUP2 ADD SWAP1 POP PUSH2 0x635 JUMP JUMPDEST POP POP JUMP JUMPDEST PUSH1 0x1F DUP3 GT ISZERO PUSH2 0x697 JUMPI PUSH2 0x668 DUP2 PUSH2 0x542 JUMP JUMPDEST PUSH2 0x671 DUP5 PUSH2 0x554 JUMP JUMPDEST DUP2 ADD PUSH1 0x20 DUP6 LT ISZERO PUSH2 0x680 JUMPI DUP2 SWAP1 POP JUMPDEST PUSH2 0x694 PUSH2 0x68C DUP6 PUSH2 0x554 JUMP JUMPDEST DUP4 ADD DUP3 PUSH2 0x634 JUMP JUMPDEST POP POP JUMPDEST POP POP POP JUMP JUMPDEST PUSH0 DUP3 DUP3 SHR SWAP1 POP SWAP3 SWAP2 POP POP JUMP JUMPDEST PUSH0 PUSH2 0x6B7 PUSH0 NOT DUP5 PUSH1 0x8 MUL PUSH2 0x69C JUMP JUMPDEST NOT DUP1 DUP4 AND SWAP2 POP POP SWAP3 SWAP2 POP POP JUMP JUMPDEST PUSH0 PUSH2 0x6CF DUP4 DUP4 PUSH2 0x6A8 JUMP JUMPDEST SWAP2 POP DUP3 PUSH1 0x2 MUL DUP3 OR SWAP1 POP SWAP3 SWAP2 POP POP JUMP JUMPDEST PUSH2 0x6E8 DUP3 PUSH2 0x475 JUMP JUMPDEST PUSH8 0xFFFFFFFFFFFFFFFF DUP2 GT ISZERO PUSH2 0x701 JUMPI PUSH2 0x700 PUSH2 0x2B4 JUMP JUMPDEST JUMPDEST PUSH2 0x70B DUP3 SLOAD PUSH2 0x512 JUMP JUMPDEST PUSH2 0x716 DUP3 DUP3 DUP6 PUSH2 0x656 JUMP JUMPDEST PUSH0 PUSH1 0x20 SWAP1 POP PUSH1 0x1F DUP4 GT PUSH1 0x1 DUP2 EQ PUSH2 0x747 JUMPI PUSH0 DUP5 ISZERO PUSH2 0x735 JUMPI DUP3 DUP8 ADD MLOAD SWAP1 POP JUMPDEST PUSH2 0x73F DUP6 DUP3 PUSH2 0x6C4 JUMP JUMPDEST DUP7 SSTORE POP PUSH2 0x7A6 JUMP JUMPDEST PUSH1 0x1F NOT DUP5 AND PUSH2 0x755 DUP7 PUSH2 0x542 JUMP JUMPDEST PUSH0 JUMPDEST DUP3 DUP2 LT ISZERO PUSH2 0x77C JUMPI DUP5 DUP10 ADD MLOAD DUP3 SSTORE PUSH1 0x1 DUP3 ADD SWAP2 POP PUSH1 0x20 DUP6 ADD SWAP5 POP PUSH1 0x20 DUP2 ADD SWAP1 POP PUSH2 0x757 JUMP JUMPDEST DUP7 DUP4 LT ISZERO PUSH2 0x799 JUMPI DUP5 DUP10 ADD MLOAD PUSH2 0x795 PUSH1 0x1F DUP10 AND DUP3 PUSH2 0x6A8 JUMP JUMPDEST DUP4 SSTORE POP JUMPDEST PUSH1 0x1 PUSH1 0x2 DUP9 MUL ADD DUP9 SSTORE POP POP POP JUMPDEST POP POP POP POP POP POP JUMP INVALID LOG2 PUSH5 0x6970667358 0x22 SLT KECCAK256 OR DUP6 0xAF NOT 0xBE RETURNDATASIZE ADDRESS SELFDESTRUCT LOG4 PUSH23 0x75A543A91BA45179194F6494FFD9380A8D7D715FA8E764 PUSH20 0x6F6C634300081A00330000000000000000000000 "
				},
				"gasEstimates": {
					"creation": {
						"codeDepositCost": "404000",
						"executionCost": "441",
						"totalCost": "404441"
					},
					"external": {
						"": "2687",
						"foo(string,uint256)": "infinite",
						"message()": "infinite",
						"num()": "2425"
					}
				},
				"methodIdentifiers": {
					"foo(string,uint256)": "24ccab8f",
					"message()": "e21f37ce",
					"num()": "4e70b1dc"
				}
			},
			"storageLayout": {
				"storage": [
					{
						"astId": 11,
						"contract": "03/Call.sol:TestContract",
						"label": "message",
						"offset": 0,
						"slot": "0",
						"type": "t_string_storage"
					},
					{
						"astId": 13,
						"contract": "03/Call.sol:TestContract",
						"label": "num",
						"offset": 0,
						"slot": "1",
						"type": "t_uint256"
					}
				],
				"types": {
					"t_string_storage": {
						"encoding": "bytes",
						"label": "string",
						"numberOfBytes": "32"
					},
					"t_uint256": {
						"encoding": "inplace",
						"label": "uint256",
						"numberOfBytes": "32"
					}
				}
			},
			"userdoc": {
				"kind": "user",
				"methods": {},
				"version": 1
			}
		}
	}
}