{
	"03/Call.sol": {
		"Caller": {
			"abi": [
				{
					"inputs": [
						{
							"internalType": "address",
							"name": "_testContract",
							"type": "address"
						},
						{
							"internalType": "string",
							"name": "_msg",
							"type": "string"
						},
						{
							"internalType": "uint256",
							"name": "_num",
							"type": "uint256"
						}
					],
					"name": "callFoo",
					"outputs": [],
					"stateMutability": "nonpayable",
					"type": "function"
				},
				{
					"inputs": [
						{
							"internalType": "address",
							"name": "_testContract",
							"type": "address"
						}
					],
					"name": "callNonExistentFunction",
					"outputs": [],
					"stateMutability": "nonpayable",
					"type": "function"
				}
			],
			"devdoc": {
				"kind": "dev",
				"methods": {},
				"version": 1
			},
			"evm": {
				"assembly": "    /* \"03/Call.sol\":445:963  contract Caller{... */\n  mstore(0x40, 0x80)\n  callvalue\n  dup1\n  iszero\n  tag_1\n  jumpi\n  0x00\n  dup1\n  revert\ntag_1:\n  pop\n  dataSize(sub_0)\n  dup1\n  dataOffset(sub_0)\n  0x00\n  codecopy\n  0x00\n  return\nstop\n\nsub_0: assembly {\n        /* \"03/Call.sol\":445:963  contract Caller{... */\n      mstore(0x40, 0x80)\n      callvalue\n      dup1\n      iszero\n      tag_1\n      jumpi\n      0x00\n      dup1\n      revert\n    tag_1:\n      pop\n      jumpi(tag_2, lt(calldatasize, 0x04))\n      shr(0xe0, calldataload(0x00))\n      dup1\n      0x172a57d7\n      eq\n      tag_3\n      jumpi\n      dup1\n      0xdd5f151e\n      eq\n      tag_4\n      jumpi\n    tag_2:\n      0x00\n      dup1\n      revert\n        /* \"03/Call.sol\":720:961  function callNonExistentFunction(address _testContract) public {... */\n    tag_3:\n      tag_5\n      0x04\n      dup1\n      calldatasize\n      sub\n      dup2\n      add\n      swap1\n      tag_6\n      swap2\n      swap1\n      tag_7\n      jump\t// in\n    tag_6:\n      tag_8\n      jump\t// in\n    tag_5:\n      stop\n        /* \"03/Call.sol\":466:715  function callFoo(address _testContract, string memory _msg, uint256 _num) public {... */\n    tag_4:\n      tag_9\n      0x04\n      dup1\n      calldatasize\n      sub\n      dup2\n      add\n      swap1\n      tag_10\n      swap2\n      swap1\n      tag_11\n      jump\t// in\n    tag_10:\n      tag_12\n      jump\t// in\n    tag_9:\n      stop\n        /* \"03/Call.sol\":720:961  function callNonExistentFunction(address _testContract) public {... */\n    tag_8:\n        /* \"03/Call.sol\":794:803  bool succ */\n      0x00\n        /* \"03/Call.sol\":804:821  bytes memory data */\n      dup1\n        /* \"03/Call.sol\":826:839  _testContract */\n      dup3\n        /* \"03/Call.sol\":826:844  _testContract.call */\n      0xffffffffffffffffffffffffffffffffffffffff\n      and\n        /* \"03/Call.sol\":845:911  abi.encodeWithSignature(\"callNonExistentFunction(string,uint256)\") */\n      add(0x24, mload(0x40))\n      mload(0x40)\n      0x20\n      dup2\n      dup4\n      sub\n      sub\n      dup2\n      mstore\n      swap1\n      0x40\n      mstore\n      and(not(0xffffffffffffffffffffffffffffffffffffffffffffffffffffffff), 0x19932cf700000000000000000000000000000000000000000000000000000000)\n      0x20\n      dup3\n      add\n      dup1\n      mload\n      0xffffffffffffffffffffffffffffffffffffffffffffffffffffffff\n      dup4\n      dup2\n      dup4\n      and\n      or\n      dup4\n      mstore\n      pop\n      pop\n      pop\n      pop\n        /* \"03/Call.sol\":826:912  _testContract.call(abi.encodeWithSignature(\"callNonExistentFunction(string,uint256)\")) */\n      mload(0x40)\n      tag_14\n      swap2\n      swap1\n      tag_15\n      jump\t// in\n    tag_14:\n      0x00\n      mload(0x40)\n      dup1\n      dup4\n      sub\n      dup2\n      0x00\n      dup7\n      gas\n      call\n      swap2\n      pop\n      pop\n      returndatasize\n      dup1\n      0x00\n      dup2\n      eq\n      tag_18\n      jumpi\n      mload(0x40)\n      swap2\n      pop\n      and(add(returndatasize, 0x3f), not(0x1f))\n      dup3\n      add\n      0x40\n      mstore\n      returndatasize\n      dup3\n      mstore\n      returndatasize\n      0x00\n      0x20\n      dup5\n      add\n      returndatacopy\n      jump(tag_17)\n    tag_18:\n      0x60\n      swap2\n      pop\n    tag_17:\n      pop\n        /* \"03/Call.sol\":793:912  (bool succ,bytes memory data) =  _testContract.call(abi.encodeWithSignature(\"callNonExistentFunction(string,uint256)\")) */\n      swap2\n      pop\n      swap2\n      pop\n        /* \"03/Call.sol\":930:934  succ */\n      dup2\n        /* \"03/Call.sol\":922:954  require(succ,\"call none failed\") */\n      tag_19\n      jumpi\n      mload(0x40)\n      0x08c379a000000000000000000000000000000000000000000000000000000000\n      dup2\n      mstore\n      0x04\n      add\n      tag_20\n      swap1\n      tag_21\n      jump\t// in\n    tag_20:\n      mload(0x40)\n      dup1\n      swap2\n      sub\n      swap1\n      revert\n    tag_19:\n        /* \"03/Call.sol\":783:961  {... */\n      pop\n      pop\n        /* \"03/Call.sol\":720:961  function callNonExistentFunction(address _testContract) public {... */\n      pop\n      jump\t// out\n        /* \"03/Call.sol\":466:715  function callFoo(address _testContract, string memory _msg, uint256 _num) public {... */\n    tag_12:\n        /* \"03/Call.sol\":558:567  bool succ */\n      0x00\n        /* \"03/Call.sol\":568:585  bytes memory data */\n      dup1\n        /* \"03/Call.sol\":590:603  _testContract */\n      dup5\n        /* \"03/Call.sol\":590:608  _testContract.call */\n      0xffffffffffffffffffffffffffffffffffffffff\n      and\n        /* \"03/Call.sol\":615:618  100 */\n      0x64\n        /* \"03/Call.sol\":667:671  _msg */\n      dup6\n        /* \"03/Call.sol\":672:676  _num */\n      dup6\n        /* \"03/Call.sol\":620:677  abi.encodeWithSignature(\"foo(string,uint256)\", _msg,_num) */\n      add(0x24, mload(0x40))\n      tag_23\n      swap3\n      swap2\n      swap1\n      tag_24\n      jump\t// in\n    tag_23:\n      mload(0x40)\n      0x20\n      dup2\n      dup4\n      sub\n      sub\n      dup2\n      mstore\n      swap1\n      0x40\n      mstore\n      and(not(0xffffffffffffffffffffffffffffffffffffffffffffffffffffffff), 0x24ccab8f00000000000000000000000000000000000000000000000000000000)\n      0x20\n      dup3\n      add\n      dup1\n      mload\n      0xffffffffffffffffffffffffffffffffffffffffffffffffffffffff\n      dup4\n      dup2\n      dup4\n      and\n      or\n      dup4\n      mstore\n      pop\n      pop\n      pop\n      pop\n        /* \"03/Call.sol\":590:678  _testContract.call{value:100}(abi.encodeWithSignature(\"foo(string,uint256)\", _msg,_num)) */\n      mload(0x40)\n      tag_25\n      swap2\n      swap1\n      tag_15\n      jump\t// in\n    tag_25:\n      0x00\n      mload(0x40)\n      dup1\n      dup4\n      sub\n      dup2\n      dup6\n      dup8\n      gas\n      call\n      swap3\n      pop\n      pop\n      pop\n      returndatasize\n      dup1\n      0x00\n      dup2\n      eq\n      tag_28\n      jumpi\n      mload(0x40)\n      swap2\n      pop\n      and(add(returndatasize, 0x3f), not(0x1f))\n      dup3\n      add\n      0x40\n      mstore\n      returndatasize\n      dup3\n      mstore\n      returndatasize\n      0x00\n      0x20\n      dup5\n      add\n      returndatacopy\n      jump(tag_27)\n    tag_28:\n      0x60\n      swap2\n      pop\n    tag_27:\n      pop\n        /* \"03/Call.sol\":557:678  (bool succ,bytes memory data) =  _testContract.call{value:100}(abi.encodeWithSignature(\"foo(string,uint256)\", _msg,_num)) */\n      swap2\n      pop\n      swap2\n      pop\n        /* \"03/Call.sol\":696:700  succ */\n      dup2\n        /* \"03/Call.sol\":688:707  require(succ,\"err\") */\n      tag_29\n      jumpi\n      mload(0x40)\n      0x08c379a000000000000000000000000000000000000000000000000000000000\n      dup2\n      mstore\n      0x04\n      add\n      tag_30\n      swap1\n      tag_31\n      jump\t// in\n    tag_30:\n      mload(0x40)\n      dup1\n      swap2\n      sub\n      swap1\n      revert\n    tag_29:\n        /* \"03/Call.sol\":547:715  {... */\n      pop\n      pop\n        /* \"03/Call.sol\":466:715  function callFoo(address _testContract, string memory _msg, uint256 _num) public {... */\n      pop\n      pop\n      pop\n      jump\t// out\n        /* \"#utility.yul\":7:82   */\n    tag_32:\n        /* \"#utility.yul\":40:46   */\n      0x00\n        /* \"#utility.yul\":73:75   */\n      0x40\n        /* \"#utility.yul\":67:76   */\n      mload\n        /* \"#utility.yul\":57:76   */\n      swap1\n      pop\n        /* \"#utility.yul\":7:82   */\n      swap1\n      jump\t// out\n        /* \"#utility.yul\":88:205   */\n    tag_33:\n        /* \"#utility.yul\":197:198   */\n      0x00\n        /* \"#utility.yul\":194:195   */\n      dup1\n        /* \"#utility.yul\":187:199   */\n      revert\n        /* \"#utility.yul\":211:328   */\n    tag_34:\n        /* \"#utility.yul\":320:321   */\n      0x00\n        /* \"#utility.yul\":317:318   */\n      dup1\n        /* \"#utility.yul\":310:322   */\n      revert\n        /* \"#utility.yul\":334:460   */\n    tag_35:\n        /* \"#utility.yul\":371:378   */\n      0x00\n        /* \"#utility.yul\":411:453   */\n      0xffffffffffffffffffffffffffffffffffffffff\n        /* \"#utility.yul\":404:409   */\n      dup3\n        /* \"#utility.yul\":400:454   */\n      and\n        /* \"#utility.yul\":389:454   */\n      swap1\n      pop\n        /* \"#utility.yul\":334:460   */\n      swap2\n      swap1\n      pop\n      jump\t// out\n        /* \"#utility.yul\":466:562   */\n    tag_36:\n        /* \"#utility.yul\":503:510   */\n      0x00\n        /* \"#utility.yul\":532:556   */\n      tag_70\n        /* \"#utility.yul\":550:555   */\n      dup3\n        /* \"#utility.yul\":532:556   */\n      tag_35\n      jump\t// in\n    tag_70:\n        /* \"#utility.yul\":521:556   */\n      swap1\n      pop\n        /* \"#utility.yul\":466:562   */\n      swap2\n      swap1\n      pop\n      jump\t// out\n        /* \"#utility.yul\":568:690   */\n    tag_37:\n        /* \"#utility.yul\":641:665   */\n      tag_72\n        /* \"#utility.yul\":659:664   */\n      dup2\n        /* \"#utility.yul\":641:665   */\n      tag_36\n      jump\t// in\n    tag_72:\n        /* \"#utility.yul\":634:639   */\n      dup2\n        /* \"#utility.yul\":631:666   */\n      eq\n        /* \"#utility.yul\":621:684   */\n      tag_73\n      jumpi\n        /* \"#utility.yul\":680:681   */\n      0x00\n        /* \"#utility.yul\":677:678   */\n      dup1\n        /* \"#utility.yul\":670:682   */\n      revert\n        /* \"#utility.yul\":621:684   */\n    tag_73:\n        /* \"#utility.yul\":568:690   */\n      pop\n      jump\t// out\n        /* \"#utility.yul\":696:835   */\n    tag_38:\n        /* \"#utility.yul\":742:747   */\n      0x00\n        /* \"#utility.yul\":780:786   */\n      dup2\n        /* \"#utility.yul\":767:787   */\n      calldataload\n        /* \"#utility.yul\":758:787   */\n      swap1\n      pop\n        /* \"#utility.yul\":796:829   */\n      tag_75\n        /* \"#utility.yul\":823:828   */\n      dup2\n        /* \"#utility.yul\":796:829   */\n      tag_37\n      jump\t// in\n    tag_75:\n        /* \"#utility.yul\":696:835   */\n      swap3\n      swap2\n      pop\n      pop\n      jump\t// out\n        /* \"#utility.yul\":841:1170   */\n    tag_7:\n        /* \"#utility.yul\":900:906   */\n      0x00\n        /* \"#utility.yul\":949:951   */\n      0x20\n        /* \"#utility.yul\":937:946   */\n      dup3\n        /* \"#utility.yul\":928:935   */\n      dup5\n        /* \"#utility.yul\":924:947   */\n      sub\n        /* \"#utility.yul\":920:952   */\n      slt\n        /* \"#utility.yul\":917:1036   */\n      iszero\n      tag_77\n      jumpi\n        /* \"#utility.yul\":955:1034   */\n      tag_78\n      tag_33\n      jump\t// in\n    tag_78:\n        /* \"#utility.yul\":917:1036   */\n    tag_77:\n        /* \"#utility.yul\":1075:1076   */\n      0x00\n        /* \"#utility.yul\":1100:1153   */\n      tag_79\n        /* \"#utility.yul\":1145:1152   */\n      dup5\n        /* \"#utility.yul\":1136:1142   */\n      dup3\n        /* \"#utility.yul\":1125:1134   */\n      dup6\n        /* \"#utility.yul\":1121:1143   */\n      add\n        /* \"#utility.yul\":1100:1153   */\n      tag_38\n      jump\t// in\n    tag_79:\n        /* \"#utility.yul\":1090:1153   */\n      swap2\n      pop\n        /* \"#utility.yul\":1046:1163   */\n      pop\n        /* \"#utility.yul\":841:1170   */\n      swap3\n      swap2\n      pop\n      pop\n      jump\t// out\n        /* \"#utility.yul\":1176:1293   */\n    tag_39:\n        /* \"#utility.yul\":1285:1286   */\n      0x00\n        /* \"#utility.yul\":1282:1283   */\n      dup1\n        /* \"#utility.yul\":1275:1287   */\n      revert\n        /* \"#utility.yul\":1299:1416   */\n    tag_40:\n        /* \"#utility.yul\":1408:1409   */\n      0x00\n        /* \"#utility.yul\":1405:1406   */\n      dup1\n        /* \"#utility.yul\":1398:1410   */\n      revert\n        /* \"#utility.yul\":1422:1524   */\n    tag_41:\n        /* \"#utility.yul\":1463:1469   */\n      0x00\n        /* \"#utility.yul\":1514:1516   */\n      0x1f\n        /* \"#utility.yul\":1510:1517   */\n      not\n        /* \"#utility.yul\":1505:1507   */\n      0x1f\n        /* \"#utility.yul\":1498:1503   */\n      dup4\n        /* \"#utility.yul\":1494:1508   */\n      add\n        /* \"#utility.yul\":1490:1518   */\n      and\n        /* \"#utility.yul\":1480:1518   */\n      swap1\n      pop\n        /* \"#utility.yul\":1422:1524   */\n      swap2\n      swap1\n      pop\n      jump\t// out\n        /* \"#utility.yul\":1530:1710   */\n    tag_42:\n        /* \"#utility.yul\":1578:1655   */\n      0x4e487b7100000000000000000000000000000000000000000000000000000000\n        /* \"#utility.yul\":1575:1576   */\n      0x00\n        /* \"#utility.yul\":1568:1656   */\n      mstore\n        /* \"#utility.yul\":1675:1679   */\n      0x41\n        /* \"#utility.yul\":1672:1673   */\n      0x04\n        /* \"#utility.yul\":1665:1680   */\n      mstore\n        /* \"#utility.yul\":1699:1703   */\n      0x24\n        /* \"#utility.yul\":1696:1697   */\n      0x00\n        /* \"#utility.yul\":1689:1704   */\n      revert\n        /* \"#utility.yul\":1716:1997   */\n    tag_43:\n        /* \"#utility.yul\":1799:1826   */\n      tag_85\n        /* \"#utility.yul\":1821:1825   */\n      dup3\n        /* \"#utility.yul\":1799:1826   */\n      tag_41\n      jump\t// in\n    tag_85:\n        /* \"#utility.yul\":1791:1797   */\n      dup2\n        /* \"#utility.yul\":1787:1827   */\n      add\n        /* \"#utility.yul\":1929:1935   */\n      dup2\n        /* \"#utility.yul\":1917:1927   */\n      dup2\n        /* \"#utility.yul\":1914:1936   */\n      lt\n        /* \"#utility.yul\":1893:1911   */\n      0xffffffffffffffff\n        /* \"#utility.yul\":1881:1891   */\n      dup3\n        /* \"#utility.yul\":1878:1912   */\n      gt\n        /* \"#utility.yul\":1875:1937   */\n      or\n        /* \"#utility.yul\":1872:1960   */\n      iszero\n      tag_86\n      jumpi\n        /* \"#utility.yul\":1940:1958   */\n      tag_87\n      tag_42\n      jump\t// in\n    tag_87:\n        /* \"#utility.yul\":1872:1960   */\n    tag_86:\n        /* \"#utility.yul\":1980:1990   */\n      dup1\n        /* \"#utility.yul\":1976:1978   */\n      0x40\n        /* \"#utility.yul\":1969:1991   */\n      mstore\n        /* \"#utility.yul\":1759:1997   */\n      pop\n        /* \"#utility.yul\":1716:1997   */\n      pop\n      pop\n      jump\t// out\n        /* \"#utility.yul\":2003:2132   */\n    tag_44:\n        /* \"#utility.yul\":2037:2043   */\n      0x00\n        /* \"#utility.yul\":2064:2084   */\n      tag_89\n      tag_32\n      jump\t// in\n    tag_89:\n        /* \"#utility.yul\":2054:2084   */\n      swap1\n      pop\n        /* \"#utility.yul\":2093:2126   */\n      tag_90\n        /* \"#utility.yul\":2121:2125   */\n      dup3\n        /* \"#utility.yul\":2113:2119   */\n      dup3\n        /* \"#utility.yul\":2093:2126   */\n      tag_43\n      jump\t// in\n    tag_90:\n        /* \"#utility.yul\":2003:2132   */\n      swap2\n      swap1\n      pop\n      jump\t// out\n        /* \"#utility.yul\":2138:2446   */\n    tag_45:\n        /* \"#utility.yul\":2200:2204   */\n      0x00\n        /* \"#utility.yul\":2290:2308   */\n      0xffffffffffffffff\n        /* \"#utility.yul\":2282:2288   */\n      dup3\n        /* \"#utility.yul\":2279:2309   */\n      gt\n        /* \"#utility.yul\":2276:2332   */\n      iszero\n      tag_92\n      jumpi\n        /* \"#utility.yul\":2312:2330   */\n      tag_93\n      tag_42\n      jump\t// in\n    tag_93:\n        /* \"#utility.yul\":2276:2332   */\n    tag_92:\n        /* \"#utility.yul\":2350:2379   */\n      tag_94\n        /* \"#utility.yul\":2372:2378   */\n      dup3\n        /* \"#utility.yul\":2350:2379   */\n      tag_41\n      jump\t// in\n    tag_94:\n        /* \"#utility.yul\":2342:2379   */\n      swap1\n      pop\n        /* \"#utility.yul\":2434:2438   */\n      0x20\n        /* \"#utility.yul\":2428:2432   */\n      dup2\n        /* \"#utility.yul\":2424:2439   */\n      add\n        /* \"#utility.yul\":2416:2439   */\n      swap1\n      pop\n        /* \"#utility.yul\":2138:2446   */\n      swap2\n      swap1\n      pop\n      jump\t// out\n        /* \"#utility.yul\":2452:2600   */\n    tag_46:\n        /* \"#utility.yul\":2550:2556   */\n      dup3\n        /* \"#utility.yul\":2545:2548   */\n      dup2\n        /* \"#utility.yul\":2540:2543   */\n      dup4\n        /* \"#utility.yul\":2527:2557   */\n      calldatacopy\n        /* \"#utility.yul\":2591:2592   */\n      0x00\n        /* \"#utility.yul\":2582:2588   */\n      dup4\n        /* \"#utility.yul\":2577:2580   */\n      dup4\n        /* \"#utility.yul\":2573:2589   */\n      add\n        /* \"#utility.yul\":2566:2593   */\n      mstore\n        /* \"#utility.yul\":2452:2600   */\n      pop\n      pop\n      pop\n      jump\t// out\n        /* \"#utility.yul\":2606:3031   */\n    tag_47:\n        /* \"#utility.yul\":2684:2689   */\n      0x00\n        /* \"#utility.yul\":2709:2775   */\n      tag_97\n        /* \"#utility.yul\":2725:2774   */\n      tag_98\n        /* \"#utility.yul\":2767:2773   */\n      dup5\n        /* \"#utility.yul\":2725:2774   */\n      tag_45\n      jump\t// in\n    tag_98:\n        /* \"#utility.yul\":2709:2775   */\n      tag_44\n      jump\t// in\n    tag_97:\n        /* \"#utility.yul\":2700:2775   */\n      swap1\n      pop\n        /* \"#utility.yul\":2798:2804   */\n      dup3\n        /* \"#utility.yul\":2791:2796   */\n      dup2\n        /* \"#utility.yul\":2784:2805   */\n      mstore\n        /* \"#utility.yul\":2836:2840   */\n      0x20\n        /* \"#utility.yul\":2829:2834   */\n      dup2\n        /* \"#utility.yul\":2825:2841   */\n      add\n        /* \"#utility.yul\":2874:2877   */\n      dup5\n        /* \"#utility.yul\":2865:2871   */\n      dup5\n        /* \"#utility.yul\":2860:2863   */\n      dup5\n        /* \"#utility.yul\":2856:2872   */\n      add\n        /* \"#utility.yul\":2853:2878   */\n      gt\n        /* \"#utility.yul\":2850:2962   */\n      iszero\n      tag_99\n      jumpi\n        /* \"#utility.yul\":2881:2960   */\n      tag_100\n      tag_40\n      jump\t// in\n    tag_100:\n        /* \"#utility.yul\":2850:2962   */\n    tag_99:\n        /* \"#utility.yul\":2971:3025   */\n      tag_101\n        /* \"#utility.yul\":3018:3024   */\n      dup5\n        /* \"#utility.yul\":3013:3016   */\n      dup3\n        /* \"#utility.yul\":3008:3011   */\n      dup6\n        /* \"#utility.yul\":2971:3025   */\n      tag_46\n      jump\t// in\n    tag_101:\n        /* \"#utility.yul\":2690:3031   */\n      pop\n        /* \"#utility.yul\":2606:3031   */\n      swap4\n      swap3\n      pop\n      pop\n      pop\n      jump\t// out\n        /* \"#utility.yul\":3051:3391   */\n    tag_48:\n        /* \"#utility.yul\":3107:3112   */\n      0x00\n        /* \"#utility.yul\":3156:3159   */\n      dup3\n        /* \"#utility.yul\":3149:3153   */\n      0x1f\n        /* \"#utility.yul\":3141:3147   */\n      dup4\n        /* \"#utility.yul\":3137:3154   */\n      add\n        /* \"#utility.yul\":3133:3160   */\n      slt\n        /* \"#utility.yul\":3123:3245   */\n      tag_103\n      jumpi\n        /* \"#utility.yul\":3164:3243   */\n      tag_104\n      tag_39\n      jump\t// in\n    tag_104:\n        /* \"#utility.yul\":3123:3245   */\n    tag_103:\n        /* \"#utility.yul\":3281:3287   */\n      dup2\n        /* \"#utility.yul\":3268:3288   */\n      calldataload\n        /* \"#utility.yul\":3306:3385   */\n      tag_105\n        /* \"#utility.yul\":3381:3384   */\n      dup5\n        /* \"#utility.yul\":3373:3379   */\n      dup3\n        /* \"#utility.yul\":3366:3370   */\n      0x20\n        /* \"#utility.yul\":3358:3364   */\n      dup7\n        /* \"#utility.yul\":3354:3371   */\n      add\n        /* \"#utility.yul\":3306:3385   */\n      tag_47\n      jump\t// in\n    tag_105:\n        /* \"#utility.yul\":3297:3385   */\n      swap2\n      pop\n        /* \"#utility.yul\":3113:3391   */\n      pop\n        /* \"#utility.yul\":3051:3391   */\n      swap3\n      swap2\n      pop\n      pop\n      jump\t// out\n        /* \"#utility.yul\":3397:3474   */\n    tag_49:\n        /* \"#utility.yul\":3434:3441   */\n      0x00\n        /* \"#utility.yul\":3463:3468   */\n      dup2\n        /* \"#utility.yul\":3452:3468   */\n      swap1\n      pop\n        /* \"#utility.yul\":3397:3474   */\n      swap2\n      swap1\n      pop\n      jump\t// out\n        /* \"#utility.yul\":3480:3602   */\n    tag_50:\n        /* \"#utility.yul\":3553:3577   */\n      tag_108\n        /* \"#utility.yul\":3571:3576   */\n      dup2\n        /* \"#utility.yul\":3553:3577   */\n      tag_49\n      jump\t// in\n    tag_108:\n        /* \"#utility.yul\":3546:3551   */\n      dup2\n        /* \"#utility.yul\":3543:3578   */\n      eq\n        /* \"#utility.yul\":3533:3596   */\n      tag_109\n      jumpi\n        /* \"#utility.yul\":3592:3593   */\n      0x00\n        /* \"#utility.yul\":3589:3590   */\n      dup1\n        /* \"#utility.yul\":3582:3594   */\n      revert\n        /* \"#utility.yul\":3533:3596   */\n    tag_109:\n        /* \"#utility.yul\":3480:3602   */\n      pop\n      jump\t// out\n        /* \"#utility.yul\":3608:3747   */\n    tag_51:\n        /* \"#utility.yul\":3654:3659   */\n      0x00\n        /* \"#utility.yul\":3692:3698   */\n      dup2\n        /* \"#utility.yul\":3679:3699   */\n      calldataload\n        /* \"#utility.yul\":3670:3699   */\n      swap1\n      pop\n        /* \"#utility.yul\":3708:3741   */\n      tag_111\n        /* \"#utility.yul\":3735:3740   */\n      dup2\n        /* \"#utility.yul\":3708:3741   */\n      tag_50\n      jump\t// in\n    tag_111:\n        /* \"#utility.yul\":3608:3747   */\n      swap3\n      swap2\n      pop\n      pop\n      jump\t// out\n        /* \"#utility.yul\":3753:4552   */\n    tag_11:\n        /* \"#utility.yul\":3840:3846   */\n      0x00\n        /* \"#utility.yul\":3848:3854   */\n      dup1\n        /* \"#utility.yul\":3856:3862   */\n      0x00\n        /* \"#utility.yul\":3905:3907   */\n      0x60\n        /* \"#utility.yul\":3893:3902   */\n      dup5\n        /* \"#utility.yul\":3884:3891   */\n      dup7\n        /* \"#utility.yul\":3880:3903   */\n      sub\n        /* \"#utility.yul\":3876:3908   */\n      slt\n        /* \"#utility.yul\":3873:3992   */\n      iszero\n      tag_113\n      jumpi\n        /* \"#utility.yul\":3911:3990   */\n      tag_114\n      tag_33\n      jump\t// in\n    tag_114:\n        /* \"#utility.yul\":3873:3992   */\n    tag_113:\n        /* \"#utility.yul\":4031:4032   */\n      0x00\n        /* \"#utility.yul\":4056:4109   */\n      tag_115\n        /* \"#utility.yul\":4101:4108   */\n      dup7\n        /* \"#utility.yul\":4092:4098   */\n      dup3\n        /* \"#utility.yul\":4081:4090   */\n      dup8\n        /* \"#utility.yul\":4077:4099   */\n      add\n        /* \"#utility.yul\":4056:4109   */\n      tag_38\n      jump\t// in\n    tag_115:\n        /* \"#utility.yul\":4046:4109   */\n      swap4\n      pop\n        /* \"#utility.yul\":4002:4119   */\n      pop\n        /* \"#utility.yul\":4186:4188   */\n      0x20\n        /* \"#utility.yul\":4175:4184   */\n      dup5\n        /* \"#utility.yul\":4171:4189   */\n      add\n        /* \"#utility.yul\":4158:4190   */\n      calldataload\n        /* \"#utility.yul\":4217:4235   */\n      0xffffffffffffffff\n        /* \"#utility.yul\":4209:4215   */\n      dup2\n        /* \"#utility.yul\":4206:4236   */\n      gt\n        /* \"#utility.yul\":4203:4320   */\n      iszero\n      tag_116\n      jumpi\n        /* \"#utility.yul\":4239:4318   */\n      tag_117\n      tag_34\n      jump\t// in\n    tag_117:\n        /* \"#utility.yul\":4203:4320   */\n    tag_116:\n        /* \"#utility.yul\":4344:4407   */\n      tag_118\n        /* \"#utility.yul\":4399:4406   */\n      dup7\n        /* \"#utility.yul\":4390:4396   */\n      dup3\n        /* \"#utility.yul\":4379:4388   */\n      dup8\n        /* \"#utility.yul\":4375:4397   */\n      add\n        /* \"#utility.yul\":4344:4407   */\n      tag_48\n      jump\t// in\n    tag_118:\n        /* \"#utility.yul\":4334:4407   */\n      swap3\n      pop\n        /* \"#utility.yul\":4129:4417   */\n      pop\n        /* \"#utility.yul\":4456:4458   */\n      0x40\n        /* \"#utility.yul\":4482:4535   */\n      tag_119\n        /* \"#utility.yul\":4527:4534   */\n      dup7\n        /* \"#utility.yul\":4518:4524   */\n      dup3\n        /* \"#utility.yul\":4507:4516   */\n      dup8\n        /* \"#utility.yul\":4503:4525   */\n      add\n        /* \"#utility.yul\":4482:4535   */\n      tag_51\n      jump\t// in\n    tag_119:\n        /* \"#utility.yul\":4472:4535   */\n      swap2\n      pop\n        /* \"#utility.yul\":4427:4545   */\n      pop\n        /* \"#utility.yul\":3753:4552   */\n      swap3\n      pop\n      swap3\n      pop\n      swap3\n      jump\t// out\n        /* \"#utility.yul\":4558:4656   */\n    tag_52:\n        /* \"#utility.yul\":4609:4615   */\n      0x00\n        /* \"#utility.yul\":4643:4648   */\n      dup2\n        /* \"#utility.yul\":4637:4649   */\n      mload\n        /* \"#utility.yul\":4627:4649   */\n      swap1\n      pop\n        /* \"#utility.yul\":4558:4656   */\n      swap2\n      swap1\n      pop\n      jump\t// out\n        /* \"#utility.yul\":4662:4809   */\n    tag_53:\n        /* \"#utility.yul\":4763:4774   */\n      0x00\n        /* \"#utility.yul\":4800:4803   */\n      dup2\n        /* \"#utility.yul\":4785:4803   */\n      swap1\n      pop\n        /* \"#utility.yul\":4662:4809   */\n      swap3\n      swap2\n      pop\n      pop\n      jump\t// out\n        /* \"#utility.yul\":4815:4954   */\n    tag_54:\n        /* \"#utility.yul\":4904:4910   */\n      dup3\n        /* \"#utility.yul\":4899:4902   */\n      dup2\n        /* \"#utility.yul\":4894:4897   */\n      dup4\n        /* \"#utility.yul\":4888:4911   */\n      mcopy\n        /* \"#utility.yul\":4945:4946   */\n      0x00\n        /* \"#utility.yul\":4936:4942   */\n      dup4\n        /* \"#utility.yul\":4931:4934   */\n      dup4\n        /* \"#utility.yul\":4927:4943   */\n      add\n        /* \"#utility.yul\":4920:4947   */\n      mstore\n        /* \"#utility.yul\":4815:4954   */\n      pop\n      pop\n      pop\n      jump\t// out\n        /* \"#utility.yul\":4960:5346   */\n    tag_55:\n        /* \"#utility.yul\":5064:5067   */\n      0x00\n        /* \"#utility.yul\":5092:5130   */\n      tag_124\n        /* \"#utility.yul\":5124:5129   */\n      dup3\n        /* \"#utility.yul\":5092:5130   */\n      tag_52\n      jump\t// in\n    tag_124:\n        /* \"#utility.yul\":5146:5234   */\n      tag_125\n        /* \"#utility.yul\":5227:5233   */\n      dup2\n        /* \"#utility.yul\":5222:5225   */\n      dup6\n        /* \"#utility.yul\":5146:5234   */\n      tag_53\n      jump\t// in\n    tag_125:\n        /* \"#utility.yul\":5139:5234   */\n      swap4\n      pop\n        /* \"#utility.yul\":5243:5308   */\n      tag_126\n        /* \"#utility.yul\":5301:5307   */\n      dup2\n        /* \"#utility.yul\":5296:5299   */\n      dup6\n        /* \"#utility.yul\":5289:5293   */\n      0x20\n        /* \"#utility.yul\":5282:5287   */\n      dup7\n        /* \"#utility.yul\":5278:5294   */\n      add\n        /* \"#utility.yul\":5243:5308   */\n      tag_54\n      jump\t// in\n    tag_126:\n        /* \"#utility.yul\":5333:5339   */\n      dup1\n        /* \"#utility.yul\":5328:5331   */\n      dup5\n        /* \"#utility.yul\":5324:5340   */\n      add\n        /* \"#utility.yul\":5317:5340   */\n      swap2\n      pop\n        /* \"#utility.yul\":5068:5346   */\n      pop\n        /* \"#utility.yul\":4960:5346   */\n      swap3\n      swap2\n      pop\n      pop\n      jump\t// out\n        /* \"#utility.yul\":5352:5623   */\n    tag_15:\n        /* \"#utility.yul\":5482:5485   */\n      0x00\n        /* \"#utility.yul\":5504:5597   */\n      tag_128\n        /* \"#utility.yul\":5593:5596   */\n      dup3\n        /* \"#utility.yul\":5584:5590   */\n      dup5\n        /* \"#utility.yul\":5504:5597   */\n      tag_55\n      jump\t// in\n    tag_128:\n        /* \"#utility.yul\":5497:5597   */\n      swap2\n      pop\n        /* \"#utility.yul\":5614:5617   */\n      dup2\n        /* \"#utility.yul\":5607:5617   */\n      swap1\n      pop\n        /* \"#utility.yul\":5352:5623   */\n      swap3\n      swap2\n      pop\n      pop\n      jump\t// out\n        /* \"#utility.yul\":5629:5798   */\n    tag_56:\n        /* \"#utility.yul\":5713:5724   */\n      0x00\n        /* \"#utility.yul\":5747:5753   */\n      dup3\n        /* \"#utility.yul\":5742:5745   */\n      dup3\n        /* \"#utility.yul\":5735:5754   */\n      mstore\n        /* \"#utility.yul\":5787:5791   */\n      0x20\n        /* \"#utility.yul\":5782:5785   */\n      dup3\n        /* \"#utility.yul\":5778:5792   */\n      add\n        /* \"#utility.yul\":5763:5792   */\n      swap1\n      pop\n        /* \"#utility.yul\":5629:5798   */\n      swap3\n      swap2\n      pop\n      pop\n      jump\t// out\n        /* \"#utility.yul\":5804:5970   */\n    tag_57:\n        /* \"#utility.yul\":5944:5962   */\n      0x63616c6c206e6f6e65206661696c656400000000000000000000000000000000\n        /* \"#utility.yul\":5940:5941   */\n      0x00\n        /* \"#utility.yul\":5932:5938   */\n      dup3\n        /* \"#utility.yul\":5928:5942   */\n      add\n        /* \"#utility.yul\":5921:5963   */\n      mstore\n        /* \"#utility.yul\":5804:5970   */\n      pop\n      jump\t// out\n        /* \"#utility.yul\":5976:6342   */\n    tag_58:\n        /* \"#utility.yul\":6118:6121   */\n      0x00\n        /* \"#utility.yul\":6139:6206   */\n      tag_132\n        /* \"#utility.yul\":6203:6205   */\n      0x10\n        /* \"#utility.yul\":6198:6201   */\n      dup4\n        /* \"#utility.yul\":6139:6206   */\n      tag_56\n      jump\t// in\n    tag_132:\n        /* \"#utility.yul\":6132:6206   */\n      swap2\n      pop\n        /* \"#utility.yul\":6215:6308   */\n      tag_133\n        /* \"#utility.yul\":6304:6307   */\n      dup3\n        /* \"#utility.yul\":6215:6308   */\n      tag_57\n      jump\t// in\n    tag_133:\n        /* \"#utility.yul\":6333:6335   */\n      0x20\n        /* \"#utility.yul\":6328:6331   */\n      dup3\n        /* \"#utility.yul\":6324:6336   */\n      add\n        /* \"#utility.yul\":6317:6336   */\n      swap1\n      pop\n        /* \"#utility.yul\":5976:6342   */\n      swap2\n      swap1\n      pop\n      jump\t// out\n        /* \"#utility.yul\":6348:6767   */\n    tag_21:\n        /* \"#utility.yul\":6514:6518   */\n      0x00\n        /* \"#utility.yul\":6552:6554   */\n      0x20\n        /* \"#utility.yul\":6541:6550   */\n      dup3\n        /* \"#utility.yul\":6537:6555   */\n      add\n        /* \"#utility.yul\":6529:6555   */\n      swap1\n      pop\n        /* \"#utility.yul\":6601:6610   */\n      dup2\n        /* \"#utility.yul\":6595:6599   */\n      dup2\n        /* \"#utility.yul\":6591:6611   */\n      sub\n        /* \"#utility.yul\":6587:6588   */\n      0x00\n        /* \"#utility.yul\":6576:6585   */\n      dup4\n        /* \"#utility.yul\":6572:6589   */\n      add\n        /* \"#utility.yul\":6565:6612   */\n      mstore\n        /* \"#utility.yul\":6629:6760   */\n      tag_135\n        /* \"#utility.yul\":6755:6759   */\n      dup2\n        /* \"#utility.yul\":6629:6760   */\n      tag_58\n      jump\t// in\n    tag_135:\n        /* \"#utility.yul\":6621:6760   */\n      swap1\n      pop\n        /* \"#utility.yul\":6348:6767   */\n      swap2\n      swap1\n      pop\n      jump\t// out\n        /* \"#utility.yul\":6773:6872   */\n    tag_59:\n        /* \"#utility.yul\":6825:6831   */\n      0x00\n        /* \"#utility.yul\":6859:6864   */\n      dup2\n        /* \"#utility.yul\":6853:6865   */\n      mload\n        /* \"#utility.yul\":6843:6865   */\n      swap1\n      pop\n        /* \"#utility.yul\":6773:6872   */\n      swap2\n      swap1\n      pop\n      jump\t// out\n        /* \"#utility.yul\":6878:7255   */\n    tag_60:\n        /* \"#utility.yul\":6966:6969   */\n      0x00\n        /* \"#utility.yul\":6994:7033   */\n      tag_138\n        /* \"#utility.yul\":7027:7032   */\n      dup3\n        /* \"#utility.yul\":6994:7033   */\n      tag_59\n      jump\t// in\n    tag_138:\n        /* \"#utility.yul\":7049:7120   */\n      tag_139\n        /* \"#utility.yul\":7113:7119   */\n      dup2\n        /* \"#utility.yul\":7108:7111   */\n      dup6\n        /* \"#utility.yul\":7049:7120   */\n      tag_56\n      jump\t// in\n    tag_139:\n        /* \"#utility.yul\":7042:7120   */\n      swap4\n      pop\n        /* \"#utility.yul\":7129:7194   */\n      tag_140\n        /* \"#utility.yul\":7187:7193   */\n      dup2\n        /* \"#utility.yul\":7182:7185   */\n      dup6\n        /* \"#utility.yul\":7175:7179   */\n      0x20\n        /* \"#utility.yul\":7168:7173   */\n      dup7\n        /* \"#utility.yul\":7164:7180   */\n      add\n        /* \"#utility.yul\":7129:7194   */\n      tag_54\n      jump\t// in\n    tag_140:\n        /* \"#utility.yul\":7219:7248   */\n      tag_141\n        /* \"#utility.yul\":7241:7247   */\n      dup2\n        /* \"#utility.yul\":7219:7248   */\n      tag_41\n      jump\t// in\n    tag_141:\n        /* \"#utility.yul\":7214:7217   */\n      dup5\n        /* \"#utility.yul\":7210:7249   */\n      add\n        /* \"#utility.yul\":7203:7249   */\n      swap2\n      pop\n        /* \"#utility.yul\":6970:7255   */\n      pop\n        /* \"#utility.yul\":6878:7255   */\n      swap3\n      swap2\n      pop\n      pop\n      jump\t// out\n        /* \"#utility.yul\":7261:7379   */\n    tag_61:\n        /* \"#utility.yul\":7348:7372   */\n      tag_143\n        /* \"#utility.yul\":7366:7371   */\n      dup2\n        /* \"#utility.yul\":7348:7372   */\n      tag_49\n      jump\t// in\n    tag_143:\n        /* \"#utility.yul\":7343:7346   */\n      dup3\n        /* \"#utility.yul\":7336:7373   */\n      mstore\n        /* \"#utility.yul\":7261:7379   */\n      pop\n      pop\n      jump\t// out\n        /* \"#utility.yul\":7385:7808   */\n    tag_24:\n        /* \"#utility.yul\":7526:7530   */\n      0x00\n        /* \"#utility.yul\":7564:7566   */\n      0x40\n        /* \"#utility.yul\":7553:7562   */\n      dup3\n        /* \"#utility.yul\":7549:7567   */\n      add\n        /* \"#utility.yul\":7541:7567   */\n      swap1\n      pop\n        /* \"#utility.yul\":7613:7622   */\n      dup2\n        /* \"#utility.yul\":7607:7611   */\n      dup2\n        /* \"#utility.yul\":7603:7623   */\n      sub\n        /* \"#utility.yul\":7599:7600   */\n      0x00\n        /* \"#utility.yul\":7588:7597   */\n      dup4\n        /* \"#utility.yul\":7584:7601   */\n      add\n        /* \"#utility.yul\":7577:7624   */\n      mstore\n        /* \"#utility.yul\":7641:7719   */\n      tag_145\n        /* \"#utility.yul\":7714:7718   */\n      dup2\n        /* \"#utility.yul\":7705:7711   */\n      dup6\n        /* \"#utility.yul\":7641:7719   */\n      tag_60\n      jump\t// in\n    tag_145:\n        /* \"#utility.yul\":7633:7719   */\n      swap1\n      pop\n        /* \"#utility.yul\":7729:7801   */\n      tag_146\n        /* \"#utility.yul\":7797:7799   */\n      0x20\n        /* \"#utility.yul\":7786:7795   */\n      dup4\n        /* \"#utility.yul\":7782:7800   */\n      add\n        /* \"#utility.yul\":7773:7779   */\n      dup5\n        /* \"#utility.yul\":7729:7801   */\n      tag_61\n      jump\t// in\n    tag_146:\n        /* \"#utility.yul\":7385:7808   */\n      swap4\n      swap3\n      pop\n      pop\n      pop\n      jump\t// out\n        /* \"#utility.yul\":7814:7967   */\n    tag_62:\n        /* \"#utility.yul\":7954:7959   */\n      0x6572720000000000000000000000000000000000000000000000000000000000\n        /* \"#utility.yul\":7950:7951   */\n      0x00\n        /* \"#utility.yul\":7942:7948   */\n      dup3\n        /* \"#utility.yul\":7938:7952   */\n      add\n        /* \"#utility.yul\":7931:7960   */\n      mstore\n        /* \"#utility.yul\":7814:7967   */\n      pop\n      jump\t// out\n        /* \"#utility.yul\":7973:8338   */\n    tag_63:\n        /* \"#utility.yul\":8115:8118   */\n      0x00\n        /* \"#utility.yul\":8136:8202   */\n      tag_149\n        /* \"#utility.yul\":8200:8201   */\n      0x03\n        /* \"#utility.yul\":8195:8198   */\n      dup4\n        /* \"#utility.yul\":8136:8202   */\n      tag_56\n      jump\t// in\n    tag_149:\n        /* \"#utility.yul\":8129:8202   */\n      swap2\n      pop\n        /* \"#utility.yul\":8211:8304   */\n      tag_150\n        /* \"#utility.yul\":8300:8303   */\n      dup3\n        /* \"#utility.yul\":8211:8304   */\n      tag_62\n      jump\t// in\n    tag_150:\n        /* \"#utility.yul\":8329:8331   */\n      0x20\n        /* \"#utility.yul\":8324:8327   */\n      dup3\n        /* \"#utility.yul\":8320:8332   */\n      add\n        /* \"#utility.yul\":8313:8332   */\n      swap1\n      pop\n        /* \"#utility.yul\":7973:8338   */\n      swap2\n      swap1\n      pop\n      jump\t// out\n        /* \"#utility.yul\":8344:8763   */\n    tag_31:\n        /* \"#utility.yul\":8510:8514   */\n      0x00\n        /* \"#utility.yul\":8548:8550   */\n      0x20\n        /* \"#utility.yul\":8537:8546   */\n      dup3\n        /* \"#utility.yul\":8533:8551   */\n      add\n        /* \"#utility.yul\":8525:8551   */\n      swap1\n      pop\n        /* \"#utility.yul\":8597:8606   */\n      dup2\n        /* \"#utility.yul\":8591:8595   */\n      dup2\n        /* \"#utility.yul\":8587:8607   */\n      sub\n        /* \"#utility.yul\":8583:8584   */\n      0x00\n        /* \"#utility.yul\":8572:8581   */\n      dup4\n        /* \"#utility.yul\":8568:8585   */\n      add\n        /* \"#utility.yul\":8561:8608   */\n      mstore\n        /* \"#utility.yul\":8625:8756   */\n      tag_152\n        /* \"#utility.yul\":8751:8755   */\n      dup2\n        /* \"#utility.yul\":8625:8756   */\n      tag_63\n      jump\t// in\n    tag_152:\n        /* \"#utility.yul\":8617:8756   */\n      swap1\n      pop\n        /* \"#utility.yul\":8344:8763   */\n      swap2\n      swap1\n      pop\n      jump\t// out\n\n    auxdata: 0xa26469706673582212202f39b62b8453766afee0ec75dae69f8e9b9c73d15973f95474ab0c73aa27875264736f6c634300081a0033\n}\n",
				"bytecode": {
					"linkReferences": {},
					"object": "6080604052348015600e575f80fd5b506107528061001c5f395ff3fe608060405234801561000f575f80fd5b5060043610610034575f3560e01c8063172a57d714610038578063dd5f151e14610054575b5f80fd5b610052600480360381019061004d919061034f565b610070565b005b61006e600480360381019061006991906104e9565b6101a1565b005b5f808273ffffffffffffffffffffffffffffffffffffffff166040516024016040516020818303038152906040527f19932cf7000000000000000000000000000000000000000000000000000000007bffffffffffffffffffffffffffffffffffffffffffffffffffffffff19166020820180517bffffffffffffffffffffffffffffffffffffffffffffffffffffffff838183161783525050505060405161011991906105a7565b5f604051808303815f865af19150503d805f8114610152576040519150601f19603f3d011682016040523d82523d5f602084013e610157565b606091505b50915091508161019c576040517f08c379a000000000000000000000000000000000000000000000000000000000815260040161019390610617565b60405180910390fd5b505050565b5f808473ffffffffffffffffffffffffffffffffffffffff16606485856040516024016101cf929190610686565b6040516020818303038152906040527f24ccab8f000000000000000000000000000000000000000000000000000000007bffffffffffffffffffffffffffffffffffffffffffffffffffffffff19166020820180517bffffffffffffffffffffffffffffffffffffffffffffffffffffffff838183161783525050505060405161025991906105a7565b5f6040518083038185875af1925050503d805f8114610293576040519150601f19603f3d011682016040523d82523d5f602084013e610298565b606091505b5091509150816102dd576040517f08c379a00000000000000000000000000000000000000000000000000000000081526004016102d4906106fe565b60405180910390fd5b5050505050565b5f604051905090565b5f80fd5b5f80fd5b5f73ffffffffffffffffffffffffffffffffffffffff82169050919050565b5f61031e826102f5565b9050919050565b61032e81610314565b8114610338575f80fd5b50565b5f8135905061034981610325565b92915050565b5f60208284031215610364576103636102ed565b5b5f6103718482850161033b565b91505092915050565b5f80fd5b5f80fd5b5f601f19601f8301169050919050565b7f4e487b71000000000000000000000000000000000000000000000000000000005f52604160045260245ffd5b6103c882610382565b810181811067ffffffffffffffff821117156103e7576103e6610392565b5b80604052505050565b5f6103f96102e4565b905061040582826103bf565b919050565b5f67ffffffffffffffff82111561042457610423610392565b5b61042d82610382565b9050602081019050919050565b828183375f83830152505050565b5f61045a6104558461040a565b6103f0565b9050828152602081018484840111156104765761047561037e565b5b61048184828561043a565b509392505050565b5f82601f83011261049d5761049c61037a565b5b81356104ad848260208601610448565b91505092915050565b5f819050919050565b6104c8816104b6565b81146104d2575f80fd5b50565b5f813590506104e3816104bf565b92915050565b5f805f60608486031215610500576104ff6102ed565b5b5f61050d8682870161033b565b935050602084013567ffffffffffffffff81111561052e5761052d6102f1565b5b61053a86828701610489565b925050604061054b868287016104d5565b9150509250925092565b5f81519050919050565b5f81905092915050565b8281835e5f83830152505050565b5f61058182610555565b61058b818561055f565b935061059b818560208601610569565b80840191505092915050565b5f6105b28284610577565b915081905092915050565b5f82825260208201905092915050565b7f63616c6c206e6f6e65206661696c6564000000000000000000000000000000005f82015250565b5f6106016010836105bd565b915061060c826105cd565b602082019050919050565b5f6020820190508181035f83015261062e816105f5565b9050919050565b5f81519050919050565b5f61064982610635565b61065381856105bd565b9350610663818560208601610569565b61066c81610382565b840191505092915050565b610680816104b6565b82525050565b5f6040820190508181035f83015261069e818561063f565b90506106ad6020830184610677565b9392505050565b7f65727200000000000000000000000000000000000000000000000000000000005f82015250565b5f6106e86003836105bd565b91506106f3826106b4565b602082019050919050565b5f6020820190508181035f830152610715816106dc565b905091905056fea26469706673582212202f39b62b8453766afee0ec75dae69f8e9b9c73d15973f95474ab0c73aa27875264736f6c634300081a0033",
					"opcodes": "PUSH1 0x80 PUSH1 0x40 MSTORE CALLVALUE DUP1 ISZERO PUSH1 0xE JUMPI PUSH0 DUP1 REVERT JUMPDEST POP PUSH2 0x752 DUP1 PUSH2 0x1C PUSH0 CODECOPY PUSH0 RETURN INVALID PUSH1 0x80 PUSH1 0x40 MSTORE CALLVALUE DUP1 ISZERO PUSH2 0xF JUMPI PUSH0 DUP1 REVERT JUMPDEST POP PUSH1 0x4 CALLDATASIZE LT PUSH2 0x34 JUMPI PUSH0 CALLDATALOAD PUSH1 0xE0 SHR DUP1 PUSH4 0x172A57D7 EQ PUSH2 0x38 JUMPI DUP1 PUSH4 0xDD5F151E EQ PUSH2 0x54 JUMPI JUMPDEST PUSH0 DUP1 REVERT JUMPDEST PUSH2 0x52 PUSH1 0x4 DUP1 CALLDATASIZE SUB DUP2 ADD SWAP1 PUSH2 0x4D SWAP2 SWAP1 PUSH2 0x34F JUMP JUMPDEST PUSH2 0x70 JUMP JUMPDEST STOP JUMPDEST PUSH2 0x6E PUSH1 0x4 DUP1 CALLDATASIZE SUB DUP2 ADD SWAP1 PUSH2 0x69 SWAP2 SWAP1 PUSH2 0x4E9 JUMP JUMPDEST PUSH2 0x1A1 JUMP JUMPDEST STOP JUMPDEST PUSH0 DUP1 DUP3 PUSH20 0xFFFFFFFFFFFFFFFFFFFFFFFFFFFFFFFFFFFFFFFF AND PUSH1 0x40 MLOAD PUSH1 0x24 ADD PUSH1 0x40 MLOAD PUSH1 0x20 DUP2 DUP4 SUB SUB DUP2 MSTORE SWAP1 PUSH1 0x40 MSTORE PUSH32 0x19932CF700000000000000000000000000000000000000000000000000000000 PUSH28 0xFFFFFFFFFFFFFFFFFFFFFFFFFFFFFFFFFFFFFFFFFFFFFFFFFFFFFFFF NOT AND PUSH1 0x20 DUP3 ADD DUP1 MLOAD PUSH28 0xFFFFFFFFFFFFFFFFFFFFFFFFFFFFFFFFFFFFFFFFFFFFFFFFFFFFFFFF DUP4 DUP2 DUP4 AND OR DUP4 MSTORE POP POP POP POP PUSH1 0x40 MLOAD PUSH2 0x119 SWAP2 SWAP1 PUSH2 0x5A7 JUMP JUMPDEST PUSH0 PUSH1 0x40 MLOAD DUP1 DUP4 SUB DUP2 PUSH0 DUP7 GAS CALL SWAP2 POP POP RETURNDATASIZE DUP1 PUSH0 DUP2 EQ PUSH2 0x152 JUMPI PUSH1 0x40 MLOAD SWAP2 POP PUSH1 0x1F NOT PUSH1 0x3F RETURNDATASIZE ADD AND DUP3 ADD PUSH1 0x40 MSTORE RETURNDATASIZE DUP3 MSTORE RETURNDATASIZE PUSH0 PUSH1 0x20 DUP5 ADD RETURNDATACOPY PUSH2 0x157 JUMP JUMPDEST PUSH1 0x60 SWAP2 POP JUMPDEST POP SWAP2 POP SWAP2 POP DUP2 PUSH2 0x19C JUMPI PUSH1 0x40 MLOAD PUSH32 0x8C379A000000000000000000000000000000000000000000000000000000000 DUP2 MSTORE PUSH1 0x4 ADD PUSH2 0x193 SWAP1 PUSH2 0x617 JUMP JUMPDEST PUSH1 0x40 MLOAD DUP1 SWAP2 SUB SWAP1 REVERT JUMPDEST POP POP POP JUMP JUMPDEST PUSH0 DUP1 DUP5 PUSH20 0xFFFFFFFFFFFFFFFFFFFFFFFFFFFFFFFFFFFFFFFF AND PUSH1 0x64 DUP6 DUP6 PUSH1 0x40 MLOAD PUSH1 0x24 ADD PUSH2 0x1CF SWAP3 SWAP2 SWAP1 PUSH2 0x686 JUMP JUMPDEST PUSH1 0x40 MLOAD PUSH1 0x20 DUP2 DUP4 SUB SUB DUP2 MSTORE SWAP1 PUSH1 0x40 MSTORE PUSH32 0x24CCAB8F00000000000000000000000000000000000000000000000000000000 PUSH28 0xFFFFFFFFFFFFFFFFFFFFFFFFFFFFFFFFFFFFFFFFFFFFFFFFFFFFFFFF NOT AND PUSH1 0x20 DUP3 ADD DUP1 MLOAD PUSH28 0xFFFFFFFFFFFFFFFFFFFFFFFFFFFFFFFFFFFFFFFFFFFFFFFFFFFFFFFF DUP4 DUP2 DUP4 AND OR DUP4 MSTORE POP POP POP POP PUSH1 0x40 MLOAD PUSH2 0x259 SWAP2 SWAP1 PUSH2 0x5A7 JUMP JUMPDEST PUSH0 PUSH1 0x40 MLOAD DUP1 DUP4 SUB DUP2 DUP6 DUP8 GAS CALL SWAP3 POP POP POP RETURNDATASIZE DUP1 PUSH0 DUP2 EQ PUSH2 0x293 JUMPI PUSH1 0x40 MLOAD SWAP2 POP PUSH1 0x1F NOT PUSH1 0x3F RETURNDATASIZE ADD AND DUP3 ADD PUSH1 0x40 MSTORE RETURNDATASIZE DUP3 MSTORE RETURNDATASIZE PUSH0 PUSH1 0x20 DUP5 ADD RETURNDATACOPY PUSH2 0x298 JUMP JUMPDEST PUSH1 0x60 SWAP2 POP JUMPDEST POP SWAP2 POP SWAP2 POP DUP2 PUSH2 0x2DD JUMPI PUSH1 0x40 MLOAD PUSH32 0x8C379A000000000000000000000000000000000000000000000000000000000 DUP2 MSTORE PUSH1 0x4 ADD PUSH2 0x2D4 SWAP1 PUSH2 0x6FE JUMP JUMPDEST PUSH1 0x40 MLOAD DUP1 SWAP2 SUB SWAP1 REVERT JUMPDEST POP POP POP POP POP JUMP JUMPDEST PUSH0 PUSH1 0x40 MLOAD SWAP1 POP SWAP1 JUMP JUMPDEST PUSH0 DUP1 REVERT JUMPDEST PUSH0 DUP1 REVERT JUMPDEST PUSH0 PUSH20 0xFFFFFFFFFFFFFFFFFFFFFFFFFFFFFFFFFFFFFFFF DUP3 AND SWAP1 POP SWAP2 SWAP1 POP JUMP JUMPDEST PUSH0 PUSH2 0x31E DUP3 PUSH2 0x2F5 JUMP JUMPDEST SWAP1 POP SWAP2 SWAP1 POP JUMP JUMPDEST PUSH2 0x32E DUP2 PUSH2 0x314 JUMP JUMPDEST DUP2 EQ PUSH2 0x338 JUMPI PUSH0 DUP1 REVERT JUMPDEST POP JUMP JUMPDEST PUSH0 DUP2 CALLDATALOAD SWAP1 POP PUSH2 0x349 DUP2 PUSH2 0x325 JUMP JUMPDEST SWAP3 SWAP2 POP POP JUMP JUMPDEST PUSH0 PUSH1 0x20 DUP3 DUP5 SUB SLT ISZERO PUSH2 0x364 JUMPI PUSH2 0x363 PUSH2 0x2ED JUMP JUMPDEST JUMPDEST PUSH0 PUSH2 0x371 DUP5 DUP3 DUP6 ADD PUSH2 0x33B JUMP JUMPDEST SWAP2 POP POP SWAP3 SWAP2 POP POP JUMP JUMPDEST PUSH0 DUP1 REVERT JUMPDEST PUSH0 DUP1 REVERT JUMPDEST PUSH0 PUSH1 0x1F NOT PUSH1 0x1F DUP4 ADD AND SWAP1 POP SWAP2 SWAP1 POP JUMP JUMPDEST PUSH32 0x4E487B7100000000000000000000000000000000000000000000000000000000 PUSH0 MSTORE PUSH1 0x41 PUSH1 0x4 MSTORE PUSH1 0x24 PUSH0 REVERT JUMPDEST PUSH2 0x3C8 DUP3 PUSH2 0x382 JUMP JUMPDEST DUP2 ADD DUP2 DUP2 LT PUSH8 0xFFFFFFFFFFFFFFFF DUP3 GT OR ISZERO PUSH2 0x3E7 JUMPI PUSH2 0x3E6 PUSH2 0x392 JUMP JUMPDEST JUMPDEST DUP1 PUSH1 0x40 MSTORE POP POP POP JUMP JUMPDEST PUSH0 PUSH2 0x3F9 PUSH2 0x2E4 JUMP JUMPDEST SWAP1 POP PUSH2 0x405 DUP3 DUP3 PUSH2 0x3BF JUMP JUMPDEST SWAP2 SWAP1 POP JUMP JUMPDEST PUSH0 PUSH8 0xFFFFFFFFFFFFFFFF DUP3 GT ISZERO PUSH2 0x424 JUMPI PUSH2 0x423 PUSH2 0x392 JUMP JUMPDEST JUMPDEST PUSH2 0x42D DUP3 PUSH2 0x382 JUMP JUMPDEST SWAP1 POP PUSH1 0x20 DUP2 ADD SWAP1 POP SWAP2 SWAP1 POP JUMP JUMPDEST DUP3 DUP2 DUP4 CALLDATACOPY PUSH0 DUP4 DUP4 ADD MSTORE POP POP POP JUMP JUMPDEST PUSH0 PUSH2 0x45A PUSH2 0x455 DUP5 PUSH2 0x40A JUMP JUMPDEST PUSH2 0x3F0 JUMP JUMPDEST SWAP1 POP DUP3 DUP2 MSTORE PUSH1 0x20 DUP2 ADD DUP5 DUP5 DUP5 ADD GT ISZERO PUSH2 0x476 JUMPI PUSH2 0x475 PUSH2 0x37E JUMP JUMPDEST JUMPDEST PUSH2 0x481 DUP5 DUP3 DUP6 PUSH2 0x43A JUMP JUMPDEST POP SWAP4 SWAP3 POP POP POP JUMP JUMPDEST PUSH0 DUP3 PUSH1 0x1F DUP4 ADD SLT PUSH2 0x49D JUMPI PUSH2 0x49C PUSH2 0x37A JUMP JUMPDEST JUMPDEST DUP2 CALLDATALOAD PUSH2 0x4AD DUP5 DUP3 PUSH1 0x20 DUP7 ADD PUSH2 0x448 JUMP JUMPDEST SWAP2 POP POP SWAP3 SWAP2 POP POP JUMP JUMPDEST PUSH0 DUP2 SWAP1 POP SWAP2 SWAP1 POP JUMP JUMPDEST PUSH2 0x4C8 DUP2 PUSH2 0x4B6 JUMP JUMPDEST DUP2 EQ PUSH2 0x4D2 JUMPI PUSH0 DUP1 REVERT JUMPDEST POP JUMP JUMPDEST PUSH0 DUP2 CALLDATALOAD SWAP1 POP PUSH2 0x4E3 DUP2 PUSH2 0x4BF JUMP JUMPDEST SWAP3 SWAP2 POP POP JUMP JUMPDEST PUSH0 DUP1 PUSH0 PUSH1 0x60 DUP5 DUP7 SUB SLT ISZERO PUSH2 0x500 JUMPI PUSH2 0x4FF PUSH2 0x2ED JUMP JUMPDEST JUMPDEST PUSH0 PUSH2 0x50D DUP7 DUP3 DUP8 ADD PUSH2 0x33B JUMP JUMPDEST SWAP4 POP POP PUSH1 0x20 DUP5 ADD CALLDATALOAD PUSH8 0xFFFFFFFFFFFFFFFF DUP2 GT ISZERO PUSH2 0x52E JUMPI PUSH2 0x52D PUSH2 0x2F1 JUMP JUMPDEST JUMPDEST PUSH2 0x53A DUP7 DUP3 DUP8 ADD PUSH2 0x489 JUMP JUMPDEST SWAP3 POP POP PUSH1 0x40 PUSH2 0x54B DUP7 DUP3 DUP8 ADD PUSH2 0x4D5 JUMP JUMPDEST SWAP2 POP POP SWAP3 POP SWAP3 POP SWAP3 JUMP JUMPDEST PUSH0 DUP2 MLOAD SWAP1 POP SWAP2 SWAP1 POP JUMP JUMPDEST PUSH0 DUP2 SWAP1 POP SWAP3 SWAP2 POP POP JUMP JUMPDEST DUP3 DUP2 DUP4 MCOPY PUSH0 DUP4 DUP4 ADD MSTORE POP POP POP JUMP JUMPDEST PUSH0 PUSH2 0x581 DUP3 PUSH2 0x555 JUMP JUMPDEST PUSH2 0x58B DUP2 DUP6 PUSH2 0x55F JUMP JUMPDEST SWAP4 POP PUSH2 0x59B DUP2 DUP6 PUSH1 0x20 DUP7 ADD PUSH2 0x569 JUMP JUMPDEST DUP1 DUP5 ADD SWAP2 POP POP SWAP3 SWAP2 POP POP JUMP JUMPDEST PUSH0 PUSH2 0x5B2 DUP3 DUP5 PUSH2 0x577 JUMP JUMPDEST SWAP2 POP DUP2 SWAP1 POP SWAP3 SWAP2 POP POP JUMP JUMPDEST PUSH0 DUP3 DUP3 MSTORE PUSH1 0x20 DUP3 ADD SWAP1 POP SWAP3 SWAP2 POP POP JUMP JUMPDEST PUSH32 0x63616C6C206E6F6E65206661696C656400000000000000000000000000000000 PUSH0 DUP3 ADD MSTORE POP JUMP JUMPDEST PUSH0 PUSH2 0x601 PUSH1 0x10 DUP4 PUSH2 0x5BD JUMP JUMPDEST SWAP2 POP PUSH2 0x60C DUP3 PUSH2 0x5CD JUMP JUMPDEST PUSH1 0x20 DUP3 ADD SWAP1 POP SWAP2 SWAP1 POP JUMP JUMPDEST PUSH0 PUSH1 0x20 DUP3 ADD SWAP1 POP DUP2 DUP2 SUB PUSH0 DUP4 ADD MSTORE PUSH2 0x62E DUP2 PUSH2 0x5F5 JUMP JUMPDEST SWAP1 POP SWAP2 SWAP1 POP JUMP JUMPDEST PUSH0 DUP2 MLOAD SWAP1 POP SWAP2 SWAP1 POP JUMP JUMPDEST PUSH0 PUSH2 0x649 DUP3 PUSH2 0x635 JUMP JUMPDEST PUSH2 0x653 DUP2 DUP6 PUSH2 0x5BD JUMP JUMPDEST SWAP4 POP PUSH2 0x663 DUP2 DUP6 PUSH1 0x20 DUP7 ADD PUSH2 0x569 JUMP JUMPDEST PUSH2 0x66C DUP2 PUSH2 0x382 JUMP JUMPDEST DUP5 ADD SWAP2 POP POP SWAP3 SWAP2 POP POP JUMP JUMPDEST PUSH2 0x680 DUP2 PUSH2 0x4B6 JUMP JUMPDEST DUP3 MSTORE POP POP JUMP JUMPDEST PUSH0 PUSH1 0x40 DUP3 ADD SWAP1 POP DUP2 DUP2 SUB PUSH0 DUP4 ADD MSTORE PUSH2 0x69E DUP2 DUP6 PUSH2 0x63F JUMP JUMPDEST SWAP1 POP PUSH2 0x6AD PUSH1 0x20 DUP4 ADD DUP5 PUSH2 0x677 JUMP JUMPDEST SWAP4 SWAP3 POP POP POP JUMP JUMPDEST PUSH32 0x6572720000000000000000000000000000000000000000000000000000000000 PUSH0 DUP3 ADD MSTORE POP JUMP JUMPDEST PUSH0 PUSH2 0x6E8 PUSH1 0x3 DUP4 PUSH2 0x5BD JUMP JUMPDEST SWAP2 POP PUSH2 0x6F3 DUP3 PUSH2 0x6B4 JUMP JUMPDEST PUSH1 0x20 DUP3 ADD SWAP1 POP SWAP2 SWAP1 POP JUMP JUMPDEST PUSH0 PUSH1 0x20 DUP3 ADD SWAP1 POP DUP2 DUP2 SUB PUSH0 DUP4 ADD MSTORE PUSH2 0x715 DUP2 PUSH2 0x6DC JUMP JUMPDEST SWAP1 POP SWAP2 SWAP1 POP JUMP INVALID LOG2 PUSH5 0x6970667358 0x22 SLT KECCAK256 0x2F CODECOPY 0xB6 0x2B DUP5 MSTORE8 PUSH23 0x6AFEE0EC75DAE69F8E9B9C73D15973F95474AB0C73AA27 DUP8 MSTORE PUSH5 0x736F6C6343 STOP ADDMOD BYTE STOP CALLER "
				},
				"gasEstimates": {
					"creation": {
						"codeDepositCost": "374800",
						"executionCost": "409",
						"totalCost": "375209"
					},
					"external": {
						"callFoo(address,string,uint256)": "infinite",
						"callNonExistentFunction(address)": "infinite"
					}
				},
				"methodIdentifiers": {
					"callFoo(address,string,uint256)": "dd5f151e",
					"callNonExistentFunction(address)": "172a57d7"
				}
			},
			"storageLayout": {
				"storage": [],
				"types": null
			},
			"userdoc": {
				"kind": "user",
				"methods": {},
				"version": 1
			}
		}
	}
}