{
	"03/SendEther.sol": {
		"SendEther": {
			"abi": [
				{
					"inputs": [],
					"stateMutability": "payable",
					"type": "constructor"
				},
				{
					"anonymous": false,
					"inputs": [
						{
							"indexed": false,
							"internalType": "uint256",
							"name": "amount",
							"type": "uint256"
						},
						{
							"indexed": false,
							"internalType": "uint256",
							"name": "gas",
							"type": "uint256"
						}
					],
					"name": "Log",
					"type": "event"
				},
				{
					"inputs": [
						{
							"internalType": "address payable",
							"name": "_to",
							"type": "address"
						},
						{
							"internalType": "uint256",
							"name": "_amount",
							"type": "uint256"
						}
					],
					"name": "sendByCall",
					"outputs": [
						{
							"internalType": "bool",
							"name": "",
							"type": "bool"
						}
					],
					"stateMutability": "nonpayable",
					"type": "function"
				},
				{
					"inputs": [
						{
							"internalType": "address payable",
							"name": "_to",
							"type": "address"
						},
						{
							"internalType": "uint256",
							"name": "_amount",
							"type": "uint256"
						}
					],
					"name": "sendBySend",
					"outputs": [
						{
							"internalType": "bool",
							"name": "",
							"type": "bool"
						}
					],
					"stateMutability": "nonpayable",
					"type": "function"
				},
				{
					"inputs": [
						{
							"internalType": "address payable",
							"name": "_to",
							"type": "address"
						},
						{
							"internalType": "uint256",
							"name": "_amount",
							"type": "uint256"
						}
					],
					"name": "sendByTransfer",
					"outputs": [],
					"stateMutability": "nonpayable",
					"type": "function"
				},
				{
					"stateMutability": "payable",
					"type": "receive"
				}
			],
			"devdoc": {
				"kind": "dev",
				"methods": {},
				"version": 1
			},
			"evm": {
				"assembly": "    /* \"03/SendEther.sol\":57:877  contract SendEther {... */\n  mstore(0x40, 0x80)\n  dataSize(sub_0)\n  dup1\n  dataOffset(sub_0)\n  0x00\n  codecopy\n  0x00\n  return\nstop\n\nsub_0: assembly {\n        /* \"03/SendEther.sol\":57:877  contract SendEther {... */\n      mstore(0x40, 0x80)\n      jumpi(tag_1, lt(calldatasize, 0x04))\n      shr(0xe0, calldataload(0x00))\n      dup1\n      0x2424f17a\n      eq\n      tag_3\n      jumpi\n      dup1\n      0xcbadad31\n      eq\n      tag_4\n      jumpi\n      dup1\n      0xd19ec362\n      eq\n      tag_5\n      jumpi\n      0x00\n      dup1\n      revert\n    tag_1:\n      jumpi(tag_2, calldatasize)\n        /* \"03/SendEther.sol\":199:224  Log(msg.value, gasleft()) */\n      0xbd0faddf87043dd749c1b9d4dca8a12589b8cb5e2106832111ce23f219b14367\n        /* \"03/SendEther.sol\":203:212  msg.value */\n      callvalue\n        /* \"03/SendEther.sol\":214:223  gasleft() */\n      gas\n        /* \"03/SendEther.sol\":199:224  Log(msg.value, gasleft()) */\n      0x40\n      dup1\n      mload\n        /* \"#utility.yul\":188:213   */\n      swap3\n      dup4\n      mstore\n        /* \"#utility.yul\":244:246   */\n      0x20\n        /* \"#utility.yul\":229:247   */\n      dup4\n      add\n        /* \"#utility.yul\":222:256   */\n      swap2\n      swap1\n      swap2\n      mstore\n        /* \"#utility.yul\":161:179   */\n      add\n        /* \"03/SendEther.sol\":199:224  Log(msg.value, gasleft()) */\n      mload(0x40)\n      dup1\n      swap2\n      sub\n      swap1\n      log1\n        /* \"03/SendEther.sol\":57:877  contract SendEther {... */\n      stop\n    tag_2:\n      0x00\n      dup1\n      revert\n        /* \"03/SendEther.sol\":268:375  function sendByTransfer(address payable _to, uint256 _amount) public {... */\n    tag_3:\n      callvalue\n      dup1\n      iszero\n      tag_10\n      jumpi\n      0x00\n      dup1\n      revert\n    tag_10:\n      pop\n      tag_11\n      tag_12\n      calldatasize\n      0x04\n      tag_13\n      jump\t// in\n    tag_12:\n      tag_14\n      jump\t// in\n    tag_11:\n      stop\n        /* \"03/SendEther.sol\":408:613  function sendBySend(address payable _to, uint256 _amount)... */\n    tag_4:\n      callvalue\n      dup1\n      iszero\n      tag_15\n      jumpi\n      0x00\n      dup1\n      revert\n    tag_15:\n      pop\n      tag_16\n      tag_17\n      calldatasize\n      0x04\n      tag_13\n      jump\t// in\n    tag_17:\n      tag_18\n      jump\t// in\n    tag_16:\n      mload(0x40)\n        /* \"#utility.yul\":799:813   */\n      swap1\n      iszero\n        /* \"#utility.yul\":792:814   */\n      iszero\n        /* \"#utility.yul\":774:815   */\n      dup2\n      mstore\n        /* \"#utility.yul\":762:764   */\n      0x20\n        /* \"#utility.yul\":747:765   */\n      add\n        /* \"03/SendEther.sol\":408:613  function sendBySend(address payable _to, uint256 _amount)... */\n      mload(0x40)\n      dup1\n      swap2\n      sub\n      swap1\n      return\n        /* \"03/SendEther.sol\":646:875  function sendByCall(address payable _to, uint256 _amount)... */\n    tag_5:\n      callvalue\n      dup1\n      iszero\n      tag_21\n      jumpi\n      0x00\n      dup1\n      revert\n    tag_21:\n      pop\n      tag_16\n      tag_23\n      calldatasize\n      0x04\n      tag_13\n      jump\t// in\n    tag_23:\n      tag_24\n      jump\t// in\n        /* \"03/SendEther.sol\":268:375  function sendByTransfer(address payable _to, uint256 _amount) public {... */\n    tag_14:\n        /* \"03/SendEther.sol\":347:368  _to.transfer(_amount) */\n      mload(0x40)\n      sub(shl(0xa0, 0x01), 0x01)\n        /* \"03/SendEther.sol\":347:359  _to.transfer */\n      dup4\n      and\n      swap1\n        /* \"03/SendEther.sol\":347:368  _to.transfer(_amount) */\n      dup3\n      iszero\n      0x08fc\n      mul\n      swap1\n        /* \"03/SendEther.sol\":360:367  _amount */\n      dup4\n      swap1\n        /* \"03/SendEther.sol\":347:368  _to.transfer(_amount) */\n      0x00\n      dup2\n      dup2\n      dup2\n        /* \"03/SendEther.sol\":360:367  _amount */\n      dup6\n        /* \"03/SendEther.sol\":347:359  _to.transfer */\n      dup9\n        /* \"03/SendEther.sol\":347:368  _to.transfer(_amount) */\n      dup9\n      call\n      swap4\n      pop\n      pop\n      pop\n      pop\n      iszero\n      dup1\n      iszero\n      tag_28\n      jumpi\n      returndatasize\n      0x00\n      dup1\n      returndatacopy\n      revert(0x00, returndatasize)\n    tag_28:\n      pop\n        /* \"03/SendEther.sol\":268:375  function sendByTransfer(address payable _to, uint256 _amount) public {... */\n      pop\n      pop\n      jump\t// out\n        /* \"03/SendEther.sol\":408:613  function sendBySend(address payable _to, uint256 _amount)... */\n    tag_18:\n        /* \"03/SendEther.sol\":498:502  bool */\n      0x00\n        /* \"03/SendEther.sol\":518:527  bool sent */\n      dup1\n        /* \"03/SendEther.sol\":530:533  _to */\n      dup4\n      sub(shl(0xa0, 0x01), 0x01)\n        /* \"03/SendEther.sol\":530:538  _to.send */\n      and\n        /* \"03/SendEther.sol\":530:547  _to.send(_amount) */\n      0x08fc\n        /* \"03/SendEther.sol\":539:546  _amount */\n      dup5\n        /* \"03/SendEther.sol\":530:547  _to.send(_amount) */\n      swap1\n      dup2\n      iszero\n      mul\n      swap1\n      mload(0x40)\n      0x00\n      mload(0x40)\n      dup1\n      dup4\n      sub\n      dup2\n      dup6\n      dup9\n      dup9\n      call\n      swap4\n      pop\n      pop\n      pop\n      pop\n        /* \"03/SendEther.sol\":518:547  bool sent = _to.send(_amount) */\n      swap1\n      pop\n        /* \"03/SendEther.sol\":565:569  sent */\n      dup1\n        /* \"03/SendEther.sol\":557:585  require(sent, \"Send failed\") */\n      tag_31\n      jumpi\n      mload(0x40)\n      shl(0xe5, 0x461bcd)\n      dup2\n      mstore\n        /* \"#utility.yul\":1028:1030   */\n      0x20\n        /* \"03/SendEther.sol\":557:585  require(sent, \"Send failed\") */\n      0x04\n      dup3\n      add\n        /* \"#utility.yul\":1010:1031   */\n      mstore\n        /* \"#utility.yul\":1067:1069   */\n      0x0b\n        /* \"#utility.yul\":1047:1065   */\n      0x24\n      dup3\n      add\n        /* \"#utility.yul\":1040:1070   */\n      mstore\n      shl(0xaa, 0x14d95b990819985a5b1959)\n        /* \"#utility.yul\":1086:1104   */\n      0x44\n      dup3\n      add\n        /* \"#utility.yul\":1079:1120   */\n      mstore\n        /* \"#utility.yul\":1137:1155   */\n      0x64\n      add\n        /* \"03/SendEther.sol\":557:585  require(sent, \"Send failed\") */\n    tag_32:\n      mload(0x40)\n      dup1\n      swap2\n      sub\n      swap1\n      revert\n    tag_31:\n        /* \"03/SendEther.sol\":602:606  sent */\n      swap4\n        /* \"03/SendEther.sol\":408:613  function sendBySend(address payable _to, uint256 _amount)... */\n      swap3\n      pop\n      pop\n      pop\n      jump\t// out\n        /* \"03/SendEther.sol\":646:875  function sendByCall(address payable _to, uint256 _amount)... */\n    tag_24:\n        /* \"03/SendEther.sol\":736:740  bool */\n      0x00\n        /* \"03/SendEther.sol\":757:769  bool success */\n      dup1\n        /* \"03/SendEther.sol\":775:778  _to */\n      dup4\n      sub(shl(0xa0, 0x01), 0x01)\n        /* \"03/SendEther.sol\":775:783  _to.call */\n      and\n        /* \"03/SendEther.sol\":791:798  _amount */\n      dup4\n        /* \"03/SendEther.sol\":775:803  _to.call{value: _amount}(\"\") */\n      mload(0x40)\n      0x00\n      mload(0x40)\n      dup1\n      dup4\n      sub\n      dup2\n      dup6\n      dup8\n      gas\n      call\n      swap3\n      pop\n      pop\n      pop\n      returndatasize\n      dup1\n      0x00\n      dup2\n      eq\n      tag_39\n      jumpi\n      mload(0x40)\n      swap2\n      pop\n      and(add(returndatasize, 0x3f), not(0x1f))\n      dup3\n      add\n      0x40\n      mstore\n      returndatasize\n      dup3\n      mstore\n      returndatasize\n      0x00\n      0x20\n      dup5\n      add\n      returndatacopy\n      jump(tag_38)\n    tag_39:\n      0x60\n      swap2\n      pop\n    tag_38:\n      pop\n        /* \"03/SendEther.sol\":756:803  (bool success, ) = _to.call{value: _amount}(\"\") */\n      pop\n      swap1\n      pop\n        /* \"03/SendEther.sol\":821:828  success */\n      dup1\n        /* \"03/SendEther.sol\":813:844  require(success, \"Call failed\") */\n      tag_31\n      jumpi\n      mload(0x40)\n      shl(0xe5, 0x461bcd)\n      dup2\n      mstore\n        /* \"#utility.yul\":1578:1580   */\n      0x20\n        /* \"03/SendEther.sol\":813:844  require(success, \"Call failed\") */\n      0x04\n      dup3\n      add\n        /* \"#utility.yul\":1560:1581   */\n      mstore\n        /* \"#utility.yul\":1617:1619   */\n      0x0b\n        /* \"#utility.yul\":1597:1615   */\n      0x24\n      dup3\n      add\n        /* \"#utility.yul\":1590:1620   */\n      mstore\n      shl(0xaa, 0x10d85b1b0819985a5b1959)\n        /* \"#utility.yul\":1636:1654   */\n      0x44\n      dup3\n      add\n        /* \"#utility.yul\":1629:1670   */\n      mstore\n        /* \"#utility.yul\":1687:1705   */\n      0x64\n      add\n        /* \"03/SendEther.sol\":813:844  require(success, \"Call failed\") */\n      tag_32\n        /* \"#utility.yul\":1376:1711   */\n      jump\n        /* \"#utility.yul\":267:629   */\n    tag_13:\n        /* \"#utility.yul\":343:349   */\n      0x00\n        /* \"#utility.yul\":351:357   */\n      dup1\n        /* \"#utility.yul\":404:406   */\n      0x40\n        /* \"#utility.yul\":392:401   */\n      dup4\n        /* \"#utility.yul\":383:390   */\n      dup6\n        /* \"#utility.yul\":379:402   */\n      sub\n        /* \"#utility.yul\":375:407   */\n      slt\n        /* \"#utility.yul\":372:424   */\n      iszero\n      tag_46\n      jumpi\n        /* \"#utility.yul\":420:421   */\n      0x00\n        /* \"#utility.yul\":417:418   */\n      dup1\n        /* \"#utility.yul\":410:422   */\n      revert\n        /* \"#utility.yul\":372:424   */\n    tag_46:\n        /* \"#utility.yul\":446:469   */\n      dup3\n      calldataload\n      sub(shl(0xa0, 0x01), 0x01)\n        /* \"#utility.yul\":498:529   */\n      dup2\n      and\n        /* \"#utility.yul\":488:530   */\n      dup2\n      eq\n        /* \"#utility.yul\":478:548   */\n      tag_47\n      jumpi\n        /* \"#utility.yul\":544:545   */\n      0x00\n        /* \"#utility.yul\":541:542   */\n      dup1\n        /* \"#utility.yul\":534:546   */\n      revert\n        /* \"#utility.yul\":478:548   */\n    tag_47:\n        /* \"#utility.yul\":567:572   */\n      swap5\n        /* \"#utility.yul\":619:621   */\n      0x20\n        /* \"#utility.yul\":604:622   */\n      swap4\n      swap1\n      swap4\n      add\n        /* \"#utility.yul\":591:623   */\n      calldataload\n      swap4\n      pop\n      pop\n      pop\n        /* \"#utility.yul\":267:629   */\n      jump\t// out\n\n    auxdata: 0xa264697066735822122038c819b0faaf1697ec0cbcc71f231543a37db75c4436c041b4698134a172b82e64736f6c634300081a0033\n}\n",
				"bytecode": {
					"linkReferences": {},
					"object": "6080604052610292806100115f395ff3fe608060405260043610610036575f3560e01c80632424f17a1461007c578063cbadad311461009d578063d19ec362146100d0575f80fd5b36610078577fbd0faddf87043dd749c1b9d4dca8a12589b8cb5e2106832111ce23f219b14367345a6040805192835260208301919091520160405180910390a1005b5f80fd5b348015610087575f80fd5b5061009b610096366004610227565b6100ef565b005b3480156100a8575f80fd5b506100bc6100b7366004610227565b610127565b604051901515815260200160405180910390f35b3480156100db575f80fd5b506100bc6100ea366004610227565b610199565b6040516001600160a01b0383169082156108fc029083905f818181858888f19350505050158015610122573d5f803e3d5ffd5b505050565b5f80836001600160a01b03166108fc8490811502906040515f60405180830381858888f193505050509050806101925760405162461bcd60e51b815260206004820152600b60248201526a14d95b990819985a5b195960aa1b60448201526064015b60405180910390fd5b9392505050565b5f80836001600160a01b0316836040515f6040518083038185875af1925050503d805f81146101e3576040519150601f19603f3d011682016040523d82523d5f602084013e6101e8565b606091505b50509050806101925760405162461bcd60e51b815260206004820152600b60248201526a10d85b1b0819985a5b195960aa1b6044820152606401610189565b5f8060408385031215610238575f80fd5b82356001600160a01b038116811461024e575f80fd5b94602093909301359350505056fea264697066735822122038c819b0faaf1697ec0cbcc71f231543a37db75c4436c041b4698134a172b82e64736f6c634300081a0033",
					"opcodes": "PUSH1 0x80 PUSH1 0x40 MSTORE PUSH2 0x292 DUP1 PUSH2 0x11 PUSH0 CODECOPY PUSH0 RETURN INVALID PUSH1 0x80 PUSH1 0x40 MSTORE PUSH1 0x4 CALLDATASIZE LT PUSH2 0x36 JUMPI PUSH0 CALLDATALOAD PUSH1 0xE0 SHR DUP1 PUSH4 0x2424F17A EQ PUSH2 0x7C JUMPI DUP1 PUSH4 0xCBADAD31 EQ PUSH2 0x9D JUMPI DUP1 PUSH4 0xD19EC362 EQ PUSH2 0xD0 JUMPI PUSH0 DUP1 REVERT JUMPDEST CALLDATASIZE PUSH2 0x78 JUMPI PUSH32 0xBD0FADDF87043DD749C1B9D4DCA8A12589B8CB5E2106832111CE23F219B14367 CALLVALUE GAS PUSH1 0x40 DUP1 MLOAD SWAP3 DUP4 MSTORE PUSH1 0x20 DUP4 ADD SWAP2 SWAP1 SWAP2 MSTORE ADD PUSH1 0x40 MLOAD DUP1 SWAP2 SUB SWAP1 LOG1 STOP JUMPDEST PUSH0 DUP1 REVERT JUMPDEST CALLVALUE DUP1 ISZERO PUSH2 0x87 JUMPI PUSH0 DUP1 REVERT JUMPDEST POP PUSH2 0x9B PUSH2 0x96 CALLDATASIZE PUSH1 0x4 PUSH2 0x227 JUMP JUMPDEST PUSH2 0xEF JUMP JUMPDEST STOP JUMPDEST CALLVALUE DUP1 ISZERO PUSH2 0xA8 JUMPI PUSH0 DUP1 REVERT JUMPDEST POP PUSH2 0xBC PUSH2 0xB7 CALLDATASIZE PUSH1 0x4 PUSH2 0x227 JUMP JUMPDEST PUSH2 0x127 JUMP JUMPDEST PUSH1 0x40 MLOAD SWAP1 ISZERO ISZERO DUP2 MSTORE PUSH1 0x20 ADD PUSH1 0x40 MLOAD DUP1 SWAP2 SUB SWAP1 RETURN JUMPDEST CALLVALUE DUP1 ISZERO PUSH2 0xDB JUMPI PUSH0 DUP1 REVERT JUMPDEST POP PUSH2 0xBC PUSH2 0xEA CALLDATASIZE PUSH1 0x4 PUSH2 0x227 JUMP JUMPDEST PUSH2 0x199 JUMP JUMPDEST PUSH1 0x40 MLOAD PUSH1 0x1 PUSH1 0x1 PUSH1 0xA0 SHL SUB DUP4 AND SWAP1 DUP3 ISZERO PUSH2 0x8FC MUL SWAP1 DUP4 SWAP1 PUSH0 DUP2 DUP2 DUP2 DUP6 DUP9 DUP9 CALL SWAP4 POP POP POP POP ISZERO DUP1 ISZERO PUSH2 0x122 JUMPI RETURNDATASIZE PUSH0 DUP1 RETURNDATACOPY RETURNDATASIZE PUSH0 REVERT JUMPDEST POP POP POP JUMP JUMPDEST PUSH0 DUP1 DUP4 PUSH1 0x1 PUSH1 0x1 PUSH1 0xA0 SHL SUB AND PUSH2 0x8FC DUP5 SWAP1 DUP2 ISZERO MUL SWAP1 PUSH1 0x40 MLOAD PUSH0 PUSH1 0x40 MLOAD DUP1 DUP4 SUB DUP2 DUP6 DUP9 DUP9 CALL SWAP4 POP POP POP POP SWAP1 POP DUP1 PUSH2 0x192 JUMPI PUSH1 0x40 MLOAD PUSH3 0x461BCD PUSH1 0xE5 SHL DUP2 MSTORE PUSH1 0x20 PUSH1 0x4 DUP3 ADD MSTORE PUSH1 0xB PUSH1 0x24 DUP3 ADD MSTORE PUSH11 0x14D95B990819985A5B1959 PUSH1 0xAA SHL PUSH1 0x44 DUP3 ADD MSTORE PUSH1 0x64 ADD JUMPDEST PUSH1 0x40 MLOAD DUP1 SWAP2 SUB SWAP1 REVERT JUMPDEST SWAP4 SWAP3 POP POP POP JUMP JUMPDEST PUSH0 DUP1 DUP4 PUSH1 0x1 PUSH1 0x1 PUSH1 0xA0 SHL SUB AND DUP4 PUSH1 0x40 MLOAD PUSH0 PUSH1 0x40 MLOAD DUP1 DUP4 SUB DUP2 DUP6 DUP8 GAS CALL SWAP3 POP POP POP RETURNDATASIZE DUP1 PUSH0 DUP2 EQ PUSH2 0x1E3 JUMPI PUSH1 0x40 MLOAD SWAP2 POP PUSH1 0x1F NOT PUSH1 0x3F RETURNDATASIZE ADD AND DUP3 ADD PUSH1 0x40 MSTORE RETURNDATASIZE DUP3 MSTORE RETURNDATASIZE PUSH0 PUSH1 0x20 DUP5 ADD RETURNDATACOPY PUSH2 0x1E8 JUMP JUMPDEST PUSH1 0x60 SWAP2 POP JUMPDEST POP POP SWAP1 POP DUP1 PUSH2 0x192 JUMPI PUSH1 0x40 MLOAD PUSH3 0x461BCD PUSH1 0xE5 SHL DUP2 MSTORE PUSH1 0x20 PUSH1 0x4 DUP3 ADD MSTORE PUSH1 0xB PUSH1 0x24 DUP3 ADD MSTORE PUSH11 0x10D85B1B0819985A5B1959 PUSH1 0xAA SHL PUSH1 0x44 DUP3 ADD MSTORE PUSH1 0x64 ADD PUSH2 0x189 JUMP JUMPDEST PUSH0 DUP1 PUSH1 0x40 DUP4 DUP6 SUB SLT ISZERO PUSH2 0x238 JUMPI PUSH0 DUP1 REVERT JUMPDEST DUP3 CALLDATALOAD PUSH1 0x1 PUSH1 0x1 PUSH1 0xA0 SHL SUB DUP2 AND DUP2 EQ PUSH2 0x24E JUMPI PUSH0 DUP1 REVERT JUMPDEST SWAP5 PUSH1 0x20 SWAP4 SWAP1 SWAP4 ADD CALLDATALOAD SWAP4 POP POP POP JUMP INVALID LOG2 PUSH5 0x6970667358 0x22 SLT KECCAK256 CODESIZE 0xC8 NOT 0xB0 STATICCALL 0xAF AND SWAP8 0xEC 0xC 0xBC 0xC7 0x1F 0x23 ISZERO NUMBER LOG3 PUSH30 0xB75C4436C041B4698134A172B82E64736F6C634300081A00330000000000 "
				},
				"gasEstimates": {
					"creation": {
						"codeDepositCost": "131600",
						"executionCost": "151",
						"totalCost": "131751"
					},
					"external": {
						"sendByCall(address,uint256)": "infinite",
						"sendBySend(address,uint256)": "infinite",
						"sendByTransfer(address,uint256)": "infinite"
					}
				},
				"methodIdentifiers": {
					"sendByCall(address,uint256)": "d19ec362",
					"sendBySend(address,uint256)": "cbadad31",
					"sendByTransfer(address,uint256)": "2424f17a"
				}
			},
			"storageLayout": {
				"storage": [],
				"types": null
			},
			"userdoc": {
				"kind": "user",
				"methods": {},
				"version": 1
			}
		}
	}
}