{
	"03/MyCallerContract.sol": {
		"MyTargetContract": {
			"abi": [
				{
					"inputs": [],
					"name": "getX",
					"outputs": [
						{
							"internalType": "uint256",
							"name": "",
							"type": "uint256"
						}
					],
					"stateMutability": "view",
					"type": "function"
				},
				{
					"inputs": [],
					"name": "getXAndValue",
					"outputs": [
						{
							"internalType": "uint256",
							"name": "",
							"type": "uint256"
						},
						{
							"internalType": "uint256",
							"name": "",
							"type": "uint256"
						}
					],
					"stateMutability": "view",
					"type": "function"
				},
				{
					"inputs": [
						{
							"internalType": "uint256",
							"name": "_x",
							"type": "uint256"
						}
					],
					"name": "setX",
					"outputs": [],
					"stateMutability": "nonpayable",
					"type": "function"
				},
				{
					"inputs": [
						{
							"internalType": "uint256",
							"name": "_x",
							"type": "uint256"
						}
					],
					"name": "setXAndReceiveEther",
					"outputs": [],
					"stateMutability": "payable",
					"type": "function"
				},
				{
					"inputs": [],
					"name": "value",
					"outputs": [
						{
							"internalType": "uint256",
							"name": "",
							"type": "uint256"
						}
					],
					"stateMutability": "view",
					"type": "function"
				},
				{
					"inputs": [],
					"name": "x",
					"outputs": [
						{
							"internalType": "uint256",
							"name": "",
							"type": "uint256"
						}
					],
					"stateMutability": "view",
					"type": "function"
				}
			],
			"devdoc": {
				"kind": "dev",
				"methods": {},
				"version": 1
			},
			"evm": {
				"assembly": "    /* \"03/MyCallerContract.sol\":601:1007  contract MyTargetContract{... */\n  mstore(0x40, 0x80)\n  callvalue\n  dup1\n  iszero\n  tag_1\n  jumpi\n  0x00\n  dup1\n  revert\ntag_1:\n  pop\n  dataSize(sub_0)\n  dup1\n  dataOffset(sub_0)\n  0x00\n  codecopy\n  0x00\n  return\nstop\n\nsub_0: assembly {\n        /* \"03/MyCallerContract.sol\":601:1007  contract MyTargetContract{... */\n      mstore(0x40, 0x80)\n      jumpi(tag_1, lt(calldatasize, 0x04))\n      shr(0xe0, calldataload(0x00))\n      dup1\n      0x0c55699c\n      eq\n      tag_2\n      jumpi\n      dup1\n      0x2b5d6086\n      eq\n      tag_3\n      jumpi\n      dup1\n      0x3fa4f245\n      eq\n      tag_4\n      jumpi\n      dup1\n      0x4018d9aa\n      eq\n      tag_5\n      jumpi\n      dup1\n      0x5197c7aa\n      eq\n      tag_6\n      jumpi\n      dup1\n      0xc9c4e00f\n      eq\n      tag_7\n      jumpi\n    tag_1:\n      0x00\n      dup1\n      revert\n        /* \"03/MyCallerContract.sol\":632:645  uint public x */\n    tag_2:\n      callvalue\n      dup1\n      iszero\n      tag_8\n      jumpi\n      0x00\n      dup1\n      revert\n    tag_8:\n      pop\n      tag_9\n      sload(0x00)\n      dup2\n      jump\n    tag_9:\n      mload(0x40)\n        /* \"#utility.yul\":160:185   */\n      swap1\n      dup2\n      mstore\n        /* \"#utility.yul\":148:150   */\n      0x20\n        /* \"#utility.yul\":133:151   */\n      add\n        /* \"03/MyCallerContract.sol\":632:645  uint public x */\n    tag_11:\n      mload(0x40)\n      dup1\n      swap2\n      sub\n      swap1\n      return\n        /* \"03/MyCallerContract.sol\":917:1005  function getXAndValue() public view returns(uint,uint) {... */\n    tag_3:\n      callvalue\n      dup1\n      iszero\n      tag_13\n      jumpi\n      0x00\n      dup1\n      revert\n    tag_13:\n      pop\n        /* \"03/MyCallerContract.sol\":961:965  uint */\n      0x00\n        /* \"03/MyCallerContract.sol\":990:991  x */\n      sload\n        /* \"03/MyCallerContract.sol\":992:997  value */\n      sload(0x01)\n        /* \"03/MyCallerContract.sol\":917:1005  function getXAndValue() public view returns(uint,uint) {... */\n      0x40\n      dup1\n      mload\n        /* \"#utility.yul\":370:395   */\n      swap3\n      dup4\n      mstore\n        /* \"#utility.yul\":426:428   */\n      0x20\n        /* \"#utility.yul\":411:429   */\n      dup4\n      add\n        /* \"#utility.yul\":404:438   */\n      swap2\n      swap1\n      swap2\n      mstore\n        /* \"#utility.yul\":343:361   */\n      add\n        /* \"03/MyCallerContract.sol\":917:1005  function getXAndValue() public view returns(uint,uint) {... */\n      tag_11\n        /* \"#utility.yul\":196:444   */\n      jump\n        /* \"03/MyCallerContract.sol\":651:668  uint public value */\n    tag_4:\n      callvalue\n      dup1\n      iszero\n      tag_18\n      jumpi\n      0x00\n      dup1\n      revert\n    tag_18:\n      pop\n      tag_9\n      sload(0x01)\n      dup2\n      jump\n        /* \"03/MyCallerContract.sol\":675:728  function setX(uint _x) public {... */\n    tag_5:\n      callvalue\n      dup1\n      iszero\n      tag_22\n      jumpi\n      0x00\n      dup1\n      revert\n    tag_22:\n      pop\n      tag_23\n      tag_24\n      calldatasize\n      0x04\n      tag_25\n      jump\t// in\n    tag_24:\n        /* \"03/MyCallerContract.sol\":715:716  x */\n      0x00\n        /* \"03/MyCallerContract.sol\":715:721  x = _x */\n      sstore\n        /* \"03/MyCallerContract.sol\":675:728  function setX(uint _x) public {... */\n      jump\n    tag_23:\n      stop\n        /* \"03/MyCallerContract.sol\":734:801  function getX() public view returns (uint){... */\n    tag_6:\n      callvalue\n      dup1\n      iszero\n      tag_27\n      jumpi\n      0x00\n      dup1\n      revert\n    tag_27:\n      pop\n        /* \"03/MyCallerContract.sol\":771:775  uint */\n      0x00\n        /* \"03/MyCallerContract.sol\":793:794  x */\n      sload\n        /* \"03/MyCallerContract.sol\":734:801  function getX() public view returns (uint){... */\n      jump(tag_9)\n        /* \"03/MyCallerContract.sol\":807:911  function setXAndReceiveEther(uint _x) external payable{... */\n    tag_7:\n      tag_23\n      tag_32\n      calldatasize\n      0x04\n      tag_25\n      jump\t// in\n    tag_32:\n        /* \"03/MyCallerContract.sol\":871:872  x */\n      0x00\n        /* \"03/MyCallerContract.sol\":871:877  x = _x */\n      sstore\n        /* \"03/MyCallerContract.sol\":895:904  msg.value */\n      callvalue\n        /* \"03/MyCallerContract.sol\":887:892  value */\n      0x01\n        /* \"03/MyCallerContract.sol\":887:904  value = msg.value */\n      sstore\n        /* \"03/MyCallerContract.sol\":807:911  function setXAndReceiveEther(uint _x) external payable{... */\n      jump\n        /* \"#utility.yul\":449:629   */\n    tag_25:\n        /* \"#utility.yul\":508:514   */\n      0x00\n        /* \"#utility.yul\":561:563   */\n      0x20\n        /* \"#utility.yul\":549:558   */\n      dup3\n        /* \"#utility.yul\":540:547   */\n      dup5\n        /* \"#utility.yul\":536:559   */\n      sub\n        /* \"#utility.yul\":532:564   */\n      slt\n        /* \"#utility.yul\":529:581   */\n      iszero\n      tag_42\n      jumpi\n        /* \"#utility.yul\":577:578   */\n      0x00\n        /* \"#utility.yul\":574:575   */\n      dup1\n        /* \"#utility.yul\":567:579   */\n      revert\n        /* \"#utility.yul\":529:581   */\n    tag_42:\n      pop\n        /* \"#utility.yul\":600:623   */\n      calldataload\n      swap2\n        /* \"#utility.yul\":449:629   */\n      swap1\n      pop\n      jump\t// out\n\n    auxdata: 0xa26469706673582212204c43a40647195ec1e0d043c71418b4721818cc5261d92b7beb29c528a6875a0a64736f6c634300081a0033\n}\n",
				"bytecode": {
					"linkReferences": {},
					"object": "6080604052348015600e575f80fd5b506101508061001c5f395ff3fe608060405260043610610054575f3560e01c80630c55699c146100585780632b5d60861461007f5780633fa4f245146100a55780634018d9aa146100ba5780635197c7aa146100da578063c9c4e00f146100ed575b5f80fd5b348015610063575f80fd5b5061006c5f5481565b6040519081526020015b60405180910390f35b34801561008a575f80fd5b505f5460015460408051928352602083019190915201610076565b3480156100b0575f80fd5b5061006c60015481565b3480156100c5575f80fd5b506100d86100d4366004610103565b5f55565b005b3480156100e5575f80fd5b505f5461006c565b6100d86100fb366004610103565b5f5534600155565b5f60208284031215610113575f80fd5b503591905056fea26469706673582212204c43a40647195ec1e0d043c71418b4721818cc5261d92b7beb29c528a6875a0a64736f6c634300081a0033",
					"opcodes": "PUSH1 0x80 PUSH1 0x40 MSTORE CALLVALUE DUP1 ISZERO PUSH1 0xE JUMPI PUSH0 DUP1 REVERT JUMPDEST POP PUSH2 0x150 DUP1 PUSH2 0x1C PUSH0 CODECOPY PUSH0 RETURN INVALID PUSH1 0x80 PUSH1 0x40 MSTORE PUSH1 0x4 CALLDATASIZE LT PUSH2 0x54 JUMPI PUSH0 CALLDATALOAD PUSH1 0xE0 SHR DUP1 PUSH4 0xC55699C EQ PUSH2 0x58 JUMPI DUP1 PUSH4 0x2B5D6086 EQ PUSH2 0x7F JUMPI DUP1 PUSH4 0x3FA4F245 EQ PUSH2 0xA5 JUMPI DUP1 PUSH4 0x4018D9AA EQ PUSH2 0xBA JUMPI DUP1 PUSH4 0x5197C7AA EQ PUSH2 0xDA JUMPI DUP1 PUSH4 0xC9C4E00F EQ PUSH2 0xED JUMPI JUMPDEST PUSH0 DUP1 REVERT JUMPDEST CALLVALUE DUP1 ISZERO PUSH2 0x63 JUMPI PUSH0 DUP1 REVERT JUMPDEST POP PUSH2 0x6C PUSH0 SLOAD DUP2 JUMP JUMPDEST PUSH1 0x40 MLOAD SWAP1 DUP2 MSTORE PUSH1 0x20 ADD JUMPDEST PUSH1 0x40 MLOAD DUP1 SWAP2 SUB SWAP1 RETURN JUMPDEST CALLVALUE DUP1 ISZERO PUSH2 0x8A JUMPI PUSH0 DUP1 REVERT JUMPDEST POP PUSH0 SLOAD PUSH1 0x1 SLOAD PUSH1 0x40 DUP1 MLOAD SWAP3 DUP4 MSTORE PUSH1 0x20 DUP4 ADD SWAP2 SWAP1 SWAP2 MSTORE ADD PUSH2 0x76 JUMP JUMPDEST CALLVALUE DUP1 ISZERO PUSH2 0xB0 JUMPI PUSH0 DUP1 REVERT JUMPDEST POP PUSH2 0x6C PUSH1 0x1 SLOAD DUP2 JUMP JUMPDEST CALLVALUE DUP1 ISZERO PUSH2 0xC5 JUMPI PUSH0 DUP1 REVERT JUMPDEST POP PUSH2 0xD8 PUSH2 0xD4 CALLDATASIZE PUSH1 0x4 PUSH2 0x103 JUMP JUMPDEST PUSH0 SSTORE JUMP JUMPDEST STOP JUMPDEST CALLVALUE DUP1 ISZERO PUSH2 0xE5 JUMPI PUSH0 DUP1 REVERT JUMPDEST POP PUSH0 SLOAD PUSH2 0x6C JUMP JUMPDEST PUSH2 0xD8 PUSH2 0xFB CALLDATASIZE PUSH1 0x4 PUSH2 0x103 JUMP JUMPDEST PUSH0 SSTORE CALLVALUE PUSH1 0x1 SSTORE JUMP JUMPDEST PUSH0 PUSH1 0x20 DUP3 DUP5 SUB SLT ISZERO PUSH2 0x113 JUMPI PUSH0 DUP1 REVERT JUMPDEST POP CALLDATALOAD SWAP2 SWAP1 POP JUMP INVALID LOG2 PUSH5 0x6970667358 0x22 SLT KECCAK256 0x4C NUMBER LOG4 MOD SELFBALANCE NOT MCOPY 0xC1 0xE0 0xD0 NUMBER 0xC7 EQ XOR 0xB4 PUSH19 0x1818CC5261D92B7BEB29C528A6875A0A64736F PUSH13 0x634300081A0033000000000000 "
				},
				"gasEstimates": {
					"creation": {
						"codeDepositCost": "67200",
						"executionCost": "115",
						"totalCost": "67315"
					},
					"external": {
						"getX()": "2345",
						"getXAndValue()": "4405",
						"setX(uint256)": "22353",
						"setXAndReceiveEther(uint256)": "44478",
						"value()": "2305",
						"x()": "2260"
					}
				},
				"methodIdentifiers": {
					"getX()": "5197c7aa",
					"getXAndValue()": "2b5d6086",
					"setX(uint256)": "4018d9aa",
					"setXAndReceiveEther(uint256)": "c9c4e00f",
					"value()": "3fa4f245",
					"x()": "0c55699c"
				}
			},
			"storageLayout": {
				"storage": [
					{
						"astId": 67,
						"contract": "03/MyCallerContract.sol:MyTargetContract",
						"label": "x",
						"offset": 0,
						"slot": "0",
						"type": "t_uint256"
					},
					{
						"astId": 69,
						"contract": "03/MyCallerContract.sol:MyTargetContract",
						"label": "value",
						"offset": 0,
						"slot": "1",
						"type": "t_uint256"
					}
				],
				"types": {
					"t_uint256": {
						"encoding": "inplace",
						"label": "uint256",
						"numberOfBytes": "32"
					}
				}
			},
			"userdoc": {
				"kind": "user",
				"methods": {},
				"version": 1
			}
		}
	}
}