{
	"03/EtherWallet.sol": {
		"EtherWallet": {
			"abi": [
				{
					"inputs": [],
					"stateMutability": "nonpayable",
					"type": "constructor"
				},
				{
					"inputs": [],
					"name": "balance",
					"outputs": [
						{
							"internalType": "uint256",
							"name": "",
							"type": "uint256"
						}
					],
					"stateMutability": "view",
					"type": "function"
				},
				{
					"inputs": [],
					"name": "owner",
					"outputs": [
						{
							"internalType": "address",
							"name": "",
							"type": "address"
						}
					],
					"stateMutability": "view",
					"type": "function"
				},
				{
					"inputs": [
						{
							"internalType": "uint256",
							"name": "amount",
							"type": "uint256"
						}
					],
					"name": "withdraw",
					"outputs": [],
					"stateMutability": "payable",
					"type": "function"
				},
				{
					"stateMutability": "payable",
					"type": "receive"
				}
			],
			"devdoc": {
				"kind": "dev",
				"methods": {},
				"version": 1
			},
			"evm": {
				"assembly": "    /* \"03/EtherWallet.sol\":57:444  contract EtherWallet{... */\n  mstore(0x40, 0x80)\n    /* \"03/EtherWallet.sol\":109:157  constructor(){... */\n  callvalue\n  dup1\n  iszero\n  tag_1\n  jumpi\n  0x00\n  dup1\n  revert\ntag_1:\n  pop\n    /* \"03/EtherWallet.sol\":132:137  owner */\n  0x00\n    /* \"03/EtherWallet.sol\":132:150  owner = msg.sender */\n  dup1\n  sload\n  not(sub(shl(0xa0, 0x01), 0x01))\n  and\n    /* \"03/EtherWallet.sol\":140:150  msg.sender */\n  caller\n    /* \"03/EtherWallet.sol\":132:150  owner = msg.sender */\n  or\n  swap1\n  sstore\n    /* \"03/EtherWallet.sol\":57:444  contract EtherWallet{... */\n  dataSize(sub_0)\n  dup1\n  dataOffset(sub_0)\n  0x00\n  codecopy\n  0x00\n  return\nstop\n\nsub_0: assembly {\n        /* \"03/EtherWallet.sol\":57:444  contract EtherWallet{... */\n      mstore(0x40, 0x80)\n      jumpi(tag_1, lt(calldatasize, 0x04))\n      shr(0xe0, calldataload(0x00))\n      dup1\n      0x2e1a7d4d\n      eq\n      tag_3\n      jumpi\n      dup1\n      0x8da5cb5b\n      eq\n      tag_4\n      jumpi\n      dup1\n      0xb69ef8a8\n      eq\n      tag_5\n      jumpi\n      0x00\n      dup1\n      revert\n    tag_1:\n      jumpi(tag_2, calldatasize)\n      stop\n    tag_2:\n      0x00\n      dup1\n      revert\n        /* \"03/EtherWallet.sol\":203:344  function withdraw(uint amount) external payable{... */\n    tag_3:\n      tag_8\n      tag_9\n      calldatasize\n      0x04\n      tag_10\n      jump\t// in\n    tag_9:\n      tag_11\n      jump\t// in\n    tag_8:\n      stop\n        /* \"03/EtherWallet.sol\":83:103  address public owner */\n    tag_4:\n      callvalue\n      dup1\n      iszero\n      tag_12\n      jumpi\n      0x00\n      dup1\n      revert\n    tag_12:\n      pop\n      sload(0x00)\n      tag_13\n      swap1\n      sub(shl(0xa0, 0x01), 0x01)\n      and\n      dup2\n      jump\n    tag_13:\n      mload(0x40)\n      sub(shl(0xa0, 0x01), 0x01)\n        /* \"#utility.yul\":363:395   */\n      swap1\n      swap2\n      and\n        /* \"#utility.yul\":345:396   */\n      dup2\n      mstore\n        /* \"#utility.yul\":333:335   */\n      0x20\n        /* \"#utility.yul\":318:336   */\n      add\n        /* \"03/EtherWallet.sol\":83:103  address public owner */\n    tag_15:\n      mload(0x40)\n      dup1\n      swap2\n      sub\n      swap1\n      return\n        /* \"03/EtherWallet.sol\":350:442  function balance() external view returns(uint){... */\n    tag_5:\n      callvalue\n      dup1\n      iszero\n      tag_17\n      jumpi\n      0x00\n      dup1\n      revert\n    tag_17:\n      pop\n      mload(0x40)\n        /* \"03/EtherWallet.sol\":413:434  address(this).balance */\n      selfbalance\n        /* \"#utility.yul\":553:578   */\n      dup2\n      mstore\n        /* \"#utility.yul\":541:543   */\n      0x20\n        /* \"#utility.yul\":526:544   */\n      add\n        /* \"03/EtherWallet.sol\":350:442  function balance() external view returns(uint){... */\n      tag_15\n        /* \"#utility.yul\":407:584   */\n      jump\n        /* \"03/EtherWallet.sol\":203:344  function withdraw(uint amount) external payable{... */\n    tag_11:\n        /* \"03/EtherWallet.sol\":269:274  owner */\n      and(sub(shl(0xa0, 0x01), 0x01), sload(0x00))\n        /* \"03/EtherWallet.sol\":276:286  msg.sender */\n      caller\n        /* \"03/EtherWallet.sol\":269:286  owner==msg.sender */\n      eq\n        /* \"03/EtherWallet.sol\":261:296  require(owner==msg.sender,\"illege\") */\n      tag_23\n      jumpi\n      mload(0x40)\n      shl(0xe5, 0x461bcd)\n      dup2\n      mstore\n        /* \"#utility.yul\":791:793   */\n      0x20\n        /* \"03/EtherWallet.sol\":261:296  require(owner==msg.sender,\"illege\") */\n      0x04\n      dup3\n      add\n        /* \"#utility.yul\":773:794   */\n      mstore\n        /* \"#utility.yul\":830:831   */\n      0x06\n        /* \"#utility.yul\":810:828   */\n      0x24\n      dup3\n      add\n        /* \"#utility.yul\":803:832   */\n      mstore\n      shl(0xd0, 0x696c6c656765)\n        /* \"#utility.yul\":848:866   */\n      0x44\n      dup3\n      add\n        /* \"#utility.yul\":841:877   */\n      mstore\n        /* \"#utility.yul\":894:912   */\n      0x64\n      add\n        /* \"03/EtherWallet.sol\":261:296  require(owner==msg.sender,\"illege\") */\n      mload(0x40)\n      dup1\n      swap2\n      sub\n      swap1\n      revert\n    tag_23:\n        /* \"03/EtherWallet.sol\":314:319  owner */\n      0x00\n      dup1\n      sload\n        /* \"03/EtherWallet.sol\":306:337  payable(owner).transfer(amount) */\n      mload(0x40)\n      sub(shl(0xa0, 0x01), 0x01)\n        /* \"03/EtherWallet.sol\":314:319  owner */\n      swap1\n      swap2\n      and\n      swap2\n        /* \"03/EtherWallet.sol\":306:337  payable(owner).transfer(amount) */\n      dup4\n      iszero\n      0x08fc\n      mul\n      swap2\n        /* \"03/EtherWallet.sol\":330:336  amount */\n      dup5\n      swap2\n        /* \"03/EtherWallet.sol\":306:337  payable(owner).transfer(amount) */\n      dup2\n        /* \"03/EtherWallet.sol\":314:319  owner */\n      dup2\n        /* \"03/EtherWallet.sol\":306:337  payable(owner).transfer(amount) */\n      dup2\n        /* \"03/EtherWallet.sol\":330:336  amount */\n      dup6\n        /* \"03/EtherWallet.sol\":314:319  owner */\n      dup9\n        /* \"03/EtherWallet.sol\":306:337  payable(owner).transfer(amount) */\n      dup9\n      call\n      swap4\n      pop\n      pop\n      pop\n      pop\n      iszero\n      dup1\n      iszero\n      tag_27\n      jumpi\n      returndatasize\n      0x00\n      dup1\n      returndatacopy\n      revert(0x00, returndatasize)\n    tag_27:\n      pop\n        /* \"03/EtherWallet.sol\":203:344  function withdraw(uint amount) external payable{... */\n      pop\n      jump\t// out\n        /* \"#utility.yul\":14:194   */\n    tag_10:\n        /* \"#utility.yul\":73:79   */\n      0x00\n        /* \"#utility.yul\":126:128   */\n      0x20\n        /* \"#utility.yul\":114:123   */\n      dup3\n        /* \"#utility.yul\":105:112   */\n      dup5\n        /* \"#utility.yul\":101:124   */\n      sub\n        /* \"#utility.yul\":97:129   */\n      slt\n        /* \"#utility.yul\":94:146   */\n      iszero\n      tag_31\n      jumpi\n        /* \"#utility.yul\":142:143   */\n      0x00\n        /* \"#utility.yul\":139:140   */\n      dup1\n        /* \"#utility.yul\":132:144   */\n      revert\n        /* \"#utility.yul\":94:146   */\n    tag_31:\n      pop\n        /* \"#utility.yul\":165:188   */\n      calldataload\n      swap2\n        /* \"#utility.yul\":14:194   */\n      swap1\n      pop\n      jump\t// out\n\n    auxdata: 0xa2646970667358221220e2547c687498d003aefa43fc72db170ffbad97a6d25f8b4f477e7e93b4c2239464736f6c634300081a0033\n}\n",
				"bytecode": {
					"linkReferences": {},
					"object": "6080604052348015600e575f80fd5b505f80546001600160a01b031916331790556101788061002d5f395ff3fe608060405260043610610036575f3560e01c80632e1a7d4d146100415780638da5cb5b14610056578063b69ef8a814610091575f80fd5b3661003d57005b5f80fd5b61005461004f36600461012b565b6100ab565b005b348015610061575f80fd5b505f54610074906001600160a01b031681565b6040516001600160a01b0390911681526020015b60405180910390f35b34801561009c575f80fd5b50604051478152602001610088565b5f546001600160a01b031633146100f15760405162461bcd60e51b8152602060048201526006602482015265696c6c65676560d01b604482015260640160405180910390fd5b5f80546040516001600160a01b039091169183156108fc02918491818181858888f19350505050158015610127573d5f803e3d5ffd5b5050565b5f6020828403121561013b575f80fd5b503591905056fea2646970667358221220e2547c687498d003aefa43fc72db170ffbad97a6d25f8b4f477e7e93b4c2239464736f6c634300081a0033",
					"opcodes": "PUSH1 0x80 PUSH1 0x40 MSTORE CALLVALUE DUP1 ISZERO PUSH1 0xE JUMPI PUSH0 DUP1 REVERT JUMPDEST POP PUSH0 DUP1 SLOAD PUSH1 0x1 PUSH1 0x1 PUSH1 0xA0 SHL SUB NOT AND CALLER OR SWAP1 SSTORE PUSH2 0x178 DUP1 PUSH2 0x2D PUSH0 CODECOPY PUSH0 RETURN INVALID PUSH1 0x80 PUSH1 0x40 MSTORE PUSH1 0x4 CALLDATASIZE LT PUSH2 0x36 JUMPI PUSH0 CALLDATALOAD PUSH1 0xE0 SHR DUP1 PUSH4 0x2E1A7D4D EQ PUSH2 0x41 JUMPI DUP1 PUSH4 0x8DA5CB5B EQ PUSH2 0x56 JUMPI DUP1 PUSH4 0xB69EF8A8 EQ PUSH2 0x91 JUMPI PUSH0 DUP1 REVERT JUMPDEST CALLDATASIZE PUSH2 0x3D JUMPI STOP JUMPDEST PUSH0 DUP1 REVERT JUMPDEST PUSH2 0x54 PUSH2 0x4F CALLDATASIZE PUSH1 0x4 PUSH2 0x12B JUMP JUMPDEST PUSH2 0xAB JUMP JUMPDEST STOP JUMPDEST CALLVALUE DUP1 ISZERO PUSH2 0x61 JUMPI PUSH0 DUP1 REVERT JUMPDEST POP PUSH0 SLOAD PUSH2 0x74 SWAP1 PUSH1 0x1 PUSH1 0x1 PUSH1 0xA0 SHL SUB AND DUP2 JUMP JUMPDEST PUSH1 0x40 MLOAD PUSH1 0x1 PUSH1 0x1 PUSH1 0xA0 SHL SUB SWAP1 SWAP2 AND DUP2 MSTORE PUSH1 0x20 ADD JUMPDEST PUSH1 0x40 MLOAD DUP1 SWAP2 SUB SWAP1 RETURN JUMPDEST CALLVALUE DUP1 ISZERO PUSH2 0x9C JUMPI PUSH0 DUP1 REVERT JUMPDEST POP PUSH1 0x40 MLOAD SELFBALANCE DUP2 MSTORE PUSH1 0x20 ADD PUSH2 0x88 JUMP JUMPDEST PUSH0 SLOAD PUSH1 0x1 PUSH1 0x1 PUSH1 0xA0 SHL SUB AND CALLER EQ PUSH2 0xF1 JUMPI PUSH1 0x40 MLOAD PUSH3 0x461BCD PUSH1 0xE5 SHL DUP2 MSTORE PUSH1 0x20 PUSH1 0x4 DUP3 ADD MSTORE PUSH1 0x6 PUSH1 0x24 DUP3 ADD MSTORE PUSH6 0x696C6C656765 PUSH1 0xD0 SHL PUSH1 0x44 DUP3 ADD MSTORE PUSH1 0x64 ADD PUSH1 0x40 MLOAD DUP1 SWAP2 SUB SWAP1 REVERT JUMPDEST PUSH0 DUP1 SLOAD PUSH1 0x40 MLOAD PUSH1 0x1 PUSH1 0x1 PUSH1 0xA0 SHL SUB SWAP1 SWAP2 AND SWAP2 DUP4 ISZERO PUSH2 0x8FC MUL SWAP2 DUP5 SWAP2 DUP2 DUP2 DUP2 DUP6 DUP9 DUP9 CALL SWAP4 POP POP POP POP ISZERO DUP1 ISZERO PUSH2 0x127 JUMPI RETURNDATASIZE PUSH0 DUP1 RETURNDATACOPY RETURNDATASIZE PUSH0 REVERT JUMPDEST POP POP JUMP JUMPDEST PUSH0 PUSH1 0x20 DUP3 DUP5 SUB SLT ISZERO PUSH2 0x13B JUMPI PUSH0 DUP1 REVERT JUMPDEST POP CALLDATALOAD SWAP2 SWAP1 POP JUMP INVALID LOG2 PUSH5 0x6970667358 0x22 SLT KECCAK256 0xE2 SLOAD PUSH29 0x687498D003AEFA43FC72DB170FFBAD97A6D25F8B4F477E7E93B4C22394 PUSH5 0x736F6C6343 STOP ADDMOD BYTE STOP CALLER "
				},
				"gasEstimates": {
					"creation": {
						"codeDepositCost": "75200",
						"executionCost": "24355",
						"totalCost": "99555"
					},
					"external": {
						"balance()": "200",
						"owner()": "2324",
						"withdraw(uint256)": "infinite"
					}
				},
				"methodIdentifiers": {
					"balance()": "b69ef8a8",
					"owner()": "8da5cb5b",
					"withdraw(uint256)": "2e1a7d4d"
				}
			},
			"storageLayout": {
				"storage": [
					{
						"astId": 3,
						"contract": "03/EtherWallet.sol:EtherWallet",
						"label": "owner",
						"offset": 0,
						"slot": "0",
						"type": "t_address"
					}
				],
				"types": {
					"t_address": {
						"encoding": "inplace",
						"label": "address",
						"numberOfBytes": "20"
					}
				}
			},
			"userdoc": {
				"kind": "user",
				"methods": {},
				"version": 1
			}
		}
	}
}