{
	"03/PayableExample.sol": {
		"PayableExample": {
			"abi": [
				{
					"inputs": [],
					"stateMutability": "nonpayable",
					"type": "constructor"
				},
				{
					"stateMutability": "payable",
					"type": "fallback"
				},
				{
					"inputs": [],
					"name": "queryBalance",
					"outputs": [
						{
							"internalType": "uint256",
							"name": "",
							"type": "uint256"
						}
					],
					"stateMutability": "view",
					"type": "function"
				},
				{
					"inputs": [],
					"name": "receiveEther",
					"outputs": [],
					"stateMutability": "payable",
					"type": "function"
				},
				{
					"stateMutability": "payable",
					"type": "receive"
				}
			],
			"devdoc": {
				"kind": "dev",
				"methods": {},
				"version": 1
			},
			"evm": {
				"assembly": "    /* \"03/PayableExample.sol\":57:471  contract PayableExample {... */\n  mstore(0x40, 0x80)\n    /* \"03/PayableExample.sol\":120:181  constructor(){... */\n  callvalue\n  dup1\n  iszero\n  tag_1\n  jumpi\n  0x00\n  dup1\n  revert\ntag_1:\n  pop\n    /* \"03/PayableExample.sol\":143:152  recipient */\n  0x00\n    /* \"03/PayableExample.sol\":143:174  recipient = payable(msg.sender) */\n  dup1\n  sload\n  not(sub(shl(0xa0, 0x01), 0x01))\n  and\n    /* \"03/PayableExample.sol\":163:173  msg.sender */\n  caller\n    /* \"03/PayableExample.sol\":143:174  recipient = payable(msg.sender) */\n  or\n  swap1\n  sstore\n    /* \"03/PayableExample.sol\":57:471  contract PayableExample {... */\n  dataSize(sub_0)\n  dup1\n  dataOffset(sub_0)\n  0x00\n  codecopy\n  0x00\n  return\nstop\n\nsub_0: assembly {\n        /* \"03/PayableExample.sol\":57:471  contract PayableExample {... */\n      mstore(0x40, 0x80)\n      jumpi(tag_1, lt(calldatasize, 0x04))\n      shr(0xe0, calldataload(0x00))\n      dup1\n      0x36f40c61\n      eq\n      tag_3\n      jumpi\n      dup1\n      0xa3912ec8\n      eq\n      tag_4\n      jumpi\n      jump(tag_2)\n    tag_1:\n      jumpi(tag_2, calldatasize)\n      stop\n    tag_2:\n        /* \"03/PayableExample.sol\":432:462  revert(\"Function not payable\") */\n      mload(0x40)\n      shl(0xe5, 0x461bcd)\n      dup2\n      mstore\n        /* \"#utility.yul\":216:218   */\n      0x20\n        /* \"03/PayableExample.sol\":432:462  revert(\"Function not payable\") */\n      0x04\n      dup3\n      add\n        /* \"#utility.yul\":198:219   */\n      mstore\n        /* \"#utility.yul\":255:257   */\n      0x14\n        /* \"#utility.yul\":235:253   */\n      0x24\n      dup3\n      add\n        /* \"#utility.yul\":228:258   */\n      mstore\n      shl(0x60, 0x46756e6374696f6e206e6f742070617961626c65)\n        /* \"#utility.yul\":274:292   */\n      0x44\n      dup3\n      add\n        /* \"#utility.yul\":267:317   */\n      mstore\n        /* \"#utility.yul\":334:352   */\n      0x64\n      add\n        /* \"03/PayableExample.sol\":432:462  revert(\"Function not payable\") */\n      mload(0x40)\n      dup1\n      swap2\n      sub\n      swap1\n      revert\n        /* \"03/PayableExample.sol\":241:338  function queryBalance() external view returns (uint){... */\n    tag_3:\n      callvalue\n      dup1\n      iszero\n      tag_11\n      jumpi\n      0x00\n      dup1\n      revert\n    tag_11:\n      pop\n        /* \"03/PayableExample.sol\":310:331  address(this).balance */\n      selfbalance\n        /* \"03/PayableExample.sol\":241:338  function queryBalance() external view returns (uint){... */\n      mload(0x40)\n        /* \"#utility.yul\":509:534   */\n      swap1\n      dup2\n      mstore\n        /* \"#utility.yul\":497:499   */\n      0x20\n        /* \"#utility.yul\":482:500   */\n      add\n        /* \"03/PayableExample.sol\":241:338  function queryBalance() external view returns (uint){... */\n      mload(0x40)\n      dup1\n      swap2\n      sub\n      swap1\n      return\n        /* \"03/PayableExample.sol\":187:235  function receiveEther() external payable{... */\n    tag_4:\n      stop\n\n    auxdata: 0xa264697066735822122064d8a7758af459aafceb5efcb544611058cc7cca4a120b8e79e445b3f5ba507e64736f6c634300081a0033\n}\n",
				"bytecode": {
					"linkReferences": {},
					"object": "6080604052348015600e575f80fd5b505f80546001600160a01b0319163317905560c780602b5f395ff3fe6080604052600436106028575f3560e01c806336f40c61146071578063a3912ec814608f57602e565b36602e57005b60405162461bcd60e51b815260206004820152601460248201527346756e6374696f6e206e6f742070617961626c6560601b604482015260640160405180910390fd5b348015607b575f80fd5b504760405190815260200160405180910390f35b00fea264697066735822122064d8a7758af459aafceb5efcb544611058cc7cca4a120b8e79e445b3f5ba507e64736f6c634300081a0033",
					"opcodes": "PUSH1 0x80 PUSH1 0x40 MSTORE CALLVALUE DUP1 ISZERO PUSH1 0xE JUMPI PUSH0 DUP1 REVERT JUMPDEST POP PUSH0 DUP1 SLOAD PUSH1 0x1 PUSH1 0x1 PUSH1 0xA0 SHL SUB NOT AND CALLER OR SWAP1 SSTORE PUSH1 0xC7 DUP1 PUSH1 0x2B PUSH0 CODECOPY PUSH0 RETURN INVALID PUSH1 0x80 PUSH1 0x40 MSTORE PUSH1 0x4 CALLDATASIZE LT PUSH1 0x28 JUMPI PUSH0 CALLDATALOAD PUSH1 0xE0 SHR DUP1 PUSH4 0x36F40C61 EQ PUSH1 0x71 JUMPI DUP1 PUSH4 0xA3912EC8 EQ PUSH1 0x8F JUMPI PUSH1 0x2E JUMP JUMPDEST CALLDATASIZE PUSH1 0x2E JUMPI STOP JUMPDEST PUSH1 0x40 MLOAD PUSH3 0x461BCD PUSH1 0xE5 SHL DUP2 MSTORE PUSH1 0x20 PUSH1 0x4 DUP3 ADD MSTORE PUSH1 0x14 PUSH1 0x24 DUP3 ADD MSTORE PUSH20 0x46756E6374696F6E206E6F742070617961626C65 PUSH1 0x60 SHL PUSH1 0x44 DUP3 ADD MSTORE PUSH1 0x64 ADD PUSH1 0x40 MLOAD DUP1 SWAP2 SUB SWAP1 REVERT JUMPDEST CALLVALUE DUP1 ISZERO PUSH1 0x7B JUMPI PUSH0 DUP1 REVERT JUMPDEST POP SELFBALANCE PUSH1 0x40 MLOAD SWAP1 DUP2 MSTORE PUSH1 0x20 ADD PUSH1 0x40 MLOAD DUP1 SWAP2 SUB SWAP1 RETURN JUMPDEST STOP INVALID LOG2 PUSH5 0x6970667358 0x22 SLT KECCAK256 PUSH5 0xD8A7758AF4 MSIZE 0xAA 0xFC 0xEB MCOPY 0xFC 0xB5 PREVRANDAO PUSH2 0x1058 0xCC PUSH29 0xCA4A120B8E79E445B3F5BA507E64736F6C634300081A00330000000000 "
				},
				"gasEstimates": {
					"creation": {
						"codeDepositCost": "39800",
						"executionCost": "24325",
						"totalCost": "64125"
					},
					"external": {
						"": "217",
						"queryBalance()": "147",
						"receiveEther()": "95"
					}
				},
				"methodIdentifiers": {
					"queryBalance()": "36f40c61",
					"receiveEther()": "a3912ec8"
				}
			},
			"storageLayout": {
				"storage": [
					{
						"astId": 3,
						"contract": "03/PayableExample.sol:PayableExample",
						"label": "recipient",
						"offset": 0,
						"slot": "0",
						"type": "t_address_payable"
					}
				],
				"types": {
					"t_address_payable": {
						"encoding": "inplace",
						"label": "address payable",
						"numberOfBytes": "20"
					}
				}
			},
			"userdoc": {
				"kind": "user",
				"methods": {},
				"version": 1
			}
		}
	}
}