{
	"03/Library.sol": {
		"ArrayUtils": {
			"abi": [
				{
					"inputs": [
						{
							"internalType": "uint256[]",
							"name": "arr",
							"type": "uint256[]"
						}
					],
					"name": "sum",
					"outputs": [
						{
							"internalType": "uint256",
							"name": "",
							"type": "uint256"
						}
					],
					"stateMutability": "pure",
					"type": "function"
				}
			],
			"devdoc": {
				"kind": "dev",
				"methods": {},
				"version": 1
			},
			"evm": {
				"assembly": "    /* \"03/Library.sol\":173:389  library ArrayUtils{... */\n  dataSize(sub_0)\n  dataOffset(sub_0)\n  0x0b\n  dup3\n  dup3\n  dup3\n  codecopy\n  dup1\n  mload\n  0x00\n  byte\n  0x73\n  eq\n  tag_1\n  jumpi\n  mstore(0x00, shl(0xe0, 0x4e487b71))\n  mstore(0x04, 0x00)\n  revert(0x00, 0x24)\ntag_1:\n  mstore(0x00, address)\n  0x73\n  dup2\n  mstore8\n  dup3\n  dup2\n  return\nstop\n\nsub_0: assembly {\n        /* \"03/Library.sol\":173:389  library ArrayUtils{... */\n      eq(address, deployTimeAddress())\n      mstore(0x40, 0x80)\n      jumpi(tag_1, lt(calldatasize, 0x04))\n      shr(0xe0, calldataload(0x00))\n      dup1\n      0x0194db8e\n      eq\n      tag_2\n      jumpi\n    tag_1:\n      0x00\n      dup1\n      revert\n        /* \"03/Library.sol\":198:386  function sum(uint[] calldata arr) public pure returns(uint){... */\n    tag_2:\n      tag_3\n      tag_4\n      calldatasize\n      0x04\n      tag_5\n      jump\t// in\n    tag_4:\n      tag_6\n      jump\t// in\n    tag_3:\n      mload(0x40)\n        /* \"#utility.yul\":783:808   */\n      swap1\n      dup2\n      mstore\n        /* \"#utility.yul\":771:773   */\n      0x20\n        /* \"#utility.yul\":756:774   */\n      add\n        /* \"03/Library.sol\":198:386  function sum(uint[] calldata arr) public pure returns(uint){... */\n      mload(0x40)\n      dup1\n      swap2\n      sub\n      swap1\n      return\n    tag_6:\n        /* \"03/Library.sol\":252:256  uint */\n      0x00\n        /* \"03/Library.sol\":267:277  uint total */\n      dup1\n        /* \"03/Library.sol\":291:297  uint i */\n      0x00\n        /* \"03/Library.sol\":287:358  for(uint i = 0;i<arr.length;i++){... */\n    tag_10:\n        /* \"03/Library.sol\":302:314  i<arr.length */\n      dup4\n      dup2\n      lt\n        /* \"03/Library.sol\":287:358  for(uint i = 0;i<arr.length;i++){... */\n      iszero\n      tag_11\n      jumpi\n        /* \"03/Library.sol\":341:344  arr */\n      dup5\n      dup5\n        /* \"03/Library.sol\":345:346  i */\n      dup3\n        /* \"03/Library.sol\":341:347  arr[i] */\n      dup2\n      dup2\n      lt\n      tag_14\n      jumpi\n      tag_14\n      tag_15\n      jump\t// in\n    tag_14:\n      swap1\n      pop\n      0x20\n      mul\n      add\n      calldataload\n        /* \"03/Library.sol\":333:347  total+= arr[i] */\n      dup3\n      tag_16\n      swap2\n      swap1\n      tag_17\n      jump\t// in\n    tag_16:\n      swap2\n      pop\n        /* \"03/Library.sol\":315:318  i++ */\n      0x01\n      add\n        /* \"03/Library.sol\":287:358  for(uint i = 0;i<arr.length;i++){... */\n      jump(tag_10)\n    tag_11:\n      pop\n        /* \"03/Library.sol\":374:379  total */\n      swap1\n      pop\n        /* \"03/Library.sol\":198:386  function sum(uint[] calldata arr) public pure returns(uint){... */\n    tag_9:\n      swap3\n      swap2\n      pop\n      pop\n      jump\t// out\n        /* \"#utility.yul\":14:624   */\n    tag_5:\n        /* \"#utility.yul\":100:106   */\n      0x00\n        /* \"#utility.yul\":108:114   */\n      dup1\n        /* \"#utility.yul\":161:163   */\n      0x20\n        /* \"#utility.yul\":149:158   */\n      dup4\n        /* \"#utility.yul\":140:147   */\n      dup6\n        /* \"#utility.yul\":136:159   */\n      sub\n        /* \"#utility.yul\":132:164   */\n      slt\n        /* \"#utility.yul\":129:181   */\n      iszero\n      tag_20\n      jumpi\n        /* \"#utility.yul\":177:178   */\n      0x00\n        /* \"#utility.yul\":174:175   */\n      dup1\n        /* \"#utility.yul\":167:179   */\n      revert\n        /* \"#utility.yul\":129:181   */\n    tag_20:\n        /* \"#utility.yul\":217:226   */\n      dup3\n        /* \"#utility.yul\":204:227   */\n      calldataload\n        /* \"#utility.yul\":250:268   */\n      0xffffffffffffffff\n        /* \"#utility.yul\":242:248   */\n      dup2\n        /* \"#utility.yul\":239:269   */\n      gt\n        /* \"#utility.yul\":236:286   */\n      iszero\n      tag_21\n      jumpi\n        /* \"#utility.yul\":282:283   */\n      0x00\n        /* \"#utility.yul\":279:280   */\n      dup1\n        /* \"#utility.yul\":272:284   */\n      revert\n        /* \"#utility.yul\":236:286   */\n    tag_21:\n        /* \"#utility.yul\":305:327   */\n      dup4\n      add\n        /* \"#utility.yul\":358:362   */\n      0x1f\n        /* \"#utility.yul\":350:363   */\n      dup2\n      add\n        /* \"#utility.yul\":346:373   */\n      dup6\n      sgt\n        /* \"#utility.yul\":336:391   */\n      tag_22\n      jumpi\n        /* \"#utility.yul\":387:388   */\n      0x00\n        /* \"#utility.yul\":384:385   */\n      dup1\n        /* \"#utility.yul\":377:389   */\n      revert\n        /* \"#utility.yul\":336:391   */\n    tag_22:\n        /* \"#utility.yul\":427:429   */\n      dup1\n        /* \"#utility.yul\":414:430   */\n      calldataload\n        /* \"#utility.yul\":453:471   */\n      0xffffffffffffffff\n        /* \"#utility.yul\":445:451   */\n      dup2\n        /* \"#utility.yul\":442:472   */\n      gt\n        /* \"#utility.yul\":439:489   */\n      iszero\n      tag_23\n      jumpi\n        /* \"#utility.yul\":485:486   */\n      0x00\n        /* \"#utility.yul\":482:483   */\n      dup1\n        /* \"#utility.yul\":475:487   */\n      revert\n        /* \"#utility.yul\":439:489   */\n    tag_23:\n        /* \"#utility.yul\":538:545   */\n      dup6\n        /* \"#utility.yul\":533:535   */\n      0x20\n        /* \"#utility.yul\":523:529   */\n      dup3\n        /* \"#utility.yul\":520:521   */\n      0x05\n        /* \"#utility.yul\":516:530   */\n      shl\n        /* \"#utility.yul\":512:514   */\n      dup5\n        /* \"#utility.yul\":508:531   */\n      add\n        /* \"#utility.yul\":504:536   */\n      add\n        /* \"#utility.yul\":501:546   */\n      gt\n        /* \"#utility.yul\":498:563   */\n      iszero\n      tag_24\n      jumpi\n        /* \"#utility.yul\":559:560   */\n      0x00\n        /* \"#utility.yul\":556:557   */\n      dup1\n        /* \"#utility.yul\":549:561   */\n      revert\n        /* \"#utility.yul\":498:563   */\n    tag_24:\n        /* \"#utility.yul\":590:592   */\n      0x20\n        /* \"#utility.yul\":582:593   */\n      swap2\n      swap1\n      swap2\n      add\n      swap6\n        /* \"#utility.yul\":612:618   */\n      swap1\n      swap5\n      pop\n        /* \"#utility.yul\":14:624   */\n      swap3\n      pop\n      pop\n      pop\n      jump\t// out\n        /* \"#utility.yul\":819:946   */\n    tag_15:\n        /* \"#utility.yul\":880:890   */\n      0x4e487b71\n        /* \"#utility.yul\":875:878   */\n      0xe0\n        /* \"#utility.yul\":871:891   */\n      shl\n        /* \"#utility.yul\":868:869   */\n      0x00\n        /* \"#utility.yul\":861:892   */\n      mstore\n        /* \"#utility.yul\":911:915   */\n      0x32\n        /* \"#utility.yul\":908:909   */\n      0x04\n        /* \"#utility.yul\":901:916   */\n      mstore\n        /* \"#utility.yul\":935:939   */\n      0x24\n        /* \"#utility.yul\":932:933   */\n      0x00\n        /* \"#utility.yul\":925:940   */\n      revert\n        /* \"#utility.yul\":951:1173   */\n    tag_17:\n        /* \"#utility.yul\":1016:1025   */\n      dup1\n      dup3\n      add\n        /* \"#utility.yul\":1037:1047   */\n      dup1\n      dup3\n      gt\n        /* \"#utility.yul\":1034:1167   */\n      iszero\n      tag_9\n      jumpi\n        /* \"#utility.yul\":1089:1099   */\n      0x4e487b71\n        /* \"#utility.yul\":1084:1087   */\n      0xe0\n        /* \"#utility.yul\":1080:1100   */\n      shl\n        /* \"#utility.yul\":1077:1078   */\n      0x00\n        /* \"#utility.yul\":1070:1101   */\n      mstore\n        /* \"#utility.yul\":1124:1128   */\n      0x11\n        /* \"#utility.yul\":1121:1122   */\n      0x04\n        /* \"#utility.yul\":1114:1129   */\n      mstore\n        /* \"#utility.yul\":1152:1156   */\n      0x24\n        /* \"#utility.yul\":1149:1150   */\n      0x00\n        /* \"#utility.yul\":1142:1157   */\n      revert\n\n    auxdata: 0xa2646970667358221220a71a0e442cdeca9d3f2624b5b8e827f4e4f9d5855908d0a8a48ab68c0ad6f85664736f6c634300081a0033\n}\n",
				"bytecode": {
					"linkReferences": {},
					"object": "61017b610034600b8282823980515f1a607314602857634e487b7160e01b5f525f60045260245ffd5b305f52607381538281f3fe7300000000000000000000000000000000000000003014608060405260043610610034575f3560e01c80630194db8e14610038575b5f80fd5b61004b6100463660046100a1565b61005d565b60405190815260200160405180910390f35b5f805f5b838110156100975784848281811061007b5761007b610112565b905060200201358261008d9190610126565b9150600101610061565b5090505b92915050565b5f80602083850312156100b2575f80fd5b823567ffffffffffffffff8111156100c8575f80fd5b8301601f810185136100d8575f80fd5b803567ffffffffffffffff8111156100ee575f80fd5b8560208260051b8401011115610102575f80fd5b6020919091019590945092505050565b634e487b7160e01b5f52603260045260245ffd5b8082018082111561009b57634e487b7160e01b5f52601160045260245ffdfea2646970667358221220a71a0e442cdeca9d3f2624b5b8e827f4e4f9d5855908d0a8a48ab68c0ad6f85664736f6c634300081a0033",
					"opcodes": "PUSH2 0x17B PUSH2 0x34 PUSH1 0xB DUP3 DUP3 DUP3 CODECOPY DUP1 MLOAD PUSH0 BYTE PUSH1 0x73 EQ PUSH1 0x28 JUMPI PUSH4 0x4E487B71 PUSH1 0xE0 SHL PUSH0 MSTORE PUSH0 PUSH1 0x4 MSTORE PUSH1 0x24 PUSH0 REVERT JUMPDEST ADDRESS PUSH0 MSTORE PUSH1 0x73 DUP2 MSTORE8 DUP3 DUP2 RETURN INVALID PUSH20 0x0 ADDRESS EQ PUSH1 0x80 PUSH1 0x40 MSTORE PUSH1 0x4 CALLDATASIZE LT PUSH2 0x34 JUMPI PUSH0 CALLDATALOAD PUSH1 0xE0 SHR DUP1 PUSH4 0x194DB8E EQ PUSH2 0x38 JUMPI JUMPDEST PUSH0 DUP1 REVERT JUMPDEST PUSH2 0x4B PUSH2 0x46 CALLDATASIZE PUSH1 0x4 PUSH2 0xA1 JUMP JUMPDEST PUSH2 0x5D JUMP JUMPDEST PUSH1 0x40 MLOAD SWAP1 DUP2 MSTORE PUSH1 0x20 ADD PUSH1 0x40 MLOAD DUP1 SWAP2 SUB SWAP1 RETURN JUMPDEST PUSH0 DUP1 PUSH0 JUMPDEST DUP4 DUP2 LT ISZERO PUSH2 0x97 JUMPI DUP5 DUP5 DUP3 DUP2 DUP2 LT PUSH2 0x7B JUMPI PUSH2 0x7B PUSH2 0x112 JUMP JUMPDEST SWAP1 POP PUSH1 0x20 MUL ADD CALLDATALOAD DUP3 PUSH2 0x8D SWAP2 SWAP1 PUSH2 0x126 JUMP JUMPDEST SWAP2 POP PUSH1 0x1 ADD PUSH2 0x61 JUMP JUMPDEST POP SWAP1 POP JUMPDEST SWAP3 SWAP2 POP POP JUMP JUMPDEST PUSH0 DUP1 PUSH1 0x20 DUP4 DUP6 SUB SLT ISZERO PUSH2 0xB2 JUMPI PUSH0 DUP1 REVERT JUMPDEST DUP3 CALLDATALOAD PUSH8 0xFFFFFFFFFFFFFFFF DUP2 GT ISZERO PUSH2 0xC8 JUMPI PUSH0 DUP1 REVERT JUMPDEST DUP4 ADD PUSH1 0x1F DUP2 ADD DUP6 SGT PUSH2 0xD8 JUMPI PUSH0 DUP1 REVERT JUMPDEST DUP1 CALLDATALOAD PUSH8 0xFFFFFFFFFFFFFFFF DUP2 GT ISZERO PUSH2 0xEE JUMPI PUSH0 DUP1 REVERT JUMPDEST DUP6 PUSH1 0x20 DUP3 PUSH1 0x5 SHL DUP5 ADD ADD GT ISZERO PUSH2 0x102 JUMPI PUSH0 DUP1 REVERT JUMPDEST PUSH1 0x20 SWAP2 SWAP1 SWAP2 ADD SWAP6 SWAP1 SWAP5 POP SWAP3 POP POP POP JUMP JUMPDEST PUSH4 0x4E487B71 PUSH1 0xE0 SHL PUSH0 MSTORE PUSH1 0x32 PUSH1 0x4 MSTORE PUSH1 0x24 PUSH0 REVERT JUMPDEST DUP1 DUP3 ADD DUP1 DUP3 GT ISZERO PUSH2 0x9B JUMPI PUSH4 0x4E487B71 PUSH1 0xE0 SHL PUSH0 MSTORE PUSH1 0x11 PUSH1 0x4 MSTORE PUSH1 0x24 PUSH0 REVERT INVALID LOG2 PUSH5 0x6970667358 0x22 SLT KECCAK256 0xA7 BYTE 0xE PREVRANDAO 0x2C 0xDE 0xCA SWAP14 EXTCODEHASH 0x26 0x24 0xB5 0xB8 0xE8 0x27 DELEGATECALL 0xE4 0xF9 0xD5 DUP6 MSIZE ADDMOD 0xD0 0xA8 LOG4 DUP11 0xB6 DUP13 EXP 0xD6 0xF8 JUMP PUSH5 0x736F6C6343 STOP ADDMOD BYTE STOP CALLER "
				},
				"gasEstimates": {
					"creation": {
						"codeDepositCost": "75800",
						"executionCost": "153",
						"totalCost": "75953"
					},
					"external": {
						"sum(uint256[])": "infinite"
					}
				},
				"methodIdentifiers": {
					"sum(uint256[])": "0194db8e"
				}
			},
			"storageLayout": {
				"storage": [],
				"types": null
			},
			"userdoc": {
				"kind": "user",
				"methods": {},
				"version": 1
			}
		}
	}
}