{
	"03/Library.sol": {
		"TestLibraries": {
			"abi": [
				{
					"inputs": [
						{
							"internalType": "uint256",
							"name": "x",
							"type": "uint256"
						},
						{
							"internalType": "uint256",
							"name": "y",
							"type": "uint256"
						}
					],
					"name": "testMin",
					"outputs": [
						{
							"internalType": "uint256",
							"name": "",
							"type": "uint256"
						}
					],
					"stateMutability": "pure",
					"type": "function"
				},
				{
					"inputs": [
						{
							"internalType": "uint256[]",
							"name": "arr",
							"type": "uint256[]"
						}
					],
					"name": "testSum",
					"outputs": [
						{
							"internalType": "uint256",
							"name": "",
							"type": "uint256"
						}
					],
					"stateMutability": "pure",
					"type": "function"
				}
			],
			"devdoc": {
				"kind": "dev",
				"methods": {},
				"version": 1
			},
			"evm": {
				"assembly": "    /* \"03/Library.sol\":391:643  contract TestLibraries{... */\n  mstore(0x40, 0x80)\n  callvalue\n  dup1\n  iszero\n  tag_1\n  jumpi\n  0x00\n  dup1\n  revert\ntag_1:\n  pop\n  dataSize(sub_0)\n  dup1\n  dataOffset(sub_0)\n  0x00\n  codecopy\n  0x00\n  return\nstop\n\nsub_0: assembly {\n        /* \"03/Library.sol\":391:643  contract TestLibraries{... */\n      mstore(0x40, 0x80)\n      callvalue\n      dup1\n      iszero\n      tag_1\n      jumpi\n      0x00\n      dup1\n      revert\n    tag_1:\n      pop\n      jumpi(tag_2, lt(calldatasize, 0x04))\n      shr(0xe0, calldataload(0x00))\n      dup1\n      0x04ab5248\n      eq\n      tag_3\n      jumpi\n      dup1\n      0x1abe5974\n      eq\n      tag_4\n      jumpi\n    tag_2:\n      0x00\n      dup1\n      revert\n        /* \"03/Library.sol\":530:640  function testSum(uint[] calldata arr) public pure returns(uint){... */\n    tag_3:\n      tag_5\n      tag_6\n      calldatasize\n      0x04\n      tag_7\n      jump\t// in\n    tag_6:\n      tag_8\n      jump\t// in\n    tag_5:\n      mload(0x40)\n        /* \"#utility.yul\":775:800   */\n      swap1\n      dup2\n      mstore\n        /* \"#utility.yul\":763:765   */\n      0x20\n        /* \"#utility.yul\":748:766   */\n      add\n        /* \"03/Library.sol\":530:640  function testSum(uint[] calldata arr) public pure returns(uint){... */\n      mload(0x40)\n      dup1\n      swap2\n      sub\n      swap1\n      return\n        /* \"03/Library.sol\":420:524  function testMin(uint x,uint y) public pure returns(uint){... */\n    tag_4:\n      tag_5\n      tag_12\n      calldatasize\n      0x04\n      tag_13\n      jump\t// in\n    tag_12:\n      tag_14\n      jump\t// in\n        /* \"03/Library.sol\":530:640  function testSum(uint[] calldata arr) public pure returns(uint){... */\n    tag_8:\n        /* \"03/Library.sol\":614:633  ArrayUtils.sum(arr) */\n      mload(0x40)\n      shl(0xe1, 0xca6dc7)\n      dup2\n      mstore\n        /* \"03/Library.sol\":588:592  uint */\n      0x00\n      swap1\n        /* \"03/Library.sol\":614:624  ArrayUtils */\n      linkerSymbol(\"07d9695616d6a3eef9b7541a1451228a696c80c1b2985531dd3fe5d43e0259b4\")\n      swap1\n        /* \"03/Library.sol\":614:628  ArrayUtils.sum */\n      0x0194db8e\n      swap1\n        /* \"03/Library.sol\":614:633  ArrayUtils.sum(arr) */\n      tag_17\n      swap1\n        /* \"03/Library.sol\":629:632  arr */\n      dup7\n      swap1\n      dup7\n      swap1\n        /* \"03/Library.sol\":614:633  ArrayUtils.sum(arr) */\n      0x04\n      add\n      tag_18\n      jump\t// in\n    tag_17:\n      0x20\n      mload(0x40)\n      dup1\n      dup4\n      sub\n      dup2\n      dup7\n      gas\n      delegatecall\n      iszero\n      dup1\n      iszero\n      tag_20\n      jumpi\n      returndatasize\n      0x00\n      dup1\n      returndatacopy\n      revert(0x00, returndatasize)\n    tag_20:\n      pop\n      pop\n      pop\n      pop\n      mload(0x40)\n      returndatasize\n      not(0x1f)\n      0x1f\n      dup3\n      add\n      and\n      dup3\n      add\n      dup1\n      0x40\n      mstore\n      pop\n      dup2\n      add\n      swap1\n      tag_21\n      swap2\n      swap1\n      tag_22\n      jump\t// in\n    tag_21:\n        /* \"03/Library.sol\":607:633  return ArrayUtils.sum(arr) */\n      swap4\n        /* \"03/Library.sol\":530:640  function testSum(uint[] calldata arr) public pure returns(uint){... */\n      swap3\n      pop\n      pop\n      pop\n      jump\t// out\n        /* \"03/Library.sol\":420:524  function testMin(uint x,uint y) public pure returns(uint){... */\n    tag_14:\n        /* \"03/Library.sol\":498:517  MathLib.min((x), y) */\n      mload(0x40)\n      shl(0xe0, 0x7ae2b5c7)\n      dup2\n      mstore\n      0x04\n      dup2\n      add\n        /* \"#utility.yul\":1989:2014   */\n      dup4\n      swap1\n      mstore\n        /* \"#utility.yul\":2030:2048   */\n      0x24\n      dup2\n      add\n        /* \"#utility.yul\":2023:2057   */\n      dup3\n      swap1\n      mstore\n        /* \"03/Library.sol\":472:476  uint */\n      0x00\n      swap1\n        /* \"03/Library.sol\":498:505  MathLib */\n      linkerSymbol(\"3c78b1c318d766787a7f50269c68d857b78932b735ff834387a091bea1b14cf2\")\n      swap1\n        /* \"03/Library.sol\":498:509  MathLib.min */\n      0x7ae2b5c7\n      swap1\n        /* \"#utility.yul\":1962:1980   */\n      0x44\n      add\n        /* \"03/Library.sol\":498:517  MathLib.min((x), y) */\n      tag_17\n        /* \"#utility.yul\":1807:2063   */\n      jump\n        /* \"#utility.yul\":14:624   */\n    tag_7:\n        /* \"#utility.yul\":100:106   */\n      0x00\n        /* \"#utility.yul\":108:114   */\n      dup1\n        /* \"#utility.yul\":161:163   */\n      0x20\n        /* \"#utility.yul\":149:158   */\n      dup4\n        /* \"#utility.yul\":140:147   */\n      dup6\n        /* \"#utility.yul\":136:159   */\n      sub\n        /* \"#utility.yul\":132:164   */\n      slt\n        /* \"#utility.yul\":129:181   */\n      iszero\n      tag_31\n      jumpi\n        /* \"#utility.yul\":177:178   */\n      0x00\n        /* \"#utility.yul\":174:175   */\n      dup1\n        /* \"#utility.yul\":167:179   */\n      revert\n        /* \"#utility.yul\":129:181   */\n    tag_31:\n        /* \"#utility.yul\":217:226   */\n      dup3\n        /* \"#utility.yul\":204:227   */\n      calldataload\n        /* \"#utility.yul\":250:268   */\n      0xffffffffffffffff\n        /* \"#utility.yul\":242:248   */\n      dup2\n        /* \"#utility.yul\":239:269   */\n      gt\n        /* \"#utility.yul\":236:286   */\n      iszero\n      tag_32\n      jumpi\n        /* \"#utility.yul\":282:283   */\n      0x00\n        /* \"#utility.yul\":279:280   */\n      dup1\n        /* \"#utility.yul\":272:284   */\n      revert\n        /* \"#utility.yul\":236:286   */\n    tag_32:\n        /* \"#utility.yul\":305:327   */\n      dup4\n      add\n        /* \"#utility.yul\":358:362   */\n      0x1f\n        /* \"#utility.yul\":350:363   */\n      dup2\n      add\n        /* \"#utility.yul\":346:373   */\n      dup6\n      sgt\n        /* \"#utility.yul\":336:391   */\n      tag_33\n      jumpi\n        /* \"#utility.yul\":387:388   */\n      0x00\n        /* \"#utility.yul\":384:385   */\n      dup1\n        /* \"#utility.yul\":377:389   */\n      revert\n        /* \"#utility.yul\":336:391   */\n    tag_33:\n        /* \"#utility.yul\":427:429   */\n      dup1\n        /* \"#utility.yul\":414:430   */\n      calldataload\n        /* \"#utility.yul\":453:471   */\n      0xffffffffffffffff\n        /* \"#utility.yul\":445:451   */\n      dup2\n        /* \"#utility.yul\":442:472   */\n      gt\n        /* \"#utility.yul\":439:489   */\n      iszero\n      tag_34\n      jumpi\n        /* \"#utility.yul\":485:486   */\n      0x00\n        /* \"#utility.yul\":482:483   */\n      dup1\n        /* \"#utility.yul\":475:487   */\n      revert\n        /* \"#utility.yul\":439:489   */\n    tag_34:\n        /* \"#utility.yul\":538:545   */\n      dup6\n        /* \"#utility.yul\":533:535   */\n      0x20\n        /* \"#utility.yul\":523:529   */\n      dup3\n        /* \"#utility.yul\":520:521   */\n      0x05\n        /* \"#utility.yul\":516:530   */\n      shl\n        /* \"#utility.yul\":512:514   */\n      dup5\n        /* \"#utility.yul\":508:531   */\n      add\n        /* \"#utility.yul\":504:536   */\n      add\n        /* \"#utility.yul\":501:546   */\n      gt\n        /* \"#utility.yul\":498:563   */\n      iszero\n      tag_35\n      jumpi\n        /* \"#utility.yul\":559:560   */\n      0x00\n        /* \"#utility.yul\":556:557   */\n      dup1\n        /* \"#utility.yul\":549:561   */\n      revert\n        /* \"#utility.yul\":498:563   */\n    tag_35:\n        /* \"#utility.yul\":590:592   */\n      0x20\n        /* \"#utility.yul\":582:593   */\n      swap2\n      swap1\n      swap2\n      add\n      swap6\n        /* \"#utility.yul\":612:618   */\n      swap1\n      swap5\n      pop\n        /* \"#utility.yul\":14:624   */\n      swap3\n      pop\n      pop\n      pop\n      jump\t// out\n        /* \"#utility.yul\":811:1157   */\n    tag_13:\n        /* \"#utility.yul\":879:885   */\n      0x00\n        /* \"#utility.yul\":887:893   */\n      dup1\n        /* \"#utility.yul\":940:942   */\n      0x40\n        /* \"#utility.yul\":928:937   */\n      dup4\n        /* \"#utility.yul\":919:926   */\n      dup6\n        /* \"#utility.yul\":915:938   */\n      sub\n        /* \"#utility.yul\":911:943   */\n      slt\n        /* \"#utility.yul\":908:960   */\n      iszero\n      tag_38\n      jumpi\n        /* \"#utility.yul\":956:957   */\n      0x00\n        /* \"#utility.yul\":953:954   */\n      dup1\n        /* \"#utility.yul\":946:958   */\n      revert\n        /* \"#utility.yul\":908:960   */\n    tag_38:\n      pop\n      pop\n        /* \"#utility.yul\":1001:1024   */\n      dup1\n      calldataload\n      swap3\n        /* \"#utility.yul\":1121:1123   */\n      0x20\n        /* \"#utility.yul\":1106:1124   */\n      swap1\n      swap2\n      add\n        /* \"#utility.yul\":1093:1125   */\n      calldataload\n      swap2\n      pop\n        /* \"#utility.yul\":811:1157   */\n      jump\t// out\n        /* \"#utility.yul\":1162:1613   */\n    tag_18:\n        /* \"#utility.yul\":1359:1361   */\n      0x20\n        /* \"#utility.yul\":1341:1362   */\n      dup1\n      dup3\n      mstore\n        /* \"#utility.yul\":1378:1396   */\n      dup2\n      add\n        /* \"#utility.yul\":1371:1405   */\n      dup3\n      swap1\n      mstore\n      0x00\n      sub(shl(0xfb, 0x01), 0x01)\n        /* \"#utility.yul\":1417:1448   */\n      dup4\n      gt\n        /* \"#utility.yul\":1414:1465   */\n      iszero\n      tag_40\n      jumpi\n        /* \"#utility.yul\":1461:1462   */\n      0x00\n        /* \"#utility.yul\":1458:1459   */\n      dup1\n        /* \"#utility.yul\":1451:1463   */\n      revert\n        /* \"#utility.yul\":1414:1465   */\n    tag_40:\n        /* \"#utility.yul\":1495:1501   */\n      dup3\n        /* \"#utility.yul\":1492:1493   */\n      0x05\n        /* \"#utility.yul\":1488:1502   */\n      shl\n        /* \"#utility.yul\":1552:1558   */\n      dup1\n        /* \"#utility.yul\":1544:1550   */\n      dup6\n        /* \"#utility.yul\":1539:1541   */\n      0x40\n        /* \"#utility.yul\":1528:1537   */\n      dup6\n        /* \"#utility.yul\":1524:1542   */\n      add\n        /* \"#utility.yul\":1511:1559   */\n      calldatacopy\n        /* \"#utility.yul\":1580:1602   */\n      swap2\n      swap1\n      swap2\n      add\n        /* \"#utility.yul\":1604:1606   */\n      0x40\n        /* \"#utility.yul\":1576:1607   */\n      add\n      swap4\n        /* \"#utility.yul\":1162:1613   */\n      swap3\n      pop\n      pop\n      pop\n      jump\t// out\n        /* \"#utility.yul\":1618:1802   */\n    tag_22:\n        /* \"#utility.yul\":1688:1694   */\n      0x00\n        /* \"#utility.yul\":1741:1743   */\n      0x20\n        /* \"#utility.yul\":1729:1738   */\n      dup3\n        /* \"#utility.yul\":1720:1727   */\n      dup5\n        /* \"#utility.yul\":1716:1739   */\n      sub\n        /* \"#utility.yul\":1712:1744   */\n      slt\n        /* \"#utility.yul\":1709:1761   */\n      iszero\n      tag_42\n      jumpi\n        /* \"#utility.yul\":1757:1758   */\n      0x00\n        /* \"#utility.yul\":1754:1755   */\n      dup1\n        /* \"#utility.yul\":1747:1759   */\n      revert\n        /* \"#utility.yul\":1709:1761   */\n    tag_42:\n      pop\n        /* \"#utility.yul\":1780:1796   */\n      mload\n      swap2\n        /* \"#utility.yul\":1618:1802   */\n      swap1\n      pop\n      jump\t// out\n\n    auxdata: 0xa2646970667358221220885e338ae7a70c4f5a410c30ce97585fa8addec6053d24b6f686ce50a69c644b64736f6c634300081a0033\n}\n",
				"bytecode": {
					"linkReferences": {
						"03/Library.sol": {
							"ArrayUtils": [
								{
									"length": 20,
									"start": 156
								}
							],
							"MathLib": [
								{
									"length": 20,
									"start": 299
								}
							]
						}
					},
					"object": "6080604052348015600e575f80fd5b506102468061001c5f395ff3fe608060405234801561000f575f80fd5b5060043610610034575f3560e01c806304ab5248146100385780631abe59741461005d575b5f80fd5b61004b610046366004610131565b610070565b60405190815260200160405180910390f35b61004b61006b3660046101a2565b6100f0565b60405162ca6dc760e11b81525f9073__$07d9695616d6a3eef9b7541a1451228a69$__90630194db8e906100aa90869086906004016101c2565b602060405180830381865af41580156100c5573d5f803e3d5ffd5b505050506040513d601f19601f820116820180604052508101906100e991906101f9565b9392505050565b604051637ae2b5c760e01b815260048101839052602481018290525f9073__$3c78b1c318d766787a7f50269c68d857b7$__90637ae2b5c7906044016100aa565b5f8060208385031215610142575f80fd5b823567ffffffffffffffff811115610158575f80fd5b8301601f81018513610168575f80fd5b803567ffffffffffffffff81111561017e575f80fd5b8560208260051b8401011115610192575f80fd5b6020919091019590945092505050565b5f80604083850312156101b3575f80fd5b50508035926020909101359150565b602080825281018290525f6001600160fb1b038311156101e0575f80fd5b8260051b80856040850137919091016040019392505050565b5f60208284031215610209575f80fd5b505191905056fea2646970667358221220885e338ae7a70c4f5a410c30ce97585fa8addec6053d24b6f686ce50a69c644b64736f6c634300081a0033",
					"opcodes": "PUSH1 0x80 PUSH1 0x40 MSTORE CALLVALUE DUP1 ISZERO PUSH1 0xE JUMPI PUSH0 DUP1 REVERT JUMPDEST POP PUSH2 0x246 DUP1 PUSH2 0x1C PUSH0 CODECOPY PUSH0 RETURN INVALID PUSH1 0x80 PUSH1 0x40 MSTORE CALLVALUE DUP1 ISZERO PUSH2 0xF JUMPI PUSH0 DUP1 REVERT JUMPDEST POP PUSH1 0x4 CALLDATASIZE LT PUSH2 0x34 JUMPI PUSH0 CALLDATALOAD PUSH1 0xE0 SHR DUP1 PUSH4 0x4AB5248 EQ PUSH2 0x38 JUMPI DUP1 PUSH4 0x1ABE5974 EQ PUSH2 0x5D JUMPI JUMPDEST PUSH0 DUP1 REVERT JUMPDEST PUSH2 0x4B PUSH2 0x46 CALLDATASIZE PUSH1 0x4 PUSH2 0x131 JUMP JUMPDEST PUSH2 0x70 JUMP JUMPDEST PUSH1 0x40 MLOAD SWAP1 DUP2 MSTORE PUSH1 0x20 ADD PUSH1 0x40 MLOAD DUP1 SWAP2 SUB SWAP1 RETURN JUMPDEST PUSH2 0x4B PUSH2 0x6B CALLDATASIZE PUSH1 0x4 PUSH2 0x1A2 JUMP JUMPDEST PUSH2 0xF0 JUMP JUMPDEST PUSH1 0x40 MLOAD PUSH3 0xCA6DC7 PUSH1 0xE1 SHL DUP2 MSTORE PUSH0 SWAP1 PUSH20 0x0 SWAP1 PUSH4 0x194DB8E SWAP1 PUSH2 0xAA SWAP1 DUP7 SWAP1 DUP7 SWAP1 PUSH1 0x4 ADD PUSH2 0x1C2 JUMP JUMPDEST PUSH1 0x20 PUSH1 0x40 MLOAD DUP1 DUP4 SUB DUP2 DUP7 GAS DELEGATECALL ISZERO DUP1 ISZERO PUSH2 0xC5 JUMPI RETURNDATASIZE PUSH0 DUP1 RETURNDATACOPY RETURNDATASIZE PUSH0 REVERT JUMPDEST POP POP POP POP PUSH1 0x40 MLOAD RETURNDATASIZE PUSH1 0x1F NOT PUSH1 0x1F DUP3 ADD AND DUP3 ADD DUP1 PUSH1 0x40 MSTORE POP DUP2 ADD SWAP1 PUSH2 0xE9 SWAP2 SWAP1 PUSH2 0x1F9 JUMP JUMPDEST SWAP4 SWAP3 POP POP POP JUMP JUMPDEST PUSH1 0x40 MLOAD PUSH4 0x7AE2B5C7 PUSH1 0xE0 SHL DUP2 MSTORE PUSH1 0x4 DUP2 ADD DUP4 SWAP1 MSTORE PUSH1 0x24 DUP2 ADD DUP3 SWAP1 MSTORE PUSH0 SWAP1 PUSH20 0x0 SWAP1 PUSH4 0x7AE2B5C7 SWAP1 PUSH1 0x44 ADD PUSH2 0xAA JUMP JUMPDEST PUSH0 DUP1 PUSH1 0x20 DUP4 DUP6 SUB SLT ISZERO PUSH2 0x142 JUMPI PUSH0 DUP1 REVERT JUMPDEST DUP3 CALLDATALOAD PUSH8 0xFFFFFFFFFFFFFFFF DUP2 GT ISZERO PUSH2 0x158 JUMPI PUSH0 DUP1 REVERT JUMPDEST DUP4 ADD PUSH1 0x1F DUP2 ADD DUP6 SGT PUSH2 0x168 JUMPI PUSH0 DUP1 REVERT JUMPDEST DUP1 CALLDATALOAD PUSH8 0xFFFFFFFFFFFFFFFF DUP2 GT ISZERO PUSH2 0x17E JUMPI PUSH0 DUP1 REVERT JUMPDEST DUP6 PUSH1 0x20 DUP3 PUSH1 0x5 SHL DUP5 ADD ADD GT ISZERO PUSH2 0x192 JUMPI PUSH0 DUP1 REVERT JUMPDEST PUSH1 0x20 SWAP2 SWAP1 SWAP2 ADD SWAP6 SWAP1 SWAP5 POP SWAP3 POP POP POP JUMP JUMPDEST PUSH0 DUP1 PUSH1 0x40 DUP4 DUP6 SUB SLT ISZERO PUSH2 0x1B3 JUMPI PUSH0 DUP1 REVERT JUMPDEST POP POP DUP1 CALLDATALOAD SWAP3 PUSH1 0x20 SWAP1 SWAP2 ADD CALLDATALOAD SWAP2 POP JUMP JUMPDEST PUSH1 0x20 DUP1 DUP3 MSTORE DUP2 ADD DUP3 SWAP1 MSTORE PUSH0 PUSH1 0x1 PUSH1 0x1 PUSH1 0xFB SHL SUB DUP4 GT ISZERO PUSH2 0x1E0 JUMPI PUSH0 DUP1 REVERT JUMPDEST DUP3 PUSH1 0x5 SHL DUP1 DUP6 PUSH1 0x40 DUP6 ADD CALLDATACOPY SWAP2 SWAP1 SWAP2 ADD PUSH1 0x40 ADD SWAP4 SWAP3 POP POP POP JUMP JUMPDEST PUSH0 PUSH1 0x20 DUP3 DUP5 SUB SLT ISZERO PUSH2 0x209 JUMPI PUSH0 DUP1 REVERT JUMPDEST POP MLOAD SWAP2 SWAP1 POP JUMP INVALID LOG2 PUSH5 0x6970667358 0x22 SLT KECCAK256 DUP9 MCOPY CALLER DUP11 0xE7 0xA7 0xC 0x4F GAS COINBASE 0xC ADDRESS 0xCE SWAP8 PC PUSH0 0xA8 0xAD 0xDE 0xC6 SDIV RETURNDATASIZE 0x24 0xB6 0xF6 DUP7 0xCE POP 0xA6 SWAP13 PUSH5 0x4B64736F6C PUSH4 0x4300081A STOP CALLER "
				},
				"gasEstimates": {
					"creation": {
						"codeDepositCost": "116400",
						"executionCost": "163",
						"totalCost": "116563"
					},
					"external": {
						"testMin(uint256,uint256)": "infinite",
						"testSum(uint256[])": "infinite"
					}
				},
				"methodIdentifiers": {
					"testMin(uint256,uint256)": "1abe5974",
					"testSum(uint256[])": "04ab5248"
				}
			},
			"storageLayout": {
				"storage": [],
				"types": null
			},
			"userdoc": {
				"kind": "user",
				"methods": {},
				"version": 1
			}
		}
	}
}