{
	"03/Library.sol": {
		"MathLib": {
			"abi": [
				{
					"inputs": [
						{
							"internalType": "uint256",
							"name": "x",
							"type": "uint256"
						},
						{
							"internalType": "uint256",
							"name": "y",
							"type": "uint256"
						}
					],
					"name": "min",
					"outputs": [
						{
							"internalType": "uint256",
							"name": "",
							"type": "uint256"
						}
					],
					"stateMutability": "pure",
					"type": "function"
				}
			],
			"devdoc": {
				"kind": "dev",
				"methods": {},
				"version": 1
			},
			"evm": {
				"assembly": "    /* \"03/Library.sol\":58:171  library MathLib{... */\n  dataSize(sub_0)\n  dataOffset(sub_0)\n  0x0b\n  dup3\n  dup3\n  dup3\n  codecopy\n  dup1\n  mload\n  0x00\n  byte\n  0x73\n  eq\n  tag_1\n  jumpi\n  mstore(0x00, shl(0xe0, 0x4e487b71))\n  mstore(0x04, 0x00)\n  revert(0x00, 0x24)\ntag_1:\n  mstore(0x00, address)\n  0x73\n  dup2\n  mstore8\n  dup3\n  dup2\n  return\nstop\n\nsub_0: assembly {\n        /* \"03/Library.sol\":58:171  library MathLib{... */\n      eq(address, deployTimeAddress())\n      mstore(0x40, 0x80)\n      jumpi(tag_1, lt(calldatasize, 0x04))\n      shr(0xe0, calldataload(0x00))\n      dup1\n      0x7ae2b5c7\n      eq\n      tag_2\n      jumpi\n    tag_1:\n      0x00\n      dup1\n      revert\n        /* \"03/Library.sol\":80:168  function min(uint x,uint y) public pure returns(uint){... */\n    tag_2:\n      tag_3\n      tag_4\n      calldatasize\n      0x04\n      tag_5\n      jump\t// in\n    tag_4:\n      tag_6\n      jump\t// in\n    tag_3:\n      mload(0x40)\n        /* \"#utility.yul\":519:544   */\n      swap1\n      dup2\n      mstore\n        /* \"#utility.yul\":507:509   */\n      0x20\n        /* \"#utility.yul\":492:510   */\n      add\n        /* \"03/Library.sol\":80:168  function min(uint x,uint y) public pure returns(uint){... */\n      mload(0x40)\n      dup1\n      swap2\n      sub\n      swap1\n      return\n    tag_6:\n        /* \"03/Library.sol\":128:132  uint */\n      0x00\n        /* \"03/Library.sol\":156:157  y */\n      dup2\n        /* \"03/Library.sol\":154:155  x */\n      dup4\n        /* \"03/Library.sol\":154:157  x<y */\n      lt\n        /* \"03/Library.sol\":154:161  x<y?x:y */\n      tag_10\n      jumpi\n        /* \"03/Library.sol\":160:161  y */\n      dup2\n        /* \"03/Library.sol\":154:161  x<y?x:y */\n      jump(tag_11)\n    tag_10:\n        /* \"03/Library.sol\":158:159  x */\n      dup3\n        /* \"03/Library.sol\":154:161  x<y?x:y */\n    tag_11:\n        /* \"03/Library.sol\":147:161  return x<y?x:y */\n      swap4\n        /* \"03/Library.sol\":80:168  function min(uint x,uint y) public pure returns(uint){... */\n      swap3\n      pop\n      pop\n      pop\n      jump\t// out\n        /* \"#utility.yul\":14:360   */\n    tag_5:\n        /* \"#utility.yul\":82:88   */\n      0x00\n        /* \"#utility.yul\":90:96   */\n      dup1\n        /* \"#utility.yul\":143:145   */\n      0x40\n        /* \"#utility.yul\":131:140   */\n      dup4\n        /* \"#utility.yul\":122:129   */\n      dup6\n        /* \"#utility.yul\":118:141   */\n      sub\n        /* \"#utility.yul\":114:146   */\n      slt\n        /* \"#utility.yul\":111:163   */\n      iszero\n      tag_14\n      jumpi\n        /* \"#utility.yul\":159:160   */\n      0x00\n        /* \"#utility.yul\":156:157   */\n      dup1\n        /* \"#utility.yul\":149:161   */\n      revert\n        /* \"#utility.yul\":111:163   */\n    tag_14:\n      pop\n      pop\n        /* \"#utility.yul\":204:227   */\n      dup1\n      calldataload\n      swap3\n        /* \"#utility.yul\":324:326   */\n      0x20\n        /* \"#utility.yul\":309:327   */\n      swap1\n      swap2\n      add\n        /* \"#utility.yul\":296:328   */\n      calldataload\n      swap2\n      pop\n        /* \"#utility.yul\":14:360   */\n      jump\t// out\n\n    auxdata: 0xa26469706673582212209662f4d2f1352f3abe958abee720280c079253ddb578cef89562a0f0d6beaddb64736f6c634300081a0033\n}\n",
				"bytecode": {
					"linkReferences": {},
					"object": "60c16032600b8282823980515f1a607314602657634e487b7160e01b5f525f60045260245ffd5b305f52607381538281f3fe73000000000000000000000000000000000000000030146080604052600436106032575f3560e01c80637ae2b5c7146036575b5f80fd5b60456041366004606c565b6057565b60405190815260200160405180910390f35b5f818310606357816065565b825b9392505050565b5f8060408385031215607c575f80fd5b5050803592602090910135915056fea26469706673582212209662f4d2f1352f3abe958abee720280c079253ddb578cef89562a0f0d6beaddb64736f6c634300081a0033",
					"opcodes": "PUSH1 0xC1 PUSH1 0x32 PUSH1 0xB DUP3 DUP3 DUP3 CODECOPY DUP1 MLOAD PUSH0 BYTE PUSH1 0x73 EQ PUSH1 0x26 JUMPI PUSH4 0x4E487B71 PUSH1 0xE0 SHL PUSH0 MSTORE PUSH0 PUSH1 0x4 MSTORE PUSH1 0x24 PUSH0 REVERT JUMPDEST ADDRESS PUSH0 MSTORE PUSH1 0x73 DUP2 MSTORE8 DUP3 DUP2 RETURN INVALID PUSH20 0x0 ADDRESS EQ PUSH1 0x80 PUSH1 0x40 MSTORE PUSH1 0x4 CALLDATASIZE LT PUSH1 0x32 JUMPI PUSH0 CALLDATALOAD PUSH1 0xE0 SHR DUP1 PUSH4 0x7AE2B5C7 EQ PUSH1 0x36 JUMPI JUMPDEST PUSH0 DUP1 REVERT JUMPDEST PUSH1 0x45 PUSH1 0x41 CALLDATASIZE PUSH1 0x4 PUSH1 0x6C JUMP JUMPDEST PUSH1 0x57 JUMP JUMPDEST PUSH1 0x40 MLOAD SWAP1 DUP2 MSTORE PUSH1 0x20 ADD PUSH1 0x40 MLOAD DUP1 SWAP2 SUB SWAP1 RETURN JUMPDEST PUSH0 DUP2 DUP4 LT PUSH1 0x63 JUMPI DUP2 PUSH1 0x65 JUMP JUMPDEST DUP3 JUMPDEST SWAP4 SWAP3 POP POP POP JUMP JUMPDEST PUSH0 DUP1 PUSH1 0x40 DUP4 DUP6 SUB SLT ISZERO PUSH1 0x7C JUMPI PUSH0 DUP1 REVERT JUMPDEST POP POP DUP1 CALLDATALOAD SWAP3 PUSH1 0x20 SWAP1 SWAP2 ADD CALLDATALOAD SWAP2 POP JUMP INVALID LOG2 PUSH5 0x6970667358 0x22 SLT KECCAK256 SWAP7 PUSH3 0xF4D2F1 CALLDATALOAD 0x2F GASPRICE 0xBE SWAP6 DUP11 0xBE 0xE7 KECCAK256 0x28 0xC SMOD SWAP3 MSTORE8 0xDD 0xB5 PUSH25 0xCEF89562A0F0D6BEADDB64736F6C634300081A003300000000 "
				},
				"gasEstimates": {
					"creation": {
						"codeDepositCost": "38600",
						"executionCost": "120",
						"totalCost": "38720"
					},
					"external": {
						"min(uint256,uint256)": "300"
					}
				},
				"methodIdentifiers": {
					"min(uint256,uint256)": "7ae2b5c7"
				}
			},
			"storageLayout": {
				"storage": [],
				"types": null
			},
			"userdoc": {
				"kind": "user",
				"methods": {},
				"version": 1
			}
		}
	}
}