{
	"03/Interface.sol": {
		"CallCounter": {
			"abi": [
				{
					"inputs": [
						{
							"internalType": "contract ICounter",
							"name": "_addr",
							"type": "address"
						}
					],
					"name": "getCount",
					"outputs": [
						{
							"internalType": "uint256",
							"name": "",
							"type": "uint256"
						}
					],
					"stateMutability": "view",
					"type": "function"
				},
				{
					"inputs": [
						{
							"internalType": "contract ICounter",
							"name": "_addr",
							"type": "address"
						}
					],
					"name": "incrementCounter",
					"outputs": [],
					"stateMutability": "nonpayable",
					"type": "function"
				},
				{
					"inputs": [
						{
							"internalType": "contract ICounter",
							"name": "_addr",
							"type": "address"
						},
						{
							"internalType": "uint256",
							"name": "value",
							"type": "uint256"
						}
					],
					"name": "updateCount",
					"outputs": [],
					"stateMutability": "nonpayable",
					"type": "function"
				}
			],
			"devdoc": {
				"kind": "dev",
				"methods": {},
				"version": 1
			},
			"evm": {
				"assembly": "    /* \"03/Interface.sol\":394:741  contract CallCounter{... */\n  mstore(0x40, 0x80)\n  callvalue\n  dup1\n  iszero\n  tag_1\n  jumpi\n  0x00\n  dup1\n  revert\ntag_1:\n  pop\n  dataSize(sub_0)\n  dup1\n  dataOffset(sub_0)\n  0x00\n  codecopy\n  0x00\n  return\nstop\n\nsub_0: assembly {\n        /* \"03/Interface.sol\":394:741  contract CallCounter{... */\n      mstore(0x40, 0x80)\n      callvalue\n      dup1\n      iszero\n      tag_1\n      jumpi\n      0x00\n      dup1\n      revert\n    tag_1:\n      pop\n      jumpi(tag_2, lt(calldatasize, 0x04))\n      shr(0xe0, calldataload(0x00))\n      dup1\n      0x480fc169\n      eq\n      tag_3\n      jumpi\n      dup1\n      0x4f0cd27b\n      eq\n      tag_4\n      jumpi\n      dup1\n      0xe5910ae7\n      eq\n      tag_5\n      jumpi\n    tag_2:\n      0x00\n      dup1\n      revert\n        /* \"03/Interface.sol\":533:641  function updateCount(ICounter _addr,uint value) public {... */\n    tag_3:\n      tag_6\n      tag_7\n      calldatasize\n      0x04\n      tag_8\n      jump\t// in\n    tag_7:\n      tag_9\n      jump\t// in\n    tag_6:\n      stop\n        /* \"03/Interface.sol\":420:527  function getCount(ICounter _addr) public view returns (uint){... */\n    tag_4:\n      tag_10\n      tag_11\n      calldatasize\n      0x04\n      tag_12\n      jump\t// in\n    tag_11:\n      tag_13\n      jump\t// in\n    tag_10:\n      mload(0x40)\n        /* \"#utility.yul\":848:873   */\n      swap1\n      dup2\n      mstore\n        /* \"#utility.yul\":836:838   */\n      0x20\n        /* \"#utility.yul\":821:839   */\n      add\n        /* \"03/Interface.sol\":420:527  function getCount(ICounter _addr) public view returns (uint){... */\n      mload(0x40)\n      dup1\n      swap2\n      sub\n      swap1\n      return\n        /* \"03/Interface.sol\":647:739  function incrementCounter(ICounter _addr) public{... */\n    tag_5:\n      tag_6\n      tag_17\n      calldatasize\n      0x04\n      tag_12\n      jump\t// in\n    tag_17:\n      tag_18\n      jump\t// in\n        /* \"03/Interface.sol\":533:641  function updateCount(ICounter _addr,uint value) public {... */\n    tag_9:\n        /* \"03/Interface.sol\":605:634  ICounter(_addr).update(value) */\n      mload(0x40)\n      shl(0xe1, 0x4155c485)\n      dup2\n      mstore\n      0x04\n      dup2\n      add\n        /* \"#utility.yul\":848:873   */\n      dup3\n      swap1\n      mstore\n      sub(shl(0xa0, 0x01), 0x01)\n        /* \"03/Interface.sol\":605:627  ICounter(_addr).update */\n      dup4\n      and\n      swap1\n      0x82ab890a\n      swap1\n        /* \"#utility.yul\":821:839   */\n      0x24\n      add\n        /* \"03/Interface.sol\":605:634  ICounter(_addr).update(value) */\n      0x00\n      mload(0x40)\n      dup1\n      dup4\n      sub\n      dup2\n      0x00\n      dup8\n      dup1\n      extcodesize\n      iszero\n      dup1\n      iszero\n      tag_21\n      jumpi\n      0x00\n      dup1\n      revert\n    tag_21:\n      pop\n      gas\n      call\n      iszero\n      dup1\n      iszero\n      tag_23\n      jumpi\n      returndatasize\n      0x00\n      dup1\n      returndatacopy\n      revert(0x00, returndatasize)\n    tag_23:\n      pop\n      pop\n      pop\n      pop\n        /* \"03/Interface.sol\":533:641  function updateCount(ICounter _addr,uint value) public {... */\n      pop\n      pop\n      jump\t// out\n        /* \"03/Interface.sol\":420:527  function getCount(ICounter _addr) public view returns (uint){... */\n    tag_13:\n        /* \"03/Interface.sol\":475:479  uint */\n      0x00\n        /* \"03/Interface.sol\":506:511  _addr */\n      dup2\n      sub(shl(0xa0, 0x01), 0x01)\n        /* \"03/Interface.sol\":497:518  ICounter(_addr).count */\n      and\n      0x06661abd\n        /* \"03/Interface.sol\":497:520  ICounter(_addr).count() */\n      mload(0x40)\n      dup2\n      0xffffffff\n      and\n      0xe0\n      shl\n      dup2\n      mstore\n      0x04\n      add\n      0x20\n      mload(0x40)\n      dup1\n      dup4\n      sub\n      dup2\n      dup7\n      gas\n      staticcall\n      iszero\n      dup1\n      iszero\n      tag_26\n      jumpi\n      returndatasize\n      0x00\n      dup1\n      returndatacopy\n      revert(0x00, returndatasize)\n    tag_26:\n      pop\n      pop\n      pop\n      pop\n      mload(0x40)\n      returndatasize\n      not(0x1f)\n      0x1f\n      dup3\n      add\n      and\n      dup3\n      add\n      dup1\n      0x40\n      mstore\n      pop\n      dup2\n      add\n      swap1\n      tag_27\n      swap2\n      swap1\n      tag_28\n      jump\t// in\n    tag_27:\n        /* \"03/Interface.sol\":490:520  return ICounter(_addr).count() */\n      swap3\n        /* \"03/Interface.sol\":420:527  function getCount(ICounter _addr) public view returns (uint){... */\n      swap2\n      pop\n      pop\n      jump\t// out\n        /* \"03/Interface.sol\":647:739  function incrementCounter(ICounter _addr) public{... */\n    tag_18:\n        /* \"03/Interface.sol\":714:719  _addr */\n      dup1\n      sub(shl(0xa0, 0x01), 0x01)\n        /* \"03/Interface.sol\":705:730  ICounter(_addr).increment */\n      and\n      0xd09de08a\n        /* \"03/Interface.sol\":705:732  ICounter(_addr).increment() */\n      mload(0x40)\n      dup2\n      0xffffffff\n      and\n      0xe0\n      shl\n      dup2\n      mstore\n      0x04\n      add\n      0x00\n      mload(0x40)\n      dup1\n      dup4\n      sub\n      dup2\n      0x00\n      dup8\n      dup1\n      extcodesize\n      iszero\n      dup1\n      iszero\n      tag_30\n      jumpi\n      0x00\n      dup1\n      revert\n    tag_30:\n      pop\n      gas\n      call\n      iszero\n      dup1\n      iszero\n      tag_32\n      jumpi\n      returndatasize\n      0x00\n      dup1\n      returndatacopy\n      revert(0x00, returndatasize)\n    tag_32:\n      pop\n      pop\n      pop\n      pop\n        /* \"03/Interface.sol\":647:739  function incrementCounter(ICounter _addr) public{... */\n      pop\n      jump\t// out\n        /* \"#utility.yul\":14:197   */\n    tag_33:\n        /* \"#utility.yul\":92:112   */\n      dup1\n      calldataload\n      sub(shl(0xa0, 0x01), 0x01)\n        /* \"#utility.yul\":141:172   */\n      dup2\n      and\n        /* \"#utility.yul\":131:173   */\n      dup2\n      eq\n        /* \"#utility.yul\":121:191   */\n      tag_36\n      jumpi\n        /* \"#utility.yul\":187:188   */\n      0x00\n        /* \"#utility.yul\":184:185   */\n      dup1\n        /* \"#utility.yul\":177:189   */\n      revert\n        /* \"#utility.yul\":121:191   */\n    tag_36:\n        /* \"#utility.yul\":14:197   */\n      swap2\n      swap1\n      pop\n      jump\t// out\n        /* \"#utility.yul\":202:481   */\n    tag_8:\n        /* \"#utility.yul\":285:291   */\n      0x00\n        /* \"#utility.yul\":293:299   */\n      dup1\n        /* \"#utility.yul\":346:348   */\n      0x40\n        /* \"#utility.yul\":334:343   */\n      dup4\n        /* \"#utility.yul\":325:332   */\n      dup6\n        /* \"#utility.yul\":321:344   */\n      sub\n        /* \"#utility.yul\":317:349   */\n      slt\n        /* \"#utility.yul\":314:366   */\n      iszero\n      tag_38\n      jumpi\n        /* \"#utility.yul\":362:363   */\n      0x00\n        /* \"#utility.yul\":359:360   */\n      dup1\n        /* \"#utility.yul\":352:364   */\n      revert\n        /* \"#utility.yul\":314:366   */\n    tag_38:\n        /* \"#utility.yul\":385:424   */\n      tag_39\n        /* \"#utility.yul\":414:423   */\n      dup4\n        /* \"#utility.yul\":385:424   */\n      tag_33\n      jump\t// in\n    tag_39:\n        /* \"#utility.yul\":375:424   */\n      swap5\n        /* \"#utility.yul\":471:473   */\n      0x20\n        /* \"#utility.yul\":456:474   */\n      swap4\n      swap1\n      swap4\n      add\n        /* \"#utility.yul\":443:475   */\n      calldataload\n      swap4\n      pop\n      pop\n      pop\n        /* \"#utility.yul\":202:481   */\n      jump\t// out\n        /* \"#utility.yul\":486:697   */\n    tag_12:\n        /* \"#utility.yul\":560:566   */\n      0x00\n        /* \"#utility.yul\":613:615   */\n      0x20\n        /* \"#utility.yul\":601:610   */\n      dup3\n        /* \"#utility.yul\":592:599   */\n      dup5\n        /* \"#utility.yul\":588:611   */\n      sub\n        /* \"#utility.yul\":584:616   */\n      slt\n        /* \"#utility.yul\":581:633   */\n      iszero\n      tag_41\n      jumpi\n        /* \"#utility.yul\":629:630   */\n      0x00\n        /* \"#utility.yul\":626:627   */\n      dup1\n        /* \"#utility.yul\":619:631   */\n      revert\n        /* \"#utility.yul\":581:633   */\n    tag_41:\n        /* \"#utility.yul\":652:691   */\n      tag_42\n        /* \"#utility.yul\":681:690   */\n      dup3\n        /* \"#utility.yul\":652:691   */\n      tag_33\n      jump\t// in\n    tag_42:\n        /* \"#utility.yul\":642:691   */\n      swap4\n        /* \"#utility.yul\":486:697   */\n      swap3\n      pop\n      pop\n      pop\n      jump\t// out\n        /* \"#utility.yul\":884:1068   */\n    tag_28:\n        /* \"#utility.yul\":954:960   */\n      0x00\n        /* \"#utility.yul\":1007:1009   */\n      0x20\n        /* \"#utility.yul\":995:1004   */\n      dup3\n        /* \"#utility.yul\":986:993   */\n      dup5\n        /* \"#utility.yul\":982:1005   */\n      sub\n        /* \"#utility.yul\":978:1010   */\n      slt\n        /* \"#utility.yul\":975:1027   */\n      iszero\n      tag_45\n      jumpi\n        /* \"#utility.yul\":1023:1024   */\n      0x00\n        /* \"#utility.yul\":1020:1021   */\n      dup1\n        /* \"#utility.yul\":1013:1025   */\n      revert\n        /* \"#utility.yul\":975:1027   */\n    tag_45:\n      pop\n        /* \"#utility.yul\":1046:1062   */\n      mload\n      swap2\n        /* \"#utility.yul\":884:1068   */\n      swap1\n      pop\n      jump\t// out\n\n    auxdata: 0xa2646970667358221220655dc8b77317dcbbcb8d566d4dee6d5345d73768b51b8b157368bcf9ed74866764736f6c634300081a0033\n}\n",
				"bytecode": {
					"linkReferences": {},
					"object": "6080604052348015600e575f80fd5b506102518061001c5f395ff3fe608060405234801561000f575f80fd5b506004361061003f575f3560e01c8063480fc169146100435780634f0cd27b14610058578063e5910ae71461007d575b5f80fd5b6100566100513660046101bc565b610090565b005b61006b6100663660046101e4565b6100e9565b60405190815260200160405180910390f35b61005661008b3660046101e4565b610150565b604051634155c48560e11b8152600481018290526001600160a01b038316906382ab890a906024015f604051808303815f87803b1580156100cf575f80fd5b505af11580156100e1573d5f803e3d5ffd5b505050505050565b5f816001600160a01b03166306661abd6040518163ffffffff1660e01b8152600401602060405180830381865afa158015610126573d5f803e3d5ffd5b505050506040513d601f19601f8201168201806040525081019061014a9190610204565b92915050565b806001600160a01b031663d09de08a6040518163ffffffff1660e01b81526004015f604051808303815f87803b158015610188575f80fd5b505af115801561019a573d5f803e3d5ffd5b5050505050565b80356001600160a01b03811681146101b7575f80fd5b919050565b5f80604083850312156101cd575f80fd5b6101d6836101a1565b946020939093013593505050565b5f602082840312156101f4575f80fd5b6101fd826101a1565b9392505050565b5f60208284031215610214575f80fd5b505191905056fea2646970667358221220655dc8b77317dcbbcb8d566d4dee6d5345d73768b51b8b157368bcf9ed74866764736f6c634300081a0033",
					"opcodes": "PUSH1 0x80 PUSH1 0x40 MSTORE CALLVALUE DUP1 ISZERO PUSH1 0xE JUMPI PUSH0 DUP1 REVERT JUMPDEST POP PUSH2 0x251 DUP1 PUSH2 0x1C PUSH0 CODECOPY PUSH0 RETURN INVALID PUSH1 0x80 PUSH1 0x40 MSTORE CALLVALUE DUP1 ISZERO PUSH2 0xF JUMPI PUSH0 DUP1 REVERT JUMPDEST POP PUSH1 0x4 CALLDATASIZE LT PUSH2 0x3F JUMPI PUSH0 CALLDATALOAD PUSH1 0xE0 SHR DUP1 PUSH4 0x480FC169 EQ PUSH2 0x43 JUMPI DUP1 PUSH4 0x4F0CD27B EQ PUSH2 0x58 JUMPI DUP1 PUSH4 0xE5910AE7 EQ PUSH2 0x7D JUMPI JUMPDEST PUSH0 DUP1 REVERT JUMPDEST PUSH2 0x56 PUSH2 0x51 CALLDATASIZE PUSH1 0x4 PUSH2 0x1BC JUMP JUMPDEST PUSH2 0x90 JUMP JUMPDEST STOP JUMPDEST PUSH2 0x6B PUSH2 0x66 CALLDATASIZE PUSH1 0x4 PUSH2 0x1E4 JUMP JUMPDEST PUSH2 0xE9 JUMP JUMPDEST PUSH1 0x40 MLOAD SWAP1 DUP2 MSTORE PUSH1 0x20 ADD PUSH1 0x40 MLOAD DUP1 SWAP2 SUB SWAP1 RETURN JUMPDEST PUSH2 0x56 PUSH2 0x8B CALLDATASIZE PUSH1 0x4 PUSH2 0x1E4 JUMP JUMPDEST PUSH2 0x150 JUMP JUMPDEST PUSH1 0x40 MLOAD PUSH4 0x4155C485 PUSH1 0xE1 SHL DUP2 MSTORE PUSH1 0x4 DUP2 ADD DUP3 SWAP1 MSTORE PUSH1 0x1 PUSH1 0x1 PUSH1 0xA0 SHL SUB DUP4 AND SWAP1 PUSH4 0x82AB890A SWAP1 PUSH1 0x24 ADD PUSH0 PUSH1 0x40 MLOAD DUP1 DUP4 SUB DUP2 PUSH0 DUP8 DUP1 EXTCODESIZE ISZERO DUP1 ISZERO PUSH2 0xCF JUMPI PUSH0 DUP1 REVERT JUMPDEST POP GAS CALL ISZERO DUP1 ISZERO PUSH2 0xE1 JUMPI RETURNDATASIZE PUSH0 DUP1 RETURNDATACOPY RETURNDATASIZE PUSH0 REVERT JUMPDEST POP POP POP POP POP POP JUMP JUMPDEST PUSH0 DUP2 PUSH1 0x1 PUSH1 0x1 PUSH1 0xA0 SHL SUB AND PUSH4 0x6661ABD PUSH1 0x40 MLOAD DUP2 PUSH4 0xFFFFFFFF AND PUSH1 0xE0 SHL DUP2 MSTORE PUSH1 0x4 ADD PUSH1 0x20 PUSH1 0x40 MLOAD DUP1 DUP4 SUB DUP2 DUP7 GAS STATICCALL ISZERO DUP1 ISZERO PUSH2 0x126 JUMPI RETURNDATASIZE PUSH0 DUP1 RETURNDATACOPY RETURNDATASIZE PUSH0 REVERT JUMPDEST POP POP POP POP PUSH1 0x40 MLOAD RETURNDATASIZE PUSH1 0x1F NOT PUSH1 0x1F DUP3 ADD AND DUP3 ADD DUP1 PUSH1 0x40 MSTORE POP DUP2 ADD SWAP1 PUSH2 0x14A SWAP2 SWAP1 PUSH2 0x204 JUMP JUMPDEST SWAP3 SWAP2 POP POP JUMP JUMPDEST DUP1 PUSH1 0x1 PUSH1 0x1 PUSH1 0xA0 SHL SUB AND PUSH4 0xD09DE08A PUSH1 0x40 MLOAD DUP2 PUSH4 0xFFFFFFFF AND PUSH1 0xE0 SHL DUP2 MSTORE PUSH1 0x4 ADD PUSH0 PUSH1 0x40 MLOAD DUP1 DUP4 SUB DUP2 PUSH0 DUP8 DUP1 EXTCODESIZE ISZERO DUP1 ISZERO PUSH2 0x188 JUMPI PUSH0 DUP1 REVERT JUMPDEST POP GAS CALL ISZERO DUP1 ISZERO PUSH2 0x19A JUMPI RETURNDATASIZE PUSH0 DUP1 RETURNDATACOPY RETURNDATASIZE PUSH0 REVERT JUMPDEST POP POP POP POP POP JUMP JUMPDEST DUP1 CALLDATALOAD PUSH1 0x1 PUSH1 0x1 PUSH1 0xA0 SHL SUB DUP2 AND DUP2 EQ PUSH2 0x1B7 JUMPI PUSH0 DUP1 REVERT JUMPDEST SWAP2 SWAP1 POP JUMP JUMPDEST PUSH0 DUP1 PUSH1 0x40 DUP4 DUP6 SUB SLT ISZERO PUSH2 0x1CD JUMPI PUSH0 DUP1 REVERT JUMPDEST PUSH2 0x1D6 DUP4 PUSH2 0x1A1 JUMP JUMPDEST SWAP5 PUSH1 0x20 SWAP4 SWAP1 SWAP4 ADD CALLDATALOAD SWAP4 POP POP POP JUMP JUMPDEST PUSH0 PUSH1 0x20 DUP3 DUP5 SUB SLT ISZERO PUSH2 0x1F4 JUMPI PUSH0 DUP1 REVERT JUMPDEST PUSH2 0x1FD DUP3 PUSH2 0x1A1 JUMP JUMPDEST SWAP4 SWAP3 POP POP POP JUMP JUMPDEST PUSH0 PUSH1 0x20 DUP3 DUP5 SUB SLT ISZERO PUSH2 0x214 JUMPI PUSH0 DUP1 REVERT JUMPDEST POP MLOAD SWAP2 SWAP1 POP JUMP INVALID LOG2 PUSH5 0x6970667358 0x22 SLT KECCAK256 PUSH6 0x5DC8B77317DC 0xBB 0xCB DUP14 JUMP PUSH14 0x4DEE6D5345D73768B51B8B157368 0xBC 0xF9 0xED PUSH21 0x866764736F6C634300081A00330000000000000000 "
				},
				"gasEstimates": {
					"creation": {
						"codeDepositCost": "118600",
						"executionCost": "163",
						"totalCost": "118763"
					},
					"external": {
						"getCount(address)": "infinite",
						"incrementCounter(address)": "infinite",
						"updateCount(address,uint256)": "infinite"
					}
				},
				"methodIdentifiers": {
					"getCount(address)": "4f0cd27b",
					"incrementCounter(address)": "e5910ae7",
					"updateCount(address,uint256)": "480fc169"
				}
			},
			"storageLayout": {
				"storage": [],
				"types": null
			},
			"userdoc": {
				"kind": "user",
				"methods": {},
				"version": 1
			}
		}
	}
}