{
	"data": {
		"bytecode": {
			"linkReferences": {},
			"object": "60806040526000805534801561001457600080fd5b5060fe806100236000396000f3fe6080604052348015600f57600080fd5b5060043610603c5760003560e01c806306661abd146041578063371303c014605b578063b3bcfa82146063575b600080fd5b604960005481565b60405190815260200160405180910390f35b60616069565b005b6061607d565b600080549080607683609a565b9190505550565b600080549080607683600081609257609260b2565b506000190190565b600060001982141560ab5760ab60b2565b5060010190565b634e487b7160e01b600052601160045260246000fdfea264697066735822122051c647deaf71aa7e2e473502a8b8835bc2b70e3261b3934d3da2d98312033d5964736f6c63430008070033",
			"opcodes": "PUSH1 0x80 PUSH1 0x40 MSTORE PUSH1 0x0 DUP1 SSTORE CALLVALUE DUP1 ISZERO PUSH2 0x14 JUMPI PUSH1 0x0 DUP1 REVERT JUMPDEST POP PUSH1 0xFE DUP1 PUSH2 0x23 PUSH1 0x0 CODECOPY PUSH1 0x0 RETURN INVALID PUSH1 0x80 PUSH1 0x40 MSTORE CALLVALUE DUP1 ISZERO PUSH1 0xF JUMPI PUSH1 0x0 DUP1 REVERT JUMPDEST POP PUSH1 0x4 CALLDATASIZE LT PUSH1 0x3C JUMPI PUSH1 0x0 CALLDATALOAD PUSH1 0xE0 SHR DUP1 PUSH4 0x6661ABD EQ PUSH1 0x41 JUMPI DUP1 PUSH4 0x371303C0 EQ PUSH1 0x5B JUMPI DUP1 PUSH4 0xB3BCFA82 EQ PUSH1 0x63 JUMPI JUMPDEST PUSH1 0x0 DUP1 REVERT JUMPDEST PUSH1 0x49 PUSH1 0x0 SLOAD DUP2 JUMP JUMPDEST PUSH1 0x40 MLOAD SWAP1 DUP2 MSTORE PUSH1 0x20 ADD PUSH1 0x40 MLOAD DUP1 SWAP2 SUB SWAP1 RETURN JUMPDEST PUSH1 0x61 PUSH1 0x69 JUMP JUMPDEST STOP JUMPDEST PUSH1 0x61 PUSH1 0x7D JUMP JUMPDEST PUSH1 0x0 DUP1 SLOAD SWAP1 DUP1 PUSH1 0x76 DUP4 PUSH1 0x9A JUMP JUMPDEST SWAP2 SWAP1 POP SSTORE POP JUMP JUMPDEST PUSH1 0x0 DUP1 SLOAD SWAP1 DUP1 PUSH1 0x76 DUP4 PUSH1 0x0 DUP2 PUSH1 0x92 JUMPI PUSH1 0x92 PUSH1 0xB2 JUMP JUMPDEST POP PUSH1 0x0 NOT ADD SWAP1 JUMP JUMPDEST PUSH1 0x0 PUSH1 0x0 NOT DUP3 EQ ISZERO PUSH1 0xAB JUMPI PUSH1 0xAB PUSH1 0xB2 JUMP JUMPDEST POP PUSH1 0x1 ADD SWAP1 JUMP JUMPDEST PUSH4 0x4E487B71 PUSH1 0xE0 SHL PUSH1 0x0 MSTORE PUSH1 0x11 PUSH1 0x4 MSTORE PUSH1 0x24 PUSH1 0x0 REVERT INVALID LOG2 PUSH5 0x6970667358 0x22 SLT KECCAK256 MLOAD 0xC6 SELFBALANCE 0xDE 0xAF PUSH18 0xAA7E2E473502A8B8835BC2B70E3261B3934D RETURNDATASIZE LOG2 0xD9 DUP4 SLT SUB RETURNDATASIZE MSIZE PUSH5 0x736F6C6343 STOP ADDMOD SMOD STOP CALLER "
		},
		"gasEstimates": {
			"creation": {
				"codeDepositCost": "50800",
				"executionCost": "5105",
				"totalCost": "55905"
			},
			"external": {
				"count()": "2261",
				"dec()": "24437",
				"inc()": "24436"
			}
		},
		"methodIdentifiers": {
			"count()": "06661abd",
			"dec()": "b3bcfa82",
			"inc()": "371303c0"
		}
	},
	"abi": [
		{
			"inputs": [],
			"name": "count",
			"outputs": [
				{
					"internalType": "uint256",
					"name": "",
					"type": "uint256"
				}
			],
			"stateMutability": "view",
			"type": "function"
		},
		{
			"inputs": [],
			"name": "dec",
			"outputs": [],
			"stateMutability": "nonpayable",
			"type": "function"
		},
		{
			"inputs": [],
			"name": "inc",
			"outputs": [],
			"stateMutability": "nonpayable",
			"type": "function"
		}
	]
}