{
	"data": {
		"bytecode": {
			"linkReferences": {},
			"object": "608060405260de60005534801561001557600080fd5b50610175806100256000396000f3fe608060405234801561001057600080fd5b506004361061004c5760003560e01c806320987767146100515780632b813bc01461006657806375f7286c1461006e578063b8bd717f14610051575b600080fd5b61006461005f366004610110565b610081565b005b6100646100d1565b61006461007c366004610110565b6100e5565b600a8111156100ce5760405162461bcd60e51b81526020600482015260146024820152730692069732067726561746572207468616e2031360641b60448201526064015b60405180910390fd5b50565b60005460de146100e3576100e3610129565b565b600a8111156100ce57604051631c47337760e31b8152336004820152602481018290526044016100c5565b60006020828403121561012257600080fd5b5035919050565b634e487b7160e01b600052600160045260246000fdfea26469706673582212203de4f48a16438eaa63da800e4cf82289a244328e61236a67ce3383b8866666b164736f6c63430008070033",
			"opcodes": "PUSH1 0x80 PUSH1 0x40 MSTORE PUSH1 0xDE PUSH1 0x0 SSTORE CALLVALUE DUP1 ISZERO PUSH2 0x15 JUMPI PUSH1 0x0 DUP1 REVERT JUMPDEST POP PUSH2 0x175 DUP1 PUSH2 0x25 PUSH1 0x0 CODECOPY PUSH1 0x0 RETURN INVALID PUSH1 0x80 PUSH1 0x40 MSTORE CALLVALUE DUP1 ISZERO PUSH2 0x10 JUMPI PUSH1 0x0 DUP1 REVERT JUMPDEST POP PUSH1 0x4 CALLDATASIZE LT PUSH2 0x4C JUMPI PUSH1 0x0 CALLDATALOAD PUSH1 0xE0 SHR DUP1 PUSH4 0x20987767 EQ PUSH2 0x51 JUMPI DUP1 PUSH4 0x2B813BC0 EQ PUSH2 0x66 JUMPI DUP1 PUSH4 0x75F7286C EQ PUSH2 0x6E JUMPI DUP1 PUSH4 0xB8BD717F EQ PUSH2 0x51 JUMPI JUMPDEST PUSH1 0x0 DUP1 REVERT JUMPDEST PUSH2 0x64 PUSH2 0x5F CALLDATASIZE PUSH1 0x4 PUSH2 0x110 JUMP JUMPDEST PUSH2 0x81 JUMP JUMPDEST STOP JUMPDEST PUSH2 0x64 PUSH2 0xD1 JUMP JUMPDEST PUSH2 0x64 PUSH2 0x7C CALLDATASIZE PUSH1 0x4 PUSH2 0x110 JUMP JUMPDEST PUSH2 0xE5 JUMP JUMPDEST PUSH1 0xA DUP2 GT ISZERO PUSH2 0xCE JUMPI PUSH1 0x40 MLOAD PUSH3 0x461BCD PUSH1 0xE5 SHL DUP2 MSTORE PUSH1 0x20 PUSH1 0x4 DUP3 ADD MSTORE PUSH1 0x14 PUSH1 0x24 DUP3 ADD MSTORE PUSH20 0x692069732067726561746572207468616E20313 PUSH1 0x64 SHL PUSH1 0x44 DUP3 ADD MSTORE PUSH1 0x64 ADD JUMPDEST PUSH1 0x40 MLOAD DUP1 SWAP2 SUB SWAP1 REVERT JUMPDEST POP JUMP JUMPDEST PUSH1 0x0 SLOAD PUSH1 0xDE EQ PUSH2 0xE3 JUMPI PUSH2 0xE3 PUSH2 0x129 JUMP JUMPDEST JUMP JUMPDEST PUSH1 0xA DUP2 GT ISZERO PUSH2 0xCE JUMPI PUSH1 0x40 MLOAD PUSH4 0x1C473377 PUSH1 0xE3 SHL DUP2 MSTORE CALLER PUSH1 0x4 DUP3 ADD MSTORE PUSH1 0x24 DUP2 ADD DUP3 SWAP1 MSTORE PUSH1 0x44 ADD PUSH2 0xC5 JUMP JUMPDEST PUSH1 0x0 PUSH1 0x20 DUP3 DUP5 SUB SLT ISZERO PUSH2 0x122 JUMPI PUSH1 0x0 DUP1 REVERT JUMPDEST POP CALLDATALOAD SWAP2 SWAP1 POP JUMP JUMPDEST PUSH4 0x4E487B71 PUSH1 0xE0 SHL PUSH1 0x0 MSTORE PUSH1 0x1 PUSH1 0x4 MSTORE PUSH1 0x24 PUSH1 0x0 REVERT INVALID LOG2 PUSH5 0x6970667358 0x22 SLT KECCAK256 RETURNDATASIZE 0xE4 DELEGATECALL DUP11 AND NUMBER DUP15 0xAA PUSH4 0xDA800E4C 0xF8 0x22 DUP10 LOG2 DIFFICULTY ORIGIN DUP15 PUSH2 0x236A PUSH8 0xCE3383B8866666B1 PUSH5 0x736F6C6343 STOP ADDMOD SMOD STOP CALLER "
		},
		"gasEstimates": {
			"creation": {
				"codeDepositCost": "74600",
				"executionCost": "22229",
				"totalCost": "96829"
			},
			"external": {
				"testAssert()": "2302",
				"testCustomError(uint256)": "360",
				"testRequire(uint256)": "393",
				"testRevert(uint256)": "327"
			}
		},
		"methodIdentifiers": {
			"testAssert()": "2b813bc0",
			"testCustomError(uint256)": "75f7286c",
			"testRequire(uint256)": "b8bd717f",
			"testRevert(uint256)": "20987767"
		}
	},
	"abi": [
		{
			"inputs": [
				{
					"internalType": "address",
					"name": "_addr",
					"type": "address"
				},
				{
					"internalType": "uint256",
					"name": "i",
					"type": "uint256"
				}
			],
			"name": "MyError",
			"type": "error"
		},
		{
			"inputs": [],
			"name": "testAssert",
			"outputs": [],
			"stateMutability": "view",
			"type": "function"
		},
		{
			"inputs": [
				{
					"internalType": "uint256",
					"name": "i",
					"type": "uint256"
				}
			],
			"name": "testCustomError",
			"outputs": [],
			"stateMutability": "view",
			"type": "function"
		},
		{
			"inputs": [
				{
					"internalType": "uint256",
					"name": "i",
					"type": "uint256"
				}
			],
			"name": "testRequire",
			"outputs": [],
			"stateMutability": "pure",
			"type": "function"
		},
		{
			"inputs": [
				{
					"internalType": "uint256",
					"name": "i",
					"type": "uint256"
				}
			],
			"name": "testRevert",
			"outputs": [],
			"stateMutability": "pure",
			"type": "function"
		}
	]
}