{
	"data": {
		"bytecode": {
			"linkReferences": {},
			"object": "608060405260008055600180546001600160a81b031916905534801561002457600080fd5b5061014e806100346000396000f3fe608060405234801561001057600080fd5b506004361061004c5760003560e01c806310e112a21461005157806326b85ee11461005b5780634df7e3d014610090578063e5aa3d58146100ad575b600080fd5b6100596100c4565b005b6001546100739061010090046001600160a01b031681565b6040516001600160a01b0390911681526020015b60405180910390f35b60015461009d9060ff1681565b6040519015158152602001610087565b6100b660005481565b604051908152602001610087565b607b60006100d46101c8836100f2565b5050607b60005550600180546001600160a81b031916610101179055565b6000821982111561011357634e487b7160e01b600052601160045260246000fd5b50019056fea2646970667358221220e2833de1f15444ccbb1be758da30a81e160e2d1b6f548520f4d903c3a260a8b264736f6c63430008070033",
			"opcodes": "PUSH1 0x80 PUSH1 0x40 MSTORE PUSH1 0x0 DUP1 SSTORE PUSH1 0x1 DUP1 SLOAD PUSH1 0x1 PUSH1 0x1 PUSH1 0xA8 SHL SUB NOT AND SWAP1 SSTORE CALLVALUE DUP1 ISZERO PUSH2 0x24 JUMPI PUSH1 0x0 DUP1 REVERT JUMPDEST POP PUSH2 0x14E DUP1 PUSH2 0x34 PUSH1 0x0 CODECOPY PUSH1 0x0 RETURN INVALID PUSH1 0x80 PUSH1 0x40 MSTORE CALLVALUE DUP1 ISZERO PUSH2 0x10 JUMPI PUSH1 0x0 DUP1 REVERT JUMPDEST POP PUSH1 0x4 CALLDATASIZE LT PUSH2 0x4C JUMPI PUSH1 0x0 CALLDATALOAD PUSH1 0xE0 SHR DUP1 PUSH4 0x10E112A2 EQ PUSH2 0x51 JUMPI DUP1 PUSH4 0x26B85EE1 EQ PUSH2 0x5B JUMPI DUP1 PUSH4 0x4DF7E3D0 EQ PUSH2 0x90 JUMPI DUP1 PUSH4 0xE5AA3D58 EQ PUSH2 0xAD JUMPI JUMPDEST PUSH1 0x0 DUP1 REVERT JUMPDEST PUSH2 0x59 PUSH2 0xC4 JUMP JUMPDEST STOP JUMPDEST PUSH1 0x1 SLOAD PUSH2 0x73 SWAP1 PUSH2 0x100 SWAP1 DIV PUSH1 0x1 PUSH1 0x1 PUSH1 0xA0 SHL SUB AND DUP2 JUMP JUMPDEST PUSH1 0x40 MLOAD PUSH1 0x1 PUSH1 0x1 PUSH1 0xA0 SHL SUB SWAP1 SWAP2 AND DUP2 MSTORE PUSH1 0x20 ADD JUMPDEST PUSH1 0x40 MLOAD DUP1 SWAP2 SUB SWAP1 RETURN JUMPDEST PUSH1 0x1 SLOAD PUSH2 0x9D SWAP1 PUSH1 0xFF AND DUP2 JUMP JUMPDEST PUSH1 0x40 MLOAD SWAP1 ISZERO ISZERO DUP2 MSTORE PUSH1 0x20 ADD PUSH2 0x87 JUMP JUMPDEST PUSH2 0xB6 PUSH1 0x0 SLOAD DUP2 JUMP JUMPDEST PUSH1 0x40 MLOAD SWAP1 DUP2 MSTORE PUSH1 0x20 ADD PUSH2 0x87 JUMP JUMPDEST PUSH1 0x7B PUSH1 0x0 PUSH2 0xD4 PUSH2 0x1C8 DUP4 PUSH2 0xF2 JUMP JUMPDEST POP POP PUSH1 0x7B PUSH1 0x0 SSTORE POP PUSH1 0x1 DUP1 SLOAD PUSH1 0x1 PUSH1 0x1 PUSH1 0xA8 SHL SUB NOT AND PUSH2 0x101 OR SWAP1 SSTORE JUMP JUMPDEST PUSH1 0x0 DUP3 NOT DUP3 GT ISZERO PUSH2 0x113 JUMPI PUSH4 0x4E487B71 PUSH1 0xE0 SHL PUSH1 0x0 MSTORE PUSH1 0x11 PUSH1 0x4 MSTORE PUSH1 0x24 PUSH1 0x0 REVERT JUMPDEST POP ADD SWAP1 JUMP INVALID LOG2 PUSH5 0x6970667358 0x22 SLT KECCAK256 0xE2 DUP4 RETURNDATASIZE 0xE1 CALL SLOAD DIFFICULTY 0xCC 0xBB SHL 0xE7 PC 0xDA ADDRESS 0xA8 0x1E AND 0xE 0x2D SHL PUSH16 0x548520F4D903C3A260A8B264736F6C63 NUMBER STOP ADDMOD SMOD STOP CALLER "
		},
		"gasEstimates": {
			"creation": {
				"codeDepositCost": "66800",
				"executionCost": "29353",
				"totalCost": "96153"
			},
			"external": {
				"b()": "2332",
				"i()": "2339",
				"myAddress()": "2337",
				"updateVariables()": "46546"
			}
		},
		"methodIdentifiers": {
			"b()": "4df7e3d0",
			"i()": "e5aa3d58",
			"myAddress()": "26b85ee1",
			"updateVariables()": "10e112a2"
		}
	},
	"abi": [
		{
			"inputs": [],
			"name": "b",
			"outputs": [
				{
					"internalType": "bool",
					"name": "",
					"type": "bool"
				}
			],
			"stateMutability": "view",
			"type": "function"
		},
		{
			"inputs": [],
			"name": "i",
			"outputs": [
				{
					"internalType": "uint256",
					"name": "",
					"type": "uint256"
				}
			],
			"stateMutability": "view",
			"type": "function"
		},
		{
			"inputs": [],
			"name": "myAddress",
			"outputs": [
				{
					"internalType": "address",
					"name": "",
					"type": "address"
				}
			],
			"stateMutability": "view",
			"type": "function"
		},
		{
			"inputs": [],
			"name": "updateVariables",
			"outputs": [],
			"stateMutability": "nonpayable",
			"type": "function"
		}
	]
}