{
	"data": {
		"bytecode": {
			"linkReferences": {},
			"object": "6080604052600160005534801561001557600080fd5b5061015d806100256000396000f3fe608060405234801561001057600080fd5b50600436106100365760003560e01c80635035df811461003b5780636036251414610045575b600080fd5b61004361004d565b005b61004361007b565b6000546100755760405162461bcd60e51b815260040161006c906100b3565b60405180910390fd5b60008055565b60005461009a5760405162461bcd60e51b815260040161006c906100b3565b60026000808282546100ac91906100fa565b9091555050565b60208082526027908201527f4e756d626572206973207a65726f20616e642063616e6e6f742062652070726f60408201526631b2b9b9b2b21760c91b606082015260800190565b600081600019048311821515161561012257634e487b7160e01b600052601160045260246000fd5b50029056fea26469706673582212206b57ca97de88bb20bd275a96066ac4fa928f1dd59fcd9aef093ba03d0603792264736f6c63430008070033",
			"opcodes": "PUSH1 0x80 PUSH1 0x40 MSTORE PUSH1 0x1 PUSH1 0x0 SSTORE CALLVALUE DUP1 ISZERO PUSH2 0x15 JUMPI PUSH1 0x0 DUP1 REVERT JUMPDEST POP PUSH2 0x15D DUP1 PUSH2 0x25 PUSH1 0x0 CODECOPY PUSH1 0x0 RETURN INVALID PUSH1 0x80 PUSH1 0x40 MSTORE CALLVALUE DUP1 ISZERO PUSH2 0x10 JUMPI PUSH1 0x0 DUP1 REVERT JUMPDEST POP PUSH1 0x4 CALLDATASIZE LT PUSH2 0x36 JUMPI PUSH1 0x0 CALLDATALOAD PUSH1 0xE0 SHR DUP1 PUSH4 0x5035DF81 EQ PUSH2 0x3B JUMPI DUP1 PUSH4 0x60362514 EQ PUSH2 0x45 JUMPI JUMPDEST PUSH1 0x0 DUP1 REVERT JUMPDEST PUSH2 0x43 PUSH2 0x4D JUMP JUMPDEST STOP JUMPDEST PUSH2 0x43 PUSH2 0x7B JUMP JUMPDEST PUSH1 0x0 SLOAD PUSH2 0x75 JUMPI PUSH1 0x40 MLOAD PUSH3 0x461BCD PUSH1 0xE5 SHL DUP2 MSTORE PUSH1 0x4 ADD PUSH2 0x6C SWAP1 PUSH2 0xB3 JUMP JUMPDEST PUSH1 0x40 MLOAD DUP1 SWAP2 SUB SWAP1 REVERT JUMPDEST PUSH1 0x0 DUP1 SSTORE JUMP JUMPDEST PUSH1 0x0 SLOAD PUSH2 0x9A JUMPI PUSH1 0x40 MLOAD PUSH3 0x461BCD PUSH1 0xE5 SHL DUP2 MSTORE PUSH1 0x4 ADD PUSH2 0x6C SWAP1 PUSH2 0xB3 JUMP JUMPDEST PUSH1 0x2 PUSH1 0x0 DUP1 DUP3 DUP3 SLOAD PUSH2 0xAC SWAP2 SWAP1 PUSH2 0xFA JUMP JUMPDEST SWAP1 SWAP2 SSTORE POP POP JUMP JUMPDEST PUSH1 0x20 DUP1 DUP3 MSTORE PUSH1 0x27 SWAP1 DUP3 ADD MSTORE PUSH32 0x4E756D626572206973207A65726F20616E642063616E6E6F742062652070726F PUSH1 0x40 DUP3 ADD MSTORE PUSH7 0x31B2B9B9B2B217 PUSH1 0xC9 SHL PUSH1 0x60 DUP3 ADD MSTORE PUSH1 0x80 ADD SWAP1 JUMP JUMPDEST PUSH1 0x0 DUP2 PUSH1 0x0 NOT DIV DUP4 GT DUP3 ISZERO ISZERO AND ISZERO PUSH2 0x122 JUMPI PUSH4 0x4E487B71 PUSH1 0xE0 SHL PUSH1 0x0 MSTORE PUSH1 0x11 PUSH1 0x4 MSTORE PUSH1 0x24 PUSH1 0x0 REVERT JUMPDEST POP MUL SWAP1 JUMP INVALID LOG2 PUSH5 0x6970667358 0x22 SLT KECCAK256 PUSH12 0x57CA97DE88BB20BD275A9606 PUSH11 0xC4FA928F1DD59FCD9AEF09 EXTCODESIZE LOG0 RETURNDATASIZE MOD SUB PUSH26 0x2264736F6C634300080700330000000000000000000000000000 "
		},
		"gasEstimates": {
			"creation": {
				"codeDepositCost": "69800",
				"executionCost": "22223",
				"totalCost": "92023"
			},
			"external": {
				"doubleNumber()": "26578",
				"resetNumber()": "7245"
			}
		},
		"methodIdentifiers": {
			"doubleNumber()": "60362514",
			"resetNumber()": "5035df81"
		}
	},
	"abi": [
		{
			"inputs": [],
			"name": "doubleNumber",
			"outputs": [],
			"stateMutability": "nonpayable",
			"type": "function"
		},
		{
			"inputs": [],
			"name": "resetNumber",
			"outputs": [],
			"stateMutability": "nonpayable",
			"type": "function"
		}
	]
}